:100000000C9461010C9492010C9492010C94920155
:100010000C9492010C9492010C9492010C94920114
:100020000C9492010C94D60B0C94D60B0C94D60B1A
:100030000C9492010C9459090C9492010C94920125
:100040000C9492010C94A3050C9492010C949201CF
:100050000C9492010C9492010C9492010C940F094F
:100060000C9492010C94DD030C9452040C949201B4
:100070000C9492010C9492010C9492010C949201B4
:100080000C9492010C9492010C9492010C949201A4
:100090000C9492010C9492010C9492010C947D06A4
:1000A0000C9492010C9492010C9492010C94920184
:1000B0000C9492010C9492010C9492010C94E5041E
:1000C0000C9492010C9492010C9492010C94B30341
:1000D0000C9428040C9492010C94220A0C94F809B4
:1000E0000C949201670A6A0A590A5D0A630AA10A16
:1000F0006E0A720A780A7C0A800A860A8A0A8E0ABE
:10010000A10A940A980A9C0A0C947C0A0C945D0A31
:100110000C9448020C9457020C94B7010C94800A7A
:100120000C9473020C94D8080C94940A0C94C50196
:100130000C94860A0C94D00C0C94980A0C94A3028C
:100140000C94D6020C947C040C9494010C94D2026E
:100150000C94E0020C949C110C94590A0C94A10A82
:100160000C94670A0C94C3040C949C0A0C946A0ABD
:100170000C94720A0C948A0A0C94D3020C948E0A82
:100180000C946B020C9447020C94A3010C94780A13
:100190000C94630A0C946E0A0C945408020000211B
:1001A00000240027002A002D003000330001010048
:1001B00000040107010A0100002200250028002B8D
:1001C000002E003100340002010000050108010B7F
:1001D00001000020002300260029002C002F0032FF
:1001E00000000100000301060109010505050507DE
:1001F0000508080808020202020A0A0808040404A2
:1002000004010101010101010103030303030303CD
:1002100003040707070C0C0C0C0C0C0C0C0202025C
:100220000206060606060606060B0B0B0B0B0B0B4F
:100230000B010210202008081020401020408002EE
:10024000010201080402010102040810204080801C
:1002500040201008040201800402018040201008A0
:100260000402010804020101020408102040800178
:100270000204081020408000000A0B02090C0D0E39
:100280000807030401000000000000000000000057
:10029000000000000000000000000000000000005E
:1002A000000000121110000000000000000000001B
:1002B00000000000000000000000000000009C1191
:1002C000D00C11241FBECFEFD1E2DEBFCDBF00E0C6
:1002D0000CBF12E0A0E0B2E0E4E5FCE200E00BBFFE
:1002E00002C007900D92AE35B107D9F727E0AEE511
:1002F000B2E001C01D92A136B207E1F711E0C0E6FD
:10030000D1E000E006C021970109802FFE010E9484
:10031000E513CF35D10780E00807A9F70E94D60C76
:100320000C9418160C940000FC01538D448D252F5D
:1003300030E0842F90E0821B930B541710F0CF967F
:10034000089501970895FC01918D828D981761F0B1
:10035000828DDF01A80FB11D5D968C91928D9F5FFC
:100360009F73928F90E008958FEF9FEF0895FC01A7
:10037000918D828D981731F0828DE80FF11D858D5A
:1003800090E008958FEF9FEF0895FC01918D228DED
:10039000892F90E0805C9F4F821B91098F73992772
:1003A000089584EF93E00E94C50121E0892B09F4B0
:1003B00020E0822F089581E994E00E94C50121E0A8
:1003C000892B09F420E0822F0895E0E0F0E01994F1
:1003D00080E090E0892B21F00E94DB01811119C09F
:1003E00080E090E0892B41F080E090E0892B21F0C3
:1003F0000E940000811110C00E94D10181110FC024
:1004000080E090E0892B81F00E94050981110AC0EB
:1004100008950E940000E4CF0E940000EDCF0E94EA
:10042000E501EECF0C940000089585ED8093BC00AB
:100430008091BC0084FDFCCF109230030895409160
:10044000D302262F30E0240F311D21323105DCF498
:10045000209130032430C9F4FC0180E090E086173D
:1004600058F43091D3022191DC01AF54BD4FA30F5A
:10047000B11D2C930196F3CF8091D302680F609346
:10048000D30280E0089581E0089582E00895089500
:10049000E091320380913103E81730F4F0E0ED5C35
:1004A000FC4F808190E008958FEF9FEF0895909129
:1004B000320380913103981750F4E92FF0E0ED5C9E
:1004C000FC4F208130E09F5F9093320302C02FEFFA
:1004D0003FEFC90108958091310390E020913203EC
:1004E000821B91090895CF92DF92EF92FF920F93B2
:1004F0001F93CF93DF937C01262F972F8A01809142
:100500005603882391F0C62FD72F6E01C40ED51E37
:10051000CC15DD0571F06991D701ED91FC91019049
:10052000F081E02DC7011995F3CF642F822F0E942F
:100530001F02C801DF91CF911F910F91FF90EF90A3
:10054000DF90CF900895CF93DF931F92CDB7DEB7A2
:100550006983209156032223D1F020915303203246
:1005600040F021E030E0FC013383228380E090E022
:1005700015C080915403E82FF0E0EF56FD4F9981AC
:1005800090838F5F809354038093530305C061E091
:10059000CE0101960E941F0281E090E00F90DF9152
:1005A000CF910895089580E090E0089580918F02A2
:1005B0009091900201969093900280938F020895FB
:1005C000CF92DF92EF92FF920F931F93CF93DF931F
:1005D00000918D0210918E0261E0809149060E9487
:1005E000090C0E946F0B80E40E94790B6C0182E47D
:1005F0000E94790B7C0184E40E94790BEC0186E473
:100600000E94790B29EEC21623E0D20674F029EE7F
:10061000E21623E0F206C4F0C93E23E0D207CCF094
:10062000813223E09207ACF04DC028ECC216D10411
:10063000CCF428ECE216F1042CF5C83CD10514F5F5
:10064000883C9105FCF43BC025E8E21623E0F20665
:1006500074F0C032D340B4F5853F91409CF188E0FE
:1006600090E032C02DEBC21622E0D2065CF080E2B0
:10067000E81683E0F80634F5C039D1401CF584E073
:1006800090E022C020E9C21621E0D206DCF420E985
:10069000E21621E0F206B4F4C13921E0D20734F0C9
:1006A000893C91057CF08CE090E00EC0C039D140CF
:1006B0004CF4883C910534F483E090E005C081E07F
:1006C00090E002C080E090E0F801EE0FFF1FE758D5
:1006D000FD4F91838083909378028093770289E71E
:1006E00092E0FC01428153810296208131814217C0
:1006F000530729F0109278021092770204C022E08A
:100700008938920771F7093011053CF40F5F1F4FCC
:1007100010938E0200938D0204C010928E021092EC
:100720008D02DF91CF911F910F91FF90EF90DF909D
:10073000CF900895FC01A089B1898C91A689B789D1
:1007400082FD0FC09C91818D8F5F8F73228D8217E8
:1007500049F0218DDF01A20FB11D5D969C93818F21
:1007600008958C9108951F920F920FB60F92112445
:100770000BB60F922F933F934F935F936F937F939B
:100780008F939F93AF93BF93EF93FF9384EF93E087
:100790000E949A03FF91EF91BF91AF919F918F912A
:1007A0007F916F915F914F913F912F910F900BBE71
:1007B0000F900FBE0F901F9018951F920F920FB6BB
:1007C0000F9211240BB60F922F933F934F935F9389
:1007D0006F937F938F939F93AF93BF93EF93FF9309
:1007E00081E994E00E949A03FF91EF91BF91AF914C
:1007F0009F918F917F916F915F914F913F912F9139
:100800000F900BBE0F900FBE0F901F901895FC011C
:10081000848DDF01A80FB11DA35ABF4F2C91848D89
:1008200090E001968F739927848FA689B7892C93BE
:10083000A089B1898C9180648C93938D848D981359
:1008400006C00288F389E02D80818F7D8083089522
:100850001F920F920FB60F9211240BB60F922F9387
:100860003F934F935F936F937F938F939F93AF9338
:10087000BF93EF93FF9384EF93E00E940704FF91EF
:10088000EF91BF91AF919F918F917F916F915F9108
:100890004F913F912F910F900BBE0F900FBE0F9075
:1008A0001F9018951F920F920FB60F9211240BB63E
:1008B0000F922F933F934F935F936F937F938F93F9
:1008C0009F93AF93BF93EF93FF9381E994E00E94CE
:1008D0000704FF91EF91BF91AF919F918F917F910D
:1008E0006F915F914F913F912F910F900BBE0F90A1
:1008F0000FBE0F901F901895EF92FF920F931F93CA
:10090000CF93DF93EC0181E0888F9B8D8C8D9813C2
:1009100005C0E889F989808185FD24C0F62E0B8DFC
:1009200010E00F5F1F4F0F731127E02E8C8DE81220
:100930000CC00FB607FCFACFE889F989808185FFE2
:10094000F5CFCE010E940704F1CF8B8DFE01E80F99
:10095000F11DE35AFF4FF0820B8FEA89FB898081FA
:10096000806207C0EE89FF896083E889F989808108
:100970008064808381E090E0DF91CF911F910F919F
:10098000FF90EF900895CF93DF93EC01888D88233B
:10099000C9F0EA89FB89808185FD05C0A889B989EC
:1009A0008C9186FD0FC00FB607FCF5CF808185FFC7
:1009B000F2CFA889B9898C9185FFEDCFCE010E9435
:1009C0000704E7CFDF91CF9108951F920F920FB6E2
:1009D0000F9211240BB60F922F933F934F935F9377
:1009E0006F937F938F939F93AF93BF93EF93FF93F7
:1009F00080913B050E94E00B20913F05309140051E
:100A00002F5F3F4F3093400520933F0590913E0567
:100A1000953618F096E090933A0590913A05943007
:100A2000C9F128F4923069F09330D1F05EC095306E
:100A300009F451C0963009F058C091E090930B062C
:100A400051C0811152C020913F053091400524369C
:100A5000310508F442C010920B0610923E051CC0EE
:100A6000813009F042C0E0913E0591E09E0F9093E5
:100A70003E05F0E020913F0530914005EE0FFF1F4D
:100A8000E65CFA4F308727831092400510923F05AD
:100A900094E029C0811117C0E0913E0591E09E0FBE
:100AA00090933E05F0E020913F0530914005EE0F18
:100AB000FF1FE65CFA4F30872783109240051092A3
:100AC0003F0593E010C020913F0530914005253649
:100AD000310558F007C0811108C0109240051092EE
:100AE0003F0503C095E090933A0590913D05992309
:100AF000B9F081110AC080913C05882321F08091D2
:100B00003C0561E009C02F9A0BC080913C05882309
:100B100031F080913C0560E00E94090C01C02F98E3
:100B2000FF91EF91BF91AF919F918F917F916F91C5
:100B30005F914F913F912F910F900BBE0F900FBE81
:100B40000F901F9018951F920F920FB60F921124BD
:100B50000BB60F922F933F934F935F936F937F93B7
:100B60008F939F93AF93BF93EF93FF938091F8027E
:100B700087FF05C0109285001092840016C0209156
:100B8000F802022E000C330B8091480690E02817E3
:100B900039075CF43091F80225E03203F0011124AA
:100BA000E45FF94F808186FD15C08091F8028F5F68
:100BB0008093F8022091F802022E000C330B8091F2
:100BC000480690E02817390794F48091F8028C3099
:100BD0002CF10DC03091F8023203F0011124E45FD2
:100BE000F94F808160E08F730E94090CDECF809105
:100BF00084009091850084349C4918F480E49CE939
:100C000005C080918400909185000496909389009E
:100C1000809388008FEF8093F8022AC0409184006F
:100C2000509185003091F80225E03203F001112443
:100C3000E45FF94F81819281840F951F9093890021
:100C4000809388003091F8023203F0011124E45FB0
:100C5000F94F808186FF0CC03091F8023203F00119
:100C60001124E45FF94F808161E08F730E94090CC9
:100C7000FF91EF91BF91AF919F918F917F916F9174
:100C80005F914F913F912F910F900BBE0F900FBE30
:100C90000F901F9018958EBD00000DB407FEFDCF7C
:100CA0008EB50895CF93DF93EC0160E088810E94B8
:100CB000090C88E90E944B0680E00E944B0680E008
:100CC0000E944B0680E00E944B0680E00E944B068B
:100CD00061E088810E94090C8BE891E00197F1F7AF
:100CE00060E088810E94090C80EE0E944B0661E062
:100CF0008881DF91CF910C94090C1F920F920FB64F
:100D00000F9211240BB60F922F933F934F935F9343
:100D10006F937F938F939F93AF93BF93EF93FF93C3
:100D20008091B900887F803609F49CC068F58832CC
:100D300009F45BC090F4803109F454C038F488237E
:100D400009F4F6C0883009F44DC0F6C0883109F4C2
:100D50004CC0803209F45DC0EFC0803409F468C033
:100D600048F4803309F455C0883309F0E5C0809316
:100D70002E03D8C0803509F44FC0883509F45DC012
:100D8000883409F0D9C0D6C0883909F4C7C0A8F49E
:100D9000883709F467C038F4883609F463C08037AF
:100DA00009F460C0C9C0883809F4B8C0803909F4B2
:100DB0005FC0803809F0C0C05BC0803B09F486C0CA
:100DC00038F4803A09F466C0883A09F47FC0B4C0A8
:100DD000803C09F4A7C0883C09F4A4C0883B09F40E
:100DE0008AC0AAC080912B0310C090912D038091DE
:100DF0002C03981770F5E0912D0381E08E0F8093FE
:100E00002D03F0E0E65FFC4F80818093BB0085EC12
:100E100086C080932E038EC0E0912D0381E08E0F5B
:100E200080932D038091BB00F0E0E65FFC4F808350
:100E300090912D0380912C036EC0E0912D0381E0F1
:100E40008E0F80932D038091BB00F0E0E65FFC4F96
:100E5000808380912F0381116DC081E080932A03EC
:100E600084EA61C083E0809330031092F702CFCF11
:100E70008091F702803208F051C0E091F70281E0E2
:100E80008E0F8093F7028091BB00F0E0E952FD4F96
:100E90008083BDCF85EC8093BC001092300380919D
:100EA000F702803230F4E091F702F0E0E952FD4FB2
:100EB00010826091F70270E0E091D502F091D602C5
:100EC00087ED92E019951092F70236C084E0809386
:100ED00030031092D4021092D302E091D102F0912B
:100EE000D20219958091D302811105C081E08093CF
:100EF000D3021092B102E091D40281E08E0F809370
:100F0000D402F0E0EF54FD4F80818093BB009091BC
:100F1000D4028091D302981708F479CF85E88093A2
:100F2000BC000AC085EC8093BC001092300304C062
:100F300010922E030E941502FF91EF91BF91AF9185
:100F40009F918F917F916F915F914F913F912F91E1
:100F50000F900BBE0F900FBE0F901F901895109220
:100F6000300381E080932F0310922A0361E084E133
:100F70000E94090C61E085E10E94090CE9EBF0E0B8
:100F800080818E7F808380818D7F808388E48093C1
:100F9000B80085E48093BC0008952091530390919C
:100FA0005503213208F04AC0809130038111FCCFF3
:100FB00032E03093300331E030932F033FEF309332
:100FC0002E0310922D0320932C03A1E9B2E04AE0F6
:100FD00053E0FA013E2F341B321718F43D91319340
:100FE000F9CF10922B0320912B03990F922B909302
:100FF0002B0390912A03913061F410922A0390916F
:101000002B039093BB009091BC0093FDF8CF95EC1F
:1010100001C095EE9093BC00909130039230E1F3C3
:1010200090912E039F3F79F080912E03803241F002
:1010300080912E03803331F084E005C081E003C04D
:1010400082E001C083E01092540310925303109287
:1010500056030895FC01248131E030935603209318
:10106000550310925403109253038485682B8EE22B
:1010700095E00E94A3028EE295E00C94CD070F93B9
:101080001F93CF938C01C62F64600E942A086C2F97
:101090006B7FC8010E942A0883EC90E00197F1F76A
:1010A000CF911F910F9108950F931F93CF93DF93CB
:1010B0008C01C62FD62FD07FD1606D2F0E942A08B9
:1010C0006D2FC8010E943F0880E1C89FB001112424
:1010D000C62FC1606C2FC8010E942A086C2FC8015E
:1010E0000E943F0881E090E0DF91CF911F910F9126
:1010F00008953FB7F8948091060390910703A0915B
:101100000803B091090326B5A89B05C02F3F19F02D
:101110000196A11DB11D3FBFBA2FA92F982F882777
:10112000820F911DA11DB11DBC01CD0142E0660FD2
:10113000771F881F991F4A95D1F708958F929F9224
:10114000AF92BF92CF92DF92EF92FF926B017C0140
:101150000E9479084B015C01C114D104E104F1043F
:10116000F1F00E947908DC01CB0188199909AA09DC
:10117000BB09883E9340A105B10570F321E0C21A76
:10118000D108E108F10888EE880E83E0981EA11CC2
:10119000B11CC114D104E104F10419F7DDCFFF90B3
:1011A000EF90DF90CF90BF90AF909F908F90089579
:1011B000CF92DF92EF92FF920F931F93CF93DF9323
:1011C0006C017A018B01C0E0D0E0CE15DF0589F01B
:1011D000D8016D918D01D601ED91FC910190F081C6
:1011E000E02DC6011995892B11F47E0102C02196CC
:1011F000ECCFC701DF91CF911F910F91FF90EF903E
:10120000DF90CF9008950E94031687E593E00E9437
:10121000C50121E0892B09F420E0822F08951F9257
:101220000F920FB60F9211242F933F938F939F939A
:10123000AF93BF938091020390910303A0910403A5
:10124000B09105033091010323E0230F2D3720F4E3
:101250000196A11DB11D05C026E8230F0296A11D10
:10126000B11D209301038093020390930303A09385
:101270000403B09305038091060390910703A091A6
:101280000803B09109030196A11DB11D80930603C7
:1012900090930703A0930803B0930903BF91AF9104
:1012A0009F918F913F912F910F900FBE0F901F90A4
:1012B00018951F920F920FB60F9211240BB60F9232
:1012C0002F933F934F935F936F937F938F939F934E
:1012D000AF93BF93EF93FF938091FC029091FD0237
:1012E000A091FE02B091FF02892B8A2B8B2B59F122
:1012F0008091FB02E091F902F091FA029081892736
:1013000080838091FC029091FD02A091FE02B09139
:10131000FF02181619061A061B060CF056C080911B
:10132000FC029091FD02A091FE02B091FF02019794
:10133000A109B1098093FC029093FD02A093FE02E3
:10134000B093FF0242C080910002ECE9F1E0E49129
:101350009FEF90930002E230C9F050F4EE2399F031
:10136000E13081F590916F009D7F90936F002AC0CE
:10137000E43019F1E0F0E53029F5909173009D7F9C
:10138000909373001FC010926E001CC0909170006B
:101390009D7F9093700091E09093B0009091B10088
:1013A000987F94609093B1001092B3000BC090911D
:1013B00071009D7F9093710005C0909172009D7F98
:1013C0009093720060E00E94090CFF91EF91BF9131
:1013D000AF919F918F917F916F915F914F913F91CD
:1013E0002F910F900BBE0F900FBE0F901F9018956E
:1013F0001F920F920FB60F9211240BB60F922F93DC
:101400003F934F935F936F937F938F939F93AF938C
:10141000BF93EF93FF9387E593E00E940704FF914A
:10142000EF91BF91AF919F918F917F916F915F915C
:101430004F913F912F910F900BBE0F900FBE0F90C9
:101440001F9018951F920F920FB60F9211240BB692
:101450000F922F933F934F935F936F937F938F934D
:101460009F93AF93BF93EF93FF9387E593E00E9421
:101470009A03FF91EF91BF91AF919F918F917F91CF
:101480006F915F914F913F912F910F900BBE0F90F5
:101490000FBE0F901F90189590E0FC013197E2313C
:1014A000F10508F04EC08827EE58FF4F8F4F0C947F
:1014B000E513809180008F7703C0809180008F7D3D
:1014C00080938000089580918000877FF9CF84B554
:1014D0008F7702C084B58F7D84BD08958091B00060
:1014E0008F7703C08091B0008F7D8093B000089506
:1014F000809190008F7707C0809190008F7D03C00E
:1015000080919000877F8093900008958091A00043
:101510008F7707C08091A0008F7D03C08091A000CD
:10152000877F8093A0000895809120018F7707C066
:10153000809120018F7D03C080912001877F80935F
:101540002001089591E09093560394E790935503FA
:101550001092540310925303682F8EE295E00E947C
:10156000A3028EE295E00E94CD07809130038111A5
:10157000FCCF81E08093300380932F039FEF909303
:101580002E0310922D0310922C0380932B03809135
:101590002B03886E80932B0380912A03813061F4A2
:1015A00010922A0380912B038093BB008091BC0092
:1015B00083FDF8CF85EC01C085EE8093BC0080915F
:1015C00030038130E1F380912D03811103C08091BC
:1015D0002D0301C081E0AAE0B3E023E333E0F90189
:1015E0009E2F921B981718F49D919193F9CF10920A
:1015F000320380933103811101C0FFCF8EE295E069
:101600000E9457020895E1E9F4E0A089B18982E0DF
:101610008C93A485B5851C92A685B7858FEC8C9399
:10162000108EA489B58986E08C93A289B3898C91A8
:1016300080618C93A289B3898C9188608C93A289F4
:10164000B3898C9180688C930288F389E02D808126
:101650008F7D80830895CF93C82F81E080935603B8
:1016600084E78093550310925403109253038EE243
:1016700095E00E94A3026C2F8EE295E00E94A302E7
:101680008EE295E0CF910C94CD07009769F0FC01B4
:1016900001900020E9F73197AF01481B590BBC01BD
:1016A00081E994E00C94D80880E090E008950F93CD
:1016B0001F93CF93C82F8B016115704164F46C2F79
:1016C000802F0E942B0B61E06C0F812FCF911F9117
:1016D0000F910C942B0BCF911F910F91089560E007
:1016E00081E00E942B0B80E00E94A20A8111FBCFB7
:1016F0000895CF93DF93C82F0E94A20AD82F81E0CC
:101700008C0F0E94A20A282F30E0922F88278D0F7D
:10171000911DDF91CF910895EF92FF921F93CF9388
:10172000DF931F92CDB7DEB7162F94E2E92E97E034
:10173000F92ED7011C969C911C9721E0209356030B
:101740009093550310925403109253031A960D90E0
:10175000BC91A02DED91FC9111970190F081E02DAD
:10176000682FCD0179831995F70182859385DC0176
:10177000ED91FC910190F081E02D7981672F199511
:10178000F70182859385DC01ED91FC910190F08158
:10179000E02D612F1995F701828593850F90DF91D8
:1017A000CF911F91FF90EF900C94CD071F920F9255
:1017B0000FB60F9211240F900FBE0F901F90189527
:1017C000CF93DF93282F30E0F901E958FD4F849142
:1017D000F901EF5CFD4FD491F901E551FE4FC49141
:1017E000CC2391F081110E944C0AEC2FF0E0EE0F17
:1017F000FF1FEF52FE4FA591B491EC91ED2381E0D4
:1018000090E021F480E002C080E090E0DF91CF9191
:1018100008951F93CF93DF93282F30E0F901E95803
:10182000FD4F8491F901EF5CFD4FD491F901E55131
:10183000FE4FC491CC23C9F0162F81110E944C0A8F
:10184000EC2FF0E0EE0FFF1FE954FE4FA591B4918D
:101850008FB7F894111105C09C91ED2FE095E92305
:1018600002C0EC91ED2BEC938FBFDF91CF911F91D4
:101870000895CF93DF9390E0FC01EF5CFD4F24913E
:10188000FC01E551FE4F8491882361F190E0880FBF
:10189000991FFC01E356FE4FC591D491FC01E95418
:1018A000FE4FA591B491611109C09FB7F89488814A
:1018B000209582238883EC912E230BC0623061F443
:1018C0009FB7F8943881822F809583238883EC9189
:1018D0002E2B2C939FBF06C08FB7F894E8812E2B38
:1018E00028838FBFDF91CF9108951F93CF93DF930C
:1018F000EC01162F88818C3008F04DC061E0812FFB
:101900000E94390CE88195E09E9FF0011124E45F6C
:10191000F94F1F738081807C182B10831382E8811C
:101920009E9FF0011124E45FF94F148288816CE0DE
:101930000E94D9139CE0899FA001112420E030E08F
:1019400095E0B901640F751F969FF001979FF00D08
:101950001124E45FF94F608166FD13C02F5F3F4F94
:101960002C30310571F781110CC01092800082E09B
:1019700080938100109285001092840086BB809332
:101980006F00E88185E0E89FF0011124E45FF94FE2
:101990008081806480838881DF91CF911F91089539
:1019A00080915B0690915C060C948214789484B5C7
:1019B000826084BD84B5816084BD85B5826085BD4B
:1019C00085B5816085BD80916E00816080936E00D9
:1019D00010928100809181008260809381008091CB
:1019E000810081608093810080918000816080937C
:1019F00080008091B10084608093B1008091B0003C
:101A000081608093B000809191008260809391000A
:101A1000809191008160809391008091900081601D
:101A2000809390008091A10082608093A1008091BA
:101A3000A10081608093A1008091A00081608093CB
:101A4000A000809121018260809321018091210179
:101A50008160809321018091200181608093200129
:101A600080917A00846080937A0080917A0082600D
:101A700080937A0080917A00816080937A008091CF
:101A80007A00806880937A001092C1000E94030B54
:101A900061E0809125070E94390C60E08091250764
:101AA0000E94090C60E0809124070E94390C8EE2AC
:101AB00095E090932F0780932E0710923203109297
:101AC000310310925403109253030E94AF0780E039
:101AD00090E1A0E0B0E08093310790933207A093AB
:101AE0003307B09334078AE090E0A0E0B0E0809341
:101AF000350790933607A0933707B093380780E0F7
:101B000090E0A0E0B0E48093390790933A07A09367
:101B10003B07B0933C0760E070E185E00E948C0BCE
:101B20006FE979E380E00E948C0BC1E4D7E0C12C1F
:101B3000D12CE12CF12C40E2442E42E0542E56E60A
:101B4000852E52E0952E6BECA62E67E0B62EC701CF
:101B50008C5D984F3C01DC0114969C911497129671
:101B60008C9186010C5D184FF801818F928F61E096
:101B70000E94390C61E0D8015A968C910E94390C70
:101B8000F301908586818883D8015E969C9361E0FD
:101B90000E94390C60E0F801868D0E94390C61E0EA
:101BA00088810E94090C1FB7F8948091000381116D
:101BB00025C0F2018491F4019491E82FF0E0EE0F3A
:101BC000FF1FE356FE4FA591B4918C91982321F409
:101BD00061E085E30E94090C61E085E30E94390C15
:101BE0008CB580618CBD8CB580648CBD61E084E374
:101BF0000E94390C61E083E30E94390C809100035C
:101C00008F5F809300031FBFC5010197F1F760E06C
:101C100088810E94090C88E80E944B0683E00E949C
:101C20004B0661E088810E94090CC5010197F1F71C
:101C3000CE010E945206F2E0CF0ED11C2296EA9409
:101C4000EF2821F0EE24E394F12C81CFC9E4D7E012
:101C50001C2F1C5F60E089910E94390C1C13FACF85
:101C600008E517E0C3E5D7E0FC2EF394F394FE01FA
:101C70003697608170E0CE0102960E94750C9991B2
:101C8000FE0133978081F80131978083D8019C93BE
:101C900060E00E94390C61E0F80180810E94390CFB
:101CA00060E0D8018C910E94090C0E5F1F4FFC125E
:101CB000DECFF8941092200189E08093210180E228
:101CC00093E09093290180932801109225011092AE
:101CD000240182E080937300789480933A051092F7
:101CE0003E0580913B0560E00E94390C81E497E05D
:101CF0000E94520683E497E00E9452060E94030B62
:101D000060914E0770E086E597E00E94750C809127
:101D10004F078D3820F4809150078C3848F489E3C0
:101D200092E00E94450B86E592E00E94450B48C078
:101D3000C0915607CC3008F043C0E5E0CE9FE001EB
:101D40001124C45FD94F8B8128E830E06901C81A9B
:101D5000D10887FDD394CC0CDD1CCC0CDD1C0D2CE4
:101D6000000CEE08FF088C8128E532E0281B3109C1
:101D700087FD3395220F331F220F331FC901330F05
:101D8000AA0BBB0B9C01AD012C193D094E095F0943
:101D9000ACE8B0E00E949D1324EB30E040E050E05E
:101DA0000E947E13C20ED31EE41EF51EF6E0CF1A6B
:101DB000D108CC0CDD1C8FB7F894DA82C9828FBFB2
:101DC0000E94030B89E592E00E94450B61E080913F
:101DD00049060E94390C109232031092310310927E
:101DE0005403109253030E94AF0761E070E080E05B
:101DF00090E00E949E0889E080934B0680934C06F9
:101E000082E080934D0685E080934E0680E098E066
:101E10009093500680934F069093520680935106FC
:101E200090935406809353069093560680935506DC
:101E300066E089E00E942B0B80914C0667E08F7072
:101E40000E942B0B80914D0668E08F700E942B0B37
:101E500080914E0669E08F700E942B0B6AE08091A2
:101E60004F060E942B0B80914F06909150069F7158
:101E70006BE0892F0E942B0B6EE0809153060E942D
:101E80002B0B80915306909154069F716FE0892F20
:101E90000E942B0B6CE0809151060E942B0B8091CD
:101EA0005106909152069F716DE0892F0E942B0B75
:101EB00060E1809155060E942B0B80915506909110
:101EC00056069F7161E1892F0E942B0B61E0809182
:101ED00049060E94090C62E070E080E090E00E94F8
:101EE0009E08E12CF12CC12CC0E1DC2EE601CE19BC
:101EF000DF09D7FD2196D595C795CE0DDF1DCE15EF
:101F0000DF05C1F1BE018AE090E00E94570BBE01DF
:101F10008CE090E00E94570BBE018EE090E00E94A2
:101F2000570B0E946F0B80E40E94790B97FD05C050
:101F300080E40E94790B8C0102C000E010E082E492
:101F40000E94790B8017910724F082E40E94790B9C
:101F50008C0184E40E94790B8017910724F084E4BB
:101F60000E94790B8C01093E23E0120754F5083ECC
:101F7000134029F500E010E0E12C90E1F92EE70193
:101F8000C01BD10BD7FD2196D595C795C00FD11F8A
:101F9000C017D107C1F0BE0180E190E00E94570B4D
:101FA0000E946F0B86E40E94790B893EA3E09A079A
:101FB0000CF0B2C0883E934009F0B0C004C07E016E
:101FC000E6016E0193CF88E8C82E83E1D82EE12C7C
:101FD000F12C00E010E0C0E0D0E066E08C2F0E9421
:101FE0002B0B67E0802F0E942B0B68E08E2D0E9448
:101FF0002B0B8AE00E94790B5C01BC018AE090E027
:102000000E94570BB5018CE090E00E94570BB50180
:102010008EE090E00E94570BF4E04F2E512CA12C43
:10202000B12C812C912C612C712C0E946F0B80E4BF
:102030000E94790B680E791E82E40E94790B880E4B
:10204000991E84E40E94790BA80EB91EE1E04E1A95
:10205000510859F7A30177FE02C04D5F5F4F5595B8
:10206000479555954795940197FE02C02D5F3F4FC8
:102070003595279535952795C501B7FC0396959518
:10208000879595958795F42FE52F4217530714F4FC
:10209000F22FE32F6F2F7E2F77FF02C060E070E0FA
:1020A000681779070CF4BC01B42FA52F2417350746
:1020B00014F4B22FA32FEB2FFA2FE130A0E1FA078F
:1020C00014F0E0E0F0E18E179F070CF4FC01DB0157
:1020D000AE1BBF0BFD01CA16DB0611F164177507B5
:1020E00029F4CF30D10514F4219624C16217730767
:1020F00031F40F3011051CF40F5F1F4F1BC168171F
:10210000790709F017C1BFE0EB16F1040CF012C11A
:102110002FEFE21AF20A0EC17E01E8018E012FCFE5
:1021200080EE92E090937A06809379068AE090E0C0
:10213000A0E0B0E080937B0690937C06A0937D06A0
:10214000B0937E064FEF5FEFBA0140938406509341
:102150008506609386067093870621E020938306A8
:102160003FB7F8948091020390910303A091040378
:10217000B09105033FBFC0907B06D0907C06E090F5
:102180007D06F0907E068C0D9D1DAE1DBF1D8093BB
:102190007F0690938006A0938106B093820680917B
:1021A000840690918506A0918606B091870680935B
:1021B000880690938906A0938A06B0938B0686EDD5
:1021C00092E0909367068093660688EE93E0A0E025
:1021D000B0E08093680690936906A0936A06B09376
:1021E0006B0640937106509372066093730670936A
:1021F0007406209370062FB7F89480910203909193
:102200000303A0910403B09105032FBF409168061A
:102210005091690660916A0670916B06840F951F54
:10222000A61FB71F80936C0690936D06A0936E0651
:10223000B0936F068091710690917206A09173061B
:10224000B09174068093750690937606A0937706F6
:10225000B093780680914C070E94E00B892BD1F354
:10226000C6E6D6E000E716E08FB7F8944091020387
:102270005091030360910403709105038FBF8E8119
:102280009F81A885B98584179507A607B70708F029
:1022900040C0D8018C918823E1F18B859C85AD8568
:1022A000BE85892B8A2B8B2BA1F1E881F9811995A9
:1022B0008B859C85AD85BE85181619061A061B06EA
:1022C0008CF48F859889A989BA890197A109B109E8
:1022D0008F87988BA98BBA8B892B8A2B8B2B11F428
:1022E000F80110822FB7F8948091020390910303B4
:1022F000A0910403B09105032FBF4A815B816C81DB
:102300007D81840F951FA61FB71F8E839F83A8878B
:10231000B98763960D5E1F4FF7E0C432DF0709F0FF
:10232000A3CF6AE070E080E090E00E949E080E94E7
:10233000E80196CF6F0151CE10925A0310925903C3
:1023400088EE93E0A0E0B0E080935B0390935C03A1
:10235000A0935D03B0935E032BE032E0309358030B
:102360002093570345E351E0509364034093630384
:1023700044E351E0509366034093650340E351E02A
:10238000509368034093670341E351E050936A031D
:102390004093690342E351E050936C0340936B0315
:1023A00046E351E050936E0340936D031092700327
:1023B0001092710310927203109273031092F7033C
:1023C0001092F6038093F8039093F903A093FA0315
:1023D000B093FB033093F5032093F40345ED50E0F5
:1023E000509301044093000444ED50E050930304E3
:1023F0004093020440ED50E05093050440930404E0
:1024000041ED50E0509307044093060442ED50E044
:10241000509309044093080446ED50E050930B0498
:1024200040930A0410920D0410920E0410920F04AF
:1024300010921004109294041092930480939504C7
:1024400090939604A0939704B093980430939204C9
:102450002093910425EC30E030939E0420939D045A
:1024600024EC30E03093A00420939F0420EC30E073
:102470003093A2042093A10421EC30E03093A40413
:102480002093A30422EC30E03093A6042093A5040B
:1024900026EC30E03093A8042093A7041092AA04FD
:1024A0001092AB041092AC041092AD04109231055E
:1024B000109230058093320590933305A093340534
:1024C000B09335058DE192E090932F0580932E0512
:1024D00086E38093450787E38093460788E38093EC
:1024E000470789E3809348078BE1809349078DE193
:1024F00080934A078AE180934B078CE180934C07D5
:1025000084E080934D0787E080934E0710924F0739
:1025100084EB8093500786E18093510788E1809394
:10252000520787E18093530789E180935407E09134
:102530004806EC3020F08FEF8093550710C081E003
:102540008E0F80934806E093550725E0E29FF00147
:102550001124E45FF94F88EB9BE092838183E09143
:102560004806EC3020F08FEF8093560710C081E0D2
:102570008E0F80934806E093560785E0E89FF001B0
:102580001124E45FF94F88EB9BE0928381838CE018
:102590008093240784E28093250786E080932607B2
:1025A00085E0809327078FE1809328078EE1809351
:1025B000290783E280932A0782E280932B0785E430
:1025C00080932C0784E480932D0780E48093300768
:1025D000109235071092360710923707109238077D
:1025E0001092390710923A0710923B0710923C075D
:1025F000E6E6F6E08FEF9FEFDC0112821382148291
:102600001582168217821086118683879487A58784
:10261000B6878787908BA18BB28B1286118210822E
:10262000739627E0E432F20741F78DE090E00E94D4
:10263000ED13FC01138212828FE292E0918380837A
:10264000118687E2848384E1828784E0838714860D
:10265000F0936306E093620610926406109265069A
:1026600085E280933B0510923D0510925C06109226
:102670005B0610925E0610925D0610926006109244
:102680005F0661E070E080E090E00E941A1500971C
:1026900089F090935C0680935B0610925E06109220
:1026A0005D0620915F0630916006232BF1F4FC015A
:1026B00010821BC080915B0690915C06009711F020
:1026C0000E94821410925C0610925B0610926006C3
:1026D00010925F0610925E0610925D0682E090E016
:1026E00090934A06809349060895109260061092CE
:1026F0005F0668E572E00E941116F0CF052E97FB89
:102700001EF400940E94951357FD07D00E94A81351
:1027100007FC03D04EF40C949513509540953095DA
:1027200021953F4F4F4F5F4F08959095809570953D
:1027300061957F4F8F4F9F4F08950E94CA13A59FA9
:10274000900DB49F900DA49F800D911D11240895AC
:10275000A1E21A2EAA1BBB1BFD010DC0AA1FBB1FA5
:10276000EE1FFF1FA217B307E407F50720F0A21B17
:10277000B30BE40BF50B661F771F881F991F1A9484
:1027800069F760957095809590959B01AC01BD01AE
:10279000CF010895A29FB001B39FC001A39F700D08
:1027A000811D1124911DB29F700D811D1124911D59
:1027B0000895991B79E004C0991F961708F0961B9D
:1027C000881F7A95C9F780950895EE0FFF1F881F1F
:1027D0008BBF0790F691E02D1994CF93DF93823051
:1027E000910510F482E090E0E0915F07F0916007BE
:1027F00020E030E0C0E0D0E0309711F1408151811D
:1028000048175907C0F04817590761F4828193812E
:10281000209719F09B838A832BC090936007809345
:102820005F0726C02115310519F04217530718F428
:102830009A01BE01DF01EF010280F381E02DDCCFC0
:102840002115310509F1281B390B2430310590F48D
:1028500012968D919C9113976115710521F0FB01E2
:102860009383828304C09093600780935F07FD0188
:10287000329644C0FD01E20FF31F819391932250E1
:1028800031092D933C933AC020915D0730915E074A
:10289000232B41F4209103023091040230935E0710
:1028A00020935D072091010230910202211531052C
:1028B00041F42DB73EB74091050250910602241B0A
:1028C000350BE0915D07F0915E07E217F307A0F486
:1028D0002E1B3F0B2817390778F0AC014E5F5F4F76
:1028E0002417350748F04E0F5F1F50935E07409343
:1028F0005D078193919302C0E0E0F0E0CF01DF91AA
:10290000CF9108950F931F93CF93DF93009709F40E
:102910008CC0FC0132971382128200915F071091E4
:1029200060070115110581F420813181820F931F09
:1029300020915D0730915E072817390779F5F093EC
:102940005E07E0935D0771C0D80140E050E0AE172C
:10295000BF0750F412962D913C911397AD012115AC
:10296000310509F1D901F3CF9D01DA0133832283C7
:1029700060817181860F971F8217930769F4EC01BC
:1029800028813981260F371F2E5F3F4F31832083E7
:102990008A819B8193838283452B29F4F09360077E
:1029A000E0935F0742C01396FC93EE931297ED01FC
:1029B000499159919E01240F351FE217F30771F4D5
:1029C00080819181840F951F029611969C938E931E
:1029D0008281938113969C938E931297E0E0F0E0AE
:1029E000D80112968D919C911397009719F0F801D8
:1029F0008C01F6CF8D919C9198012E5F3F4F820FF5
:102A0000931F20915D0730915E072817390769F4FD
:102A1000309729F41092600710925F0702C013826A
:102A2000128210935E0700935D07DF91CF911F9193
:102A30000F9108956F927F928F929F92AF92BF9263
:102A4000CF92DF92EF92FF920F931F93CF93DF937A
:102A5000EC01009789F4CB01DF91CF911F910F9189
:102A6000FF90EF90DF90CF90BF90AF909F908F90AE
:102A70007F906F900C94ED13FC01E60FF71F9C0103
:102A800022503109E217F30708F4ACC0D9010D91C7
:102A90001C91119706171707B0F00530110508F4BF
:102AA0009FC0C80104978617970708F499C0025081
:102AB0001109061B170B019311936D937C93CF01A2
:102AC0000E9482148DC05B01A01AB10A4C01800ED5
:102AD000911EA0915F07B091600740E050E0E12CAB
:102AE000F12C109709F44AC0A815B905D1F56D90DD
:102AF0007C901197630182E0C80ED11CCA14DB04DC
:102B000080F1A3014A195B096A0182E0C80ED11C59
:102B10001296BC9012971396AC91B5E0CB16D104E7
:102B200040F0B282A38351834083D9016D937C939B
:102B30000AC00E5F1F4FC301800F911FF9019183DF
:102B40008083EB2DFA2FE114F10431F0D7011396B5
:102B5000FC93EE93129744C0F0936007E0935F07F5
:102B60003FC08D919C9111974817590708F4AC010B
:102B70007D0112960D90BC91A02DB3CF80915D0781
:102B800090915E0788159905E1F446175707C8F438
:102B90008091010290910202009741F48DB79EB797
:102BA0004091050250910602841B950BE817F90726
:102BB000C8F4F0935E07E0935D07F90171836083C9
:102BC0000FC0CB010E94ED137C01009759F0A801C2
:102BD000BE010E940816CE010E948214C70104C0E3
:102BE000CE0102C080E090E0DF91CF911F910F9164
:102BF000FF90EF90DF90CF90BF90AF909F908F901D
:102C00007F906F90089581E090E0F8940C941816EE
:102C1000FB01DC0102C001900D9241505040D8F7F9
:102C20000895FB01DC0101900D920020E1F7089569
:102C300011E0C0E6D1E000E006C0802FFE010E9456
:102C4000E5132196011DC136D10780E00807A9F7D9
:042C5000F894FFCF26
:102C5400FF000061072000000000007C04D80894F5
:102C640001C304C501A301B70100000000A302735E
:102C740002D30247026B02570248020000000054CC
:102C840008D808D302D2020200536572766F20611D
:102C94006E676C65206973206F7574206F6620728F
:0E2CA400616E676521000D0A00696E6974009B
:00000001FF
