:100000000C9484010C94B5010C94B5010C94B501C9
:100010000C94B5010C94B5010C94B5010C94B50188
:100020000C94B5010C94420C0C94420C0C94420CB0
:100030000C94B5010C9459050C94B5010C94B501C0
:100040000C94B5010C94C10A0C94B5010C94B50143
:100050000C94B5010C94B5010C94B5010C940F05EA
:100060000C94B5010C94CA060C94A0060C94B5012E
:100070000C94B5010C94B5010C94B5010C94B50128
:100080000C94930A0C94B5010C94B5010C94B50131
:100090000C94B5010C94B5010C94B5010C944C0C66
:1000A0000C94B5010C94B5010C94650A0C94B5013F
:1000B0000C94B5010C94B5010C94B5010C94370A5D
:1000C0000C94B5010C94B5010C94B5010C94760612
:1000D0000C944C060C94B5010C9422060C94F80573
:1000E0000C94B501E601E901D801DC01E001200230
:1000F000ED01F101F701FB01FF01050209020D020B
:100100002002130217021B02540759075E076807F3
:100110007207EB077C0784078C079607A007AA07DE
:10012000B907C307EB07CD07D707E1070C94E8022F
:100130000C94FB010C9459070C94BC040C94EA0435
:100140000C94FC020C94CD070C9413020C9409023D
:100150000C94DC010C9468070C947C070C945E07EB
:100160000C94BD040C942F100C949C030C941B0253
:100170000C94E0010C9472070C94AA070C94540799
:100180000C94770B0C94ED010C9484070C940502ED
:100190000C94E9010C94D7070C948C070C94F10192
:1001A0000C940D020C94470B0C94C3070C943F0B5A
:1001B0000C94E6010C94220B0C94E1070C94210B97
:1001C0000C9420020C9435100C9495020C94170298
:1001D0000C94A0070C94FF010C94300B0C94EB07CB
:1001E0000C94B9070C94F7010C9455030C940A0372
:1001F0000C94D9020C94D8010C94960702000021AB
:1002000000240027002A002D0030003300010100E7
:1002100000040107010A0100002200250028002B2C
:10022000002E003100340002010000050108010B1E
:100230000105050505070508080808020202020A6B
:100240000A08080404040401010101010101010379
:1002500003030303030303040707070C0C0C0C0C34
:100260000C0C0C0202020206060606060606060B27
:100270000B0B0B0B0B0B0B0102102020080810209E
:100280004010204080020102010804020101020422
:1002900008102040808040201008040201800402E1
:1002A0000180402010080402010804020101020438
:1002B0000810204080010204081020408000000A3D
:1002C0000B02090C0D0E08070304010000000000DA
:1002D000000000000000000000000000000000001E
:1002E00000000000000000000012111000000000DB
:1002F00000000000000000000000000000000000FE
:100300000000000035102F1011241FBECFEFD1E2E6
:10031000DEBFCDBF00E00CBF12E0A0E0B2E0E2E241
:10032000FCE200E00BBF02C007900D92AC34B107B5
:10033000D9F726E0ACE4B2E001C01D92A032B207CA
:10034000E1F711E0C3E8D1E000E006C02197010920
:10035000802FFE010E942413C238D10780E00807D5
:10036000A9F70E94A80E0C94FF150C940000362FDC
:1003700090E0FC01E354FD4F4491FC01E958FD4F2E
:100380002491FC01EF5CFD4F9491992309F46BC01B
:10039000442309F455C050E0FA013197E231F105E8
:1003A00008F04EC08827EE58FF4F8F4F0C9424134F
:1003B000809180008F7707C0809180008F7D03C07F
:1003C00080918000877F809380003AC084B58F77CA
:1003D00002C084B58F7D84BD33C08091B0008F771B
:1003E00003C08091B0008F7D8093B00029C08091C0
:1003F00090008F7707C0809190008F7D03C080911F
:100400009000877F809390001BC08091A0008F7721
:1004100007C08091A0008F7D03C08091A000877FDE
:100420008093A0000DC0809120018F7707C080913C
:1004300020018F7D03C080912001877F8093200160
:10044000E92FF0E0EE0FFF1FE95EFD4FA591B4919B
:100450008FB7F894EC91311103C020952E2301C081
:100460002E2B2C938FBF0895CF93DF9390E0FC0148
:10047000E958FD4F2491FC01EF5CFD4F84918823E6
:1004800061F190E0880F991FFC01E350FE4FC59188
:10049000D491FC01E95EFD4FA591B491611109C0B1
:1004A0009FB7F8948881209582238883EC912E232E
:1004B0000BC0623061F49FB7F8943881822F809529
:1004C00083238883EC912E2B2C939FBF06C08FB77C
:1004D000F894E8812E2B28838FBFDF91CF91089568
:1004E0003FB7F89480917A0290917B02A0917C02B0
:1004F000B0917D0226B5A89B05C02F3F19F001964B
:10050000A11DB11D3FBFBA2FA92F982F8827820F99
:10051000911DA11DB11DBC01CD0142E0660F771FE9
:10052000881F991F4A95D1F70895CF92DF92EF92D5
:10053000FF920F931F93CF93DF936C017A018B018E
:10054000C0E0D0E0CE15DF0589F0D8016D918D01B6
:10055000D601ED91FC910190F081E02DC601199535
:10056000892B11F47E0102C02196ECCFC701DF91E7
:10057000CF911F910F91FF90EF90DF90CF90089552
:10058000FC01A089B1898C91A689B78982FD0FC031
:100590009C91818D8F5F8F73228D821749F0218D01
:1005A000DF01A20FB11D5D969C93818F08958C9100
:1005B0000895FC01538D448D252F30E0842F90E069
:1005C000821B930B541710F0CF960895019708954E
:1005D000FC01918D828D981761F0828DDF01A80F4B
:1005E000B11D5D968C91928D9F5F9F73928F90E06D
:1005F00008958FEF9FEF0895FC01918D828D9817DC
:1006000031F0828DE80FF11D858D90E008958FEF18
:100610009FEF0895FC01918D228D892F90E0805CE1
:100620009F4F821B91098F73992708958CE293E065
:100630000E940A0321E0892B09F420E0822F08950B
:1006400089EC93E00E940A0321E0892B09F420E061
:10065000822F089586E694E00E940A0321E0892B08
:1006600009F420E0822F0895FC01848DDF01A80F9A
:10067000B11DA35ABF4F2C91848D90E001968F73CA
:100680009927848FA689B7892C93A089B1898C91E9
:1006900080648C93938D848D981306C00288F389AF
:1006A000E02D80818F7D80830895EF92FF920F93DC
:1006B0001F93CF93DF93EC0181E0888F9B8D8C8D0E
:1006C000981305C0E889F989808185FD24C0F62E3C
:1006D0000B8D10E00F5F1F4F0F731127E02E8C8DD5
:1006E000E8120CC00FB607FCFACFE889F9898081BF
:1006F00085FFF5CFCE010E943403F1CF8B8DFE0133
:10070000E80FF11DE35AFF4FF0820B8FEA89FB8956
:100710008081806207C0EE89FF896083E889F9895A
:1007200080818064808381E090E0DF91CF911F9190
:100730000F91FF90EF900895CF93DF93EC01888D98
:100740008823C9F0EA89FB89808185FD05C0A889D5
:10075000B9898C9186FD0FC00FB607FCF5CF80815B
:1007600085FFF2CFA889B9898C9185FFEDCFCE01A5
:100770000E943403E7CFDF91CF910895E0E0F0E0ED
:10078000199480E090E0892B21F00E942A038111C6
:1007900019C080E090E0892B41F080E090E0892B47
:1007A00021F00E940000811110C00E9420038111DD
:1007B0000FC080E090E0892B81F00E941603811128
:1007C0000AC008950E940000E4CF0E940000EDCF0F
:1007D0000E94BE03EECF0C94000008958EBD000071
:1007E0000DB407FEFDCF8EB50895CF92DF92EF9244
:1007F000FF920F931F93CF93DF936C018B017A01CC
:10080000EC01CB59DD4F888187FF04C0FB011182C9
:10081000108224C08CE08C9D90018D9D300D1124A0
:100820008881A901480F511D87FD5A958091930534
:1008300090E04817590794F48881A901480F511D89
:1008400087FD5A95CA01FA01EE0FFF1F8E0F9F1FF9
:10085000FC01ED5FFA4F808186FD19C088818F5FB2
:1008600088838CE08C9D90018D9D300D11248881B2
:10087000A901480F511D87FD5A958091930590E07D
:1008800048175907BCF488818C3044F113C0888123
:10089000280F311D87FD3A95F901EE0FFF1F2E0F2E
:1008A0003F1FF901ED5FFA4F808160E08F730E9476
:1008B000B701D4CFF80180819181049680349C499E
:1008C00018F480E49CE904C0F801808191810496C9
:1008D000F701918380838FEF888345C0F8014081C1
:1008E00051818881B901680F711D87FD7A95CB010F
:1008F000FB01EE0FFF1F8E0F9F1FFC01ED5FFA4FF4
:1009000081819281840F951FF70191838083888173
:10091000A901480F511D87FD5A95CA01FA01EE0F32
:10092000FF1F8E0F9F1FFC01ED5FFA4F808186FF36
:100930001AC08881280F311D87FD3A95F901EE0F05
:10094000FF1F2E0F3F1FF901ED5FFA4F808161E01D
:100950008F73DF91CF911F910F91FF90EF90DF90F8
:10096000CF900C94B701DF91CF911F910F91FF9021
:10097000EF90DF90CF900895089580E090E0089583
:100980000E94EA15FC01248131E03093FC0220939F
:100990001E031092FD0210921F038485682B80E2D3
:1009A00093E00E94770B0C94B80D0F931F93CF9395
:1009B0008C01C62F64600E94C2046C2F6B7FC8013B
:1009C0000E94C20483EC90E00197F1F7CF911F9150
:1009D0000F9108950F931F93CF93DF938C01C62F30
:1009E000D62FD07FD1606D2F0E94C2046D2FC80119
:1009F0000E94D50480E1C89FB0011124C62FC160B8
:100A00006C2FC8010E94C2046C2FC8010E94D5043B
:100A100081E090E0DF91CF911F910F9108951F9297
:100A20000F920FB60F9211242F933F938F939F93A2
:100A3000AF93BF938091760290917702A091780254
:100A4000B09179023091750223E0230F2D3720F405
:100A50000196A11DB11D05C026E8230F0296A11D18
:100A6000B11D209375028093760290937702A09334
:100A70007802B093790280917A0290917B02A091E2
:100A80007C02B0917D020196A11DB11D80937A0276
:100A900090937B02A0937C02B0937D02BF91AF91B3
:100AA0009F918F913F912F910F900FBE0F901F90AC
:100AB00018951F920F920FB60F9211240BB60F923A
:100AC0002F933F934F935F936F937F938F939F9356
:100AD000AF93BF93EF93FF9380916D0290916E025D
:100AE000A0916F02B0917002892B8A2B8B2B59F148
:100AF00080916C02E0916A02F0916B0290818927EB
:100B0000808380916D0290916E02A0916F02B091EE
:100B10007002181619061A061B060CF056C08091B2
:100B20006D0290916E02A0916F02B09170020197D8
:100B3000A109B10980936D0290936E02A0936F0298
:100B4000B093700242C080910402ECEFF1E0E491B6
:100B50009FEF90930402E230C9F050F4EE2399F035
:100B6000E13081F590916F009D7F90936F002AC0D6
:100B7000E43019F1E0F0E53029F5909173009D7FA4
:100B8000909373001FC010926E001CC09091700073
:100B90009D7F9093700091E09093B0009091B10090
:100BA000987F94609093B1001092B3000BC0909125
:100BB00071009D7F9093710005C0909172009D7FA0
:100BC0009093720060E00E94B701FF91EF91BF9196
:100BD000AF919F918F917F916F915F914F913F91D5
:100BE0002F910F900BBE0F900FBE0F901F90189576
:100BF0001F920F920FB60F9211240BB60F922F93E4
:100C00003F934F935F936F937F938F939F93AF9394
:100C1000BF93EF93FF938CE293E00E943403FF9124
:100C2000EF91BF91AF919F918F917F916F915F9164
:100C30004F913F912F910F900BBE0F900FBE0F90D1
:100C40001F9018951F920F920FB60F9211240BB69A
:100C50000F922F933F934F935F936F937F938F9355
:100C60009F93AF93BF93EF93FF938CE293E00E9427
:100C7000C002FF91EF91BF91AF919F918F917F91B2
:100C80006F915F914F913F912F910F900BBE0F90FD
:100C90000FBE0F901F9018951F920F920FB60F92D4
:100CA00011240BB60F922F933F934F935F936F9343
:100CB0007F938F939F93AF93BF93EF93FF9389ECB1
:100CC00093E00E943403FF91EF91BF91AF919F9108
:100CD0008F917F916F915F914F913F912F910F90E5
:100CE0000BBE0F900FBE0F901F9018951F920F9282
:100CF0000FB60F9211240BB60F922F933F934F9381
:100D00005F936F937F938F939F93AF93BF93EF9373
:100D1000FF9389EC93E00E94C002FF91EF91BF9195
:100D2000AF919F918F917F916F915F914F913F9183
:100D30002F910F900BBE0F900FBE0F901F90189524
:100D40001F920F920FB60F9211240BB60F922F9392
:100D50003F934F935F936F937F938F939F93AF9343
:100D6000BF93EF93FF9386E694E00E943403FF91D4
:100D7000EF91BF91AF919F918F917F916F915F9113
:100D80004F913F912F910F900BBE0F900FBE0F9080
:100D90001F9018951F920F920FB60F9211240BB649
:100DA0000F922F933F934F935F936F937F938F9304
:100DB0009F93AF93BF93EF93FF9386E694E00E94D7
:100DC000C002FF91EF91BF91AF919F918F917F9161
:100DD0006F915F914F913F912F910F900BBE0F90AC
:100DE0000FBE0F901F9018958F929F92AF92BF9257
:100DF000CF92DF92EF92FF920F931F93CF93DF93E7
:100E0000EC016A017B0120E030E04FE753E4C701C9
:100E1000B6010E9444124B015C0120E030E0A901C0
:100E20000E94CF1318161CF4C501B40103C0C501FC
:100E3000B40190580E9499138B0120E030E0A90181
:100E4000C701B6010E94CF13181614F460E001C068
:100E500061E089810E94B7010F3F110509F014F488
:100E6000112702C00FEF10E0C88161E08C2F0E94B3
:100E700034020115110509F4B1C00F3F110509F441
:100E8000AFC0EC2FF0E0E354FD4FE4914E2F50E063
:100E9000FA013197E231F10508F09DC08827EC573F
:100EA000FF4F8F4F0C94241384B5806884BD07BD19
:100EB000A7C084B5806284BD08BDA2C080918000B7
:100EC000806880938000109389000093880098C008
:100ED0008091800080628093800010938B0000934B
:100EE0008A008EC08091800088608093800010937B
:100EF0008D0000938C0084C08091B0008068809346
:100F0000B0000093B3007CC08091B00080628093F9
:100F1000B0000093B40074C080919000806880930A
:100F2000900010939900009398006AC080919000FF
:100F300080628093900010939B0000939A0060C0A1
:100F40008091900088608093900010939D000093A2
:100F50009C0056C08091A00080688093A000809182
:100F6000A0008F7B8093A0001093A9000093A8009D
:100F700047C08091A00080628093A0001093AB00D6
:100F80000093AA003DC08091A00088608093A000DB
:100F90001093AD000093AC0033C0809120018068B5
:100FA00080932001109329010093280129C080918A
:100FB000200180628093200110932B0100932A016D
:100FC0001FC08091200188608093200110932D0123
:100FD00000932C0115C00038110514F460E001C025
:100FE00061E08C2FDF91CF911F910F91FF90EF90D7
:100FF000DF90CF90BF90AF909F908F900C94B701EF
:10100000DF91CF911F910F91FF90EF90DF90CF90E4
:10101000BF90AF909F908F900895CF93DF93EC0196
:1010200060E088810E94B70188E90E94EE0380E0B9
:101030000E94EE0380E00E94EE0380E00E94EE0337
:1010400080E00E94EE0361E088810E94B7018BE896
:1010500091E00197F1F760E088810E94B70180EE8E
:101060000E94EE0361E08881DF91CF910C94B7017B
:101070000F931F93CF93DF93EC01862F68834983EF
:1010800061E00E94340260E089810E94340261E0E4
:1010900088810E94B7011FB7F8948091690281117D
:1010A00027C0E6E6F2E09491ECEAF2E08491E92FC1
:1010B000F0E0EE0FFF1FE350FE4FA591B491EC91CD
:1010C000E82321F461E085E30E94B70161E085E354
:1010D0000E9434028CB580618CBD8CB580648CBD5F
:1010E00061E084E30E94340261E083E30E94340201
:1010F000809169028F5F809369021FBF0BEC17E03C
:10110000C8010197F1F760E088810E94B70188E883
:101110000E94EE0383E00E94EE0361E088810E945A
:10112000B701C8010197F1F7CE01DF91CF911F916F
:101130000F910C940D08AF92BF92CF92DF92EF9275
:10114000FF920F931F93CF93DF93CDB7DEB76097D6
:101150000FB6F894DEBF0FBECDBF5C0160E0FC01AE
:1011600080810E94B70180E60E94EE038E010F5F2E
:101170001F4F7E01F1E1EF0EF11C680180E00E943B
:10118000EE0390E0A0E0B0E0F60181939193A1938B
:10119000B1936F01EE15FF0589F761E0F5018081DC
:1011A0000E94B70180E090E0DC01F801419151918B
:1011B000619171918F01BA2FA92F982F8827840FE1
:1011C000951FA61FB71FEE15FF0579F79C01AD010E
:1011D00066277727CB01621B730B840B950B6096F8
:1011E0000FB6F894DEBF0FBECDBFDF91CF911F9138
:1011F0000F91FF90EF90DF90CF90BF90AF90089548
:101200004F925F926F927F928F929F92AF92BF9216
:10121000CF92DF92EF92FF92CF93DF93EC0186E8BB
:1012200092E00E940D0888E892E00E940D084DECC3
:101230005CEC6CE47EE382E892E00E94F4064DEC04
:101240005CEC6CE47EEB84E892E00E94F406812C76
:10125000912C80E8A82E8EE3B82E9DEC492E9CECB4
:10126000592E9CE4692E9DE3792E86E892E00E9437
:101270009B089B01AC0188279927DC01821B930BFB
:10128000A40BB50B909381028093800288E892E0D2
:101290000E949B08AB0170938B0260938A0220919D
:1012A000800230918102C901861B970BBC01675FE8
:1012B0007F4F6331710548F4409200025092010261
:1012C00060920202709203021AC08D599F4F873CB0
:1012D000910548F48092000290920102A0920202CD
:1012E000B09203020CC080E090E0A0E0BFE38093E6
:1012F000000290930102A0930202B09303024217EE
:1013000053072CF5C0900002D0900102E090020239
:10131000F0900302A701960160E070E080E89FE38F
:101320000E942C132DEC3CEC4CE45EE30E94441232
:10133000AB01BC0182E892E00E94F40620E030E0BC
:1013400040E85FE3C701B6010E942D1327C02417B0
:10135000350774F5C0900002D0900102E0900202BF
:10136000F090030220E030E040E85FE3C701B601FF
:101370000E942D132DEC3CEC4CE45EE30E944412E1
:10138000AB01BC0182E892E00E94F406A70196013D
:1013900060E070E080E89FE30E942C132DEC3CECB1
:1013A0004CE45EE30E944412AB01BC0170580CC0D7
:1013B0004DEC5CEC6CE47EE382E892E00E94F40683
:1013C0004DEC5CEC6CE47EEB84E892E00E94F40669
:1013D000C0908002D09081020D2C000CEE08FF0816
:1013E000F7FE0CC08DE20E945C0E66277727CB01CA
:1013F0006C197D098E099F094AE003C04AE0C701C4
:10140000B6010E94670E8BE392E00E947E0D8091F0
:101410008002909181028C179D0744F480918A028A
:1014200090918B028C179D070CF41FCF8EE392E0F6
:101430000E947E0D40E050E0BA0182E892E00E94F6
:10144000F40640E050E060E070E884E892E0DF916C
:10145000CF91FF90EF90DF90CF90BF90AF909F9093
:101460008F907F906F905F904F900C94F4061F9236
:101470000F920FB60F9211240BB60F922F933F933A
:101480004F935F936F937F938F939F93AF93BF938C
:10149000EF93FF9348E251E064E271E080E090E076
:1014A0000E94F503FF91EF91BF91AF919F918F91B2
:1014B0007F916F915F914F913F912F910F900BBE54
:1014C0000F900FBE0F901F9018951F920F920FB69E
:1014D0000F9211240BB60F922F933F934F935F936C
:1014E0006F937F938F939F93AF93BF93EF93FF93EC
:1014F00048EA50E064EA70E083E090E00E94F5037F
:10150000FF91EF91BF91AF919F918F917F916F91DB
:101510005F914F913F912F910F900BBE0F900FBE97
:101520000F901F9018951F920F920FB60F921124D3
:101530000BB60F922F933F934F935F936F937F93CD
:101540008F939F93AF93BF93EF93FF9348E950E03E
:1015500064E970E082E090E00E94F503FF91EF9172
:10156000BF91AF919F918F917F916F915F914F91BB
:101570003F912F910F900BBE0F900FBE0F901F90B9
:1015800018951F920F920FB60F9211240BB60F925F
:101590002F933F934F935F936F937F938F939F937B
:1015A000AF93BF93EF93FF9348E850E064E870E097
:1015B00081E090E00E94F503FF91EF91BF91AF9120
:1015C0009F918F917F916F915F914F913F912F915B
:1015D0000F900BBE0F900FBE0F901F90189585EDCA
:1015E0008093BC008091BC0084FDFCCF1092FB0274
:1015F00008954091AE02262F30E0240F311D213294
:101600003105DCF42091FB022430C9F4FC0180E0B8
:1016100090E0861758F43091AE022191DC01A45776
:10162000BD4FA30FB11D2C930196F3CF8091AE0255
:10163000680F6093AE0280E0089581E0089582E033
:101640000895089581E090E030917F0220917E021C
:10165000321710F480E090E09195819591090895FA
:1016600080917F0290917E02891730F48F5F809382
:101670007F0280E090E008958FEF9FEF08958091C2
:101680007E0290E020917F02821B91090895CF9203
:10169000DF92EF92FF920F931F93CF93DF937C0122
:1016A000262F972F8A018091FC02882391F0C62F64
:1016B000D72F6E01C40ED51ECC15DD0571F06991D2
:1016C000D701ED91FC910190F081E02DC7011995B2
:1016D000F3CF642F822F0E94F90AC801DF91CF91C6
:1016E0001F910F91FF90EF90DF90CF900895CF93CF
:1016F000DF931F92CDB7DEB769832091FC022223CE
:10170000D1F020911F03203240F021E030E0FC01B5
:101710003383228380E090E015C08091FD02E82FA2
:10172000F0E0E250FD4F998190838F5F8093FD023E
:1017300080931F0305C061E0CE0101960E94F90A63
:1017400081E090E00F90DF91CF91089586E892E0DC
:101750000E940D0888E892E00E940D0840E050E0E9
:10176000BA0182E892E00E94F4064DEC5CEC6CE475
:101770007EEB84E892E00E94F40688E892E00E9402
:101780009B0870938B0260938A02072E000C880BD3
:10179000990B0E94E51120E030E04AEF55E40E94E9
:1017A000DE1187FDEACF4AE060E47FE180E090E06F
:1017B0000E94670E8EE20E945C0E4AE060E070E0DC
:1017C000CB010E94670E4AE060E070E0CB010E940E
:1017D000670E8BE392E00E947E0D40E050E0BA017C
:1017E00082E892E00E94F40640E050E060E070E899
:1017F00084E892E00C94F40686E892E00E940D08DA
:1018000088E892E00E940D084DEC5CEC6CE47EE30D
:1018100082E892E00E94F40640E050E060E070E868
:1018200084E892E00E94F40686E892E00E949B0819
:101830009B01AC0188279927DC01821B930BA40B29
:10184000B50B9093810280938002BC01990F880BA5
:10185000990B0E94E51120E030E04AE755E40E9430
:10186000DE1187FDE1CF40E050E0BA0182E892E06E
:101870000E94F40640E050E060E070E884E892E006
:101880000C94F4061F920F920FB60F9211240F9032
:101890000FBE0F901F9018951F920F920FB60F92C8
:1018A00011240BB60F922F933F934F935F936F9337
:1018B0007F938F939F93AF93BF93EF93FF93809109
:1018C000B900887F803609F49CC068F5883209F435
:1018D0005BC090F4803109F454C038F4882309F4D3
:1018E000F6C0883009F44DC0F6C0883109F44CC008
:1018F000803209F45DC0EFC0803409F468C048F458
:10190000803309F455C0883309F0E5C08093F902AB
:10191000D8C0803509F44FC0883509F45DC08834DB
:1019200009F0D9C0D6C0883909F4C7C0A8F48837EF
:1019300009F467C038F4883609F463C0803709F4C5
:1019400060C0C9C0883809F4B8C0803909F45FC0E4
:10195000803809F0C0C05BC0803B09F486C038F411
:10196000803A09F466C0883A09F47FC0B4C0803C6C
:1019700009F4A7C0883C09F4A4C0883B09F48AC0D4
:10198000AAC08091D60210C09091F8028091F7020F
:10199000981770F5E091F80281E08E0F8093F802BD
:1019A000F0E0E952FD4F80818093BB0085EC86C05A
:1019B0008093F9028EC0E091F80281E08E0F80934F
:1019C000F8028091BB00F0E0E952FD4F80839091D6
:1019D000F8028091F7026EC0E091F80281E08E0F6C
:1019E0008093F8028091BB00F0E0E952FD4F8083C4
:1019F0008091FA0281116DC081E08093D50284EA62
:101A000061C083E08093FB021092D202CFCF80911D
:101A1000D202803208F051C0E091D20281E08E0FF4
:101A20008093D2028091BB00F0E0EE54FD4F8083A2
:101A3000BDCF85EC8093BC001092FB028091D20256
:101A4000803230F4E091D202F0E0EE54FD4F10828B
:101A50006091D20270E0E091B002F091B10282EBAD
:101A600092E019951092D20236C084E08093FB0276
:101A70001092AF021092AE02E091AC02F091AD0272
:101A800019958091AE02811105C081E08093AE026C
:101A900010928C02E091AF0281E08E0F8093AF0232
:101AA000F0E0E457FD4F80818093BB009091AF023E
:101AB0008091AE02981708F479CF85E88093BC0036
:101AC0000AC085EC8093BC001092FB0204C0109207
:101AD000F9020E94EF0AFF91EF91BF91AF919F91A0
:101AE0008F917F916F915F914F913F912F910F90C7
:101AF0000BBE0F900FBE0F901F901895009769F0C6
:101B0000FC0101900020E9F73197AF01481B590B08
:101B1000BC0186E694E00C94950280E090E0089584
:101B2000E6E6F4E0A089B18982E08C93A485B585CE
:101B30001C92A685B7858FEC8C93108EA489B589ED
:101B400086E08C93A289B3898C9180618C93A28961
:101B5000B3898C9188608C93A289B3898C918068B9
:101B60008C930288F389E02D80818F7D8083089596
:101B700020911F0390911E03213208F04AC08091EA
:101B8000FB028111FCCF32E03093FB0231E0309355
:101B9000FA023FEF3093F9021092F8022093F70215
:101BA000AEEFB2E047ED52E0FA013E2F341B3217A0
:101BB00018F43D913193F9CF1092D6022091D602BC
:101BC000990F922B9093D6029091D502913061F4A7
:101BD0001092D5029091D6029093BB009091BC00D8
:101BE00093FDF8CF95EC01C095EE9093BC009091D9
:101BF000FB029230E1F39091F9029F3F79F08091DE
:101C0000F902803241F08091F902803331F084E0B2
:101C100005C081E003C082E001C083E01092FD02B4
:101C200010921F031092FC020895EF92FF921F93EF
:101C3000CF93DF931F92CDB7DEB7162F9FEFE92E1C
:101C400095E0F92ED7011C969C911C9721E02093DA
:101C5000FC0290931E031092FD0210921F031A962D
:101C60000D90BC91A02DED91FC9111970190F08108
:101C7000E02D682FCD0179831995F7018285938531
:101C8000DC01ED91FC910190F081E02D7981672FCD
:101C90001995F70182859385DC01ED91FC91019006
:101CA000F081E02D612F19950F90DF91CF911F9159
:101CB000FF90EF900C94B80DE0916604F0916704EA
:101CC0000190F081E02D682F86E694E019948F92C0
:101CD0009F92AF92BF920F931F93CF93DF93CDB795
:101CE000DEB7A1970FB6F894DEBF0FBECDBF19A225
:101CF000423008F44AE08E010F5D1F4F842E912C74
:101D0000A12CB12CA50194010E940213E62FB90168
:101D1000CA0101501109EA3014F4E05D01C0E95C28
:101D2000D801EC93232B242B252B61F7C8010E94AB
:101D30007E0DA1960FB6F894DEBF0FBECDBFDF912A
:101D4000CF911F910F91BF90AF909F908F9008956A
:101D5000789484B5826084BD84B5816084BD85B586
:101D6000826085BD85B5816085BD80916E00816092
:101D700080936E0010928100809181008260809338
:101D8000810080918100816080938100809180003A
:101D90008160809380008091B10084608093B10065
:101DA0008091B00081608093B0008091910082604A
:101DB0008093910080919100816080939100809147
:101DC00090008160809390008091A1008260809358
:101DD000A1008091A10081608093A1008091A0006A
:101DE00081608093A0008091210182608093210115
:101DF0008091210181608093210180912001816087
:101E00008093200180917A00846080937A00809191
:101E10007A00826080937A0080917A00816080935A
:101E20007A0080917A00806880937A001092C100D5
:101E30000E94900D86E0809382028FE1809383025E
:101E400061E086E00E94340261E0809183020E949A
:101E5000340285E0809384028EE18093850261E004
:101E600085E00E94340261E0809185020E94340284
:101E700045E463E286E892E00E94380844E462E2C6
:101E800088E892E00E94380886E18093710287E139
:101E90008093720260E086E10E94340261E08091EA
:101EA00072020E94340260E0809172020E94B701C7
:101EB00088E18093730289E18093740260E088E195
:101EC0000E94340261E0809174020E94340260E05A
:101ED000809174020E94B70161E0809100060E9427
:101EE000340260E0809100060E94B70160E08091BA
:101EF000FF050E94340280E293E090930A068093EB
:101F0000090610927F0210927E021092FD0210923A
:101F10001F031092FB0281E08093FA021092D50217
:101F200061E084E10E94B70161E085E10E94B701B0
:101F30008091B9008E7F8093B9008091B9008D7F28
:101F40008093B90088E48093B80085E48093BC0056
:101F500080E090E1A0E0B0E080930C0690930D0645
:101F6000A0930E06B0930F068AE090E0A0E0B0E0E8
:101F70008093100690931106A0931206B093130657
:101F800082E090E0A0E0B0E0809314069093150604
:101F9000A0931606B093170660E070E185E00E94FA
:101FA000150E6FE979E380E00E94150EC1E0D6E0DE
:101FB0001C2F1C5F60E089910E9434021C13FACF31
:101FC00086E892E00E940D0888E892E00E940D08E1
:101FD0000E94900D80EA9FE00E9400090E94FC0B85
:101FE0008CED95E00E9400090E94A60B88EB9BE017
:101FF0000E9400090E94A60B8CED95E00E9400094A
:102000000E94FC0B80EA9FE00E9400090E9470027F
:102010004B015C018AE0C82ED12CE12CF12C0E94EE
:102020007002DC01CB0188199909AA09BB09883E15
:102030009340A105B10558F081E0C81AD108E10824
:10204000F10828EE820E23E0921EA11CB11CC114DF
:10205000D104E104F10419F70E94C103D7CF8091A4
:102060009405909195050C94691410922303109295
:10207000220388EE93E0A0E0B0E0809324039093E5
:102080002503A0932603B09327032FE032E030937B
:1020900021032093200310922F0310922E0380938C
:1020A000300390933103A0933203B093330321E2C2
:1020B00032E030932D0320932C0345E351E05093FD
:1020C00039034093380344E351E050933B0340937A
:1020D0003A0340E351E050933D0340933C0341E316
:1020E00051E050933F0340933E0342E351E050934D
:1020F00041034093400346E351E050934303409330
:102100004203109245031092460310924703109227
:1021100048031092CC031092CB038093CD0390938D
:10212000CE03A093CF03B093D0033093CA03209380
:10213000C90345ED50E05093D6034093D50344EDD9
:1021400050E05093D8034093D70340ED50E05093B4
:10215000DA034093D90341ED50E05093DC03409300
:10216000DB0342ED50E05093DE034093DD0346ED88
:1021700050E05093E0034093DF031092E20310928B
:10218000E3031092E4031092E503109269041092A5
:10219000680480936A0490936B04A0936C04B093DA
:1021A0006D04309367042093660485EC90E090936F
:1021B00073048093720484EC90E090937504809390
:1021C000740480EC90E0909377048093760481EC23
:1021D00090E0909379048093780482EC90E090935F
:1021E0007B0480937A0486EC90E090937D04809346
:1021F0007C0410927F04109280041092810410924B
:1022000082048DE090E00E94D413FC0113821282BC
:1022100083E392E091838083118687E2848384E163
:10222000828784E083871486F0931906E09318066A
:1022300010921A0610921B068CE08093FF0584E230
:10224000809300068BE1809301068DE18093020666
:102250008AE1809303068CE18093040686E38093F1
:10226000050687E38093060688E38093070689E3E3
:102270008093080680E480930B061092100610925B
:102280001106109212061092130610921406109264
:10229000150610921606109217068091930580334A
:1022A00020F09FEF9093F90511C08093F905282F36
:1022B00030E0F901EE0FFF1F2E0F3F1FF901ED5F18
:1022C000FA4F28EB3BE0328321838F5F803390F419
:1022D0008093FC05282F30E0F901EE0FFF1F2E0F31
:1022E0003F1FF901ED5FFA4F28EB3BE0328321837A
:1022F0008F5F03C09FEF9093FC0580939305EAE9FD
:10230000F5E08FEF9FEFDC011282138214821582B9
:10231000168217821086118683879487A587B687D1
:102320008787908BA18BB28B128611821082739655
:1023300025E0E93FF20741F71092950510929405C8
:102340001092970510929605109299051092980593
:1023500061E070E080E090E00E940115009789F054
:102360009093950580939405109297051092960589
:102370002091980530919905232BC1F4FC0110821E
:1023800015C08091940590919505009711F00E94D9
:102390006914109295051092940510929905109267
:1023A0009805109297051092960508951092990538
:1023B000109298056DE372E00C94F8150E942012BB
:1023C00008F481E00895E89409C097FB3EF49095E5
:1023D0008095709561957F4F8F4F9F4F9923A9F0FE
:1023E000F92F96E9BB279395F6958795779567958D
:1023F000B795F111F8CFFAF4BB0F11F460FF1BC0D1
:102400006F5F7F4F8F4F9F4F16C0882311F096E963
:1024100011C0772321F09EE8872F762F05C0662311
:1024200071F096E8862F70E060E02AF09A95660FCA
:10243000771F881FDAF7880F9695879597F9089583
:10244000990F0008550FAA0BE0E8FEEF16161706C5
:10245000E807F907C0F012161306E407F50798F02D
:10246000621B730B840B950B39F40A2661F0232B46
:10247000242B252B21F408950A2609F4A140A695C2
:102480008FEF811D811D08950E9457120C94C81270
:102490000E94BA1238F00E94C11220F0952311F068
:1024A0000C94B1120C94B71211240C94FC120E94DB
:1024B000D91270F3959FC1F3950F50E0551F629F9D
:1024C000F001729FBB27F00DB11D639FAA27F00D8D
:1024D000B11DAA1F649F6627B00DA11D661F829FB4
:1024E0002227B00DA11D621F739FB00DA11D621F99
:1024F000839FA00D611D221F749F3327A00D611DB6
:10250000231F849F600D211D822F762F6A2F112497
:102510009F5750409AF0F1F088234AF0EE0FFF1FCA
:10252000BB1F661F771F881F91505040A9F79E3F21
:10253000510580F00C94B1120C94FC125F3FE4F34F
:10254000983ED4F3869577956795B795F795E79577
:102550009F5FC1F7FE2B880F911D9695879597F980
:10256000089597F99F6780E870E060E008959FEF15
:1025700080EC089500240A9416161706180609061A
:10258000089500240A9412161306140605060895E9
:10259000092E0394000C11F4882352F0BB0F40F471
:1025A000BF2B11F460FF04C06F5F7F4F8F4F9F4FB1
:1025B000089557FD9058440F551F59F05F3F71F033
:1025C0004795880F97FB991F61F09F3F79F087959A
:1025D0000895121613061406551FF2CF4695F1DF23
:1025E00008C0161617061806991FF1CF86957105B3
:1025F000610508940895E894BB2766277727CB01E7
:1026000097F90895A1E21A2EAA1BBB1BFD010DC06C
:10261000AA1FBB1FEE1FFF1FA217B307E407F50792
:1026200020F0A21BB30BE40BF50B661F771F881F6E
:10263000991F1A9469F760957095809590959B0104
:10264000AC01BD01CF010895EE0FFF1F881F8BBFA6
:102650000790F691E02D19945058BB27AA270E94A5
:1026600044130C94C8120E94BA1238F00E94C1128E
:1026700020F039F49F3F19F426F40C94B7120EF4AD
:10268000E095E7FB0C94B112E92F0E94D91258F3A0
:10269000BA17620773078407950720F079F4A6F547
:1026A0000C94FB120EF4E0950B2EBA2FA02D0B010B
:1026B000B90190010C01CA01A0011124FF27591B87
:1026C00099F0593F50F4503E68F11A16F040A22F8D
:1026D000232F342F4427585FF3CF469537952795FE
:1026E000A795F0405395C9F77EF41F16BA0B620BFD
:1026F000730B840BBAF09150A1F0FF0FBB1F661F44
:10270000771F881FC2F70EC0BA0F621F731F841F86
:1027100048F4879577956795B795F7959E3F08F0AC
:10272000B0CF9395880F08F09927EE0F979587956E
:1027300008950E94A0136894B1110C94FC1208959E
:102740000E94E11288F09F5798F0B92F9927B7514E
:10275000B0F0E1F0660F771F881F991F1AF0BA9545
:10276000C9F714C0B13091F00E94FB12B1E0089596
:102770000C94FB12672F782F8827B85F39F0B93F88
:10278000CCF3869577956795B395D9F73EF49095F8
:102790008095709561957F4F8F4F9F4F08950E9450
:1027A000201208F48FEF0895CF93DF9382309105C4
:1027B00010F482E090E0E0911E06F0911F0620E008
:1027C00030E0C0E0D0E0309711F1408151814817EE
:1027D0005907C0F04817590761F482819381209707
:1027E00019F09B838A832BC090931F0680931E064B
:1027F00026C02115310519F04217530718F49A0124
:10280000BE01DF01EF010280F381E02DDCCF211555
:10281000310509F1281B390B2430310590F412964B
:102820008D919C9113976115710521F0FB019383A4
:10283000828304C090931F0680931E06FD0132968A
:1028400044C0FD01E20FF31F81939193225031099F
:102850002D933C933AC020911C0630911D06232BEA
:1028600041F4209107023091080230931D06209315
:102870001C0620910502309106022115310541F414
:102880002DB73EB74091090250910A02241B350B27
:10289000E0911C06F0911D06E217F307A0F42E1B31
:1028A0003F0B2817390778F0AC014E5F5F4F2417B4
:1028B000350748F04E0F5F1F50931D0640931C06CE
:1028C0008193919302C0E0E0F0E0CF01DF91CF91DE
:1028D00008950F931F93CF93DF93009709F48CC053
:1028E000FC0132971382128200911E0610911F067E
:1028F0000115110581F420813181820F931F2091F0
:102900001C0630911D062817390779F5F0931D062E
:10291000E0931C0671C0D80140E050E0AE17BF073D
:1029200050F412962D913C911397AD01211531056C
:1029300009F1D901F3CF9D01DA013383228360814C
:102940007181860F971F8217930769F4EC01288124
:102950003981260F371F2E5F3F4F318320838A81B5
:102960009B8193838283452B29F4F0931F06E09388
:102970001E0642C01396FC93EE931297ED01499107
:1029800059919E01240F351FE217F30771F48081DE
:102990009181840F951F029611969C938E9382814C
:1029A000938113969C938E931297E0E0F0E0D80108
:1029B00012968D919C911397009719F0F8018C0154
:1029C000F6CF8D919C9198012E5F3F4F820F931F00
:1029D00020911C0630911D062817390769F430979D
:1029E00029F410921F0610921E0602C01382128252
:1029F00010931D0600931C06DF91CF911F910F913C
:102A000008956F927F928F929F92AF92BF92CF92D2
:102A1000DF92EF92FF920F931F93CF93DF93EC011E
:102A2000009789F4CB01DF91CF911F910F91FF9017
:102A3000EF90DF90CF90BF90AF909F908F907F905E
:102A40006F900C94D413FC01E60FF71F9C012250E9
:102A50003109E217F30708F4ACC0D9010D911C91BC
:102A6000119706171707B0F00530110508F49FC03D
:102A7000C80104978617970708F499C002501109F6
:102A8000061B170B019311936D937C93CF010E944A
:102A900069148DC05B01A01AB10A4C01800E911E11
:102AA000A0911E06B0911F0640E050E0E12CF12CF1
:102AB000109709F44AC0A815B905D1F56D907C901E
:102AC0001197630182E0C80ED11CCA14DB0480F1A7
:102AD000A3014A195B096A0182E0C80ED11C129653
:102AE000BC9012971396AC91B5E0CB16D10440F090
:102AF000B282A38351834083D9016D937C930AC032
:102B00000E5F1F4FC301800F911FF90191838083D6
:102B1000EB2DFA2FE114F10431F0D7011396FC9359
:102B2000EE93129744C0F0931F06E0931E063FC039
:102B30008D919C9111974817590708F4AC017D01BC
:102B400012960D90BC91A02DB3CF80911C06909150
:102B50001D0688159905E1F446175707C8F48091BA
:102B6000050290910602009741F48DB79EB74091FF
:102B7000090250910A02841B950BE817F907C8F463
:102B8000F0931D06E0931C06F901718360830FC06A
:102B9000CB010E94D4137C01009759F0A801BE011B
:102BA0000E94EF15CE010E946914C70104C0CE0136
:102BB00002C080E090E0DF91CF911F910F91FF90D4
:102BC000EF90DF90CF90BF90AF909F908F907F90CD
:102BD0006F90089581E090E0F8940C94FF15FB014C
:102BE000DC0102C001900D9241505040D8F7089589
:102BF000FB01DC0101900D920020E1F7089511E046
:102C0000C3E8D1E000E006C0802FFE010E9424133B
:102C10002196011DC438D10780E00807A9F7F89470
:022C2000FFCFE4
:102C2200CDCC4C3DFF0000200620000000000077C4
:102C32000B470BBD04210B3F0B300B220B00000096
:102C42000055039502D9029C030A03E802FC020024
:102C5200000000EA049502BD04BC040D0A004649C6
:0C2C62004E49206176616E6365720000CF
:00000001FF
