:100000000C9491010C94C2010C94C2010C94C20195
:100010000C94C2010C94C2010C94C2010C94C20154
:100020000C94C2010C94E80A0C94E80A0C94E80AB7
:100030000C94C2010C940E060C94C2010C94C201E3
:100040000C94C2010C9467080C94C2010C94C20178
:100050000C94C2010C94C2010C94C2010C94C4050E
:100060000C94C2010C947F070C9455070C94C201A8
:100070000C94C2010C94C2010C94C2010C94C201F4
:100080000C94C2010C94C2010C94C2010C94C201E4
:100090000C94C2010C94C2010C94C2010C94F20A9B
:1000A0000C94C2010C94C2010C94C2010C94C201C4
:1000B0000C94C2010C94C2010C94C2010C94A907C7
:1000C0000C94C2010C94C2010C94C2010C942B0735
:1000D0000C9401070C94C2010C94D7060C94AD0645
:1000E0000C94C20188038D0392039C03A6031F0492
:1000F000B003B803C003CA03D403DE03ED03F70360
:100100001F0401040B041504E109E409D309D7090C
:10011000DD091B0AE809EC09F209F609FA09000AE7
:10012000040A080A1B0A0E0A120A160A0C945F092E
:100130000C949F050C94F7030C9484020C94B80360
:100140000C94320F0C94160A0C9488030C94E40956
:100150000C94380F0C9450090C94DE030C94170285
:100160000C940B040C94120A0C942B020C9425038F
:100170000C94D7090C94F6090C94A6030C94CB02AA
:100180000C9492030C9424030C94EC090C941B0A19
:100190000C9439020C9497090C9415040C94CA031E
:1001A0000C94F2090C94D3090C940E0A0C94ED03F0
:1001B0000C94000A0C94040A0C9408020C94080A8B
:1001C0000C949C030C948D030C94C0030C94420972
:1001D0000C9467090C94C4010C941F040C94010442
:1001E0000C94DD090C94FA090C94D4030C94B0031C
:1001F0000C94E1090C9441090C94E80902000021D7
:1002000000240027002A002D0030003300010100E7
:1002100000040107010A0100002200250028002B2C
:10022000002E003100340002010000050108010B1E
:1002300001000020002300260029002C002F00329E
:10024000000001000003010601090105050505077D
:100250000508080808020202020A0A080804040441
:10026000040101010101010101030303030303036D
:1002700003040707070C0C0C0C0C0C0C0C020202FC
:100280000206060606060606060B0B0B0B0B0B0BEF
:100290000B0102102020080810204010204080028E
:1002A00001020108040201010204081020408080BC
:1002B0004020100804020180040201804020100840
:1002C0000402010804020101020408102040800118
:1002D0000204081020408000000A0B02090C0D0ED9
:1002E00008070304010000000000000000000000F7
:1002F00000000000000000000000000000000000FE
:1003000000000012111000000000000000000000BA
:100310000000000000000000000000000000380F96
:10032000320F11241FBECFEFD1E2DEBFCDBF00E000
:100330000CBF12E0A0E0B2E0E0EDF9E200E00BBF9C
:1003400002C007900D92A833B107D9F726E0A8E3C1
:10035000B2E001C01D92A73FB207E1F711E0C0E98A
:10036000D1E000E006C021970109802FFE010E9424
:100370006812CF38D10780E00807A9F70E94DE0C89
:100380000C94D6140C940000CF92DF92EF92FF925F
:100390000F931F93CF93DF936C017A018B01C0E021
:1003A000D0E0CE15DF0589F0D8016D918D01D60121
:1003B000ED91FC910190F081E02DC6011995892BFA
:1003C00011F47E0102C02196ECCFC701DF91CF91DD
:1003D0001F910F91FF90EF90DF90CF900895FC0157
:1003E000A089B1898C91A689B78982FD0FC09C91A3
:1003F000818D8F5F8F73228D821749F0218DDF01F0
:10040000A20FB11D5D969C93818F08958C910895E4
:10041000FC01538D448D252F30E0842F90E0821B0A
:10042000930B541710F0CF96089501970895FC018F
:10043000918D828D981761F0828DDF01A80FB11D1B
:100440005D968C91928D9F5F9F73928F90E008953F
:100450008FEF9FEF0895FC01918D828D981731F0F9
:10046000828DE80FF11D858D90E008958FEF9FEF4D
:100470000895FC01918D228D892F90E0805C9F4F23
:10048000821B91098F739927089580E892E00E945A
:10049000390221E0892B09F420E0822F08958DE1B3
:1004A00093E00E94390221E0892B09F420E0822F99
:1004B00008958AEB93E00E94390221E0892B09F428
:1004C00020E0822F0895FC01848DDF01A80FB11D6B
:1004D000A35ABF4F2C91848D90E001968F7399277A
:1004E000848FA689B7892C93A089B1898C91806467
:1004F0008C93938D848D981306C00288F389E02D28
:1005000080818F7D80830895EF92FF920F931F93D8
:10051000CF93DF93EC0181E0888F9B8D8C8D9813B6
:1005200005C0E889F989808185FD24C0F62E0B8DF0
:1005300010E00F5F1F4F0F731127E02E8C8DE81214
:100540000CC00FB607FCFACFE889F989808185FFD6
:10055000F5CFCE010E946302F1CF8B8DFE01E80F33
:10056000F11DE35AFF4FF0820B8FEA89FB898081EE
:10057000806207C0EE89FF896083E889F9898081FC
:100580008064808381E090E0DF91CF911F910F9193
:10059000FF90EF900895CF93DF93EC01888D88232F
:1005A000C9F0EA89FB89808185FD05C0A889B989E0
:1005B0008C9186FD0FC00FB607FCF5CF808185FFBB
:1005C000F2CFA889B9898C9185FFEDCFCE010E9429
:1005D0006302E7CFDF91CF910895E0E0F0E0199456
:1005E00080E090E0892B21F00E945902811119C00E
:1005F00080E090E0892B41F080E090E0892B21F0B1
:100600000E940000811110C00E944F0281110FC092
:1006100080E090E0892B81F00E94450281110AC0A0
:1006200008950E940000E4CF0E940000EDCF0E94D8
:10063000ED02EECF0C94000008958EBD00000DB4C5
:1006400007FEFDCF8EB50895089580E090E00895EF
:100650008F929F92AF92BF92CF92DF92EF92FF92D2
:100660000F931F93CF93DF93EC016A017B0120E08E
:1006700030E04FE753E4C701B6010E9474114B010B
:100680005C0120E030E0A9010E94A61218161CF4BB
:10069000C501B40103C0C501B40190580E94701295
:1006A0008B0120E030E0A901C701B6010E94A6122B
:1006B000181614F460E001C061E089810E944D0CBD
:1006C0000F3F110509F014F4112702C00FEF10E0DD
:1006D000C88161E08C2F0E947D0C0115110509F481
:1006E000B1C00F3F110509F4AFC0EC2FF0E0E952A3
:1006F000FD4FE4914E2F50E0FA013197E231F105C0
:1007000008F09DC08827EE58FF4F8F4F0C94681259
:1007100084B5806884BD07BDA7C084B5806284BDF0
:1007200008BDA2C0809180008068809380001093F3
:1007300089000093880098C0809180008062809337
:10074000800010938B0000938A008EC080918000FF
:1007500088608093800010938D0000938C0084C08B
:100760008091B00080688093B0000093B3007CC09B
:100770008091B00080628093B0000093B40074C098
:10078000809190008068809390001093990000936E
:1007900098006AC0809190008062809390001093CE
:1007A0009B0000939A0060C08091900088608093C5
:1007B000900010939D0000939C0056C08091A00073
:1007C00080688093A0008091A0008F7B8093A00020
:1007D0001093A9000093A80047C08091A0008062F8
:1007E0008093A0001093AB000093AA003DC08091BD
:1007F000A00088608093A0001093AD000093AC002F
:1008000033C08091200180688093200110932901DA
:100810000093280129C080912001806280932001EB
:1008200010932B0100932A011FC080912001886042
:100830008093200110932D0100932C0115C00038E6
:10084000110514F460E001C061E08C2FDF91CF91BD
:100850001F910F91FF90EF90DF90CF90BF90AF90DE
:100860009F908F900C944D0CDF91CF911F910F9121
:10087000FF90EF90DF90CF90BF90AF909F908F90C0
:100880000895CF93DF93EC0160E088810E944D0CC6
:1008900088E90E941D0380E00E941D0380E00E9401
:1008A0001D0380E00E941D0380E00E941D0361E0A3
:1008B00088810E944D0C8BE891E00197F1F760E090
:1008C00088810E944D0C80EE0E941D0361E08881AA
:1008D000DF91CF910C944D0CAF92BF92CF92DF92EB
:1008E000EF92FF920F931F93CF93DF93CDB7DEB7B5
:1008F00060970FB6F894DEBF0FBECDBF5C0160E01D
:10090000FC0180810E944D0C80E60E941D038E0137
:100910000F5F1F4F7E01F1E1EF0EF11C680180E0D7
:100920000E941D0390E0A0E0B0E0F6018193919356
:10093000A193B1936F01EE15FF0589F761E0F50111
:1009400080810E944D0C80E090E0DC01F801419133
:100950005191619171918F01BA2FA92F982F8827FA
:10096000840F951FA61FB71FEE15FF0579F79C0191
:10097000AD0166277727CB01621B730B840B950BA8
:1009800060960FB6F894DEBF0FBECDBFDF91CF915A
:100990001F910F91FF90EF90DF90CF90BF90AF909D
:1009A00008954F925F926F927F928F929F92AF9233
:1009B000BF92CF92DF92EF92FF92CF93DF9300D05E
:1009C0001F92CDB7DEB77C018CE496E00E94410413
:1009D0008EE496E00E944104F7FE03C08FEF9FEF84
:1009E00002C081E090E08E9D20018F9D500C9E9D65
:1009F000500C11249201550C440B550B29833A835A
:100A00004B835C836C01990FEE08FF088CE496E041
:100A10000E946C049B01AC0188279927DC01821B92
:100A2000930BA40BB50B8093550290935602A093A1
:100A30005702B09358028EE496E00E946C044B017A
:100A40005C01609351027093520280935302909321
:100A50005402C701B6010E9415112DEC3CEC4CEC80
:100A60005DE30E9474112B013C01AB01BC0188E4E1
:100A700096E00E942803B301A20170588AE496E030
:100A80000E942803A5019401C701B6010E944C12DF
:100A900029813A814B815C8162177307840795072E
:100AA0000CF4B4CF40E050E0BA0188E496E00E9434
:100AB000280340E050E060E070E88AE496E00E949D
:100AC0002803C4010F900F900F900F90DF91CF91EA
:100AD000FF90EF90DF90CF90BF90AF909F908F905E
:100AE0007F906F905F904F9008950E94C114FC0119
:100AF000248131E0309370022093720210927102CF
:100B0000109273028485682B84E792E00E94970913
:100B10000C94440A0F931F93CF938C01C62F6460EB
:100B20000E9477056C2F6B7FC8010E94770583ECCC
:100B300090E00197F1F7CF911F910F9108950F93D6
:100B40001F93CF93DF938C01C62FD62FD07FD16018
:100B50006D2F0E9477056D2FC8010E948A0580E1E4
:100B6000C89FB0011124C62FC1606C2FC8010E941C
:100B700077056C2FC8010E948A0581E090E0DF9123
:100B8000CF911F910F9108951F920F920FB60F9260
:100B900011242F933F938F939F93AF93BF93809193
:100BA000630290916402A0916502B0916602309157
:100BB000620223E0230F2D3720F40196A11DB11D01
:100BC00005C026E8230F0296A11DB11D20936202E5
:100BD0008093630290936402A0936502B0936602CF
:100BE0008091670290916802A0916902B0916A02B7
:100BF0000196A11DB11D8093670290936802A09396
:100C00006902B0936A02BF91AF919F918F913F911A
:100C10002F910F900FBE0F901F9018951F920F925B
:100C20000FB60F9211240BB60F922F933F934F9351
:100C30005F936F937F938F939F93AF93BF93EF9344
:100C4000FF9380915D0290915E02A0915F02B0914E
:100C50006002892B8A2B8B2B59F180915C02E091E9
:100C60005A02F0915B0290818927808380915D0216
:100C700090915E02A0915F02B09160021816190671
:100C80001A061B060CF056C080915D0290915E0220
:100C9000A0915F02B09160020197A109B109809310
:100CA0005D0290935E02A0935F02B093600242C027
:100CB00080910002ECEFF1E0E4919FEF909300024D
:100CC000E230C9F050F4EE2399F0E13081F59091D3
:100CD0006F009D7F90936F002AC0E43019F1E0F01F
:100CE000E53029F5909173009D7F909373001FC0AC
:100CF00010926E001CC0909170009D7F90937000C8
:100D000091E09093B0009091B100987F946090939F
:100D1000B1001092B3000BC0909171009D7F909331
:100D2000710005C0909172009D7F9093720060E009
:100D30000E944D0CFF91EF91BF91AF919F918F91C8
:100D40007F916F915F914F913F912F910F900BBECB
:100D50000F900FBE0F901F9018951F920F920FB615
:100D60000F9211240BB60F922F933F934F935F93E3
:100D70006F937F938F939F93AF93BF93EF93FF9363
:100D800080E892E00E946302FF91EF91BF91AF91E2
:100D90009F918F917F916F915F914F913F912F9193
:100DA0000F900BBE0F900FBE0F901F9018951F92C3
:100DB0000F920FB60F9211240BB60F922F933F9301
:100DC0004F935F936F937F938F939F93AF93BF9353
:100DD000EF93FF9380E892E00E94EF01FF91EF9183
:100DE000BF91AF919F918F917F916F915F914F9143
:100DF0003F912F910F900BBE0F900FBE0F901F9041
:100E000018951F920F920FB60F9211240BB60F92E6
:100E10002F933F934F935F936F937F938F939F9302
:100E2000AF93BF93EF93FF938DE193E00E94630232
:100E3000FF91EF91BF91AF919F918F917F916F91B2
:100E40005F914F913F912F910F900BBE0F900FBE6E
:100E50000F901F9018951F920F920FB60F921124AA
:100E60000BB60F922F933F934F935F936F937F93A4
:100E70008F939F93AF93BF93EF93FF938DE193E095
:100E80000E94EF01FF91EF91BF91AF919F918F91E0
:100E90007F916F915F914F913F912F910F900BBE7A
:100EA0000F900FBE0F901F9018951F920F920FB6C4
:100EB0000F9211240BB60F922F933F934F935F9392
:100EC0006F937F938F939F93AF93BF93EF93FF9312
:100ED0008AEB93E00E946302FF91EF91BF91AF9183
:100EE0009F918F917F916F915F914F913F912F9142
:100EF0000F900BBE0F900FBE0F901F9018951F9272
:100F00000F920FB60F9211240BB60F922F933F93AF
:100F10004F935F936F937F938F939F93AF93BF9301
:100F2000EF93FF938AEB93E00E94EF01FF91EF9123
:100F3000BF91AF919F918F917F916F915F914F91F1
:100F40003F912F910F900BBE0F900FBE0F901F90EF
:100F500018951F920F920FB60F9211240BB60F9295
:100F60002F933F934F935F936F937F938F939F93B1
:100F7000AF93BF93EF93FF93809158040E94240C8A
:100F800020915C0430915D042F5F3F4F30935D04EE
:100F900020935C0490915B04953618F096E0909352
:100FA0005704909157049430C9F128F4923069F0B5
:100FB0009330D1F05EC0953009F451C0963009F0FD
:100FC00058C091E09093280551C0811152C02091E2
:100FD0005C0430915D042436310508F442C010925F
:100FE000280510925B041CC0813009F042C0E091DA
:100FF0005B0491E09E0F90935B04F0E020915C0411
:1010000030915D04EE0FFF1FE95AFB4F30872783B5
:1010100010925D0410925C0494E029C0811117C005
:10102000E0915B0491E09E0F90935B04F0E02091CF
:101030005C0430915D04EE0FFF1FE95AFB4F3087CF
:10104000278310925D0410925C0493E010C02091FD
:101050005C0430915D042536310558F007C08111DC
:1010600008C010925D0410925C0403C095E0909358
:10107000570490915A049923B9F081110AC08091C4
:101080005904882321F08091590461E009C02F9A06
:101090000BC080915904882331F08091590460E09D
:1010A0000E944D0C01C02F98FF91EF91BF91AF911D
:1010B0009F918F917F916F915F914F913F912F9170
:1010C0000F900BBE0F900FBE0F901F9018951F92A0
:1010D0000F920FB60F9211240BB60F922F933F93DE
:1010E0004F935F936F937F938F939F93AF93BF9330
:1010F000EF93FF938091590287FF05C010928500FE
:101100001092840016C020915902022E000C330B5D
:101110008091650590E0281739075CF430915902F9
:1011200025E03203F0011124E75DFA4F808186FD4E
:1011300015C0809159028F5F809359022091590206
:10114000022E000C330B8091650590E028173907BB
:1011500094F4809159028C302CF10DC030915902D9
:101160003203F0011124E75DFA4F808160E08F7354
:101170000E944D0CDECF80918400909185008434D4
:101180009C4918F480E49CE905C08091840090910A
:101190008500049690938900809388008FEF809358
:1011A00059022AC040918400509185003091590223
:1011B00025E03203F0011124E75DFA4F818192812D
:1011C000840F951F90938900809388003091590275
:1011D0003203F0011124E75DFA4F808186FF0CC0D5
:1011E000309159023203F0011124E75DFA4F8081FA
:1011F00061E08F730E944D0CFF91EF91BF91AF9111
:101200009F918F917F916F915F914F913F912F911E
:101210000F900BBE0F900FBE0F901F90189585ED8D
:101220008093BC008091BC0084FDFCCF10926F02C3
:10123000089540918806262F30E0240F311D213279
:101240003105DCF420916F022430C9F4FC0180E008
:1012500090E0861758F4309188062191DC01AA5954
:10126000B94FA30FB11D2C930196F3CF809188063F
:10127000680F6093880680E0089581E0089582E019
:101280000895089581E090E030916C0220916B0206
:10129000321710F480E090E09195819591090895BE
:1012A00080916C0290916B02891730F48F5F80936C
:1012B0006C0280E090E008958FEF9FEF0895809199
:1012C0006B0290E020916C02821B91090895CF92ED
:1012D000DF92EF92FF920F931F93CF93DF937C01E6
:1012E000262F972F8A0180917002882391F0C62FB4
:1012F000D72F6E01C40ED51ECC15DD0571F0699196
:10130000D701ED91FC910190F081E02DC701199575
:10131000F3CF642F822F0E941909C801DF91CF916A
:101320001F910F91FF90EF90DF90CF900895CF9392
:10133000DF931F92CDB7DEB769832091700222231D
:10134000D1F020917302203240F021E030E0FC0126
:101350003383228380E090E015C080917102E82FF2
:10136000F0E0ED52F94F998190838F5F8093710285
:101370008093730205C061E0CE0101960E941909B5
:1013800081E090E00F90DF91CF91089590E0FC0113
:101390003197E231F10508F04EC08827EC57FF4F36
:1013A0008F4F0C946812809180008F7703C08091DA
:1013B00080008F7D80938000089580918000877FDA
:1013C000F9CF84B58F7702C084B58F7D84BD089531
:1013D0008091B0008F7703C08091B0008F7D8093A3
:1013E000B0000895809190008F7707C080919000A1
:1013F0008F7D03C080919000877F80939000089537
:101400008091A0008F7707C08091A0008F7D03C0DE
:101410008091A000877F8093A00008958091200193
:101420008F7707C0809120018F7D03C080912001BC
:10143000877F809320010895EAEBF3E0A089B189CA
:1014400082E08C93A485B5851C92A685B7858FEC28
:101450008C93108EA489B58986E08C93A289B38978
:101460008C9180618C93A289B3898C9188608C93D4
:10147000A289B3898C9180688C930288F389E02DCE
:1014800080818F7D808308952091730290917202F4
:10149000213208F04AC080916F028111FCCF32E006
:1014A00030936F0231E030936E023FEF3093D206FB
:1014B0001092D1062093D006A3EDB6E040EB56E0A3
:1014C000FA013E2F341B321718F43D913193F9CFB6
:1014D0001092AF062091AF06990F922B9093AF0612
:1014E00090916D02913061F410926D029091AF066F
:1014F0009093BB009091BC0093FDF8CF95EC01C098
:1015000095EE9093BC0090916F029230E1F3909130
:10151000D2069F3F79F08091D206803241F08091CF
:10152000D206803331F084E005C081E003C082E060
:1015300001C083E010927102109273021092700247
:101540000895EF92FF921F93CF93DF931F92CDB731
:10155000DEB7162F9FE2E92E96E0F92ED7011C96F2
:101560009C911C9721E0209370029093720210923C
:101570007102109273021A960D90BC91A02DED91FC
:10158000FC9111970190F081E02D682FCD017983B6
:101590001995F70182859385DC01ED91FC9101900D
:1015A000F081E02D7981672F1995F7018285938568
:1015B000DC01ED91FC910190F081E02D612F1995F6
:1015C0000F90DF91CF911F91FF90EF900C94440A00
:1015D0001F920F920FB60F9211240F900FBE0F9013
:1015E0001F9018951F920F920FB60F9211240BB6F1
:1015F0000F922F933F934F935F936F937F938F93AC
:101600009F93AF93BF93EF93FF938091B900887F2F
:10161000803609F49CC068F5883209F45BC090F408
:10162000803109F454C038F4882309F4F6C08830B6
:1016300009F44DC0F6C0883109F44CC0803209F479
:101640005DC0EFC0803409F468C048F4803309F409
:1016500055C0883309F0E5C08093D206D8C08035E4
:1016600009F44FC0883509F45DC0883409F0D9C049
:10167000D6C0883909F4C7C0A8F4883709F467C010
:1016800038F4883609F463C0803709F460C0C9C0F3
:10169000883809F4B8C0803909F45FC0803809F08F
:1016A000C0C05BC0803B09F486C038F4803A09F4BE
:1016B00066C0883A09F47FC0B4C0803C09F4A7C072
:1016C000883C09F4A4C0883B09F48AC0AAC0809170
:1016D000AF0610C09091D1068091D006981770F592
:1016E000E091D10681E08E0F8093D106F0E0E055C5
:1016F000F94F80818093BB0085EC86C08093D20631
:101700008EC0E091D10681E08E0F8093D10680914A
:10171000BB00F0E0E055F94F80839091D1068091B5
:10172000D0066EC0E091D10681E08E0F8093D10685
:101730008091BB00F0E0E055F94F808380916E020C
:1017400081116DC081E080936D0284EA61C083E005
:1017500080936F021092AC06CFCF8091AC0680329E
:1017600008F051C0E091AC0681E08E0F8093AC068A
:101770008091BB00F0E0E457F94F8083BDCF85EC4A
:101780008093BC0010926F028091AC06803230F4DE
:10179000E091AC06F0E0E457F94F10826091AC069E
:1017A00070E0E0918A06F0918B068CE896E019953E
:1017B0001092AC0636C084E080936F0210928906C6
:1017C00010928806E0918606F0918706199580911F
:1017D0008806811105C081E0809388061092660614
:1017E000E091890681E08E0F80938906F0E0EA5946
:1017F000F94F80818093BB00909189068091880683
:10180000981708F479CF85E88093BC000AC085EC6E
:101810008093BC0010926F0204C01092D2060E9406
:101820000F09FF91EF91BF91AF919F918F917F91A0
:101830006F915F914F913F912F910F900BBE0F9041
:101840000FBE0F901F901895CF93DF93282F30E095
:10185000F901E952FD4F8491F901EF56FD4FD49102
:10186000F901E55BFD4FC491CC2391F081110E94F9
:10187000C609EC2FF0E0EE0FFF1FEF5CFD4FA591C6
:10188000B491EC91ED2381E090E021F480E002C07E
:1018900080E090E0DF91CF9108951F93CF93DF9385
:1018A000282F30E0F901E952FD4F8491F901EF56FC
:1018B000FD4FD491F901E55BFD4FC491CC23C9F0F4
:1018C000162F81110E94C609EC2FF0E0EE0FFF1FCA
:1018D000E95EFD4FA591B4918FB7F894111105C041
:1018E0009C91ED2FE095E92302C0EC91ED2BEC9358
:1018F0008FBFDF91CF911F910895CF93DF9390E039
:10190000FC01EF56FD4F2491FC01E55BFD4F8491F6
:10191000882361F190E0880F991FFC01E350FE4F8E
:10192000C591D491FC01E95EFD4FA591B49161117F
:1019300009C09FB7F8948881209582238883EC9111
:101940002E230BC0623061F49FB7F8943881822F48
:10195000809583238883EC912E2B2C939FBF06C008
:101960008FB7F894E8812E2B28838FBFDF91CF911A
:1019700008953FB7F8948091670290916802A09112
:101980006902B0916A0226B5A89B05C02F3F19F0E5
:101990000196A11DB11D3FBFBA2FA92F982F8827EF
:1019A000820F911DA11DB11DBC01CD0142E0660F4A
:1019B000771F881F991F4A95D1F70895789484B5A9
:1019C000826084BD84B5816084BD85B5826085BD3B
:1019D00085B5816085BD80916E00816080936E00C9
:1019E00010928100809181008260809381008091BB
:1019F000810081608093810080918000816080936C
:101A000080008091B10084608093B1008091B0002B
:101A100081608093B00080919100826080939100FA
:101A2000809191008160809391008091900081600D
:101A3000809390008091A10082608093A1008091AA
:101A4000A10081608093A1008091A00081608093BB
:101A5000A000809121018260809321018091210169
:101A60008160809321018091200181608093200119
:101A700080917A00846080937A0080917A008260FD
:101A800080937A0080917A00816080937A008091BF
:101A90007A00806880937A001092C1000E941C0A2C
:101AA00061E0809130060E947D0C60E080913006FC
:101AB0000E944D0C60E080912F060E947D0C84E70F
:101AC00092E090933A068093390610926C0210923D
:101AD0006B02109271021092730210926F0281E0F9
:101AE00080936E0210926D0261E084E10E944D0CC1
:101AF00061E085E10E944D0C8091B9008E7F80935A
:101B0000B9008091B9008D7F8093B90088E48093FB
:101B1000B80085E48093BC0080E090E1A0E0B0E0F4
:101B200080933C0690933D06A0933E06B0933F06FB
:101B30008AE090E0A0E0B0E08093400690934106F8
:101B4000A0934206B093430680E090E0A0E0B0E4AA
:101B50008093440690934506A0934606B0934706AB
:101B600060E070E185E00E94A10A6FE979E380E01E
:101B70000E94A10ACCE4D6E0C12CD12CE12CF12C9E
:101B800060E8462E62E0562E76EC872E72E0972EA5
:101B9000EBECAE2EE7E0BE2EC701815D994F3C0114
:101BA000FC01948182818601015D194FF801818FCA
:101BB000928F61E00E947D0C61E0F801828D0E94AD
:101BC0007D0CF301908586818883F801968F61E012
:101BD0000E947D0C60E0F801868D0E947D0C61E022
:101BE00088810E944D0C1FB7F89480916102811189
:101BF00025C0F2018491F4019491E82FF0E0EE0FFA
:101C0000FF1FE350FE4FA591B4918C91982321F4CE
:101C100061E085E30E944D0C61E085E30E947D0C4C
:101C20008CB580618CBD8CB580648CBD61E084E333
:101C30000E947D0C61E083E30E947D0C8091610233
:101C40008F5F809361021FBFC5010197F1F760E0CC
:101C500088810E944D0C88E80E941D0383E00E9449
:101C60001D0361E088810E944D0CC5010197F1F7C9
:101C7000CE010E944104F2E0CF0ED11C2296EA94DC
:101C8000EF2821F0EE24E394F12C86CFC4E5D6E0D2
:101C90001C2F1C5F60E089910E947D0C1C13FACF01
:101CA00003E616E0C0E6D6E095E0C92E2CE0E22E71
:101CB00032E0B32EDC2ED394D394FE013897F0801B
:101CC00088818C3008F044C061E08F2D0E947D0C2B
:101CD0008881C89EF0011124E75DFA4F9F2D9F7304
:101CE0002081207CF22EF92AF082138214826E2D3C
:101CF0000E945C129CE0899FA001112420E030E04A
:101D0000B901640F751FC69EF001C79EF00D112426
:101D1000E75DFA4F908196FD12C02F5F3F4F2C3048
:101D2000310571F781110BC010928000B0928100D3
:101D30001092850010928400B6BAB0926F00E881CC
:101D4000CE9EF0011124E75DFA4F8081806480838C
:101D5000FE013297908132978081F801319780831C
:101D6000F801908360E00E947D0C61E0F8018081C1
:101D70000E947D0C60E0F80180810E944D0C21964C
:101D80000E5F1F4FDC1299CFF8941092200189E06A
:101D90008093210180E293E09093290180932801B0
:101DA000109225011092240182E0809373007894B0
:101DB0008093570410925B048091580460E00E9465
:101DC0007D0C8CE496E00E9441048EE496E00E9433
:101DD00041040E941C0A809157060E94240C892B02
:101DE000D1F388EC90E00E94D1044DEC5CEC6CE403
:101DF0007EE388E496E00E94280388E39FEF0E9438
:101E0000D1044DEC5CEC6CE47EEB88E496E00E943F
:101E100028030E94B90C4B015C018AE0C82ED12C2A
:101E2000E12CF12C0E94B90CDC01CB018819990935
:101E3000AA09BB09883E9340A105B10558F021E0ED
:101E4000C21AD108E108F10888EE880E83E0981ED6
:101E5000A11CB11CC114D104E104F10419F70E94C2
:101E6000F002BFCF80916605909167050C944013F6
:101E7000109277021092760288EE93E0A0E0B0E034
:101E80008093780290937902A0937A02B0937B02B8
:101E90002BE032E03093750220937402109283029B
:101EA000109282028093840290938502A09386020E
:101EB000B09387022DE132E03093810220938002BB
:101EC00045E351E050938D0240938C0244E351E08E
:101ED00050938F0240938E0240E351E05093910261
:101EE0004093900241E351E0509393024093920259
:101EF00042E351E0509395024093940246E351E04F
:101F000050939702409396021092990210929A026F
:101F100010929B0210929C021092200310921F03B9
:101F20008093210390932203A0932303B09324036F
:101F300030931E0320931D0345ED50E050932A0378
:101F40004093290344ED50E050932C0340932B031E
:101F500040ED50E050932E0340932D0341ED50E0AF
:101F60005093300340932F0342ED50E050933203DF
:101F70004093310346ED50E05093340340933303D4
:101F800010923603109237031092380310923903DF
:101F90001092BD031092BC038093BE039093BF03C5
:101FA000A093C003B093C1033093BB032093BA0343
:101FB00085EC90E09093C7038093C60384EC90E097
:101FC0009093C9038093C80380EC90E09093CB0377
:101FD0008093CA0381EC90E09093CD038093CC036F
:101FE00082EC90E09093CF038093CE0386EC90E058
:101FF0009093D1038093D0031092D3031092D40313
:102000001092D5031092D60386E38093500687E39F
:102010008093510688E38093520689E380935306A8
:102020008BE1809354068DE1809355068AE180937D
:1020300056068CE18093570684E08093580687E02B
:102040008093590610925A0684EB80935B0686E1D2
:1020500080935C0688E180935D0687E180935E064D
:1020600089E180935F06E0916505EC3020F08FEF09
:102070008093600610C081E08E0F80936505E09329
:10208000600625E0E29FF0011124E75DFA4F88EB3E
:102090009BE092838183E0916505EC3020F08FEF27
:1020A0008093610610C081E08E0F80936505E093F8
:1020B000610685E0E89FF0011124E75DFA4F88EBA7
:1020C0009BE0928381838CE080932F0684E280934F
:1020D000300686E08093310685E0809332068FE1FA
:1020E000809333068EE18093340683E28093350635
:1020F00082E28093360685E48093370684E48093F9
:10210000380680E480933B06109240061092410608
:102110001092420610924306109244061092450611
:102120001092460610924706E1E7F5E08FEF9FEF29
:10213000DC011282138214821582168217821086A5
:10214000118683879487A587B6878787908BA18B15
:10215000B28B128611821082739626E0EF32F2075C
:1021600041F78DE090E00E94AB12FC0113821282D5
:102170008FE292E091838083118687E2848384E1F9
:10218000828784E083871486F0936E05E0936D0563
:1021900010926F051092700585E28093580410929A
:1021A0005A04109267051092660510926905109204
:1021B000680510926B0510926A0561E070E080E09E
:1021C00090E00E94D813009789F090936705809360
:1021D0006605109269051092680520916A05309194
:1021E0006B05232BC1F4FC01108215C0809166059C
:1021F00090916705009711F00E94401310926705B7
:102200001092660510926B0510926A05109269058E
:1022100010926805089510926B0510926A0567E3A5
:1022200072E00C94CF14E89409C097FB3EF49095AB
:102230008095709561957F4F8F4F9F4F9923A9F09F
:10224000F92F96E9BB279395F6958795779567952E
:10225000B795F111F8CFFAF4BB0F11F460FF1BC072
:102260006F5F7F4F8F4F9F4F16C0882311F096E905
:1022700011C0772321F09EE8872F762F05C06623B3
:1022800071F096E8862F70E060E02AF09A95660F6C
:10229000771F881FDAF7880F9695879597F9089525
:1022A000990F0008550FAA0BE0E8FEEF1616170667
:1022B000E807F907C0F012161306E407F50798F0CF
:1022C000621B730B840B950B39F40A2661F0232BE8
:1022D000242B252B21F408950A2609F4A140A69564
:1022E0008FEF811D811D08950E9487110C94F811B4
:1022F0000E94EA1138F00E94F11120F0952311F0AC
:102300000C94E1110C94E71111240C942C120E94EE
:10231000091270F3959FC1F3950F50E0551F629F0E
:10232000F001729FBB27F00DB11D639FAA27F00D2E
:10233000B11DAA1F649F6627B00DA11D661F829F55
:102340002227B00DA11D621F739FB00DA11D621F3A
:10235000839FA00D611D221F749F3327A00D611D57
:10236000231F849F600D211D822F762F6A2F112439
:102370009F5750409AF0F1F088234AF0EE0FFF1F6C
:10238000BB1F661F771F881F91505040A9F79E3FC3
:10239000510580F00C94E1110C942C125F3FE4F392
:1023A000983ED4F3869577956795B795F795E79519
:1023B0009F5FC1F7FE2B880F911D9695879597F922
:1023C000089597F99F6780E870E060E008959FEFB7
:1023D00080EC089500240A941616170618060906BC
:1023E000089500240A94121613061406050608958B
:1023F000092E0394000C11F4882352F0BB0F40F413
:10240000BF2B11F460FF04C06F5F7F4F8F4F9F4F52
:10241000089557FD9058440F551F59F05F3F71F0D4
:102420004795880F97FB991F61F09F3F79F087953B
:102430000895121613061406551FF2CF4695F1DFC4
:1024400008C0161617061806991FF1CF8695710554
:10245000610508940895E894BB2766277727CB0188
:1024600097F908950E943D12A59F900DB49F900D7D
:10247000A49F800D911D11240895A29FB001B39FC8
:10248000C001A39F700D811D1124911DB29F700D7D
:10249000811D1124911D0895DB018F939F930E944C
:1024A0003212BF91AF91A29F800D911DA39F900DFD
:1024B000B29F900D11240895991B79E004C0991FD3
:1024C000961708F0961B881F7A95C9F7809508958E
:1024D000EE0FFF1F881F8BBF0790F691E02D199418
:1024E0000E9477126894B1110C942C1208950E94E6
:1024F000111288F09F5798F0B92F9927B751B0F073
:10250000E1F0660F771F881F991F1AF0BA95C9F777
:1025100014C0B13091F00E942B12B1E008950C94D8
:102520002B12672F782F8827B85F39F0B93FCCF38B
:10253000869577956795B395D9F73EF490958095F4
:10254000709561957F4F8F4F9F4F08950E94501156
:1025500008F48FEF0895CF93DF938230910510F444
:1025600082E090E0E091F506F091F60620E030E0A0
:10257000C0E0D0E0309711F14081518148175907F0
:10258000C0F04817590761F482819381209719F0B0
:102590009B838A832BC09093F6068093F50626C012
:1025A0002115310519F04217530718F49A01BE019D
:1025B000DF01EF010280F381E02DDCCF2115310531
:1025C00009F1281B390B2430310590F412968D91B6
:1025D0009C9113976115710521F0FB019383828310
:1025E00004C09093F6068093F506FD01329644C030
:1025F000FD01E20FF31F81939193225031092D9336
:102600003C933AC02091F3063091F406232B41F419
:1026100020910302309104023093F4062093F306D4
:1026200020910102309102022115310541F42DB7AC
:102630003EB74091050250910602241B350BE091F4
:10264000F306F091F406E217F307A0F42E1B3F0BFC
:102650002817390778F0AC014E5F5F4F2417350714
:1026600048F04E0F5F1F5093F4064093F30681939A
:10267000919302C0E0E0F0E0CF01DF91CF910895A7
:102680000F931F93CF93DF93009709F48CC0FC0145
:102690003297138212820091F5061091F606011509
:1026A000110581F420813181820F931F2091F3065F
:1026B0003091F4062817390779F5F093F406E09382
:1026C000F30671C0D80140E050E0AE17BF0750F4E8
:1026D00012962D913C911397AD012115310509F109
:1026E000D901F3CF9D01DA013383228360817181A7
:1026F000860F971F8217930769F4EC0128813981AF
:10270000260F371F2E5F3F4F318320838A819B81A5
:1027100093838283452B29F4F093F606E093F50624
:1027200042C01396FC93EE931297ED014991599193
:102730009E01240F351FE217F30771F48081918108
:10274000840F951F029611969C938E93828193819C
:1027500013969C938E931297E0E0F0E0D8011296C6
:102760008D919C911397009719F0F8018C01F6CF89
:102770008D919C9198012E5F3F4F820F931F209166
:10278000F3063091F4062817390769F4309729F4D5
:102790001092F6061092F50602C013821282109370
:1027A000F4060093F306DF91CF911F910F910895E6
:1027B0006F927F928F929F92AF92BF92CF92DF9251
:1027C000EF92FF920F931F93CF93DF93EC0100974B
:1027D00089F4CB01DF91CF911F910F91FF90EF9082
:1027E000DF90CF90BF90AF909F908F907F906F9031
:1027F0000C94AB12FC01E60FF71F9C01225031092B
:10280000E217F30708F4ACC0D9010D911C911197A0
:1028100006171707B0F00530110508F49FC0C8016E
:1028200004978617970708F499C002501109061BF0
:10283000170B019311936D937C93CF010E9440136A
:102840008DC05B01A01AB10A4C01800E911EA091AF
:10285000F506B091F60640E050E0E12CF12C10971F
:1028600009F44AC0A815B905D1F56D907C9011976F
:10287000630182E0C80ED11CCA14DB0480F1A301FD
:102880004A195B096A0182E0C80ED11C1296BC90FD
:1028900012971396AC91B5E0CB16D10440F0B282FA
:1028A000A38351834083D9016D937C930AC00E5F4B
:1028B0001F4FC301800F911FF90191838083EB2D7E
:1028C000FA2FE114F10431F0D7011396FC93EE9343
:1028D000129744C0F093F606E093F5063FC08D9141
:1028E0009C9111974817590708F4AC017D01129685
:1028F0000D90BC91A02DB3CF8091F3069091F4067A
:1029000088159905E1F446175707C8F4809101022C
:1029100090910202009741F48DB79EB74091050255
:1029200050910602841B950BE817F907C8F4F09341
:10293000F406E093F306F901718360830FC0CB01C5
:102940000E94AB127C01009759F0A801BE010E94C1
:10295000C614CE010E944013C70104C0CE0102C0BC
:1029600080E090E0DF91CF911F910F91FF90EF9069
:10297000DF90CF90BF90AF909F908F907F906F909F
:10298000089581E090E0F8940C94D614FB01DC01EA
:1029900002C001900D9241505040D8F70895FB01BC
:1029A000DC0101900D920020E1F7089511E0C0E9EB
:1029B000D1E000E006C0802FFE010E94681221963F
:1029C000011DC139D10780E00807A9F7F894FFCFAE
:1029D000FF0000F7062000000000009709670925A6
:1029E0000341095F0950094209000000008402C444
:1029F000010802CB02390217022B02000000009FDF
:082A000005C4012503240300B5
:00000001FF
