:100000000C94D6010C9407020C9407020C9407027E
:100010000C9407020C9407020C9407020C9407023C
:100020000C9407020C94B6030C94B6030C94B6031C
:100030000C9407020C94BD0F0C9407020C94070259
:100040000C9407020C94A5130C9407020C9407025D
:100050000C9407020C9407020C9407020C944315AD
:100060000C9407020C942E110C9404110C940702AA
:100070000C9407020C9407020C9407020C940702DC
:100080000C9407020C9407020C9407020C940702CC
:100090000C9407020C9407020C9407020C94360B84
:1000A0000C9407020C9407020C9407020C940702AC
:1000B0000C9407020C9407020C9407020C9458113C
:1000C0000C9407020C9407020C9407020C94DA10AB
:1000D0000C94B0100C9407020C9486100C945C10D5
:1000E0000C9407022402270216021A0220025E0262
:1000F0002B022F02350239023D02430247024B0216
:100100005E0251025502590276127B1280128A1247
:1001100094120D139E12A612AE12B812C212CC1275
:10012000DB12E5120D13EF12F912031307634236C7
:10013000B79BD8A71A39685618AEBAAB558C1D3C78
:10014000B7CC5763BD6DEDFD753EF6177231BF003C
:100150000000803F08000000BE922449123EABAA76
:10016000AA2ABECDCCCC4C3E00000080BEABAAAAD1
:10017000AA3E00000000BF000000803F0000000019
:1001800000084178D3BB4387D1133D190E3CC3BD52
:100190004282AD2B3E68EC8276BED98FE1A93E4CFF
:1001A00080EFFFBE01C4FF7F3F00000000000C9401
:1001B00051020C9480120C9416020C9435020C948B
:1001C000A6120C94F9120C9420020C943D020C948B
:1001D0000D0D0C9476120C94290B0C948A120C942D
:1001E0002E0E0C9424020C940D130C94E5120C9416
:1001F000B80E0C9455020C941A020C9459020C94EB
:100200009E0A0C944B020C9403130C945E020C9403
:100210002F020C947B120C94280B0C9443020C9428
:1002200027020C94DA0E0C94250F0C94650E0C9496
:1002300047020C94C90A0C942B020C94DB120C9408
:10024000B51B0C94EF120C94971D0C94F90A0C94A6
:100250009D0A0C9494120C94CC0E0C94C2120C9423
:10026000AE120C946C0F0C94C10A0C949E120C9458
:1002700039020C94B8120C942C0B0C94A90E0C940B
:10028000AD0A0C94CC1200002100240027002A00A3
:100290002D003000330001010000040107010A01B4
:1002A00000002200250028002B002E003100340021
:1002B00002010000050108010B01000020002300DD
:1002C000260029002C002F0032000001000003014D
:1002D00006010901050505050705080808080202C9
:1002E00002020A0A080804040404010101010101D0
:1002F00001010303030303030303040707070C0CB3
:100300000C0C0C0C0C0C0202020206060606060679
:1003100006060B0B0B0B0B0B0B0B0102102020081E
:100320000810204010204080020102010804020150
:1003300001020408102040808040201008040201BF
:100340008004020180402010080402010804020118
:10035000010204081020408001020408102040809F
:1003600000000A0B02090C0D0E080703040100002F
:10037000000000000000000000000000000000007D
:10038000000000000000000000000000121110003A
:10039000000000000000000000000000000000005D
:1003A0000000000000000200B51B971D11241FBEB5
:1003B000CFEFD1E2DEBFCDBF00E00CBF12E0A0E086
:1003C000B2E0EEE6F8E400E00BBF02C007900D9249
:1003D000AE3AB107D9F727E0AEEAB2E001C01D920C
:1003E000A33EB207E1F711E0C5EDD1E000E006C0A1
:1003F00021970109802FFE010E943F1FC43DD107B4
:1004000080E00807A9F70E948D150C9425240C9410
:10041000000090E0FC013197E231F10508F04EC098
:100420008827EE58FF4F8F4F0C943F1F809180001C
:100430008F7703C0809180008F7D80938000089526
:1004400080918000877FF9CF84B58F7702C084B513
:100450008F7D84BD08958091B0008F7703C0809117
:10046000B0008F7D8093B0000895809190008F77C9
:1004700007C0809190008F7D03C080919000877F9E
:100480008093900008958091A0008F7707C080919D
:10049000A0008F7D03C08091A000877F8093A00083
:1004A0000895809120018F7707C0809120018F7D72
:1004B00003C080912001877F80932001089591E0FF
:1004C0009093110394E79093100310920F031092EE
:1004D0000E03682F89EE94E00E94F90A89EE94E0F9
:1004E0000E94860C8091EB028111FCCF81E0809309
:1004F000EB028093EA029FEF9093E9021092E802E8
:100500001092E7028093E6028091E602886E809363
:10051000E6028091E502813061F41092E50280915B
:10052000E6028093BB008091BC0083FDF8CF85EC90
:1005300001C085EE8093BC008091EB028130E1F335
:100540008091E802811103C08091E80201C081E03E
:10055000A5ECB2E02EEE32E0F9019E2F921B981727
:1005600018F49D919193F9CF1092ED028093EC02D3
:10057000811101C0FFCF89EE94E00E94AD0A089579
:10058000ECE4F4E0A089B18982E08C93A485B58580
:100590001C92A685B7858FEC8C93108EA489B589A3
:1005A00086E08C93A289B3898C9180618C93A28917
:1005B000B3898C9188608C93A289B3898C9180686F
:1005C0008C930288F389E02D80818F7D808308954C
:1005D000CF93C82F81E08093110384E780931003A9
:1005E00010920F0310920E0389EE94E00E94F90A14
:1005F0006C2F89EE94E00E94F90A89EE94E0CF9185
:100600000C94860C009769F0FC0101900020E9F73A
:100610003197AF01481B590BBC018CE494E00C945A
:10062000650E80E090E008950F931F93CF93C82F3D
:100630008B016115704164F46C2F802F0E94E802D9
:1006400061E06C0F812FCF911F910F910C94E80204
:10065000CF911F910F91089560E081E00E94E80220
:1006600080E00E945F028111FBCF0895CF93DF935A
:10067000C82F0E945F02D82F81E08C0F0E945F027A
:10068000282F30E0922F88278D0F911DDF91CF9179
:100690000895CF93DF930E940203EC0185E792E077
:1006A0000E9402038C0F9D1FDF91CF910895EF925E
:1006B000FF921F93CF93DF931F92CDB7DEB7162F14
:1006C0009FEDE92E96E0F92ED7011C969C911C9780
:1006D00021E0209311039093100310920F031092C6
:1006E0000E031A960D90BC91A02DED91FC911197DF
:1006F0000190F081E02D682FCD0179831995F701E4
:1007000082859385DC01ED91FC910190F081E02DD3
:100710007981672F1995F70182859385DC01ED9129
:10072000FC910190F081E02D612F1995F7018285F0
:1007300093850F90DF91CF911F91FF90EF900C94D4
:10074000860C40E050E0BA0188EF96E00E94161255
:1007500040E050E060E070E88AEF96E00E941612F8
:1007600068EE73E080E090E00C9409151F920F9200
:100770000FB60F9211240F900FBE0F901F90189577
:10078000CF93DF93282F30E0F901E05AFC4F84919A
:10079000F901E65EFC4FD491F901EC52FD4FC49192
:1007A000CC2391F081110E940902EC2FF0E0EE0FB2
:1007B000FF1FE654FD4FA591B491EC91ED2381E02C
:1007C00090E021F480E002C080E090E0DF91CF91E2
:1007D00008951F93CF93DF93282F30E0F901E05A5B
:1007E000FC4F8491F901E65EFC4FD491F901EC5283
:1007F000FD4FC491CC23C9F0162F81110E9409022C
:10080000EC2FF0E0EE0FFF1FE056FD4FA591B491E5
:100810008FB7F894111105C09C91ED2FE095E92355
:1008200002C0EC91ED2BEC938FBFDF91CF911F9124
:100830000895CF93DF9390E0FC01E65EFC4F249196
:10084000FC01EC52FD4F8491882361F190E0880F08
:10085000991FFC01EA57FD4FC591D491FC01E05668
:10086000FD4FA591B491611109C09FB7F89488819B
:10087000209582238883EC912E230BC0623061F493
:100880009FB7F8943881822F809583238883EC91D9
:100890002E2B2C939FBF06C08FB7F894E8812E2B88
:1008A00028838FBFDF91CF9108951F93CF93DF935C
:1008B000EC01162F88818C3008F04DC061E0812F4B
:1008C0000E941904E88195E09E9FF0011124E953EC
:1008D000FA4F1F738081807C182B10831382E8816C
:1008E0009E9FF0011124E953FA4F148288816CE035
:1008F0000E941F1F9CE0899FA001112420E030E08E
:1009000095E0B901640F751F969FF001979FF00D58
:100910001124E953FA4F608166FD13C02F5F3F4FEA
:100920002C30310571F781110CC01092800082E0EB
:1009300080938100109285001092840086BB809382
:100940006F00E88185E0E89FF0011124E953FA4F38
:100950008081806480838881DF91CF911F91089589
:10096000863308F0865390917B00282F2870977F5C
:10097000922B90937B008770806480937C008091A1
:100980007A00806480937A0080917A0086FDFCCFA3
:10099000809178002091790090E0922B0895E0E01A
:1009A000F0E0199480910A078D3820F480910B07AC
:1009B0008C3820F48EE392E00C9449036CE870E0EC
:1009C00081E197E00C942F13CF93DF93EC0140E08B
:1009D00050E060E07FE388EF96E00E94161240E06E
:1009E00050E060E07FE38AEF96E00E941612BE01BD
:1009F000DD0F880B990BDF91CF910C940915CF93E4
:100A0000DF93EC0140E050E060E07FE388EF96E0A8
:100A10000E94161240E050E060E07FEB8AEF96E023
:100A20000E941612BE01DD0F880B990BDF91CF914A
:100A30000C9409150F931F93CF93DF93C1E2D6E077
:100A40000BE216E08FB7F8944091D6075091D70784
:100A50006091D8077091D9078FBF8E819F81A8853B
:100A6000B98584179507A607B70708F040C0F801B5
:100A700080818823E1F18B859C85AD85BE85892B9E
:100A80008A2B8B2BA1F1E881F98119958B859C85A7
:100A9000AD85BE85181619061A061B068CF48F85BF
:100AA0009889A989BA890197A109B1098F87988B7B
:100AB000A98BBA8B892B8A2B8B2B11F4F80110820E
:100AC0002FB7F8948091D6079091D707A091D807B7
:100AD000B091D9072FBF4A815B816C817D81840FE2
:100AE000951FA61FB71F8E839F83A887B98763961C
:100AF0000D5E1F4FF6E0CF3DDF0709F0A3CFDF917A
:100B0000CF911F910F9108953F924F925F926F92F4
:100B10007F928F929F92AF92BF92CF92DF92EF928D
:100B2000FF920F931F93CF93DF93CDB7DEB7289734
:100B30000FB6F894DEBF0FBECDBF6D837E838F836B
:100B400098878091E00690910002981721F09F3FCE
:100B500009F037C304C0E6EAF3E0349004C180939F
:100B60000002E6EAF3E0E491EF3F09F42AC3E23041
:100B700009F480C074F5EE2309F45BC0E13009F09C
:100B8000F1C01092800010928100909181009860D5
:100B90009093810090918100916090938100282F23
:100BA00030E0F901EC52FD4FE491F0E0EE0FFF1F51
:100BB000E056FD4F459154915093230740932207EF
:100BC000F901E65EFC4FE491E0932107332433946E
:100BD000CCC0E43009F49EC00CF474C0E53009F0D8
:100BE000C1C01092200110922101909121019860C2
:100BF0009093210190912101916090932101282FE0
:100C000030E0F901EC52FD4FE491F0E0EE0FFF1FF0
:100C1000E056FD4F4591549150931A0740931907A0
:100C2000F901E65EFC4FE491E093180765E0362E8B
:100C30009CC014BC15BC94B5926094BD95B59160F0
:100C400095BD282F30E0F901EC52FD4FE491F0E022
:100C5000EE0FFF1FE056FD4F45915491509326072C
:100C600040932507F901E65EFC4FE491E0932407E9
:100C7000312C7BC01092B0001092B1009091B00066
:100C800092609093B0009091B10091609093B10008
:100C9000282F30E0F901EC52FD4FE491F0E0EE0F27
:100CA000FF1FE056FD4F459154915093CF0740935D
:100CB000CE07F901E65EFC4FE491E093D00722E015
:100CC000322E53C01092900010929100909191009A
:100CD0009860909391009091910091609093910011
:100CE000282F30E0F901EC52FD4FE491F0E0EE0FD7
:100CF000FF1FE056FD4F45915491509320074093BC
:100D00001F07F901E65EFC4FE491E0931E07B3E094
:100D10003B2E2BC01092A0001092A1009091A10038
:100D200098609093A1009091A10091609093A10090
:100D3000282F30E0F901EC52FD4FE491F0E0EE0F86
:100D4000FF1FE056FD4F4591549150931D0740936E
:100D50001C07F901E65EFC4FE491E0931B07E4E019
:100D60003E2E03C03E2E37FC2CC24701580161E0E5
:100D70000E9419044D805E806F80788466247724F9
:100D8000832D8D7F09F0BBC060E072E18AE790E0BF
:100D9000A30192010E94BC1E29833A834B835C838A
:100DA00069017A0121E0C21AD108E108F1088FEF48
:100DB000C816D104E104F10409F008F44CC060E461
:100DC00072E48FE090E0A30192010E94BC1E6901D1
:100DD0007A0191E0C91AD108E108F108E2E03E1277
:100DE00020C0FFEFCF16D104E104F10409F008F4AC
:100DF000E6C160E970ED83E090E0A30192010E94FA
:100E0000BC1E69017A0181E0C81AD108E108F10825
:100E10009FEFC916D104E104F10409F0D0F583E095
:100E200067C0EFEFCE16D104E104F104B1F0A8F0F1
:100E300068E478EE81E090E0A30192010E94BC1E7C
:100E400069017A01F1E0CF1AD108E108F1083320F5
:100E500009F45BC1ABC181E001C082E03320A1F0A5
:100E600047C089819A81AB81BC812AE0B595A7955D
:100E7000979587952A95D1F76C017D01F1E0CF1AFE
:100E8000D108E108F10885E095B5987F892B85BDEB
:100E9000A6C068E478EE81E090E0A30192010E9490
:100EA000BC1E69017A0181E0C81AD108E108F10885
:100EB0009FEFC916D104E104F10409F008F423C13D
:100EC00064E274EF80E090E0A30192010E94BC1EF6
:100ED00069017A0181E0C81AD108E108F1089FEFA1
:100EE000C916D104E104F10411F008F030C185E025
:100EF0009091B100987F892B8093B10070C060E021
:100F000072E18AE790E0A30192010E94BC1E690190
:100F10007A01F1E0CF1AD108E108F108C114D10437
:100F200021E0E206F10488F068E478EE81E090E0E8
:100F3000A30192010E94BC1E69017A0181E0C81AD6
:100F4000D108E108F10883E001C081E091E03912A5
:100F500010C090918100987F892B8093810081142B
:100F60009104A104B10409F03FC02FEF3FEFA901A4
:100F700072C0E3E03E120FC090919100987F892BE0
:100F80008093910081149104A104B10469F52FEFBD
:100F90003FEFA90182C0F4E03F120FC09091A10081
:100FA000987F892B8093A10081149104A104B1043E
:100FB000D9F42FEF3FEFA90182C025E032120FC014
:100FC00090912101987F892B8093210181149104B4
:100FD000A104B10449F42FEF3FEFA90182C08114AD
:100FE0009104A104B10479F0AD81BE81AA0FBB1FA9
:100FF000A50194010E94DB1E28EE33E040E050E0A2
:101000000E94EE1E03C02FEF3FEFA90182E03816C9
:10101000A1F1831534F0332079F091E03916D9F03D
:10102000D0C0E4E03E1609F44AC03E16B4F1F5E043
:101030003F1609F456C0C5C0C7BC2093370730938C
:1010400038074093390750933A0780916E008260C9
:1010500080936E00B6C0D0928900C0928800209321
:101060003307309334074093350750933607809108
:101070006F00826080936F00A4C0C092B300209381
:10108000D1073093D2074093D3075093D407809170
:10109000700082608093700094C0D0929900C092DA
:1010A000980020932F0730933007409331075093D7
:1010B00032078091710082608093710082C0D0926B
:1010C000A900C092A80020932B0730932C074093CF
:1010D0002D0750932E0780917200826080937200DA
:1010E00070C0D0922901C092280120932707309325
:1010F00028074093290750932A0780917300826044
:10110000809373005EC084E0F3CE2FEFC216D1044B
:10111000E104F104D1F0C8F062E17AE780E090E008
:10112000A30192010E94BC1E69017A01E1E0CE1A7E
:10113000D108E108F108FFEFCF16D104E104F10472
:1011400011F008F08ECE84E09FCE83E09DCE62E168
:101150007AE780E090E0A30192010E94BC1E690141
:101160007A0181E0C81AD108E108F1089FEFC91699
:10117000D104E104F104C1F0B8F089819A81AB8116
:10118000BC814AE0B595A795979587954A95D1F783
:101190006C017D01E1E0CE1AD108E108F1083320AD
:1011A00009F471CE87E0A4CE86E058CEEFEFCE16DC
:1011B000D104E104F10409F050F684E04FCE82E05E
:1011C00097CE28960FB6F894DEBF0FBECDBFDF9145
:1011D000CF911F910F91FF90EF90DF90CF90BF9034
:1011E000AF909F908F907F906F905F904F903F90C7
:1011F0000895EF92FF920F931F930E94A10384E63C
:10120000E82EF12C00E010E020E030E040E050E07B
:1012100068EE73E080E090E00E94840568EC70E086
:1012200080E090E00E94091520E030E040E050E0CE
:1012300068EE73E080E090E00E94840568EC70E066
:1012400080E090E00E94091540E050E060E07FEB14
:1012500088EF96E00E94161240E050E060E07FE3E5
:101260008AEF96E00E94161268EE73E080E090E04C
:101270000E94091540E050E060E07FEB88EF96E0C7
:101280000E94161240E050E060E07FEB8AEF96E0AB
:101290000E94161260E273E080E090E00E9409155F
:1012A0001092B9021092B8021F910F91FF90EF9027
:1012B0000895EF92FF920F931F93CF93DF9389E0EE
:1012C0000E94B004EC0190933C0780933B078CEFA5
:1012D00096E00E947F149B01AC0188279927DC01CE
:1012E000821B930BA40BB50B81329E44A105B10563
:1012F0000CF0A6C08EEF96E00E947F1461327E440F
:10130000810591050CF09CC08091B8029091B902C2
:101310000097F9F4C132D34030F082E090E090932E
:10132000B9028093B80246E259E462E97EE388EFAD
:1013300096E00E9416124AE959E969E97EEB8AEFC4
:1013400096E0DF91CF911F910F91FF90EF900C9459
:1013500016128230910569F4C132D34008F4B4C04A
:1013600081E090E09093B9028093B80288E792E020
:1013700034C08130910509F5CC3BD24008F0A4C0BF
:101380008EEF9FEF9093B9028093B80285E892E0C8
:101390000E9449034DEC5CEC6CE47DE388EF96E041
:1013A0000E94161240E050E060E07FEB8AEF96E08A
:1013B0000E9416128EEF96E03BC08E3F3FEF9307E0
:1013C000A1F4C132D34008F47FC08FEF9FEF909318
:1013D000B9028093B80283E992E0DF91CF911F9127
:1013E0000F91FF90EF900C944903019609F06CC0A7
:1013F000CC3BD24008F068C082E090E09093B90204
:101400008093B80281EA92E00E94490340E050E0F4
:1014100060E07FE388EF96E00E9416124DEC5CECF2
:101420006CE47DEB8AEF96E00E9416128CEF96E05A
:10143000DF91CF911F910F91FF90EF900C94541476
:101440008091B6029091B702029781F50E94A103A4
:1014500084E6E82EF12C00E010E020E030E040E0EF
:1014600050E068EE73E080E090E00E94840568EC54
:1014700070E080E090E00E94091520E030E040E05C
:1014800050E068EE73E080E090E00E94840568EC34
:1014900070E080E090E00E94091580E293E00E94F5
:1014A000E4041092B9021092B80202C00E94F90836
:1014B0008CEF96E00E9454148EEF96E00E94541434
:1014C0001092B9021092B802DF91CF911F910F9143
:1014D000FF90EF90089585ED8093BC008091BC0053
:1014E00084FDFCCF1092EB0208954091A907262FAE
:1014F00030E0240F311D21323105DCF42091EB0264
:101500002430C9F4FC0180E090E0861758F4309153
:10151000A9072191DC01A957B84FA30FB11D2C9346
:101520000196F3CF8091A907680F6093A90780E027
:10153000089581E0089582E008950895E091ED0214
:101540008091EC02E81730F4F0E0E251FD4F808129
:1015500090E008958FEF9FEF08959091ED028091B4
:10156000EC02981750F4E92FF0E0E251FD4F208192
:1015700030E09F5F9093ED0202C02FEF3FEFC90173
:1015800008958091EC0290E02091ED02821B910978
:101590000895CF92DF92EF92FF920F931F93CF9314
:1015A000DF937C01262F972F8A01809111038823D6
:1015B00091F0C62FD72F6E01C40ED51ECC15DD05B8
:1015C00071F06991D701ED91FC910190F081E02DCE
:1015D000C7011995F3CF642F822F0E94750AC801A5
:1015E000DF91CF911F910F91FF90EF90DF90CF90FF
:1015F0000895CF93DF931F92CDB7DEB76983209113
:1016000011032223D1F020910E03203240F021E07B
:1016100030E0FC013383228380E090E015C08091AC
:101620000F03E82FF0E0E959F84F998190838F5F1D
:1016300080930F0380930E0305C061E0CE010196F5
:101640000E94750A81E090E00F90DF91CF9108959C
:10165000089580E090E008958091B2029091B302E5
:1016600001969093B3028093B20208951F920F9255
:101670000FB60F9211240BB60F922F933F934F93F7
:101680005F936F937F938F939F93AF93BF93EF93EA
:10169000FF938091B900887F803609F49CC068F57B
:1016A000883209F45BC090F4803109F454C038F4F6
:1016B000882309F4F6C0883009F44DC0F6C088319B
:1016C00009F44CC0803209F45DC0EFC0803409F4E5
:1016D00068C048F4803309F455C0883309F0E5C088
:1016E0008093E902D8C0803509F44FC0883509F4E9
:1016F0005DC0883409F0D9C0D6C0883909F4C7C0A4
:10170000A8F4883709F467C038F4883609F463C050
:10171000803709F460C0C9C0883809F4B8C080397E
:1017200009F45FC0803809F0C0C05BC0803B09F499
:1017300086C038F4803A09F466C0883A09F47FC05C
:10174000B4C0803C09F4A7C0883C09F4A4C0883B1D
:1017500009F48AC0AAC08091E60210C09091E80204
:101760008091E702981770F5E091E80281E08E0F12
:101770008093E802F0E0EB53FD4F80818093BB0043
:1017800085EC86C08093E9028EC0E091E80281E09A
:101790008E0F8093E8028091BB00F0E0EB53FD4F89
:1017A00080839091E8028091E7026EC0E091E802A8
:1017B00081E08E0F8093E8028091BB00F0E0EB5354
:1017C000FD4F80838091EA0281116DC081E080939A
:1017D000E50284EA61C083E08093EB021092CD07BA
:1017E000CFCF8091CD07803208F051C0E091CD0776
:1017F00081E08E0F8093CD078091BB00F0E0E35530
:10180000F84F8083BDCF85EC8093BC001092EB0233
:101810008091CD07803230F4E091CD07F0E0E355C0
:10182000F84F10826091CD0770E0E091AB07F09126
:10183000AC078DEA97E019951092CD0736C084E089
:101840008093EB021092AA071092A907E091A707D4
:10185000F091A80719958091A907811105C081E031
:101860008093A90710928707E091AA0781E08E0F65
:101870008093AA07F0E0E957F84F80818093BB007E
:101880009091AA078091A907981708F479CF85E865
:101890008093BC000AC085EC8093BC001092EB02E0
:1018A00004C01092E9020E946B0AFF91EF91BF9170
:1018B000AF919F918F917F916F915F914F913F91E8
:1018C0002F910F900BBE0F900FBE0F901F90189589
:1018D0001092EB0281E08093EA021092E50261E04F
:1018E00084E10E94E90361E085E10E94E903E9EBFC
:1018F000F0E080818E7F808380818D7F808388E48B
:101900008093B80085E48093BC00089520910E0375
:1019100090911003213208F04AC08091EB028111AE
:10192000FCCF32E03093EB0231E03093EA023FEF3C
:101930003093E9021092E8022093E702A7E6B7E0AD
:1019400045EC52E0FA013E2F341B321718F43D915A
:101950003193F9CF1092E6022091E602990F922B73
:101960009093E6029091E502913061F41092E502C5
:101970009091E6029093BB009091BC0093FDF8CF4C
:1019800095EC01C095EE9093BC009091EB029230E3
:10199000E1F39091E9029F3F79F08091E902803272
:1019A00041F08091E902803331F084E005C081E0AC
:1019B00003C082E001C083E010920F0310920E0377
:1019C000109211030895FC01248131E0309311033A
:1019D0002093100310920F0310920E038485682B3E
:1019E00089EE94E00E94F90A89EE94E00C94860C4A
:1019F0000F931F93CF938C01C62F64600E94E30C5A
:101A00006C2F6B7FC8010E94E30C83EC90E0019780
:101A1000F1F7CF911F910F9108950F931F93CF93DB
:101A2000DF938C01C62FD62FD07FD1606D2F0E94FF
:101A3000E30C6D2FC8010E94F80C80E1C89FB00133
:101A40001124C62FC1606C2FC8010E94E30C6C2FBB
:101A5000C8010E94F80C81E090E0DF91CF911F91C6
:101A60000F9108950E94B004BC01990F880B990B47
:101A70000E949F1D2CEF39EA41EA5FEB0E94961FFE
:101A800026E634EB41E156E40E94FE1D0E945B1FF6
:101A9000CB010895CF93DF93E5E6F7E0ABE5B7E040
:101AA000CDE5D7E092918291938382839E918E912E
:101AB00013969C938E93129747E0ED35F40791F7B8
:101AC00086E090E00E94320D90935E0780935D0760
:101AD00085E090E00E94320D909354078093530765
:101AE00080E090E0E3E5F7E020E030E049915991B3
:101AF000840F951F41915191240F351F47E0C73640
:101B0000D407A1F7C5E0D0E0BE010E942B1FFB0166
:101B10007093B1026093B002C901BE010E942B1FF5
:101B20007093AF026093AE02EA30F1057CF0CB0116
:101B300006968E179F076CF46730710564F081E09C
:101B400090E06F3071054CF080E007C08FEF9FEFA1
:101B500004C080E001C082E090E0DF91CF91089561
:101B6000EF92FF920F931F93CF93DF9361E08091E9
:101B700004060E94E9030E942C0380E40E943603BD
:101B80007C0182E40E9436038C0184E40E943603C7
:101B9000EC0186E40E94360329EEE21623E0F20609
:101BA0006CF0093E23E01207BCF0C93E23E0D207E7
:101BB000BCF0813223E092079CF047C028ECE2168B
:101BC000F104BCF4083C110514F5C83CD105FCF443
:101BD000883C9105E4F436C0053823E0120774F020
:101BE000C032D34094F5853F91407CF188E090E08D
:101BF0002EC02DEBE21622E0F2064CF0003213402C
:101C000024F5C039D1400CF584E090E020C020E9F3
:101C1000E21621E0F206CCF400391140B4F4C139E7
:101C200021E0D20734F0893C91057CF08CE090E013
:101C30000EC0C039D1404CF4883C910534F483E0A7
:101C400090E005C081E090E002C080E090E0DF918C
:101C5000CF911F910F91FF90EF900895CF93DF9355
:101C6000C0915107D09152070E94B00DFE01EE0FB6
:101C7000FF1FE35CF84F918380839093B5028093BC
:101C8000B4028DE397E0FC014281538102962081EA
:101C900031814217530729F01092B5021092B40215
:101CA00004C027E08D34920771F7C930D10534F4B0
:101CB0002196D0935207C093510704C01092520747
:101CC00010925107DF91CF910895CF92DF92EF925A
:101CD000FF920F931F93CF93DF936C017A018B01D7
:101CE000C0E0D0E0CE15DF0589F0D8016D918D01FF
:101CF000D601ED91FC910190F081E02DC60119957E
:101D0000892B11F47E0102C02196ECCFC701DF912F
:101D1000CF911F910F91FF90EF90DF90CF9008959A
:101D2000FC01A089B1898C91A689B78982FD0FC079
:101D30009C91818D8F5F8F73228D821749F0218D49
:101D4000DF01A20FB11D5D969C93818F08958C9148
:101D50000895FC01538D448D252F30E0842F90E0B1
:101D6000821B930B541710F0CF9608950197089596
:101D7000FC01918D828D981761F0828DDF01A80F93
:101D8000B11D5D968C91928D9F5F9F73928F90E0B5
:101D900008958FEF9FEF0895FC01918D828D981724
:101DA00031F0828DE80FF11D858D90E008958FEF61
:101DB0009FEF0895FC01918D228D892F90E0805C2A
:101DC0009F4F821B91098F739927089582E193E0B9
:101DD0000E94DA0E21E0892B09F420E0822F089579
:101DE0008FEA93E00E94DA0E21E0892B09F420E0CB
:101DF000822F08958CE494E00E94DA0E21E0892B72
:101E000009F420E0822F0895FC01848DDF01A80FE2
:101E1000B11DA35ABF4F2C91848D90E001968F7312
:101E20009927848FA689B7892C93A089B1898C9131
:101E300080648C93938D848D981306C00288F389F7
:101E4000E02D80818F7D80830895EF92FF920F9324
:101E50001F93CF93DF93EC0181E0888F9B8D8C8D56
:101E6000981305C0E889F989808185FD24C0F62E84
:101E70000B8D10E00F5F1F4F0F731127E02E8C8D1D
:101E8000E8120CC00FB607FCFACFE889F989808107
:101E900085FFF5CFCE010E94040FF1CF8B8DFE019F
:101EA000E80FF11DE35AFF4FF0820B8FEA89FB899F
:101EB0008081806207C0EE89FF896083E889F989A3
:101EC00080818064808381E090E0DF91CF911F91D9
:101ED0000F91FF90EF900895CF93DF93EC01888DE1
:101EE0008823C9F0EA89FB89808185FD05C0A8891E
:101EF000B9898C9186FD0FC00FB607FCF5CF8081A4
:101F000085FFF2CFA889B9898C9185FFEDCFCE01ED
:101F10000E94040FE7CFDF91CF91089580E090E019
:101F2000892B21F00E94FA0E811119C080E090E007
:101F3000892B41F080E090E0892B21F00E94000085
:101F4000811110C00E94F00E81110FC080E090E05E
:101F5000892B81F00E94E60E81110AC008950E942B
:101F60000000E4CF0E940000EDCF0E94CF04EECF2E
:101F70000C94000008950E9410241F920F920FB637
:101F80000F9211240BB60F922F933F934F935F93B1
:101F90006F937F938F939F93AF93BF93EF93FF9331
:101FA0008091D1079091D207A091D307B091D40727
:101FB000892B8A2B8B2B59F18091D007E091CE078A
:101FC000F091CF079081892780838091D1079091EC
:101FD000D207A091D307B091D407181619061A0694
:101FE0001B060CF056C08091D1079091D207A091AA
:101FF000D307B091D4070197A109B1098093D10704
:102000009093D207A093D307B093D40742C0809196
:102010000002E6EAF3E0E4919FEF90930002E230E1
:10202000C9F050F4EE2399F0E13081F590916F0002
:102030009D7F90936F002AC0E43019F1E0F0E53005
:1020400029F5909173009D7F909373001FC01092AB
:102050006E001CC0909170009D7F9093700091E085
:102060009093B0009091B100987F94609093B100EC
:102070001092B3000BC0909171009D7F90937100FE
:1020800005C0909172009D7F9093720060E00E9465
:10209000E903FF91EF91BF91AF919F918F917F9154
:1020A0006F915F914F913F912F910F900BBE0F90C9
:1020B0000FBE0F901F9018951F920F920FB60F92A0
:1020C00011240BB60F922F933F934F935F936F930F
:1020D0007F938F939F93AF93BF93EF93FF9382E18F
:1020E00093E00E94040FFF91EF91BF91AF919F91F8
:1020F0008F917F916F915F914F913F912F910F90B1
:102100000BBE0F900FBE0F901F9018951F920F924D
:102110000FB60F9211240BB60F922F933F934F934C
:102120005F936F937F938F939F93AF93BF93EF933F
:10213000FF9382E193E00E94900EFF91EF91BF9197
:10214000AF919F918F917F916F915F914F913F914F
:102150002F910F900BBE0F900FBE0F901F901895F0
:102160001F920F920FB60F9211240BB60F922F935E
:102170003F934F935F936F937F938F939F93AF930F
:10218000BF93EF93FF938FEA93E00E94040FFF91B8
:10219000EF91BF91AF919F918F917F916F915F91DF
:1021A0004F913F912F910F900BBE0F900FBE0F904C
:1021B0001F9018951F920F920FB60F9211240BB615
:1021C0000F922F933F934F935F936F937F938F93D0
:1021D0009F93AF93BF93EF93FF938FEA93E00E9497
:1021E000900EFF91EF91BF91AF919F918F917F9151
:1021F0006F915F914F913F912F910F900BBE0F9078
:102200000FBE0F901F9018951F920F920FB60F924E
:1022100011240BB60F922F933F934F935F936F93BD
:102220007F938F939F93AF93BF93EF93FF938CE430
:1022300094E00E94040FFF91EF91BF91AF919F91A5
:102240008F917F916F915F914F913F912F910F905F
:102250000BBE0F900FBE0F901F9018951F920F92FC
:102260000FB60F9211240BB60F922F933F934F93FB
:102270005F936F937F938F939F93AF93BF93EF93EE
:10228000FF938CE494E00E94900EFF91EF91BF9138
:10229000AF919F918F917F916F915F914F913F91FE
:1022A0002F910F900BBE0F900FBE0F901F9018959F
:1022B0001F920F920FB60F9211240BB60F922F930D
:1022C0003F934F935F936F937F938F939F93AF93BE
:1022D000BF93EF93FF938091F6040E94C003209177
:1022E000FA043091FB042F5F3F4F3093FB0420939F
:1022F000FA049091F904953618F096E09093F5045D
:102300009091F5049430C9F128F4923069F093303B
:10231000D1F05EC0953009F451C0963009F058C034
:1023200091E09093C60551C0811152C02091FA04EA
:102330003091FB042436310508F442C01092C605E2
:102340001092F9041CC0813009F042C0E091F904F8
:1023500091E09E0F9093F904F0E02091FA043091FF
:10236000FB04EE0FFF1FEB50FB4F308727831092CB
:10237000FB041092FA0494E029C0811117C0E09187
:10238000F90491E09E0F9093F904F0E02091FA0493
:102390003091FB04EE0FFF1FEB50FB4F308727837C
:1023A0001092FB041092FA0493E010C02091FA04FA
:1023B0003091FB042536310558F007C0811108C063
:1023C0001092FB041092FA0403C095E09093F50478
:1023D0009091F8049923B9F081110AC08091F70413
:1023E000882321F08091F70461E009C02F9A0BC087
:1023F0008091F704882331F08091F70460E00E9417
:10240000E90301C02F98FF91EF91BF91AF919F9188
:102410008F917F916F915F914F913F912F910F908D
:102420000BBE0F900FBE0F901F9018958F929F922A
:10243000AF92BF92CF92DF92EF92FF920F931F93D2
:10244000CF93DF93EC016A017B0120E030E04FE79E
:1024500053E4C701B6010E94FE1D4B015C0120E060
:1024600030E0A9010E94911F18161CF4C501B401A7
:1024700003C0C501B40190580E945B1F8B0120E08E
:1024800030E0A901C701B6010E94911F181614F48B
:1024900060E001C061E089810E94E9030F3F1105FE
:1024A00009F014F4112702C00FEF10E0C88161E0B9
:1024B0008C2F0E9419040115110509F4B1C00F3FBA
:1024C000110509F4AFC0EC2FF0E0E05AFC4FE491A5
:1024D0004E2F50E0FA013197E231F10508F09DC02E
:1024E0008827EC57FF4F8F4F0C943F1F84B58068AF
:1024F00084BD07BDA7C084B5806284BD08BDA2C0ED
:102500008091800080688093800010938900009300
:10251000880098C080918000806280938000109332
:102520008B0000938A008EC0809180008860809329
:10253000800010938D0000938C0084C08091B000C7
:1025400080688093B0000093B3007CC08091B0009D
:1025500080628093B0000093B40074C080919000BA
:1025600080688093900010939900009398006AC04F
:102570008091900080628093900010939B00009364
:102580009A0060C0809190008860809390001093C2
:102590009D0000939C0056C08091A00080688093AD
:1025A000A0008091A0008F7B8093A0001093A900D1
:1025B0000093A80047C08091A00080628093A00093
:1025C0001093AB000093AA003DC08091A0008860EA
:1025D0008093A0001093AD000093AC0033C08091B5
:1025E0002001806880932001109329010093280125
:1025F00029C08091200180628093200110932B01DB
:1026000000932A011FC080912001886080932001DF
:1026100010932D0100932C0115C00038110514F4FE
:1026200060E001C061E08C2FDF91CF911F910F918D
:10263000FF90EF90DF90CF90BF90AF909F908F90E2
:102640000C94E903DF91CF911F910F91FF90EF90D0
:10265000DF90CF90BF90AF909F908F900895CF92D2
:10266000DF92EF92FF92CF93DF93FC01C081CC30D9
:1026700008F064C0D0E085E08C9FF0018D9FF00DE4
:102680001124E953FA4F838128E830E06901C81A20
:10269000D10887FDD394CC0CDD1CCC0CDD1C683C30
:1026A00071053CF50D2C000CEE08FF08848128E52F
:1026B00032E0281B310987FD3395220F331F220F8B
:1026C000331FC901330FAA0BBB0B9C01AD012C19A1
:1026D0003D094E095F09DB010E94E61E24EB30E054
:1026E00040E050E00E94BC1EC20ED31EE41EF51E48
:1026F00013C06C157D0584F0848128E532E0690102
:10270000C81AD10887FDD394CC0CDD1CCC0CDD1C81
:102710006C157D050CF46B018FB7F89495E09C9FC8
:10272000F0019D9FF00D1124E953FA4F96E0C91A6C
:10273000D108CC0CDD1CD282C1828FBFDF91CF913A
:10274000FF90EF90DF90CF9008951F920F920FB6F9
:102750000F9211240BB60F922F933F934F935F93D9
:102760006F937F938F939F93AF93BF93EF93FF9359
:102770008091D50787FF05C01092850010928400D4
:1027800016C02091D507022E000C330B8091030652
:1027900090E0281739075CF43091D50725E0320323
:1027A000F0011124E953FA4F808186FD15C0809114
:1027B000D5078F5F8093D5072091D507022E000C97
:1027C000330B8091030690E02817390794F4809129
:1027D000D5078C302CF10DC03091D5073203F001B4
:1027E0001124E953FA4F808160E08F730E94E9035E
:1027F000DECF809184009091850084349C4918F448
:1028000080E49CE905C08091840090918500049645
:1028100090938900809388008FEF8093D5072AC01A
:1028200040918400509185003091D50725E0320316
:10283000F0011124E953FA4F81819281840F951F91
:1028400090938900809388003091D5073203F0017E
:102850001124E953FA4F808186FF0CC03091D507CF
:102860003203F0011124E953FA4F808161E08F7344
:102870000E94E903FF91EF91BF91AF919F918F91DA
:102880007F916F915F914F913F912F910F900BBE70
:102890000F900FBE0F901F9018958EBD00000DB4C5
:1028A00007FEFDCF8EB50895CF93DF93EC0160E076
:1028B00088810E94E90388E90E944D1480E00E940B
:1028C0004D1480E00E944D1480E00E944D1480E081
:1028D0000E944D1461E088810E94E9038BE891E039
:1028E0000197F1F760E088810E94E90380EE0E9481
:1028F0004D1461E08881DF91CF910C94E903AF9290
:10290000BF92CF92DF92EF92FF920F931F93CF93DC
:10291000DF93CDB7DEB760970FB6F894DEBF0FBE7A
:10292000CDBF5C0160E0FC0180810E94E90380E68C
:102930000E944D148E010F5F1F4F7E01F1E1EF0EDB
:10294000F11C680180E00E944D1490E0A0E0B0E02E
:10295000F60181939193A193B1936F01EE15FF0559
:1029600089F761E0F50180810E94E90380E090E051
:10297000DC01F80141915191619171918F01BA2F60
:10298000A92F982F8827840F951FA61FB71FEE1514
:10299000FF0579F79C01AD0166277727CB01621B04
:1029A000730B840B950B60960FB6F894DEBF0FBEC9
:1029B000CDBFDF91CF911F910F91FF90EF90DF90EE
:1029C000CF90BF90AF9008953FB7F8948091DB0708
:1029D0009091DC07A091DD07B091DE0726B5A89B9A
:1029E00005C02F3F19F00196A11DB11D3FBFBA2FA1
:1029F000A92F982F8827820F911DA11DB11DBC0101
:102A0000CD0142E0660F771F881F991F4A95D1F7C5
:102A100008958F929F92AF92BF92CF92DF92EF92E2
:102A2000FF926B017C010E94E4144B015C01C11414
:102A3000D104E104F104F1F00E94E414DC01CB01C3
:102A400088199909AA09BB09883E9340A105B105D7
:102A500070F321E0C21AD108E108F10888EE880E6F
:102A600083E0981EA11CB11CC114D104E104F1043F
:102A700019F7DDCFFF90EF90DF90CF90BF90AF9030
:102A80009F908F9008951F920F920FB60F9211246E
:102A90002F933F938F939F93AF93BF938091D607CC
:102AA0009091D707A091D807B091D9073091DA0754
:102AB00023E0230F2D3720F40196A11DB11D05C081
:102AC00026E8230F0296A11DB11D2093DA078093FB
:102AD000D6079093D707A093D807B093D9078091D2
:102AE000DB079091DC07A091DD07B091DE0701962E
:102AF000A11DB11D8093DB079093DC07A093DD0738
:102B0000B093DE07BF91AF919F918F913F912F912D
:102B10000F900FBE0F901F901895789484B5826027
:102B200084BD84B5816084BD85B5826085BD85B571
:102B3000816085BD80916E00816080936E001092EF
:102B4000810080918100826080938100809181006A
:102B500081608093810080918000816080938000FB
:102B60008091B10084608093B1008091B000816059
:102B70008093B00080919100826080939100809159
:102B8000910081608093910080919000816080939A
:102B900090008091A10082608093A1008091A100AB
:102BA00081608093A1008091A00081608093A0004B
:102BB00080912101826080932101809121018160B7
:102BC0008093210180912001816080932001809178
:102BD0007A00846080937A0080917A00826080938A
:102BE0007A0080917A00816080937A0080917A00E7
:102BF000806880937A001092C1000E94C00261E058
:102C00008091E0060E94190460E08091E0060E9435
:102C1000E90360E08091DF060E94190489EE94E0E8
:102C20009093EA068093E9061092ED021092EC026E
:102C300010920F0310920E030E94680C80E090E146
:102C4000A0E0B0E08093EC069093ED06A093EE0632
:102C5000B093EF068AE090E0A0E0B0E08093F00649
:102C60009093F106A093F206B093F30680E090E013
:102C7000A0E0B0E48093F4069093F506A093F606E6
:102C8000B093F70660E070E185E00E9457036FE9BA
:102C900079E380E00E945703CCEFD6E0C12CD12C21
:102CA000E12CF12C69E0462E63E0562E7FE4872E5E
:102CB00073E0972EEBECAE2EE7E0BE2EC7018152FB
:102CC000994F3C01DC0114969C91149712968C91BB
:102CD00086010152194FF801818F928F61E00E94A5
:102CE000190461E0D8015A968C910E941904F301ED
:102CF000908586818883D8015E969C9361E00E94CE
:102D0000190460E0F801868D0E94190461E0888151
:102D10000E94E9031FB7F8948091BA02811125C07F
:102D2000F2018491F4019491E82FF0E0EE0FFF1F7F
:102D3000EA57FD4FA591B4918C91982321F461E05D
:102D400085E30E94E90361E085E30E9419048CB5E4
:102D500080618CBD8CB580648CBD61E084E30E9491
:102D6000190461E083E30E9419048091BA028F5F25
:102D70008093BA021FBFC5010197F1F760E0888117
:102D80000E94E90388E80E944D1483E00E944D14DC
:102D900061E088810E94E903C5010197F1F7CE0146
:102DA0000E945414F2E0CF0ED11C2296EA94EF2830
:102DB00021F0EE24E394F12C81CFC4E0D7E01C2F66
:102DC0001C5F60E089910E9419041C13FACF03E193
:102DD00017E0CEE0D7E0FC2EF394F394FE01369793
:102DE000608170E0CE0102960E9455049991FE0127
:102DF00033978081F80131978083D8019C9360E0FC
:102E00000E94190461E0F80180810E94190460E0C9
:102E1000D8018C910E94E9030E5F1F4FFC12DECF98
:102E2000F89410922001D9E0D093210180E293E040
:102E3000909329018093280110922501109224017A
:102E4000C2E0C09373007894C093F5041092F90423
:102E50008091F60460E00E9419048CEF96E00E94D5
:102E600054148EEF96E00E9454140E94C0026091A8
:102E7000090770E081E197E00E9455040E94D204A6
:102E80000E94C00289E392E00E94020361E0809107
:102E900004060E9419041092ED021092EC021092A6
:102EA0000F0310920E030E94680C61E070E080E056
:102EB00090E00E940915D0930606D0930706C093B0
:102EC000080685E08093090680E098E090930B0661
:102ED00080930A0690930D0680930C0690930F063C
:102EE00080930E06909311068093100666E089E0A9
:102EF0000E94E8028091070667E08F700E94E80256
:102F00008091080668E08F700E94E80280910906AF
:102F100069E08F700E94E8026AE080910A060E94D0
:102F2000E80280910A0690910B069F716BE0892F51
:102F30000E94E8026EE080910E060E94E8028091F5
:102F40000E0690910F069F716FE0892F0E94E80294
:102F50006CE080910C060E94E80280910C06909132
:102F60000D069F716DE0892F0E94E80260E180915B
:102F700010060E94E80280911006909111069F7140
:102F800061E1892F0E94E80261E0809104060E94BD
:102F9000E90362E070E080E090E00E940915E12C16
:102FA000F12CC12C30E1D32EE601CE19DF09D7FD7B
:102FB0002196D595C795CE0DDF1DCE15DF05C1F144
:102FC000BE018AE090E00E941403BE018CE090E014
:102FD0000E941403BE018EE090E00E9414030E9440
:102FE0002C0380E40E94360397FD05C080E40E9414
:102FF00036038C0102C000E010E082E40E94360338
:103000008017910724F082E40E9436038C0184E447
:103010000E9436038017910724F084E40E9436034F
:103020008C01093EE3E01E0754F5083E134029F5E4
:1030300000E010E0E12C90E1F92EE701C01BD10B7C
:10304000D7FD2196D595C795C00FD11FC017D107C1
:10305000C1F0BE0180E190E00E9414030E942C03A5
:1030600086E40E943603893E23E092070CF0B2C04A
:10307000883E934009F0B0C004C07E01E6016E01B5
:1030800093CF88E8C82E83E1D82EE12CF12CC0E044
:10309000D0E000E010E066E0802F0E94E80267E0E8
:1030A0008C2F0E94E80268E08E2D0E94E8028AE0E0
:1030B0000E9436035C01BC018AE090E00E94140388
:1030C000B5018CE090E00E941403B5018EE090E021
:1030D0000E94140384E0482E512CA12CB12C812C89
:1030E000912C612C712C0E942C0380E40E943603E9
:1030F000680E791E82E40E943603880E991E84E4CD
:103100000E943603A80EB91EB1E04B1A510859F7B8
:10311000A30177FE02C04D5F5F4F559547955595CA
:103120004795940197FE02C02D5F3F4F3595279537
:1031300035952795C501B7FC039695958795959587
:103140008795F42FE52F4217530714F4F22FE32F3E
:103150006F2F7E2F77FF02C060E070E0681779075D
:103160000CF4BC01B42FA52F2417350714F4B22F8B
:10317000A32FEB2FFA2FE130A0E1FA0714F0E0E0E3
:10318000F0E18E179F070CF4FC01DB01AE1BBF0BB7
:10319000FD01CA16DB0611F16417750731F40F3013
:1031A00011051CF40F5F1F4FDEC26217730729F46D
:1031B000CF30D10514F42196D6C26817790709F0EB
:1031C000D2C2BFE0EB16F1040CF0CDC22FEFE21A31
:1031D000F20AC9C27E01E8018E012FCF8EE29EE085
:1031E00090933506809334068AE090E0A0E0B0E04A
:1031F0008093360690933706A0933806B09339062D
:103200004FEF5FEFBA0140933F0650934006609343
:1032100041067093420621E020933E063FB7F894A2
:103220008091D6079091D707A091D807B091D90780
:103230003FBFC0903606D0903706E0903806F09039
:1032400039068C0D9D1DAE1DBF1D80933A069093CF
:103250003B06A0933C06B0933D0680913F069091BB
:103260004006A0914106B091420680934306909398
:103270004406A0934506B09346068CE29BE09093EB
:1032800022068093210688EE93E0A0E0B0E08093D0
:10329000230690932406A0932506B0932606409318
:1032A0002C0650932D0660932E0670932F062093C4
:1032B0002B062FB7F8948091D6079091D707A0914D
:1032C000D807B091D9072FBF40912306509124060B
:1032D0006091250670912606840F951FA61FB71FC3
:1032E0008093270690932806A0932906B0932A0678
:1032F00080912C0690912D06A0912E06B0912F065C
:103300008093300690933106A0933206B093330633
:10331000809107070E94C003892BD1F372E0C72E6A
:10332000D12CEFE0AE2EB12C0E941A0580E00E9455
:10333000B004BC01990F880B990B0E949F1D6093EC
:10334000BD027093BE028093BF029093C00220E042
:1033500030E04FEF53E40E94911F181664F48091FF
:10336000BB029091BC0201969093BC028093BB0279
:10337000C29729F41EC01092BC021092BB02809129
:10338000B6029091B702029731F00E944A0D9093D5
:10339000B7028093B602809104070E94C003892B74
:1033A00009F0FFC08091B6029091B7020297D9F45C
:1033B000F8C040E050E0BA0188EF96E00E94161293
:1033C00040E050E060E070E88AEF96E00E9416125C
:1033D00060E177E280E090E00E9409151092B90266
:1033E0001092B802CCCF0E94D2048091B602909184
:1033F000B7028130910501F558ECE52EF12C00E083
:1034000010E020E030E040E050E068EE73E080E063
:1034100090E00E94840540E050E060E07FE388EFA8
:1034200096E00E94161240E050E060E07FEB8AEFE9
:1034300096E00E941612ACC0019619F40E94F90899
:10344000A7C00E9459090091B2021091B302C801AD
:10345000B5010E942B1F7C01892B09F099C0003116
:1034600011050CF495C08EEF96E00E9454144DECBB
:103470005CEC6CEC7EE388EF96E00E9416124DEC5B
:103480005CEC6CEC7EE38AEF96E00E9416120D5F16
:103490001F4F8EEF96E00E947F146D3E714E8F4F4E
:1034A0009F4F0CF44FC01092C4021092C3021092AE
:1034B000C2021092C10245E0842E912C86E090E079
:1034C0000E94320DEC019093B1028093B002809182
:1034D000C3029091C4028C179D0724F4D093C402B8
:1034E000C093C30285E090E00E94320D9C0190934E
:1034F000AF028093AE028091C1029091C202821706
:10350000930724F43093C2022093C102B1E08B1AD6
:103510009108A1F6C90106968C179D0734F42F3047
:1035200031051CF426970CF007C10E941A05809102
:10353000B2029091B302081719070CF0AACF8BE5DD
:1035400092E002C084E692E00E944903F092B70242
:10355000E092B602EA94EF28B9F44DEC5CEC6CEC26
:103560007EEB88EF96E00E9416124DEC5CEC6CEC62
:103570007EEB8AEF96E00E94161264E670E080E02F
:1035800090E00E94091504C01092B9021092B8028E
:103590006AE070E080E090E00E9409150E948E0FC2
:1035A000C3CE80910A078D3320F480910B078C33B2
:1035B00028F48EE392E00E94490306C06CE370E0B9
:1035C00081E197E00E942F130E944A0D892B29F474
:1035D0001092B7021092B60204C0D092B702C09205
:1035E000B6028091B4029091B5028830910539F00D
:1035F0009C01235031092230310508F093C040E08E
:1036000050E0BA0188EF96E00E94161240E050E0C8
:1036100060E070E88AEF96E00E94161268ECE62EF1
:10362000F12C00E010E020E030E040E050E068E8FD
:1036300073E180E090E00E94840564EF71E080E037
:1036400090E00E94091520E030E040E050E068E89A
:1036500073E180E090E00E94840564EF71E080E017
:1036600090E00E94091520E030E040E050E068E87A
:1036700073E180E090E00E94840564EF71E080E0F7
:1036800090E00E94091543E353E363E37FE388EF8F
:1036900096E00E94161243E353E363E37FEB8AEF65
:1036A00096E00E94161268EE73E080E090E00E94BF
:1036B00009150E94B00D019771F184E690E00E9417
:1036C000E40480E293E00E94FF040E94A1034AE91F
:1036D00059E969E17FEB88EF96E00E9416124AE90A
:1036E00059E969E17FEB8AEF96E00E94161268ECD7
:1036F00070E080E090E00E9409150E94A10388EC30
:1037000090E00E94FF040E94A1030E94D20484EF73
:1037100091E00E94E4040E94F9081092B70210920E
:10372000B60236CF0C9729F488EE93E00E94E404A9
:103730002FCF0E9459092CCF24E6E22EF12C00E075
:1037400010E020E030E040E050E068EE73E080E020
:1037500090E00E9484058FE692E00E944903EE24E7
:10376000E394F12CF3CE6F0196CC109215031092D6
:10377000140388EE93E0A0E0B0E0809316039093EA
:103780001703A0931803B09319032BE032E0309392
:1037900013032093120345E351E050931F0340931A
:1037A0001E0344E351E0509321034093200340E380
:1037B00051E0509323034093220341E351E050939F
:1037C00025034093240342E351E0509327034093A1
:1037D000260346E351E050932903409328031092B7
:1037E0002B0310922C0310922D0310922E03109293
:1037F000B2031092B1038093B3039093B403A093E8
:10380000B503B093B6033093B0032093AF0345EDF7
:1038100050E05093BC034093BB0344ED50E0509301
:10382000BE034093BD0340ED50E05093C00340936E
:10383000BF0341ED50E05093C2034093C10342EDFA
:1038400050E05093C4034093C30346ED50E05093BF
:10385000C6034093C5031092C8031092C903109287
:10386000CA031092CB0310924F0410924E0480931F
:10387000500490935104A0935204B0935304309396
:103880004D0420934C0425EC30E0309359042093F0
:10389000580424EC30E030935B0420935A0420EC6D
:1038A00030E030935D0420935C0421EC30E03093F1
:1038B0005F0420935E0422EC30E030936104209397
:1038C000600426EC30E0309363042093620410928D
:1038D00065041092660410926704109268041092B6
:1038E000EC041092EB048093ED049093EE04A0930B
:1038F000EF04B093F0048DE192E09093EA0480939A
:10390000E90486E38093000787E38093010788E357
:103910008093020789E3809303078BE18093040778
:103920008DE1809305078AE1809306078CE18093FF
:10393000070784E08093080787E0809309071092C7
:103940000A0784EB80930B0786E180930C0788E1DC
:1039500080930D0787E180930E0789E180930F071D
:10396000E0910306EC3020F08FEF8093100710C039
:1039700081E08E0F80930306E093100725E0E29F1D
:10398000F0011124E953FA4F88EB9BE09283818385
:10399000E0910306EC3020F08FEF8093110710C008
:1039A00081E08E0F80930306E093110785E0E89F86
:1039B000F0011124E953FA4F88EB9BE09283818355
:1039C0008CE08093DF0684E28093E00686E08093BB
:1039D000E10685E08093E2068FE18093E3068EE1C5
:1039E0008093E40683E28093E50682E28093E60614
:1039F00085E48093E70684E48093E80680E480937E
:103A0000EB061092F0061092F1061092F206109258
:103A1000F3061092F4061092F5061092F606109234
:103A2000F706E1E2F6E08FEF9FEFDC0112821382EE
:103A300014821582168217821086118683879487D6
:103A4000A587B6878787908BA18BB28B1286118250
:103A50001082739626E0EF3DF20741F78DE090E08B
:103A60000E94FA21FC01138212828FE292E091837C
:103A70008083118687E2848384E1828784E0838760
:103A80001486F0931E06E0931D0610921F061092F6
:103A9000200685E28093F6041092F804109217062F
:103AA00010921606109219061092180610921B0614
:103AB00010921A0661E070E080E090E00E942723F7
:103AC000009789F0909317068093160610921906B6
:103AD0001092180620911A0630911B06232BF1F440
:103AE000FC0110821BC0809116069091170600976A
:103AF00011F00E948F221092170610921606109253
:103B00001B0610921A06109219061092180682E0EF
:103B100090E09093050680930406089510921B068A
:103B200010921A0667E772E00E941E24F0CF80917F
:103B30001606909117060C948F22E89409C097FB03
:103B40003EF490958095709561957F4F8F4F9F4F74
:103B50009923A9F0F92F96E9BB279395F6958795B8
:103B600077956795B795F111F8CFFAF4BB0F11F47B
:103B700060FF1BC06F5F7F4F8F4F9F4F16C0882322
:103B800011F096E911C0772321F09EE8872F762F58
:103B900005C0662371F096E8862F70E060E02AF099
:103BA0009A95660F771F881FDAF7880F9695879585
:103BB00097F90895990F0008550FAA0BE0E8FEEF5A
:103BC00016161706E807F907C0F012161306E407E1
:103BD000F50798F0621B730B840B950B39F40A26DA
:103BE00061F0232B242B252B21F408950A2609F4B8
:103BF000A140A6958FEF811D811D08950E94111E81
:103C00000C94821E0E94741E38F00E947B1E20F0CD
:103C1000952311F00C946B1E0C94711E11240C94BE
:103C2000B61E0E94931E70F3959FC1F3950F50E04E
:103C3000551F629FF001729FBB27F00DB11D639F5E
:103C4000AA27F00DB11DAA1F649F6627B00DA11D04
:103C5000661F829F2227B00DA11D621F739FB00DAA
:103C6000A11D621F839FA00D611D221F749F33271A
:103C7000A00D611D231F849F600D211D822F762FB3
:103C80006A2F11249F5750409AF0F1F088234AF090
:103C9000EE0FFF1FBB1F661F771F881F91505040FC
:103CA000A9F79E3F510580F00C946B1E0C94B61E34
:103CB0005F3FE4F3983ED4F3869577956795B79583
:103CC000F795E7959F5FC1F7FE2B880F911D96959D
:103CD000879597F9089597F99F6780E870E060E00D
:103CE00008959FEF80EC089500240A941616170695
:103CF00018060906089500240A94121613061406DD
:103D000005060895092E0394000C11F4882352F03F
:103D1000BB0F40F4BF2B11F460FF04C06F5F7F4FF7
:103D20008F4F9F4F089557FD9058440F551F59F0DE
:103D30005F3F71F04795880F97FB991F61F09F3F98
:103D400079F087950895121613061406551FF2CFC1
:103D50004695F1DF08C0161617061806991FF1CF11
:103D600086957105610508940895E894BB27662738
:103D70007727CB0197F90895052E97FB1EF4009441
:103D80000E94D31E57FD07D00E94EE1E07FC03D0F1
:103D90004EF40C94D31E50954095309521953F4F8D
:103DA0004F4F5F4F089590958095709561957F4F27
:103DB0008F4F9F4F08950E94101FA59F900DB49F95
:103DC000900DA49F800D911D11240895B7FF0C94B0
:103DD000DB1E0E94DB1E821B930B0895A1E21A2EAC
:103DE000AA1BBB1BFD010DC0AA1FBB1FEE1FFF1F9F
:103DF000A217B307E407F50720F0A21BB30BE40BEF
:103E0000F50B661F771F881F991F1A9469F7609535
:103E10007095809590959B01AC01BD01CF010895EF
:103E2000A29FB001B39FC001A39F700D811D1124FB
:103E3000911DB29F700D811D1124911D0895991B34
:103E400079E004C0991F961708F0961B881F7A9591
:103E5000C9F78095089597FB072E16F4009407D0B4
:103E600077FD09D00E94471F07FC05D03EF49095CE
:103E700081959F4F0895709561957F4F0895EE0F3E
:103E8000FF1F881F8BBF0790F691E02D1994AA1B86
:103E9000BB1B51E107C0AA1FBB1FA617B70710F035
:103EA000A61BB70B881F991F5A95A9F78095909567
:103EB000BC01CD0108950E94621F6894B1110C9459
:103EC000B61E08950E949B1E88F09F5798F0B92F48
:103ED0009927B751B0F0E1F0660F771F881F991F3F
:103EE0001AF0BA95C9F714C0B13091F00E94B51E0E
:103EF000B1E008950C94B51E672F782F8827B85F1E
:103F000039F0B93FCCF3869577956795B395D9F796
:103F10003EF490958095709561957F4F8F4F9F4FA0
:103F200008950E94DA1D08F48FEF0895FA01EE0F4C
:103F3000FF1F309621053105A1F16115710561F46E
:103F40008038BFE39B0749F168949038810561F0A0
:103F50008038BFEF9B0741F099234AF5FF3FE10509
:103F60003105210519F1E8940894E795D901AA23B0
:103F700029F4AB2FBE2FF85FD0F310C0FF5F70F4B1
:103F8000A695E0F7F73950F019F0FF3A38F49F772B
:103F90009F930DD00F9007FC9058089546F00C9415
:103FA000711E60E070E080E89FE308954FE79F771F
:103FB0005F934F933F932F930E9491202F913F91B6
:103FC0004F915F910E94FE1D0C94EE1F29F416F094
:103FD0000C946B1E0C94B51E0C94711E0E949B1EBB
:103FE000A8F39638A0F707F80F92E8942BE33AEA83
:103FF00048EB5FE70E94141E0F920F920F924DB78D
:104000005EB70F920E94D920ECE2F1E00E942020DE
:104010004F915F91EF91FF91E595EE1FFF1F49F0E2
:10402000FE57E0684427EE0F441FFA95E1F74195EB
:10403000550B0E9453200F9007FE0C9447200895C3
:10404000DF93CF931F930F93FF92EF92DF927B0149
:104050008C01689406C0DA2EEF010E94111EFE0149
:10406000E894A5912591359145915591A6F3EF01DD
:104070000E942521FE019701A801DA9469F7DF90DB
:10408000EF90FF900F911F91CF91DF9108959B01C9
:10409000AC0160E070E080E89FE30C947A210C941E
:1040A0006B1E0C94EC210E949B1ED8F39923C9F33C
:1040B000940F511DA3F39150504094F059F0882370
:1040C00032F0660F771F881F91505040C1F79E3F16
:1040D00051052CF7880F911D9695879597F90895AE
:1040E0005F3FACF0983E9CF0BB278695779567952F
:1040F000B79508F4B1609395C1F7BB0F58F711F469
:1041000060FFE8CF6F5F7F4F8F4F9F4FE3CF0C94DF
:10411000B61E16F00C94EC210C94711E68940C944D
:104120006B1E0E949B1EA8F39923C1F3AEF3DF938D
:10413000CF931F930F93FF92C92FDD2788232AF077
:104140002197660F771F881FDAF720E030E040E8FC
:104150005FEB9FE3883920F0803E38F021968F771F
:104160000E940E21E4E5F1E004C00E940E21E1E886
:10417000F1E00E9420208B01BE01EC01FB2E6F5765
:1041800071097595771F880B990B0E949F1D28E177
:1041900032E741E35FE30E94111EAF2D9801AE01AB
:1041A000FF900F911F91CF91DF910E9425210C94D8
:1041B000821EFA01DC01AA0FBB1F9B01AC01BF5795
:1041C00028F4222733274427507820C0B75190F491
:1041D000AB2F0024469537952795011CA395D2F364
:1041E000002071F0220F331F441FB395DAF30ED075
:1041F0000C940D2161307105A0E88A07B94630F4AE
:104200009B01AC016627772788279078309621F0AC
:10421000208331834283538308955058BB27AA27B4
:104220000E9425210C94821E0E94741E38F00E9468
:104230007B1E20F039F49F3F19F426F40C94711E74
:104240000EF4E095E7FB0C946B1EE92F0E94931E81
:1042500058F3BA17620773078407950720F079F4BB
:10426000A6F50C94B51E0EF4E0950B2EBA2FA02DDA
:104270000B01B90190010C01CA01A0011124FF2713
:10428000591B99F0593F50F4503E68F11A16F0400E
:10429000A22F232F342F4427585FF3CF469537950D
:1042A0002795A795F0405395C9F77EF41F16BA0BD2
:1042B000620B730B840BBAF09150A1F0FF0FBB1F80
:1042C000661F771F881FC2F70EC0BA0F621F731FC9
:1042D000841F48F4879577956795B795F7959E3F26
:1042E00008F0B0CF9395880F08F09927EE0F9795B7
:1042F000879508950E948E210C94821E0E947B1E39
:1043000058F00E94741E40F029F45F3F29F00C948D
:104310006B1E51110C94B61E0C94711E0E94931EBC
:1043200068F39923B1F3552391F3951B550BBB27E4
:10433000AA2762177307840738F09F5F5F4F220F29
:10434000331F441FAA1FA9F335D00E2E3AF0E0E820
:1043500032D091505040E695001CCAF72BD0FE2F6A
:1043600029D0660F771F881FBB1F261737074807FE
:10437000AB07B0E809F0BB0B802DBF01FF279358B6
:104380005F4F3AF09E3F510578F00C946B1E0C94F1
:10439000B61E5F3FE4F3983ED4F386957795679514
:1043A000B795F7959F5FC9F7880F911D96958795EB
:1043B00097F90895E1E0660F771F881FBB1F62170A
:1043C00073078407BA0720F0621B730B840BBA0BC8
:1043D000EE1F88F7E09508959F3F31F0915020F44B
:1043E000879577956795B795880F911D96958795D1
:1043F00097F90895CF93DF938230910510F482E00E
:1044000090E0E091E107F091E20720E030E0C0E0C9
:10441000D0E0309711F14081518148175907C0F021
:104420004817590761F482819381209719F09B8383
:104430008A832BC09093E2078093E10726C0211561
:10444000310519F04217530718F49A01BE01DF0134
:10445000EF010280F381E02DDCCF2115310509F158
:10446000281B390B2430310590F412968D919C91C4
:1044700013976115710521F0FB019383828304C0BA
:104480009093E2078093E107FD01329644C0FD015D
:10449000E20FF31F81939193225031092D933C93A6
:1044A0003AC02091DF073091E007232B41F420919F
:1044B0000302309104023093E0072093DF0720913C
:1044C0000102309102022115310541F42DB73EB7AA
:1044D0004091050250910602241B350BE091DF0745
:1044E000F091E007E217F307A0F42E1B3F0B28170B
:1044F000390778F0AC014E5F5F4F2417350748F05D
:104500004E0F5F1F5093E0074093DF078193919315
:1045100002C0E0E0F0E0CF01DF91CF9108950F936A
:104520001F93CF93DF93009709F48CC0FC0132975F
:10453000138212820091E1071091E2070115110523
:1045400081F420813181820F931F2091DF07309108
:10455000E0072817390779F5F093E007E093DF07C4
:1045600071C0D80140E050E0AE17BF0750F412967A
:104570002D913C911397AD012115310509F1D90118
:10458000F3CF9D01DA013383228360817181860F2D
:10459000971F8217930769F4EC0128813981260F50
:1045A000371F2E5F3F4F318320838A819B81938306
:1045B0008283452B29F4F093E207E093E10742C0A0
:1045C0001396FC93EE931297ED01499159919E0138
:1045D000240F351FE217F30771F480819181840F56
:1045E000951F029611969C938E93828193811396C8
:1045F0009C938E931297E0E0F0E0D80112968D9193
:104600009C911397009719F0F8018C01F6CF8D91CA
:104610009C9198012E5F3F4F820F931F2091DF07DF
:104620003091E0072817390769F4309729F4109280
:10463000E2071092E10702C0138212821093E00792
:104640000093DF07DF91CF911F910F9108956F9233
:104650007F928F929F92AF92BF92CF92DF92EF9212
:10466000FF920F931F93CF93DF93EC01009789F490
:10467000CB01DF91CF911F910F91FF90EF90DF90D1
:10468000CF90BF90AF909F908F907F906F900C9441
:10469000FA21FC01E60FF71F9C0122503109E217B5
:1046A000F30708F4ACC0D9010D911C9111970617BE
:1046B0001707B0F00530110508F49FC0C801049732
:1046C0008617970708F499C002501109061B170BAB
:1046D000019311936D937C93CF010E948F228DC023
:1046E0005B01A01AB10A4C01800E911EA091E10756
:1046F000B091E20740E050E0E12CF12C109709F472
:104700004AC0A815B905D1F56D907C901197630149
:1047100082E0C80ED11CCA14DB0480F1A3014A193F
:104720005B096A0182E0C80ED11C1296BC901297F8
:104730001396AC91B5E0CB16D10440F0B282A383BE
:1047400051834083D9016D937C930AC00E5F1F4F44
:10475000C301800F911FF90191838083EB2DFA2F04
:10476000E114F10431F0D7011396FC93EE93129704
:1047700044C0F093E207E093E1073FC08D919C9124
:1047800011974817590708F4AC017D0112960D9056
:10479000BC91A02DB3CF8091DF079091E0078815E1
:1047A0009905E1F446175707C8F4809101029091EA
:1047B0000202009741F48DB79EB7409105025091D7
:1047C0000602841B950BE817F907C8F4F093E0077D
:1047D000E093DF07F901718360830FC0CB010E9472
:1047E000FA217C01009759F0A801BE010E9415240E
:1047F000CE010E948F22C70104C0CE0102C080E01A
:1048000090E0DF91CF911F910F91FF90EF90DF909B
:10481000CF90BF90AF909F908F907F906F900895B2
:1048200081E090E0F8940C942524FB01DC0102C0A7
:1048300001900D9241505040D8F70895FB01DC01E2
:1048400001900D920020E1F7089511E0C5EDD1E04F
:1048500000E006C0802FFE010E943F1F2196011D2F
:0E486000C63DD10780E00807A9F7F894FFCF06
:10486E00FF0000E307200000000000250F650EA9E1
:10487E000E6C0FDA0EB80ECC0E00000000F90AC94D
:10488E000A290B9D0AC10AAD0A9E0A000000000DFE
:10489E000D650E290B280B0200696E6974005365B5
:1048AE0072766F20616E676C65206973206F757408
:1048BE00206F662072616E6765210054454D50531E
:1048CE004D415800454E434F4445524D41580042CC
:1048DE00414C4C45000D0A00666C6970466C6F7059
:1048EE00203D203100666C6970466C6F70203D2053
:1048FE002D3200666C6970466C6F70203D202D3134
:0E490E0000666C6970466C6F70203D203200B0
:00000001FF
