:100000000C9491010C94C2010C94C2010C94C20195
:100010000C94C2010C94C2010C94C2010C94C20154
:100020000C94C2010C942C110C942C110C942C11D6
:100030000C94C2010C942B090C94C2010C94C201C3
:100040000C94C2010C94190E0C94C2010C94C201C0
:100050000C94C2010C94C2010C94C2010C94E108EE
:100060000C94C2010C94180C0C94EE0B0C94C2016D
:100070000C94C2010C94C2010C94C2010C94C201F4
:100080000C94C2010C94C2010C94C2010C94C201E4
:100090000C94C2010C94C2010C94C2010C94361150
:1000A0000C94C2010C94C2010C94C2010C94C201C4
:1000B0000C94C2010C94C2010C94C2010C94420C29
:1000C0000C94C2010C94C2010C94C2010C94C40B98
:1000D0000C949A0B0C94C2010C94700B0C94460B6C
:1000E0000C94C201600D650D6A0D740D7E0DF70D47
:1000F000880D900D980DA20DAC0DB60DC50DCF0D50
:10010000F70DD90DE30DED0D2A102D101C10201048
:1001100026106410311035103B103F104310491069
:100120004D105110641057105B105F100C94B00FFD
:100130000C948F080C94F2090C944D100C94FA183E
:100140000C94C50D0C94F4180C94980D0C94351067
:100150000C94650D0C94ED0D0C94060A0C948B0F09
:100160000C943F100C945F100C941C100C94A80F6E
:100170000C94E30D0C94D90D0C94E3090C943B10F2
:100180000C945F0A0C94F60A0C9431100C946A0DCE
:100190000C94900D0C94210B0C94880D0C942D1044
:1001A0000C948A0F0C94A20D0C945B100C94A60A6C
:1001B0000C9464100C94E00F0C947E0D0C9457106A
:1001C0000C9449100C94CF0D0C94F70D0C942A103C
:1001D0000C94990F0C9451100C9420100C94B60DA3
:1001E0000C94140A0C94AC0D0C94F50A0C94261083
:1001F0000C94740D0C94600D0C94431002000021BB
:1002000000240027002A002D0030003300010100E7
:1002100000040107010A0100002200250028002B2C
:10022000002E003100340002010000050108010B1E
:1002300001000020002300260029002C002F00329E
:10024000000001000003010601090105050505077D
:100250000508080808020202020A0A080804040441
:10026000040101010101010101030303030303036D
:1002700003040707070C0C0C0C0C0C0C0C020202FC
:100280000206060606060606060B0B0B0B0B0B0BEF
:100290000B0102102020080810204010204080028E
:1002A00001020108040201010204081020408080BC
:1002B0004020100804020180040201804020100840
:1002C0000402010804020101020408102040800118
:1002D0000204081020408000000A0B02090C0D0ED9
:1002E00008070304010000000000000000000000F7
:1002F00000000000000000000000000000000000FE
:1003000000000012111000000000000000000000BA
:100310000000000000000000000000000000FA18CB
:10032000F41811241FBECFEFD1E2DEBFCDBF00E035
:100330000CBF13E0A0E0B2E0EAE6FFE300E00BBF91
:1003400002C007900D92A232B107D9F727E0A2E2CE
:10035000B3E001C01D92A53EB207E1F711E0C0E98C
:10036000D1E000E006C021970109802FFE010E9424
:10037000511CCF38D10780E00807A9F70E94AD14BF
:100380000C94A31F0C940000E0E0F0E019948F920D
:100390009F92AF92BF92CF92DF92EF92FF927C0139
:1003A00087EC97E00E94C80E89EC97E00E94C80E87
:1003B000F7FE03C08FEF9FEF02C081E090E08E9DBB
:1003C00040018F9D900C9E9D900C1124092C000CD7
:1003D000AA08BB086C01990FEE08FF0887EC97E0AC
:1003E0000E94F30E9B01AC0188279927DC01821B38
:1003F000930BA40BB50B8093430390934403A093FA
:100400004503B093460389EC97E00E94F30E609396
:100410003F0370934003809341039093420340E075
:1004200050E0BA0183EC97E00E94000DC701B601CD
:100430000E94DC1A2DEC3CEC4CEC5DE30E943B1B73
:10044000AB01BC01705885EC97E00E94000D6091F3
:100450003F03709140038091410390914203A701B3
:1004600096010E94351C681579058A059B050CF4D8
:10047000B5CF40E050E0BA0183EC97E00E94000D58
:1004800040E050E060E070E885EC97E00E94000DED
:1004900080913F0390914003FF90EF90DF90CF90C9
:1004A000BF90AF909F908F9008958F929F92AF9240
:1004B000BF92CF92DF92EF92FF927C0187EC97E0A0
:1004C0000E94C80E89EC97E00E94C80EF7FE03C098
:1004D0008FEF9FEF02C081E090E08E9D40018F9DE5
:1004E000900C9E9D900C1124092C000CAA08BB08AE
:1004F0006C01990FEE08FF0887EC97E00E94F30E5D
:100500009B01AC0188279927DC01821B930BA40B6C
:10051000B50B8093430390934403A0934503B0939A
:10052000460389EC97E00E94F30E60933F037093BB
:1005300040038093410390934203C701B6010E9498
:10054000DC1A2DEC3CEC4CEC5DE30E943B1BAB0158
:10055000BC0183EC97E00E94000D40E050E060E0B9
:1005600070E885EC97E00E94000D60914303709164
:1005700044038091450390914603A70196010E9490
:10058000351C681579058A059B050CF4B5CF40E04C
:1005900050E0BA0183EC97E00E94000D40E050E08B
:1005A00060E070E885EC97E00E94000D80914303C5
:1005B00090914403FF90EF90DF90CF90BF90AF9069
:1005C0009F908F9008954F925F926F927F928F923B
:1005D0009F92AF92BF92CF92DF92EF92FF92CF9312
:1005E000DF9300D01F92CDB7DEB76B017C0187ECA3
:1005F00097E00E94C80E89EC97E00E94C80E40E088
:1006000050E0BA0183EC97E00E94000D20E030E05A
:10061000A901C701B6010E94D51A87FF1EC020E0BC
:1006200030E045E755E4C701B6010E943B1B20E0DE
:1006300030E044EB52E40E94C61C0E94381D6B015E
:1006400077FF04C0CC24DD24C61AD70A0D2C000C79
:10065000EE08FF088FEF9FEF1DC020E030EF45E769
:1006600055E4C701B6010E943B1B20E030E044EB9B
:1006700052E40E94C61C0E94381D6B0177FF04C023
:10068000CC24DD24C61AD70A0D2C000CEE08FF0876
:1006900081E090E0812C912C54012C01990F660887
:1006A0007708A70196012F51334041095109298349
:1006B0003A834B835C83C301B2010E94DC1AA5011B
:1006C00094010E943B1BAB01BC0183EC97E00E94AC
:1006D000000D87EC97E00E94F30E90958095709541
:1006E00061957F4F8F4F9F4FA30192010E94351C50
:1006F00060934303709344038093450390934603B0
:1007000089EC97E00E94F30E60933F0370934003DF
:10071000809341039093420380914303909144035B
:10072000A0914503B091460329813A814B815C81B8
:1007300082179307A407B5079CF02DEC3CEC4CEC1A
:100740005DE3C501B4010E946E1D1816F4F42AE0A1
:1007500037ED43EA5CE3C501B4010E94591C12C0A5
:100760002DEC3CEC4CEC5EE3C501B4010E94D51AC3
:1007700087FF12C02AE037ED43EA5BE3C501B4010D
:100780000E945A1C4B015C0107C08DEC882E8CEC3A
:10079000982EA92C8DE3B82E6AE070E080E090E0FE
:1007A0000E94FD128091430390914403A091450360
:1007B000B09146038C159D05AE05BF050CF47BCFAB
:1007C00040E050E0BA0183EC97E00E94000D40E069
:1007D00050E060E070E885EC97E00E94000D64E670
:1007E00070E080E090E00E94FD128BE392E00E94B6
:1007F000AB14C501B4010E94651080E692E00E942E
:10080000AB14609143037091440380914503909130
:1008100046030E946F148AE692E00E94AB14C7015F
:10082000B6010E946F148BE792E00E945F138EE77F
:1008300092E00E94AB1460913F037091400380915D
:100840004103909142030E946F1488E892E00E9455
:10085000711380914303909144038C199D099093E7
:100860003E0380933D0380913F039091400390931A
:100870003C0380933B038AE992E00E94AB146091B1
:100880003D0370913E03072E000C880B990B0E94CC
:100890006F148BEA92E00E94AB1480913B0390911D
:1008A0003C030E949914E0903B03F0903C0388279E
:1008B00099278E199F090E94C7018E0D9F1D909345
:1008C0003C0380933B03E0903D03F0903E03882778
:1008D00099278E199F090E9455028E0D9F1D909396
:1008E0003E0380933D0382EB92E00E94AB14609143
:1008F0003D0370913E03072E000C880B990B0E945C
:100900006F1487EC92E00E94AB1480913B039091AE
:100910003C030F900F900F900F90DF91CF91FF90BD
:10092000EF90DF90CF90BF90AF909F908F907F908F
:100930006F905F904F900C9499144F925F926F92CA
:100940007F928F929F92AF92BF92CF92DF92EF925F
:10095000FF92CF93DF9300D01F92CDB7DEB76B012C
:100960007C0187EC97E00E94C80E89EC97E00E941A
:10097000C80E40E050E0BA0183EC97E00E94000D01
:1009800020E030E0A901C701B6010E94D51A87FF17
:100990001EC020E030E846E755E4C701B6010E94DA
:1009A0003B1B20E030E044EB52E40E94C61C0E9456
:1009B000381D6B0177FF04C0CC24DD24C61AD70A8A
:1009C0000D2C000CEE08FF088FEF9FEF1DC020E0FC
:1009D00030EE46E755E4C701B6010E943B1B20E01C
:1009E00030E044EB52E40E94C61C0E94381D6B01AB
:1009F00077FF04C0CC24DD24C61AD70A0D2C000CC6
:100A0000EE08FF0881E090E0812C912C54012C012C
:100A1000990F66087708A70196012F5133404109C5
:100A2000510929833A834B835C83C301B2010E943D
:100A3000DC1AA50194010E943B1BAB01BC0170585C
:100A400085EC97E00E94000D87EC97E00E94F30E82
:100A50009B01AC0188279927DC01821B930BA40B17
:100A6000B50B8093430390934403A0934503B09345
:100A7000460389EC97E00E94F30EA30192010E94C5
:100A8000351C60933F037093400380934103909320
:100A9000420329813A814B815C8162177307840785
:100AA00095079CF02DEC3CEC4CEC5DE3C501B401EA
:100AB0000E946E1D1816F4F42AE037ED43EA5CE359
:100AC000C501B4010E94591C12C02DEC3CEC4CEC49
:100AD0005EE3C501B4010E94D51A87FF12C02AE067
:100AE00037ED43EA5BE3C501B4010E945A1C4B0198
:100AF0005C0107C08DEC882E8CEC982EA92C8DE320
:100B0000B82E6AE070E080E090E00E94FD128091D3
:100B10003F0390914003A0914103B09142038C1593
:100B20009D05AE05BF050CF480CF40E050E0BA0152
:100B300083EC97E00E94000D40E050E060E070E838
:100B400085EC97E00E94000D64E670E080E090E0A4
:100B50000E94FD1280ED92E00E94711380E692E007
:100B60000E94AB146091430370914403809145034C
:100B7000909146030E946F148AE692E00E94AB14A3
:100B8000C701B6010E946F148BE792E00E945F13C9
:100B90008EE792E00E94AB1460913F037091400396
:100BA00080914103909142030E946F1488E892E083
:100BB0000E947113809143039091440390933E03EC
:100BC00080933D0380913F03909140038C199D09D0
:100BD00090933C0380933B038AE992E00E94AB141C
:100BE00060913D0370913E03072E000C880B990B1A
:100BF0000E946F148BEA92E00E94AB1480913B0339
:100C000090913C030E949914E0903B03F0903C03C8
:100C1000882799278E199F090E94C7018E0D9F1D55
:100C200090933C0380933B03E0903D03F0903E03A0
:100C3000882799278E199F090E9455028E0D9F1DA6
:100C400090933E0380933D0382EB92E00E94AB14AD
:100C500060913D0370913E03072E000C880B990BA9
:100C60000E946F1487EC92E00E94AB1480913B03CA
:100C700090913C030F900F900F900F90DF91CF91C8
:100C8000FF90EF90DF90CF90BF90AF909F908F90AC
:100C90007F906F905F904F900C9499142F923F9299
:100CA0004F925F926F927F928F929F92AF92BF927C
:100CB000CF92DF92EF92FF920F931F93CF93DF9328
:100CC00000D01F92CDB7DEB74B015C0120E030E0D1
:100CD000A9010E94D51A87FF03C00FEF1FEF02C0C2
:100CE00001E010E02DED38E444E053E4C501B40127
:100CF0000E943B1B0E94381D1B0177FF04C0222469
:100D00003324261A370A4101032C000CAA08BB0819
:100D100087EC97E00E94C80E89EC97E00E94C80E0D
:100D20008DEC9CECACE4BDE3809301029093020255
:100D3000A0930302B09304026801110FEE08FF08AC
:100D4000A5019401275E33404109510929833A8363
:100D50004B835C8387EC97E00E94F30E909580951F
:100D6000709561957F4F8F4F9F4FA70196010E940D
:100D7000351C609343037093440380934503909321
:100D8000460389EC97E00E94F30EA70196010E94AA
:100D9000351C0E94DC1A22E538EB4EE75FE30E9427
:100DA0003B1B0E94381D60933F0370934003809368
:100DB0004103909342030091430310914403061BA7
:100DC000170B409001025090020260900302709055
:100DD000040229813A814B815C8162177307840781
:100DE000950704F12EEA37E441EE5DE3C301B20159
:100DF0000E946E1D18164CF42DEC3CEC4CE45DE3A7
:100E0000C301B2010E94591C1FC08DEC9CECACECDC
:100E1000BDE38093010290930202A0930302B0937A
:100E200004021AC02AE939E949E15FE3C301B201CA
:100E30000E94D51A87FF10C02AE037ED43EA5BE332
:100E4000C301B2010E945A1C609301027093020216
:100E50008093030290930402C701B60117FF2BC0D1
:100E60000E94DC1A2B013C01209101023091020208
:100E700040910302509104020E943B1B26E636E695
:100E800046E85FE30E943B1BAB01BC0183EC97E0AB
:100E90000E94000D20910102309102024091030254
:100EA00050910402C301B2010E943B1B23E333E3D0
:100EB00043E75FE34BC0012B59F10E94DC1A2B0181
:100EC0003C012091010230910202409103025091B5
:100ED00004020E943B1B23E333E343E75FE30E94EA
:100EE0003B1BAB01BC0183EC97E00E94000D2091FD
:100EF0000102309102024091030250910402C301A9
:100F0000B2010E943B1B26E636E646E85FE31EC0C0
:100F10000E94DC1A2B013C01209101023091020257
:100F200040910302509104020E943B1BAB01BC01A3
:100F300083EC97E00E94000D2091010230910202A3
:100F40004091030250910402C301B2010E943B1B75
:100F5000AB01BC01705885EC97E00E94000D6AE07F
:100F600070E080E090E00E94FD1280914303909138
:100F70004403A0914503B091460388169906AA063A
:100F8000BB063CF440E050E0BA0183EC97E00E94DD
:100F9000000D80913F0390914003A0914103B091D7
:100FA000420388169906AA06BB0644F440E050E0C6
:100FB00060E070E885EC97E00E94000D40914303EB
:100FC00050914403609145037091460348155905BB
:100FD0006A057B050CF4BECE80913F0390914003DF
:100FE000A0914103B091420388159905AA05BB055C
:100FF0000CF4B0CE4219530950933E0340933D0385
:101000008219930990933C0380933B0384EE92E012
:101010000E94AB1460910102709102028091030260
:10102000909104020E9465108AE992E00E94AB143C
:1010300060913D0370913E03072E000C880B990BC5
:101040000E946F148BEA92E00E94AB1480913B03E4
:1010500090913C030E94991400913B0310913C0332
:1010600088279927801B910B0E94C701800F911F31
:1010700090933C0380933B0300913D0310913E030A
:1010800088279927801B910B0E945502800F911F82
:1010900090933E0380933D0382EB92E00E94AB1459
:1010A00060913D0370913E03072E000C880B990B55
:1010B0000E946F1487EC92E00E94AB1480913B0376
:1010C00090913C030E94991440E050E0BA0183ECF7
:1010D00097E00E94000D40E050E060E070E885EC91
:1010E00097E00E94000D64E670E080E090E00F90D1
:1010F0000F900F900F90DF91CF911F910F91FF9064
:10110000EF90DF90CF90BF90AF909F908F907F90A7
:101110006F905F904F903F902F900C94FD12CF9264
:10112000DF92EF92FF920F931F93CF93DF936C01A7
:101130007A018B01C0E0D0E0CE15DF0589F0D8013F
:101140006D918D01D601ED91FC910190F081E02D22
:10115000C6011995892B11F47E0102C02196ECCFAE
:10116000C701DF91CF911F910F91FF90EF90DF901A
:10117000CF9008950E948E1F3FB7F894809154033A
:1011800090915503A0915603B091570326B5A89BA3
:1011900005C02F3F19F00196A11DB11D3FBFBA2F09
:1011A000A92F982F8827820F911DA11DB11DBC0169
:1011B000CD0142E0660F771F881F991F4A95D1F72E
:1011C00008951F920F920FB60F9211242F933F9301
:1011D0008F939F93AF93BF9380915003909151034E
:1011E000A0915203B091530330914F0323E0230F9A
:1011F0002D3720F40196A11DB11D05C026E8230F4F
:101200000296A11DB11D20934F038093500390932C
:101210005103A0935203B0935303809154039091D0
:101220005503A0915603B09157030196A11DB11D1E
:101230008093540390935503A0935603B0935703A0
:10124000BF91AF919F918F913F912F910F900FBEC2
:101250000F901F9018951F920F920FB60F921124A6
:101260000BB60F922F933F934F935F936F937F93A0
:101270008F939F93AF93BF93EF93FF9380914A0314
:1012800090914B03A0914C03B0914D03892B8A2B75
:101290008B2B59F180914903E0914703F09148036A
:1012A00090818927808380914A0390914B03A0917C
:1012B0004C03B0914D03181619061A061B060CF0C4
:1012C00056C080914A0390914B03A0914C03B0917A
:1012D0004D030197A109B10980934A0390934B03F1
:1012E000A0934C03B0934D0342C080910002ECEFF9
:1012F000F1E0E4919FEF90930002E230C9F050F4E6
:10130000EE2399F0E13081F590916F009D7F9093ED
:101310006F002AC0E43019F1E0F0E53029F5909132
:1013200073009D7F909373001FC010926E001CC0CD
:10133000909170009D7F9093700091E09093B00029
:101340009091B100987F94609093B1001092B30097
:101350000BC0909171009D7F9093710005C090919A
:1013600072009D7F9093720060E00E949112FF9145
:10137000EF91BF91AF919F918F917F916F915F910D
:101380004F913F912F910F900BBE0F900FBE0F907A
:101390001F901895FC01A089B1898C91A689B78905
:1013A00082FD0FC09C91818D8F5F8F73228D82177C
:1013B00049F0218DDF01A20FB11D5D969C93818FB5
:1013C00008958C910895FC01538D448D252F30E0B4
:1013D000842F90E0821B930B541710F0CF96089542
:1013E00001970895FC01918D828D981761F0828D8F
:1013F000DF01A80FB11D5D968C91928D9F5F9F7349
:10140000928F90E008958FEF9FEF0895FC01918DEA
:10141000828D981731F0828DE80FF11D858D90E057
:1014200008958FEF9FEF0895FC01918D228D892FF4
:1014300090E0805C9F4F821B91098F7399270895DC
:101440008BEF93E00E94140A21E0892B09F420E03D
:10145000822F089588E994E00E94140A21E0892BE4
:1014600009F420E0822F089585E395E00E94140A94
:1014700021E0892B09F420E0822F0895FC01848D5E
:10148000DF01A80FB11DA35ABF4F2C91848D90E0AE
:1014900001968F739927848FA689B7892C93A08989
:1014A000B1898C9180648C93938D848D981306C040
:1014B0000288F389E02D80818F7D80830895EF92EB
:1014C000FF920F931F93CF93DF93EC0181E0888FFE
:1014D0009B8D8C8D981305C0E889F989808185FDE5
:1014E00024C0F62E0B8D10E00F5F1F4F0F731127D6
:1014F000E02E8C8DE8120CC00FB607FCFACFE889FD
:10150000F989808185FFF5CFCE010E943E0AF1CF97
:101510008B8DFE01E80FF11DE35AFF4FF0820B8F18
:10152000EA89FB898081806207C0EE89FF89608338
:10153000E889F98980818064808381E090E0DF918F
:10154000CF911F910F91FF90EF900895CF93DF936C
:10155000EC01888D8823C9F0EA89FB89808185FDAB
:1015600005C0A889B9898C9186FD0FC00FB607FC0C
:10157000F5CF808185FFF2CFA889B9898C9185FF4D
:10158000EDCFCE010E943E0AE7CFDF91CF910895C3
:1015900080E090E0892B21F00E94340A811119C06B
:1015A00080E090E0892B41F080E090E0892B21F0F1
:1015B0000E940000811110C00E942A0A81110FC0F0
:1015C00080E090E0892B81F00E94200A81110AC0FE
:1015D00008950E940000E4CF0E940000EDCF0E9419
:1015E000C401EECF0C9400000895089580E090E0CF
:1015F0000895FC01248131E03093CB032093ED0367
:101600001092CC031092EE038485682B8FEE93E04A
:101610000E94E00F0C947F130F931F93CF938C01C4
:10162000C62F64600E94F90A6C2F6B7FC8010E946C
:10163000F90A83EC90E00197F1F7CF911F910F9198
:1016400008950F931F93CF93DF938C01C62FD62F4E
:10165000D07FD1606D2F0E94F90A6D2FC8010E94C2
:101660000C0B80E1C89FB0011124C62FC1606C2F04
:10167000C8010E94F90A6C2FC8010E940C0B81E07E
:1016800090E0DF91CF911F910F9108951F920F92DB
:101690000FB60F9211240BB60F922F933F934F93D7
:1016A0005F936F937F938F939F93AF93BF93EF93CA
:1016B000FF938BEF93E00E943E0AFF91EF91BF9161
:1016C000AF919F918F917F916F915F914F913F91DA
:1016D0002F910F900BBE0F900FBE0F901F9018957B
:1016E0001F920F920FB60F9211240BB60F922F93E9
:1016F0003F934F935F936F937F938F939F93AF939A
:10170000BF93EF93FF938BEF93E00E94CA09FF9181
:10171000EF91BF91AF919F918F917F916F915F9169
:101720004F913F912F910F900BBE0F900FBE0F90D6
:101730001F9018951F920F920FB60F9211240BB69F
:101740000F922F933F934F935F936F937F938F935A
:101750009F93AF93BF93EF93FF9388E994E00E9428
:101760003E0AFF91EF91BF91AF919F918F917F9131
:101770006F915F914F913F912F910F900BBE0F9002
:101780000FBE0F901F9018951F920F920FB60F92D9
:1017900011240BB60F922F933F934F935F936F9348
:1017A0007F938F939F93AF93BF93EF93FF9388E9BA
:1017B00094E00E94CA09FF91EF91BF91AF919F9170
:1017C0008F917F916F915F914F913F912F910F90EA
:1017D0000BBE0F900FBE0F901F9018951F920F9287
:1017E0000FB60F9211240BB60F922F933F934F9386
:1017F0005F936F937F938F939F93AF93BF93EF9379
:10180000FF9385E395E00E943E0AFF91EF91BF911F
:10181000AF919F918F917F916F915F914F913F9188
:101820002F910F900BBE0F900FBE0F901F90189529
:101830001F920F920FB60F9211240BB60F922F9397
:101840003F934F935F936F937F938F939F93AF9348
:10185000BF93EF93FF9385E395E00E94CA09FF9140
:10186000EF91BF91AF919F918F917F916F915F9118
:101870004F913F912F910F900BBE0F900FBE0F9085
:101880001F9018951F920F920FB60F9211240BB64E
:101890000F922F933F934F935F936F937F938F9309
:1018A0009F93AF93BF93EF93FF938091D3050E94D3
:1018B00068122091D7053091D8052F5F3F4F3093A4
:1018C000D8052093D7059091D605953618F096E067
:1018D0009093D2059091D2059430C9F128F49230BA
:1018E00069F09330D1F05EC0953009F451C0963064
:1018F00009F058C091E09093A30651C0811152C0E5
:101900002091D7053091D8052436310508F442C01E
:101910001092A3061092D6051CC0813009F042C077
:10192000E091D60591E09E0F9093D605F0E02091CE
:10193000D7053091D805EE0FFF1FEE52FA4F3087D2
:1019400027831092D8051092D70594E029C0811101
:1019500017C0E091D60591E09E0F9093D605F0E078
:101960002091D7053091D805EE0FFF1FEE52FA4FA8
:10197000308727831092D8051092D70593E010C0C6
:101980002091D7053091D8052536310558F007C08C
:10199000811108C01092D8051092D70503C095E0B8
:1019A0009093D2059091D5059923B9F081110AC081
:1019B0008091D405882321F08091D40561E009C08D
:1019C0002F9A0BC08091D405882331F08091D405E3
:1019D00060E00E94911201C02F98FF91EF91BF919A
:1019E000AF919F918F917F916F915F914F913F91B7
:1019F0002F910F900BBE0F900FBE0F901F90189558
:101A00008F929F92AF92BF92CF92DF92EF92FF920E
:101A10000F931F93CF93DF93EC016A017B0120E0CA
:101A200030E04FE753E4C701B6010E943B1B4B0176
:101A30005C0120E030E0A9010E946E1D18161CF424
:101A4000C501B40103C0C501B40190580E94381DFE
:101A50008B0120E030E0A901C701B6010E946E1D94
:101A6000181614F460E001C061E089810E949112AF
:101A70000F3F110509F014F4112702C00FEF10E019
:101A8000C88161E08C2F0E94C1120115110509F473
:101A9000B1C00F3F110509F4AFC0EC2FF0E0E952DF
:101AA000FD4FE4914E2F50E0FA013197E231F105FC
:101AB00008F09DC08827EE58FF4F8F4F0C94511CA3
:101AC00084B5806884BD07BDA7C084B5806284BD2D
:101AD00008BDA2C080918000806880938000109330
:101AE00089000093880098C0809180008062809374
:101AF000800010938B0000938A008EC0809180003C
:101B000088608093800010938D0000938C0084C0C7
:101B10008091B00080688093B0000093B3007CC0D7
:101B20008091B00080628093B0000093B40074C0D4
:101B300080919000806880939000109399000093AA
:101B400098006AC08091900080628093900010930A
:101B50009B0000939A0060C0809190008860809301
:101B6000900010939D0000939C0056C08091A000AF
:101B700080688093A0008091A0008F7B8093A0005C
:101B80001093A9000093A80047C08091A000806234
:101B90008093A0001093AB000093AA003DC08091F9
:101BA000A00088608093A0001093AD000093AC006B
:101BB00033C0809120018068809320011093290117
:101BC0000093280129C08091200180628093200128
:101BD00010932B0100932A011FC08091200188607F
:101BE0008093200110932D0100932C0115C0003823
:101BF000110514F460E001C061E08C2FDF91CF91FA
:101C00001F910F91FF90EF90DF90CF90BF90AF901A
:101C10009F908F900C949112DF91CF911F910F9113
:101C2000FF90EF90DF90CF90BF90AF909F908F90FC
:101C300008951F920F920FB60F9211240BB60F92B8
:101C40002F933F934F935F936F937F938F939F93C4
:101C5000AF93BF93EF93FF938091580387FF05C025
:101C6000109285001092840016C020915803022E15
:101C7000000C330B8091E00690E0281739075CF4E4
:101C80003091580325E03203F0011124EC55F94F4F
:101C9000808186FD15C0809158038F5F8093580323
:101CA00020915803022E000C330B8091E00690E047
:101CB0002817390794F4809158038C302CF10DC00B
:101CC000309158033203F0011124EC55F94F808113
:101CD00060E08F730E949112DECF8091840090911A
:101CE000850084349C4918F480E49CE905C0809107
:101CF00084009091850004969093890080938800D9
:101D00008FEF809358032AC0409184005091850042
:101D10003091580325E03203F0011124EC55F94FBE
:101D200081819281840F951F909389008093880010
:101D3000309158033203F0011124EC55F94F8081A2
:101D400086FF0CC0309158033203F0011124EC558A
:101D5000F94F808161E08F730E949112FF91EF91A2
:101D6000BF91AF919F918F917F916F915F914F91B3
:101D70003F912F910F900BBE0F900FBE0F901F90B1
:101D800018958EBD00000DB407FEFDCF8EB50895E9
:101D9000CF93DF93EC0160E088810E94911288E983
:101DA0000E94C10E80E00E94C10E80E00E94C10E20
:101DB00080E00E94C10E80E00E94C10E61E0888137
:101DC0000E9491128BE891E00197F1F760E0888121
:101DD0000E94911280EE0E94C10E61E08881DF9125
:101DE000CF910C949112AF92BF92CF92DF92EF926B
:101DF000FF920F931F93CF93DF93CDB7DEB760971A
:101E00000FB6F894DEBF0FBECDBF5C0160E0FC01F1
:101E100080810E94911280E60E94C10E8E010F5FA8
:101E20001F4F7E01F1E1EF0EF11C680180E00E947E
:101E3000C10E90E0A0E0B0E0F60181939193A193F0
:101E4000B1936F01EE15FF0589F761E0F50180811F
:101E50000E94911280E090E0DC01F80141915191E3
:101E6000619171918F01BA2FA92F982F8827840F24
:101E7000951FA61FB71FEE15FF0579F79C01AD0151
:101E800066277727CB01621B730B840B950B60963B
:101E90000FB6F894DEBF0FBECDBFDF91CF911F917B
:101EA0000F91FF90EF90DF90CF90BF90AF9008958B
:101EB00085ED8093BC008091BC0084FDFCCF109226
:101EC000CA03089540917D03262F30E0240F311D71
:101ED00021323105DCF42091CA032430C9F4FC011D
:101EE00080E090E0861758F430917D032191DC0169
:101EF000A55ABC4FA30FB11D2C930196F3CF80912F
:101F00007D03680F60937D0380E0089581E008956C
:101F100082E00895089581E090E030915A03209185
:101F20005903321710F480E090E091958195910962
:101F3000089580915A0390915903891730F48F5F67
:101F400080935A0380E090E008958FEF9FEF08950B
:101F50008091590390E020915A03821B91090895C2
:101F6000CF92DF92EF92FF920F931F93CF93DF9365
:101F70007C01262F972F8A018091CB03882391F033
:101F8000C62FD72F6E01C40ED51ECC15DD0571F0FE
:101F90006991D701ED91FC910190F081E02DC7018D
:101FA0001995F3CF642F822F0E94620FC801DF9131
:101FB000CF911F910F91FF90EF90DF90CF900895F8
:101FC000CF93DF931F92CDB7DEB769832091CB0308
:101FD0002223D1F02091EE03203240F021E030E0C6
:101FE000FC013383228380E090E015C08091CC0314
:101FF000E82FF0E0E353FC4F998190838F5F80934B
:10200000CC038093EE0305C061E0CE0101960E94EF
:10201000620F81E090E00F90DF91CF91089590E002
:10202000FC013197E231F10508F04EC08827EC57EA
:10203000FF4F8F4F0C94511C809180008F7703C00D
:10204000809180008F7D8093800008958091800032
:10205000877FF9CF84B58F7702C084B58F7D84BD2B
:1020600008958091B0008F7703C08091B0008F7D7C
:102070008093B0000895809190008F7707C0809181
:1020800090008F7D03C080919000877F80939000A7
:1020900008958091A0008F7707C08091A0008F7D68
:1020A00003C08091A000877F8093A0000895809155
:1020B00020018F7707C0809120018F7D03C0809120
:1020C0002001877F8093200108954F925F926F9245
:1020D0007F928F929F92AF92BF92CF92DF92EF92B8
:1020E000FF926B017C019B01AC010E94731D882350
:1020F00019F086E193E01AC046015701E894B7F859
:102100002FEF3FEF4FE75FE7C501B4010E94731D5A
:10211000811110C02FEF3FEF4FE75FE7C501B4011A
:102120000E94D51A181634F48AE193E00E945F13D6
:102130007C017FC02FEF3FEF4FE75FE4C701B6019F
:102140000E946E1D18161CF48EE193E0EFCF2FEF66
:102150003FEF4FE75FECC701B6010E94D51A87FD3C
:10216000F3CF20E030E0A901C701B6010E94D51AE3
:1021700087FF09C08DE20E9464145C01F7FAF094B5
:10218000F7F8F09402C0A12CB12C2AE037ED43EA15
:102190005BE3C701B6010E945A1C2B013C010E945F
:1021A0003F1D6B017C010E94DA1A9B01AC01C30147
:1021B000B2010E94591C2B013C014AE0C701B60143
:1021C0000E9423147C01EA0CFB1C8EE20E94641422
:1021D000E80EF91E20E030E040E251E4C301B20114
:1021E0000E943B1B2B013C010E943F1D4B01A12C77
:1021F000B12C4AE0C501B4010E942314E80EF91E77
:10220000C501B4010E94DA1A9B01AC01C301B201FD
:102210000E94591C20E030E040E251E40E943B1B48
:102220000E943F1D80E090E04AE00E942314E80EE7
:10223000F91E8BE792E00E945F138E0D9F1DFF90A9
:10224000EF90DF90CF90BF90AF909F908F907F9056
:102250006F905F904F9008951F920F920FB60F925C
:1022600011240F900FBE0F901F9018951F920F9280
:102270000FB60F9211240BB60F922F933F934F93EB
:102280005F936F937F938F939F93AF93BF93EF93DE
:10229000FF938091B900887F803609F49CC068F56F
:1022A000883209F45BC090F4803109F454C038F4EA
:1022B000882309F4F6C0883009F44DC0F6C088318F
:1022C00009F44CC0803209F45DC0EFC0803409F4D9
:1022D00068C048F4803309F455C0883309F0E5C07C
:1022E0008093C803D8C0803509F44FC0883509F4FD
:1022F0005DC0883409F0D9C0D6C0883909F4C7C098
:10230000A8F4883709F467C038F4883609F463C044
:10231000803709F460C0C9C0883809F4B8C0803972
:1023200009F45FC0803809F0C0C05BC0803B09F48D
:1023300086C038F4803A09F466C0883A09F47FC050
:10234000B4C0803C09F4A7C0883C09F4A4C0883B11
:1023500009F48AC0AAC08091A50310C09091C70358
:102360008091C603981770F5E091C70381E08E0F46
:102370008093C703F0E0EA55FC4F80818093BB0057
:1023800085EC86C08093C8038EC0E091C70381E0CE
:102390008E0F8093C7038091BB00F0E0EA55FC4F9D
:1023A00080839091C7038091C6036EC0E091C703FC
:1023B00081E08E0F8093C7038091BB00F0E0EA5567
:1023C000FC4F80838091C90381116DC081E08093AF
:1023D000A40384EA61C083E08093CA031092A1033E
:1023E000CFCF8091A103803208F051C0E091A103CA
:1023F00081E08E0F8093A1038091BB00F0E0EF5746
:10240000FC4F8083BDCF85EC8093BC001092CA0343
:102410008091A103803230F4E091A103F0E0EF5706
:10242000FC4F10826091A10370E0E0917F03F09176
:10243000800381E893E019951092A10336C084E0EF
:102440008093CA0310927E0310927D03E0917B0378
:10245000F0917C03199580917D03811105C081E085
:1024600080937D0310925B03E0917E0381E08E0FE9
:1024700080937E03F0E0E55AFC4F80818093BB009F
:1024800090917E0380917D03981708F479CF85E8B9
:102490008093BC000AC085EC8093BC001092CA03F4
:1024A00004C01092C8030E94580FFF91EF91BF9192
:1024B000AF919F918F917F916F915F914F913F91DC
:1024C0002F910F900BBE0F900FBE0F901F9018957D
:1024D000CF93DF93282F30E0F901E952FD4F84912B
:1024E000F901EF56FD4FD491F901E55BFD4FC49121
:1024F000CC2391F081110E940F10EC2FF0E0EE0F31
:10250000FF1FEF5CFD4FA591B491EC91ED2381E0AD
:1025100090E021F480E002C080E090E0DF91CF9174
:1025200008951F93CF93DF93282F30E0F901E952EC
:10253000FD4F8491F901EF56FD4FD491F901E55B10
:10254000FD4FC491CC23C9F0162F81110E940F10AA
:10255000EC2FF0E0EE0FFF1FE95EFD4FA591B49167
:102560008FB7F894111105C09C91ED2FE095E923E8
:1025700002C0EC91ED2BEC938FBFDF91CF911F91B7
:102580000895CF93DF9390E0FC01EF56FD4F249127
:10259000FC01E55BFD4F8491882361F190E0880F99
:1025A000991FFC01E350FE4FC591D491FC01E95EF7
:1025B000FD4FA591B491611109C09FB7F89488812E
:1025C000209582238883EC912E230BC0623061F426
:1025D0009FB7F8943881822F809583238883EC916C
:1025E0002E2B2C939FBF06C08FB7F894E8812E2B1B
:1025F00028838FBFDF91CF9108958F929F92AF92E2
:10260000BF92CF92DF92EF92FF926B017C010E940A
:10261000BC084B015C01C114D104E104F104F1F0E8
:102620000E94BC08DC01CB0188199909AA09BB09E1
:10263000883E9340A105B10570F321E0C21AD1088C
:10264000E108F10888EE880E83E0981EA11CB11CF9
:10265000C114D104E104F10419F7DDCFFF90EF902C
:10266000DF90CF90BF90AF909F908F900895E5E35B
:10267000F5E0A089B18982E08C93A485B5851C9290
:10268000A685B7858FEC8C93108EA489B58986E0DA
:102690008C93A289B3898C9180618C93A289B38930
:1026A0008C9188608C93A289B3898C9180688C937B
:1026B0000288F389E02D80818F7D808308950097C3
:1026C00069F0FC0101900020E9F73197AF01481B48
:1026D000590BBC0185E395E00C948F0880E090E0F5
:1026E0000895CF93DF930E945F13EC018BE792E094
:1026F0000E945F138C0F9D1FDF91CF910895209151
:10270000EE039091ED03213208F04AC08091CA0394
:102710008111FCCF32E03093CA0331E03093C9031A
:102720003FEF3093C8031092C7032093C603ADEC6C
:10273000B3E046EA53E0FA013E2F341B321718F497
:102740003D913193F9CF1092A5032091A503990FE4
:10275000922B9093A5039091A403913061F4109271
:10276000A4039091A5039093BB009091BC0093FDAE
:10277000F8CF95EC01C095EE9093BC009091CA0300
:102780009230E1F39091C8039F3F79F08091C803A4
:10279000803241F08091C803803331F084E005C07D
:1027A00081E003C082E001C083E01092CC0310926C
:1027B000EE031092CB030895EF92FF921F93CF93F5
:1027C000DF931F92CDB7DEB7162F9AEAE92E97E076
:1027D000F92ED7011C969C911C9721E02093CB03E6
:1027E0009093ED031092CC031092EE031A960D9085
:1027F000BC91A02DED91FC9111970190F081E02DFD
:10280000682FCD0179831995F70182859385DC01C5
:10281000ED91FC910190F081E02D7981672F199560
:10282000F70182859385DC01ED91FC910190F081A7
:10283000E02D612F19950F90DF91CF911F91FF909F
:10284000EF900C947F138F929F92AF92BF920F9351
:102850001F93CF93DF93CDB7DEB7A1970FB6F89450
:10286000DEBF0FBECDBF19A2423008F44AE08E0190
:102870000F5D1F4F842E912CA12CB12CA50194012A
:102880000E94041CE62FB901CA0101501109EA3067
:1028900014F4E05D01C0E95CD801EC93232B242BF8
:1028A000252B61F7C8010E945F13A1960FB6F8941B
:1028B000DEBF0FBECDBFDF91CF911F910F91BF90B3
:1028C000AF909F908F900895E0913505F091360577
:1028D0000190F081E02D682F85E395E01994CF9267
:1028E000DF92EF92FF92CF93DF9397FF19C06B01B6
:1028F0007C018DE20E946414EC0166277727CB01EE
:102900006C197D098E099F094AE00E9423148C0FDF
:102910009D1FDF91CF91FF90EF90DF90CF900895B2
:102920004AE0DF91CF91FF90EF90DF90CF900C9431
:102930002314CF93DF93BC01990F880B990B0E944E
:102940006F14EC018BE792E00E945F138C0F9D1FC8
:10295000DF91CF9108950C945F13CF93DF93CDB7A0
:10296000DEB72C970FB6F894DEBF0FBECDBF7894BC
:1029700084B5826084BD84B5816084BD85B5826084
:1029800085BD85B5816085BD80916E008160809335
:102990006E0010928100809181008260809381009E
:1029A00080918100816080938100809180008160AE
:1029B000809380008091B10084608093B100809109
:1029C000B00081608093B00080919100826080931C
:1029D000910080919100816080939100809190009E
:1029E0008160809390008091A10082608093A1001B
:1029F0008091A10081608093A1008091A0008160FE
:102A00008093A000809121018260809321018091B8
:102A10002101816080932101809120018160809358
:102A2000200180917A00846080937A0080917A00FE
:102A3000826080937A0080917A00816080937A002E
:102A400080917A00806880937A001092C1000E9481
:102A5000371361E08091AB070E94C11260E0809162
:102A6000AB070E94911260E08091AA070E94C112F8
:102A70008FEE93E09093B5078093B40710925A03BA
:102A8000109259031092CC031092EE031092CA03D5
:102A900081E08093C9031092A40361E084E10E9465
:102AA000911261E085E10E9491128091B9008E7FC0
:102AB0008093B9008091B9008D7F8093B90088E43C
:102AC0008093B80085E48093BC0080E090E1A0E0B2
:102AD000B0E08093B7079093B807A093B907B0937D
:102AE000BA078AE090E0A0E0B0E08093BB07909343
:102AF000BC07A093BD07B093BE0780E090E0A0E0C4
:102B0000B0E48093BF079093C007A093C107B09330
:102B1000C20760E070E185E00E94DC136FE979E3B1
:102B200080E00E94DC13E7EC2E2EE7E03E2EC12C65
:102B3000D12CE12CF12CF0E84F2EF2E05F2EA6EC28
:102B40008A2EA2E09A2EBBECAB2EB7E0BB2E9701EB
:102B50002655384F3901D90114969C911497129635
:102B60008C9186010655184FF801818F928F61E094
:102B70000E94C11261E0D8015A968C910E94C11244
:102B8000F30190858681D1018C93F801968F61E0E5
:102B90000E94C11260E0D8015E968C910E94C11221
:102BA00061E0F10180810E9491121FB7F894809139
:102BB0004E03811125C0F2018491F4019491E82F14
:102BC000F0E0EE0FFF1FE350FE4FA591B4918C9102
:102BD000982321F461E085E30E94911261E085E38E
:102BE0000E94C1128CB580618CBD8CB580648CBD97
:102BF00061E084E30E94C11261E083E30E94C1129C
:102C000080914E038F5F80934E031FBFC5010197D4
:102C1000F1F760E0D1018C910E94911288E80E9446
:102C2000C10E83E00E94C10E61E0F10180810E942B
:102C30009112C5010197F1F7C1010E94C80EF2E09F
:102C4000CF0ED11C22E0220E311CEA94EF2821F095
:102C5000EE24E394F12C7BCF5FECE52E57E0F52ECC
:102C600014E01E0D60E0D7018D917D010E94C1121C
:102C70001E11F8CF0EED17E08BED882E87E0982E11
:102C800095E0C92E2CE0E22E32E0B32E42E0D42EA5
:102C9000D80CF4013897F080F40180818C3008F072
:102CA00046C061E08F2D0E94C112D4018C91C89E54
:102CB000F0011124EC55F94F9F2D9F732081207C4A
:102CC000F22EF92AF082138214826E2D0E94451C86
:102CD000BCE08B9FA001112420E030E0B901640F1B
:102CE000751FC69EF001C79EF00D1124EC55F94FDB
:102CF000908196FD12C02F5F3F4F2C30310571F748
:102D000081110BC010928000B0928100109285005A
:102D100010928400B6BAB0926F00D401EC91CE9EAE
:102D2000F0011124EC55F94F808180648083F40117
:102D300034978081F80131978083F801808360E0C7
:102D40000E94C11261E0D8018C910E94C11260E022
:102D5000F80180810E949112FFEF8F1A9F0A0E5F87
:102D60001F4FD81096CF87EC97E00E94C80E89ECD1
:102D700097E00E94C80E0E9437138091D2070E94EC
:102D80006812892BD1F382E093E00E94711360E016
:102D900070E084E593E40E944E0684E093E00E9494
:102DA000711360E070E084EB92E40E949D0460E0A7
:102DB00070E080EE91E40E944E0686E093E00E946F
:102DC000711360E070E084EB92E40E94E30260E043
:102DD00070E080EC91E40E944E0688E093E00E944F
:102DE000711360E070E084EB92E40E94E30260E023
:102DF00070E080EE91E40E944E068AE093E00E942B
:102E0000711360E070E084EB92E40E949D0460E046
:102E100070E080EC91E40E944E068CE093E00E940A
:102E2000711363E373E383E392E40E94E30260E0DF
:102E300070E080E192E40E944E068EE093E00E94F2
:102E4000711360E070E084EB92E40E949D0460E006
:102E500070E080E792E40E944E0680E193E00E94D9
:102E6000711363E373E383E392E40E94E30260E09F
:102E700070E080E092E40E944E0682E193E00E94BE
:102E8000711360E070E088E491E40E94E30260E086
:102E900070E080EA92E40E944E0684E193E00E9492
:102EA000711364E670E080E090E00E94FD1260E043
:102EB00070E080EA92EC0E944E0682E193E00E946C
:102EC00071136DEC7CEC84E491EC0E94E30260E011
:102ED00070E080E092EC0E944E0680E193E00E9458
:102EE00071136AE979E981E392EC0E94E30260E000
:102EF00070E080E792EC0E944E068EE093E00E9424
:102F0000711360E070E084EB92EC0E949D0460E03D
:102F100070E080E192EC0E944E068CE093E00E940B
:102F200071136AE979E981E392EC0E94E30260E0BF
:102F300070E080EA91EC0E944E068AE093E00E94E5
:102F4000711360E070E084EB92EC0E949D0460E0FD
:102F500070E080E092EC0E944E0688E093E00E94D0
:102F6000711360E070E084EB92EC0E94E30260E099
:102F700070E080EC91EC0E944E0686E093E00E94A7
:102F8000711360E070E084EB92EC0E94E30260E079
:102F900070E080E192EC0E944E0684E093E00E9493
:102FA000711360E070E084EB92EC0E949D0487EC6A
:102FB00097E00E94C80E89EC97E00E94C80E8DEC45
:102FC0009CECACECBDE38093010290930202A093D1
:102FD0000302B093040243EE55EA6BE17CEB83EC11
:102FE00097E00E94000D4DEC5CEC6CEC7DE385EC11
:102FF00097E00E94000D19821A821B821C8287ECC6
:1030000097E00E94F30E6B017C0160934303709381
:103010004403809345039093460389EC97E00E9414
:10302000F30E22273327A901261B370B480B590B18
:103030002D833E834F83588720933F033093400373
:1030400040934103509342036C0D7D1D8E1D9F1DC7
:103050000E94DC1A4B015C019B01AC0169817A8101
:103060008B819C810E945A1C69837A838B839C8309
:10307000409001025090020260900302709004029E
:1030800020E030E040E85FE3C301B2010E94D51ABE
:1030900087FF10C02DEC3CEC4CEC5DE3C301B201AA
:1030A0000E945A1C609301027093020280930302F3
:1030B000909304028091010290910202A091030278
:1030C000B09104029C01AD01505829873A874B8783
:1030D0005C8720E030E04AEF53E4C501B4010E9470
:1030E000C61C2B013C0120E034E244E759E469812D
:1030F0007A818B819C810E94C61C4B015C01A301DB
:10310000920160E070E080E89FE30E94591CA501F5
:1031100094010E94591C9B01AC0169857A858B85BD
:103120009C850E943B1BAB01BC0183EC97E00E9495
:10313000000D20E030E040E85FE3C301B2010E94EF
:103140005A1CA50194010E945A1C9B01AC0169857F
:103150007A858B859C850E943B1BAB01BC01705816
:1031600085EC97E00E94000D64E670E080E090E05E
:103170000E94FD123DE8C3163DE6D306E104F104CA
:103180003CF040E050E0BA0183EC97E00E94000D73
:103190008D819E81AF81B8858D389D46A105B10591
:1031A00044F040E050E060E070E885EC97E00E9479
:1031B000000DFCE8CF16FDE6DF06E104F1040CF497
:1031C0001ECF2D813E814F8158852C383D464105CB
:1031D00051050CF414CF6AE070E080E090E00E94AA
:1031E000FD120E94C80AF7CF8091E1069091E20695
:1031F0000C940D1E1092F2031092F10388EE93E0EE
:10320000A0E0B0E08093F3039093F403A093F50360
:10321000B093F6032FE032E03093F0032093EF03F6
:103220001092FE031092FD038093FF03909300041D
:10323000A0930104B093020421E232E03093FC0336
:103240002093FB0345E351E05093080440930704A7
:1032500044E351E050930A044093090440E351E0F1
:1032600050930C0440930B0441E351E050930E043F
:1032700040930D0442E351E05093100440930F0437
:1032800046E351E050931204409311041092140449
:1032900010921504109216041092170410929B04B9
:1032A00010929A0480939C0490939D04A0939E0492
:1032B000B0939F04309399042093980445ED50E017
:1032C0005093A5044093A40444ED50E05093A70408
:1032D0004093A60440ED50E05093A9044093A80405
:1032E00041ED50E05093AB044093AA0442ED50E00E
:1032F0005093AD044093AC0446ED50E05093AF04BE
:103300004093AE041092B1041092B2041092B30430
:103310001092B40410923805109237058093390545
:1033200090933A05A0933B05B0933C053093360546
:103330002093350585EC90E09093420580934105FC
:1033400084EC90E0909344058093430580EC90E0FA
:10335000909346058093450581EC90E09093480555
:103360008093470582EC90E090934A05809349054D
:1033700086EC90E090934C0580934B0510924E059F
:1033800010924F05109250051092510586E38093DC
:10339000CB0787E38093CC0788E38093CD0789E34D
:1033A0008093CE078BE18093CF078DE18093D00788
:1033B0008AE18093D1078CE18093D20784E08093E7
:1033C000D30787E08093D4071092D50784EB8093CE
:1033D000D60786E18093D70788E18093D80787E1F5
:1033E0008093D90789E18093DA07E091E006EC3019
:1033F00020F08FEF8093DB0710C081E08E0F809369
:10340000E006E093DB0725E0E29FF0011124EC5594
:10341000F94F88EB9BE092838183E091E006EC30EA
:1034200020F08FEF8093DC0710C081E08E0F809337
:10343000E006E093DC0785E0E89FF0011124EC55FD
:10344000F94F88EB9BE0928381838CE08093AA07FD
:1034500084E28093AB0786E08093AC0785E080939D
:10346000AD078FE18093AE078EE18093AF0783E2D3
:103470008093B00782E28093B10785E48093B2071E
:1034800084E48093B30780E48093B6071092BB076F
:103490001092BC071092BD071092BE071092BF0792
:1034A0001092C0071092C1071092C207ECEEF6E02E
:1034B0008FEF9FEFDC011282138214821582168235
:1034C00017821086118683879487A587B68787879A
:1034D000908BA18BB28B128611821082739627E09B
:1034E000EA3AF20741F78DE090E00E94781DFC0176
:1034F0001382128283E392E091838083118687E2B4
:10350000848384E1828784E083871486F093E906CC
:10351000E093E8061092EA061092EB0685E28093AB
:10352000D3051092D5051092E2061092E106109292
:10353000E4061092E3061092E6061092E50661E0BA
:1035400070E080E090E00E94A51E009789F09093C3
:10355000E2068093E1061092E4061092E3062091C1
:10356000E5063091E606232BC1F4FC01108215C05C
:103570008091E1069091E206009711F00E940D1EE5
:103580001092E2061092E1061092E6061092E5060D
:103590001092E4061092E30608951092E606109247
:1035A000E5066DE772E00C949C1F0E94171B08F45F
:1035B00081E00895E89409C097FB3EF490958095CA
:1035C000709561957F4F8F4F9F4F9923A9F0F92FE9
:1035D00096E9BB279395F695879577956795B79567
:1035E000F111F8CFFAF4BB0F11F460FF1BC06F5F4D
:1035F0007F4F8F4F9F4F16C0882311F096E911C05F
:10360000772321F09EE8872F762F05C0662371F07F
:1036100096E8862F70E060E02AF09A95660F771F93
:10362000881FDAF7880F9695879597F90895990F6F
:103630000008550FAA0BE0E8FEEF16161706E8077C
:10364000F907C0F012161306E407F50798F0621B9D
:10365000730B840B950B39F40A2661F0232B242B72
:10366000252B21F408950A2609F4A140A6958FEF91
:10367000811D811D08950E944E1B0C94BF1B0E944A
:10368000B11B38F00E94B81B20F0952311F00C9468
:10369000A81B0C94AE1B11240C94F31B0E94D01B8E
:1036A00070F3959FC1F3950F50E0551F629FF00195
:1036B000729FBB27F00DB11D639FAA27F00DB11DAE
:1036C000AA1F649F6627B00DA11D661F829F222737
:1036D000B00DA11D621F739FB00DA11D621F839FBE
:1036E000A00D611D221F749F3327A00D611D231F94
:1036F000849F600D211D822F762F6A2F11249F57E2
:1037000050409AF0F1F088234AF0EE0FFF1FBB1FE4
:10371000661F771F881F91505040A9F79E3F5105A3
:1037200080F00C94A81B0C94F31B5F3FE4F3983ECD
:10373000D4F3869577956795B795F795E7959F5F4D
:10374000C1F7FE2B880F911D9695879597F90895DF
:1037500097F99F6780E870E060E008959FEF80EC44
:10376000089500240A9416161706180609060895E7
:1037700000240A9412161306140605060895092E4D
:103780000394000C11F4882352F0BB0F40F4BF2BBC
:1037900011F460FF04C06F5F7F4F8F4F9F4F0895FC
:1037A00057FD9058440F551F59F05F3F71F04795F2
:1037B000880F97FB991F61F09F3F79F087950895D7
:1037C000121613061406551FF2CF4695F1DF08C0F6
:1037D000161617061806991FF1CF86957105610513
:1037E00008940895E894BB2766277727CB0197F9BB
:1037F00008950E94261CA59F900DB49F900DA49F34
:10380000800D911D11240895A1E21A2EAA1BBB1B45
:10381000FD010DC0AA1FBB1FEE1FFF1FA217B3079C
:10382000E407F50720F0A21BB30BE40BF50B661FB2
:10383000771F881F991F1A9469F760957095809576
:1038400090959B01AC01BD01CF010895A29FB001ED
:10385000B39FC001A39F700D811D1124911DB29FC4
:10386000700D811D1124911D0895DB018F939F938D
:103870000E94F91BBF91AF91A29F800D911DA39F44
:10388000900DB29F900D11240895991B79E004C00A
:10389000991F961708F0961B881F7A95C9F780958F
:1038A0000895EE0FFF1F881F8BBF0790F691E02D44
:1038B00019945058BB27AA270E94711C0C94BF1B57
:1038C0000E94B11B38F00E94B81B20F039F49F3FD2
:1038D00019F426F40C94AE1B0EF4E095E7FB0C945F
:1038E000A81BE92F0E94D01B58F3BA176207730771
:1038F0008407950720F079F4A6F50C94F21B0EF4DA
:10390000E0950B2EBA2FA02D0B01B90190010C01EF
:10391000CA01A0011124FF27591B99F0593F50F407
:10392000503E68F11A16F040A22F232F342F44275F
:10393000585FF3CF469537952795A795F040539557
:10394000C9F77EF41F16BA0B620B730B840BBAF027
:103950009150A1F0FF0FBB1F661F771F881FC2F792
:103960000EC0BA0F621F731F841F48F487957795A6
:103970006795B795F7959E3F08F0B0CF9395880F60
:1039800008F09927EE0F9795879508950E94DA1C05
:103990000C94BF1B0E94B81B58F00E94B11B40F052
:1039A00029F45F3F29F00C94A81B51110C94F31BD0
:1039B0000C94AE1B0E94D01B68F39923B1F35523DE
:1039C00091F3951B550BBB27AA2762177307840732
:1039D00038F09F5F5F4F220F331F441FAA1FA9F3C8
:1039E00035D00E2E3AF0E0E832D091505040E695B6
:1039F000001CCAF72BD0FE2F29D0660F771F881F17
:103A0000BB1F261737074807AB07B0E809F0BB0B09
:103A1000802DBF01FF2793585F4F3AF09E3F51051D
:103A200078F00C94A81B0C94F31B5F3FE4F3983ED2
:103A3000D4F3869577956795B795F7959F5FC9F706
:103A4000880F911D9695879597F90895E1E0660F87
:103A5000771F881FBB1F621773078407BA0720F000
:103A6000621B730B840BBA0BEE1F88F7E095089569
:103A70000E943F1D6894B1110C94F31B08950E949D
:103A8000D81B88F09F5798F0B92F9927B751B0F0FD
:103A9000E1F0660F771F881F991F1AF0BA95C9F7D2
:103AA00014C0B13091F00E94F21BB1E008950C9463
:103AB000F21B672F782F8827B85F39F0B93FCCF316
:103AC000869577956795B395D9F73EF4909580954F
:103AD000709561957F4F8F4F9F4F08950E94171BE0
:103AE00008F48FEF08950E94171B880B990B089517
:103AF000CF93DF938230910510F482E090E0E09163
:103B0000E307F091E40720E030E0C0E0D0E0309738
:103B100011F14081518148175907C0F048175907E2
:103B200061F482819381209719F09B838A832BC053
:103B30009093E4078093E30726C02115310519F01F
:103B40004217530718F49A01BE01DF01EF0102800A
:103B5000F381E02DDCCF2115310509F1281B390B4C
:103B60002430310590F412968D919C911397611534
:103B7000710521F0FB019383828304C09093E407D5
:103B80008093E307FD01329644C0FD01E20FF31F6D
:103B900081939193225031092D933C933AC0209107
:103BA000E1073091E207232B41F420910702309185
:103BB00008023093E2072093E1072091050230913B
:103BC00006022115310541F42DB73EB74091090297
:103BD00050910A02241B350BE091E107F091E207B6
:103BE000E217F307A0F42E1B3F0B2817390778F0D4
:103BF000AC014E5F5F4F2417350748F04E0F5F1F33
:103C00005093E2074093E1078193919302C0E0E073
:103C1000F0E0CF01DF91CF9108950F931F93CF93E1
:103C2000DF93009709F48CC0FC0132971382128253
:103C30000091E3071091E4070115110581F420813B
:103C40003181820F931F2091E1073091E2072817FD
:103C5000390779F5F093E207E093E10771C0D801E5
:103C600040E050E0AE17BF0750F412962D913C9102
:103C70001397AD012115310509F1D901F3CF9D014C
:103C8000DA013383228360817181860F971F821747
:103C9000930769F4EC0128813981260F371F2E5FC5
:103CA0003F4F318320838A819B8193838283452B7D
:103CB00029F4F093E407E093E30742C01396FC93E2
:103CC000EE931297ED01499159919E01240F351FF2
:103CD000E217F30771F480819181840F951F02969A
:103CE00011969C938E938281938113969C938E93CD
:103CF0001297E0E0F0E0D80112968D919C91139715
:103D0000009719F0F8018C01F6CF8D919C919801E4
:103D10002E5F3F4F820F931F2091E1073091E20702
:103D20002817390769F4309729F41092E4071092A4
:103D3000E30702C0138212821093E2070093E107A7
:103D4000DF91CF911F910F9108956F927F928F9283
:103D50009F92AF92BF92CF92DF92EF92FF920F931A
:103D60001F93CF93DF93EC01009789F4CB01DF9190
:103D7000CF911F910F91FF90EF90DF90CF90BF9068
:103D8000AF909F908F907F906F900C94781DFC0166
:103D9000E60FF71F9C0122503109E217F30708F4E0
:103DA000ACC0D9010D911C91119706171707B0F0FF
:103DB0000530110508F49FC0C801049786179707BE
:103DC00008F499C002501109061B170B01931193B7
:103DD0006D937C93CF010E940D1E8DC05B01A01AD4
:103DE000B10A4C01800E911EA091E307B091E40747
:103DF00040E050E0E12CF12C109709F44AC0A815DE
:103E0000B905D1F56D907C901197630182E0C80EE1
:103E1000D11CCA14DB0480F1A3014A195B096A01B1
:103E200082E0C80ED11C1296BC9012971396AC91EA
:103E3000B5E0CB16D10440F0B282A3835183408316
:103E4000D9016D937C930AC00E5F1F4FC301800F91
:103E5000911FF90191838083EB2DFA2FE114F10476
:103E600031F0D7011396FC93EE93129744C0F09370
:103E7000E407E093E3073FC08D919C9111974817A9
:103E8000590708F4AC017D0112960D90BC91A02D4C
:103E9000B3CF8091E1079091E20788159905E1F48D
:103EA00046175707C8F480910502909106020097C3
:103EB00041F48DB79EB74091090250910A02841BCC
:103EC000950BE817F907C8F4F093E207E093E107D0
:103ED000F901718360830FC0CB010E94781D7C01C2
:103EE000009759F0A801BE010E94931FCE010E94C5
:103EF0000D1EC70104C0CE0102C080E090E0DF913A
:103F0000CF911F910F91FF90EF90DF90CF90BF90D6
:103F1000AF909F908F907F906F90089581E090E098
:103F2000F8940C94A31FFB01DC0102C001900D92D8
:103F300041505040D8F70895FB01DC0101900D92EB
:103F40000020E1F7089511E0C0E9D1E000E006C0EB
:103F5000802FFE010E94511C2196011DC139D107FD
:0A3F600080E00807A9F7F894FFCFEE
:103F6A00FFCDCCCC3E0000E507200000000000E0B9
:103F7A000FB00FF60A8A0FA80F990F8B0F000000D7
:103F8A00005F0A8F08E309A60A140AF209060A0062
:103F9A00000000210B8F08F60AF50A46494E49200F
:103FAA00746F75726E65722064726F6974652C2005
:103FBA0073706565642066696E616C65203D2000DA
:103FCA00476175636865203D2000207C207468C3C2
:103FDA00A96F7269717565203D20000D0A0044724F
:103FEA006F697465203D2000207C207468C3A96F26
:103FFA007269717565203D203000524542414C413D
:10400A004E434147453A20673D2000207C20643DCD
:10401A00200045525245555220544F54203D2067A6
:10402A0061756368653A002064726F6974653A0065
:10403A0046494E4920746F75726E657220676175C4
:10404A006368650046494E49206176616E63657210
:10405A002C2073706565642066696E616C65203D0D
:10406A00200041004200430044004500460047004A
:10407A00480049004A006E616E00696E66006F76FC
:02408A006600CE
:00000001FF
