:100000000C9484010C94B5010C94B5010C94B501C9
:100010000C94B5010C94B5010C94B5010C94B50188
:100020000C94B5010C94BA0B0C94BA0B0C94BA0B4B
:100030000C94B5010C94F80E0C94B5010C94B50118
:100040000C94B5010C9462070C94B5010C94B501A5
:100050000C94B5010C94B5010C94B5010C94AE0E42
:100060000C94B5010C94C4030C9439040C94B501A0
:100070000C94B5010C94B5010C94B5010C94B50128
:100080000C9434070C94B5010C94B5010C94B50193
:100090000C94B5010C94B5010C94B5010C94C40BEF
:1000A0000C94B5010C94B5010C9406070C94B501A1
:1000B0000C94B5010C94B5010C94B5010C94D806C0
:1000C0000C94B5010C94B5010C94B5010C949A03F1
:1000D0000C940F040C94B5010C9470030C94970FBE
:1000E0000C94B5012C053105360540054A05C305BC
:1000F00054055C0564056E057805820591059B0530
:10010000C305A505AF05B905240E270E160E1A0E58
:100110001E0E5E0E2B0E2F0E350E390E3D0E430EAB
:10012000470E4B0E5E0E510E550E590E0C942C05BB
:100130000C94510E0C9401020C941E0D0C94240E80
:100140000C94AF050C941E0E0C94320D0C94C10F40
:100150000C94DF010C94270E0C944B030C9478053F
:100160000C949B050C9454050C9463040C943D0E64
:100170000C94430E0C94A5050C94C70F0C94D0015D
:100180000C9458020C942B0E0C9440050C94780996
:100190000C94B9050C94590E0C94AA040C943605D1
:1001A0000C94550E0C94350E0C9464050C942F0E83
:1001B0000C94470E0C948A0D0C9479090C944B0EF8
:1001C0000C9482050C945F0D0C9491050C946E05B3
:1001D0000C94390E0C94C3050C944A050C945C05E0
:1001E0000C9431050C94BA0D0C941A0E0C94160E46
:1001F0000C94F3010C945E0E0C9459020200002141
:1002000000240027002A002D0030003300010100E7
:1002100000040107010A0100002200250028002B2C
:10022000002E003100340002010000050108010B1E
:100230000105050505070508080808020202020A6B
:100240000A08080404040401010101010101010379
:1002500003030303030303040707070C0C0C0C0C34
:100260000C0C0C0202020206060606060606060B27
:100270000B0B0B0B0B0B0B0102102020080810209E
:100280004010204080020102010804020101020422
:1002900008102040808040201008040201800402E1
:1002A0000180402010080402010804020101020438
:1002B0000810204080010204081020408000000A3D
:1002C0000B02090C0D0E08070304010000000000DA
:1002D000000000000000000000000000000000001E
:1002E00000000000000000000012111000000000DB
:1002F00000000000000000000000000000000000FE
:1003000000000000C70FC10F11241FBECFEFD1E2C4
:10031000DEBFCDBF00E00CBF12E0A0E0B2E0EAE437
:10032000F0E300E00BBF02C007900D92A436B107C6
:10033000D9F726E0A4E6B2E001C01D92A835B207C5
:10034000E1F711E0C3E8D1E000E006C02197010920
:10035000802FFE010E94C114C238D10780E0080737
:10036000A9F70E9470110C9413180C940000FC0162
:10037000A089B1898C91A689B78982FD0FC09C9113
:10038000818D8F5F8F73228D821749F0218DDF0160
:10039000A20FB11D5D969C93818F08958C91089555
:1003A000FC01538D448D252F30E0842F90E0821B7B
:1003B000930B541710F0CF96089501970895FC0100
:1003C000918D828D981761F0828DDF01A80FB11D8C
:1003D0005D968C91928D9F5F9F73928F90E00895B0
:1003E0008FEF9FEF0895FC01918D828D981731F06A
:1003F000828DE80FF11D858D90E008958FEF9FEFBE
:100400000895FC01918D228D892F90E0805C9F4F93
:10041000821B91098F73992708958EE793E00E94BC
:10042000010221E0892B09F420E0822F08958BE15D
:1004300094E00E94010221E0892B09F420E0822F40
:100440000895E0E0F0E0199480E090E0892B21F03D
:100450000E941702811119C080E090E0892B41F0C1
:1004600080E090E0892B21F00E940000811110C0F3
:100470000E940D0281110FC080E090E0892B81F075
:100480000E94EB0D81110AC008950E940000E4CF84
:100490000E940000EDCF0E942102EECF0C940000DC
:1004A00008958EBD00000DB407FEFDCF8EB50895F2
:1004B000089580E090E00895CF92DF92EF92FF924E
:1004C0000F931F93CF93DF936C018B017A01EC01A3
:1004D000C358DD4F888187FF04C0FB011182108261
:1004E00024C08CE08C9D90018D9D300D112488815D
:1004F000A901480F511D87FD5A958091480590E04C
:100500004817590794F48881A901480F511D87FDA8
:100510005A95CA01FA01EE0FFF1F8E0F9F1FFC01B3
:10052000E854FB4F808186FD19C088818F5F8883E6
:100530008CE08C9D90018D9D300D11248881A90146
:10054000480F511D87FD5A958091480590E0481746
:100550005907BCF488818C3044F113C08881280F7E
:10056000311D87FD3A95F901EE0FFF1F2E0F3F1F3A
:10057000F901E854FB4F808160E08F730E94F50D14
:10058000D4CFF80180819181049680349C4918F47D
:1005900080E49CE904C0F801808191810496F70110
:1005A000918380838FEF888345C0F801408151811A
:1005B0008881B901680F711D87FD7A95CB01FB0118
:1005C000EE0FFF1F8E0F9F1FFC01E854FB4F818130
:1005D0009281840F951FF701918380838881A901FF
:1005E000480F511D87FD5A95CA01FA01EE0FFF1FF2
:1005F0008E0F9F1FFC01E854FB4F808186FF1AC0BD
:100600008881280F311D87FD3A95F901EE0FFF1FF4
:100610002E0F3F1FF901E854FB4F808161E08F737B
:10062000DF91CF911F910F91FF90EF90DF90CF90CE
:100630000C94F50DDF91CF911F910F91FF90EF90EA
:10064000DF90CF900895FC01248131E03093B10216
:100650002093D3021092B2021092D4028485682BA8
:1006600085ED92E00E94BA0D0C94C1090F931F937F
:10067000CF938C01C62F64600E9423036C2F6B7F85
:10068000C8010E94230383EC90E00197F1F7CF911A
:100690001F910F9108950F931F93CF93DF938C01B8
:1006A000C62FD62FD07FD1606D2F0E9423036D2FD0
:1006B000C8010E94360380E1C89FB0011124C62FF3
:1006C000C1606C2FC8010E9423036C2FC8010E94D7
:1006D000360381E090E0DF91CF911F910F91089553
:1006E0001F920F920FB60F9211240BB60F922F93F9
:1006F0003F934F935F936F937F938F939F93AF93AA
:10070000BF93EF93FF9381EE92E00E94B701FF91B8
:10071000EF91BF91AF919F918F917F916F915F9179
:100720004F913F912F910F900BBE0F900FBE0F90E6
:100730001F9018951F920F920FB60F9211240BB6AF
:100740000F922F933F934F935F936F937F938F936A
:100750009F93AF93BF93EF93FF938EE793E00E9435
:10076000B701FF91EF91BF91AF919F918F917F91D1
:100770006F915F914F913F912F910F900BBE0F9012
:100780000FBE0F901F9018951F920F920FB60F92E9
:1007900011240BB60F922F933F934F935F936F9358
:1007A0007F938F939F93AF93BF93EF93FF938BE1CF
:1007B00094E00E94B701FF91EF91BF91AF919F919B
:1007C0008F917F916F915F914F913F912F910F90FA
:1007D0000BBE0F900FBE0F901F901895FC01848DDB
:1007E000DF01A80FB11DA35ABF4F2C91848D90E05B
:1007F00001968F739927848FA689B7892C93A08936
:10080000B1898C9180648C93938D848D981306C0EC
:100810000288F389E02D80818F7D808308951F9267
:100820000F920FB60F9211240BB60F922F933F9396
:100830004F935F936F937F938F939F93AF93BF93E8
:10084000EF93FF938EE793E00E94EE03FF91EF9109
:10085000BF91AF919F918F917F916F915F914F91D8
:100860003F912F910F900BBE0F900FBE0F901F90D6
:1008700018951F920F920FB60F9211240BB60F927C
:100880002F933F934F935F936F937F938F939F9398
:10089000AF93BF93EF93FF938BE194E00E94EE033D
:1008A000FF91EF91BF91AF919F918F917F916F9148
:1008B0005F914F913F912F910F900BBE0F900FBE04
:1008C0000F901F901895EF92FF920F931F93CF9365
:1008D000DF93EC0181E0888F9B8D8C8D981305C090
:1008E000E889F989808185FD24C0F62E0B8D10E002
:1008F0000F5F1F4F0F731127E02E8C8DE8120CC075
:100900000FB607FCFACFE889F989808185FFF5CF1A
:10091000CE010E94EE03F1CF8B8DFE01E80FF11D99
:10092000E35AFF4FF0820B8FEA89FB898081806256
:1009300007C0EE89FF896083E889F9898081806436
:10094000808381E090E0DF91CF911F910F91FF9024
:10095000EF900895CF93DF93EC01888D8823C9F041
:10096000EA89FB89808185FD05C0A889B9898C91B8
:1009700086FD0FC00FB607FCF5CF808185FFF2CF53
:10098000A889B9898C9185FFEDCFCE010E94EE0335
:10099000E7CFDF91CF9108958F929F92AF92BF9250
:1009A000CF92DF92EF92FF920F931F93CF93DF933B
:1009B000EC016A017B0120E030E04FE753E4C7011E
:1009C000B6010E94E1134B015C0120E030E0A90177
:1009D0000E94DE1518161CF4C501B40103C0C50140
:1009E000B40190580E94A8158B0120E030E0A901C5
:1009F000C701B6010E94DE15181614F460E001C0AC
:100A000061E089810E94F50D0F3F110509F014F492
:100A1000112702C00FEF10E0C88161E08C2F0E9407
:100A2000720E0115110509F4B1C00F3F110509F44B
:100A3000AFC0EC2FF0E0E354FD4FE4914E2F50E0B7
:100A4000FA013197E231F10508F09DC08827EE5890
:100A5000FF4F8F4F0C94C11484B5806884BD07BDCF
:100A6000A7C084B5806284BD08BDA2C0809180000B
:100A7000806880938000109389000093880098C05C
:100A80008091800080628093800010938B0000939F
:100A90008A008EC0809180008860809380001093CF
:100AA0008D0000938C0084C08091B000806880939A
:100AB000B0000093B3007CC08091B000806280934E
:100AC000B0000093B40074C080919000806880935F
:100AD000900010939900009398006AC08091900054
:100AE00080628093900010939B0000939A0060C0F6
:100AF0008091900088608093900010939D000093F7
:100B00009C0056C08091A00080688093A0008091D6
:100B1000A0008F7B8093A0001093A9000093A800F1
:100B200047C08091A00080628093A0001093AB002A
:100B30000093AA003DC08091A00088608093A0002F
:100B40001093AD000093AC0033C080912001806809
:100B500080932001109329010093280129C08091DE
:100B6000200180628093200110932B0100932A01C1
:100B70001FC08091200188608093200110932D0177
:100B800000932C0115C00038110514F460E001C079
:100B900061E08C2FDF91CF911F910F91FF90EF902B
:100BA000DF90CF90BF90AF909F908F900C94F50DF9
:100BB000DF91CF911F910F91FF90EF90DF90CF9039
:100BC000BF90AF909F908F900895CF93DF93EC01EB
:100BD00060E088810E94F50D88E90E94510280E062
:100BE0000E94510280E00E94510280E00E94510266
:100BF00080E00E94510261E088810E94F50D8BE83F
:100C000091E00197F1F760E088810E94F50D80EE98
:100C10000E94510261E08881DF91CF910C94F50D23
:100C2000AF92BF92CF92DF92EF92FF920F931F93FA
:100C3000CF93DF93CDB7DEB760970FB6F894DEBFE2
:100C40000FBECDBF5C0160E0FC0180810E94F50D0C
:100C500080E60E9451028E010F5F1F4F7E01F1E17D
:100C6000EF0EF11C680180E00E94510290E0A0E0CC
:100C7000B0E0F60181939193A193B1936F01EE15CA
:100C8000FF0589F761E0F50180810E94F50D80E0A4
:100C900090E0DC01F80141915191619171918F01D6
:100CA000BA2FA92F982F8827840F951FA61FB71F2B
:100CB000EE15FF0579F79C01AD0166277727CB017B
:100CC000621B730B840B950B60960FB6F894DEBF16
:100CD0000FBECDBFDF91CF911F910F91FF90EF908D
:100CE000DF90CF90BF90AF9008950F931F93CF9355
:100CF000DF93EC01862F6883498361E00E94720EC6
:100D000060E089810E94720E61E088810E94F50D89
:100D10001FB7F89480918102811127C0E6E6F2E0C6
:100D20009491ECEAF2E08491E92FF0E0EE0FFF1FDE
:100D3000E350FE4FA591B491EC91E82321F461E0DA
:100D400085E30E94F50D61E085E30E94720E8CB58B
:100D500080618CBD8CB580648CBD61E084E30E94B1
:100D6000720E61E083E30E94720E809181028F5FB8
:100D7000809381021FBF0BEC17E0C8010197F1F7C8
:100D800060E088810E94F50D88E80E94510283E0AE
:100D90000E94510261E088810E94F50DC80101970F
:100DA000F1F7CE01DF91CF911F910F910C94E505E2
:100DB0001F920F920FB60F9211240BB60F922F9322
:100DC0003F934F935F936F937F938F939F93AF93D3
:100DD000BF93EF93FF9348E251E064E271E080E05B
:100DE00090E00E945C02FF91EF91BF91AF919F91C3
:100DF0008F917F916F915F914F913F912F910F90C4
:100E00000BBE0F900FBE0F901F9018951F920F9260
:100E10000FB60F9211240BB60F922F933F934F935F
:100E20005F936F937F938F939F93AF93BF93EF9352
:100E3000FF9348EA50E064EA70E083E090E00E94AB
:100E40005C02FF91EF91BF91AF919F918F917F9144
:100E50006F915F914F913F912F910F900BBE0F902B
:100E60000FBE0F901F9018951F920F920FB60F9202
:100E700011240BB60F922F933F934F935F936F9371
:100E80007F938F939F93AF93BF93EF93FF9348E923
:100E900050E064E970E082E090E00E945C02FF9123
:100EA000EF91BF91AF919F918F917F916F915F91E2
:100EB0004F913F912F910F900BBE0F900FBE0F904F
:100EC0001F9018951F920F920FB60F9211240BB618
:100ED0000F922F933F934F935F936F937F938F93D3
:100EE0009F93AF93BF93EF93FF9348E850E064E87C
:100EF00070E081E090E00E945C02FF91EF91BF9171
:100F0000AF919F918F917F916F915F914F913F91A1
:100F10002F910F900BBE0F900FBE0F901F90189542
:100F20002F923F924F925F926F927F928F929F92F9
:100F3000AF92BF92CF92DF92EF92FF920F931F93E7
:100F4000CF93DF93BC01990F880B990B0E948213FA
:100F50002DED38E444E053E40E94E1130E94A8150B
:100F60001B0188EA92E00E94E5058AEA92E00E946D
:100F7000E5058DEC9CECACECBEE380930402909311
:100F80000502A0930602B0930702AC01BD0184EAFA
:100F900092E00E94CC044DEC5CEC6CEC7EEB86EABB
:100FA00092E00E94CC048DEC882E8CEC982E8CE480
:100FB000A82E8DE3B82E88EA92E00E9410069B01CD
:100FC000AC0188279927DC01821B930BA40BB50B7E
:100FD00090933F0680933E068AEA92E00E941006B4
:100FE0006B017C018B017093AD026093AC02C091E8
:100FF0003E06D0913F06BE010D2E000C880B990BCA
:101000000E94821324E13BE545E254E40E94DE1590
:10101000181664F48AE999E9A9E1BFE38093040210
:1010200090930502A0930602B0930702CE018C199B
:101030009D099C01275F3F4F2331310548F4809281
:10104000000290920102A0920202B09203021EC01E
:101050008D599F4F873C910568F420E030E040E8CF
:101060005EE320930002309301024093020250930A
:1010700003020CC080E090E0A0E0BFE38093000298
:1010800090930102A0930202B0930302C090040265
:10109000D0900502E0900602F09007020C171D07A1
:1010A0002CF5409000025090010260900202709076
:1010B0000302A301920160E070E080E89FE30E94D8
:1010C000C9149B01AC01C701B6010E94E113AB0139
:1010D000BC0184EA92E00E94CC0420E030E040E8C9
:1010E0005FE3C301B2010E94CA1427C0C017D10731
:1010F0006CF54090000250900102609002027090E6
:10110000030220E030E040E85FE3C301B2010E9447
:10111000CA149B01AC01C701B6010E94E113AB01E7
:10112000BC0184EA92E00E94CC04A301920160E039
:1011300070E080E89FE30E94C9149B01AC01C701E5
:10114000B6010E94E113AB01BC0108C0B701A601C2
:1011500084EA92E00E94CC04B701A601705886EAA6
:1011600092E00E94CC04C0903E06D0903F060D2C29
:10117000000CEE08FF08F7FE0CC08DE20E94650A25
:1011800066277727CB016C197D098E099F094AE0F4
:1011900003C04AE0C701B6010E94700A87E492E0EA
:1011A0000E94870980913E0690913F068215930523
:1011B00044F48091AC029091AD02821593050CF439
:1011C000FACE8AE492E00E94870940E050E0BA013A
:1011D00084EA92E00E94CC0440E050E060E070E8D5
:1011E00086EA92E0DF91CF911F910F91FF90EF90EF
:1011F000DF90CF90BF90AF909F908F907F906F9037
:101200005F904F903F902F900C94CC048F929F92C0
:10121000AF92BF92CF92DF92EF92FF926B017C016F
:1012200088EA92E00E94E5058AEA92E00E94E505DC
:101230004DEC5CEC6CEC7EE384EA92E00E94CC0422
:1012400040E050E060E070E886EA92E00E94CC0462
:1012500088EA92E00E9410069B01AC01882799273A
:10126000DC01821B930BA40BB50B90933F0680937C
:101270003E06BC01990F880B990B0E9482134B010B
:101280005C0120E030E04AE755E4C701B6010E9466
:10129000E11320E030E044EB52E40E9436159B015C
:1012A000AC01C501B4010E947B1387FDD1CF40E0A2
:1012B00050E0BA0184EA92E00E94CC0440E050E0A1
:1012C00060E070E886EA92E0FF90EF90DF90CF90C8
:1012D000BF90AF909F908F900C94CC0485ED80933D
:1012E000BC008091BC0084FDFCCF1092B002089538
:1012F000089581E090E03091A3022091A20232177C
:1013000010F480E090E091958195910908950097FF
:1013100069F0FC0101900020E9F73197AF01481B0B
:10132000590BBC018BE194E00C945F0D80E090E0E0
:101330000895EBE1F4E0A089B18982E08C93A48563
:10134000B5851C92A685B7858FEC8C93108EA489E9
:10135000B58986E08C93A289B3898C9180618C9346
:10136000A289B3898C9188608C93A289B3898C916E
:1013700080688C930288F389E02D80818F7D808343
:1013800008952091D4029091D302213208F04AC0EE
:101390008091B0028111FCCF32E03093B00231E095
:1013A0003093AF023FEF30933D0610923C062093FE
:1013B0003B06A3EBB2E04BE156E0FA013E2F341BB3
:1013C000321718F43D913193F9CF10921A062091FB
:1013D0001A06990F922B90931A069091AE029130B3
:1013E00061F41092AE0290911A069093BB00909116
:1013F000BC0093FDF8CF95EC01C095EE9093BC0036
:101400009091B0029230E1F390913D069F3F79F0C8
:1014100080913D06803241F080913D06803331F06D
:1014200084E005C081E003C082E001C083E0109247
:10143000B2021092D4021092B1020895EF92FF927C
:101440001F93CF93DF931F92CDB7DEB7162F94EB88
:10145000E92E95E0F92ED7011C969C911C9721E06E
:101460002093B1029093D3021092B2021092D40250
:101470001A960D90BC91A02DED91FC9111970190C1
:10148000F081E02D682FCD0179831995F7018285D0
:101490009385DC01ED91FC910190F081E02D798143
:1014A000672F1995F70182859385DC01ED91FC91F9
:1014B0000190F081E02D612F19950F90DF91CF9170
:1014C0001F91FF90EF900C94C109E0911B04F091E3
:1014D0001C040190F081E02D682F8BE194E01994B9
:1014E0008F929F92AF92BF920F931F93CF93DF93F0
:1014F000CDB7DEB7A1970FB6F894DEBF0FBECDBF54
:1015000019A2423008F44AE08E010F5D1F4F842E6D
:10151000912CA12CB12CA50194010E949F14E62FBF
:10152000B901CA0101501109EA3014F4E05D01C0AB
:10153000E95CD801EC93232B242B252B61F7C80100
:101540000E948709A1960FB6F894DEBF0FBECDBFEB
:10155000DF91CF911F910F91BF90AF909F908F908F
:1015600008954F925F926F927F928F929F92AF9267
:10157000BF92CF92DF92EF92FF926B017C019B01B1
:10158000AC010E94E315882319F087E592E01AC0A8
:1015900046015701E894B7F82FEF3FEF4FE75FE7B9
:1015A000C501B4010E94E315811110C02FEF3FEF78
:1015B0004FE75FE7C501B4010E947B13181634F4AE
:1015C0008BE592E00E9487097C017FC02FEF3FEFFF
:1015D0004FE75FE4C701B6010E94DE1518161CF440
:1015E0008FE592E0EFCF2FEF3FEF4FE75FECC701C2
:1015F000B6010E947B1387FDF3CF20E030E0A90104
:10160000C701B6010E947B1387FF09C08DE20E94CB
:10161000650A5C01F7FAF094F7F8F09402C0A12C87
:10162000B12C2AE037ED43EA5BE3C701B6010E9423
:10163000CA142B013C010E94AF156B017C010E9472
:1016400080139B01AC01C301B2010E94C9142B019C
:101650003C014AE0C701B6010E94700A7C01EA0C15
:10166000FB1C8EE20E94650AE80EF91E20E030E0C5
:1016700040E251E4C301B2010E94E1132B013C019D
:101680000E94AF154B01A12CB12C4AE0C501B40159
:101690000E94700AE80EF91EC501B4010E94801371
:1016A0009B01AC01C301B2010E94C91420E030E0EB
:1016B00040E251E40E94E1130E94AF1580E090E007
:1016C0004AE00E94700AE80EF91E87E492E00E9448
:1016D00087098E0D9F1DFF90EF90DF90CF90BF90F8
:1016E000AF909F908F907F906F905F904F900895F4
:1016F00088EA92E00E94E5058AEA92E00E94E50508
:1017000040E050E0BA0184EA92E00E94CC044DEC43
:101710005CEC6CEC7EEB86EA92E00E94CC048AEAF8
:1017200092E00E9410067093AD026093AC02072E07
:10173000000C880B990B0E94821320E030E04AE7EE
:1017400055E40E947B1387FDEACF60E070E08AE7F2
:1017500095E40E94B10A40E050E0BA0184EA92E0C8
:101760000E94CC0440E050E060E070E886EA92E03D
:101770000C94CC041F920F920FB60F9211240F906D
:101780000FBE0F901F9018951F920F920FB60F92D9
:1017900011240BB60F922F933F934F935F936F9348
:1017A0007F938F939F93AF93BF93EF93FF9380911A
:1017B000B900887F803609F49CC068F5883209F446
:1017C0005BC090F4803109F454C038F4882309F4E4
:1017D000F6C0883009F44DC0F6C0883109F44CC019
:1017E000803209F45DC0EFC0803409F468C048F469
:1017F000803309F455C0883309F0E5C080933D0675
:10180000D8C0803509F44FC0883509F45DC08834EC
:1018100009F0D9C0D6C0883909F4C7C0A8F4883700
:1018200009F467C038F4883609F463C0803709F4D6
:1018300060C0C9C0883809F4B8C0803909F45FC0F5
:10184000803809F0C0C05BC0803B09F486C038F422
:10185000803A09F466C0883A09F47FC0B4C0803C7D
:1018600009F4A7C0883C09F4A4C0883B09F48AC0E5
:10187000AAC080911A0610C090913C0680913B0648
:10188000981770F5E0913C0681E08E0F80933C063E
:10189000F0E0E55EF94F80818093BB0085EC86C067
:1018A00080933D068EC0E0913C0681E08E0F8093D0
:1018B0003C068091BB00F0E0E55EF94F808390919B
:1018C0003C0680913B066EC0E0913C0681E08E0FA5
:1018D00080933C068091BB00F0E0E55EF94F808389
:1018E0008091AF0281116DC081E08093AE0284EAE5
:1018F00061C083E08093B00210921706CFCF809131
:101900001706803208F051C0E091170681E08E0F73
:10191000809317068091BB00F0E0E950FA4F808376
:10192000BDCF85EC8093BC001092B0028091170669
:10193000803230F4E0911706F0E0E950FA4F10825F
:101940006091170670E0E091F505F091F60587EFDC
:1019500095E019951092170636C084E08093B00286
:101960001092F4051092F305E091F105F091F20563
:1019700019958091F305811105C081E08093F305ED
:101980001092D105E091F40581E08E0F8093F4056B
:10199000F0E0EF52FA4F80818093BB009091F40504
:1019A0008091F305981708F479CF85E88093BC00FF
:1019B0000AC085EC8093BC001092B00204C0109263
:1019C0003D060E946E09FF91EF91BF91AF919F91EB
:1019D0008F917F916F915F914F913F912F910F90D8
:1019E0000BBE0F900FBE0F901F9018954091F305FE
:1019F000262F30E0240F311D21323105DCF42091F7
:101A0000B0022430C9F4FC0180E090E0861758F45D
:101A10003091F3052191DC01AF52BA4FA30FB11DF4
:101A20002C930196F3CF8091F305680F6093F30533
:101A300080E0089581E0089582E008959091A302E6
:101A40008091A202981750F4E92FF0E0EE57FD4F75
:101A5000208130E09F5F9093A30202C02FEF3FEF01
:101A6000C90108958091A20290E02091A302821BF7
:101A7000910908953FB7F8948091500690915106CE
:101A8000A0915206B091530626B5A89B05C02F3FE2
:101A900019F00196A11DB11D3FBFBA2FA92F982F94
:101AA0008827820F911DA11DB11DBC01CD0142E00F
:101AB000660F771F881F991F4A95D1F70895CF9217
:101AC000DF92EF92FF920F931F93CF93DF936C01FE
:101AD0007A018B01C0E0D0E0CE15DF0589F0D80196
:101AE0006D918D01D601ED91FC910190F081E02D79
:101AF000C6011995892B11F47E0102C02196ECCF05
:101B0000C701DF91CF911F910F91FF90EF90DF9070
:101B1000CF900895CF92DF92EF92FF920F931F9391
:101B2000CF93DF937C01262F972F8A018091B102FA
:101B3000882391F0C62FD72F6E01C40ED51ECC1569
:101B4000DD0571F06991D701ED91FC910190F08173
:101B5000E02DC7011995F3CF642F822F0E94F60C58
:101B6000C801DF91CF911F910F91FF90EF90DF900F
:101B7000CF900895CF93DF931F92CDB7DEB76983DF
:101B80002091B1022223D1F02091D402203240F0E2
:101B900021E030E0FC013383228380E090E015C037
:101BA0008091B202E82FF0E0ED54FD4F99819083CF
:101BB0008F5F8093B2028093D40205C061E0CE01B2
:101BC00001960E94F60C81E090E00F90DF91CF919A
:101BD00008950E94FE1781EE92E00E94010221E02A
:101BE000892B09F420E0822F0895362F90E0FC0124
:101BF000E354FD4F4491FC01E958FD4F2491FC0151
:101C0000EF5CFD4F9491992309F46BC0442309F4D0
:101C100055C050E0FA013197E231F10508F04EC0AD
:101C20008827EC57FF4F8F4F0C94C1148091800090
:101C30008F7707C0809180008F7D03C080918000E6
:101C4000877F809380003AC084B58F7702C084B5C7
:101C50008F7D84BD33C08091B0008F7703C08091A9
:101C6000B0008F7D8093B00029C0809190008F7765
:101C700007C0809190008F7D03C080919000877F86
:101C8000809390001BC08091A0008F7707C0809147
:101C9000A0008F7D03C08091A000877F8093A0006B
:101CA0000DC0809120018F7707C0809120018F7D2A
:101CB00003C080912001877F80932001E92FF0E00D
:101CC000EE0FFF1FE95EFD4FA591B4918FB7F89419
:101CD000EC91311103C020952E2301C02E2B2C93A3
:101CE0008FBF0895CF93DF9390E0FC01E958FD4F3B
:101CF0002491FC01EF5CFD4F8491882361F190E019
:101D0000880F991FFC01E350FE4FC591D491FC014F
:101D1000E95EFD4FA591B491611109C09FB7F89498
:101D20008881209582238883EC912E230BC062301A
:101D300061F49FB7F8943881822F8095832388833C
:101D4000EC912E2B2C939FBF06C08FB7F894E8819F
:101D50002E2B28838FBFDF91CF9108951F920F9272
:101D60000FB60F9211242F933F938F939F93AF93AE
:101D7000BF9380914C0690914D06A0914E06B09174
:101D80004F0630914B0623E0230F2D3720F40196A8
:101D9000A11DB11D05C026E8230F0296A11DB11D8E
:101DA00020934B0680934C0690934D06A0934E06CD
:101DB000B0934F068091500690915106A091520623
:101DC000B09153060196A11DB11D809350069093CA
:101DD0005106A0935206B0935306BF91AF919F91C5
:101DE0008F913F912F910F900FBE0F901F901895DC
:101DF0001F920F920FB60F9211240BB60F922F93D2
:101E00003F934F935F936F937F938F939F93AF9382
:101E1000BF93EF93FF938091430690914406A09166
:101E20004506B0914606892B8A2B8B2B59F1809160
:101E30004206E0914006F091410690818927808317
:101E40008091430690914406A0914506B0914606C4
:101E5000181619061A061B060CF056C08091430688
:101E600090914406A0914506B09146060197A109BC
:101E7000B1098093430690934406A0934506B0931E
:101E8000460642C080910802ECEFF1E0E4919FEF3A
:101E900090930802E230C9F050F4EE2399F0E1305B
:101EA00081F590916F009D7F90936F002AC0E43080
:101EB00019F1E0F0E53029F5909173009D7F909342
:101EC00073001FC010926E001CC0909170009D7F27
:101ED0009093700091E09093B0009091B100987F42
:101EE00094609093B1001092B3000BC09091710078
:101EF0009D7F9093710005C0909172009D7F90939B
:101F0000720060E00E94F50DFF91EF91BF91AF91DB
:101F10009F918F917F916F915F914F913F912F9101
:101F20000F900BBE0F900FBE0F901F9018951F9231
:101F30000F920FB60F9211240BB60F922F933F936F
:101F40004F935F936F937F938F939F93AF93BF93C1
:101F5000EF93FF9381EE92E00E94EE03FF91EF91E9
:101F6000BF91AF919F918F917F916F915F914F91B1
:101F70003F912F910F900BBE0F900FBE0F901F90AF
:101F800018958091490590914A050C947D16109200
:101F9000D8021092D70288EE93E0A0E0B0E08093E0
:101FA000D9029093DA02A093DB02B093DC022BE11A
:101FB00032E03093D6022093D5021092E4021092C0
:101FC000E3028093E5029093E602A093E702B093C8
:101FD000E8022DE232E03093E2022093E10245E391
:101FE00051E05093EE024093ED0244E351E05093F0
:101FF000F0024093EF0240E351E05093F20240932D
:10200000F10241E351E05093F4024093F30242E3C2
:1020100051E05093F6024093F50246E351E05093AD
:10202000F8024093F7021092FA021092FB0210920B
:10203000FC021092FD0210928103109280038093A3
:10204000820390938303A0938403B093850330931A
:102050007F0320937E0345ED50E050938B03409324
:102060008A0344ED50E050938D0340938C0340ED80
:1020700050E050938F0340938E0341ED50E0509316
:1020800091034093900342ED50E0509393034093AB
:10209000920346ED50E050939503409394031092C1
:1020A0009703109298031092990310929A0310923A
:1020B0001E0410921D0480931F0490932004A0938B
:1020C0002104B093220430931C0420931B0485EC5C
:1020D00090E0909328048093270484EC90E0909300
:1020E0002A048093290480EC90E090932C04809340
:1020F0002B0481EC90E090932E0480932D0482ECCD
:1021000090E09093300480932F0486EC90E09093BD
:1021100032048093310410923404109235041092EA
:102120003604109237048DE090E00E94E815FC011F
:10213000138212828FE392E091838083118687E27B
:10214000848384E1828784E083871486F093CE05BC
:10215000E093CD051092CF051092D0058CE08093CE
:10216000B40584E28093B5058BE18093B6058DE1DB
:102170008093B7058AE18093B8058CE18093B90517
:1021800086E38093BA0587E38093BB0588E3809359
:10219000BC0589E38093BD0580E48093C00510925F
:1021A000C5051092C6051092C7051092C805109279
:1021B000C9051092CA051092CB051092CC058091EA
:1021C0004805803320F09FEF9093AE0511C08093B7
:1021D000AE05282F30E0F901EE0FFF1F2E0F3F1F35
:1021E000F901E854FB4F28EB3BE0328321838F5FFA
:1021F000803390F48093B105282F30E0F901EE0F81
:10220000FF1F2E0F3F1FF901E854FB4F28EB3BE067
:10221000328321838F5F03C09FEF9093B10580933A
:102220004805EFE4F5E08FEF9FEFDC0112821382A7
:1022300014821582168217821086118683879487EE
:10224000A587B6878787908BA18BB28B1286118268
:102250001082739625E0EE3AF20741F710924A0594
:102260001092490510924C0510924B0510924E05A4
:1022700010924D0561E070E080E090E00E9415173B
:10228000009789F090934A058093490510924C0578
:1022900010924B0520914D0530914E05232BC1F432
:1022A000FC01108215C08091490590914A05009764
:1022B00011F00E947D1610924A0510924905109265
:1022C0004E0510924D0510924C0510924B05089545
:1022D00010924E0510924D0569E472E00C940C18B2
:1022E000789484B5826084BD84B5816084BD85B5F1
:1022F000826085BD85B5816085BD80916E008160FD
:1023000080936E00109281008091810082608093A2
:1023100081008091810081608093810080918000A4
:102320008160809380008091B10084608093B100CF
:102330008091B00081608093B000809191008260B4
:1023400080939100809191008160809391008091B1
:1023500090008160809390008091A10082608093C2
:10236000A1008091A10081608093A1008091A000D4
:1023700081608093A000809121018260809321017F
:1023800080912101816080932101809120018160F1
:102390008093200180917A00846080937A008091FC
:1023A0007A00826080937A0080917A0081608093C5
:1023B0007A0080917A00806880937A001092C10040
:1023C0000E94990986E08093A4028FE18093A50280
:1023D00061E086E00E94720E61E08091A5020E9499
:1023E000720E85E08093A6028EE18093A70261E0E1
:1023F00085E00E94720E61E08091A7020E94720E39
:1024000045E463E288EA92E00E94750644E462E2F1
:102410008AEA92E00E94750686E18093470687E18A
:102420008093480660E086E10E94720E61E0809130
:1024300048060E94720E60E0809148060E94F50DE9
:1024400088E18093490689E180934A0660E088E14B
:102450000E94720E61E080914A060E94720E60E056
:1024600080914A060E94F50D61E08091B5050E94B9
:10247000720E60E08091B5050E94F50D60E08091DC
:10248000B4050E94720E85ED92E09093BF05809393
:10249000BE051092A3021092A2021092B2021092F4
:1024A000D4021092B00281E08093AF021092AE028B
:1024B00061E084E10E94F50D61E085E10E94F50D87
:1024C0008091B9008E7F8093B9008091B9008D7F93
:1024D0008093B90088E48093B80085E48093BC00C1
:1024E00080E090E1A0E0B0E08093C1059093C20548
:1024F000A093C305B093C4058AE090E0A0E0B0E0EB
:102500008093C5059093C605A093C705B093C805F1
:1025100082E090E0A0E0B0E08093C9059093CA0506
:10252000A093CB05B093CC0560E070E185E00E94FC
:102530001E0A6FE979E380E00E941E0AC6EBD5E02F
:102540001C2F1C5F60E089910E94720E1C13FACF51
:1025500088EA92E00E94E5058AEA92E00E94E50599
:102560000E94990988EC90E00E9490070E94780BE5
:1025700088E290E00E94900760E070E084EB92E4D3
:102580000E94060984E190E00E94900760E070E0FC
:1025900084EB92E40E9406098EE190E00E9490078D
:1025A0000E94780B88E090E00E94900760E070E065
:1025B0008CE092E40E94060988E290E00E94900775
:1025C0000E94780B82E390E00E94900760E070E048
:1025D00088E492E40E94060982E390E00E9490075A
:1025E00060E070E080E991E40E94060982E390E0F7
:1025F0000E94900788EA92E00E94E5058AEA92E04C
:102600000E94E5054DEC5CEC6CEC7EEB84EA92E01C
:102610000E94CC044DEC5CEC6CEC7EEB86EA92E024
:102620000E94CC048AEA92E00E9410067093AD02E8
:102630006093AC0288EA92E00E9410069B01AC0114
:1026400088279927DC01821B930BA40BB50B909371
:102650003F0680933E066091AC027091AD02072E5A
:10266000000C880B990B0E94821327EC31EF43E892
:1026700055E40E947B1387FDD5CF67EC71EF83E8AB
:1026800095E40E94B10A40E050E0BA0184EA92E089
:102690000E94CC0440E050E060E070E886EA92E0FE
:1026A0000E94CC040E943A0D4B015C018AE0C82EC6
:1026B000D12CE12CF12C0E943A0DDC01CB018819C0
:1026C0009909AA09BB09883E9340A105B10558F0B4
:1026D00031E0C31AD108E108F10848EE840E43E066
:1026E000941EA11CB11CC114D104E104F10419F71A
:1026F0000E942402D7CF0E94BD1308F481E0089500
:10270000E89409C097FB3EF490958095709561958B
:102710007F4F8F4F9F4F9923A9F0F92F96E9BB2741
:102720009395F695879577956795B795F111F8CFBD
:10273000FAF4BB0F11F460FF1BC06F5F7F4F8F4F28
:102740009F4F16C0882311F096E911C0772321F01E
:102750009EE8872F762F05C0662371F096E8862FB6
:1027600070E060E02AF09A95660F771F881FDAF70D
:10277000880F9695879597F90895990F0008550F3A
:10278000AA0BE0E8FEEF16161706E807F907C0F0F7
:1027900012161306E407F50798F0621B730B840BFF
:1027A000950B39F40A2661F0232B242B252B21F4D9
:1027B00008950A2609F4A140A6958FEF811D811D79
:1027C00008950E94F4130C9465140E94571438F075
:1027D0000E945E1420F0952311F00C944E140C947A
:1027E000541411240C9499140E94761470F3959F3C
:1027F000C1F3950F50E0551F629FF001729FBB27F8
:10280000F00DB11D639FAA27F00DB11DAA1F649F93
:102810006627B00DA11D661F829F2227B00DA11D46
:10282000621F739FB00DA11D621F839FA00D611DCC
:10283000221F749F3327A00D611D231F849F600DED
:10284000211D822F762F6A2F11249F5750409AF016
:10285000F1F088234AF0EE0FFF1FBB1F661F771FA2
:10286000881F91505040A9F79E3F510580F00C946D
:102870004E140C9499145F3FE4F3983ED4F386957C
:1028800077956795B795F795E7959F5FC1F7FE2B0D
:10289000880F911D9695879597F9089597F99F67E9
:1028A00080E870E060E008959FEF80EC08950024D8
:1028B0000A941616170618060906089500240A94A5
:1028C00012161306140605060895092E0394000C2B
:1028D00011F4882352F0BB0F40F4BF2B11F460FFBA
:1028E00004C06F5F7F4F8F4F9F4F089557FD9058E3
:1028F000440F551F59F05F3F71F04795880F97FBC4
:10290000991F61F09F3F79F087950895121613067D
:102910001406551FF2CF4695F1DF08C016161706AC
:102920001806991FF1CF86957105610508940895E1
:10293000E894BB2766277727CB0197F90895A1E292
:102940001A2EAA1BBB1BFD010DC0AA1FBB1FEE1F29
:10295000FF1FA217B307E407F50720F0A21BB30B74
:10296000E40BF50B661F771F881F991F1A9469F7F0
:1029700060957095809590959B01AC01BD01CF014C
:102980000895EE0FFF1F881F8BBF0790F691E02D73
:1029900019945058BB27AA270E94E1140C9465147F
:1029A0000E94571438F00E945E1420F039F49F3FC3
:1029B00019F426F40C9454140EF4E095E7FB0C94EF
:1029C0004E14E92F0E94761458F3BA176207730762
:1029D0008407950720F079F4A6F50C9498140EF46A
:1029E000E0950B2EBA2FA02D0B01B90190010C011F
:1029F000CA01A0011124FF27591B99F0593F50F437
:102A0000503E68F11A16F040A22F232F342F44278E
:102A1000585FF3CF469537952795A795F040539586
:102A2000C9F77EF41F16BA0B620B730B840BBAF056
:102A30009150A1F0FF0FBB1F661F771F881FC2F7C1
:102A40000EC0BA0F621F731F841F48F487957795D5
:102A50006795B795F7959E3F08F0B0CF9395880F8F
:102A600008F09927EE0F9795879508950E944A15CB
:102A70000C9465140E945E1458F00E94571440F0A4
:102A800029F45F3F29F00C944E1451110C949914C1
:102A90000C9454140E94761468F39923B1F35523CF
:102AA00091F3951B550BBB27AA2762177307840761
:102AB00038F09F5F5F4F220F331F441FAA1FA9F3F7
:102AC00035D00E2E3AF0E0E832D091505040E695E5
:102AD000001CCAF72BD0FE2F29D0660F771F881F46
:102AE000BB1F261737074807AB07B0E809F0BB0B39
:102AF000802DBF01FF2793585F4F3AF09E3F51054D
:102B000078F00C944E140C9499145F3FE4F3983EC3
:102B1000D4F3869577956795B795F7959F5FC9F735
:102B2000880F911D9695879597F90895E1E0660FB6
:102B3000771F881FBB1F621773078407BA0720F02F
:102B4000621B730B840BBA0BEE1F88F7E095089598
:102B50000E94AF156894B1110C94991408950E94C5
:102B60007E1488F09F5798F0B92F9927B751B0F08D
:102B7000E1F0660F771F881F991F1AF0BA95C9F701
:102B800014C0B13091F00E949814B1E008950C94F3
:102B90009814672F782F8827B85F39F0B93FCCF3A6
:102BA000869577956795B395D9F73EF4909580957E
:102BB000709561957F4F8F4F9F4F08950E94BD1371
:102BC00008F48FEF08950E94BD13880B990B0895A8
:102BD000CF93DF938230910510F482E090E0E09192
:102BE0005606F091570620E030E0C0E0D0E0309784
:102BF00011F14081518148175907C0F04817590712
:102C000061F482819381209719F09B838A832BC082
:102C1000909357068093560626C02115310519F06A
:102C20004217530718F49A01BE01DF01EF01028039
:102C3000F381E02DDCCF2115310509F1281B390B7B
:102C40002430310590F412968D919C911397611563
:102C5000710521F0FB019383828304C09093570692
:102C600080935606FD01329644C0FD01E20FF31F2A
:102C700081939193225031092D933C933AC0209136
:102C8000540630915506232B41F420910B023091CC
:102C90000C0230935506209354062091090230917E
:102CA0000A022115310541F42DB73EB740910D02BE
:102CB00050910E02241B350BE0915406F0915506FD
:102CC000E217F307A0F42E1B3F0B2817390778F003
:102CD000AC014E5F5F4F2417350748F04E0F5F1F62
:102CE00050935506409354068193919302C0E0E0BF
:102CF000F0E0CF01DF91CF9108950F931F93CF9311
:102D0000DF93009709F48CC0FC0132971382128282
:102D100000915606109157060115110581F4208186
:102D20003181820F931F2091540630915506281748
:102D3000390779F5F0935506E093540671C0D80130
:102D400040E050E0AE17BF0750F412962D913C9131
:102D50001397AD012115310509F1D901F3CF9D017B
:102D6000DA013383228360817181860F971F821776
:102D7000930769F4EC0128813981260F371F2E5FF4
:102D80003F4F318320838A819B8193838283452BAC
:102D900029F4F0935706E093560642C01396FC932D
:102DA000EE931297ED01499159919E01240F351F21
:102DB000E217F30771F480819181840F951F0296C9
:102DC00011969C938E938281938113969C938E93FC
:102DD0001297E0E0F0E0D80112968D919C91139744
:102DE000009719F0F8018C01F6CF8D919C91980114
:102DF0002E5F3F4F820F931F20915406309155064E
:102E00002817390769F4309729F410925706109261
:102E1000560602C013821282109355060093540680
:102E2000DF91CF911F910F9108956F927F928F92B2
:102E30009F92AF92BF92CF92DF92EF92FF920F9349
:102E40001F93CF93DF93EC01009789F4CB01DF91BF
:102E5000CF911F910F91FF90EF90DF90CF90BF9097
:102E6000AF909F908F907F906F900C94E815FC012D
:102E7000E60FF71F9C0122503109E217F30708F40F
:102E8000ACC0D9010D911C91119706171707B0F02E
:102E90000530110508F49FC0C801049786179707ED
:102EA00008F499C002501109061B170B01931193E6
:102EB0006D937C93CF010E947D168DC05B01A01A9B
:102EC000B10A4C01800E911EA0915606B091570692
:102ED00040E050E0E12CF12C109709F44AC0A8150D
:102EE000B905D1F56D907C901197630182E0C80E11
:102EF000D11CCA14DB0480F1A3014A195B096A01E1
:102F000082E0C80ED11C1296BC9012971396AC9119
:102F1000B5E0CB16D10440F0B282A3835183408345
:102F2000D9016D937C930AC00E5F1F4FC301800FC0
:102F3000911FF90191838083EB2DFA2FE114F104A5
:102F400031F0D7011396FC93EE93129744C0F0939F
:102F50005706E09356063FC08D919C9111974817F4
:102F6000590708F4AC017D0112960D90BC91A02D7B
:102F7000B3CF809154069091550688159905E1F4D8
:102F800046175707C8F48091090290910A020097EA
:102F900041F48DB79EB740910D0250910E02841BF3
:102FA000950BE817F907C8F4F0935506E09354061B
:102FB000F901718360830FC0CB010E94E8157C0189
:102FC000009759F0A801BE010E940318CE010E948B
:102FD0007D16C70104C0CE0102C080E090E0DF9101
:102FE000CF911F910F91FF90EF90DF90CF90BF9006
:102FF000AF909F908F907F906F90089581E090E0C8
:10300000F8940C941318FB01DC0102C001900D929E
:1030100041505040D8F70895FB01DC0101900D921A
:103020000020E1F7089511E0C3E8D1E000E006C018
:10303000802FFE010E94C1142196011DC438D107C2
:0A30400080E00807A9F7F894FFCF1D
:10304A00CDCC4C3D9A99193FFF000058062000004C
:10305A00007A45CDCCCC3E00000000BA0D8A0D594D
:10306A00027809320D1E0D79090000000063045F21
:10307A000DD001AA040102DF01F301000000004B98
:10308A00035F0D590258020D0A0046494E49206154
:10309A0076616E636572006E616E00696E66006FBE
:0430AA007666000046
:00000001FF
