:100000000C94D2010C9403020C9403020C9403028E
:100010000C9403020C9403020C9403020C9403024C
:100020000C9403020C9443100C9443100C94431052
:100030000C9403020C947D070C9403020C940302AD
:100040000C9403020C94650B0C9403020C940302B1
:100050000C9403020C9403020C9403020C94B6114A
:100060000C9403020C94EE080C94C4080C94030244
:100070000C9403020C9403020C9403020C940302EC
:100080000C9403020C9403020C9403020C940302DC
:100090000C9403020C9403020C9403020C94A40C21
:1000A0000C9403020C9403020C9403020C940302BC
:1000B0000C9403020C9403020C9403020C94180990
:1000C0000C9403020C9403020C9403020C949A08FF
:1000D0000C9470080C9403020C9446080C941C08B1
:1000E0000C940302360A3B0A400A4A0A540ACD0A13
:1000F0005E0A660A6E0A780A820A8C0A9B0AA50AB8
:10010000CD0AAF0AB90AC30AE610E910D810DC100C
:10011000E2102011ED10F110F710FB10FF10051187
:1001200009110D112011131117111B11076342360C
:10013000B79BD8A71A39685618AEBAAB558C1D3C78
:10014000B7CC5763BD6DEDFD753EF6177231BF003C
:100150000000803F08000000BE922449123EABAA76
:10016000AA2ABECDCCCC4C3E00000080BEABAAAAD1
:10017000AA3E00000000BF000000803F0000000019
:1001800000084178D3BB4387D1133D190E3CC3BD52
:100190004282AD2B3E68EC8276BED98FE1A93E4CFF
:1001A00080EFFFBE01C4FF7F3F00000000000C9401
:1001B000FA180C9431060C94400A0C94ED100C942F
:1001C00058070C941C070C9413110C94E2100C9417
:1001D000DC100C9458020C94F4180C94A50A0C949E
:1001E000AF0A0C9428020C946E0A0C9409110C941A
:1001F000E6100C947C060C94540A0C940D110C948B
:10020000FF100C948C0A0C94780A0C94BC050C9486
:10021000C3060C94FB100C9400060C9423060C945B
:1002200005110C94F1100C94660A0C94D8100C94DF
:100230000F060C941D070C9419020C943B0A0C94A5
:100240001B110C94F7100C94820A0C94C30A0C94A2
:1002500022020C945E0A0C94B90A0C94E9100C94D6
:1002600021020C94CD0A0C9405020C949B0A0C9468
:100270004A0A0C94360A0C9417110C9420110200AF
:10028000002200250028002B002E0031003400023F
:10029000010000050108010B0100002000230026D9
:1002A0000029002C002F003200000100000301068D
:1002B00001090105050505070508080808020202ED
:1002C000020A0A08080404040401010101010101F1
:1002D000010303030303030303040707070C0C0CC8
:1002E0000C0C0C0C0C0202020206060606060606A0
:1002F000060B0B0B0B0B0B0B0B010210202008083D
:100300001020401020408002010201080402010177
:100310000204081020408080402010080402018060
:1003200004020180402010080402010804020101B7
:1003300002040810204080010204081020408000C0
:10034000000A0B02090C0D0E08070304010000004F
:10035000000000000000000000000000000000009D
:10036000000000000000000000000012111000005A
:10037000000000000000000000000000000000007D
:10038000000000000000002100240027002A002DAA
:10039000003000330001010000040107010A0100E0
:1003A000FA18F41811241FBECFEFD1E2DEBFCDBF83
:1003B00000E00CBF13E0A0E0B2E0E6E1F3E400E00F
:1003C0000BBF02C007900D92A631B107D9F728E004
:1003D000A6E1B3E001C01D92A133B207E1F711E03D
:1003E000C1EDD1E000E006C021970109802FFE0198
:1003F0000E94931CC03DD10780E00807A9F70E9426
:1004000000120C9479210C9400009091F9038091D2
:10041000F803981750F4E92FF0E0E650FC4F2081E4
:1004200030E09F5F9093F90302C02FEF3FEFC901C7
:1004300008958091F80390E02091F903821B9109BF
:100440000895089580E090E00895E0E0F0E01994C8
:10045000CF92DF92EF92FF920F931F93CF93DF9390
:100460007C01262F972F8A0180911D04882391F00B
:10047000C62FD72F6E01C40ED51ECC15DD0571F029
:100480006991D701ED91FC910190F081E02DC701B8
:100490001995F3CF642F822F0E94D60DC801DF91EA
:1004A000CF911F910F91FF90EF90DF90CF90089523
:1004B000CF93DF931F92CDB7DEB7698320911D04E0
:1004C0002223D1F020911A04203240F021E030E0C4
:1004D000FC013383228380E090E015C080911B04EF
:1004E000E82FF0E0E759FC4F998190838F5F80936C
:1004F0001B0480931A0405C061E0CE0101960E949E
:10050000D60D81E090E00F90DF91CF91089520917A
:100510001A0490911C04213208F04AC08091F7031C
:100520008111FCCF32E03093F70331E03093F603D2
:100530003FEF3093F5031092F4032093F303A9E601
:10054000B3E041ED53E0FA013E2F341B321718F4AB
:100550003D913193F9CF1092F2032091F203990F5C
:10056000922B9093F2039091F103913061F41092E9
:10057000F1039091F2039093BB009091BC0093FD26
:10058000F8CF95EC01C095EE9093BC009091F703E5
:100590009230E1F39091F5039F3F79F08091F5035C
:1005A000803241F08091F503803331F084E005C062
:1005B00081E003C082E001C083E010921B0410922E
:1005C0001A0410921D0408954F925F926F927F92C9
:1005D0008F929F92AF92BF92CF92DF92EF92FF9253
:1005E0000F931F93CF93DF9300D01F92CDB7DEB749
:1005F0004DEC5CEC6CE47EEB84E098E00E94D60964
:100600004DEC5CEC6CE47EE386E098E00E94D60959
:1006100068EE73E080E090E00E947C1188E098E052
:100620000E94140C8AE098E00E94140CC12CD12C7A
:100630007601B701A60184E098E00E94D609B701CF
:10064000A60186E098E00E94D60988E098E00E9422
:100650003F0C442455243201461A570A680A790A85
:10066000409265035092660360926703709268033C
:100670008AE098E00E943F0C0E94E31A22E538EBE2
:100680004EE75FE30E94421B0E941C1D4B015C0170
:100690006093610370936203809363039093640398
:1006A000C301B2010E94E31A2B013C012AEA3AEC91
:1006B0004EEF54E40E94521D18169CF42DEC3CECB5
:1006C0004CEC5DE3C701B6010E94521D1816F4F40C
:1006D0002DEC3CEC4CE45DE3C701B6010E94AF1C7D
:1006E00012C02DEC3CEC4CEC5EE3C701B6010E945D
:1006F000DC1A87FF12C02AE037ED43EA5BE3C7014B
:10070000B6010E94B01C6B017C0107C08DECC82EA5
:100710008CECD82EED2C8DE3F82E20E038E542E36A
:1007200055E4C301B2010E94521D18163CF440E08A
:1007300050E0BA0184E098E00E94D6096627772746
:10074000CB01681979098A099B090E94E31A4B01B8
:100750005C0120E038E542E355E40E94521D181682
:1007600044F440E050E060E070E886E098E00E94E9
:10077000D6096AE070E080E090E00E947C1120E001
:1007800038E542E355E4C301B2010E94DC1A87FD5B
:1007900050CF20E038E542E355E4C501B4010E94A2
:1007A000DC1A87FD46CF40E050E0BA0184E098E0D3
:1007B0000E94D60940E050E060E070E886E098E0F2
:1007C0000E94D60964E670E080E090E00E947C110F
:1007D00081E992E00E94080F86EA92E00E94D10E21
:1007E000609165037091660380916703909168033F
:1007F0000E94191080EB92E00E94D10E4AE065E25F
:100800007BE080E090E00E94CD0F8EE20E940E100F
:100810004AE065E070E080E090E00E94CD0F4AE0A1
:1008200060E070E0CB010E94CD0F81EC92E00E946D
:10083000BF0E84EC92E00E94D10E60916103709132
:10084000620380916303909164030E9419108EECFF
:1008500092E00E94080F6091650370916603809199
:100860006703909168030E94E31A20E038E542E3B1
:1008700055E40E94AF1C0E941C1D7093600360939E
:100880005F036091610370916203809163039091B3
:1008900064030E94E31A20E038E542E355E40E9435
:1008A000B01C0E941C1D70935E0360935D0380EE7C
:1008B00092E00E94D10E60915F0370916003072E59
:1008C000000C880B990B0E94191081EF92E00E9496
:1008D000D10E60915D0370915E03072E000C880BB2
:1008E000990B0E94191081EC92E00E94BF0E0091BA
:1008F0005D0310915E03EE24FF24E01AF10A88E004
:1009000098E00E94140C8AE098E00E94140CF7FE14
:1009100003C08FEF9FEF02C081E090E08E9D200129
:100920008F9D500C9E9D500C11249201550C440B30
:10093000550B29833A834B835C836C01990FEE0836
:10094000FF0888E098E00E943F0C9B01AC018827DB
:100950009927DC01821B930BA40BB50B80936503D5
:1009600090936603A0936703B09368038AE098E0CE
:100970000E943F0C4B015C01609361037093620322
:100980008093630390936403C701B6010E94E31A46
:100990002DEC3CEC4CEC5DE30E94421B2B013C0136
:1009A000AB01BC0184E098E00E94D609B301A2012A
:1009B000705886E098E00E94D609A5019401C7010D
:1009C000B6010E94631C29813A814B815C816217C8
:1009D0007307840795070CF4B4CF40E050E0BA01E8
:1009E00084E098E00E94D60940E050E060E070E8C2
:1009F00086E098E00E94D609800E911E90925E03D8
:100A000080925D0300915F0310916003EE24FF2448
:100A1000E01AF10A88E098E00E94140C8AE098E05D
:100A20000E94140CF7FE03C08FEF9FEF02C081E01D
:100A300090E08E9D20018F9D500C9E9D500C1124A6
:100A4000052C000C660877084C01990FAA08BB0812
:100A500088E098E00E943F0CCC24DD247601C61A81
:100A6000D70AE80AF90AC0926503D0926603E092B9
:100A70006703F09268038AE098E00E943F0C60935D
:100A80006103709362038093630390936403C501D1
:100A9000B4010E94E31A2DEC3CEC4CEC5DE30E94A7
:100AA000421BAB01BC0184E098E00E94D60940E003
:100AB00050E060E070E886E098E00E94D609A70167
:100AC0009601C501B4010E94631C64157505860575
:100AD00097050CF4BDCF40E050E0BA0184E098E007
:100AE0000E94D60940E050E060E070E886E098E0BF
:100AF0000E94D609C00ED11ED0926003C0925F033F
:100B000088EF92E00E94D10E60915F0370916003C4
:100B1000072E000C880B990B0E9419108DE093E0B2
:100B20000E94D10E60915D0370915E03072E000C50
:100B3000880B990B0E94191081EC92E00E94BF0E65
:100B400088E098E00E94140C8AE098E00F900F90E3
:100B50000F900F90DF91CF911F910F91FF90EF9029
:100B6000DF90CF90BF90AF909F908F907F906F90CD
:100B70005F904F900C94140CCF92DF92EF92FF9203
:100B80000F931F93CF93DF936C017A018B01C0E029
:100B9000D0E0CE15DF0589F0D8016D918D01D60129
:100BA000ED91FC910190F081E02DC6011995892B02
:100BB00011F47E0102C02196ECCFC701DF91CF91E5
:100BC0001F910F91FF90EF90DF90CF900895FC015F
:100BD000A089B1898C91A689B78982FD0FC09C91AB
:100BE000818D8F5F8F73228D821749F0218DDF01F8
:100BF000A20FB11D5D969C93818F08958C910895ED
:100C0000FC01538D448D252F30E0842F90E0821B12
:100C1000930B541710F0CF96089501970895FC0197
:100C2000918D828D981761F0828DDF01A80FB11D23
:100C30005D968C91928D9F5F9F73928F90E0089547
:100C40008FEF9FEF0895FC01918D828D981731F001
:100C5000828DE80FF11D858D90E008958FEF9FEF55
:100C60000895FC01918D228D892F90E0805C9F4F2B
:100C7000821B91098F73992708958EE194E00E9459
:100C8000310621E0892B09F420E0822F08958BEBB7
:100C900094E00E94310621E0892B09F420E0822FA4
:100CA000089588E595E00E94310621E0892B09F43A
:100CB00020E0822F0895FC01848DDF01A80FB11D73
:100CC000A35ABF4F2C91848D90E001968F73992782
:100CD000848FA689B7892C93A089B1898C9180646F
:100CE0008C93938D848D981306C00288F389E02D30
:100CF00080818F7D80830895EF92FF920F931F93E1
:100D0000CF93DF93EC0181E0888F9B8D8C8D9813BE
:100D100005C0E889F989808185FD24C0F62E0B8DF8
:100D200010E00F5F1F4F0F731127E02E8C8DE8121C
:100D30000CC00FB607FCFACFE889F989808185FFDE
:100D4000F5CFCE010E945B06F1CF8B8DFE01E80F3F
:100D5000F11DE35AFF4FF0820B8FEA89FB898081F6
:100D6000806207C0EE89FF896083E889F989808104
:100D70008064808381E090E0DF91CF911F910F919B
:100D8000FF90EF900895CF93DF93EC01888D882337
:100D9000C9F0EA89FB89808185FD05C0A889B989E8
:100DA0008C9186FD0FC00FB607FCF5CF808185FFC3
:100DB000F2CFA889B9898C9185FFEDCFCE010E9431
:100DC0005B06E7CFDF91CF91089580E090E0892B1B
:100DD00021F00E945106811119C080E090E0892B1A
:100DE00041F080E090E0892B21F00E940000811109
:100DF00010C00E94470681110FC080E090E0892B4F
:100E000081F00E943D0681110AC008950E940000F1
:100E1000E4CF0E940000EDCF0E942502EECF0C949B
:100E20000000089585ED8093BC008091BC0084FD96
:100E3000FCCF1092F70308950895E091F903809193
:100E4000F803E81730F4F0E0E650FC4F808190E0C2
:100E500008958FEF9FEF08950E946421FC01248183
:100E600031E030931D0420931C0410921B04109257
:100E70001A048485682B85EF95E00E94580285EF5F
:100E800095E00C9487020F931F93CF938C01C62F8C
:100E900064600E942E076C2F6B7FC8010E942E0792
:100EA00083EC90E00197F1F7CF911F910F91089596
:100EB0000F931F93CF93DF938C01C62FD62FD07F34
:100EC000D1606D2F0E942E076D2FC8010E9443072D
:100ED00080E1C89FB0011124C62FC1606C2FC801EA
:100EE0000E942E076C2FC8010E94430781E090E00A
:100EF000DF91CF911F910F9108951F920F920FB61E
:100F00000F9211240BB60F922F933F934F935F9341
:100F10006F937F938F939F93AF93BF93EF93FF93C1
:100F20008091190390911A03A0911B03B0911C03A7
:100F3000892B8A2B8B2B59F180911603E091170393
:100F4000F0911803908189278083809119039091F3
:100F50001A03A0911B03B0911C03181619061A0658
:100F60001B060CF056C08091190390911A03A091B2
:100F70001B03B0911C030197A109B10980931903C8
:100F800090931A03A0931B03B0931C0342C080915B
:100F90000002EEE7F2E0E4919FEF90930002E2306E
:100FA000C9F050F4EE2399F0E13081F590916F0093
:100FB0009D7F90936F002AC0E43019F1E0F0E53096
:100FC00029F5909173009D7F909373001FC010923C
:100FD0006E001CC0909170009D7F9093700091E016
:100FE0009093B0009091B100987F94609093B1007D
:100FF0001092B3000BC0909171009D7F909371008F
:1010000005C0909172009D7F9093720060E00E94F5
:101010007610FF91EF91BF91AF919F918F917F914A
:101020006F915F914F913F912F910F900BBE0F9059
:101030000FBE0F901F9018951F920F920FB60F9230
:1010400011240BB60F922F933F934F935F936F939F
:101050007F938F939F93AF93BF93EF93FF938EE113
:1010600094E00E945B06FF91EF91BF91AF919F9139
:101070008F917F916F915F914F913F912F910F9041
:101080000BBE0F900FBE0F901F9018951F920F92DE
:101090000FB60F9211240BB60F922F933F934F93DD
:1010A0005F936F937F938F939F93AF93BF93EF93D0
:1010B000FF938EE194E00E94E705FF91EF91BF91CD
:1010C000AF919F918F917F916F915F914F913F91E0
:1010D0002F910F900BBE0F900FBE0F901F90189581
:1010E0001F920F920FB60F9211240BB60F922F93EF
:1010F0003F934F935F936F937F938F939F93AF93A0
:10110000BF93EF93FF938BEB94E00E945B06FF91FC
:10111000EF91BF91AF919F918F917F916F915F916F
:101120004F913F912F910F900BBE0F900FBE0F90DC
:101130001F9018951F920F920FB60F9211240BB6A5
:101140000F922F933F934F935F936F937F938F9360
:101150009F93AF93BF93EF93FF938BEB94E00E9429
:10116000E705FF91EF91BF91AF919F918F917F9193
:101170006F915F914F913F912F910F900BBE0F9008
:101180000FBE0F901F9018951F920F920FB60F92DF
:1011900011240BB60F922F933F934F935F936F934E
:1011A0007F938F939F93AF93BF93EF93FF9388E5C4
:1011B00095E00E945B06FF91EF91BF91AF919F91E7
:1011C0008F917F916F915F914F913F912F910F90F0
:1011D0000BBE0F900FBE0F901F9018951F920F928D
:1011E0000FB60F9211240BB60F922F933F934F938C
:1011F0005F936F937F938F939F93AF93BF93EF937F
:10120000FF9388E595E00E94E705FF91EF91BF917C
:10121000AF919F918F917F916F915F914F913F918E
:101220002F910F900BBE0F900FBE0F901F9018952F
:101230001F920F920FB60F9211240BB60F922F939D
:101240003F934F935F936F937F938F939F93AF934E
:10125000BF93EF93FF93809102060E944D1020915F
:101260000606309107062F5F3F4F30930706209305
:10127000060690910506953618F096E090930106C3
:10128000909101069430C9F128F4923069F09330BE
:10129000D1F05EC0953009F451C0963009F058C0C5
:1012A00091E09093D20651C0811152C02091060660
:1012B000309107062436310508F442C01092D20658
:1012C000109205061CC0813009F042C0E09105066D
:1012D00091E09E0F90930506F0E020910606309174
:1012E0000706EE0FFF1FEF5FF94F3087278310923D
:1012F00007061092060694E029C0811117C0E091FC
:10130000050691E09E0F90930506F0E020910606F9
:1013100030910706EE0FFF1FEF5FF94F30872783ED
:10132000109207061092060693E010C02091060660
:10133000309107062536310558F007C0811108C0E5
:10134000109207061092060603C095E090930106DE
:10135000909104069923B9F081110AC08091030687
:10136000882321F08091030661E009C02F9A0BC009
:1013700080910306882331F08091030660E00E948B
:10138000761001C02F98FF91EF91BF91AF919F917F
:101390008F917F916F915F914F913F912F910F901E
:1013A0000BBE0F900FBE0F901F9018958F929F92BB
:1013B000AF92BF92CF92DF92EF92FF920F931F9363
:1013C000CF93DF93EC016A017B0120E030E04FE72F
:1013D00053E4C701B6010E94421B4B015C0120E0AF
:1013E00030E0A9010E94521D18161CF4C501B40179
:1013F00003C0C501B40190580E941C1D8B0120E060
:1014000030E0A901C701B6010E94521D181614F45C
:1014100060E001C061E089810E9476100F3F1105F4
:1014200009F014F4112702C00FEF10E0C88161E049
:101430008C2F0E9421110115110509F4B1C00F3F35
:10144000110509F4AFC0EC2FF0E0E15CFC4FE49132
:101450004E2F50E0FA013197E231F10508F09DC0BE
:101460008827EE58FF4F8F4F0C94931C84B58068EB
:1014700084BD07BDA7C084B5806284BD08BDA2C07D
:101480008091800080688093800010938900009391
:10149000880098C0809180008062809380001093C3
:1014A0008B0000938A008EC08091800088608093BA
:1014B000800010938D0000938C0084C08091B00058
:1014C00080688093B0000093B3007CC08091B0002E
:1014D00080628093B0000093B40074C0809190004B
:1014E00080688093900010939900009398006AC0E0
:1014F0008091900080628093900010939B000093F5
:101500009A0060C080919000886080939000109352
:101510009D0000939C0056C08091A000806880933D
:10152000A0008091A0008F7B8093A0001093A90061
:101530000093A80047C08091A00080628093A00023
:101540001093AB000093AA003DC08091A00088607A
:101550008093A0001093AD000093AC0033C0809145
:1015600020018068809320011093290100932801B5
:1015700029C08091200180628093200110932B016B
:1015800000932A011FC08091200188608093200170
:1015900010932D0100932C0115C00038110514F48F
:1015A00060E001C061E08C2FDF91CF911F910F911E
:1015B000FF90EF90DF90CF90BF90AF909F908F9073
:1015C0000C947610DF91CF911F910F91FF90EF90C7
:1015D000DF90CF90BF90AF909F908F900895CF9263
:1015E000DF92EF92FF92CF93DF93FC01C081CC306A
:1015F00008F064C0D0E085E08C9FF0018D9FF00D75
:101600001124ED52F94F838128E830E06901C81AAE
:10161000D10887FDD394CC0CDD1CCC0CDD1C683CC0
:1016200071053CF50D2C000CEE08FF08848128E5BF
:1016300032E0281B310987FD3395220F331F220F1B
:10164000331FC901330FAA0BBB0B9C01AD012C1931
:101650003D094E095F09DB010E942A1C24EB30E0A2
:1016600040E050E00E94001CC20ED31EE41EF51E96
:1016700013C06C157D0584F0848128E532E0690192
:10168000C81AD10887FDD394CC0CDD1CCC0CDD1C12
:101690006C157D050CF46B018FB7F89495E09C9F59
:1016A000F0019D9FF00D1124ED52F94F96E0C91AFB
:1016B000D108CC0CDD1CD282C1828FBFDF91CF91CB
:1016C000FF90EF90DF90CF9008951F920F920FB68A
:1016D0000F9211240BB60F922F933F934F935F936A
:1016E0006F937F938F939F93AF93BF93EF93FF93EA
:1016F0008091D00387FF05C010928500109284006E
:1017000016C02091D003022E000C330B80910F07DE
:1017100090E0281739075CF43091D00325E03203BC
:10172000F0011124ED52F94F808186FD15C08091A2
:10173000D0038F5F8093D0032091D003022E000C42
:10174000330B80910F0790E02817390794F48091AC
:10175000D0038C302CF10DC03091D0033203F00156
:101760001124ED52F94F808160E08F730E94761052
:10177000DECF809184009091850084349C4918F4D8
:1017800080E49CE905C080918400909185000496D6
:1017900090938900809388008FEF8093D0032AC0B4
:1017A00040918400509185003091D00325E03203B0
:1017B000F0011124ED52F94F81819281840F951F20
:1017C00090938900809388003091D0033203F00118
:1017D0001124ED52F94F808186FF0CC03091D00367
:1017E0003203F0011124ED52F94F808161E08F73D3
:1017F0000E947610FF91EF91BF91AF919F918F91D1
:101800007F916F915F914F913F912F910F900BBE00
:101810000F900FBE0F901F9018958EBD00000DB455
:1018200007FEFDCF8EB50895CF93DF93EC0160E006
:1018300088810E94761088E90E940D0C80E00E9449
:101840000D0C80E00E940D0C80E00E940D0C80E0E9
:101850000E940D0C61E088810E9476108BE891E077
:101860000197F1F760E088810E94761080EE0E9477
:101870000D0C61E08881DF91CF910C947610AF92CE
:10188000BF92CF92DF92EF92FF920F931F93CF936D
:10189000DF93CDB7DEB760970FB6F894DEBF0FBE0B
:1018A000CDBF5C0160E0FC0180810E94761080E683
:1018B0000E940D0C8E010F5F1F4F7E01F1E1EF0EB4
:1018C000F11C680180E00E940D0C90E0A0E0B0E007
:1018D000F60181939193A193B1936F01EE15FF05EA
:1018E00089F761E0F50180810E94761080E090E048
:1018F000DC01F80141915191619171918F01BA2FF1
:10190000A92F982F8827840F951FA61FB71FEE15A4
:10191000FF0579F79C01AD0166277727CB01621B94
:10192000730B840B950B60960FB6F894DEBF0FBE59
:10193000CDBFDF91CF911F910F91FF90EF90DF907E
:10194000CF90BF90AF9008951F920F920FB60F9255
:1019500011240BB60F922F933F934F935F936F9386
:101960007F938F939F93AF93BF93EF93FF93809158
:10197000B900887F803609F49CC068F5883209F484
:101980005BC090F4803109F454C038F4882309F422
:10199000F6C0883009F44DC0F6C0883109F44CC057
:1019A000803209F45DC0EFC0803409F468C048F4A7
:1019B000803309F455C0883309F0E5C08093F503FE
:1019C000D8C0803509F44FC0883509F45DC088342B
:1019D00009F0D9C0D6C0883909F4C7C0A8F488373F
:1019E00009F467C038F4883609F463C0803709F415
:1019F00060C0C9C0883809F4B8C0803909F45FC034
:101A0000803809F0C0C05BC0803B09F486C038F460
:101A1000803A09F466C0883A09F47FC0B4C0803CBB
:101A200009F4A7C0883C09F4A4C0883B09F48AC023
:101A3000AAC08091F20310C09091F4038091F30347
:101A4000981770F5E091F40381E08E0F8093F40312
:101A5000F0E0EF52FC4F80818093BB0085EC86C0A4
:101A60008093F5038EC0E091F40381E08E0F8093A4
:101A7000F4038091BB00F0E0EF52FC4F8083909123
:101A8000F4038091F3036EC0E091F40381E08E0FC4
:101A90008093F4038091BB00F0E0EF52FC4F808311
:101AA0008091F60381116DC081E08093F10384EA97
:101AB00061C083E08093F7031092CF03CFCF809172
:101AC000CF03803208F051C0E091CF0381E08E0F48
:101AD0008093CF038091BB00F0E0E155FC4F808301
:101AE000BDCF85EC8093BC001092F7038091CF03AB
:101AF000803230F4E091CF03F0E0E155FC4F1082EA
:101B00006091CF0370E0E091AD03F091AE038FEAF6
:101B100093E019951092CF0336C084E08093F703C9
:101B20001092AC031092AB03E091A903F091AA03C9
:101B300019958091AB03811105C081E08093AB03BF
:101B400010928903E091AC0381E08E0F8093AC0387
:101B5000F0E0E757FC4F80818093BB009091AC038D
:101B60008091AB03981708F479CF85E88093BC0087
:101B70000AC085EC8093BC001092F70304C0109259
:101B8000F5030E941207FF91EF91BF91AF919F91D2
:101B90008F917F916F915F914F913F912F910F9016
:101BA0000BBE0F900FBE0F901F9018954091AB0386
:101BB000262F30E0240F311D21323105DCF4209135
:101BC000F7032430C9F4FC0180E090E0861758F454
:101BD0003091AB032191DC01A757BC4FA30FB11D7E
:101BE0002C930196F3CF8091AB03680F6093AB0306
:101BF00080E0089581E0089582E008951092F7034F
:101C000081E08093F6031092F10361E084E10E9489
:101C1000761061E085E10E947610E9EBF0E08081CA
:101C20008E7F808380818D7F808388E48093B8005D
:101C300085E48093BC00089591E090931D0494E79F
:101C400090931C0410921B0410921A04682F85EFC5
:101C500095E00E94580285EF95E00E9487028091EE
:101C6000F7038111FCCF81E08093F7038093F603A3
:101C70009FEF9093F5031092F4031092F303809377
:101C8000F2038091F203886E8093F2038091F10356
:101C9000813061F41092F1038091F2038093BB00D4
:101CA0008091BC0083FDF8CF85EC01C085EE809368
:101CB000BC008091F7038130E1F38091F40381113E
:101CC00003C08091F40301C081E0A1EDB3E02AEFED
:101CD00033E0F9019E2F921B981718F49D91919370
:101CE000F9CF1092F9038093F803811101C0FFCF5F
:101CF00085EF95E00E9405020895E8E5F5E0A089EA
:101D0000B18982E08C93A485B5851C92A685B785A0
:101D10008FEC8C93108EA489B58986E08C93A28970
:101D2000B3898C9180618C93A289B3898C918860EE
:101D30008C93A289B3898C9180688C930288F389F3
:101D4000E02D80818F7D80830895CF93C82F81E01F
:101D500080931D0484E780931C0410921B0410924E
:101D60001A0485EF95E00E9458026C2F85EF95E0EC
:101D70000E94580285EF95E0CF910C94870200975E
:101D800069F0FC0101900020E9F73197AF01481B91
:101D9000590BBC0188E595E00C94BC0580E090E00F
:101DA00008950C94BF0E0F931F93CF93C82F8B01F0
:101DB0006115704164F46C2F802F0E94A50E61E0C4
:101DC0006C0F812FCF911F910F910C94A50ECF9185
:101DD0001F910F91089560E081E00E94A50E80E0C0
:101DE0000E941C0E8111FBCF0895CF93DF93C82F63
:101DF0000E941C0ED82F81E08C0F0E941C0E282FF1
:101E000030E0922F88278D0F911DDF91CF9108959B
:101E1000CF93DF930E94BF0EEC0181EC92E00E9411
:101E2000BF0E8C0F9D1FDF91CF9108951F93CF930D
:101E3000DF93EC01162F88818C3008F04DC061E0F3
:101E4000812F0E942111E88195E09E9FF0011124CD
:101E5000ED52F94F1F738081807C182B1083138201
:101E6000E8819E9FF0011124ED52F94F1482888180
:101E70006CE00E94731C9CE0899FA001112420E06B
:101E800030E095E0B901640F751F969FF001979FB0
:101E9000F00D1124ED52F94F608166FD13C02F5FE4
:101EA0003F4F2C30310571F781110CC0109280002A
:101EB00082E080938100109285001092840086BB9E
:101EC00080936F00E88185E0E89FF0011124ED52D6
:101ED000F94F8081806480838881DF91CF911F9149
:101EE0000895EF92FF921F93CF93DF931F92CDB788
:101EF000DEB7162F9BEEE92E97E0F92ED7011C9640
:101F00009C911C9721E020931D0490931C04109237
:101F10001B0410921A041A960D90BC91A02DED91FD
:101F2000FC9111970190F081E02D682FCD0179830C
:101F30001995F70182859385DC01ED91FC91019063
:101F4000F081E02D7981672F1995F70182859385BE
:101F5000DC01ED91FC910190F081E02D612F19954C
:101F6000F701828593850F90DF91CF911F91FF90AC
:101F7000EF900C94870290911608891720F09091A9
:101F80001708981720F489E392E00C94080F682F43
:101F900070E08CE198E00C94EF0A8F929F92AF92E0
:101FA000BF920F931F93CF93DF93CDB7DEB7A19767
:101FB0000FB6F894DEBF0FBECDBF19A2423008F4B1
:101FC0004AE08E010F5D1F4F842E912CA12CB12C65
:101FD000A50194010E94321CE62FB901CA010150EB
:101FE0001109EA3014F4E05D01C0E95CD801EC931A
:101FF000232B242B252B61F7C8010E94BF0EA1962D
:102000000FB6F894DEBF0FBECDBFDF91CF911F9109
:102010000F91BF90AF909F908F900895E0915805D9
:10202000F09159050190F081E02D682F88E595E049
:102030001994CF92DF92EF92FF92CF93DF9397FFA5
:1020400019C06B017C018DE20E940E10EC01662725
:102050007727CB016C197D098E099F094AE00E9400
:10206000CD0F8C0F9D1FDF91CF91FF90EF90DF90F0
:10207000CF9008954AE0DF91CF91FF90EF90DF90ED
:10208000CF900C94CD0F1F920F920FB60F92112488
:102090000F900FBE0F901F901895CF93DF93282FAE
:1020A00030E0F901E15CFC4F8491F901E750FD4F0C
:1020B000D491F901ED54FD4FC491CC2391F08111DD
:1020C0000E94CB10EC2FF0E0EE0FFF1FE756FD4F04
:1020D000A591B491EC91ED2381E090E021F480E0B2
:1020E00002C080E090E0DF91CF9108951F93CF93DD
:1020F000DF93282F30E0F901E15CFC4F8491F90176
:10210000E750FD4FD491F901ED54FD4FC491CC231C
:10211000C9F0162F81110E94CB10EC2FF0E0EE0FCA
:10212000FF1FE158FD4FA591B4918FB7F89411119D
:1021300005C09C91ED2FE095E92302C0EC91ED2BB9
:10214000EC938FBFDF91CF911F9108953FB7F89423
:102150008091290890912A08A0912B08B0912C0811
:1021600026B5A89B05C02F3F19F00196A11DB11DF2
:102170003FBFBA2FA92F982F8827820F911DA11D2D
:10218000B11DBC01CD0142E0660F771F881F991F6A
:102190004A95D1F7089590E0FC013197E231F105BD
:1021A00008F04EC08827EC57FF4F8F4F0C94931CBC
:1021B000809180008F7703C0809180008F7D809315
:1021C0008000089580918000877FF9CF84B58F7754
:1021D00002C084B58F7D84BD08958091B0008F7753
:1021E00003C08091B0008F7D8093B00008958091EE
:1021F00090008F7707C0809190008F7D03C0809101
:102200009000877F8093900008958091A0008F7741
:1022100007C08091A0008F7D03C08091A000877FC0
:102220008093A0000895809120018F7707C080914E
:1022300020018F7D03C080912001877F8093200142
:102240000895CF93DF9390E0FC01E750FD4F249178
:10225000FC01ED54FD4F8491882361F190E0880FDB
:10226000991FFC01EB57FC4FC591D491FC01E1583B
:10227000FD4FA591B491611109C09FB7F894888171
:10228000209582238883EC912E230BC0623061F469
:102290009FB7F8943881822F809583238883EC91AF
:1022A0002E2B2C939FBF06C08FB7F894E8812E2B5E
:1022B00028838FBFDF91CF910895863308F086532E
:1022C00090917B00282F2870977F922B90937B0012
:1022D0008770806480937C0080917A008064809312
:1022E0007A0080917A0086FDFCCF80917800209161
:1022F000790090E0922B08958F929F92AF92BF92B7
:10230000CF92DF92EF92FF926B017C010E94A610A8
:102310004B015C01C114D104E104F104F1F00E940D
:10232000A610DC01CB0188199909AA09BB09883ECE
:102330009340A105B10570F321E0C21AD108E1086C
:10234000F10888EE880E83E0981EA11CB11CC11410
:10235000D104E104F10419F7DDCFFF90EF90DF9095
:10236000CF90BF90AF909F908F9008951F920F9243
:102370000FB60F9211242F933F938F939F93AF9398
:10238000BF938091250890912608A0912708B091CD
:1023900028083091240823E0230F2D3720F40196DC
:1023A000A11DB11D05C026E8230F0296A11DB11D78
:1023B000209324088093250890932608A09327084B
:1023C000B09328088091290890912A08A0912B08A1
:1023D000B0912C080196A11DB11D809329089093FE
:1023E0002A08A0932B08B0932C08BF91AF919F911E
:1023F0008F913F912F910F900FBE0F901F901895C6
:10240000789484B5826084BD84B5816084BD85B5CF
:10241000826085BD85B5816085BD80916E008160DB
:1024200080936E0010928100809181008260809381
:102430008100809181008160809381008091800083
:102440008160809380008091B10084608093B100AE
:102450008091B00081608093B00080919100826093
:102460008093910080919100816080939100809190
:1024700090008160809390008091A10082608093A1
:10248000A1008091A10081608093A1008091A000B3
:1024900081608093A000809121018260809321015E
:1024A00080912101816080932101809120018160D0
:1024B0008093200180917A00846080937A008091DB
:1024C0007A00826080937A0080917A0081608093A4
:1024D0007A0080917A00806880937A001092C1001F
:1024E0000E947D0E61E08091EC070E94211160E066
:1024F0008091EC070E94761060E08091EB070E94CB
:10250000211185EF95E09093F6078093F5071092DF
:10251000F9031092F80310921B0410921A040E94FF
:10252000FE0D80E090E1A0E0B0E08093F80790938A
:10253000F907A093FA07B093FB078AE090E0A0E0C8
:10254000B0E08093FC079093FD07A093FE07B09343
:10255000FF0780E090E0A0E0B0E480930008909353
:102560000108A0930208B093030860E070E185E0E1
:102570000E94710F6FE979E380E00E94710FC8E05B
:10258000D8E0C12CD12CE12CF12C98EE492E92E010
:10259000592E2EE2822E23E0922E3BECA32E37E022
:1025A000B32E97012551384F3901D90114969C91CA
:1025B000149712968C9186010551184FF801818F5E
:1025C000928F61E00E94211161E0D8015A968C91AE
:1025D0000E942111F301908586818883D8015E963F
:1025E0009C9361E00E94211160E0F801868D0E94B9
:1025F000211161E088810E9476101FB7F8948091C4
:102600001D03811125C0F2018491F4019491E82FFA
:10261000F0E0EE0FFF1FEB57FC4FA591B4918C91AA
:10262000982321F461E085E30E94761061E085E360
:102630000E9421118CB580618CBD8CB580648CBDED
:1026400061E084E30E94211161E083E30E94211193
:1026500080911D038F5F80931D031FBFC5010197EC
:10266000F1F760E088810E94761088E80E940D0CE6
:1026700083E00E940D0C61E088810E947610C50104
:102680000197F1F7CE010E94140CF2E0CF0ED11C9D
:102690002296EA94EF2821F0EE24E394F12C81CFE6
:1026A000C0E1D8E01C2F1C5F60E089910E942111DD
:1026B0001C13FACF0FE118E0CAE1D8E0FC2EF39426
:1026C000F394FE013697608170E0CE0102960E947D
:1026D000160F9991FE0133978081F801319780831D
:1026E000D8019C9360E00E94211161E0F801808193
:1026F0000E94211160E0D8018C910E9476100E5F3B
:102700001F4FFC12DECFF8941092200189E08093D5
:10271000210180E293E09093290180932801109297
:1027200025011092240182E08093730078948093B5
:102730000106109205068091020660E00E942111B8
:1027400088E098E00E94140C8AE098E00E94140C43
:102750000E947D0E6091140870E08CE198E00E9468
:10276000160F809116088D3820F4809117088C3848
:1027700028F489E392E00E94080F06C06CE870E03C
:102780008CE198E00E94EF0A0E947D0E86E592E0BF
:102790000E94D10E61E0809110070E9421111092D9
:1027A000F9031092F80310921B0410921A040E946D
:1027B000FE0D61E070E080E090E00E947C1189E015
:1027C000809312078093130782E08093140785E0BB
:1027D0008093150780E098E0909317078093160781
:1027E000909319078093180790931B0780931A07FB
:1027F00090931D0780931C0766E089E00E94A50E58
:102800008091130767E08F700E94A50E80911407D6
:1028100068E08F700E94A50E8091150769E08F70A7
:102820000E94A50E6AE0809116070E94A50E809175
:102830001607909117079F716BE0892F0E94A50ED4
:102840006EE080911A070E94A50E80911A07909160
:102850001B079F716FE0892F0E94A50E6CE080918D
:1028600018070E94A50E80911807909119079F7173
:102870006DE0892F0E94A50E60E180911C070E94E7
:10288000A50E80911C0790911D079F7161E1892F12
:102890000E94A50E61E0809110070E94761062E010
:1028A00070E080E090E00E947C11E12CF12CC12CC2
:1028B000C0E1DC2EE601CE19DF09D7FD2196D595C2
:1028C000C795CE0DDF1DCE15DF05E9F1BE018AE00B
:1028D00090E00E94D30EBE018CE090E00E94D30EE7
:1028E000BE018EE090E00E94D30E0E94EB0E80E4C9
:1028F0000E94F50E97FD05C080E40E94F50E8C0144
:1029000002C000E010E082E40E94F50E80179107FB
:1029100024F082E40E94F50E8C0184E40E94F50EFE
:102920008017910724F084E40E94F50E8C01093E83
:10293000E3E01E0724F4083E134019F404C06E01BE
:10294000E7017E01B7CF00E010E0E12C90E1F92E25
:10295000E701C01BD10BD7FD2196D595C795C00FB8
:10296000D11FC017D10799F0BE0180E190E00E940D
:10297000D30E0E94EB0E86E40E94F50E893E23E002
:1029800092070CF02BC4883E934009F029C488E8D4
:10299000C82E83E1D82EE12CF12CC0E0D0E000E07D
:1029A00010E066E0802F0E94A50E67E08C2F0E9449
:1029B000A50E68E08E2D0E94A50E8AE00E94F50EFD
:1029C0005C01BC018AE090E00E94D30EB5018CE06E
:1029D00090E00E94D30EB5018EE090E00E94D30EED
:1029E000F4E04F2E512CA12CB12C812C912C612C78
:1029F000712C0E94EB0E80E40E94F50E680E791E89
:102A000082E40E94F50E880E991E84E40E94F50E61
:102A1000A80EB91E41E0441A510859F7A30177FEE8
:102A200002C04D5F5F4F5595479555954795940169
:102A300097FE02C02D5F3F4F359527953595279519
:102A4000C501B7FC03969595879595958795F42FC5
:102A5000E52F4217530714F4F22FE32F6F2F7E2F29
:102A600077FF02C060E070E0681779070CF4BC01E2
:102A7000B42FA52F2417350714F4B22FA32FEB2F53
:102A8000FA2FE130A0E1FA0714F0E0E0F0E18E1750
:102A90009F070CF4FC01DB01AE1BBF0BFD01CA1646
:102AA000DB06F1F06417750731F40F3011051CF4E3
:102AB0000F5F1F4F97C36217730729F4CF30D105FB
:102AC00014F421968FC36817790709F08BC3BFE010
:102AD000EB16F1040CF086C32FEFE21AF20A82C360
:102AE000809113080E944D10892BD1F322242A943F
:102AF000322CDEEF8D2E99249A9444244394512C49
:102B000005E0A02EB12C80E9C82EDD24D394E12C61
:102B1000F12CCFE3DFE19EE7692E92E0792E89E088
:102B20000E945D118C01909321038093200388E023
:102B300098E00E943F0C9B01AC0188279927DC019B
:102B4000821B930BA40BB50B81329E44A105B105EA
:102B500054F48AE098E00E943F0C61327E44810583
:102B600091050CF4C8C00E94E40288E098E00E943D
:102B7000140C8AE098E00E94140C10921F0310922B
:102B80001E031092390310923803109237031092EB
:102B90003603E4E3F3E0AAE2B3E00CE213E092913F
:102BA0008291938382839E918E9113969C938E93B0
:102BB000129753E0EC32F50791F786E00E945D1121
:102BC000BC01990F880B990B0E94E31A2CEF39EA8C
:102BD00041EA5FEB0E94571D26E634EB41E156E4E3
:102BE0000E94421B0E941C1D70932D0360932C03B6
:102BF00087E00E945D11BC01990F880B990B0E9420
:102C0000E31A2CEF39EA41EA5FEB0E94571D26E6F2
:102C100034EB41E156E40E94421B0E941C1D70935C
:102C2000230360932203809138039091390320910C
:102C3000360330913703E2E2F3E0D8014D915D9124
:102C40008D01840F951F41915191240F351FB3E0E1
:102C500006331B0791F7B5010E947F1CFB0170939F
:102C6000390360933803C901B5010E947F1C70933A
:102C7000370360933603CB0106968E179F0794F5B2
:102C80006F3071057CF536976CF1D0C09F3F09F429
:102C9000D6C04DEC5CEC6CEC7EE384E098E00E94E6
:102CA000D6094DEC5CEC6CEC7EEB86E098E00E9483
:102CB000D60988E098E00E94140C8AE098E00E940F
:102CC000140C809110080E944D10892B09F44EC2FB
:102CD000809110080E944D10892B09F479C280E57B
:102CE0000E94BB0F6AE070E080E090E00E947C11DF
:102CF0000E94E50614CF80911E0390911F03892B3B
:102D0000C1F4013253E0150720F090921F03809226
:102D10001E0342E35CE063EC7EE384E098E00E9403
:102D2000D6094DEC5CEC6CEC7EEB86E098E00E9402
:102D3000D60980911E0390911F03029759F4013226
:102D4000134040F050921F0340921E038BE592E027
:102D50000E94080F80911E0390911F03019719F59F
:102D60008091200390912103843F9140E0F4909260
:102D70001F0380921E0388E692E00E94080F4DEC2C
:102D80005CEC6CE47DE384E098E00E94D6094DECB5
:102D90005CEC6CEC7EEB86E098E00E94D6098AE061
:102DA00098E00E94140C80911E0390911F030296DC
:102DB00079F480912003909121038132934040F077
:102DC00030921F0320921E0386E792E00E94080FB4
:102DD00080911E0390911F03019609F0D2CE80913D
:102DE000200390912103843F914008F0CACE42E035
:102DF00050E050931F0340931E0384E892E00E942A
:102E0000080F4DEC5CEC6CEC7EE384E098E00E94F3
:102E1000D6094DEC5CEC6CE47DEB86E098E00E941A
:102E2000D60988E098E00E94140CABCE8091EC07A4
:102E30009091000298132ACFF3011491FDC0809362
:102E40000002F30114911F3F09F423CF123009F45B
:102E50007EC06CF5112309F459C0113009F0ECC0A3
:102E60001092800010928100909181009860909360
:102E7000810090918100916090938100282F30E033
:102E8000F901ED54FD4FE491F0E0EE0FFF1FE15822
:102E9000FD4F459154915093450340934403F901EC
:102EA000E750FD4FE491E093430311E0C7C01430B5
:102EB00009F49BC00CF472C0153009F0BDC010922B
:102EC000200110922101909121019860909321019D
:102ED00090912101916090932101282F30E0F90118
:102EE000ED54FD4FE491F0E0EE0FFF1FE158FD4F70
:102EF0004591549150933C0340933B03F901E750B3
:102F0000FD4FE491E0933A0315E098C014BC15BC62
:102F100094B5926094BD95B5916095BD282F30E031
:102F2000F901ED54FD4FE491F0E0EE0FFF1FE15881
:102F3000FD4F459154915093480340934703F90145
:102F4000E750FD4FE491E093460310E077C0109204
:102F5000B0001092B1009091B00092609093B000D8
:102F60009091B10091609093B100282F30E0F90169
:102F7000ED54FD4FE491F0E0EE0FFF1FE158FD4FDF
:102F8000459154915093180340931703F901E7506A
:102F9000FD4FE491E093160312E050C010929000B0
:102FA000109291009091910098609093910090916F
:102FB0009100916090939100282F30E0F901ED5439
:102FC000FD4FE491F0E0EE0FFF1FE158FD4F4591FA
:102FD00054915093420340934103F901E750FD4F50
:102FE000E491E093400313E029C01092A0001092F6
:102FF000A1009091A10098609093A1009091A100F0
:1030000091609093A100282F30E0F901ED54FD4F1D
:10301000E491F0E0EE0FFF1FE158FD4F4591549110
:1030200050933F0340933E03F901E750FD4FE49175
:10303000E0933D0314E002C017FD2BCE61E00E9437
:103040002111112309F4B0C0123009F442C011302B
:10305000C1F480918100887F816080938100D0934A
:103060008900C0938800C0925503D0925603E09225
:103070005703F092580380916F00826080936F0035
:1030800008CE133039F480919100887F816080935D
:10309000910036C0143039F48091A100887F81609E
:1030A0008093A1003FC0153039F480912101887FC1
:1030B00081608093210148C0133011F12CF412304B
:1030C00009F0E7CD8FE30CC0143061F11530E1F168
:1030D000E0CD8091B100887F83608093B10089EF5B
:1030E0008093B300C0921903D0921A03E0921B039D
:1030F000F0921C0380917000826080937000C9CDB3
:10310000D0939900C0939800C0925103D09252037B
:10311000E0925303F0925403809171008260809397
:103120007100B7CDD093A900C093A800C0924D0301
:10313000D0924E03E0924F03F092500380917200C0
:10314000826080937200A5CDD0932901C09328019D
:10315000C0924903D0924A03E0924B03F0924C0391
:103160008091730082608093730093CD88E098E033
:103170000E943F0C9B01AC0188279927DC01821B30
:10318000930BA40BB50B803E9E42A105B1050CF03C
:103190009FCD8AE098E00E943F0C603E7E42810510
:1031A00091050CF48ECD94CD85B5887F836085BD67
:1031B0005CE757BDC0925903D0925A03E0925B037B
:1031C000F0925C0380916E00826080936E0061CD0E
:1031D0008CE80E94BB0F0E94E40284CD7E01E801CE
:1031E0008E01B6CB6F01DDCB809122079091230732
:1031F0000C94E31F109221041092200488EE93E0B7
:10320000A0E0B0E08093220490932304A0932404D0
:10321000B09325042BE032E030931F0420931E046A
:1032200045E351E050932B0440932A0444E351E0DA
:1032300050932D0440932C0440E351E050932F040D
:1032400040932E0441E351E0509331044093300405
:1032500042E351E0509333044093320446E351E09B
:10326000509335044093340410923704109238047C
:103270001092390410923A041092BE041092BD04C8
:103280008093BF049093C004A093C104B093C20480
:103290003093BC042093BB0445ED50E05093C80428
:1032A0004093C70444ED50E05093CA044093C904CE
:1032B00040ED50E05093CC044093CB0441ED50E0FE
:1032C0005093CE044093CD0442ED50E05093D0048F
:1032D0004093CF0446ED50E05093D2044093D10484
:1032E0001092D4041092D5041092D6041092D704F0
:1032F00010925B0510925A0580935C0590935D05D2
:10330000A0935E05B0935F0530935905209358054F
:1033100025EC30E0309365052093640524EC30E023
:10332000309367052093660520EC30E03093690503
:103330002093680521EC30E030936B0520936A05FB
:1033400022EC30E030936D0520936C0526EC30E0E4
:1033500030936F0520936E051092710510927205DF
:1033600010927305109274051092F8051092F705EB
:103370008093F9059093FA05A093FB05B093FC05A3
:103380008DE192E09093F6058093F50586E38093B6
:103390000C0887E380930D0888E380930E0889E387
:1033A00080930F088BE1809310088DE180931108C2
:1033B0008AE1809312088CE18093130884E0809363
:1033C000140887E0809315081092160884EB809308
:1033D000170886E18093180888E18093190887E12F
:1033E00080931A0889E180931B08E0910F07EC3065
:1033F00020F08FEF80931C0810C081E08E0F809327
:103400000F07E0931C0825E0E29FF0011124ED5224
:10341000F94F88EB9BE092838183E0910F07EC30BA
:1034200020F08FEF80931D0810C081E08E0F8093F5
:103430000F07E0931D0885E0E89FF0011124ED528D
:10344000F94F88EB9BE0928381838CE08093EB07BC
:1034500084E28093EC0786E08093ED0785E080931B
:10346000EE078FE18093EF078EE18093F00783E210
:103470008093F10782E28093F20785E48093F3075B
:1034800084E48093F40780E48093F7071092FC07AC
:103490001092FD071092FE071092FF07109200088D
:1034A000109201081092020810920308EDE2F7E072
:1034B0008FEF9FEFDC011282138214821582168235
:1034C00017821086118683879487A587B68787879A
:1034D000908BA18BB28B128611821082739627E09B
:1034E000EB3EF20741F78DE090E00E944E1FFC0199
:1034F000138212828FE292E091838083118687E2A9
:10350000848384E1828784E083871486F0932A078A
:10351000E093290710922B0710922C0785E28093E5
:1035200002061092040610922307109222071092AE
:10353000250710922407109227071092260761E0B2
:1035400070E080E090E00E947B20009789F09093EB
:1035500023078093220710922507109224072091B9
:10356000260730912707232BF1F4FC0110821BC0A2
:103570008091220790912307009711F00E94E31F8A
:103580001092230710922207109227071092260705
:10359000109225071092240782E090E09093110783
:1035A000809310070895109227071092260763EC66
:1035B00072E00E947221F0CF0E941E1B08F481E08D
:1035C0000895E89409C097FB3EF490958095709516
:1035D00061957F4F8F4F9F4F9923A9F0F92F96E95F
:1035E000BB279395F695879577956795B795F111D4
:1035F000F8CFFAF4BB0F11F460FF1BC06F5F7F4F71
:103600008F4F9F4F16C0882311F096E911C0772382
:1036100021F09EE8872F762F05C0662371F096E88B
:10362000862F70E060E02AF09A95660F771F881F5A
:10363000DAF7880F9695879597F90895990F0008FE
:10364000550FAA0BE0E8FEEF16161706E807F90774
:10365000C0F012161306E407F50798F0621B730B0F
:10366000840B950B39F40A2661F0232B242B252B90
:1036700021F408950A2609F4A140A6958FEF811D33
:10368000811D08950E94551B0C94C61B0E94B81BF7
:1036900038F00E94BF1B20F0952311F00C94AF1B53
:1036A0000C94B51B11240C94FA1B0E94D71B70F3C9
:1036B000959FC1F3950F50E0551F629FF001729FD7
:1036C000BB27F00DB11D639FAA27F00DB11DAA1FE6
:1036D000649F6627B00DA11D661F829F2227B00D33
:1036E000A11D621F739FB00DA11D621F839FA00DBE
:1036F000611D221F749F3327A00D611D231F849F0E
:10370000600D211D822F762F6A2F11249F57504064
:103710009AF0F1F088234AF0EE0FFF1FBB1F661FDF
:10372000771F881F91505040A9F79E3F510580F0A8
:103730000C94AF1B0C94FA1B5F3FE4F3983ED4F358
:10374000869577956795B795F795E7959F5FC1F74C
:10375000FE2B880F911D9695879597F9089597F9F7
:103760009F6780E870E060E008959FEF80EC089527
:1037700000240A9416161706180609060895002450
:103780000A9412161306140605060895092E0394CA
:10379000000C11F4882352F0BB0F40F4BF2B11F43E
:1037A00060FF04C06F5F7F4F8F4F9F4F089557FD9D
:1037B0009058440F551F59F05F3F71F04795880F9F
:1037C00097FB991F61F09F3F79F087950895121636
:1037D00013061406551FF2CF4695F1DF08C01616E2
:1037E00017061806991FF1CF869571056105089493
:1037F0000895E894BB2766277727CB0197F90895AA
:10380000052E97FB1EF400940E94171C57FD07D04D
:103810000E94321C07FC03D04EF40C94171C5095E8
:103820004095309521953F4F4F4F5F4F08959095AC
:103830008095709561957F4F8F4F9F4F08950E949F
:10384000541CA59F900DB49F900DA49F800D911DB9
:1038500011240895B7FF0C941F1C0E941F1C821B8B
:10386000930B0895A1E21A2EAA1BBB1BFD010DC0EC
:10387000AA1FBB1FEE1FFF1FA217B307E407F50720
:1038800020F0A21BB30BE40BF50B661F771F881FFC
:10389000991F1A9469F760957095809590959B0192
:1038A000AC01BD01CF010895A29FB001B39FC0013B
:1038B000A39F700D811D1124911DB29F700D811D5C
:1038C0001124911D0895DB018F939F930E941F1C6B
:1038D000BF91AF91A29F800D911DA39F900DB29FAC
:1038E000900D11240895991B79E004C0991F961733
:1038F00008F0961B881F7A95C9F78095089597FB65
:10390000072E16F4009407D077FD09D00E949B1C67
:1039100007FC05D03EF4909581959F4F08957095D2
:1039200061957F4F0895EE0FFF1F881F8BBF079093
:10393000F691E02D1994AA1BBB1B51E107C0AA1FE9
:10394000BB1FA617B70710F0A61BB70B881F991F40
:103950005A95A9F780959095BC01CD0108955058CE
:10396000BB27AA270E94C71C0C94C61B0E94B81B29
:1039700038F00E94BF1B20F039F49F3F19F426F461
:103980000C94B51B0EF4E095E7FB0C94AF1BE92FEC
:103990000E94D71B58F3BA1762077307840795076D
:1039A00020F079F4A6F50C94F91B0EF4E0950B2E9B
:1039B000BA2FA02D0B01B90190010C01CA01A00181
:1039C0001124FF27591B99F0593F50F4503E68F1DC
:1039D0001A16F040A22F232F342F4427585FF3CF1D
:1039E000469537952795A795F0405395C9F77EF4EE
:1039F0001F16BA0B620B730B840BBAF09150A1F037
:103A0000FF0FBB1F661F771F881FC2F70EC0BA0FBC
:103A1000621F731F841F48F4879577956795B79544
:103A2000F7959E3F08F0B0CF9395880F08F099273F
:103A3000EE0F9795879508950E94231D6894B11104
:103A40000C94FA1B08950E94DF1B88F09F5798F092
:103A5000B92F9927B751B0F0E1F0660F771F881F93
:103A6000991F1AF0BA95C9F714C0B13091F00E94AD
:103A7000F91BB1E008950C94F91B672F782F882764
:103A8000B85F39F0B93FCCF3869577956795B395D4
:103A9000D9F73EF490958095709561957F4F8F4F43
:103AA0009F4F08950E941E1B08F48FEF0895FA019E
:103AB000EE0FFF1F309621053105A1F1611571054B
:103AC00061F48038BFE39B0749F168949038810521
:103AD00061F08038BFEF9B0741F099234AF5FF3F23
:103AE000E1053105210519F1E8940894E795D9011C
:103AF000AA2329F4AB2FBE2FF85FD0F310C0FF5FCD
:103B000070F4A695E0F7F73950F019F0FF3A38F461
:103B10009F779F930DD00F9007FC9058089546F023
:103B20000C94B51B60E070E080E89FE308954FE7D8
:103B30009F775F934F933F932F930E94521E2F9135
:103B40003F914F915F910E94421B0C94AF1D29F44D
:103B500016F00C94AF1B0C94F91B0C94B51B0E942F
:103B6000DF1BA8F39638A0F707F80F92E8942BE331
:103B70003AEA48EB5FE70E94581B0F920F920F92B0
:103B80004DB75EB70F920E949A1EECE2F1E00E94E0
:103B9000E11D4F915F91EF91FF91E595EE1FFF1FA2
:103BA00049F0FE57E0684427EE0F441FFA95E1F70D
:103BB0004195550B0E94141E0F9007FE0C94081E91
:103BC0000895DF93CF931F930F93FF92EF92DF92AD
:103BD0007B018C01689406C0DA2EEF010E94551B10
:103BE000FE01E894A5912591359145915591A6F353
:103BF000EF010E94C71CFE019701A801DA9469F742
:103C0000DF90EF90FF900F911F91CF91DF9108957A
:103C10009B01AC0160E070E080E89FE30C94CE1E55
:103C20000C94AF1B0C94401F0E94DF1BD8F3992308
:103C3000C9F3940F511DA3F39150504094F059F0E3
:103C4000882332F0660F771F881F91505040C1F7CC
:103C50009E3F51052CF7880F911D9695879597F9F2
:103C600008955F3FACF0983E9CF0BB278695779512
:103C70006795B79508F4B1609395C1F7BB0F58F7F6
:103C800011F460FFE8CF6F5F7F4F8F4F9F4FE3CFFF
:103C90000C94FA1B16F00C94401F0C94B51B6894FE
:103CA0000C94AF1B0E94DF1BA8F39923C1F3AEF362
:103CB000DF93CF931F930F93FF92C92FDD278823A4
:103CC0002AF02197660F771F881FDAF720E030E08F
:103CD00040E85FEB9FE3883920F0803E38F0219682
:103CE0008F770E94B01CE4E5F1E004C00E94B01C94
:103CF000E1E8F1E00E94E11D8B01BE01EC01FB2E29
:103D00006F5771097595771F880B990B0E94E31AFD
:103D100028E132E741E35FE30E94551BAF2D980194
:103D2000AE01FF900F911F91CF91DF910E94C71CB0
:103D30000C94C61BFA01DC01AA0FBB1F9B01AC014E
:103D4000BF5728F4222733274427507820C0B75183
:103D500090F4AB2F0024469537952795011CA39529
:103D6000D2F3002071F0220F331F441FB395DAF312
:103D70000ED00C94AF1C61307105A0E88A07B946DB
:103D800030F49B01AC01662777278827907830961E
:103D900021F0208331834283538308950E94E21EE1
:103DA0000C94C61B0E94BF1B58F00E94B81B40F029
:103DB00029F45F3F29F00C94AF1B51110C94FA1BAE
:103DC0000C94B51B0E94D71B68F39923B1F35523BC
:103DD00091F3951B550BBB27AA276217730784071E
:103DE00038F09F5F5F4F220F331F441FAA1FA9F3B4
:103DF00035D00E2E3AF0E0E832D091505040E695A2
:103E0000001CCAF72BD0FE2F29D0660F771F881F02
:103E1000BB1F261737074807AB07B0E809F0BB0BF5
:103E2000802DBF01FF2793585F4F3AF09E3F510509
:103E300078F00C94AF1B0C94FA1B5F3FE4F3983EB0
:103E4000D4F3869577956795B795F7959F5FC9F7F2
:103E5000880F911D9695879597F90895E1E0660F73
:103E6000771F881FBB1F621773078407BA0720F0EC
:103E7000621B730B840BBA0BEE1F88F7E095089555
:103E80009F3F31F0915020F4879577956795B795CE
:103E9000880F911D9695879597F90895CF93DF9395
:103EA0008230910510F482E090E0E0912F08F091CB
:103EB000300820E030E0C0E0D0E0309711F14081E0
:103EC000518148175907C0F04817590761F482819A
:103ED0009381209719F09B838A832BC0909330089D
:103EE00080932F0826C02115310519F0421753077A
:103EF00018F49A01BE01DF01EF010280F381E02D89
:103F0000DCCF2115310509F1281B390B243031058F
:103F100090F412968D919C9113976115710521F083
:103F2000FB019383828304C09093300880932F0811
:103F3000FD01329644C0FD01E20FF31F819391937E
:103F4000225031092D933C933AC020912D08309195
:103F50002E08232B41F42091030230910402309368
:103F60002E0820932D082091010230910202211584
:103F7000310541F42DB73EB740910502509106023C
:103F8000241B350BE0912D08F0912E08E217F30762
:103F9000A0F42E1B3F0B2817390778F0AC014E5FB9
:103FA0005F4F2417350748F04E0F5F1F50932E08C0
:103FB00040932D088193919302C0E0E0F0E0CF019F
:103FC000DF91CF9108950F931F93CF93DF930097C5
:103FD00009F48CC0FC0132971382128200912F08E1
:103FE000109130080115110581F420813181820F73
:103FF000931F20912D0830912E082817390779F545
:10400000F0932E08E0932D0871C0D80140E050E0F5
:10401000AE17BF0750F412962D913C911397AD0146
:104020002115310509F1D901F3CF9D01DA0133835F
:10403000228360817181860F971F8217930769F42D
:10404000EC0128813981260F371F2E5F3F4F3183C6
:1040500020838A819B8193838283452B29F4F0936B
:104060003008E0932F0842C01396FC93EE9312970A
:10407000ED01499159919E01240F351FE217F30775
:1040800071F480819181840F951F029611969C9303
:104090008E938281938113969C938E931297E0E086
:1040A000F0E0D80112968D919C911397009719F02A
:1040B000F8018C01F6CF8D919C9198012E5F3F4FB6
:1040C000820F931F20912D0830912E082817390751
:1040D00069F4309729F41092300810922F0802C02A
:1040E0001382128210932E0800932D08DF91CF9136
:1040F0001F910F9108956F927F928F929F92AF922E
:10410000BF92CF92DF92EF92FF920F931F93CF93C4
:10411000DF93EC01009789F4CB01DF91CF911F91E0
:104120000F91FF90EF90DF90CF90BF90AF909F9056
:104130008F907F906F900C944E1FFC01E60FF71F3D
:104140009C0122503109E217F30708F4ACC0D901F1
:104150000D911C91119706171707B0F00530110546
:1041600008F49FC0C80104978617970708F499C000
:1041700002501109061B170B019311936D937C9349
:10418000CF010E94E31F8DC05B01A01AB10A4C0150
:10419000800E911EA0912F08B091300840E050E0B1
:1041A000E12CF12C109709F44AC0A815B905D1F5F6
:1041B0006D907C901197630182E0C80ED11CCA14E7
:1041C000DB0480F1A3014A195B096A0182E0C80E91
:1041D000D11C1296BC9012971396AC91B5E0CB16F9
:1041E000D10440F0B282A38351834083D9016D93FF
:1041F0007C930AC00E5F1F4FC301800F911FF9010E
:1042000091838083EB2DFA2FE114F10431F0D70173
:104210001396FC93EE93129744C0F0933008E0930A
:104220002F083FC08D919C9111974817590708F4AA
:10423000AC017D0112960D90BC91A02DB3CF809161
:104240002D0890912E0888159905E1F44617570717
:10425000C8F48091010290910202009741F48DB759
:104260009EB74091050250910602841B950BE817FA
:10427000F907C8F4F0932E08E0932D08F901718333
:1042800060830FC0CB010E944E1F7C01009759F044
:10429000A801BE010E946921CE010E94E31FC7014F
:1042A00004C0CE0102C080E090E0DF91CF911F9169
:1042B0000F91FF90EF90DF90CF90BF90AF909F90C5
:1042C0008F907F906F90089581E090E0F8940C9427
:1042D0007921FB01DC0102C001900D924150504058
:1042E000D8F70895FB01DC0101900D920020E1F761
:1042F000089511E0C1EDD1E000E006C0802FFE017D
:104300000E94931C2196011DC23DD10780E0080741
:06431000A9F7F894FFCFAD
:10431600FF000031082000000000007C06BC0500FC
:1043260006C30631060F06230600000000580228C1
:104336000222021C07190205021D07000000005890
:1043460007BC05220221020200536572766F2061C6
:104356006E676C65206973206F7574206F662072B6
:10436600616E67652100696E697400666C697046E6
:104376006C6F70203D203100666C6970466C6F7002
:10438600203D202D3200666C6970466C6F70203DB2
:10439600202D3100666C6970466C6F70203D2032AE
:1043A6000046494E4920746F75726E6572207375AA
:1043B60072206C756900476175636865203D200051
:1043C600207C207468C3A96F7269717565203D20D1
:1043D600000D0A0044726F697465203D2000207C40
:1043E600207468C3A96F7269717565203D2030001D
:1043F600524542414C414E434147453A20673D2094
:1044060000207C20643D20004552524555522054E0
:104416004F54203D206761756368653A00206472D9
:064426006F6974653A00A5
:00000001FF
