:100000000C9484010C94B5010C94B5010C94B501C9
:100010000C94B5010C94B5010C94B5010C94B50188
:100020000C94B5010C941B0C0C941B0C0C941B0C25
:100030000C94B5010C9459030C94B5010C94B501C2
:100040000C94B5010C94AC080C94B5010C94B5015A
:100050000C94B5010C94B5010C94B5010C940F03EC
:100060000C94B5010C94CA040C94A0040C94B50132
:100070000C94B5010C94B5010C94B5010C94B50128
:100080000C947E080C94B5010C94B5010C94B50148
:100090000C94B5010C94B5010C94B5010C94250C8D
:1000A0000C94B5010C94B5010C9450080C94B50156
:1000B0000C94B5010C94B5010C94B5010C94220874
:1000C0000C94B5010C94B5010C94B5010C94760414
:1000D0000C944C040C94B5010C9422040C94F80379
:1000E0000C94B501540559055E0568057205EB05CC
:1000F0007C0584058C059605A005AA05B905C305F0
:10010000EB05CD05D705E105860D890D780D7C0D34
:10011000800DC00D8D0D910D970D9B0D9F0DA50DA3
:10012000A90DAD0DC00DB30DB70DBB0D0C94D705CA
:100130000C941E020C94BE020C94A90D0C94A50BF9
:100140000C94A50D0C94F6070C948C050C94680582
:100150000C94B7010C94860D0C94A0050C945405D6
:100160000C9496050C94910D0C945E0B0C94970DC9
:100170000C94AA050C947C0D0C94890D0C945905D3
:100180000C9400070C943E120C9401070C94800D03
:100190000C94B30D0C9472050C94B9050C94E10504
:1001A0000C9438120C949B0D0C9477020C94B70DA0
:1001B0000C94AD0D0C94500B0C948D0D0C94750B90
:1001C0000C94CD050C94780D0C947C050C9484054E
:1001D0000C942C020C94C3050C945E050C94C00D79
:1001E0000C949F0D0C944F0B0C94FB010C94EB059D
:1001F0000C946D0B0C940A020C94BB0D02000021B0
:1002000000240027002A002D0030003300010100E7
:1002100000040107010A0100002200250028002B2C
:10022000002E003100340002010000050108010B1E
:100230000105050505070508080808020202020A6B
:100240000A08080404040401010101010101010379
:1002500003030303030303040707070C0C0C0C0C34
:100260000C0C0C0202020206060606060606060B27
:100270000B0B0B0B0B0B0B0102102020080810209E
:100280004010204080020102010804020101020422
:1002900008102040808040201008040201800402E1
:1002A0000180402010080402010804020101020438
:1002B0000810204080010204081020408000000A3D
:1002C0000B02090C0D0E08070304010000000000DA
:1002D000000000000000000000000000000000001E
:1002E00000000000000000000012111000000000DB
:1002F00000000000000000000000000000000000FE
:10030000000000003E12381211241FBECFEFD1E2D0
:10031000DEBFCDBF00E00CBF12E0A0E0B2E0E2E241
:10032000F1E300E00BBF02C007900D92A038B107C7
:10033000D9F726E0A0E8B2E001C01D92A835B207C7
:10034000E1F711E0C3E8D1E000E006C02197010920
:10035000802FFE010E942D15C238D10780E00807CA
:10036000A9F70E9433100C947F180C940000CF92D0
:10037000DF92EF92FF920F931F93CF93DF936C0165
:100380007A018B01C0E0D0E0CE15DF0589F0D801FD
:100390006D918D01D601ED91FC910190F081E02DE0
:1003A000C6011995892B11F47E0102C02196ECCF6C
:1003B000C701DF91CF911F910F91FF90EF90DF90D8
:1003C000CF900895FC01A089B1898C91A689B78945
:1003D00082FD0FC09C91818D8F5F8F73228D82175C
:1003E00049F0218DDF01A20FB11D5D969C93818F95
:1003F00008958C910895FC01538D448D252F30E094
:10040000842F90E0821B930B541710F0CF96089521
:1004100001970895FC01918D828D981761F0828D6E
:10042000DF01A80FB11D5D968C91928D9F5F9F7328
:10043000928F90E008958FEF9FEF0895FC01918DCA
:10044000828D981731F0828DE80FF11D858D90E037
:1004500008958FEF9FEF0895FC01918D228D892FD4
:1004600090E0805C9F4F821B91098F7399270895BC
:1004700084E693E00E942C0221E0892B09F420E01D
:10048000822F089581E094E00E942C0221E0892BC4
:1004900009F420E0822F08958EE994E00E942C0256
:1004A00021E0892B09F420E0822F0895FC01848D3E
:1004B000DF01A80FB11DA35ABF4F2C91848D90E08E
:1004C00001968F739927848FA689B7892C93A08969
:1004D000B1898C9180648C93938D848D981306C020
:1004E0000288F389E02D80818F7D80830895EF92CB
:1004F000FF920F931F93CF93DF93EC0181E0888FDE
:100500009B8D8C8D981305C0E889F989808185FDC4
:1005100024C0F62E0B8D10E00F5F1F4F0F731127B5
:10052000E02E8C8DE8120CC00FB607FCFACFE889DC
:10053000F989808185FFF5CFCE010E945602F1CF67
:100540008B8DFE01E80FF11DE35AFF4FF0820B8FF8
:10055000EA89FB898081806207C0EE89FF89608318
:10056000E889F98980818064808381E090E0DF916F
:10057000CF911F910F91FF90EF900895CF93DF934C
:10058000EC01888D8823C9F0EA89FB89808185FD8B
:1005900005C0A889B9898C9186FD0FC00FB607FCEC
:1005A000F5CF808185FFF2CFA889B9898C9185FF2D
:1005B000EDCFCE010E945602E7CFDF91CF91089593
:1005C00080E090E0892B21F00E944C02811119C03B
:1005D00080E090E0892B41F080E090E0892B21F0D1
:1005E0000E940000811110C00E94420281110FC0C0
:1005F00080E090E0892B81F00E94380281110AC0CE
:1006000008950E940000E4CF0E940000EDCF0E94F8
:100610000407EECF0C94000008950E946A181F9200
:100620000F920FB60F9211242F933F938F939F93A6
:10063000AF93BF9380918F0290919002A09191020D
:10064000B091920230918E0223E0230F2D3720F4D7
:100650000196A11DB11D05C026E8230F0296A11D1C
:10066000B11D20938E0280938F0290939002A093ED
:100670009102B09392028091B4029091B502A09140
:10068000B602B091B7020196A11DB11D8093B402CC
:100690009093B502A093B602B093B702BF91AF9109
:1006A0009F918F913F912F910F900FBE0F901F90B0
:1006B00018951F920F920FB60F9211240BB60F923E
:1006C0002F933F934F935F936F937F938F939F935A
:1006D000AF93BF93EF93FF9380918602909187022F
:1006E000A0918802B0918902892B8A2B8B2B59F11A
:1006F00080918502E0918302F091840290818927A4
:1007000080838091860290918702A0918802B091A7
:100710008902181619061A061B060CF056C080919D
:10072000860290918702A0918802B0918902019778
:10073000A109B1098093860290938702A093880251
:10074000B093890242C080910002ECEFF1E0E491A5
:100750009FEF90930002E230C9F050F4EE2399F03D
:10076000E13081F590916F009D7F90936F002AC0DA
:10077000E43019F1E0F0E53029F5909173009D7FA8
:10078000909373001FC010926E001CC09091700077
:100790009D7F9093700091E09093B0009091B10094
:1007A000987F94609093B1001092B3000BC0909129
:1007B00071009D7F9093710005C0909172009D7FA4
:1007C0009093720060E00E94570DFF91EF91BF91EE
:1007D000AF919F918F917F916F915F914F913F91D9
:1007E0002F910F900BBE0F900FBE0F901F9018957A
:1007F0001F920F920FB60F9211240BB60F922F93E8
:100800003F934F935F936F937F938F939F93AF9398
:10081000BF93EF93FF9384E693E00E945602FF910B
:10082000EF91BF91AF919F918F917F916F915F9168
:100830004F913F912F910F900BBE0F900FBE0F90D5
:100840001F9018951F920F920FB60F9211240BB69E
:100850000F922F933F934F935F936F937F938F9359
:100860009F93AF93BF93EF93FF9384E693E00E942F
:10087000E201FF91EF91BF91AF919F918F917F9195
:100880006F915F914F913F912F910F900BBE0F9001
:100890000FBE0F901F9018951F920F920FB60F92D8
:1008A00011240BB60F922F933F934F935F936F9347
:1008B0007F938F939F93AF93BF93EF93FF9381E0C9
:1008C00094E00E945602FF91EF91BF91AF919F91EA
:1008D0008F917F916F915F914F913F912F910F90E9
:1008E0000BBE0F900FBE0F901F9018951F920F9286
:1008F0000FB60F9211240BB60F922F933F934F9385
:100900005F936F937F938F939F93AF93BF93EF9377
:10091000FF9381E094E00E94E201FF91EF91BF918B
:10092000AF919F918F917F916F915F914F913F9187
:100930002F910F900BBE0F900FBE0F901F90189528
:100940001F920F920FB60F9211240BB60F922F9396
:100950003F934F935F936F937F938F939F93AF9347
:10096000BF93EF93FF938EE994E00E945602FF91AC
:10097000EF91BF91AF919F918F917F916F915F9117
:100980004F913F912F910F900BBE0F900FBE0F9084
:100990001F9018951F920F920FB60F9211240BB64D
:1009A0000F922F933F934F935F936F937F938F9308
:1009B0009F93AF93BF93EF93FF938EE994E00E94D0
:1009C000E201FF91EF91BF91AF919F918F917F9144
:1009D0006F915F914F913F912F910F900BBE0F90B0
:1009E0000FBE0F901F9018958F929F92AF92BF925B
:1009F000CF92DF92EF92FF920F931F93CF93DF93EB
:100A0000EC016A017B0120E030E04FE753E4C701CD
:100A1000B6010E944D144B015C0120E030E0A901B9
:100A20000E944A1618161CF4C501B40103C0C50182
:100A3000B40190580E9414168B0120E030E0A90107
:100A4000C701B6010E944A16181614F460E001C0EE
:100A500061E089810E94570D0F3F110509F014F4E0
:100A6000112702C00FEF10E0C88161E08C2F0E94B7
:100A7000D40D0115110509F4B1C00F3F110509F49A
:100A8000AFC0EC2FF0E0E354FD4FE4914E2F50E067
:100A9000FA013197E231F10508F09DC08827EE5840
:100AA000FF4F8F4F0C942D1584B5806884BD07BD12
:100AB000A7C084B5806284BD08BDA2C080918000BB
:100AC000806880938000109389000093880098C00C
:100AD0008091800080628093800010938B0000934F
:100AE0008A008EC08091800088608093800010937F
:100AF0008D0000938C0084C08091B000806880934A
:100B0000B0000093B3007CC08091B00080628093FD
:100B1000B0000093B40074C080919000806880930E
:100B2000900010939900009398006AC08091900003
:100B300080628093900010939B0000939A0060C0A5
:100B40008091900088608093900010939D000093A6
:100B50009C0056C08091A00080688093A000809186
:100B6000A0008F7B8093A0001093A9000093A800A1
:100B700047C08091A00080628093A0001093AB00DA
:100B80000093AA003DC08091A00088608093A000DF
:100B90001093AD000093AC0033C0809120018068B9
:100BA00080932001109329010093280129C080918E
:100BB000200180628093200110932B0100932A0171
:100BC0001FC08091200188608093200110932D0127
:100BD00000932C0115C00038110514F460E001C029
:100BE00061E08C2FDF91CF911F910F91FF90EF90DB
:100BF000DF90CF90BF90AF909F908F900C94570D47
:100C0000DF91CF911F910F91FF90EF90DF90CF90E8
:100C1000BF90AF909F908F900895CF93DF93EC019A
:100C200060E088810E94570D88E90E941B0880E0DF
:100C30000E941B0880E00E941B0880E00E941B08A5
:100C400080E00E941B0861E088810E94570D8BE8BC
:100C500091E00197F1F760E088810E94570D80EEE6
:100C60000E941B0861E08881DF91CF910C94570DA1
:100C70000F931F93CF93DF93EC01862F68834983F3
:100C800061E00E94D40D60E089810E94D40D61E092
:100C900088810E94570D1FB7F894809182028111BC
:100CA00027C0E6E6F2E09491ECEAF2E08491E92FC5
:100CB000F0E0EE0FFF1FE350FE4FA591B491EC91D1
:100CC000E82321F461E085E30E94570D61E085E3AC
:100CD0000E94D40D8CB580618CBD8CB580648CBDB8
:100CE00061E084E30E94D40D61E083E30E94D40DAF
:100CF000809182028F5F809382021FBF0BEC17E00E
:100D0000C8010197F1F760E088810E94570D88E8DB
:100D10000E941B0883E00E941B0861E088810E94FA
:100D2000570DC8010197F1F7CE01DF91CF911F91C7
:100D30000F910C940D06AF92BF92CF92DF92EF927B
:100D4000FF920F931F93CF93DF93CDB7DEB76097DA
:100D50000FB6F894DEBF0FBECDBF5C0160E0FC01B2
:100D600080810E94570D80E60E941B088E010F5F54
:100D70001F4F7E01F1E1EF0EF11C680180E00E943F
:100D80001B0890E0A0E0B0E0F60181939193A1935D
:100D9000B1936F01EE15FF0589F761E0F5018081E0
:100DA0000E94570D80E090E0DC01F80141915191E3
:100DB000619171918F01BA2FA92F982F8827840FE5
:100DC000951FA61FB71FEE15FF0579F79C01AD0112
:100DD00066277727CB01621B730B840B950B6096FC
:100DE0000FB6F894DEBF0FBECDBFDF91CF911F913C
:100DF0000F91FF90EF90DF90CF90BF90AF9008954C
:100E0000089580E090E00895E0E0F0E01994CF923A
:100E1000DF92EF92FF920F931F93CF93DF936C01BA
:100E20008B017A01EC01C055DD4F888187FF04C03A
:100E3000FB011182108224C08CE08C9D90018D9D5D
:100E4000300D11248881A901480F511D87FD5A9545
:100E50008091CB0590E04817590794F48881A90147
:100E6000480F511D87FD5A95CA01FA01EE0FFF1F69
:100E70008E0F9F1FFC01E55CFA4F808186FD19C033
:100E800088818F5F88838CE08C9D90018D9D300DD3
:100E900011248881A901480F511D87FD5A95809121
:100EA000CB0590E048175907BCF488818C3044F199
:100EB00013C08881280F311D87FD3A95F901EE0F87
:100EC000FF1F2E0F3F1FF901E55CFA4F808160E0A4
:100ED0008F730E94570DD4CFF801808191810496C1
:100EE00080349C4918F480E49CE904C0F8018081B6
:100EF00091810496F701918380838FEF888345C0A9
:100F0000F801408151818881B901680F711D87FD09
:100F10007A95CB01FB01EE0FFF1F8E0F9F1FFC0187
:100F2000E55CFA4F81819281840F951FF7019183CF
:100F300080838881A901480F511D87FD5A95CA01F8
:100F4000FA01EE0FFF1F8E0F9F1FFC01E55CFA4FA9
:100F5000808186FF1AC08881280F311D87FD3A9550
:100F6000F901EE0FFF1F2E0F3F1FF901E55CFA4F4D
:100F7000808161E08F73DF91CF911F910F91FF907E
:100F8000EF90DF90CF900C94570DDF91CF911F9190
:100F90000F91FF90EF90DF90CF900895FC01248196
:100FA00031E03093340320935603109235031092AE
:100FB00057038485682B88E593E00E94A50B0C9469
:100FC0006F0E0F931F93CF938C01C62F64600E9406
:100FD000CE076C2F6B7FC8010E94CE0783EC90E098
:100FE0000197F1F7CF911F910F9108950F931F93E0
:100FF000CF93DF938C01C62FD62FD07FD1606D2F7A
:101000000E94CE076D2FC8010E94E10780E1C89FB2
:10101000B0011124C62FC1606C2FC8010E94CE07F9
:101020006C2FC8010E94E10781E090E0DF91CF9131
:101030001F910F9108958EBD00000DB407FEFDCFE6
:101040008EB508951F920F920FB60F9211240BB612
:101050000F922F933F934F935F936F937F938F9351
:101060009F93AF93BF93EF93FF9348E251E064E205
:1010700071E080E090E00E940707FF91EF91BF913F
:10108000AF919F918F917F916F915F914F913F9120
:101090002F910F900BBE0F900FBE0F901F901895C1
:1010A0001F920F920FB60F9211240BB60F922F932F
:1010B0003F934F935F936F937F938F939F93AF93E0
:1010C000BF93EF93FF9348EA50E064EA70E083E057
:1010D00090E00E940707FF91EF91BF91AF919F9120
:1010E0008F917F916F915F914F913F912F910F90D1
:1010F0000BBE0F900FBE0F901F9018951F920F926E
:101100000FB60F9211240BB60F922F933F934F936C
:101110005F936F937F938F939F93AF93BF93EF935F
:10112000FF9348E950E064E970E082E090E00E94BB
:101130000707FF91EF91BF91AF919F918F917F91A1
:101140006F915F914F913F912F910F900BBE0F9038
:101150000FBE0F901F9018951F920F920FB60F920F
:1011600011240BB60F922F933F934F935F936F937E
:101170007F938F939F93AF93BF93EF93FF9348E831
:1011800050E064E870E081E090E00E940707FF9182
:10119000EF91BF91AF919F918F917F916F915F91EF
:1011A0004F913F912F910F900BBE0F900FBE0F905C
:1011B0001F9018954F925F926F927F928F929F929D
:1011C000AF92BF92CF92DF92EF92FF920F931F9355
:1011D000CF93DF9300D01F92CDB7DEB7BC01990F3C
:1011E000880B990B0E94EE132DED38E444E053E494
:1011F0000E944D140E9414168B018EEB92E00E9407
:101200000D0680EC92E00E940D068DEC9CECACE4A7
:10121000BEE38093AC029093AD02A093AE02B09374
:10122000AF02AC01BD018AEB92E00E94F4044DECE8
:101230005CEC6CE47EEB8CEB92E00E94F404980191
:10124000012E000C440B550B29833A834B835C839E
:10125000412C512C80E8682E8EE3782E8EEB92E0A4
:101260000E949B069B01AC0188279927DC01821B09
:10127000930BA40BB50B909381028093800280ECBA
:1012800092E00E949B067093C3026093C2028EE3B9
:1012900092E00E94350E6091AC027091AD02809197
:1012A000AE029091AF0242E00E945F0FA0908002D8
:1012B000B0908102B5010B2C000C880B990B0E9499
:1012C000EE136B017C0169817A818B819C810E9484
:1012D000EE132DED38E444E854E40E9435159B01EB
:1012E000AC01C701B6010E944A16C090AC02D09072
:1012F000AD02E090AE02F090AF0218169CF42DEC17
:101300003CEC4CE45EE3C701B6010E944A16181695
:101310001CF52DEC3CEC4CE45DE3C701B6010E94EA
:10132000351512C02AE939E949E15FE3C701B60181
:101330000E94E71387FF10C02AE037ED43EA5CE321
:10134000C701B6010E9436156093AC027093AD02DE
:101350008093AE029093AF022091C2023091C302FB
:10136000C501821B930BAC01475F5F4F43315105B1
:1013700028F48DEC9CECACE4BDE312C08D599F4F7A
:10138000873C910548F4409201025092020260921B
:101390000302709204020CC080E090E0A0E0BFE382
:1013A0008093010290930202A0930302B09304027F
:1013B000C090AC02D090AD02E090AE02F090AF02CF
:1013C0002A153B052CF58090010290900202A09016
:1013D0000302B0900402A501940160E070E080E88F
:1013E0009FE30E9435159B01AC01C701B6010E9425
:1013F0004D14AB01BC018AEB92E00E94F40420E0A2
:1014000030E040E85FE3C501B4010E94361527C013
:10141000A216B30694F58090010290900202A0906B
:101420000302B090040220E030E040E85FE3C50131
:10143000B4010E9436159B01AC01C701B6010E94A0
:101440004D14AB01BC018AEB92E00E94F404A501AB
:10145000940160E070E080E89FE30E9435159B01F5
:10146000AC01C701B6010E944D14AB01BC0170581C
:101470008CEB92E00E94F40423C0B701A6018AEB32
:1014800092E00E94F404B701A60170588CEB92E040
:101490000E94F4048EE492E00E94350E42E06DEC6E
:1014A0007CEC8CE49EE30E945F0F8AE592E00E9450
:1014B000350E42E06DEC7CEC8CE49EE30E945F0F05
:1014C000C0908002D09081020D2C000CEE08FF0825
:1014D000F7FE0CC08DE20E94130F66277727CB0121
:1014E0006C197D098E099F094AE003C04AE0C701D3
:1014F000B6010E941E0F8BE392E00E94350E809190
:101500008002909181028017910744F48091C20279
:101510009091C302801791070CF4A0CE86E692E06A
:101520000E94350E40E050E0BA018AEB92E00E9442
:10153000F40440E050E060E070E88CEB92E00F9043
:101540000F900F900F90DF91CF911F910F91FF900F
:10155000EF90DF90CF90BF90AF909F908F907F9053
:101560006F905F904F900C94F4048F929F92AF9283
:10157000BF92CF92DF92EF92FF926B017C018EEBD4
:1015800092E00E940D0680EC92E00E940D064AE96E
:1015900059E969E17FE38AEB92E00E94F40440E0BC
:1015A00050E060E070E88CEB92E00E94F4048EEB77
:1015B00092E00E949B069B01AC0188279927DC01E1
:1015C000821B930BA40BB50B909381028093800236
:1015D000BC01990F880B990B0E94EE134B015C0123
:1015E00020E030E04AE755E4C701B6010E944D14FF
:1015F00020E030E044EB52E40E94A2159B01AC01D4
:10160000C501B4010E94E71387FDD1CF40E050E04F
:10161000BA018AEB92E00E94F40440E050E060E0FE
:1016200070E88CEB92E0FF90EF90DF90CF90BF904E
:10163000AF909F908F900C94F40485ED8093BC0044
:101640008091BC0084FDFCCF10923303089540913B
:10165000E602262F30E0240F311D21323105DCF463
:10166000209133032430C9F4FC0180E090E0861718
:1016700058F43091E6022191DC01AC53BD4FA30F29
:10168000B11D2C930196F3CF8091E602680F609311
:10169000E60280E0089581E0089582E008950895CB
:1016A00081E090E03091B9022091B802321710F435
:1016B00080E090E091958195910908958091B9021B
:1016C0009091B802891730F48F5F8093B90280E05F
:1016D00090E008958FEF9FEF08958091B80290E019
:1016E0002091B902821B91090895CF92DF92EF9267
:1016F000FF920F931F93CF93DF937C01262F972F99
:101700008A0180913403882391F0C62FD72F6E0170
:10171000C40ED51ECC15DD0571F06991D701ED9190
:10172000FC910190F081E02DC7011995F3CF642F52
:10173000822F0E94270BC801DF91CF911F910F913B
:10174000FF90EF90DF90CF900895CF93DF931F929B
:10175000CDB7DEB76983209134032223D1F02091E5
:101760005703203240F021E030E0FC013383228334
:1017700080E090E015C080913503E82FF0E0EA5C4E
:10178000FC4F998190838F5F80933503809357033B
:1017900005C061E0CE0101960E94270B81E090E038
:1017A0000F90DF91CF9108958EEB92E00E940D068D
:1017B00080EC92E00E940D0640E050E0BA018AEB16
:1017C00092E00E94F4044AE959E969E17FEB8CEB6D
:1017D00092E00E94F40480EC92E00E949B067093D9
:1017E000C3026093C202072E000C880B990B0E9463
:1017F000EE1320E030E04AE755E40E94E71387FD4E
:10180000EACF42E060E070E08AE795E40E945F0F73
:101810008BE392E00E94350E40E050E0BA018AEB83
:1018200092E00E94F40440E050E060E070E88CEB4D
:1018300092E00C94F4041F920F920FB60F921124B1
:101840000F900FBE0F901F9018951F920F920FB61A
:101850000F9211240BB60F922F933F934F935F93E8
:101860006F937F938F939F93AF93BF93EF93FF9368
:101870008091B900887F803609F49CC068F5883271
:1018800009F45BC090F4803109F454C038F4882323
:1018900009F4F6C0883009F44DC0F6C0883109F467
:1018A0004CC0803209F45DC0EFC0803409F468C0D8
:1018B00048F4803309F455C0883309F0E5C08093BB
:1018C0003103D8C0803509F44FC0883509F45DC0B4
:1018D000883409F0D9C0D6C0883909F4C7C0A8F443
:1018E000883709F467C038F4883609F463C0803754
:1018F00009F460C0C9C0883809F4B8C0803909F457
:101900005FC0803809F0C0C05BC0803B09F486C06E
:1019100038F4803A09F466C0883A09F47FC0B4C04C
:10192000803C09F4A7C0883C09F4A4C0883B09F4B2
:101930008AC0AAC080910E0310C09091300380919C
:101940002F03981770F5E091300381E08E0F80939C
:101950003003F0E0E15FFC4F80818093BB0085ECB9
:1019600086C0809331038EC0E091300381E08E0FFA
:10197000809330038091BB00F0E0E15FFC4F8083F7
:101980009091300380912F036EC0E091300381E08D
:101990008E0F809330038091BB00F0E0E15FFC4F3D
:1019A00080838091320381116DC081E080930D03AB
:1019B00084EA61C083E08093330310920A03CFCF9F
:1019C00080910A03803208F051C0E0910A0381E05F
:1019D0008E0F80930A038091BB00F0E0E651FD4F2B
:1019E0008083BDCF85EC8093BC001092330380913F
:1019F0000A03803230F4E0910A03F0E0E651FD4F33
:101A0000108260910A0370E0E091E802F091E9022F
:101A10008AEE92E0199510920A0336C084E0809312
:101A200033031092E7021092E602E091E402F09193
:101A3000E50219958091E602811105C081E080934D
:101A4000E6021092C402E091E70281E08E0F8093DB
:101A5000E702F0E0EC53FD4F80818093BB00909152
:101A6000E7028091E602981708F479CF85E8809321
:101A7000BC000AC085EC8093BC001092330304C004
:101A8000109231030E941D0BFF91EF91BF91AF9116
:101A90009F918F917F916F915F914F913F912F9186
:101AA0000F900BBE0F900FBE0F901F901895362F02
:101AB00090E0FC01E354FD4F4491FC01E958FD4FD7
:101AC0002491FC01EF5CFD4F9491992309F46BC0C4
:101AD000442309F455C050E0FA013197E231F10591
:101AE00008F04EC08827EC57FF4F8F4F0C942D15F0
:101AF000809180008F7707C0809180008F7D03C028
:101B000080918000877F809380003AC084B58F7772
:101B100002C084B58F7D84BD33C08091B0008F77C3
:101B200003C08091B0008F7D8093B00029C0809168
:101B300090008F7707C0809190008F7D03C08091C7
:101B40009000877F809390001BC08091A0008F77CA
:101B500007C08091A0008F7D03C08091A000877F87
:101B60008093A0000DC0809120018F7707C08091E5
:101B700020018F7D03C080912001877F8093200109
:101B8000E92FF0E0EE0FFF1FE95EFD4FA591B49144
:101B90008FB7F894EC91311103C020952E2301C02A
:101BA0002E2B2C938FBF0895CF93DF9390E0FC01F1
:101BB000E958FD4F2491FC01EF5CFD4F849188238F
:101BC00061F190E0880F991FFC01E350FE4FC59131
:101BD000D491FC01E95EFD4FA591B491611109C05A
:101BE0009FB7F8948881209582238883EC912E23D7
:101BF0000BC0623061F49FB7F8943881822F8095D2
:101C000083238883EC912E2B2C939FBF06C08FB724
:101C1000F894E8812E2B28838FBFDF91CF91089510
:101C20003FB7F8948091B4029091B502A091B602AA
:101C3000B091B70226B5A89B05C02F3F19F00196B9
:101C4000A11DB11D3FBFBA2FA92F982F8827820F42
:101C5000911DA11DB11DBC01CD0142E0660F771F92
:101C6000881F991F4A95D1F70895009769F0FC01E4
:101C700001900020E9F73197AF01481B590BBC01D7
:101C80008EE994E00C94B70180E090E00895EEE9CD
:101C9000F4E0A089B18982E08C93A485B5851C927B
:101CA000A685B7858FEC8C93108EA489B58986E0C4
:101CB0008C93A289B3898C9180618C93A289B3891A
:101CC0008C9188608C93A289B3898C9180688C9365
:101CD0000288F389E02D80818F7D80830895209193
:101CE000570390915603213208F04AC08091330384
:101CF0008111FCCF32E03093330331E03093320373
:101D00003FEF309331031092300320932F03A6E36B
:101D1000B3E04FE053E0FA013E2F341B321718F4C2
:101D20003D913193F9CF10920E0320910E03990F3C
:101D3000922B90930E0390910D03913061F41092C9
:101D40000D0390910E039093BB009091BC0093FD06
:101D5000F8CF95EC01C095EE9093BC0090913303C1
:101D60009230E1F3909131039F3F79F080913103FC
:101D7000803241F080913103803331F084E005C03E
:101D800081E003C082E001C083E01092350310922D
:101D90005703109234030895EF92FF921F93CF934D
:101DA000DF931F92CDB7DEB7162F97E3E92E96E0AB
:101DB000F92ED7011C969C911C9721E020933403A7
:101DC0009093560310923503109257031A960D9074
:101DD000BC91A02DED91FC9111970190F081E02D27
:101DE000682FCD0179831995F70182859385DC01F0
:101DF000ED91FC910190F081E02D7981672F19958B
:101E0000F70182859385DC01ED91FC910190F081D1
:101E1000E02D612F19950F90DF91CF911F91FF90C9
:101E2000EF900C946F0EE0919E04F0919F0401904E
:101E3000F081E02D682F8EE994E019948F929F92A3
:101E4000AF92BF920F931F93CF93DF93CDB7DEB7BF
:101E5000A1970FB6F894DEBF0FBECDBF19A24230D6
:101E600008F44AE08E010F5D1F4F842E912CA12CA7
:101E7000B12CA50194010E940B15E62FB901CA01EE
:101E800001501109EA3014F4E05D01C0E95CD801A9
:101E9000EC93232B242B252B61F7C8010E94350ED0
:101EA000A1960FB6F894DEBF0FBECDBFDF91CF91E4
:101EB0001F910F91BF90AF909F908F9008954F9278
:101EC0005F926F927F928F929F92AF92BF92CF92CA
:101ED000DF92EF92FF926B017C01B42E9B01AC016B
:101EE0000E944F16882319F083E792E027C026014D
:101EF0003701E89477F82FEF3FEF4FE75FE7C30133
:101F0000B2010E944F1681110DC02FEF3FEF4FE736
:101F10005FE7C301B2010E94E71318161CF487E7BC
:101F200092E00CC02FEF3FEF4FE75FE4C701B6012F
:101F30000E944A16181684F48BE792E0FF90EF9007
:101F4000DF90CF90BF90AF909F908F907F906F90D9
:101F50005F904F900C94350E2FEF3FEF4FE75FEC03
:101F6000C701B6010E94E71387FDE6CF20E030E00D
:101F7000A901C701B6010E94E71387FF09C08DE2DE
:101F80000E94130F4C01F7FAF094F7F8F09402C096
:101F9000812C912CA12C60E070E080E09FE3AB14D9
:101FA00041F020E030E040E251E40E94A215A39409
:101FB000F6CF9B01AC01C701B6010E9436152B017B
:101FC0003C010E941B166B017C010E94EC139B01DB
:101FD000AC01C301B2010E9435152B013C014AE05E
:101FE000C701B6010E941E0F7C01E80CF91CBB2042
:101FF00029F08EE20E94130FE80EF91EDB2CDD2083
:1020000021F120E030E040E251E4C301B2010E943E
:102010004D142B013C010E941B164B01A12CB12C2D
:102020004AE0C501B4010E941E0FE80EF91EC50169
:10203000B4010E94EC139B01AC01C301B2010E94E8
:1020400035152B013C01DA94DACFC701FF90EF90F0
:10205000DF90CF90BF90AF909F908F907F906F90C8
:102060005F904F900895789484B5826084BD84B564
:10207000816084BD85B5826085BD85B5816085BD83
:1020800080916E00816080936E001092810080913B
:1020900081008260809381008091810081608093C3
:1020A0008100809180008160809380008091B100E8
:1020B00084608093B1008091B00081608093B00013
:1020C0008091910082608093910080919100816065
:1020D0008093910080919000816080939000809126
:1020E000A10082608093A1008091A1008160809313
:1020F000A1008091A00081608093A00080912101C7
:10210000826080932101809121018160809321016F
:102110008091200181608093200180917A00846009
:1021200080937A0080917A00826080937A00809117
:102130007A00816080937A0080917A008068809331
:102140007A001092C1000E94470E86E08093BA0286
:102150008FE18093BB0261E086E00E94D40D61E0D4
:102160008091BB020E94D40D85E08093BC028EE179
:102170008093BD0261E085E00E94D40D61E0809112
:10218000BD020E94D40D45E463E28EEB92E00E9412
:10219000380644E462E280EC92E00E94380686E170
:1021A00080938A0287E180938B0260E086E10E943F
:1021B000D40D61E080918B020E94D40D60E080918B
:1021C0008B020E94570D88E180938C0289E18093F5
:1021D0008D0260E088E10E94D40D61E080918D0263
:1021E0000E94D40D60E080918D020E94570D61E045
:1021F000809138060E94D40D60E0809138060E94DC
:10220000570D60E0809137060E94D40D88E593E079
:1022100090934206809341061092B9021092B80240
:1022200010923503109257031092330381E080938C
:10223000320310920D0361E084E10E94570D61E0CA
:1022400085E10E94570D8091B9008E7F8093B9007F
:102250008091B9008D7F8093B90088E48093B800A5
:1022600085E48093BC0080E090E1A0E0B0E0809342
:10227000440690934506A0934606B09347068AE02D
:1022800090E0A0E0B0E08093480690934906A093C8
:102290004A06B0934B0682E090E0A0E0B0E0809365
:1022A0004C0690934D06A0934E06B0934F0660E007
:1022B00070E185E00E94CC0E6FE979E380E00E9436
:1022C000CC0EC9E3D6E01C2F1C5F60E089910E9410
:1022D000D40D1C13FACF8EEB92E00E940D0680EC19
:1022E00092E00E940D060E94470E88EC90E00E944A
:1022F000DA080E94D40B88E290E00E94DA0860E0DD
:1023000070E084EB92E40E94B50A8EE190E00E94B6
:10231000DA0860E070E084EB92E40E94B50A8EE196
:1023200090E00E94DA080E94D40B88E090E00E94BE
:10233000DA0860E070E08CE092E40E94B50A86E280
:1023400090E00E94DA080E94D40B87E390E00E949C
:10235000DA0860E070E084E392E40E94B50A82E368
:1023600090E00E94DA0860E070E080E691E40E946C
:10237000B50A82E390E00E94DA088EEB92E00E94B8
:102380000D0680EC92E00E940D064AE959E969E1E8
:102390007FEB8AEB92E00E94F4044AE959E969E193
:1023A0007FEB8CEB92E00E94F40480EC92E00E94C0
:1023B0009B067093C3026093C2028EEB92E00E9470
:1023C0009B069B01AC0188279927DC01821B930B9C
:1023D000A40BB50B90938102809380028091C2027E
:1023E0009091C302803A9F4004F342E06CE177ECA5
:1023F00081E392E40E945F0F8BE392E00E94350E2E
:1024000040E050E0BA018AEB92E00E94F40440E020
:1024100050E060E070E88CEB92E00E94F4040E94CF
:10242000100E4B015C018AE0C82ED12CE12CF12C5E
:102430000E94100EDC01CB0188199909AA09BB0979
:10244000883E9340A105B10558F041E0C41AD10877
:10245000E108F10858EE850E53E0951EA11CB11C51
:10246000C114D104E104F10419F70E94E002D7CFAE
:102470008091CC059091CD050C94E91610925B03E8
:1024800010925A0388EE93E0A0E0B0E080935C03E2
:1024900090935D03A0935E03B0935F032FE032E05F
:1024A00030935903209358031092670310926603E8
:1024B0008093680390936903A0936A03B0936B03BE
:1024C00021E232E0309365032093640345E351E059
:1024D000509371034093700344E351E050937303AE
:1024E0004093720340E351E05093750340937403AB
:1024F00041E351E0509377034093760342E351E088
:10250000509379034093780346E351E050937B0363
:1025100040937A0310927D0310927E0310927F0302
:102520001092800310920404109203048093050417
:1025300090930604A0930704B09308043093020418
:102540002093010445ED50E050930E0440930D0498
:1025500044ED50E05093100440930F0440ED50E0E0
:10256000509312044093110441ED50E05093140431
:102570004093130442ED50E0509316044093150429
:1025800046ED50E0509318044093170410921A043B
:1025900010921B0410921C0410921D041092A104AE
:1025A0001092A0048093A2049093A304A093A40487
:1025B000B093A50430939F0420939E0485EC90E093
:1025C0009093AB048093AA0484EC90E09093AD04C4
:1025D0008093AC0480EC90E09093AF048093AE04C1
:1025E00081EC90E09093B1048093B00482EC90E091
:1025F0009093B3048093B20486EC90E09093B5047A
:102600008093B4041092B7041092B8041092B904E5
:102610001092BA048DE090E00E945416FC011382DF
:10262000128283E392E091838083118687E2848320
:1026300084E1828784E083871486F0935106E093D7
:10264000500610925206109253068CE08093370683
:1026500084E2809338068BE1809339068DE1809384
:102660003A068AE180933B068CE180933C0686E340
:1026700080933D0687E380933E0688E380933F0680
:1026800089E38093400680E48093430610924806D5
:102690001092490610924A0610924B0610924C0670
:1026A00010924D0610924E0610924F068091CB0567
:1026B000803320F09FEF9093310611C08093310654
:1026C000282F30E0F901EE0FFF1F2E0F3F1FF901F9
:1026D000E55CFA4F28EB3BE0328321838F5F803348
:1026E00090F480933406282F30E0F901EE0FFF1F9D
:1026F0002E0F3F1FF901E55CFA4F28EB3BE03283D8
:1027000021838F5F03C09FEF909334068093CB05A6
:10271000E2EDF5E08FEF9FEFDC011282138214826D
:102720001582168217821086118683879487A58763
:10273000B6878787908BA18BB28B1286118210820D
:10274000739626E0E133F20741F71092CD0510921F
:10275000CC051092CF051092CE051092D1051092A3
:10276000D00561E070E080E090E00E948117009762
:1027700089F09093CD058093CC051092CF051092EF
:10278000CE052091D0053091D105232BC1F4FC0159
:10279000108215C08091CC059091CD05009711F065
:1027A0000E94E9161092CD051092CC051092D10529
:1027B0001092D0051092CF051092CE050895109278
:1027C000D1051092D0056DE372E00C9478180E9448
:1027D000291408F481E00895E89409C097FB3EF4B9
:1027E00090958095709561957F4F8F4F9F4F99235E
:1027F000A9F0F92F96E9BB279395F69587957795DC
:102800006795B795F111F8CFFAF4BB0F11F460FF9B
:102810001BC06F5F7F4F8F4F9F4F16C0882311F0F3
:1028200096E911C0772321F09EE8872F762F05C007
:10283000662371F096E8862F70E060E02AF09A95A2
:10284000660F771F881FDAF7880F9695879597F997
:102850000895990F0008550FAA0BE0E8FEEF161631
:102860001706E807F907C0F012161306E407F50784
:1028700098F0621B730B840B950B39F40A2661F0F8
:10288000232B242B252B21F408950A2609F4A1409B
:10289000A6958FEF811D811D08950E9460140C94F0
:1028A000D1140E94C31438F00E94CA1420F095235A
:1028B00011F00C94BA140C94C01411240C94051546
:1028C0000E94E21470F3959FC1F3950F50E0551FDD
:1028D000629FF001729FBB27F00DB11D639FAA2775
:1028E000F00DB11DAA1F649F6627B00DA11D661FC4
:1028F000829F2227B00DA11D621F739FB00DA11DE5
:10290000621F839FA00D611D221F749F3327A00D9E
:10291000611D231F849F600D211D822F762F6A2F3A
:1029200011249F5750409AF0F1F088234AF0EE0F9F
:10293000FF1FBB1F661F771F881F91505040A9F7CC
:102940009E3F510580F00C94BA140C9405155F3F1E
:10295000E4F3983ED4F3869577956795B795F79508
:10296000E7959F5FC1F7FE2B880F911D9695879580
:1029700097F9089597F99F6780E870E060E00895FF
:102980009FEF80EC089500240A9416161706180687
:102990000906089500240A94121613061406050663
:1029A0000895092E0394000C11F4882352F0BB0FF4
:1029B00040F4BF2B11F460FF04C06F5F7F4F8F4F57
:1029C0009F4F089557FD9058440F551F59F05F3F92
:1029D00071F04795880F97FB991F61F09F3F79F041
:1029E00087950895121613061406551FF2CF4695C3
:1029F000F1DF08C0161617061806991FF1CF869545
:102A00007105610508940895E894BB276627772728
:102A1000CB0197F90895A1E21A2EAA1BBB1BFD0159
:102A20000DC0AA1FBB1FEE1FFF1FA217B307E407AD
:102A3000F50720F0A21BB30BE40BF50B661F771F05
:102A4000881F991F1A9469F76095709580959095E5
:102A50009B01AC01BD01CF010895EE0FFF1F881F40
:102A60008BBF0790F691E02D19945058BB27AA27E9
:102A70000E944D150C94D1140E94C31438F00E948A
:102A8000CA1420F039F49F3F19F426F40C94C014B2
:102A90000EF4E095E7FB0C94BA14E92F0E94E214BF
:102AA00058F3BA17620773078407950720F079F483
:102AB000A6F50C9404150EF4E0950B2EBA2FA02D5C
:102AC0000B01B90190010C01CA01A0011124FF27DB
:102AD000591B99F0593F50F4503E68F11A16F040D6
:102AE000A22F232F342F4427585FF3CF46953795D5
:102AF0002795A795F0405395C9F77EF41F16BA0B9A
:102B0000620B730B840BBAF09150A1F0FF0FBB1F47
:102B1000661F771F881FC2F70EC0BA0F621F731F90
:102B2000841F48F4879577956795B795F7959E3FED
:102B300008F0B0CF9395880F08F09927EE0F97957E
:102B4000879508950E94B6150C94D1140E94CA145A
:102B500058F00E94C31440F029F45F3F29F00C9410
:102B6000BA1451110C9405150C94C0140E94E2146F
:102B700068F39923B1F3552391F3951B550BBB27AC
:102B8000AA2762177307840738F09F5F5F4F220FF1
:102B9000331F441FAA1FA9F335D00E2E3AF0E0E8E8
:102BA00032D091505040E695001CCAF72BD0FE2F32
:102BB00029D0660F771F881FBB1F261737074807C6
:102BC000AB07B0E809F0BB0B802DBF01FF2793587E
:102BD0005F4F3AF09E3F510578F00C94BA140C9474
:102BE00005155F3FE4F3983ED4F386957795679596
:102BF000B795F7959F5FC9F7880F911D96958795B3
:102C000097F90895E1E0660F771F881FBB1F6217D1
:102C100073078407BA0720F0621B730B840BBA0B8F
:102C2000EE1F88F7E09508950E941B166894B11175
:102C30000C94051508950E94EA1488F09F5798F0A7
:102C4000B92F9927B751B0F0E1F0660F771F881FB1
:102C5000991F1AF0BA95C9F714C0B13091F00E94CB
:102C60000415B1E008950C940415672F782F882778
:102C7000B85F39F0B93FCCF3869577956795B395F2
:102C8000D9F73EF490958095709561957F4F8F4F61
:102C90009F4F08950E94291408F48FEF08950E9411
:102CA0002914880B990B0895CF93DF9382309105F7
:102CB00010F482E090E0E0915606F091570620E093
:102CC00030E0C0E0D0E0309711F1408151814817E9
:102CD0005907C0F04817590761F482819381209702
:102CE00019F09B838A832BC09093570680935606D6
:102CF00026C02115310519F04217530718F49A011F
:102D0000BE01DF01EF010280F381E02DDCCF211550
:102D1000310509F1281B390B2430310590F4129646
:102D20008D919C9113976115710521F0FB0193839F
:102D3000828304C09093570680935606FD01329615
:102D400044C0FD01E20FF31F81939193225031099A
:102D50002D933C933AC02091540630915506232B75
:102D600041F42091070230910802309355062093D8
:102D7000540620910502309106022115310541F4D7
:102D80002DB73EB74091090250910A02241B350B22
:102D9000E0915406F0915506E217F307A0F42E1BBC
:102DA0003F0B2817390778F0AC014E5F5F4F2417AF
:102DB000350748F04E0F5F1F509355064093540659
:102DC0008193919302C0E0E0F0E0CF01DF91CF91D9
:102DD00008950F931F93CF93DF93009709F48CC04E
:102DE000FC01329713821282009156061091570609
:102DF0000115110581F420813181820F931F2091EB
:102E00005406309155062817390779F5F093550681
:102E1000E093540671C0D80140E050E0AE17BF0700
:102E200050F412962D913C911397AD012115310567
:102E300009F1D901F3CF9D01DA0133832283608147
:102E40007181860F971F8217930769F4EC0128811F
:102E50003981260F371F2E5F3F4F318320838A81B0
:102E60009B8193838283452B29F4F0935706E0934B
:102E7000560642C01396FC93EE931297ED014991CA
:102E800059919E01240F351FE217F30771F48081D9
:102E90009181840F951F029611969C938E93828147
:102EA000938113969C938E931297E0E0F0E0D80103
:102EB00012968D919C911397009719F0F8018C014F
:102EC000F6CF8D919C9198012E5F3F4F820F931FFB
:102ED00020915406309155062817390769F4309728
:102EE00029F4109257061092560602C013821282DD
:102EF0001093550600935406DF91CF911F910F91C7
:102F000008956F927F928F929F92AF92BF92CF92CD
:102F1000DF92EF92FF920F931F93CF93DF93EC0119
:102F2000009789F4CB01DF91CF911F910F91FF9012
:102F3000EF90DF90CF90BF90AF909F908F907F9059
:102F40006F900C945416FC01E60FF71F9C01225061
:102F50003109E217F30708F4ACC0D9010D911C91B7
:102F6000119706171707B0F00530110508F49FC038
:102F7000C80104978617970708F499C002501109F1
:102F8000061B170B019311936D937C93CF010E9445
:102F9000E9168DC05B01A01AB10A4C01800E911E8A
:102FA000A0915606B091570640E050E0E12CF12C7C
:102FB000109709F44AC0A815B905D1F56D907C9019
:102FC0001197630182E0C80ED11CCA14DB0480F1A2
:102FD000A3014A195B096A0182E0C80ED11C12964E
:102FE000BC9012971396AC91B5E0CB16D10440F08B
:102FF000B282A38351834083D9016D937C930AC02D
:103000000E5F1F4FC301800F911FF90191838083D1
:10301000EB2DFA2FE114F10431F0D7011396FC9354
:10302000EE93129744C0F0935706E09356063FC0C4
:103030008D919C9111974817590708F4AC017D01B7
:1030400012960D90BC91A02DB3CF80915406909113
:10305000550688159905E1F446175707C8F480917D
:10306000050290910602009741F48DB79EB74091FA
:10307000090250910A02841B950BE817F907C8F45E
:10308000F0935506E0935406F901718360830FC0F5
:10309000CB010E9454167C01009759F0A801BE0193
:1030A0000E946F18CE010E94E916C70104C0CE012C
:1030B00002C080E090E0DF91CF911F910F91FF90CF
:1030C000EF90DF90CF90BF90AF909F908F907F90C8
:1030D0006F90089581E090E0F8940C947F18FB01C4
:1030E000DC0102C001900D9241505040D8F7089584
:1030F000FB01DC0101900D920020E1F7089511E041
:10310000C3E8D1E000E006C0802FFE010E942D152B
:103110002196011DC438D10780E00807A9F7F8946B
:02312000FFCFDF
:10312200FFCDCC4C3D00005806200000000000A559
:103132000B750B01074F0B6D0B5E0B500B00000064
:10314200007702B701FB01BE022C020A021E020036
:10315200000000F607B701010700070D0A006176BB
:10316200616E6365725370656564203D20002020A6
:103172002044726F6974653D2000202047617563A9
:103182006865203D200046494E49206176616E63A4
:103192006572006E616E00696E66006F7666000091
:00000001FF
