:100000000C9484010C94B5010C94B5010C94B501C9
:100010000C94B5010C94B5010C94B5010C94B50188
:100020000C94B5010C94AB0E0C94AB0E0C94AB0E6F
:100030000C94B5010C94060B0C94B5010C94B5010D
:100040000C94B5010C946F050C94B5010C94B5019A
:100050000C94B5010C94B5010C94B5010C94BC0A38
:100060000C94B5010C94770C0C944D0C0C94B501C8
:100070000C94B5010C94B5010C94B5010C94B50128
:100080000C9441050C94B5010C94B5010C94B50188
:100090000C94B5010C94B5010C94B5010C94B50EFB
:1000A0000C94B5010C94B5010C9413050C94B50196
:1000B0000C94B5010C94B5010C94B5010C94E504B5
:1000C0000C94B5010C94B5010C94B5010C94230C5F
:1000D0000C94F90B0C94B5010C94CF0B0C94A50B5C
:1000E0000C94B50139033E0343034D035703D0037A
:1000F0006103690371037B0385038F039E03A803D8
:10010000D003B203BC03C603320A350A240A280A04
:100110002C0A6C0A390A3D0A430A470A4B0A510A5B
:10012000550A590A6C0A5F0A630A670A0C94350A71
:100130000C94B3080C94AC0C0C948F030C946103D6
:100140000C940F100C94510A0C9457030C944B0A06
:100150000C94BE010C94320A0C949F080C948503F5
:100160000C94470A0C9490080C94670A0C94B402FF
:100170000C946C0A0C9443030C94550A0C94390AA1
:100180000C94430A0C94A2090C94D1070C94AB0C68
:100190000C949E030C940C090C94D2090C94B20399
:1001A0000C94C6030C942C0A0C94C1080C947B0389
:1001B0000C94BC030C94280A0C944D030C94D61296
:1001C0000C94590A0C9439030C9471030C94E507B0
:1001D0000C944C080C94240A0C9453090C94630A54
:1001E0000C945F0A0C9469030C94D0030C943D0AA0
:1001F0000C94BF010C94A8030C943E030200002150
:1002000000240027002A002D0030003300010100E7
:1002100000040107010A0100002200250028002B2C
:10022000002E003100340002010000050108010B1E
:100230000105050505070508080808020202020A6B
:100240000A08080404040401010101010101010379
:1002500003030303030303040707070C0C0C0C0C34
:100260000C0C0C0202020206060606060606060B27
:100270000B0B0B0B0B0B0B0102102020080810209E
:100280004010204080020102010804020101020422
:1002900008102040808040201008040201800402E1
:1002A0000180402010080402010804020101020438
:1002B0000810204080010204081020408000000A3D
:1002C0000B02090C0D0E08070304010000000000DA
:1002D000000000000000000000000000000000001E
:1002E00000000000000000000012111000000000DB
:1002F00000000000000000000000000000000000FE
:1003000000000000D6120F1011241FBECFEFD1E263
:10031000DEBFCDBF00E00CBF12E0A0E0B2E0E2E53E
:10032000F2E300E00BBF02C007900D92AC35B107BD
:10033000D9F726E0ACE5B2E001C01D92A035B207C6
:10034000E1F711E0C3E8D1E000E006C02197010920
:10035000802FFE010E94C515C238D10780E0080732
:10036000A9F70E9415100C9417190C9400008EBD6B
:1003700000000DB407FEFDCF8EB50895089580E00E
:1003800090E00895E0E0F0E01994CF92DF92EF92D0
:10039000FF920F931F93CF93DF936C018B017A0130
:1003A000EC01CB58DD4F888187FF04C0FB0111822F
:1003B000108224C08CE08C9D90018D9D300D112405
:1003C0008881A901480F511D87FD5A9580915605D6
:1003D00090E04817590794F48881A901480F511DEE
:1003E00087FD5A95CA01FA01EE0FFF1F8E0F9F1F5E
:1003F000FC01EA53FB4F808186FD19C088818F5F25
:1004000088838CE08C9D90018D9D300D1124888116
:10041000A901480F511D87FD5A958091560590E01E
:1004200048175907BCF488818C3044F113C0888187
:10043000280F311D87FD3A95F901EE0FFF1F2E0F92
:100440003F1FF901EA53FB4F808160E08F730E94E8
:10045000030AD4CFF80180819181049680349C49AD
:1004600018F480E49CE904C0F8018081918104962D
:10047000F701918380838FEF888345C0F801408125
:1004800051818881B901680F711D87FD7A95CB0173
:10049000FB01EE0FFF1F8E0F9F1FFC01EA53FB4F66
:1004A00081819281840F951FF701918380838881D8
:1004B000A901480F511D87FD5A95CA01FA01EE0F97
:1004C000FF1F8E0F9F1FFC01EA53FB4F808186FFA9
:1004D0001AC08881280F311D87FD3A95F901EE0F6A
:1004E000FF1F2E0F3F1FF901EA53FB4F808161E090
:1004F0008F73DF91CF911F910F91FF90EF90DF905D
:10050000CF900C94030ADF91CF911F910F91FF9030
:10051000EF90DF90CF900895FC01248131E030937B
:10052000BF022093E1021092C0021092E202848581
:10053000682B83EE92E00E94D2090C94F40C0F9386
:100540001F93CF938C01C62F64600E948C026C2F86
:100550006B7FC8010E948C0283EC90E00197F1F759
:10056000CF911F910F9108950F931F93CF93DF9316
:100570008C01C62FD62FD07FD1606D2F0E948C02A8
:100580006D2FC8010E949F0280E1C89FB001112415
:10059000C62FC1606C2FC8010E948C026C2FC8014D
:1005A0000E949F0281E090E0DF91CF911F910F9117
:1005B00008958F929F92AF92BF92CF92DF92EF9267
:1005C000FF920F931F93CF93DF93EC016A017B019E
:1005D00020E030E04FE753E4C701B6010E94E51484
:1005E0004B015C0120E030E0A9010E94E2161816E0
:1005F0001CF4C501B40103C0C501B40190580E94A8
:10060000AC168B0120E030E0A901C701B6010E94C1
:10061000E216181614F460E001C061E089810E94BE
:10062000030A0F3F110509F014F4112702C00FEF60
:1006300010E0C88161E08C2F0E94800A011511052D
:1006400009F4B1C00F3F110509F4AFC0EC2FF0E081
:10065000E354FD4FE4914E2F50E0FA013197E2311F
:10066000F10508F09DC08827EE58FF4F8F4F0C947E
:10067000C51584B5806884BD07BDA7C084B58062F8
:1006800084BD08BDA2C080918000806880938000F6
:10069000109389000093880098C080918000806248
:1006A0008093800010938B0000938A008EC080910D
:1006B000800088608093800010938D0000938C00F0
:1006C00084C08091B00080688093B0000093B30034
:1006D0007CC08091B00080628093B0000093B40031
:1006E00074C080919000806880939000109399006E
:1006F000009398006AC0809190008062809390007F
:1007000010939B0000939A0060C0809190008860D5
:100710008093900010939D0000939C0056C08091A0
:10072000A00080688093A0008091A0008F7B8093C0
:10073000A0001093A9000093A80047C08091A000DA
:1007400080628093A0001093AB000093AA003DC08C
:100750008091A00088608093A0001093AD0000936A
:10076000AC0033C0809120018068809320011093F9
:1007700029010093280129C0809120018062809383
:10078000200110932B0100932A011FC080912001AA
:1007900088608093200110932D0100932C0115C0D7
:1007A0000038110514F460E001C061E08C2FDF9186
:1007B000CF911F910F91FF90EF90DF90CF90BF905E
:1007C000AF909F908F900C94030ADF91CF911F916F
:1007D0000F91FF90EF90DF90CF90BF90AF909F90E0
:1007E0008F900895CF93DF93EC0160E088810E94A1
:1007F000030A88E90E94B70180E00E94B70180E007
:100800000E94B70180E00E94B70180E00E94B7011A
:1008100061E088810E94030A8BE891E00197F1F77B
:1008200060E088810E94030A80EE0E94B70161E0C7
:100830008881DF91CF910C94030AAF92BF92CF923F
:10084000DF92EF92FF920F931F93CF93DF93CDB779
:10085000DEB760970FB6F894DEBF0FBECDBF5C0168
:1008600060E0FC0180810E94030A80E60E94B701DB
:100870008E010F5F1F4F7E01F1E1EF0EF11C680149
:1008800080E00E94B70190E0A0E0B0E0F601819323
:100890009193A193B1936F01EE15FF0589F761E084
:1008A000F50180810E94030A80E090E0DC01F801FC
:1008B00041915191619171918F01BA2FA92F982F78
:1008C0008827840F951FA61FB71FEE15FF0579F720
:1008D0009C01AD0166277727CB01621B730B840B4C
:1008E000950B60960FB6F894DEBF0FBECDBFDF91BB
:1008F000CF911F910F91FF90EF90DF90CF90BF901D
:10090000AF9008950F931F93CF93DF93EC01862F41
:100910006883498361E00E94800A60E089810E94C7
:10092000800A61E088810E94030A1FB7F8948091D1
:100930007902811127C0E6E6F2E09491ECEAF2E058
:100940008491E92FF0E0EE0FFF1FE350FE4FA591D9
:10095000B491EC91E82321F461E085E30E94030A5D
:1009600061E085E30E94800A8CB580618CBD8CB506
:1009700080648CBD61E084E30E94800A61E083E3CF
:100980000E94800A809179028F5F809379021FBF55
:100990000BEC17E0C8010197F1F760E088810E9435
:1009A000030A88E80E94B70183E00E94B70161E072
:1009B00088810E94030AC8010197F1F7CE01DF91F7
:1009C000CF911F910F910C94F2031F920F920FB6CB
:1009D0000F9211240BB60F922F933F934F935F9377
:1009E0006F937F938F939F93AF93BF93EF93FF93F7
:1009F00048E251E064E271E080E090E00E94C501CD
:100A0000FF91EF91BF91AF919F918F917F916F91E6
:100A10005F914F913F912F910F900BBE0F900FBEA2
:100A20000F901F9018951F920F920FB60F921124DE
:100A30000BB60F922F933F934F935F936F937F93D8
:100A40008F939F93AF93BF93EF93FF9348EA50E048
:100A500064EA70E083E090E00E94C501FF91EF91AD
:100A6000BF91AF919F918F917F916F915F914F91C6
:100A70003F912F910F900BBE0F900FBE0F901F90C4
:100A800018951F920F920FB60F9211240BB60F926A
:100A90002F933F934F935F936F937F938F939F9386
:100AA000AF93BF93EF93FF9348E950E064E970E0A0
:100AB00082E090E00E94C501FF91EF91BF91AF915C
:100AC0009F918F917F916F915F914F913F912F9166
:100AD0000F900BBE0F900FBE0F901F9018951F9296
:100AE0000F920FB60F9211240BB60F922F933F93D4
:100AF0004F935F936F937F938F939F93AF93BF9326
:100B0000EF93FF9348E850E064E870E081E090E004
:100B10000E94C501FF91EF91BF91AF919F918F917D
:100B20007F916F915F914F913F912F910F900BBEED
:100B30000F900FBE0F901F9018952F923F924F92DB
:100B40005F926F927F928F929F92AF92BF92CF925D
:100B5000DF92EF92FF920F931F93CF93DF934901A0
:100B60005A012DED38E444E053E40E94E5140E945C
:100B7000AC161B018EE792E00E94F20380E892E03F
:100B80000E94F2038DEC9CECACE4BEE38093040283
:100B900090930502A0930602B0930702AC01BD0139
:100BA0008AE792E00E94D9024DEC5CEC6CE47EEBAB
:100BB0008CE792E00E94D9028EE792E00E941D0429
:100BC0009B01AC0188279927DC01821B930BA40BA6
:100BD000B50B909383028093820280E892E00E949A
:100BE0001D046B017C018B0170938502609384026C
:100BF000C0918202D0918302BE010D2E000C880BA1
:100C0000990B0E94861424E13BE545E254E40E94DE
:100C1000E216181644F48092040290920502A09203
:100C20000602B0920702CE018C199D099C01275F34
:100C30003F4F2331310528F48DEC9CECACE4BDE34F
:100C400016C08D599F4F873C910568F420E030E035
:100C500040E85EE3209300023093010240930202D9
:100C6000509303020CC080E090E0A0E0BFE38093CB
:100C7000000290930102A0930202B0930302C0907D
:100C80000402D0900502E0900602F09007020C17D3
:100C90001D072CF540900002509001026090020266
:100CA00070900302A301920160E070E080E89FE38E
:100CB0000E94CD159B01AC01C701B6010E94E5144D
:100CC000AB01BC018AE792E00E94D90220E030E04B
:100CD00040E85FE3C301B2010E94CE1527C0C017F0
:100CE000D1076CF540900002509001026090020222
:100CF0007090030220E030E040E85FE3C301B201FE
:100D00000E94CE159B01AC01C701B6010E94E514FB
:100D1000AB01BC018AE792E00E94D902A3019201D3
:100D200060E070E080E89FE30E94CD159B01AC017C
:100D3000C701B6010E94E514AB01BC0108C0B701B0
:100D4000A6018AE792E00E94D902B701A601705875
:100D50008CE792E00E94D902C0908202D090830278
:100D60000D2C000CEE08FF08F7FE0CC08DE20E946F
:100D7000980D66277727CB016C197D098E099F098D
:100D80004AE003C04AE0C701B6010E94A30D8FE309
:100D900092E00E94BA0C80918202909183028215A7
:100DA000930544F480918402909185028215930505
:100DB0000CF402CF82E492E00E94BA0C40E050E0D2
:100DC000BA018AE792E00E94D90240E050E060E078
:100DD00070E88CE792E0DF91CF911F910F91FF9027
:100DE000EF90DF90CF90BF90AF909F908F907F90CB
:100DF0006F905F904F903F902F900C94D9028F92FC
:100E00009F92AF92BF92CF92DF92EF92FF926B01CF
:100E10007C018EE792E00E94F20380E892E00E945B
:100E2000F2034DEC5CEC6CEC7EE38AE792E00E940E
:100E3000D90240E050E060E070E88CE792E00E9468
:100E4000D9028EE792E00E941D049B01AC01882725
:100E50009927DC01821B930BA40BB50B90938302A3
:100E600080938202BC01990F880B990B0E94861413
:100E70004B015C0120E030E04AE755E4C701B601D0
:100E80000E94E51420E030E044EB52E40E943A1660
:100E90009B01AC01C501B4010E947F1487FDD1CF35
:100EA00040E050E0BA018AE792E00E94D90240E0B7
:100EB00050E060E070E88CE792E0FF90EF90DF9008
:100EC000CF90BF90AF909F908F900C94D9024F928B
:100ED0005F926F927F928F929F92AF92BF92CF92CA
:100EE000DF92EF92FF922B013C018EE792E00E948D
:100EF000F20380E892E00E94F20340E050E0BA0181
:100F00008AE792E00E94D9024DEC5CEC6CEC7EEB3F
:100F10008CE792E00E94D90280E892E00E941D04D2
:100F20006B017C01709385026093840220E030E0C5
:100F30004AE755E4C301B2010E94E51420E030E025
:100F400044EB52E40E943A164B015C01B601DD0C01
:100F5000880B990B0E948614A50194010E947F14AE
:100F600087FDDACFC501B4010E94E40D40E050E0F6
:100F7000BA018AE792E00E94D90240E050E060E0C6
:100F800070E88CE792E0FF90EF90DF90CF90BF90F9
:100F9000AF909F908F907F906F905F904F900C9448
:100FA000D9029091BB028091BA02981750F4E92FB0
:100FB000F0E0E656FD4F208130E09F5F9093BB024A
:100FC00002C02FEF3FEFC90108958091BA0290E06F
:100FD0002091BB02821B910908953FB7F89480913C
:100FE000960290919702A0919802B091990226B52D
:100FF000A89B05C02F3F19F00196A11DB11D3FBF51
:10100000BA2FA92F982F8827820F911DA11DB11DDE
:10101000BC01CD0142E0660F771F881F991F4A95DA
:10102000D1F708958F929F92AF92BF92CF92DF92A5
:10103000EF92FF926B017C010E94ED074B015C0176
:10104000C114D104E104F104F1F00E94ED07DC01C8
:10105000CB0188199909AA09BB09883E9340A105CB
:10106000B10570F321E0C21AD108E108F10888EE59
:10107000880E83E0981EA11CB11CC114D104E104A8
:10108000F10419F7DDCFFF90EF90DF90CF90BF9084
:10109000AF909F908F900895CF92DF92EF92FF9242
:1010A0000F931F93CF93DF936C017A018B01C0E004
:1010B000D0E0CE15DF0589F0D8016D918D01D60104
:1010C000ED91FC910190F081E02DC6011995892BDD
:1010D00011F47E0102C02196ECCFC701DF91CF91C0
:1010E0001F910F91FF90EF90DF90CF900895FC013A
:1010F000A089B1898C91A689B78982FD0FC09C9186
:10110000818D8F5F8F73228D821749F0218DDF01D2
:10111000A20FB11D5D969C93818F08958C910895C7
:10112000FC01538D448D252F30E0842F90E0821BED
:10113000930B541710F0CF96089501970895FC0172
:10114000918D828D981761F0828DDF01A80FB11DFE
:101150005D968C91928D9F5F9F73928F90E0089522
:101160008FEF9FEF0895FC01918D828D981731F0DC
:10117000828DE80FF11D858D90E008958FEF9FEF30
:101180000895FC01918D228D892F90E0805C9F4F06
:10119000821B91098F73992708958FEE92E00E9428
:1011A000C10821E0892B09F420E0822F08958CE802
:1011B00093E00E94C10821E0892B09F420E0822FEE
:1011C000089589E294E00E94C10821E0892B09F486
:1011D00020E0822F0895FC01848DDF01A80FB11D4E
:1011E000A35ABF4F2C91848D90E001968F7399275D
:1011F000848FA689B7892C93A089B1898C9180644A
:101200008C93938D848D981306C00288F389E02D0A
:1012100080818F7D80830895EF92FF920F931F93BB
:10122000CF93DF93EC0181E0888F9B8D8C8D981399
:1012300005C0E889F989808185FD24C0F62E0B8DD3
:1012400010E00F5F1F4F0F731127E02E8C8DE812F7
:101250000CC00FB607FCFACFE889F989808185FFB9
:10126000F5CFCE010E94EB08F1CF8B8DFE01E80F88
:10127000F11DE35AFF4FF0820B8FEA89FB898081D1
:10128000806207C0EE89FF896083E889F9898081DF
:101290008064808381E090E0DF91CF911F910F9176
:1012A000FF90EF900895CF93DF93EC01888D882312
:1012B000C9F0EA89FB89808185FD05C0A889B989C3
:1012C0008C9186FD0FC00FB607FCF5CF808185FF9E
:1012D000F2CFA889B9898C9185FFEDCFCE010E940C
:1012E000EB08E7CFDF91CF91089580E090E0892B64
:1012F00021F00E94E108811119C080E090E0892B63
:1013000041F080E090E0892B21F00E9400008111E3
:1013100010C00E94D70881110FC080E090E0892B97
:1013200081F00E94CD0881110AC008950E9400003A
:10133000E4CF0E940000EDCF0E94C201EECF0C94DA
:1013400000000895CF92DF92EF92FF920F931F93C8
:10135000CF93DF937C01262F972F8A018091BF02C4
:10136000882391F0C62FD72F6E01C40ED51ECC1541
:10137000DD0571F06991D701ED91FC910190F0814B
:10138000E02DC7011995F3CF642F822F0E94E70F3C
:10139000C801DF91CF911F910F91FF90EF90DF90E7
:1013A000CF900895CF93DF931F92CDB7DEB76983B7
:1013B0002091BF022223D1F02091E202203240F09E
:1013C00021E030E0FC013383228380E090E015C00F
:1013D0008091C002E82FF0E0EF53FD4F9981908398
:1013E0008F5F8093C0028093E20205C061E0CE016E
:1013F00001960E94E70F81E090E00F90DF91CF917E
:1014000008950E940219362F90E0FC01E354FD4F2D
:101410004491FC01E958FD4F2491FC01EF5CFD4F24
:101420009491992309F46BC0442309F455C050E00A
:10143000FA013197E231F10508F04EC08827EC57E8
:10144000FF4F8F4F0C94C515809180008F7707C098
:10145000809180008F7D03C080918000877F809382
:1014600080003AC084B58F7702C084B58F7D84BD7B
:1014700033C08091B0008F7703C08091B0008F7D22
:101480008093B00029C0809190008F7707C0809131
:1014900090008F7D03C080919000877F80939000A3
:1014A0001BC08091A0008F7707C08091A0008F7D26
:1014B00003C08091A000877F8093A0000DC0809121
:1014C00020018F7707C0809120018F7D03C080911C
:1014D0002001877F80932001E92FF0E0EE0FFF1FAE
:1014E000E95EFD4FA591B4918FB7F894EC9131115D
:1014F00003C020952E2301C02E2B2C938FBF08955F
:10150000CF93DF9390E0FC01E958FD4F2491FC015B
:10151000EF5CFD4F8491882361F190E0880F991F63
:10152000FC01E350FE4FC591D491FC01E95EFD4FF3
:10153000A591B491611109C09FB7F8948881209555
:1015400082238883EC912E230BC0623061F49FB715
:10155000F8943881822F809583238883EC912E2BF9
:101560002C939FBF06C08FB7F894E8812E2B288359
:101570008FBFDF91CF9108951F920F920FB60F92F8
:1015800011242F933F938F939F93AF93BF93809199
:10159000920290919302A0919402B09195023091A1
:1015A000910223E0230F2D3720F40196A11DB11DD8
:1015B00005C026E8230F0296A11DB11D20939102BC
:1015C0008093920290939302A0939402B093950219
:1015D0008091960290919702A0919802B091990201
:1015E0000196A11DB11D8093960290939702A0933E
:1015F0009802B0939902BF91AF919F918F913F91C3
:101600002F910F900FBE0F901F9018951F920F9261
:101610000FB60F9211240BB60F922F933F934F9357
:101620005F936F937F938F939F93AF93BF93EF934A
:10163000FF938091890290918A02A0918B02B091D0
:101640008C02892B8A2B8B2B59F180918802E09197
:101650008602F09187029081892780838091890298
:1016600090918A02A0918B02B0918C0218161906F3
:101670001A061B060CF056C08091890290918A02CE
:10168000A0918B02B0918C020197A109B1098093BE
:10169000890290938A02A0938B02B0938C0242C07D
:1016A00080910802ECEFF1E0E4919FEF9093080243
:1016B000E230C9F050F4EE2399F0E13081F59091D9
:1016C0006F009D7F90936F002AC0E43019F1E0F025
:1016D000E53029F5909173009D7F909373001FC0B2
:1016E00010926E001CC0909170009D7F90937000CE
:1016F00091E09093B0009091B100987F94609093A6
:10170000B1001092B3000BC0909171009D7F909337
:10171000710005C0909172009D7F9093720060E00F
:101720000E94030AFF91EF91BF91AF919F918F911A
:101730007F916F915F914F913F912F910F900BBED1
:101740000F900FBE0F901F9018951F920F920FB61B
:101750000F9211240BB60F922F933F934F935F93E9
:101760006F937F938F939F93AF93BF93EF93FF9369
:101770008FEE92E00E94EB08FF91EF91BF91AF9145
:101780009F918F917F916F915F914F913F912F9199
:101790000F900BBE0F900FBE0F901F9018951F92C9
:1017A0000F920FB60F9211240BB60F922F933F9307
:1017B0004F935F936F937F938F939F93AF93BF9359
:1017C000EF93FF938FEE92E00E947708FF91EF91E5
:1017D000BF91AF919F918F917F916F915F914F9149
:1017E0003F912F910F900BBE0F900FBE0F901F9047
:1017F00018951F920F920FB60F9211240BB60F92ED
:101800002F933F934F935F936F937F938F939F9308
:10181000AF93BF93EF93FF938CE893E00E94EB08A4
:10182000FF91EF91BF91AF919F918F917F916F91B8
:101830005F914F913F912F910F900BBE0F900FBE74
:101840000F901F9018951F920F920FB60F921124B0
:101850000BB60F922F933F934F935F936F937F93AA
:101860008F939F93AF93BF93EF93FF938CE893E095
:101870000E947708FF91EF91BF91AF919F918F9157
:101880007F916F915F914F913F912F910F900BBE80
:101890000F900FBE0F901F9018951F920F920FB6CA
:1018A0000F9211240BB60F922F933F934F935F9398
:1018B0006F937F938F939F93AF93BF93EF93FF9318
:1018C00089E294E00E94EB08FF91EF91BF91AF9104
:1018D0009F918F917F916F915F914F913F912F9148
:1018E0000F900BBE0F900FBE0F901F9018951F9278
:1018F0000F920FB60F9211240BB60F922F933F93B6
:101900004F935F936F937F938F939F93AF93BF9307
:10191000EF93FF9389E294E00E947708FF91EF91A3
:10192000BF91AF919F918F917F916F915F914F91F7
:101930003F912F910F900BBE0F900FBE0F901F90F5
:10194000189585ED8093BC008091BC0084FDFCCF90
:101950001092BE020895089581E090E03091BB029C
:101960002091BA02321710F480E090E091958195B1
:1019700091090895009769F0FC0101900020E9F7B2
:101980003197AF01481B590BBC0189E294E00C94DC
:101990004C0880E090E00895E9E2F4E0A089B18984
:1019A00082E08C93A485B5851C92A685B7858FECC3
:1019B0008C93108EA489B58986E08C93A289B38913
:1019C0008C9180618C93A289B3898C9188608C936F
:1019D000A289B3898C9180688C930288F389E02D69
:1019E00080818F7D808308952091E2029091E102B1
:1019F000213208F04AC08091BE028111FCCF32E052
:101A00003093BE0231E03093BD023FEF30934B067E
:101A100010924A0620934906A1ECB2E049E256E052
:101A2000FA013E2F341B321718F43D913193F9CF50
:101A30001092280620912806990F922B9093280641
:101A40009091BC02913061F41092BC0290912806F2
:101A50009093BB009091BC0093FDF8CF95EC01C032
:101A600095EE9093BC009091BE029230E1F390917C
:101A70004B069F3F79F080914B06803241F0809178
:101A80004B06803331F084E005C081E003C082E082
:101A900001C083E01092C0021092E2021092BF02D5
:101AA0000895EF92FF921F93CF93DF931F92CDB7CC
:101AB000DEB7162F92ECE92E95E0F92ED7011C9691
:101AC0009C911C9721E02093BF029093E102109219
:101AD000C0021092E2021A960D90BC91A02DED91D9
:101AE000FC9111970190F081E02D682FCD01798351
:101AF0001995F70182859385DC01ED91FC910190A8
:101B0000F081E02D7981672F1995F7018285938502
:101B1000DC01ED91FC910190F081E02D612F199590
:101B20000F90DF91CF911F91FF90EF900C94F40CE8
:101B3000E0912904F0912A040190F081E02D682FB2
:101B400089E294E019948F929F92AF92BF920F9383
:101B50001F93CF93DF93CDB7DEB7A1970FB6F8945D
:101B6000DEBF0FBECDBF19A2423008F44AE08E019D
:101B70000F5D1F4F842E912CA12CB12CA501940137
:101B80000E94A315E62FB901CA0101501109EA30DC
:101B900014F4E05D01C0E95CD801EC93232B242B05
:101BA000252B61F7C8010E94BA0CA1960FB6F894D4
:101BB000DEBF0FBECDBFDF91CF911F910F91BF90C0
:101BC000AF909F908F9008954F925F926F927F9207
:101BD0008F929F92AF92BF92CF92DF92EF92FF923D
:101BE0006B017C019B01AC010E94E716882319F070
:101BF0008FE492E01AC046015701E894B7F82FEF3E
:101C00003FEF4FE75FE7C501B4010E94E71681117E
:101C100010C02FEF3FEF4FE75FE7C501B4010E940F
:101C20007F14181634F483E592E00E94BA0C7C010C
:101C30007FC02FEF3FEF4FE75FE4C701B6010E947F
:101C4000E21618161CF487E592E0EFCF2FEF3FEF76
:101C50004FE75FECC701B6010E947F1487FDF3CF09
:101C600020E030E0A901C701B6010E947F1487FF80
:101C700009C08DE20E94980D5C01F7FAF094F7F824
:101C8000F09402C0A12CB12C2AE037ED43EA5BE3CB
:101C9000C701B6010E94CE152B013C010E94B3166C
:101CA0006B017C010E9484149B01AC01C301B20151
:101CB0000E94CD152B013C014AE0C701B6010E94EC
:101CC000A30D7C01EA0CFB1C8EE20E94980DE80E2D
:101CD000F91E20E030E040E251E4C301B2010E946D
:101CE000E5142B013C010E94B3164B01A12CB12C31
:101CF0004AE0C501B4010E94A30DE80EF91EC5011A
:101D0000B4010E9484149B01AC01C301B2010E9482
:101D1000CD1520E030E040E251E40E94E5140E943D
:101D2000B31680E090E04AE00E94A30DE80EF91E91
:101D30008FE392E00E94BA0C8E0D9F1DFF90EF90F2
:101D4000DF90CF90BF90AF909F908F907F906F90DB
:101D50005F904F9008951F920F920FB60F9211242B
:101D60000F900FBE0F901F9018951F920F920FB6F5
:101D70000F9211240BB60F922F933F934F935F93C3
:101D80006F937F938F939F93AF93BF93EF93FF9343
:101D90008091B900887F803609F49CC068F588324C
:101DA00009F45BC090F4803109F454C038F48823FE
:101DB00009F4F6C0883009F44DC0F6C0883109F442
:101DC0004CC0803209F45DC0EFC0803409F468C0B3
:101DD00048F4803309F455C0883309F0E5C0809396
:101DE0004B06D8C0803509F44FC0883509F45DC072
:101DF000883409F0D9C0D6C0883909F4C7C0A8F41E
:101E0000883709F467C038F4883609F463C080372E
:101E100009F460C0C9C0883809F4B8C0803909F431
:101E20005FC0803809F0C0C05BC0803B09F486C049
:101E300038F4803A09F466C0883A09F47FC0B4C027
:101E4000803C09F4A7C0883C09F4A4C0883B09F48D
:101E50008AC0AAC08091280610C090914A0680913D
:101E60004906981770F5E0914A0681E08E0F80933D
:101E70004A06F0E0E75DF94F80818093BB0085EC76
:101E800086C080934B068EC0E0914A0681E08E0F9B
:101E900080934A068091BB00F0E0E75DF94F8083B4
:101EA00090914A06809149066EC0E0914A0681E011
:101EB0008E0F80934A068091BB00F0E0E75DF94FFA
:101EC00080838091BD0281116DC081E08093BC024E
:101ED00084EA61C083E08093BE0210922506CFCFD2
:101EE00080912506803208F051C0E091250681E0FE
:101EF0008E0F809325068091BB00F0E0EB5FF94FD9
:101F00008083BDCF85EC8093BC001092BE0280918F
:101F10002506803230F4E0912506F0E0EB5FF94FC2
:101F200010826091250670E0E0910306F0910406AE
:101F300085E096E019951092250636C084E08093DE
:101F4000BE021092020610920106E091FF05F09188
:101F50000006199580910106811105C081E08093EA
:101F600001061092DF05E091020681E08E0F80935A
:101F70000206F0E0E152FA4F80818093BB0090911D
:101F8000020680910106981708F479CF85E88093BE
:101F9000BC000AC085EC8093BC001092BE0204C055
:101FA00010924B060E94A10CFF91EF91BF91AF914F
:101FB0009F918F917F916F915F914F913F912F9161
:101FC0000F900BBE0F900FBE0F901F901895409171
:101FD0000106262F30E0240F311D21323105DCF4BB
:101FE0002091BE022430C9F4FC0180E090E0861705
:101FF00058F4309101062191DC01A152BA4FA30F90
:10200000B11D2C930196F3CF80910106680F609368
:10201000010680E0089581E0089582E008958091AE
:102020005705909158050C948117789484B5826077
:1020300084BD84B5816084BD85B5826085BD85B56C
:10204000816085BD80916E00816080936E001092EA
:102050008100809181008260809381008091810065
:1020600081608093810080918000816080938000F6
:102070008091B10084608093B1008091B000816054
:102080008093B00080919100826080939100809154
:102090009100816080939100809190008160809395
:1020A00090008091A10082608093A1008091A100A6
:1020B00081608093A1008091A00081608093A00046
:1020C00080912101826080932101809121018160B2
:1020D0008093210180912001816080932001809173
:1020E0007A00846080937A0080917A008260809385
:1020F0007A0080917A00816080937A0080917A00E2
:10210000806880937A001092C1000E94CC0C86E017
:1021100080937A028FE180937B0261E086E00E94E7
:10212000800A61E080917B020E94800A85E08093B2
:102130007C028EE180937D0261E085E00E94800A4E
:1021400061E080917D020E94800A45E463E28EE7AF
:1021500092E00E94820444E462E280E892E00E94FD
:10216000820486E180938D0287E180938E0260E095
:1021700086E10E94800A61E080918E020E94800ABE
:1021800060E080918E020E94030A88E180938F02B2
:1021900089E18093900260E088E10E94800A61E01A
:1021A000809190020E94800A60E0809190020E94DB
:1021B000030A61E08091C3050E94800A60E080917B
:1021C000C3050E94030A60E08091C2050E94800A54
:1021D00083EE92E09093CD058093CC051092BB02E4
:1021E0001092BA021092C0021092E2021092BE0245
:1021F00081E08093BD021092BC0261E084E10E9404
:10220000030A61E085E10E94030A8091B9008E7F94
:102210008093B9008091B9008D7F8093B90088E4E4
:102220008093B80085E48093BC0080E090E1A0E05A
:10223000B0E08093CF059093D005A093D105B093E3
:10224000D2058AE090E0A0E0B0E08093D3059093BF
:10225000D405A093D505B093D60582E090E0A0E028
:10226000B0E08093D7059093D805A093D905B0939B
:10227000DA0560E070E185E00E94510D6FE979E3D5
:1022800080E00E94510DC4ECD5E01C2F1C5F60E083
:1022900089910E94800A1C13FACF8EE792E00E9477
:1022A000F20380E892E00E94F2030E94CC0C2DEC35
:1022B0003CEC4CE45EE360E070E088E493E40E9470
:1022C0009D0560E070E084EB92E40E9467072AE9D4
:1022D00039E949E15FE360E070E080E292E40E9466
:1022E0009D0560E070E084EB92E40E94FF062AE91D
:1022F00039E949E15FE360E070E080EA91E40E943F
:102300009D0560E070E084EB92E40E94FF062AE9FC
:1023100039E949E15FE360E070E080EF91E40E9419
:102320009D0560E070E084EB92E40E9467072AE973
:1023300039E949E15FE360E070E080E091E40E9408
:102340009D0560E070E08CE092E40E94FF062AE9BF
:1023500039E949E15FE360E070E080E292E40E94E5
:102360009D0560E070E084EB92E40E9467072AE933
:1023700039E949E15FE360E070E088E492E40E94BB
:102380009D0560E070E084E392E40E94FF062AE984
:1023900039E949E15FE360E070E088E492E40E949B
:1023A0009D0560E070E080EA91E40E94FF062AE962
:1023B00039E949E15FE360E070E088E492E40E947B
:1023C0009D0564E170E080E090E00E9412088EE7D5
:1023D00092E00E94F20380E892E00E94F2034DEC4A
:1023E0005CEC6CE47EEB8AE792E00E94D9024DEC53
:1023F0005CEC6CE47EEB8CE792E00E94D90280E812
:1024000092E00E941D046B017C0170938502609331
:1024100084028EE792E00E941D049B01AC01882794
:102420009927DC01821B930BA40BB50B90938302BD
:1024300080938202B601DD0C880B990B0E948614F2
:1024400020E030E244E655E40E947F1487FDD7CFB8
:1024500060E070E284E695E40E94E40D40E050E024
:10246000BA018AE792E00E94D90240E050E060E0C1
:1024700070E88CE792E00E94D90264E170E080E0AD
:1024800090E00E9412082AE939E949E15FE360E03F
:1024900070E088E992E40E949D0560E070E080EAC7
:1024A00091E40E9467072AE939E949E15FE360E0C6
:1024B00070E088EF91E40E949D0560E070E088E4A0
:1024C00092E40E9467072AE939E949E15FE360E0A5
:1024D00070E088E492E40E949D0560E070E084EB87
:1024E00092E40E94FF062AE939E949E15FE360E0EE
:1024F00070E084E192E40E949D0560E070E08CE071
:1025000092E40E9467072AE939E949E15FE360E064
:1025100070E080E491E40E949D0560E070E084EB4F
:1025200092E40E94FF062AE939E949E15FE360E0AD
:1025300070E088EC91E40E949D0560E070E084EB1F
:1025400092E40E9467072AE939E949E15FE360E024
:1025500070E08CE092E40E949D0560E070E084EB06
:1025600092E40E9467072AE939E949E15FE360E004
:1025700070E088EC91E40E949D0560E070E084EBDF
:1025800092E40E94FF062AE939E949E15FE360E04D
:1025900070E085E593E40E949D056AE070E080E0CC
:1025A00090E00E9412080E947509F7CF1092E6028F
:1025B0001092E50288EE93E0A0E0B0E08093E7029D
:1025C0009093E802A093E902B093EA0223E132E09B
:1025D0003093E4022093E3021092F2021092F1028F
:1025E0008093F3029093F402A093F502B093F60265
:1025F00025E232E03093F0022093EF0245E351E010
:102600005093FC024093FB0244E351E05093FE02DE
:102610004093FD0240E351E0509300034093FF02DA
:1026200041E351E0509302034093010342E351E040
:10263000509304034093030346E351E05093060391
:1026400040930503109208031092090310920A03A5
:1026500010920B0310928F0310928E0380939003BD
:1026600090939103A0939203B093930330938D03BF
:1026700020938C0345ED50E05093990340939803C9
:1026800044ED50E050939B0340939A0340ED50E09B
:1026900050939D0340939C0341ED50E050939F0362
:1026A00040939E0342ED50E05093A1034093A0035A
:1026B00046ED50E05093A3034093A2031092A5036C
:1026C0001092A6031092A7031092A80310922C0454
:1026D00010922B0480932D0490932E04A0932F042A
:1026E000B093300430932A042093290485EC90E0C1
:1026F000909336048093350484EC90E090933804F2
:102700008093370480EC90E090933A0480933904EE
:1027100081EC90E090933C0480933B0482EC90E049
:1027200090933E0480933D0486EC90E090934004A7
:1027300080933F0410924204109243041092440488
:10274000109245048DE090E00E94EC16FC0113828B
:10275000128287E392E091838083118687E28483EB
:1027600084E1828784E083871486F093DC05E0931C
:10277000DB051092DD051092DE058CE08093C2052A
:1027800084E28093C3058BE18093C4058DE180933F
:10279000C5058AE18093C6058CE18093C70586E371
:1027A0008093C80587E38093C90588E38093CA05B1
:1027B00089E38093CB0580E48093CE051092D30506
:1027C0001092D4051092D5051092D6051092D70517
:1027D0001092D8051092D9051092DA05809156050D
:1027E000803320F09FEF9093BC0511C08093BC050F
:1027F000282F30E0F901EE0FFF1F2E0F3F1FF901C8
:10280000EA53FB4F28EB3BE0328321838F5F803319
:1028100090F48093BF05282F30E0F901EE0FFF1FE1
:102820002E0F3F1FF901EA53FB4F28EB3BE03283A9
:1028300021838F5F03C09FEF9093BF058093560560
:10284000EDE5F5E08FEF9FEFDC0112821382148239
:102850001582168217821086118683879487A58732
:10286000B6878787908BA18BB28B128611821082DC
:10287000739625E0EC3BF20741F710925805109251
:10288000570510925A051092590510925C05109246
:102890005B0561E070E080E090E00E94191800970D
:1028A00089F0909358058093570510925A0510921D
:1028B000590520915B0530915C05232BC1F4FC0187
:1028C000108215C08091570590915805009711F01E
:1028D0000E948117109258051092570510925C05BE
:1028E00010925B0510925A051092590508951092A6
:1028F0005C0510925B0561E472E00C9410190E9473
:10290000C11408F481E00895E89409C097FB3EF4EF
:1029100090958095709561957F4F8F4F9F4F99232C
:10292000A9F0F92F96E9BB279395F69587957795AA
:102930006795B795F111F8CFFAF4BB0F11F460FF6A
:102940001BC06F5F7F4F8F4F9F4F16C0882311F0C2
:1029500096E911C0772321F09EE8872F762F05C0D6
:10296000662371F096E8862F70E060E02AF09A9571
:10297000660F771F881FDAF7880F9695879597F966
:102980000895990F0008550FAA0BE0E8FEEF161600
:102990001706E807F907C0F012161306E407F50753
:1029A00098F0621B730B840B950B39F40A2661F0C7
:1029B000232B242B252B21F408950A2609F4A1406A
:1029C000A6958FEF811D811D08950E94F8140C9427
:1029D00069150E945B1538F00E94621520F095235E
:1029E00011F00C9452150C94581511240C949D154B
:1029F0000E947A1570F3959FC1F3950F50E0551F13
:102A0000629FF001729FBB27F00DB11D639FAA2743
:102A1000F00DB11DAA1F649F6627B00DA11D661F92
:102A2000829F2227B00DA11D621F739FB00DA11DB3
:102A3000621F839FA00D611D221F749F3327A00D6D
:102A4000611D231F849F600D211D822F762F6A2F09
:102A500011249F5750409AF0F1F088234AF0EE0F6E
:102A6000FF1FBB1F661F771F881F91505040A9F79B
:102A70009E3F510580F00C9452150C949D155F3FBC
:102A8000E4F3983ED4F3869577956795B795F795D7
:102A9000E7959F5FC1F7FE2B880F911D969587954F
:102AA00097F9089597F99F6780E870E060E00895CE
:102AB0009FEF80EC089500240A9416161706180656
:102AC0000906089500240A94121613061406050632
:102AD0000895092E0394000C11F4882352F0BB0FC3
:102AE00040F4BF2B11F460FF04C06F5F7F4F8F4F26
:102AF0009F4F089557FD9058440F551F59F05F3F61
:102B000071F04795880F97FB991F61F09F3F79F00F
:102B100087950895121613061406551FF2CF469591
:102B2000F1DF08C0161617061806991FF1CF869513
:102B30007105610508940895E894BB2766277727F7
:102B4000CB0197F90895A1E21A2EAA1BBB1BFD0128
:102B50000DC0AA1FBB1FEE1FFF1FA217B307E4077C
:102B6000F50720F0A21BB30BE40BF50B661F771FD4
:102B7000881F991F1A9469F76095709580959095B4
:102B80009B01AC01BD01CF010895EE0FFF1F881F0F
:102B90008BBF0790F691E02D19945058BB27AA27B8
:102BA0000E94E5150C9469150E945B1538F00E948F
:102BB000621520F039F49F3F19F426F40C9458154F
:102BC0000EF4E095E7FB0C945215E92F0E947A155C
:102BD00058F3BA17620773078407950720F079F452
:102BE000A6F50C949C150EF4E0950B2EBA2FA02D93
:102BF0000B01B90190010C01CA01A0011124FF27AA
:102C0000591B99F0593F50F4503E68F11A16F040A4
:102C1000A22F232F342F4427585FF3CF46953795A3
:102C20002795A795F0405395C9F77EF41F16BA0B68
:102C3000620B730B840BBAF09150A1F0FF0FBB1F16
:102C4000661F771F881FC2F70EC0BA0F621F731F5F
:102C5000841F48F4879577956795B795F7959E3FBC
:102C600008F0B0CF9395880F08F09927EE0F97954D
:102C7000879508950E944E160C9469150E9462155E
:102C800058F00E945B1540F029F45F3F29F00C9446
:102C9000521551110C949D150C9458150E947A15DB
:102CA00068F39923B1F3552391F3951B550BBB277B
:102CB000AA2762177307840738F09F5F5F4F220FC0
:102CC000331F441FAA1FA9F335D00E2E3AF0E0E8B7
:102CD00032D091505040E695001CCAF72BD0FE2F01
:102CE00029D0660F771F881FBB1F26173707480795
:102CF000AB07B0E809F0BB0B802DBF01FF2793584D
:102D00005F4F3AF09E3F510578F00C9452150C94A9
:102D10009D155F3FE4F3983ED4F3869577956795CC
:102D2000B795F7959F5FC9F7880F911D9695879581
:102D300097F90895E1E0660F771F881FBB1F6217A0
:102D400073078407BA0720F0621B730B840BBA0B5E
:102D5000EE1F88F7E09508950E94B3166894B111AC
:102D60000C949D1508950E94821588F09F5798F045
:102D7000B92F9927B751B0F0E1F0660F771F881F80
:102D8000991F1AF0BA95C9F714C0B13091F00E949A
:102D90009C15B1E008950C949C15672F782F882717
:102DA000B85F39F0B93FCCF3869577956795B395C1
:102DB000D9F73EF490958095709561957F4F8F4F30
:102DC0009F4F08950E94C11408F48FEF08950E9448
:102DD000C114880B990B0895CF93DF93823091052E
:102DE00010F482E090E0E0914E06F0914F0620E072
:102DF00030E0C0E0D0E0309711F1408151814817B8
:102E00005907C0F04817590761F4828193812097D0
:102E100019F09B838A832BC090934F0680934E06B4
:102E200026C02115310519F04217530718F49A01ED
:102E3000BE01DF01EF010280F381E02DDCCF21151F
:102E4000310509F1281B390B2430310590F4129615
:102E50008D919C9113976115710521F0FB0193836E
:102E6000828304C090934F0680934E06FD013296F4
:102E700044C0FD01E20FF31F819391932250310969
:102E80002D933C933AC020914C0630914D06232B54
:102E900041F420910B0230910C0230934D062093A7
:102EA0004C062091090230910A022115310541F4A6
:102EB0002DB73EB740910D0250910E02241B350BE9
:102EC000E0914C06F0914D06E217F307A0F42E1B9B
:102ED0003F0B2817390778F0AC014E5F5F4F24177E
:102EE000350748F04E0F5F1F50934D0640934C0638
:102EF0008193919302C0E0E0F0E0CF01DF91CF91A8
:102F000008950F931F93CF93DF93009709F48CC01C
:102F1000FC0132971382128200914E0610914F06E7
:102F20000115110581F420813181820F931F2091B9
:102F30004C0630914D062817390779F5F0934D0668
:102F4000E0934C0671C0D80140E050E0AE17BF07D7
:102F500050F412962D913C911397AD012115310536
:102F600009F1D901F3CF9D01DA0133832283608116
:102F70007181860F971F8217930769F4EC012881EE
:102F80003981260F371F2E5F3F4F318320838A817F
:102F90009B8193838283452B29F4F0934F06E09322
:102FA0004E0642C01396FC93EE931297ED014991A1
:102FB00059919E01240F351FE217F30771F48081A8
:102FC0009181840F951F029611969C938E93828116
:102FD000938113969C938E931297E0E0F0E0D801D2
:102FE00012968D919C911397009719F0F8018C011E
:102FF000F6CF8D919C9198012E5F3F4F820F931FCA
:1030000020914C0630914D062817390769F4309706
:1030100029F410924F0610924E0602C013821282BB
:1030200010934D0600934C06DF91CF911F910F91A5
:1030300008956F927F928F929F92AF92BF92CF929C
:10304000DF92EF92FF920F931F93CF93DF93EC01E8
:10305000009789F4CB01DF91CF911F910F91FF90E1
:10306000EF90DF90CF90BF90AF909F908F907F9028
:103070006F900C94EC16FC01E60FF71F9C01225098
:103080003109E217F30708F4ACC0D9010D911C9186
:10309000119706171707B0F00530110508F49FC007
:1030A000C80104978617970708F499C002501109C0
:1030B000061B170B019311936D937C93CF010E9414
:1030C00081178DC05B01A01AB10A4C01800E911EC0
:1030D000A0914E06B0914F0640E050E0E12CF12C5B
:1030E000109709F44AC0A815B905D1F56D907C90E8
:1030F0001197630182E0C80ED11CCA14DB0480F171
:10310000A3014A195B096A0182E0C80ED11C12961C
:10311000BC9012971396AC91B5E0CB16D10440F059
:10312000B282A38351834083D9016D937C930AC0FB
:103130000E5F1F4FC301800F911FF90191838083A0
:10314000EB2DFA2FE114F10431F0D7011396FC9323
:10315000EE93129744C0F0934F06E0934E063FC0A3
:103160008D919C9111974817590708F4AC017D0186
:1031700012960D90BC91A02DB3CF80914C069091EA
:103180004D0688159905E1F446175707C8F4809154
:10319000090290910A02009741F48DB79EB74091C1
:1031A0000D0250910E02841B950BE817F907C8F425
:1031B000F0934D06E0934C06F901718360830FC0D4
:1031C000CB010E94EC167C01009759F0A801BE01CA
:1031D0000E940719CE010E948117C70104C0CE01C9
:1031E00002C080E090E0DF91CF911F910F91FF909E
:1031F000EF90DF90CF90BF90AF909F908F907F9097
:103200006F90089581E090E0F8940C941719FB01F9
:10321000DC0102C001900D9241505040D8F7089552
:10322000FB01DC0101900D920020E1F7089511E00F
:10323000C3E8D1E000E006C0802FFE010E94C51562
:103240002196011DC438D10780E00807A9F7F8943A
:02325000FFCFAE
:10325200CDCC4C3D9A99193FFF000050062000004A
:10326200000000D209A209BF01AB0CE507D107ACEF
:103272000C000000000C094C0890085309C1089F7B
:1032820008B30800000000B4024C08BF01BE010DE3
:103292000A0046494E49206176616E636572006E8E
:0C32A200616E00696E66006F76660000C9
:00000001FF
