:100000000C949F010C94D0010C94D0010C94D0015D
:100010000C94D0010C94D0010C94D0010C94D0011C
:100020000C94D0010C941C0C0C941C0C0C941C0C07
:100030000C94D0010C949F0A0C94D0010C94D00124
:100040000C94D0010C941C080C94D0010C94D00199
:100050000C94D0010C94D0010C94D0010C94550A4E
:100060000C94D0010C94F2050C94C8050C94D001AA
:100070000C94D0010C94D0010C94D0010C94D001BC
:100080000C94D0010C94D0010C94D0010C94D001AC
:100090000C94D0010C94D0010C94D0010C94F6086F
:1000A0000C94D0010C94D0010C94D0010C94D0018C
:1000B0000C94D0010C94D0010C94D0010C941C062B
:1000C0000C94D0010C94D0010C94D0010C949E059A
:1000D0000C9474050C94D0010C944A050C942005E2
:1000E0000C94D001630768076D0777078107FA074B
:1000F0008B0793079B07A507AF07B907C807D20768
:10010000FA07DC07E607F007410C440C330C370C08
:100110003D0C7B0C480C4C0C520C560C5A0C600CD1
:10012000640C680C7B0C6E0C720C760C0C947707CC
:100130000C94600C0C94C1030C94680C0C94D003C8
:100140000C94B50D0C940E020C94410C0C94FB0411
:100150000C94B9070C9463070C949B070C94B3039D
:100160000C943D0C0C94760C0C94DC070C946E0CE7
:100170000C94480C0C94560C0C9450040C94680786
:100180000C9465040C94330C0C940D0D0C94AF0777
:100190000C94640C0C94520C0C9411130C94E60700
:1001A0000C94EB010C94AE020C9437040C940003F5
:1001B0000C9408040C94280A0C94720C0C94A50757
:1001C0000C945A0C0C9438040C9493070C94B204BD
:1001D0000C946D070C943B040C94F0070C948B0763
:1001E0000C94D8030C947B0C0C94370C0C941C02CC
:1001F0000C94C00D0C94FA070C94FA010C9481072E
:100200000C94B2030C94D2070C9467020C94440C27
:100210000C944C0C0C94C80700002000230026000E
:1002200029002C002F00320000010000030106010C
:1002300009010200002100240027002A002D0030BF
:1002400000330001010000040107010A010000223F
:1002500000250028002B002E003100340002010090
:1002600000050108010B010505050507050808083B
:1002700008020202020A0A08080404040401010137
:10028000010101010103030303030303030407073F
:10029000070C0C0C0C0C0C0C0C02020202060606DD
:1002A00006060606060B0B0B0B0B0B0B0B010210C5
:1002B0002020080810204010204080020102010880
:1002C0000402010102040810204080804020100830
:1002D0000402018004020180402010080402010889
:1002E00004020101020408102040800102040810E9
:1002F00020408000000A0B02090C0D0E08070304C1
:1003000001000000000000000000000000000000EC
:1003100000000000000000000000000000000012CB
:1003200011100000000000000000000000000000AC
:10033000000000000000000000001113C00D112497
:100340001FBECFEFD1E2DEBFCDBF00E00CBF12E099
:10035000A0E0B2E0E4E0F3E300E00BBF02C00790EE
:100360000D92A636B107D9F727E0A6E6B2E001C0A4
:100370001D92AF32B207E1F711E0CEE9D1E000E023
:1003800006C021970109802FFE010E949516CD39E4
:10039000D10780E00807A9F70E94C60D0C947019D8
:1003A0000C940000FC01A089B1898C91A689B789C1
:1003B00082FD0FC09C91818D8F5F8F73228D82177C
:1003C00049F0218DDF01A20FB11D5D969C93818FB5
:1003D00008958C910895FC01538D448D252F30E0B4
:1003E000842F90E0821B930B541710F0CF96089542
:1003F00001970895FC01918D828D981761F0828D8F
:10040000DF01A80FB11D5D968C91928D9F5F9F7348
:10041000928F90E008958FEF9FEF0895FC01918DEA
:10042000828D981731F0828DE80FF11D858D90E057
:1004300008958FEF9FEF0895FC01918D228D892FF4
:1004400090E0805C9F4F821B91098F7399270895DC
:1004500085E293E00E941C0221E0892B09F420E050
:10046000822F089582EC93E00E941C0221E0892BE8
:1004700009F420E0822F08958FE594E00E941C0289
:1004800021E0892B09F420E0822F0895FC01848D5E
:10049000DF01A80FB11DA35ABF4F2C91848D90E0AE
:1004A00001968F739927848FA689B7892C93A08989
:1004B000B1898C9180648C93938D848D981306C040
:1004C0000288F389E02D80818F7D80830895EF92EB
:1004D000FF920F931F93CF93DF93EC0181E0888FFE
:1004E0009B8D8C8D981305C0E889F989808185FDE5
:1004F00024C0F62E0B8D10E00F5F1F4F0F731127D6
:10050000E02E8C8DE8120CC00FB607FCFACFE889FC
:10051000F989808185FFF5CFCE010E944602F1CF97
:100520008B8DFE01E80FF11DE35AFF4FF0820B8F18
:10053000EA89FB898081806207C0EE89FF89608338
:10054000E889F98980818064808381E090E0DF918F
:10055000CF911F910F91FF90EF900895CF93DF936C
:10056000EC01888D8823C9F0EA89FB89808185FDAB
:1005700005C0A889B9898C9186FD0FC00FB607FC0C
:10058000F5CF808185FFF2CFA889B9898C9185FF4D
:10059000EDCFCE010E944602E7CFDF91CF910895C3
:1005A000E0E0F0E0199480E090E0892B21F00E94D7
:1005B0003C02811119C080E090E0892B41F080E07D
:1005C00090E0892B21F00E940000811110C00E9450
:1005D000320281110FC080E090E0892B81F00E94EF
:1005E000280281110AC008950E940000E4CF0E94F1
:1005F0000000EDCF0E94D002EECF0C9400000895D1
:10060000DF92EF92FF920F931F93CF93DF93CDB7BB
:10061000DEB7EE970FB6F894DEBF0FBECDBF8C01EC
:100620007B01D42E8FEF840FD801ED91FC918230A5
:1006300020F40480F581E02D05C0411105C0028041
:10064000F381E02DC8011995D801ED91FC9100844A
:10065000F185E02D20E041E0B701C8011995B5E032
:10066000DB1609F43FC0D801ED91FC910280F381C3
:10067000E02DC8011995B2E0DB1234C0D801ED912C
:10068000FC910084F185E02D20E041E0BE016F5F28
:100690007F4FC801199540E0D8011C968C914817EE
:1006A00008F5842F90E0880F991FF701E80FF91FD4
:1006B00021E030E02C0F3D1F820F931FD8011E96C2
:1006C0002D913C911F97DC018D919C91B901681B84
:1006D000790BCB0120813181820F931F918380831D
:1006E0004F5FDACFEE960FB6F894DEBF0FBECDBFE8
:1006F000DF91CF911F910F91FF90EF90DF900895C0
:1007000085ED8093BC008091BC0084FDFCCF1092ED
:10071000000308954091A102262F30E0240F311DDF
:1007200021323105DCF4209100032430C9F4FC01AE
:1007300080E090E0861758F43091A1022191DC010D
:10074000A158BD4FA30FB11D2C930196F3CF8091FB
:10075000A102680F6093A10280E0089581E00895EE
:1007600082E00895089581E090E03091C8022091E0
:10077000C702321710F480E090E0919581959109BD
:1007800008958091C8029091C702891730F48F5F55
:100790008093C80280E090E008958FEF9FEF089566
:1007A0008091C70290E02091C802821B91090895B0
:1007B000CF92DF92EF92FF920F931F93CF93DF932D
:1007C0007C01262F972F8A0180910103882391F0C5
:1007D000C62FD72F6E01C40ED51ECC15DD0571F0C6
:1007E0006991D701ED91FC910190F081E02DC70155
:1007F0001995F3CF642F822F0E948A03C801DF91DD
:10080000CF911F910F91FF90EF90DF90CF900895BF
:10081000CF93DF931F92CDB7DEB769832091010399
:100820002223D1F020912403203240F021E030E057
:10083000FC013383228380E090E015C080910203A5
:10084000E82FF0E0ED5FFC4F998190838F5F8093FC
:1008500002038093240305C061E0CE0101960E944B
:100860008A0381E090E00F90DF91CF910895089581
:1008700080E090E00895CF93DF93FC0185858F3F62
:1008800061F0EF0161E00E94AC0C61E08D850E9497
:100890007C0C8BE193E00197F1F7DF91CF91089504
:1008A000CF93DF93FC0185858F3F61F0EF0161E01D
:1008B0000E94AC0C60E08D850E947C0C8BE193E083
:1008C0000197F1F7DF91CF910895EF92FF920F9387
:1008D0001F93CF93DF931F92CDB7DEB77C018B01BF
:1008E000FC011382128215821482178216821186ED
:1008F0001086118A108A403218F08FE1848702C076
:10090000FC014487F70182859385892B11F080E0F3
:100910000DC0F701848590E029830E944517F701F7
:10092000938782872981892B91F714C0F7019485D9
:10093000891778F4482F50E0F801E40FF51F9081F3
:10094000F70162857385FB01E40FF51F90838F5FCC
:10095000EDCF25870F90DF91CF911F910F91FF90E1
:10096000EF9008950F931F93CF93DF93EC01122F15
:10097000202FE881F9813697808191818C0F9D1F0E
:100980000E9465041A83E881F981369780819181FC
:10099000C80FD91F8FEF93E09F878E87DF91CF918C
:1009A0001F910F910895FC01248131E030930103E0
:1009B0002093230310920203109224038485682B52
:1009C0008CEF94E00E9408040C94780B0F931F9313
:1009D000CF938C01C62F64600E94D3046C2F6B7F71
:1009E000C8010E94D30483EC90E00197F1F7CF9106
:1009F0001F910F9108950F931F93CF93DF938C0155
:100A0000C62FD62FD07FD1606D2F0E94D3046D2FBB
:100A1000C8010E94E60480E1C89FB0011124C62FDE
:100A2000C1606C2FC8010E94D3046C2FC8010E94C2
:100A3000E60481E090E0DF91CF911F910F9108953E
:100A40001F920F920FB60F9211240BB60F922F9395
:100A50003F934F935F936F937F938F939F93AF9346
:100A6000BF93EF93FF9385E293E00E944602FF91CC
:100A7000EF91BF91AF919F918F917F916F915F9116
:100A80004F913F912F910F900BBE0F900FBE0F9083
:100A90001F9018951F920F920FB60F9211240BB64C
:100AA0000F922F933F934F935F936F937F938F9307
:100AB0009F93AF93BF93EF93FF9385E293E00E94E0
:100AC000D201FF91EF91BF91AF919F918F917F9153
:100AD0006F915F914F913F912F910F900BBE0F90AF
:100AE0000FBE0F901F9018951F920F920FB60F9286
:100AF00011240BB60F922F933F934F935F936F93F5
:100B00007F938F939F93AF93BF93EF93FF9382EC69
:100B100093E00E944602FF91EF91BF91AF919F91A8
:100B20008F917F916F915F914F913F912F910F9096
:100B30000BBE0F900FBE0F901F9018951F920F9233
:100B40000FB60F9211240BB60F922F933F934F9332
:100B50005F936F937F938F939F93AF93BF93EF9325
:100B6000FF9382EC93E00E94D201FF91EF91BF913D
:100B7000AF919F918F917F916F915F914F913F9135
:100B80002F910F900BBE0F900FBE0F901F901895D6
:100B90001F920F920FB60F9211240BB60F922F9344
:100BA0003F934F935F936F937F938F939F93AF93F5
:100BB000BF93EF93FF938FE594E00E944602FF916D
:100BC000EF91BF91AF919F918F917F916F915F91C5
:100BD0004F913F912F910F900BBE0F900FBE0F9032
:100BE0001F9018951F920F920FB60F9211240BB6FB
:100BF0000F922F933F934F935F936F937F938F93B6
:100C00009F93AF93BF93EF93FF938FE594E00E9480
:100C1000D201FF91EF91BF91AF919F918F917F9101
:100C20006F915F914F913F912F910F900BBE0F905D
:100C30000FBE0F901F9018951F920F920FB60F9234
:100C400011240BB60F922F933F934F935F936F93A3
:100C50007F938F939F93AF93BF93CF93DF93EF9344
:100C6000FF932091090530E0F901ED50FD4F84918B
:100C7000F901E355FD4FD491F901E959FD4FC491B4
:100C8000CC23A1F081110E94260CEC2FF0E0EE0F96
:100C9000FF1FE85EFD4FA591B491EC91ED2331E08B
:100CA00020E009F430E0832F922F02C080E090E032
:100CB00020910D0530910E052F5F3F4F30930E05AB
:100CC00020930D0520910C05253618F026E0209381
:100CD0000805209108052430D9F128F4223069F064
:100CE0002330D9F060C0253009F453C0263009F014
:100CF0005AC021E02093D90553C0009709F053C092
:100D000020910D0530910E052436310508F443C0BD
:100D10001092D90510920C051DC08130910509F083
:100D200042C0E0910C0521E02E0F20930C05F0E06D
:100D300020910D0530910E05EE0FFF1FE85FFA4F71
:100D40003087278310920E0510920D0524E029C0EC
:100D50000097B9F4E0910C0521E02E0F20930C05CB
:100D6000F0E020910D0530910E05EE0FFF1FE85FBA
:100D7000FA4F3087278310920E0510920D0523E05D
:100D800010C020910D0530910E052536310558F023
:100D900007C0009741F410920E0510920D0503C094
:100DA00025E02093080520910B052223B9F0892B1B
:100DB00051F480910A05882321F080910A0561E0B1
:100DC00009C02F9A0BC080910A05882331F08091C9
:100DD0000A0560E00E947C0C01C02F98FF91EF9102
:100DE000DF91CF91BF91AF919F918F917F916F9143
:100DF0005F914F913F912F910F900BBE0F900FBEBF
:100E00000F901F9018958F929F92AF92BF92CF92A2
:100E1000DF92EF92FF920F931F93CF93DF93EC013A
:100E20006A017B0120E030E04FE753E4C701B601DF
:100E30000E9454154B015C0120E030E0A9010E94A2
:100E4000401718161CF4C501B40103C0C501B40154
:100E500090580E940A178B0120E030E0A901C701D9
:100E6000B6010E944017181614F460E001C061E05A
:100E700089810E947C0C0F3F110509F014F41127A1
:100E800002C00FEF10E0C88161E08C2F0E94AC0C13
:100E90000115110509F4B1C00F3F110509F4AFC0E8
:100EA000EC2FF0E0ED50FD4FE4914E2F50E0FA01B1
:100EB0003197E231F10508F09DC08827EE58FF4FC9
:100EC0008F4F0C94951684B5806884BD07BDA7C06C
:100ED00084B5806284BD08BDA2C080918000806816
:100EE00080938000109389000093880098C08091BF
:100EF000800080628093800010938B0000938A00B2
:100F00008EC08091800088608093800010938D0057
:100F100000938C0084C08091B00080688093B00002
:100F20000093B3007CC08091B00080628093B000D9
:100F30000093B40074C0809190008068809390000A
:100F400010939900009398006AC08091900080628D
:100F50008093900010939B0000939A0060C0809152
:100F6000900088608093900010939D0000939C00F7
:100F700056C08091A00080688093A0008091A0005E
:100F80008F7B8093A0001093A9000093A80047C016
:100F90008091A00080628093A0001093AB0000932A
:100FA000AA003DC08091A00088608093A0001093AB
:100FB000AD000093AC0033C0809120018068809325
:100FC0002001109329010093280129C0809120015C
:100FD00080628093200110932B0100932A011FC08F
:100FE0008091200188608093200110932D0100934F
:100FF0002C0115C00038110514F460E001C061E057
:101000008C2FDF91CF911F910F91FF90EF90DF9088
:10101000CF90BF90AF909F908F900C947C0CDF91FD
:10102000CF911F910F91FF90EF90DF90CF90BF90E5
:10103000AF909F908F9008951F920F920FB60F92CE
:1010400011240BB60F922F933F934F935F936F939F
:101050007F938F939F93AF93BF93EF93FF93809171
:10106000C60287FF05C0109285001092840016C04A
:101070002091C602022E000C330B8091160690E0E0
:10108000281739075CF43091C60225E03203F001DD
:101090001124E652FA4F808186FD15C08091C60268
:1010A0008F5F8093C6022091C602022E000C330B84
:1010B0008091160690E02817390794F48091C602B3
:1010C0008C302CF10DC03091C6023203F001112496
:1010D000E652FA4F808160E08F730E947C0CDECF75
:1010E000809184009091850084349C4918F480E4B8
:1010F0009CE905C0809184009091850004969093AE
:101100008900809388008FEF8093C6022AC04091A7
:101110008400509185003091C60225E03203F00131
:101120001124E652FA4F81819281840F951F90938A
:101130008900809388003091C6023203F0011124A7
:10114000E652FA4F808186FF0CC03091C60232030E
:10115000F0011124E652FA4F808161E08F730E9402
:101160007C0CFF91EF91BF91AF919F918F917F91F7
:101170006F915F914F913F912F910F900BBE0F9008
:101180000FBE0F901F9018958EBD00000DB407FE86
:10119000FDCF8EB50895CF93DF93EC0160E0888199
:1011A0000E947C0C88E90E94C40880E00E94C40868
:1011B00080E00E94C40880E00E94C40880E00E9491
:1011C000C40861E088810E947C0C8BE891E0019763
:1011D000F1F760E088810E947C0C80EE0E94C408D8
:1011E00061E08881DF91CF910C947C0C1F920F926B
:1011F0000FB60F9211240BB60F922F933F934F937C
:101200005F936F937F938F939F93AF93BF93EF936E
:10121000FF938091B900887F803609F49CC068F5FF
:10122000883209F45BC090F4803109F454C038F47A
:10123000882309F4F6C0883009F44DC0F6C088311F
:1012400009F44CC0803209F45DC0EFC0803409F469
:1012500068C048F4803309F455C0883309F0E5C00C
:101260008093FE02D8C0803509F44FC0883509F458
:101270005DC0883409F0D9C0D6C0883909F4C7C028
:10128000A8F4883709F467C038F4883609F463C0D5
:10129000803709F460C0C9C0883809F4B8C0803903
:1012A00009F45FC0803809F0C0C05BC0803B09F41E
:1012B00086C038F4803A09F466C0883A09F47FC0E1
:1012C000B4C0803C09F4A7C0883C09F4A4C0883BA2
:1012D00009F48AC0AAC08091DB0210C09091FD027F
:1012E0008091FC02981770F5E091FD0281E08E0F6D
:1012F0008093FD02F0E0E452FD4F80818093BB00BB
:1013000085EC86C08093FE028EC0E091FD0281E0F4
:101310008E0F8093FD028091BB00F0E0E452FD4F00
:1013200080839091FD028091FC026EC0E091FD02ED
:1013300081E08E0F8093FD028091BB00F0E0E452CB
:10134000FD4F80838091FF0281116DC081E0809309
:10135000DA0284EA61C083E0809300031092C50240
:10136000CFCF8091C502803208F051C0E091C50214
:1013700081E08E0F8093C5028091BB00F0E0EB55B9
:10138000FD4F8083BDCF85EC8093BC00109200039D
:101390008091C502803230F4E091C502F0E0EB5557
:1013A000FD4F10826091C50270E0E091A302F091C0
:1013B000A40285EA92E019951092C50236C084E035
:1013C000809300031092A2021092A102E0919F026A
:1013D000F091A00219958091A102811105C081E0D0
:1013E0008093A10210927F02E091A20281E08E0F11
:1013F0008093A202F0E0E158FD4F80818093BB0012
:101400009091A2028091A102981708F479CF85E803
:101410008093BC000AC085EC8093BC00109200034E
:1014200004C01092FE020E948003FF91EF91BF91D1
:10143000AF919F918F917F916F915F914F913F916C
:101440002F910F900BBE0F900FBE0F901F9018950D
:10145000CF92DF92EF92FF920F931F93CF93DF9380
:101460006C017A018B01C0E0D0E0CE15DF0589F078
:10147000D8016D918D01D601ED91FC910190F08123
:10148000E02DC6011995892B11F47E0102C0219629
:10149000ECCFC701DF91CF911F910F91FF90EF909B
:1014A000DF90CF9008950E945B191F920F920FB6A4
:1014B0000F9211242F933F938F939F93AF93BF93DA
:1014C0008091D2029091D302A091D402B091D50222
:1014D0003091D10223E0230F2D3720F40196A11D76
:1014E000B11D05C026E8230F0296A11DB11D209352
:1014F000D1028093D2029093D302A093D402B093EE
:10150000D5028091D6029091D702A091D802B091D5
:10151000D9020196A11DB11D8093D6029093D702E6
:10152000A093D802B093D902BF91AF919F918F91B0
:101530003F912F910F900FBE0F901F9018951F9203
:101540000F920FB60F9211240BB60F922F933F9369
:101550004F935F936F937F938F939F93AF93BF93BB
:10156000EF93FF938091CC029091CD02A091CE0297
:10157000B091CF02892B8A2B8B2B59F18091CB0212
:10158000E091C902F091CA029081892780838091FD
:10159000CC029091CD02A091CE02B091CF0218164C
:1015A00019061A061B060CF056C08091CC029091C9
:1015B000CD02A091CE02B091CF020197A109B1094D
:1015C0008093CC029093CD02A093CE02B093CF0231
:1015D00042C080910002E2E3F2E0E4919FEF909339
:1015E0000002E230C9F050F4EE2399F0E13081F5C9
:1015F00090916F009D7F90936F002AC0E43019F1A5
:10160000E0F0E53029F5909173009D7F9093730091
:101610001FC010926E001CC0909170009D7F90932F
:10162000700091E09093B0009091B100987F946029
:101630009093B1001092B3000BC0909171009D7F08
:101640009093710005C0909172009D7F90937200FD
:1016500060E00E947C0CFF91EF91BF91AF919F9150
:101660008F917F916F915F914F913F912F910F904B
:101670000BBE0F900FBE0F901F901895EFE5F4E092
:10168000A089B18982E08C93A485B5851C92A6853A
:10169000B7858FEC8C93108EA489B58986E08C93E6
:1016A000A289B3898C9180618C93A289B3898C9132
:1016B00088608C93A289B3898C9180688C9302880E
:1016C000F389E02D80818F7D80830895009769F0F4
:1016D000FC0101900020E9F73197AF01481B590B3D
:1016E000BC018FE594E00C94280A80E090E0089516
:1016F0002091240390912303213208F04AC0809165
:1017000000038111FCCF32E03093000331E03093CD
:10171000FF023FEF3093FE021092FD022093FC0285
:10172000A3E0B3E04CED52E0FA013E2F341B321738
:1017300018F43D913193F9CF1092DB022091DB0236
:10174000990F922B9093DB029091DA02913061F421
:101750001092DA029091DB029093BB009091BC0052
:1017600093FDF8CF95EC01C095EE9093BC0090915D
:1017700000039230E1F39091FE029F3F79F0809157
:10178000FE02803241F08091FE02803331F084E02D
:1017900005C081E003C082E001C083E01092020333
:1017A00010922403109201030895EF92FF921F9369
:1017B000CF93DF931F92CDB7DEB7162F92EFE92EAE
:1017C00096E0F92ED7011C969C911C9721E020935E
:1017D00001039093230310920203109224031A969C
:1017E0000D90BC91A02DED91FC9111970190F0818D
:1017F000E02D682FCD0179831995F70182859385B6
:10180000DC01ED91FC910190F081E02D7981672F51
:101810001995F70182859385DC01ED91FC9101908A
:10182000F081E02D612F19950F90DF91CF911F91DD
:10183000FF90EF900C94780B1F920F920FB60F92BF
:1018400011240F900FBE0F901F90189590E0FC018F
:101850003197E231F10508F04EC08827EC57FF4F71
:101860008F4F0C949516809180008F7703C08091E4
:1018700080008F7D80938000089580918000877F15
:10188000F9CF84B58F7702C084B58F7D84BD08956C
:101890008091B0008F7703C08091B0008F7D8093DE
:1018A000B0000895809190008F7707C080919000DC
:1018B0008F7D03C080919000877F80939000089572
:1018C0008091A0008F7707C08091A0008F7D03C01A
:1018D0008091A000877F8093A000089580912001CF
:1018E0008F7707C0809120018F7D03C080912001F8
:1018F000877F8093200108951F93CF93DF93282F34
:1019000030E0F901ED50FD4F8491F901E355FD4FB1
:10191000D491F901E959FD4FC491CC23C9F0162F98
:1019200081110E94260CEC2FF0E0EE0FFF1FE35B0D
:10193000FD4FA591B4918FB7F894111105C09C91FA
:10194000ED2FE095E92302C0EC91ED2BEC938FBFD6
:10195000DF91CF911F910895CF93DF9390E0FC0129
:10196000E355FD4F2491FC01E959FD4F84918823F3
:1019700061F190E0880F991FFC01ED5CFD4FC5916E
:10198000D491FC01E35BFD4FA591B491611109C0B5
:101990009FB7F8948881209582238883EC912E2329
:1019A0000BC0623061F49FB7F8943881822F809524
:1019B00083238883EC912E2B2C939FBF06C08FB777
:1019C000F894E8812E2B28838FBFDF91CF91089563
:1019D0003FB7F8948091D6029091D702A091D80297
:1019E000B091D90226B5A89B05C02F3F19F00196EA
:1019F000A11DB11D3FBFBA2FA92F982F8827820F95
:101A0000911DA11DB11DBC01CD0142E0660F771FE4
:101A1000881F991F4A95D1F70895CF92DF92EF92D0
:101A2000FF920F931F93CF93DF93FC01EB01608133
:101A3000718166507109DB018D919C91DC01AE0FC3
:101A4000BF1F1A968D919C911B97892B09F484C016
:101A5000822FDB010D911C91D801AE0FBF1F1C9688
:101A60009C91891748F4DE01A80FB11DA80FB11D84
:101A70001D921C92840FEDCF50E08281581708F020
:101A800046C0322FA081B18116978D919C918E0F07
:101A90009F1FDC011C966C913617B8F5032F10E0E0
:101AA000DC011A968D919C911B97800F911FDC0190
:101AB0008C91863308F0865390917B00682F687074
:101AC000977F962B90937B008770806480937C0037
:101AD00080917A00806480937A0080917A0086FDFC
:101AE000FCCF809178006091790090E0962BD8012E
:101AF000AA0FBB1FAC0FBD1F6D917C911197860F74
:101B0000971F8D939C93340FBDCF5F5FB6CFE0805E
:101B1000F180B6E0EB1AF108D7018D919C91DC01C0
:101B2000AE0FBF1F1C968C912817B0F48E01020FC8
:101B3000111D020F111D628170E06B01D594C794D5
:101B4000D8018D919C918C0D9D1D0E948116D8010C
:101B50006D937C93240FE0CFDF91CF911F910F9174
:101B6000FF90EF90DF90CF900895DC01ED91FC9114
:101B70003E970190F081E02D8E0F9F1F0C940D0D6C
:101B80008091290690912A060C94DA17CF93DF935F
:101B9000CDB7DEB7C959D1090FB6F894DEBF0FBE75
:101BA000CDBF789484B5826084BD84B5816084BDE6
:101BB00085B5826085BD85B5816085BD80916E00EB
:101BC000816080936E00109281008091810082601C
:101BD0008093810080918100816080938100809159
:101BE00080008160809380008091B1008460809348
:101BF000B1008091B00081608093B000809191002D
:101C00008260809391008091910081608093910027
:101C1000809190008160809390008091A10082600B
:101C20008093A1008091A10081608093A1008091A8
:101C3000A00081608093A000809121018260809348
:101C400021018091210181608093210180912001F7
:101C500081608093200180917A00846080937A0073
:101C600080917A00826080937A0080917A0081600E
:101C700080937A0080917A00806880937A00109235
:101C8000C1000E943E0B61E08091F3060E94AC0C03
:101C900060E08091F3060E947C0C60E08091F20687
:101CA0000E94AC0C8CEF94E09093FD068093FC06B0
:101CB0001092C8021092C7021092020310922403DD
:101CC0001092000381E08093FF021092DA0261E03B
:101CD00084E10E947C0C61E085E10E947C0C809193
:101CE000B9008E7F8093B9008091B9008D7F809379
:101CF000B90088E48093B80085E48093BC0080E05C
:101D000090E1A0E0B0E08093FF0690930007A093DD
:101D10000107B09302078AE090E0A0E0B0E0809372
:101D2000030790930407A0930507B093060780E08C
:101D300090E0A0E0B0E48093070790930807A09399
:101D40000907B0930A0760E070E185E00E94D50BB7
:101D50006FE979E380E00E94D50B0FE017E0812C5A
:101D6000912CA12CB12C2CE9222E22E0322E32EE25
:101D7000432E32E0532E4BEC642E47E0742E950137
:101D80002E50394F6901D90114969C9114971296DF
:101D90008C91F401EE50F94F7F01818F928F61E0B9
:101DA0000E94AC0C61E0D7015A968C910E94AC0C59
:101DB000F60190858681D8018C93F701968F61E0BA
:101DC0000E94AC0C60E0D7015E968C910E94AC0C36
:101DD00061E0F80180810E947C0CFFB6F89480914C
:101DE000D002811125C0F1018491F2019491E82F74
:101DF000F0E0EE0FFF1FED5CFD4FA591B4918C91CB
:101E0000982321F461E085E30E947C0C61E085E386
:101E10000E94AC0C8CB580618CBD8CB580648CBD8F
:101E200061E084E30E94AC0C61E083E30E94AC0CAF
:101E30008091D0028F5F8093D002FFBEC3010197D3
:101E4000F1F760E0D8018C910E947C0C88E80E9438
:101E5000C40883E00E94C40861E0F80180810E9408
:101E60007C0CC3010197F1F7C8010E94CB08F2E096
:101E70008F0E911C0E5F1F4FAA94AB2821F0AA244D
:101E8000A394B12C7CCF07E117E0B4E0FB2EF00E59
:101E900060E0D8018D918D010E94AC0CF012F8CF5A
:101EA00066E2E62E67E0F62E03E217E075E0A72E65
:101EB000ECE0CE2EF2E09F2EA2E0BA2EB00EF8019A
:101EC0003897D080F80180818C3008F046C061E0FE
:101ED0008D2D0E94AC0CD8018C91A89EF00111248C
:101EE000E652FA4F9D2D9F732081207CD22ED92A55
:101EF000D082138214826C2D0E947516BCE08B9FD9
:101F0000A001112420E030E0B901640F751FA69EE6
:101F1000F001A79EF00D1124E652FA4F908196FD34
:101F200012C02F5F3F4F2C30310571F781110BC06C
:101F3000109280009092810010928500109284008F
:101F400096BA90926F00D801EC91AE9EF0011124E8
:101F5000E652FA4F808180648083F8013297908145
:101F600032978081F70131978083F701908360E099
:101F70000E94AC0C61E0D7018C910E94AC0C60E037
:101F8000F70180810E947C0C0F5F1F4FF2E0EF0E83
:101F9000F11CB01294CFF8941092200189E0809344
:101FA000210180E293E0909329018093280110920F
:101FB00025011092240182E080937300789480932D
:101FC000080510920C058091090560E00E94AC0C98
:101FD0008FE097E00E94CB0881E197E00E94CB0858
:101FE0000E943E0B88E0E7E0F2E0DE01A957BF4F18
:101FF00001900D928A95E1F71E0127E7220E311C10
:1020000080E1D1011D928A95E9F7A9961FAE1EAE17
:10201000A997AB961FAE1EAEAB97AD961FAE1EAE88
:10202000AD97AF961FAE1EAEAF97E1961FAE1EAE38
:10203000E19785E192E0A4969FAF8EAFA49787E2E7
:1020400092E0A7969FAF8EAFA7970FEF24E048E0EE
:10205000BE0169577F4FCE018E599F4F0E94B20437
:1020600044E6E42EF12C52E6652E712C6C0E7D1E9A
:10207000B3E06B0E711CAB968EAD9FADAB97892B09
:1020800039F0A9968EAD9FADA997892BD9F41DC0C3
:10209000E2960FADE29710E0C801880F991F0E94E9
:1020A0004517AB969FAF8EAFAB97009709F4A5C0CD
:1020B000FC0180E090E0801791071CF711921192CB
:1020C0000196F9CF00E010E01EC0E2960FADE29756
:1020D00010E0C801880F991F0E944517A9969FAF6D
:1020E0008EAFA997009709F488C0E5962EAD3FAD55
:1020F000E597FC0180E090E0801791071CF72193A1
:1021000031930196F9CF41E0BE016E5B7F4FC30171
:102110000E940003E2968FACE297912CAE014F5FD4
:102120005F4FFE01EE5BFF4F9E012E5D3F4F590159
:10213000C9012A0120E030E0281539054CF50115C8
:10214000110589F0DC01CD90DC9060817181C616AB
:10215000D70648F0D201CD90DC90608171816C157A
:102160007D0548F00DC060817181DC016D937C9329
:102170000115110579F760817181D2016D937C930E
:102180002F5F3F4FB2E04B0E511C32960296D4CFD8
:102190000F5F1F4F0A30110509F0B5CFA996AEADFC
:1021A000BFADA997AB960EAD1FADAB9780E090E0A9
:1021B000E2962FADE29730E082179307F4F4FA012C
:1021C00021913191AF01F80160817181621773072C
:1021D00010F431832083F501219131915F016D91DC
:1021E0007C9111972617370718F411963C932E937C
:1021F000019612960E5F1F4FDBCFF1E0EF1AF10848
:1022000009F039CF40E050E060E87EE38BE097E0F2
:102210000E94030740E050E060E87EEB8DE097E02D
:102220000E940307CD56DF4F1882C359D040CC56C9
:10223000DF4F1882C459D040CB56DF4F1882C559A2
:10224000D040CA56DF4F1882C659D040C12CD12C7D
:10225000760122E630E02C0F3D1F2D5F3F4FC85620
:10226000DF4F39832883C859D0400E94E80C2B01E6
:102270003C0184E6882E912CA12CB12C0E94E80C04
:10228000DC01CB0184199509A609B709883E934062
:10229000A105B10558F031E0831A9108A108B108F1
:1022A00048EE440E43E0541E611C711C81149104DD
:1022B000A104B10419F7A9968EAD9FADA997892BFA
:1022C00009F5E296EFADE297C956DF4FE883C759AB
:1022D000D040C057DF4F39822882C059D040412CAE
:1022E000512C3201E0E0F0E0812C912C5401CE56CB
:1022F000DF4F1882C259D040C157DF4F1882CF58E4
:10230000D0407DC0AB968EAD9FADAB97892BC9F207
:1023100041E0B101C856DF4F88819981C859D0404A
:102320000E940003E2964FACE297512C5101AB960C
:102330008EAC9FACAB97A9966EAC7FACA99700E032
:1023400010E0041515050CF0BCCFD401ED91FD9102
:102350004D01D3018D919D913D01E81BF90BC1F019
:10236000D5012D913C91A90160E070E09A01AB018B
:10237000281B390B41095109A8EEB3E00E94311620
:102380009F0140E050E00E94121637FD0AC002C0D3
:1023900020E030E0293EB3E03B072CF028EE33E0AC
:1023A00002C020E030E0F501219331935F010F5F1F
:1023B0001F4FC7CFC057DF4FA881B981C059D04048
:1023C0000D911D91C057DF4FB983A883C059D040EC
:1023D000093C11050CF50333110524F5C157DF4FF6
:1023E0002881CF58D0402F5FC157DF4F2883CF5867
:1023F000D04038EE430E33E0531E611C711CC157B0
:10240000DF4F4881CF58D040C956DF4F5881C75958
:10241000D0404513CFCF12C0B1E0CE56DF4FB883C6
:10242000C259D040D801A30192010E943C16860EE9
:10243000971EA81EB91EE00FF11FD0CFCE56DF4F5A
:102440006881C259D04061111DC0842F90E001976E
:10245000A4EFB1E08A9F90018B9F300D9A9F300DC1
:102460001124E7964EAD5FADE79742175307BCF0D6
:10247000E8EEF3E08E9F40018F9F900C9E9F900CA2
:1024800011240FC09F0140E050E0C501B4010E943B
:1024900044164901E7963FAF2EAFE79702C0812C63
:1024A000912C092C000CAA08BB08B7FE28C0E091AB
:1024B0005F04F09160040190F081E02D6DE28FE502
:1024C00094E0199522273327A901281939094A09C7
:1024D0005B0919A28E010F5D1F4FCA01B9012AE0E5
:1024E00030E040E050E00E944416605DD8016E93F9
:1024F0008D01211531054105510579F717C0A50159
:10250000940119A28E010F5D1F4FCA01B9012AE083
:1025100030E040E050E00E944416605DF8016293B4
:102520008F01211531054105510579F7C8010E9438
:10253000660B83E692E00E94660BC501B4010E941F
:10254000F51420E030EC4AE555E40E949D165B014D
:102550008C019B01AC01C701B6010E949E166B0164
:102560007C012CE933E549E458E3B501C8010E9438
:10257000541520E030E040E85EE30E949E162B01F7
:102580003C0127E73CEC4BEA54E3C701B6010E944B
:1025900054159B01AC01C301B2010E949E162B0190
:1025A0003C01CD56DF4F2881C359D040CC56DF4F78
:1025B0003881C459D040CB56DF4F4881C559D040EF
:1025C000CA56DF4F5881C659D040B501C8010E9494
:1025D0009D1622E539E44DE958E30E9454159B010C
:1025E000AC01C301B2010E949E16AB01BC01705840
:1025F0008DE097E00E940307CD56DF4FA882C359B4
:10260000D040CC56DF4FB882C459D040CB56DF4FB4
:102610000883C559D040CA56DF4F1883C659D040E9
:1026200024CE109228031092270388EE93E0A0E0B6
:10263000B0E08093290390932A03A0932B03B093D7
:102640002C0325E332E0309326032093250345E352
:1026500051E0509332034093310344E351E05093EF
:1026600034034093330340E351E0509336034093E7
:10267000350341E351E0509338034093370342E37D
:1026800051E050933A034093390346E351E05093AD
:102690003C0340933B0310923E0310923F03109281
:1026A0004003109241031092C5031092C40380931B
:1026B000C6039093C703A093C803B093C903309394
:1026C000C3032093C20345ED50E05093CF034093E2
:1026D000CE0344ED50E05093D1034093D00340ED3E
:1026E00050E05093D3034093D20341ED50E0509318
:1026F000D5034093D40342ED50E05093D703409369
:10270000D60346ED50E05093D9034093D80310927E
:10271000DB031092DC031092DD031092DE031092B3
:102720006204109261048093630490936404A09304
:102730006504B09366043093600420935F0425EC35
:1027400030E030936C0420936B0424EC30E0309341
:102750006E0420936D0420EC30E0309370042093DD
:102760006F0421EC30E0309372042093710422EC6A
:1027700030E0309374042093730426EC30E03093FF
:1027800076042093750410927804109279041092C4
:102790007A0410927B041092FF041092FE0480933E
:1027A000000590930105A0930205B093030587E40B
:1027B00092E09093FD048093FC0486E380931307DA
:1027C00087E38093140788E38093150789E3809358
:1027D00016078BE1809317078DE1809318078AE134
:1027E000809319078CE180931A0784E080931B077C
:1027F00087E080931C0710921D0784EB80931E07CF
:1028000086E180931F0788E18093200787E180930A
:10281000210789E180932207E0911606EC3020F031
:102820008FEF8093230710C081E08E0F80931606F0
:10283000E093230725E0E29FF0011124E652FA4FCE
:1028400088EB9BE092838183E0911606EC3020F0C8
:102850008FEF8093240710C081E08E0F80931606BF
:10286000E093240785E0E89FF0011124E652FA4F37
:1028700088EB9BE0928381838CE08093F20684E274
:102880008093F30686E08093F40685E08093F50656
:102890008FE18093F6068EE18093F70683E28093C2
:1028A000F80682E28093F90685E48093FA0684E4D0
:1028B0008093FB0680E48093FE061092030710923B
:1028C000040710920507109206071092070710924E
:1028D00008071092090710920A07E4E3F6E08FEF69
:1028E0009FEFDC01128213821482158216821782F6
:1028F0001086118683879487A587B6878787908BF4
:10290000A18BB28B128611821082739626E0E23F71
:10291000F20741F78DE090E00E944517FC01138219
:10292000128289E592E091838083118687E2848315
:1029300084E1828784E083871486F0933106E093F4
:102940003006109232061092330685E28093090514
:1029500010920B0510922A061092290610922C064E
:1029600010922B0610922E0610922D0661E070E058
:1029700080E090E00E947218009789F090932A06F8
:102980008093290610922C0610922B0620912D067A
:1029900030912E06232BF1F4FC0110821BC0809194
:1029A000290690912A06009711F00E94DA171092DA
:1029B0002A061092290610922E0610922D061092C9
:1029C0002C0610922B0682E090E0909318068093DC
:1029D0001706089510922E0610922D0665E672E0F5
:1029E0000E946919F0CFE89409C097FB3EF49095D6
:1029F0008095709561957F4F8F4F9F4F9923A9F0D8
:102A0000F92F96E9BB279395F69587957795679566
:102A1000B795F111F8CFFAF4BB0F11F460FF1BC0AA
:102A20006F5F7F4F8F4F9F4F16C0882311F096E93D
:102A300011C0772321F09EE8872F762F05C06623EB
:102A400071F096E8862F70E060E02AF09A95660FA4
:102A5000771F881FDAF7880F9695879597F908955D
:102A6000990F0008550FAA0BE0E8FEEF161617069F
:102A7000E807F907C0F012161306E407F50798F007
:102A8000621B730B840B950B39F40A2661F0232B20
:102A9000242B252B21F408950A2609F4A140A6959C
:102AA0008FEF811D811D08950E9467150C94D81524
:102AB0000E94CA1538F00E94D11520F0952311F01C
:102AC0000C94C1150C94C71511240C940C160E947B
:102AD000E91570F3959FC1F3950F50E0551F629F64
:102AE000F001729FBB27F00DB11D639FAA27F00D67
:102AF000B11DAA1F649F6627B00DA11D661F829F8E
:102B00002227B00DA11D621F739FB00DA11D621F72
:102B1000839FA00D611D221F749F3327A00D611D8F
:102B2000231F849F600D211D822F762F6A2F112471
:102B30009F5750409AF0F1F088234AF0EE0FFF1FA4
:102B4000BB1F661F771F881F91505040A9F79E3FFB
:102B5000510580F00C94C1150C940C165F3FE4F302
:102B6000983ED4F3869577956795B795F795E79551
:102B70009F5FC1F7FE2B880F911D9695879597F95A
:102B8000089597F99F6780E870E060E008959FEFEF
:102B900080EC089500240A941616170618060906F4
:102BA000089500240A9412161306140605060895C3
:102BB000092E0394000C11F4882352F0BB0F40F44B
:102BC000BF2B11F460FF04C06F5F7F4F8F4F9F4F8B
:102BD000089557FD9058440F551F59F05F3F71F00D
:102BE0004795880F97FB991F61F09F3F79F0879574
:102BF0000895121613061406551FF2CF4695F1DFFD
:102C000008C0161617061806991FF1CF869571058C
:102C1000610508940895E894BB2766277727CB01C0
:102C200097F90895052E97FB1EF400940E9429162B
:102C300057FD07D00E94441607FC03D04EF40C94B5
:102C4000291650954095309521953F4F4F4F5F4F36
:102C5000089590958095709561957F4F8F4F9F4F08
:102C600008950E946616A59F900DB49F900DA49F95
:102C7000800D911D11240895B7FF0C9431160E9408
:102C80003116821B930B0895A1E21A2EAA1BBB1BBF
:102C9000FD010DC0AA1FBB1FEE1FFF1FA217B30728
:102CA000E407F50720F0A21BB30BE40BF50B661F3E
:102CB000771F881F991F1A9469F760957095809502
:102CC00090959B01AC01BD01CF010895A29FB00179
:102CD000B39FC001A39F700D811D1124911DB29F50
:102CE000700D811D1124911D0895991B79E004C078
:102CF000991F961708F0961B881F7A95C9F780953B
:102D00000895AA1BBB1B51E107C0AA1FBB1FA61732
:102D1000B70710F0A61BB70B881F991F5A95A9F784
:102D200080959095BC01CD010895EE0FFF1F881F7F
:102D30008BBF0790F691E02D19945058BB27AA2716
:102D40000E94B5160C94D8150E94CA1538F00E943E
:102D5000D11520F039F49F3F19F426F40C94C715CF
:102D60000EF4E095E7FB0C94C115E92F0E94E915DC
:102D700058F3BA17620773078407950720F079F4B0
:102D8000A6F50C940B160EF4E0950B2EBA2FA02D81
:102D90000B01B90190010C01CA01A0011124FF2708
:102DA000591B99F0593F50F4503E68F11A16F04003
:102DB000A22F232F342F4427585FF3CF4695379502
:102DC0002795A795F0405395C9F77EF41F16BA0BC7
:102DD000620B730B840BBAF09150A1F0FF0FBB1F75
:102DE000661F771F881FC2F70EC0BA0F621F731FBE
:102DF000841F48F4879577956795B795F7959E3F1B
:102E000008F0B0CF9395880F08F09927EE0F9795AB
:102E1000879508950E9411176894B1110C940C16AF
:102E200008950E94F11588F09F5798F0B92F9927BF
:102E3000B751B0F0E1F0660F771F881F991F1AF0A5
:102E4000BA95C9F714C0B13091F00E940B16B1E0E9
:102E500008950C940B16672F782F8827B85F39F0E8
:102E6000B93FCCF3869577956795B395D9F73EF43E
:102E700090958095709561957F4F8F4F9F4F0895E6
:102E80000E94301508F48FEF0895CF93DF938230BE
:102E9000910510F482E090E0E0912D07F0912E076B
:102EA00020E030E0C0E0D0E0309711F14081518166
:102EB00048175907C0F04817590761F48281938178
:102EC000209719F09B838A832BC090932E078093C1
:102ED0002D0726C02115310519F04217530718F4A4
:102EE0009A01BE01DF01EF010280F381E02DDCCF0A
:102EF0002115310509F1281B390B2430310590F4D7
:102F000012968D919C9113976115710521F0FB012B
:102F10009383828304C090932E0780932D07FD0135
:102F2000329644C0FD01E20FF31F8193919322502A
:102F300031092D933C933AC020912B0730912C07F7
:102F4000232B41F4209103023091040230932C078B
:102F500020932B07209101023091020221153105A7
:102F600041F42DB73EB74091050250910602241B53
:102F7000350BE0912B07F0912C07E217F307A0F433
:102F80002E1B3F0B2817390778F0AC014E5F5F4FBF
:102F90002417350748F04E0F5F1F50932C074093BE
:102FA0002B078193919302C0E0E0F0E0CF01DF9125
:102FB000CF9108950F931F93CF93DF93009709F458
:102FC0008CC0FC0132971382128200912D07109160
:102FD0002E070115110581F420813181820F931F85
:102FE00020912B0730912C072817390779F5F0939A
:102FF0002C07E0932B0771C0D80140E050E0AE17DA
:10300000BF0750F412962D913C911397AD012115F5
:10301000310509F1D901F3CF9D01DA013383228310
:1030200060817181860F971F8217930769F4EC0105
:1030300028813981260F371F2E5F3F4F3183208330
:103040008A819B8193838283452B29F4F0932E07F9
:10305000E0932D0742C01396FC93EE931297ED0177
:10306000499159919E01240F351FE217F30771F41E
:1030700080819181840F951F029611969C938E9367
:103080008281938113969C938E931297E0E0F0E0F7
:10309000D80112968D919C911397009719F0F80121
:1030A0008C01F6CF8D919C9198012E5F3F4F820F3E
:1030B000931F20912B0730912C072817390769F4AB
:1030C000309729F410922E0710922D0702C0138218
:1030D000128210932C0700932B07DF91CF911F9141
:1030E0000F9108956F927F928F929F92AF92BF92AD
:1030F000CF92DF92EF92FF920F931F93CF93DF93C4
:10310000EC01009789F4CB01DF91CF911F910F91D2
:10311000FF90EF90DF90CF90BF90AF909F908F90F7
:103120007F906F900C944517FC01E60FF71F9C01F0
:1031300022503109E217F30708F4ACC0D9010D9110
:103140001C91119706171707B0F00530110508F408
:103150009FC0C80104978617970708F499C00250CA
:103160001109061B170B019311936D937C93CF01EB
:103170000E94DA178DC05B01A01AB10A4C01800EC3
:10318000911EA0912D07B0912E0740E050E0E12C58
:10319000F12C109709F44AC0A815B905D1F56D9026
:1031A0007C901197630182E0C80ED11CCA14DB0425
:1031B00080F1A3014A195B096A0182E0C80ED11CA3
:1031C0001296BC9012971396AC91B5E0CB16D10431
:1031D00040F0B282A38351834083D9016D937C93E5
:1031E0000AC00E5F1F4FC301800F911FF901918329
:1031F0008083EB2DFA2FE114F10431F0D7011396FF
:10320000FC93EE93129744C0F0932E07E0932D07A2
:103210003FC08D919C9111974817590708F4AC0154
:103220007D0112960D90BC91A02DB3CF80912B07FC
:1032300090912C0788159905E1F446175707C8F4B3
:103240008091010290910202009741F48DB79EB7E0
:103250004091050250910602841B950BE817F9076F
:10326000C8F4F0932C07E0932B07F9017183608376
:103270000FC0CB010E9445177C01009759F0A801AF
:10328000BE010E946019CE010E94DA17C70104C076
:10329000CE0102C080E090E0DF91CF911F910F91AD
:1032A000FF90EF90DF90CF90BF90AF909F908F9066
:1032B0007F906F90089581E090E0F8940C947019DD
:1032C000FB01DC0102C001900D9241505040D8F743
:1032D0000895FB01DC0101900D920020E1F70895B3
:1032E00011E0CEE9D1E000E006C0802FFE010E948F
:1032F00095162196011DCF39D10780E00807A9F75F
:04330000F894FFCF6F
:10330400FF00002F07200000010203040506070345
:103314000000000000B2040D0DFDFF0000000000DD
:10332400000000FDFF0000000350043B046504B5E9
:103334000D000000006702280AEB01AE021C02FA2D
:10334400010E02000000000804D8033804B203D0C0
:1033540003C103B30300000000FB04280A38043748
:063364000402000D0A0046
:00000001FF
