:100000000C9484010C94B5010C94B5010C94B501C9
:100010000C94B5010C94B5010C94B5010C94B50188
:100020000C94B5010C94890B0C94890B0C94890BDE
:100030000C94B5010C94C70E0C94B5010C94B50149
:100040000C94B5010C9462070C94B5010C94B501A5
:100050000C94B5010C94B5010C94B5010C947D0E73
:100060000C94B5010C94C4030C9439040C94B501A0
:100070000C94B5010C94B5010C94B5010C94B50128
:100080000C9434070C94B5010C94B5010C94B50193
:100090000C94B5010C94B5010C94B5010C94930B20
:1000A0000C94B5010C94B5010C9406070C94B501A1
:1000B0000C94B5010C94B5010C94B5010C94D806C0
:1000C0000C94B5010C94B5010C94B5010C949A03F1
:1000D0000C940F040C94B5010C9470030C94660FEF
:1000E0000C94B5012C053105360540054A05C305BC
:1000F00054055C0564056E057805820591059B0530
:10010000C305A505AF05B905F30DF60DE50DE90D20
:10011000ED0D2D0EFA0DFE0D040E080E0C0E120E36
:10012000160E1A0E2D0E200E240E280E0C942C05E1
:100130000C94200E0C9401020C94ED0C0C94F30D15
:100140000C94AF050C94ED0D0C94010D0C94900FD4
:100150000C94DF010C94F60D0C944B030C94780571
:100160000C949B050C9454050C9463040C940C0E95
:100170000C94120E0C94A5050C94960F0C94D001BF
:100180000C9458020C94FA0D0C9440050C944709F9
:100190000C94B9050C94280E0C94AA040C94360502
:1001A0000C94240E0C94040E0C9464050C94FE0D17
:1001B0000C94160E0C94590D0C9448090C941A0EBC
:1001C0000C9482050C942E0D0C9491050C946E05E4
:1001D0000C94080E0C94C3050C944A050C945C0511
:1001E0000C9431050C94890D0C94E90D0C94E50DDB
:1001F0000C94F3010C942D0E0C9459020200002172
:1002000000240027002A002D0030003300010100E7
:1002100000040107010A0100002200250028002B2C
:10022000002E003100340002010000050108010B1E
:100230000105050505070508080808020202020A6B
:100240000A08080404040401010101010101010379
:1002500003030303030303040707070C0C0C0C0C34
:100260000C0C0C0202020206060606060606060B27
:100270000B0B0B0B0B0B0B0102102020080810209E
:100280004010204080020102010804020101020422
:1002900008102040808040201008040201800402E1
:1002A0000180402010080402010804020101020438
:1002B0000810204080010204081020408000000A3D
:1002C0000B02090C0D0E08070304010000000000DA
:1002D000000000000000000000000000000000001E
:1002E00000000000000000000012111000000000DB
:1002F00000000000000000000000000000000000FE
:1003000000000000960F900F11241FBECFEFD1E226
:10031000DEBFCDBF00E00CBF12E0A0E0B2E0E2ED36
:10032000FFE200E00BBF02C007900D92A036B107BC
:10033000D9F726E0A0E6B2E001C01D92A435B207CD
:10034000E1F711E0C3E8D1E000E006C02197010920
:10035000802FFE010E948514C238D10780E0080773
:10036000A9F70E943F110C94D7170C940000FC01D0
:10037000A089B1898C91A689B78982FD0FC09C9113
:10038000818D8F5F8F73228D821749F0218DDF0160
:10039000A20FB11D5D969C93818F08958C91089555
:1003A000FC01538D448D252F30E0842F90E0821B7B
:1003B000930B541710F0CF96089501970895FC0100
:1003C000918D828D981761F0828DDF01A80FB11D8C
:1003D0005D968C91928D9F5F9F73928F90E00895B0
:1003E0008FEF9FEF0895FC01918D828D981731F06A
:1003F000828DE80FF11D858D90E008958FEF9FEFBE
:100400000895FC01918D228D892F90E0805C9F4F93
:10041000821B91098F73992708958AE793E00E94C0
:10042000010221E0892B09F420E0822F089587E161
:1004300094E00E94010221E0892B09F420E0822F40
:100440000895E0E0F0E0199480E090E0892B21F03D
:100450000E941702811119C080E090E0892B41F0C1
:1004600080E090E0892B21F00E940000811110C0F3
:100470000E940D0281110FC080E090E0892B81F075
:100480000E94BA0D81110AC008950E940000E4CFB5
:100490000E940000EDCF0E942102EECF0C940000DC
:1004A00008958EBD00000DB407FEFDCF8EB50895F2
:1004B000089580E090E00895CF92DF92EF92FF924E
:1004C0000F931F93CF93DF936C018B017A01EC01A3
:1004D000C758DD4F888187FF04C0FB01118210825D
:1004E00024C08CE08C9D90018D9D300D112488815D
:1004F000A901480F511D87FD5A958091440590E050
:100500004817590794F48881A901480F511D87FDA8
:100510005A95CA01FA01EE0FFF1F8E0F9F1FFC01B3
:10052000EC54FB4F808186FD19C088818F5F8883E2
:100530008CE08C9D90018D9D300D11248881A90146
:10054000480F511D87FD5A958091440590E048174A
:100550005907BCF488818C3044F113C08881280F7E
:10056000311D87FD3A95F901EE0FFF1F2E0F3F1F3A
:10057000F901EC54FB4F808160E08F730E94C40D41
:10058000D4CFF80180819181049680349C4918F47D
:1005900080E49CE904C0F801808191810496F70110
:1005A000918380838FEF888345C0F801408151811A
:1005B0008881B901680F711D87FD7A95CB01FB0118
:1005C000EE0FFF1F8E0F9F1FFC01EC54FB4F81812C
:1005D0009281840F951FF701918380838881A901FF
:1005E000480F511D87FD5A95CA01FA01EE0FFF1FF2
:1005F0008E0F9F1FFC01EC54FB4F808186FF1AC0B9
:100600008881280F311D87FD3A95F901EE0FFF1FF4
:100610002E0F3F1FF901EC54FB4F808161E08F7377
:10062000DF91CF911F910F91FF90EF90DF90CF90CE
:100630000C94C40DDF91CF911F910F91FF90EF901B
:10064000DF90CF900895FC01248131E03093AD021A
:100650002093CF021092AE021092D0028485682BB4
:1006600081ED92E00E94890D0C9490090F931F93E5
:10067000CF938C01C62F64600E9423036C2F6B7F85
:10068000C8010E94230383EC90E00197F1F7CF911A
:100690001F910F9108950F931F93CF93DF938C01B8
:1006A000C62FD62FD07FD1606D2F0E9423036D2FD0
:1006B000C8010E94360380E1C89FB0011124C62FF3
:1006C000C1606C2FC8010E9423036C2FC8010E94D7
:1006D000360381E090E0DF91CF911F910F91089553
:1006E0001F920F920FB60F9211240BB60F922F93F9
:1006F0003F934F935F936F937F938F939F93AF93AA
:10070000BF93EF93FF938DED92E00E94B701FF91AD
:10071000EF91BF91AF919F918F917F916F915F9179
:100720004F913F912F910F900BBE0F900FBE0F90E6
:100730001F9018951F920F920FB60F9211240BB6AF
:100740000F922F933F934F935F936F937F938F936A
:100750009F93AF93BF93EF93FF938AE793E00E9439
:10076000B701FF91EF91BF91AF919F918F917F91D1
:100770006F915F914F913F912F910F900BBE0F9012
:100780000FBE0F901F9018951F920F920FB60F92E9
:1007900011240BB60F922F933F934F935F936F9358
:1007A0007F938F939F93AF93BF93EF93FF9387E1D3
:1007B00094E00E94B701FF91EF91BF91AF919F919B
:1007C0008F917F916F915F914F913F912F910F90FA
:1007D0000BBE0F900FBE0F901F901895FC01848DDB
:1007E000DF01A80FB11DA35ABF4F2C91848D90E05B
:1007F00001968F739927848FA689B7892C93A08936
:10080000B1898C9180648C93938D848D981306C0EC
:100810000288F389E02D80818F7D808308951F9267
:100820000F920FB60F9211240BB60F922F933F9396
:100830004F935F936F937F938F939F93AF93BF93E8
:10084000EF93FF938AE793E00E94EE03FF91EF910D
:10085000BF91AF919F918F917F916F915F914F91D8
:100860003F912F910F900BBE0F900FBE0F901F90D6
:1008700018951F920F920FB60F9211240BB60F927C
:100880002F933F934F935F936F937F938F939F9398
:10089000AF93BF93EF93FF9387E194E00E94EE0341
:1008A000FF91EF91BF91AF919F918F917F916F9148
:1008B0005F914F913F912F910F900BBE0F900FBE04
:1008C0000F901F901895EF92FF920F931F93CF9365
:1008D000DF93EC0181E0888F9B8D8C8D981305C090
:1008E000E889F989808185FD24C0F62E0B8D10E002
:1008F0000F5F1F4F0F731127E02E8C8DE8120CC075
:100900000FB607FCFACFE889F989808185FFF5CF1A
:10091000CE010E94EE03F1CF8B8DFE01E80FF11D99
:10092000E35AFF4FF0820B8FEA89FB898081806256
:1009300007C0EE89FF896083E889F9898081806436
:10094000808381E090E0DF91CF911F910F91FF9024
:10095000EF900895CF93DF93EC01888D8823C9F041
:10096000EA89FB89808185FD05C0A889B9898C91B8
:1009700086FD0FC00FB607FCF5CF808185FFF2CF53
:10098000A889B9898C9185FFEDCFCE010E94EE0335
:10099000E7CFDF91CF9108958F929F92AF92BF9250
:1009A000CF92DF92EF92FF920F931F93CF93DF933B
:1009B000EC016A017B0120E030E04FE753E4C7011E
:1009C000B6010E94A5134B015C0120E030E0A901B3
:1009D0000E94A21518161CF4C501B40103C0C5017C
:1009E000B40190580E946C158B0120E030E0A90101
:1009F000C701B6010E94A215181614F460E001C0E8
:100A000061E089810E94C40D0F3F110509F014F4C3
:100A1000112702C00FEF10E0C88161E08C2F0E9407
:100A2000410E0115110509F4B1C00F3F110509F47C
:100A3000AFC0EC2FF0E0E354FD4FE4914E2F50E0B7
:100A4000FA013197E231F10508F09DC08827EE5890
:100A5000FF4F8F4F0C94851484B5806884BD07BD0B
:100A6000A7C084B5806284BD08BDA2C0809180000B
:100A7000806880938000109389000093880098C05C
:100A80008091800080628093800010938B0000939F
:100A90008A008EC0809180008860809380001093CF
:100AA0008D0000938C0084C08091B000806880939A
:100AB000B0000093B3007CC08091B000806280934E
:100AC000B0000093B40074C080919000806880935F
:100AD000900010939900009398006AC08091900054
:100AE00080628093900010939B0000939A0060C0F6
:100AF0008091900088608093900010939D000093F7
:100B00009C0056C08091A00080688093A0008091D6
:100B1000A0008F7B8093A0001093A9000093A800F1
:100B200047C08091A00080628093A0001093AB002A
:100B30000093AA003DC08091A00088608093A0002F
:100B40001093AD000093AC0033C080912001806809
:100B500080932001109329010093280129C08091DE
:100B6000200180628093200110932B0100932A01C1
:100B70001FC08091200188608093200110932D0177
:100B800000932C0115C00038110514F460E001C079
:100B900061E08C2FDF91CF911F910F91FF90EF902B
:100BA000DF90CF90BF90AF909F908F900C94C40D2A
:100BB000DF91CF911F910F91FF90EF90DF90CF9039
:100BC000BF90AF909F908F900895CF93DF93EC01EB
:100BD00060E088810E94C40D88E90E94510280E093
:100BE0000E94510280E00E94510280E00E94510266
:100BF00080E00E94510261E088810E94C40D8BE870
:100C000091E00197F1F760E088810E94C40D80EEC9
:100C10000E94510261E08881DF91CF910C94C40D54
:100C2000AF92BF92CF92DF92EF92FF920F931F93FA
:100C3000CF93DF93CDB7DEB760970FB6F894DEBFE2
:100C40000FBECDBF5C0160E0FC0180810E94C40D3D
:100C500080E60E9451028E010F5F1F4F7E01F1E17D
:100C6000EF0EF11C680180E00E94510290E0A0E0CC
:100C7000B0E0F60181939193A193B1936F01EE15CA
:100C8000FF0589F761E0F50180810E94C40D80E0D5
:100C900090E0DC01F80141915191619171918F01D6
:100CA000BA2FA92F982F8827840F951FA61FB71F2B
:100CB000EE15FF0579F79C01AD0166277727CB017B
:100CC000621B730B840B950B60960FB6F894DEBF16
:100CD0000FBECDBFDF91CF911F910F91FF90EF908D
:100CE000DF90CF90BF90AF9008950F931F93CF9355
:100CF000DF93EC01862F6883498361E00E94410EF7
:100D000060E089810E94410E61E088810E94C40DEB
:100D10001FB7F89480917D02811127C0E6E6F2E0CA
:100D20009491ECEAF2E08491E92FF0E0EE0FFF1FDE
:100D3000E350FE4FA591B491EC91E82321F461E0DA
:100D400085E30E94C40D61E085E30E94410E8CB5ED
:100D500080618CBD8CB580648CBD61E084E30E94B1
:100D6000410E61E083E30E94410E80917D028F5F1E
:100D700080937D021FBF0BEC17E0C8010197F1F7CC
:100D800060E088810E94C40D88E80E94510283E0DF
:100D90000E94510261E088810E94C40DC801019740
:100DA000F1F7CE01DF91CF911F910F910C94E505E2
:100DB0001F920F920FB60F9211240BB60F922F9322
:100DC0003F934F935F936F937F938F939F93AF93D3
:100DD000BF93EF93FF9348E251E064E271E080E05B
:100DE00090E00E945C02FF91EF91BF91AF919F91C3
:100DF0008F917F916F915F914F913F912F910F90C4
:100E00000BBE0F900FBE0F901F9018951F920F9260
:100E10000FB60F9211240BB60F922F933F934F935F
:100E20005F936F937F938F939F93AF93BF93EF9352
:100E3000FF9348EA50E064EA70E083E090E00E94AB
:100E40005C02FF91EF91BF91AF919F918F917F9144
:100E50006F915F914F913F912F910F900BBE0F902B
:100E60000FBE0F901F9018951F920F920FB60F9202
:100E700011240BB60F922F933F934F935F936F9371
:100E80007F938F939F93AF93BF93EF93FF9348E923
:100E900050E064E970E082E090E00E945C02FF9123
:100EA000EF91BF91AF919F918F917F916F915F91E2
:100EB0004F913F912F910F900BBE0F900FBE0F904F
:100EC0001F9018951F920F920FB60F9211240BB618
:100ED0000F922F933F934F935F936F937F938F93D3
:100EE0009F93AF93BF93EF93FF9348E850E064E87C
:100EF00070E081E090E00E945C02FF91EF91BF9171
:100F0000AF919F918F917F916F915F914F913F91A1
:100F10002F910F900BBE0F900FBE0F901F90189542
:100F20004F925F926F927F928F929F92AF92BF92F9
:100F3000CF92DF92EF92FF92CF93DF93BC01990F94
:100F4000880B990B0E9446132DED38E444E053E4DE
:100F50000E94A5130E946C15EB0184EA92E00E94A6
:100F6000E50586EA92E00E94E5054AE959E969E16A
:100F70007FE380EA92E00E94CC044AE959E969E102
:100F80007FEB82EA92E00E94CC04812C912C80E8D5
:100F9000A82E8EE3B82E9DEC492E9CEC592E9CE495
:100FA000692E9DE3792E84EA92E00E9410069B014F
:100FB000AC0188279927DC01821B930BA40BB50B8E
:100FC00090933B0680933A0686EA92E00E941006D0
:100FD000AB017093A9026093A80220913A06309168
:100FE0003B06C901861B970BBC01675F7F4F6331CE
:100FF000710548F440920002509201026092020290
:10100000709203021AC08D599F4F873C910548F496
:101010008092000290920102A0920202B09203021A
:101020000CC080E090E0A0E0BFE3809300029093CA
:101030000102A0930202B0930302421753072CF55A
:10104000C0900002D0900102E0900202F0900302F2
:10105000A701960160E070E080E89FE30E948D1494
:101060002AE939E949E15FE30E94A513AB01BC011C
:1010700080EA92E00E94CC0420E030E040E85FE3A8
:10108000C701B6010E948E1427C02417350774F5D6
:10109000C0900002D0900102E0900202F0900302A2
:1010A00020E030E040E85FE3C701B6010E948E1403
:1010B0002AE939E949E15FE30E94A513AB01BC01CC
:1010C00080EA92E00E94CC04A701960160E070E003
:1010D00080E89FE30E948D142AE939E949E15FE342
:1010E0000E94A513AB01BC0170580CC04AE959E934
:1010F00069E17FE380EA92E00E94CC044AE959E981
:1011000069E17FEB82EA92E00E94CC04C0903A064B
:10111000D0903B060D2C000CEE08FF08F7FE0CC02B
:101120008DE20E94340A66277727CB016C197D096E
:101130008E099F094AE003C04AE0C701B6010E9438
:101140003F0A83E492E00E94560980913A0690910A
:101150003B068C179D0744F48091A8029091A90248
:101160008C179D070CF41FCF86E492E00E9456096D
:1011700040E050E0BA0180EA92E00E94CC0440E0F6
:1011800050E060E070E882EA92E0DF91CF91FF905A
:10119000EF90DF90CF90BF90AF909F908F907F9017
:1011A0006F905F904F900C94CC048F929F92AF926F
:1011B000BF92CF92DF92EF92FF926B017C0184EAA3
:1011C00092E00E94E50586EA92E00E94E5054DEC7A
:1011D0005CEC6CE47EE380EA92E00E94CC0440E0A8
:1011E00050E060E070E882EA92E00E94CC0484EA79
:1011F00092E00E9410069B01AC0188279927DC0130
:10120000821B930BA40BB50B90933B0680933A067D
:10121000BC01990F880B990B0E9446134B015C018E
:1012200020E030E04AE755E4C701B6010E94A5136B
:1012300020E030E044EB52E40E94FA149B01AC0140
:10124000C501B4010E943F1387FDD1CF40E050E0BB
:10125000BA0180EA92E00E94CC0440E050E060E0F5
:1012600070E882EA92E0FF90EF90DF90CF90BF901D
:10127000AF909F908F900C94CC0485ED8093BC0030
:101280008091BC0084FDFCCF1092AC0208950895BB
:1012900081E090E030919F0220919E02321710F47D
:1012A00080E090E09195819591090895009769F00B
:1012B000FC0101900020E9F73197AF01481B590B61
:1012C000BC0187E194E00C942E0D80E090E008953D
:1012D000E7E1F4E0A089B18982E08C93A485B5852B
:1012E0001C92A685B7858FEC8C93108EA489B58946
:1012F00086E08C93A289B3898C9180618C93A289BA
:10130000B3898C9188608C93A289B3898C91806811
:101310008C930288F389E02D80818F7D80830895EE
:101320002091D0029091CF02213208F04AC08091E2
:10133000AC028111FCCF32E03093AC0231E030934B
:10134000AB023FEF309339061092380620933706F0
:10135000AFEAB2E047E156E0FA013E2F341B321704
:1013600018F43D913193F9CF10921606209116068C
:10137000990F922B909316069091AA02913061F4E6
:101380001092AA02909116069093BB009091BC0017
:1013900093FDF8CF95EC01C095EE9093BC00909131
:1013A000AC029230E1F3909139069F3F79F0809141
:1013B0003906803241F080913906803331F084E083
:1013C00005C081E003C082E001C083E01092AE025C
:1013D0001092D0021092AD020895EF92FF921F93E7
:1013E000CF93DF931F92CDB7DEB7162F90EBE92E88
:1013F00095E0F92ED7011C969C911C9721E0209333
:10140000AD029093CF021092AE021092D0021A96C3
:101410000D90BC91A02DED91FC9111970190F08160
:10142000E02D682FCD0179831995F7018285938589
:10143000DC01ED91FC910190F081E02D7981672F25
:101440001995F70182859385DC01ED91FC9101905E
:10145000F081E02D612F19950F90DF91CF911F91B1
:10146000FF90EF900C949009E0911704F09118040C
:101470000190F081E02D682F87E194E019948F921C
:101480009F92AF92BF920F931F93CF93DF93CDB7ED
:10149000DEB7A1970FB6F894DEBF0FBECDBF19A27D
:1014A000423008F44AE08E010F5D1F4F842E912CCC
:1014B000A12CB12CA50194010E946314E62FB9015F
:1014C000CA0101501109EA3014F4E05D01C0E95C81
:1014D000D801EC93232B242B252B61F7C8010E9404
:1014E0005609A1960FB6F894DEBF0FBECDBFDF91AF
:1014F000CF911F910F91BF90AF909F908F900895C3
:101500004F925F926F927F928F929F92AF92BF9213
:10151000CF92DF92EF92FF926B017C019B01AC01B5
:101520000E94A715882319F083E592E01AC04601AE
:101530005701E894B7F82FEF3FEF4FE75FE7C5019A
:10154000B4010E94A715811110C02FEF3FEF4FE7A4
:101550005FE7C501B4010E943F13181634F487E514
:1015600092E00E9456097C017FC02FEF3FEF4FE7CA
:101570005FE4C701B6010E94A21518161CF48BE5A2
:1015800092E0EFCF2FEF3FEF4FE75FECC701B601DF
:101590000E943F1387FDF3CF20E030E0A901C7018F
:1015A000B6010E943F1387FF09C08DE20E94340AF2
:1015B0005C01F7FAF094F7F8F09402C0A12CB12C7A
:1015C0002AE037ED43EA5BE3C701B6010E948E14BF
:1015D0002B013C010E9473156B017C010E94441396
:1015E0009B01AC01C301B2010E948D142B013C018F
:1015F0004AE0C701B6010E943F0A7C01EA0CFB1CCD
:101600008EE20E94340AE80EF91E20E030E040E24B
:1016100051E4C301B2010E94A5132B013C010E94B9
:1016200073154B01A12CB12C4AE0C501B4010E94F5
:101630003F0AE80EF91EC501B4010E9444139B0144
:10164000AC01C301B2010E948D1420E030E040E201
:1016500051E40E94A5130E94731580E090E04AE0D7
:101660000E943F0AE80EF91E83E492E00E945609A8
:101670008E0D9F1DFF90EF90DF90CF90BF90AF90A9
:101680009F908F907F906F905F904F90089584EA25
:1016900092E00E94E50586EA92E00E94E50540E0BE
:1016A00050E0BA0180EA92E00E94CC044DEC5CEC80
:1016B0006CE47EEB82EA92E00E94CC0486EA92E03F
:1016C0000E9410067093A9026093A802072E000CD6
:1016D000880B990B0E94461320E030E04AE755E45E
:1016E0000E943F1387FDEACF60E070E08AE795E44F
:1016F0000E94800A40E050E0BA0180EA92E00E9435
:10170000CC0440E050E060E070E882EA92E00C94A3
:10171000CC041F920F920FB60F9211240F900FBEA0
:101720000F901F9018951F920F920FB60F921124D1
:101730000BB60F922F933F934F935F936F937F93CB
:101740008F939F93AF93BF93EF93FF938091B900D3
:10175000887F803609F49CC068F5883209F45BC044
:1017600090F4803109F454C038F4882309F4F6C0A9
:10177000883009F44DC0F6C0883109F44CC080327D
:1017800009F45DC0EFC0803409F468C048F48033C8
:1017900009F455C0883309F0E5C080933906D8C0F4
:1017A000803509F44FC0883509F45DC0883409F0EC
:1017B000D9C0D6C0883909F4C7C0A8F4883709F45D
:1017C00067C038F4883609F463C0803709F460C014
:1017D000C9C0883809F4B8C0803909F45FC08038BE
:1017E00009F0C0C05BC0803B09F486C038F4803A81
:1017F00009F466C0883A09F47FC0B4C0803C09F49B
:10180000A7C0883C09F4A4C0883B09F48AC0AAC0D8
:101810008091160610C0909138068091370698176F
:1018200070F5E091380681E08E0F80933806F0E085
:10183000E95EF94F80818093BB0085EC86C0809380
:1018400039068EC0E091380681E08E0F809338060D
:101850008091BB00F0E0E95EF94F808390913806FB
:10186000809137066EC0E091380681E08E0F80933C
:1018700038068091BB00F0E0E95EF94F80838091EB
:10188000AB0281116DC081E08093AA0284EA61C03D
:1018900083E08093AC0210921306CFCF80911306A1
:1018A000803208F051C0E091130681E08E0F8093E2
:1018B00013068091BB00F0E0ED50FA4F8083BDCF5E
:1018C00085EC8093BC001092AC02809113068032AC
:1018D00030F4E0911306F0E0ED50FA4F1082609181
:1018E000130670E0E091F105F091F20583EF95E0C9
:1018F00019951092130636C084E08093AC021092C2
:10190000F0051092EF05E091ED05F091EE051995C7
:101910008091EF05811105C081E08093EF05109261
:10192000CD05E091F00581E08E0F8093F005F0E0A9
:10193000E353FA4F80818093BB009091F005809132
:10194000EF05981708F479CF85E88093BC000AC0AA
:1019500085EC8093BC001092AC0204C01092390652
:101960000E943D09FF91EF91BF91AF919F918F919F
:101970007F916F915F914F913F912F910F900BBE8F
:101980000F900FBE0F901F9018954091EF05262FD6
:1019900030E0240F311D21323105DCF42091AC02FE
:1019A0002430C9F4FC0180E090E0861758F43091AF
:1019B000EF052191DC01A353BA4FA30FB11D2C9366
:1019C0000196F3CF8091EF05680F6093EF0580E0FB
:1019D000089581E0089582E0089590919F0280919A
:1019E0009E02981750F4E92FF0E0E258FD4F208155
:1019F00030E09F5F90939F0202C02FEF3FEFC9013D
:101A0000089580919E0290E020919F02821B91098F
:101A100008953FB7F89480914C0690914D06A0919F
:101A20004E06B0914F0626B5A89B05C02F3F19F072
:101A30000196A11DB11D3FBFBA2FA92F982F88274E
:101A4000820F911DA11DB11DBC01CD0142E0660FA9
:101A5000771F881F991F4A95D1F70895CF92DF927B
:101A6000EF92FF920F931F93CF93DF936C017A0154
:101A70008B01C0E0D0E0CE15DF0589F0D8016D9173
:101A80008D01D601ED91FC910190F081E02DC60110
:101A90001995892B11F47E0102C02196ECCFC70164
:101AA000DF91CF911F910F91FF90EF90DF90CF903A
:101AB0000895CF92DF92EF92FF920F931F93CF93EF
:101AC000DF937C01262F972F8A018091AD02882316
:101AD00091F0C62FD72F6E01C40ED51ECC15DD0593
:101AE00071F06991D701ED91FC910190F081E02DA9
:101AF000C7011995F3CF642F822F0E94C50CC8012E
:101B0000DF91CF911F910F91FF90EF90DF90CF90D9
:101B10000895CF93DF931F92CDB7DEB769832091ED
:101B2000AD022223D1F02091D002203240F021E0FA
:101B300030E0FC013383228380E090E015C0809187
:101B4000AE02E82FF0E0E155FD4F998190838F5F61
:101B50008093AE028093D00205C061E0CE01019671
:101B60000E94C50C81E090E00F90DF91CF91089525
:101B70000E94C2178DED92E00E94010221E0892BA4
:101B800009F420E0822F0895362F90E0FC01E35401
:101B9000FD4F4491FC01E958FD4F2491FC01EF5C9D
:101BA000FD4F9491992309F46BC0442309F455C067
:101BB00050E0FA013197E231F10508F04EC0882774
:101BC000EC57FF4F8F4F0C948514809180008F77D6
:101BD00007C0809180008F7D03C080918000877F47
:101BE000809380003AC084B58F7702C084B58F7D22
:101BF00084BD33C08091B0008F7703C08091B00066
:101C00008F7D8093B00029C0809190008F7707C0AE
:101C1000809190008F7D03C080919000877F80939A
:101C200090001BC08091A0008F7707C08091A0001A
:101C30008F7D03C08091A000877F8093A0000DC09E
:101C4000809120018F7707C0809120018F7D03C094
:101C500080912001877F80932001E92FF0E0EE0F33
:101C6000FF1FE95EFD4FA591B4918FB7F894EC91F9
:101C7000311103C020952E2301C02E2B2C938FBF32
:101C80000895CF93DF9390E0FC01E958FD4F249134
:101C9000FC01EF5CFD4F8491882361F190E0880F97
:101CA000991FFC01E350FE4FC591D491FC01E95E00
:101CB000FD4FA591B491611109C09FB7F894888137
:101CC000209582238883EC912E230BC0623061F42F
:101CD0009FB7F8943881822F809583238883EC9175
:101CE0002E2B2C939FBF06C08FB7F894E8812E2B24
:101CF00028838FBFDF91CF9108951F920F920FB667
:101D00000F9211242F933F938F939F93AF93BF9381
:101D10008091480690914906A0914A06B0914B06E1
:101D20003091470623E0230F2D3720F40196A11DA3
:101D3000B11D05C026E8230F0296A11DB11D2093F9
:101D400047068093480690934906A0934A06B093AD
:101D50004B0680914C0690914D06A0914E06B09195
:101D60004F060196A11DB11D80934C0690934D0620
:101D7000A0934E06B0934F06BF91AF919F918F9164
:101D80003F912F910F900FBE0F901F9018951F92AB
:101D90000F920FB60F9211240BB60F922F933F9311
:101DA0004F935F936F937F938F939F93AF93BF9363
:101DB000EF93FF9380913F0690914006A0914106DA
:101DC000B0914206892B8A2B8B2B59F180913E06CC
:101DD000E0913C06F0913D069081892780838091B7
:101DE0003F0690914006A0914106B0914206181618
:101DF00019061A061B060CF056C080913F069091FA
:101E00004006A0914106B09142060197A109B1098F
:101E100080933F0690934006A0934106B0934206FC
:101E200042C080910402ECEFF1E0E4919FEF9093C7
:101E30000402E230C9F050F4EE2399F0E13081F56C
:101E400090916F009D7F90936F002AC0E43019F14C
:101E5000E0F0E53029F5909173009D7F9093730039
:101E60001FC010926E001CC0909170009D7F9093D7
:101E7000700091E09093B0009091B100987F9460D1
:101E80009093B1001092B3000BC0909171009D7FB0
:101E90009093710005C0909172009D7F90937200A5
:101EA00060E00E94C40DFF91EF91BF91AF919F91AF
:101EB0008F917F916F915F914F913F912F910F90F3
:101EC0000BBE0F900FBE0F901F9018951F920F9290
:101ED0000FB60F9211240BB60F922F933F934F938F
:101EE0005F936F937F938F939F93AF93BF93EF9382
:101EF000FF938DED92E00E94EE03FF91EF91BF9171
:101F0000AF919F918F917F916F915F914F913F9191
:101F10002F910F900BBE0F900FBE0F901F90189532
:101F200080914505909146050C9441161092D4027B
:101F30001092D30288EE93E0A0E0B0E08093D50247
:101F40009093D602A093D702B093D80227E132E053
:101F50003093D2022093D1021092E0021092DF025D
:101F60008093E1029093E202A093E302B093E40233
:101F700029E232E03093DE022093DD0245E351E0B6
:101F80005093EA024093E90244E351E05093EC029B
:101F90004093EB0240E351E05093EE024093ED0298
:101FA00041E351E05093F0024093EF0242E351E0ED
:101FB0005093F2024093F10246E351E05093F40251
:101FC0004093F3021092F6021092F7021092F80278
:101FD0001092F90210927D0310927C0380937E038D
:101FE00090937F03A0938003B093810330937B038E
:101FF00020937A0345ED50E0509387034093860386
:1020000044ED50E0509389034093880340ED50E045
:1020100050938B0340938A0341ED50E050938D031E
:1020200040938C0342ED50E050938F0340938E0316
:1020300046ED50E050939103409390031092930328
:1020400010929403109295031092960310921A0422
:102050001092190480931B0490931C04A0931D04F8
:10206000B0931E04309318042093170485EC90E07D
:10207000909324048093230484EC90E090932604AE
:102080008093250480EC90E09093280480932704AB
:1020900081EC90E090932A048093290482EC90E0F4
:1020A00090932C0480932B0486EC90E090932E0464
:1020B00080932D0410923004109231041092320457
:1020C000109233048DE090E00E94AC15FC01138265
:1020D00012828BE392E091838083118687E284836E
:1020E00084E1828784E083871486F093CA05E093B5
:1020F000C9051092CB051092CC058CE08093B005F9
:1021000084E28093B1058BE18093B2058DE18093E9
:10211000B3058AE18093B4058CE18093B50586E32D
:102120008093B60587E38093B70588E38093B8056D
:1021300089E38093B90580E48093BC051092C105C2
:102140001092C2051092C3051092C4051092C505E5
:102150001092C6051092C7051092C80580914405DB
:10216000803320F09FEF9093AA0511C08093AA05B9
:10217000282F30E0F901EE0FFF1F2E0F3F1FF9014E
:10218000EC54FB4F28EB3BE0328321838F5F80339D
:1021900090F48093AD05282F30E0F901EE0FFF1F7A
:1021A0002E0F3F1FF901EC54FB4F28EB3BE032832D
:1021B00021838F5F03C09FEF9093AD05809344050B
:1021C000EBE4F5E08FEF9FEFDC01128213821482C3
:1021D0001582168217821086118683879487A587B9
:1021E000B6878787908BA18BB28B12861182108263
:1021F000739625E0EA3AF20741F7109246051092ED
:102200004505109248051092470510924A05109214
:10221000490561E070E080E090E00E94D9160097E7
:1022200089F09093460580934505109248051092D9
:1022300047052091490530914A05232BC1F4FC0143
:10224000108215C08091450590914605009711F0C8
:102250000E944116109246051092450510924A05BB
:102260001092490510924805109247050895109262
:102270004A051092490565E472E00C94D0177894F1
:1022800084B5826084BD84B5816084BD85B582607B
:1022900085BD85B5816085BD80916E00816080932C
:1022A0006E00109281008091810082608093810095
:1022B00080918100816080938100809180008160A5
:1022C000809380008091B10084608093B100809100
:1022D000B00081608093B000809191008260809313
:1022E0009100809191008160809391008091900095
:1022F0008160809390008091A10082608093A10012
:102300008091A10081608093A1008091A0008160F4
:102310008093A000809121018260809321018091AF
:10232000210181608093210180912001816080934F
:10233000200180917A00846080937A0080917A00F5
:10234000826080937A0080917A00816080937A0025
:1023500080917A00806880937A001092C1000E9478
:10236000680986E08093A0028FE18093A10261E07A
:1023700086E00E94410E61E08091A1020E94410E20
:1023800085E08093A2028EE18093A30261E085E064
:102390000E94410E61E08091A3020E94410E45E43B
:1023A00063E284EA92E00E94750644E462E286EA0F
:1023B00092E00E94750686E18093430687E1809350
:1023C000440660E086E10E94410E61E0809144068F
:1023D0000E94410E60E0809144060E94C40D88E195
:1023E0008093450689E18093460660E088E10E947B
:1023F000410E61E0809146060E94410E60E08091AE
:1024000046060E94C40D61E08091B1050E94410E14
:1024100060E08091B1050E94C40D60E08091B0053C
:102420000E94410E81ED92E09093BB058093BA0526
:1024300010929F0210929E021092AE021092D00251
:102440001092AC0281E08093AB021092AA0261E08C
:1024500084E10E94C40D61E085E10E94C40D809179
:10246000B9008E7F8093B9008091B9008D7F8093F1
:10247000B90088E48093B80085E48093BC0080E0D4
:1024800090E1A0E0B0E08093BD059093BE05A093DD
:10249000BF05B093C0058AE090E0A0E0B0E0809373
:1024A000C1059093C205A093C305B093C40582E013
:1024B00090E0A0E0B0E08093C5059093C605A0939E
:1024C000C705B093C80560E070E185E00E94ED09A2
:1024D0006FE979E380E00E94ED09C2EBD5E01C2FA3
:1024E0001C5F60E089910E94410E1C13FACF84EAC0
:1024F00092E00E94E50586EA92E00E94E5050E94CE
:10250000680988EC90E00E9490070E94470B88E2DF
:1025100090E00E94900760E070E084EB92E40E94FB
:10252000D5088EE190E00E94900760E070E084EBB7
:1025300092E40E94D5088EE190E00E9490070E94EC
:10254000470B88E090E00E94900760E070E08CE02C
:1025500092E40E94D50882E390E00E9490070E94D6
:10256000470B8DE290E00E94900760E070E084E30A
:1025700092E40E94D50882E390E00E94900760E018
:1025800070E080E991E40E94D50882E390E00E9427
:10259000900784EA92E00E94E50586EA92E00E94B4
:1025A000E5054DEC5CEC6CE47EEB80EA92E00E9489
:1025B000CC044DEC5CEC6CE47EEB82EA92E00E9491
:1025C000CC0486EA92E00E9410067093A902609300
:1025D000A80284EA92E00E9410069B01AC018827C1
:1025E0009927DC01821B930BA40BB50B90933B0640
:1025F00080933A068091A8029091A902803A9F4068
:1026000004F36CE177EC81E392E40E94800A40E0FD
:1026100050E0BA0180EA92E00E94CC0440E050E031
:1026200060E070E882EA92E00E94CC040E94090D0A
:102630004B015C018AE0C82ED12CE12CF12C0E94C8
:10264000090DDC01CB0188199909AA09BB09883E4B
:102650009340A105B10558F041E0C41AD108E10842
:10266000F10858EE850E53E0951EA11CB11CC11453
:10267000D104E104F10419F70E942402D7CF0E948B
:10268000811308F481E00895E89409C097FB3EF4B3
:1026900090958095709561957F4F8F4F9F4F9923AF
:1026A000A9F0F92F96E9BB279395F695879577952D
:1026B0006795B795F111F8CFFAF4BB0F11F460FFED
:1026C0001BC06F5F7F4F8F4F9F4F16C0882311F045
:1026D00096E911C0772321F09EE8872F762F05C059
:1026E000662371F096E8862F70E060E02AF09A95F4
:1026F000660F771F881FDAF7880F9695879597F9E9
:102700000895990F0008550FAA0BE0E8FEEF161682
:102710001706E807F907C0F012161306E407F507D5
:1027200098F0621B730B840B950B39F40A2661F049
:10273000232B242B252B21F408950A2609F4A140EC
:10274000A6958FEF811D811D08950E94B8130C94EA
:1027500029140E941B1438F00E94221420F09523A3
:1027600011F00C9412140C94181411240C945D1490
:102770000E943A1470F3959FC1F3950F50E0551FD6
:10278000629FF001729FBB27F00DB11D639FAA27C6
:10279000F00DB11DAA1F649F6627B00DA11D661F15
:1027A000829F2227B00DA11D621F739FB00DA11D36
:1027B000621F839FA00D611D221F749F3327A00DF0
:1027C000611D231F849F600D211D822F762F6A2F8C
:1027D00011249F5750409AF0F1F088234AF0EE0FF1
:1027E000FF1FBB1F661F771F881F91505040A9F71E
:1027F0009E3F510580F00C9412140C945D145F3FC1
:10280000E4F3983ED4F3869577956795B795F79559
:10281000E7959F5FC1F7FE2B880F911D96958795D1
:1028200097F9089597F99F6780E870E060E0089550
:102830009FEF80EC089500240A94161617061806D8
:102840000906089500240A941216130614060506B4
:102850000895092E0394000C11F4882352F0BB0F45
:1028600040F4BF2B11F460FF04C06F5F7F4F8F4FA8
:102870009F4F089557FD9058440F551F59F05F3FE3
:1028800071F04795880F97FB991F61F09F3F79F092
:1028900087950895121613061406551FF2CF469514
:1028A000F1DF08C0161617061806991FF1CF869596
:1028B0007105610508940895E894BB27662777277A
:1028C000CB0197F90895A1E21A2EAA1BBB1BFD01AB
:1028D0000DC0AA1FBB1FEE1FFF1FA217B307E407FF
:1028E000F50720F0A21BB30BE40BF50B661F771F57
:1028F000881F991F1A9469F7609570958095909537
:102900009B01AC01BD01CF010895EE0FFF1F881F91
:102910008BBF0790F691E02D19945058BB27AA273A
:102920000E94A5140C9429140E941B1438F00E94D4
:10293000221420F039F49F3F19F426F40C94181453
:102940000EF4E095E7FB0C941214E92F0E943A1460
:1029500058F3BA17620773078407950720F079F4D4
:10296000A6F50C945C140EF4E0950B2EBA2FA02D56
:102970000B01B90190010C01CA01A0011124FF272C
:10298000591B99F0593F50F4503E68F11A16F04027
:10299000A22F232F342F4427585FF3CF4695379526
:1029A0002795A795F0405395C9F77EF41F16BA0BEB
:1029B000620B730B840BBAF09150A1F0FF0FBB1F99
:1029C000661F771F881FC2F70EC0BA0F621F731FE2
:1029D000841F48F4879577956795B795F7959E3F3F
:1029E00008F0B0CF9395880F08F09927EE0F9795D0
:1029F000879508950E940E150C9429140E942214A4
:102A000058F00E941B1440F029F45F3F29F00C9409
:102A1000121451110C945D140C9418140E943A1461
:102A200068F39923B1F3552391F3951B550BBB27FD
:102A3000AA2762177307840738F09F5F5F4F220F42
:102A4000331F441FAA1FA9F335D00E2E3AF0E0E839
:102A500032D091505040E695001CCAF72BD0FE2F83
:102A600029D0660F771F881FBB1F26173707480717
:102A7000AB07B0E809F0BB0B802DBF01FF279358CF
:102A80005F4F3AF09E3F510578F00C9412140C946D
:102A90005D145F3FE4F3983ED4F386957795679590
:102AA000B795F7959F5FC9F7880F911D9695879504
:102AB00097F90895E1E0660F771F881FBB1F621723
:102AC00073078407BA0720F0621B730B840BBA0BE1
:102AD000EE1F88F7E09508950E9473156894B11170
:102AE0000C945D1408950E94421488F09F5798F04A
:102AF000B92F9927B751B0F0E1F0660F771F881F03
:102B0000991F1AF0BA95C9F714C0B13091F00E941C
:102B10005C14B1E008950C945C14672F782F88271B
:102B2000B85F39F0B93FCCF3869577956795B39543
:102B3000D9F73EF490958095709561957F4F8F4FB2
:102B40009F4F08950E94811308F48FEF08950E940B
:102B50008113880B990B0895CF93DF9382309105F1
:102B600010F482E090E0E0915206F091530620E0EC
:102B700030E0C0E0D0E0309711F14081518148173A
:102B80005907C0F04817590761F482819381209753
:102B900019F09B838A832BC090935306809352062F
:102BA00026C02115310519F04217530718F49A0170
:102BB000BE01DF01EF010280F381E02DDCCF2115A2
:102BC000310509F1281B390B2430310590F4129698
:102BD0008D919C9113976115710521F0FB019383F1
:102BE000828304C09093530680935206FD0132966F
:102BF00044C0FD01E20FF31F8193919322503109EC
:102C00002D933C933AC02091500630915106232BCE
:102C100041F420910702309108023093510620932D
:102C2000500620910502309106022115310541F42C
:102C30002DB73EB74091090250910A02241B350B73
:102C4000E0915006F0915106E217F307A0F42E1B15
:102C50003F0B2817390778F0AC014E5F5F4F241700
:102C6000350748F04E0F5F1F5093510640935006B2
:102C70008193919302C0E0E0F0E0CF01DF91CF912A
:102C800008950F931F93CF93DF93009709F48CC09F
:102C9000FC01329713821282009152061091530662
:102CA0000115110581F420813181820F931F20913C
:102CB0005006309151062817390779F5F0935106DF
:102CC000E093500671C0D80140E050E0AE17BF0756
:102CD00050F412962D913C911397AD0121153105B9
:102CE00009F1D901F3CF9D01DA0133832283608199
:102CF0007181860F971F8217930769F4EC01288171
:102D00003981260F371F2E5F3F4F318320838A8101
:102D10009B8193838283452B29F4F0935306E093A0
:102D2000520642C01396FC93EE931297ED0149911F
:102D300059919E01240F351FE217F30771F480812A
:102D40009181840F951F029611969C938E93828198
:102D5000938113969C938E931297E0E0F0E0D80154
:102D600012968D919C911397009719F0F8018C01A0
:102D7000F6CF8D919C9198012E5F3F4F820F931F4C
:102D800020915006309151062817390769F4309781
:102D900029F4109253061092520602C01382128236
:102DA0001093510600935006DF91CF911F910F9120
:102DB00008956F927F928F929F92AF92BF92CF921F
:102DC000DF92EF92FF920F931F93CF93DF93EC016B
:102DD000009789F4CB01DF91CF911F910F91FF9064
:102DE000EF90DF90CF90BF90AF909F908F907F90AB
:102DF0006F900C94AC15FC01E60FF71F9C0122505C
:102E00003109E217F30708F4ACC0D9010D911C9108
:102E1000119706171707B0F00530110508F49FC089
:102E2000C80104978617970708F499C00250110942
:102E3000061B170B019311936D937C93CF010E9496
:102E400041168DC05B01A01AB10A4C01800E911E83
:102E5000A0915206B091530640E050E0E12CF12CD5
:102E6000109709F44AC0A815B905D1F56D907C906A
:102E70001197630182E0C80ED11CCA14DB0480F1F3
:102E8000A3014A195B096A0182E0C80ED11C12969F
:102E9000BC9012971396AC91B5E0CB16D10440F0DC
:102EA000B282A38351834083D9016D937C930AC07E
:102EB0000E5F1F4FC301800F911FF9019183808323
:102EC000EB2DFA2FE114F10431F0D7011396FC93A6
:102ED000EE93129744C0F0935306E09352063FC01E
:102EE0008D919C9111974817590708F4AC017D0109
:102EF00012960D90BC91A02DB3CF80915006909169
:102F0000510688159905E1F446175707C8F48091D2
:102F1000050290910602009741F48DB79EB740914B
:102F2000090250910A02841B950BE817F907C8F4AF
:102F3000F0935106E0935006F901718360830FC04E
:102F4000CB010E94AC157C01009759F0A801BE018D
:102F50000E94C717CE010E944116C70104C0CE01CE
:102F600002C080E090E0DF91CF911F910F91FF9020
:102F7000EF90DF90CF90BF90AF909F908F907F9019
:102F80006F90089581E090E0F8940C94D717FB01BE
:102F9000DC0102C001900D9241505040D8F70895D5
:102FA000FB01DC0101900D920020E1F7089511E092
:102FB000C3E8D1E000E006C0802FFE010E94851426
:102FC0002196011DC438D10780E00807A9F7F894BD
:022FD000FFCF31
:102FD200CDCC4C3DFF00005406200000007A45CDC8
:102FE200CC4C3E00000000890D590D5902470901E1
:102FF2000DED0C48090000000063042E0DD001AA5B
:10300200040102DF01F301000000004B032E0D5901
:103012000258020D0A0046494E49206176616E63EC
:103022006572006E616E00696E66006F7666000002
:00000001FF
