:100000000C9491010C94C2010C94C2010C94C20195
:100010000C94C2010C94C2010C94C2010C94C20154
:100020000C94C2010C94C1080C94C1080C94C10832
:100030000C94C2010C94BB040C94C2010C94C20138
:100040000C94C2010C943D070C94C2010C94C201A3
:100050000C94C2010C94C2010C94C2010C94180BB4
:100060000C94C2010C942C060C9402060C94C20150
:100070000C94C2010C94C2010C94C2010C94C201F4
:100080000C94C2010C94C2010C94C2010C94C201E4
:100090000C94C2010C94C2010C94C2010C94CB08C4
:1000A0000C94C2010C94C2010C94C2010C94C201C4
:1000B0000C94C2010C94C2010C94C2010C9456061B
:1000C0000C94C2010C94C2010C94C2010C94D8058A
:1000D0000C94AE050C94C2010C9484050C945A0542
:1000E0000C94C20188038D0392039C03A6031F0492
:1000F000B003B803C003CA03D403DE03ED03F70360
:100100001F0401040B041504180A1B0A0A0A0E0A2C
:10011000140A520A1F0A230A290A2D0A310A370A29
:100120003B0A3F0A520A450A490A4D0A0C94B80391
:100130000C941B0A0C9435080C941F040C94CA03ED
:100140000C940E0A0C94ED030C9439020C94230ABF
:100150000C943D080C9492030C940B040C94310AFB
:100160000C944D0A0C9417020C942B020C94080268
:100170000C94CB020C9409100C943F0A0C94290A9D
:100180000C9488030C946D080C94DE030C94A60365
:100190000C94C0030C943B0A0C9417080C94240391
:1001A0000C9496040C94370A0C94B0030C949C03A2
:1001B0000C9426080C942D0A0C94180A0C94F7033E
:1001C0000C9484020C94D4030C941F0A0C94010424
:1001D0000C94490A0C9403100C94450A0C942503C2
:1001E0000C9415040C94C4010C94140A0C94520A37
:1001F0000C948D030C9418080C940A0A000020003B
:100200002300260029002C002F00320000010000EE
:100210000301060109010200002100240027002A31
:10022000002D003000330001010000040107010A25
:100230000100002200250028002B002E0031003490
:100240000002010000050108010B01050505050775
:100250000508080808020202020A0A080804040441
:10026000040101010101010101030303030303036D
:1002700003040707070C0C0C0C0C0C0C0C020202FC
:100280000206060606060606060B0B0B0B0B0B0BEF
:100290000B0102102020080810204010204080028E
:1002A00001020108040201010204081020408080BC
:1002B0004020100804020180040201804020100840
:1002C0000402010804020101020408102040800118
:1002D0000204081020408000000A0B02090C0D0ED9
:1002E00008070304010000000000000000000000F7
:1002F00000000000000000000000000000000000FE
:1003000000000012111000000000000000000000BA
:1003100000000000000000000000000000000910C4
:10032000031011241FBECFEFD1E2DEBFCDBF00E02E
:100330000CBF12E0A0E0B2E0E4E3FDE200E00BBF9E
:1003400002C007900D92A236B107D9F727E0A2E6C6
:10035000B2E001C01D92A332B207E1F711E0C0E99B
:10036000D1E000E006C021970109802FFE010E9424
:100370003613CF38D10780E00807A9F70E94650D32
:100380000C9488160C940000CF92DF92EF92FF92AB
:100390000F931F93CF93DF936C017A018B01C0E021
:1003A000D0E0CE15DF0589F0D8016D918D01D60121
:1003B000ED91FC910190F081E02DC6011995892BFA
:1003C00011F47E0102C02196ECCFC701DF91CF91DD
:1003D0001F910F91FF90EF90DF90CF900895FC0157
:1003E000A089B1898C91A689B78982FD0FC09C91A3
:1003F000818D8F5F8F73228D821749F0218DDF01F0
:10040000A20FB11D5D969C93818F08958C910895E4
:10041000FC01538D448D252F30E0842F90E0821B0A
:10042000930B541710F0CF96089501970895FC018F
:10043000918D828D981761F0828DDF01A80FB11D1B
:100440005D968C91928D9F5F9F73928F90E008953F
:100450008FEF9FEF0895FC01918D828D981731F0F9
:10046000828DE80FF11D858D90E008958FEF9FEF4D
:100470000895FC01918D228D892F90E0805C9F4F23
:10048000821B91098F739927089589E393E00E9455
:10049000390221E0892B09F420E0822F089586EDAE
:1004A00093E00E94390221E0892B09F420E0822F99
:1004B000089583E794E00E94390221E0892B09F432
:1004C00020E0822F0895FC01848DDF01A80FB11D6B
:1004D000A35ABF4F2C91848D90E001968F7399277A
:1004E000848FA689B7892C93A089B1898C91806467
:1004F0008C93938D848D981306C00288F389E02D28
:1005000080818F7D80830895EF92FF920F931F93D8
:10051000CF93DF93EC0181E0888F9B8D8C8D9813B6
:1005200005C0E889F989808185FD24C0F62E0B8DF0
:1005300010E00F5F1F4F0F731127E02E8C8DE81214
:100540000CC00FB607FCFACFE889F989808185FFD6
:10055000F5CFCE010E946302F1CF8B8DFE01E80F33
:10056000F11DE35AFF4FF0820B8FEA89FB898081EE
:10057000806207C0EE89FF896083E889F9898081FC
:100580008064808381E090E0DF91CF911F910F9193
:10059000FF90EF900895CF93DF93EC01888D88232F
:1005A000C9F0EA89FB89808185FD05C0A889B989E0
:1005B0008C9186FD0FC00FB607FCF5CF808185FFBB
:1005C000F2CFA889B9898C9185FFEDCFCE010E9429
:1005D0006302E7CFDF91CF910895E0E0F0E0199456
:1005E00080E090E0892B21F00E945902811119C00E
:1005F00080E090E0892B41F080E090E0892B21F0B1
:100600000E940000811110C00E944F0281110FC092
:1006100080E090E0892B81F00E94450281110AC0A0
:1006200008950E940000E4CF0E940000EDCF0E94D8
:10063000ED02EECF0C94000008958EBD00000DB4C5
:1006400007FEFDCF8EB50895089580E090E00895EF
:100650008F929F92AF92BF92CF92DF92EF92FF92D2
:100660000F931F93CF93DF93EC016A017B0120E08E
:1006700030E04FE753E4C701B6010E944A124B0134
:100680005C0120E030E0A9010E94531418161CF40C
:10069000C501B40103C0C501B40190580E941D14E6
:1006A0008B0120E030E0A901C701B6010E9453147C
:1006B000181614F460E001C061E089810E94530AB9
:1006C0000F3F110509F014F4112702C00FEF10E0DD
:1006D000C88161E08C2F0E94830A0115110509F47D
:1006E000B1C00F3F110509F4AFC0EC2FF0E0E952A3
:1006F000FD4FE4914E2F50E0FA013197E231F105C0
:1007000008F09DC08827EE58FF4F8F4F0C9436138A
:1007100084B5806884BD07BDA7C084B5806284BDF0
:1007200008BDA2C0809180008068809380001093F3
:1007300089000093880098C0809180008062809337
:10074000800010938B0000938A008EC080918000FF
:1007500088608093800010938D0000938C0084C08B
:100760008091B00080688093B0000093B3007CC09B
:100770008091B00080628093B0000093B40074C098
:10078000809190008068809390001093990000936E
:1007900098006AC0809190008062809390001093CE
:1007A0009B0000939A0060C08091900088608093C5
:1007B000900010939D0000939C0056C08091A00073
:1007C00080688093A0008091A0008F7B8093A00020
:1007D0001093A9000093A80047C08091A0008062F8
:1007E0008093A0001093AB000093AA003DC08091BD
:1007F000A00088608093A0001093AD000093AC002F
:1008000033C08091200180688093200110932901DA
:100810000093280129C080912001806280932001EB
:1008200010932B0100932A011FC080912001886042
:100830008093200110932D0100932C0115C00038E6
:10084000110514F460E001C061E08C2FDF91CF91BD
:100850001F910F91FF90EF90DF90CF90BF90AF90DE
:100860009F908F900C94530ADF91CF911F910F911D
:10087000FF90EF90DF90CF90BF90AF909F908F90C0
:100880000895CF93DF93EC0160E088810E94530AC2
:1008900088E90E941D0380E00E941D0380E00E9401
:1008A0001D0380E00E941D0380E00E941D0361E0A3
:1008B00088810E94530A8BE891E00197F1F760E08C
:1008C00088810E94530A80EE0E941D0361E08881A6
:1008D000DF91CF910C94530A0E947316FC0124817E
:1008E00031E03093090320932B0310920A031092F6
:1008F0002C038485682B8DE293E00E946D080C9494
:10090000DD0B0F931F93CF938C01C62F64600E9461
:100910006E046C2F6B7FC8010E946E0483EC90E024
:100920000197F1F7CF911F910F9108950F931F93A6
:10093000CF93DF938C01C62FD62FD07FD1606D2F40
:100940000E946E046D2FC8010E94810480E1C89F3F
:10095000B0011124C62FC1606C2FC8010E946E0423
:100960006C2FC8010E94810481E090E0DF91CF915B
:100970001F910F9108951F920F920FB60F9211249D
:100980000BB60F922F933F934F935F936F937F9389
:100990008F939F93AF93BF93EF93FF9380917F02C9
:1009A00090918002A0918102B0918202892B8A2BC2
:1009B0008B2B59F180917E02E0917C02F0917D02B7
:1009C00090818927808380917F0290918002A091FD
:1009D0008102B0918202181619061A061B060CF045
:1009E00056C080917F0290918002A0918102B091C7
:1009F00082020197A109B10980937F02909380023E
:100A0000A0938102B093820242C080910002E6E18D
:100A1000F2E0E4919FEF90930002E230C9F050F4CD
:100A2000EE2399F0E13081F590916F009D7F9093D6
:100A30006F002AC0E43019F1E0F0E53029F590911B
:100A400073009D7F909373001FC010926E001CC0B6
:100A5000909170009D7F9093700091E09093B00012
:100A60009091B100987F94609093B1001092B30080
:100A70000BC0909171009D7F9093710005C0909183
:100A800072009D7F9093720060E00E94530AFF9174
:100A9000EF91BF91AF919F918F917F916F915F91F6
:100AA0004F913F912F910F900BBE0F900FBE0F9063
:100AB0001F9018951F920F920FB60F9211240BB62C
:100AC0000F922F933F934F935F936F937F938F93E7
:100AD0009F93AF93BF93EF93FF9389E393E00E94BB
:100AE0006302FF91EF91BF91AF919F918F917F91A1
:100AF0006F915F914F913F912F910F900BBE0F908F
:100B00000FBE0F901F9018951F920F920FB60F9265
:100B100011240BB60F922F933F934F935F936F93D4
:100B20007F938F939F93AF93BF93EF93FF9389E34B
:100B300093E00E94EF01FF91EF91BF91AF919F91E0
:100B40008F917F916F915F914F913F912F910F9076
:100B50000BBE0F900FBE0F901F9018951F920F9213
:100B60000FB60F9211240BB60F922F933F934F9312
:100B70005F936F937F938F939F93AF93BF93EF9305
:100B8000FF9386ED93E00E946302FF91EF91BF9186
:100B9000AF919F918F917F916F915F914F913F9115
:100BA0002F910F900BBE0F900FBE0F901F901895B6
:100BB0001F920F920FB60F9211240BB60F922F9324
:100BC0003F934F935F936F937F938F939F93AF93D5
:100BD000BF93EF93FF9386ED93E00E94EF01FF91A7
:100BE000EF91BF91AF919F918F917F916F915F91A5
:100BF0004F913F912F910F900BBE0F900FBE0F9012
:100C00001F9018951F920F920FB60F9211240BB6DA
:100C10000F922F933F934F935F936F937F938F9395
:100C20009F93AF93BF93EF93FF9383E794E00E946A
:100C30006302FF91EF91BF91AF919F918F917F914F
:100C40006F915F914F913F912F910F900BBE0F903D
:100C50000FBE0F901F9018951F920F920FB60F9214
:100C600011240BB60F922F933F934F935F936F9383
:100C70007F938F939F93AF93BF93EF93FF9383E7FC
:100C800094E00E94EF01FF91EF91BF91AF919F918E
:100C90008F917F916F915F914F913F912F910F9025
:100CA0000BBE0F900FBE0F901F9018951F920F92C2
:100CB0000FB60F9211240BB60F922F933F934F93C1
:100CC0005F936F937F938F939F93AF93BF93CF93D4
:100CD000DF93EF93FF932091110530E0F901E95282
:100CE000FD4F8491F901EF56FD4FD491F901E55B79
:100CF000FD4FC491CC23A1F081110E94FD09EC2F7E
:100D0000F0E0EE0FFF1FE450FE4FA591B491EC917F
:100D1000ED2331E020E009F430E0832F922F02C070
:100D200080E090E020911505309116052F5F3F4F30
:100D3000309316052093150520911405253618F0DB
:100D400026E020931005209110052430D9F128F4D5
:100D5000223069F02330D9F060C0253009F453C047
:100D6000263009F05AC021E02093E10553C00097D6
:100D700009F053C020911505309116052436310530
:100D800008F443C01092E105109214051DC0813093
:100D9000910509F042C0E091140521E02E0F209347
:100DA0001405F0E02091150530911605EE0FFF1F98
:100DB000E05FFA4F308727831092160510921505D1
:100DC00024E029C00097B9F4E091140521E02E0F2A
:100DD00020931405F0E02091150530911605EE0FD3
:100DE000FF1FE05FFA4F308727831092160510929D
:100DF000150523E010C02091150530911605253604
:100E0000310558F007C0009741F410921605109272
:100E1000150503C025E0209310052091130522231A
:100E2000B9F0892B51F480911205882321F080912B
:100E3000120561E009C02F9A0BC08091120588232A
:100E400031F08091120560E00E94530A01C02F9892
:100E5000FF91EF91DF91CF91BF91AF919F918F91D2
:100E60007F916F915F914F913F912F910F900BBEAA
:100E70000F900FBE0F901F9018951F920F920FB6F4
:100E80000F9211240BB60F922F933F934F935F93C2
:100E90006F937F938F939F93AF93BF93EF93FF9342
:100EA00080917B0287FF05C010928500109284001C
:100EB00016C020917B02022E000C330B80911E067F
:100EC00090E0281739075CF430917B0225E032036B
:100ED000F0011124EE51FA4F808186FD15C08091FA
:100EE0007B028F5F80937B0220917B02022E000C9D
:100EF000330B80911E0690E02817390794F48091F7
:100F00007B028C302CF10DC030917B023203F0015A
:100F10001124EE51FA4F808160E08F730E94530AD2
:100F2000DECF809184009091850084349C4918F430
:100F300080E49CE905C0809184009091850004962E
:100F400090938900809388008FEF80937B022AC062
:100F5000409184005091850030917B0225E032035E
:100F6000F0011124EE51FA4F81819281840F951F77
:100F7000909389008093880030917B023203F001C6
:100F80001124EE51FA4F808186FF0CC030917B0214
:100F90003203F0011124EE51FA4F808161E08F732A
:100FA0000E94530AFF91EF91BF91AF919F918F9152
:100FB0007F916F915F914F913F912F910F900BBE59
:100FC0000F900FBE0F901F90189585ED8093BC0079
:100FD0008091BC0084FDFCCF1092080308954091DD
:100FE000BB02262F30E0240F311D21323105DCF405
:100FF000209108032430C9F4FC0180E090E08617BA
:1010000058F43091BB022191DC01A756BD4FA30FCC
:10101000B11D2C930196F3CF8091BB02680F6093B2
:10102000BB0280E0089581E0089582E0089508956C
:1010300081E090E030918F0220918E02321710F4FF
:1010400080E090E0919581959109089580918F02BB
:1010500090918E02891730F48F5F80938F0280E029
:1010600090E008958FEF9FEF089580918E0290E0B9
:1010700020918F02821B91090895CF92DF92EF9207
:10108000FF920F931F93CF93DF937C01262F972F0F
:101090008A0180910903882391F0C62FD72F6E0112
:1010A000C40ED51ECC15DD0571F06991D701ED9107
:1010B000FC910190F081E02DC7011995F3CF642FC9
:1010C000822F0E94EF07C801DF91CF911F910F91EE
:1010D000FF90EF90DF90CF900895CF93DF931F9212
:1010E000CDB7DEB76983209109032223D1F0209187
:1010F0002C03203240F021E030E0FC0133832283D6
:1011000080E090E015C080910A03E82FF0E0E55FF1
:10111000FC4F998190838F5F80930A0380932C0307
:1011200005C061E0CE0101960E94EF0781E090E0EA
:101130000F90DF91CF9108953FB7F8948091950279
:1011400090919602A0919702B091980226B5A89B23
:1011500005C02F3F19F00196A11DB11D3FBFBA2F49
:10116000A92F982F8827820F911DA11DB11DBC01A9
:10117000CD0142E0660F771F881F991F4A95D1F76E
:1011800008951F920F920FB60F9211240F900FBE69
:101190000F901F9018951F920F920FB60F92112467
:1011A0000BB60F922F933F934F935F936F937F9361
:1011B0008F939F93AF93BF93EF93FF938091B90069
:1011C000887F803609F49CC068F5883209F45BC0DA
:1011D00090F4803109F454C038F4882309F4F6C03F
:1011E000883009F44DC0F6C0883109F44CC0803213
:1011F00009F45DC0EFC0803409F468C048F480335E
:1012000009F455C0883309F0E5C080930603D8C0BF
:10121000803509F44FC0883509F45DC0883409F081
:10122000D9C0D6C0883909F4C7C0A8F4883709F4F2
:1012300067C038F4883609F463C0803709F460C0A9
:10124000C9C0883809F4B8C0803909F45FC0803853
:1012500009F0C0C05BC0803B09F486C038F4803A16
:1012600009F466C0883A09F47FC0B4C0803C09F430
:10127000A7C0883C09F4A4C0883B09F48AC0AAC06E
:101280008091E30210C090910503809104039817A8
:1012900070F5E091050381E08E0F80930503F0E087
:1012A000EC51FD4F80818093BB0085EC86C080931C
:1012B00006038EC0E091050381E08E0F8093050345
:1012C0008091BB00F0E0EC51FD4F808390910503CD
:1012D000809104036EC0E091050381E08E0F80933E
:1012E00005038091BB00F0E0EC51FD4F80838091BD
:1012F000070381116DC081E08093E20284EA61C03E
:1013000083E0809308031092DF02CFCF8091DF0249
:10131000803208F051C0E091DF0281E08E0F8093AF
:10132000DF028091BB00F0E0E154FD4F8083BDCF30
:1013300085EC8093BC00109208038091DF0280321C
:1013400030F4E091DF02F0E0E154FD4F1082609153
:10135000DF0270E0E091BD02F091BE028FEB92E0FF
:1013600019951092DF0236C084E080930803109232
:10137000BC021092BB02E091B902F091BA02199539
:101380008091BB02811105C081E08093BB02109265
:101390009902E091BC0281E08E0F8093BC02F0E0E4
:1013A000E756FD4F80818093BB009091BC028091F5
:1013B000BB02981708F479CF85E88093BC000AC077
:1013C00085EC8093BC001092080304C010920603C1
:1013D0000E94E507FF91EF91BF91AF919F918F918F
:1013E0007F916F915F914F913F912F910F900BBE25
:1013F0000F900FBE0F901F90189590E0FC01319751
:10140000E231F10508F04EC08827EC57FF4F8F4FAF
:101410000C943613809180008F7703C080918000F8
:101420008F7D80938000089580918000877FF9CF21
:1014300084B58F7702C084B58F7D84BD0895809177
:10144000B0008F7703C08091B0008F7D8093B00093
:101450000895809190008F7707C0809190008F7DD4
:1014600003C080919000877F8093900008958091C1
:10147000A0008F7707C08091A0008F7D03C080916E
:10148000A000877F8093A0000895809120018F772E
:1014900007C0809120018F7D03C080912001877F4C
:1014A0008093200108951F93CF93DF93282F30E07E
:1014B000F901E952FD4F8491F901EF56FD4FD491A6
:1014C000F901E55BFD4FC491CC23C9F0162F8111C2
:1014D0000E94FD09EC2FF0E0EE0FFF1FEF5CFD4FC7
:1014E000A591B4918FB7F894111105C09C91ED2F7F
:1014F000E095E92302C0EC91ED2BEC938FBFDF91D7
:10150000CF911F910895CF93DF9390E0FC01EF56A8
:10151000FD4F2491FC01E55BFD4F8491882361F12F
:1015200090E0880F991FFC01E95EFD4FC591D491B1
:10153000FC01EF5CFD4FA591B491611109C09FB70B
:10154000F8948881209582238883EC912E230BC008
:10155000623061F49FB7F8943881822F809583239D
:101560008883EC912E2B2C939FBF06C08FB7F894E5
:10157000E8812E2B28838FBFDF91CF91089586338A
:1015800008F0865390917B00282F2870977F922B2C
:1015900090937B008770806480937C0080917A00B8
:1015A000806480937A0080917A0086FDFCCF8091E0
:1015B00078002091790090E0922B08958F929F926D
:1015C000AF92BF92CF92DF92EF92FF926B017C01BC
:1015D0000E949C084B015C01C114D104E104F10498
:1015E000F1F00E949C08DC01CB0188199909AA0935
:1015F000BB09883E9340A105B10570F321E0C21AF2
:10160000D108E108F10888EE880E83E0981EA11C3D
:10161000B11CC114D104E104F10419F7DDCFFF902E
:10162000EF90DF90CF90BF90AF909F908F900895F4
:101630001F920F920FB60F9211242F933F938F9307
:101640009F93AF93BF938091910290919202A0914A
:101650009302B09194023091900223E0230F2D3732
:1016600020F40196A11DB11D05C026E8230F0296A6
:10167000A11DB11D2093900280939102909392023C
:10168000A0939302B0939402809195029091960258
:10169000A0919702B09198020196A11DB11D80936F
:1016A000950290939602A0939702B0939802BF91EF
:1016B000AF919F918F913F912F910F900FBE0F90FF
:1016C0001F901895E3E7F4E0A089B18982E08C933C
:1016D000A485B5851C92A685B7858FEC8C93108E5A
:1016E000A489B58986E08C93A289B3898C918061A5
:1016F0008C93A289B3898C9188608C93A289B389D9
:101700008C9180688C930288F389E02D80818F7D95
:1017100080830895009769F0FC0101900020E9F7AB
:101720003197AF01481B590BBC0183E794E00C943F
:10173000C40180E090E008958F929F92AF92BF9293
:101740000F931F93CF93DF93CDB7DEB7A1970FB65B
:10175000F894DEBF0FBECDBF19A2423008F44AE0B4
:101760008E010F5D1F4F842E912CA12CB12CA50151
:1017700094010E940813E62FB901CA010150110912
:10178000EA3014F4E05D01C0E95CD801EC93232B4E
:10179000242B252B61F7C8010E948A0BA1960FB656
:1017A000F894DEBF0FBECDBFDF91CF911F910F9197
:1017B000BF90AF909F908F90089520912C039091AF
:1017C0002B03213208F04AC0809108038111FCCF1D
:1017D00032E03093080331E0309307033FEF30935A
:1017E00006031092050320930403ABE0B3E044EE3C
:1017F00052E0FA013E2F341B321718F43D91319319
:10180000F9CF1092E3022091E302990F922B90936B
:10181000E3029091E202913061F41092E202909121
:10182000E3029093BB009091BC0093FDF8CF95EC40
:1018300001C095EE9093BC00909108039230E1F3C3
:10184000909106039F3F79F080910603803241F02A
:1018500080910603803331F084E005C081E003C04D
:1018600082E001C083E010920A0310922C031092D0
:1018700009030895EF92FF921F93CF93DF931F9276
:10188000CDB7DEB7162F98EEE92E96E0F92ED701E8
:101890001C969C911C9721E02093090390932B03A5
:1018A00010920A0310922C031A960D90BC91A02D51
:1018B000ED91FC9111970190F081E02D682FCD0101
:1018C00079831995F70182859385DC01ED91FC916F
:1018D0000190F081E02D7981672F1995F7018285BC
:1018E0009385DC01ED91FC910190F081E02D612F59
:1018F00019950F90DF91CF911F91FF90EF900C946D
:10190000DD0B4F925F926F927F928F929F92AF9278
:10191000BF92CF92DF92EF92FF926B017C01B42EC7
:101920009B01AC010E945814882319F085E592E0D0
:1019300027C026013701E89477F82FEF3FEF4FE7F4
:101940005FE7C301B2010E94581481110DC02FEF4F
:101950003FEF4FE75FE7C301B2010E94E4111816A1
:101960001CF489E592E00CC02FEF3FEF4FE75FE4F6
:10197000C701B6010E945314181684F48DE592E055
:10198000FF90EF90DF90CF90BF90AF909F908F909F
:101990007F906F905F904F900C948A0B2FEF3FEFEA
:1019A0004FE75FECC701B6010E94E41187FDE6CF67
:1019B00020E030E0A901C701B6010E94E41187FFD1
:1019C00011C0E0917304F09174040190F081E02D56
:1019D0006DE283E794E019954C01F7FAF094F7F87B
:1019E000F09402C0812C912CA12C60E070E080E08A
:1019F0009FE3AB1441F020E030E040E251E40E946C
:101A0000AB13A394F6CF9B01AC01C701B6010E94B2
:101A10003F132B013C010E9424146B017C010E94A6
:101A2000E9119B01AC01C301B2010E943E132B01DD
:101A30003C014AE0C701B6010E949C0B7C01E80C06
:101A4000F91CBB2069F0E0917304F09174040190DB
:101A5000F081E02D6EE283E794E01995E80EF91E1F
:101A6000DB2CDD2021F120E030E040E251E4C30135
:101A7000B2010E944A122B013C010E9424144B0126
:101A8000A12CB12C4AE0C501B4010E949C0BE80EC8
:101A9000F91EC501B4010E94E9119B01AC01C3010B
:101AA000B2010E943E132B013C01DA94DACFC70148
:101AB000FF90EF90DF90CF90BF90AF909F908F906E
:101AC0007F906F905F904F900895789484B5826076
:101AD00084BD84B5816084BD85B5826085BD85B5D2
:101AE000816085BD80916E00816080936E00109250
:101AF00081008091810082608093810080918100CB
:101B0000816080938100809180008160809380005B
:101B10008091B10084608093B1008091B0008160B9
:101B20008093B000809191008260809391008091B9
:101B300091008160809391008091900081608093FA
:101B400090008091A10082608093A1008091A1000B
:101B500081608093A1008091A00081608093A000AB
:101B60008091210182608093210180912101816017
:101B700080932101809120018160809320018091D8
:101B80007A00846080937A0080917A0082608093EA
:101B90007A0080917A00816080937A0080917A0047
:101BA000806880937A001092C1000E94620B61E00D
:101BB0008091E9060E94830A60E08091E9060E9414
:101BC000530A60E08091E8060E94830A8DE293E068
:101BD0009093F3068093F20610928F0210928E0279
:101BE00010920A0310922C031092080381E0809354
:101BF00007031092E20261E084E10E94530A61E06F
:101C000085E10E94530A8091B9008E7F8093B900CC
:101C10008091B9008D7F8093B90088E48093B800EB
:101C200085E48093BC0080E090E1A0E0B0E0809388
:101C3000F5069093F606A093F706B093F8068AE0AF
:101C400090E0A0E0B0E08093F9069093FA06A093AC
:101C5000FB06B093FC0680E090E0A0E0B0E4809347
:101C6000FD069093FE06A093FF06B093000760E088
:101C700070E185E00E943A0C6FE979E380E00E9410
:101C80003A0CC5E0D7E0C12CD12CE12CF12C50E866
:101C9000452E52E0552E66EC862E62E0962E7BECA9
:101CA000A72E77E0B72EC7018851994F3C01FC0160
:101CB0009481828186010851194FF801818F928F9A
:101CC00061E00E94830A61E0F801828D0E94830A2C
:101CD000F301908586818883F801968F61E00E94E8
:101CE000830A60E0F801868D0E94830A61E08881A2
:101CF0000E94530A1FB7F89480918302811125C076
:101D0000F2018491F4019491E82FF0E0EE0FFF1FAF
:101D1000E95EFD4FA591B4918C91982321F461E087
:101D200085E30E94530A61E085E30E94830A8CB533
:101D300080618CBD8CB580648CBD61E084E30E94C1
:101D4000830A61E083E30E94830A809183028F5FAC
:101D5000809383021FBFC5010197F1F760E088817E
:101D60000E94530A88E80E941D0383E00E941D031D
:101D700061E088810E94530AC5010197F1F7CE0105
:101D80000E944104F2E0CF0ED11C2296EA94EF2883
:101D900021F0EE24E394F12C86CFCDE0D7E01C2F88
:101DA0001C5F60E089910E94830A1C13FACF0CE14A
:101DB00017E0C9E1D7E085E0C82E9CE0E92E22E0DB
:101DC000B22EDC2ED394D394FE013897F080888114
:101DD0008C3008F044C061E08F2D0E94830A888116
:101DE000C89EF0011124EE51FA4F9F2D9F73208160
:101DF000207CF22EF92AF082138214826E2D0E942A
:101E00002A13ECE08E9FA001112420E030E0B901FC
:101E1000640F751FC69EF001C79EF00D1124EE5190
:101E2000FA4F908196FD12C02F5F3F4F2C30310545
:101E300071F781110BC010928000B0928100109256
:101E4000850010928400B6BAB0926F00E881CE9EF1
:101E5000F0011124EE51FA4F808180648083FE01ED
:101E60003297908132978081F80131978083F80111
:101E7000908360E00E94830A61E0F80180810E9403
:101E8000830A60E0F80180810E94530A21960E5F68
:101E90001F4FDC1299CFF8941092200189E08093B3
:101EA000210180E293E09093290180932801109210
:101EB00025011092240182E080937300789480932E
:101EC0001005109214058091110560E00E94830AAC
:101ED00085E097E00E94410487E097E00E9441047A
:101EE0000E94620B88E00E94BF0ABC01990F880B18
:101EF000990B0E94EB1160938A0270938B0280937E
:101F00008C0290938D0287E392E00E948A0B60918D
:101F10008A0270918B0280918C0290918D0242E036
:101F20000E94810C89E00E94BF0ABC01990F880BB6
:101F3000990B0E94EB116093860270938702809345
:101F400088029093890287E492E00E948A0B609154
:101F5000860270918702809188029091890242E006
:101F60000E94810C82E592E00E948A0B20E030E022
:101F700048EC53E460918602709187028091880258
:101F8000909189020E945314181684F5C09184021E
:101F9000D09185022196D0938502C093840240E0BF
:101FA00050E0BA0181E097E00E94280340E050E051
:101FB00060E070E883E097E00E942803E297D1F4A4
:101FC00040E050E0BA0181E097E00E94280340E041
:101FD00050E060E070E883E097E00E94280360E151
:101FE00077E280E090E00E94DE0A04C01092850251
:101FF000109284026AE070E080E090E00E94DE0AC5
:102000000E94F0026FCF80911F06909120060C94E1
:10201000F2141092300310922F0388EE93E0A0E0A8
:10202000B0E08093310390933203A0933303B093D5
:1020300034032BE032E030932E0320932D031092D3
:102040003C0310923B0380933D0390933E03A09387
:102050003F03B09340032DE132E030933A032093E5
:10206000390345E351E0509346034093450344E36D
:1020700051E0509348034093470340E351E05093AD
:102080004A034093490341E351E050934C0340938A
:102090004B0342E351E050934E0340934D0346E31C
:1020A00051E05093500340934F031092520310920B
:1020B000530310925403109255031092D9031092B7
:1020C000D8038093DA039093DB03A093DC03B093EF
:1020D000DD033093D7032093D60345ED50E05093B2
:1020E000E3034093E20344ED50E05093E503409353
:1020F000E40340ED50E05093E7034093E60341EDE5
:1021000050E05093E9034093E80342ED50E05093D0
:10211000EB034093EA0346ED50E05093ED03409308
:10212000EC031092EF031092F0031092F10310925F
:10213000F2031092760410927504809377049093C2
:102140007804A0937904B0937A04309374042093B4
:10215000730485EC90E09093800480937F0484EC7A
:1021600090E0909382048093810480EC90E09093BF
:1021700084048093830481EC90E0909386048093A0
:10218000850482EC90E0909388048093870486EC29
:1021900090E090938A048093890410928C041092AA
:1021A0008D0410928E0410928F0486E380930907A9
:1021B00087E380930A0788E380930B0789E3809382
:1021C0000C078BE180930D078DE180930E078AE168
:1021D00080930F078CE18093100784E080931107B0
:1021E00087E0809312071092130784EB8093140703
:1021F00086E18093150788E18093160787E1809335
:10220000170789E180931807E0911E06EC3020F053
:102210008FEF8093190710C081E08E0F80931E0608
:10222000E093190725E0E29FF0011124EE51FA4FE7
:1022300088EB9BE092838183E0911E06EC3020F0D6
:102240008FEF80931A0710C081E08E0F80931E06D7
:10225000E0931A0785E0E89FF0011124EE51FA4F50
:1022600088EB9BE0928381838CE08093E80684E294
:102270008093E90686E08093EA0685E08093EB068A
:102280008FE18093EC068EE18093ED0683E28093EC
:10229000EE0682E28093EF0685E48093F00684E404
:1022A0008093F10680E48093F4061092F906109270
:1022B000FA061092FB061092FC061092FD06109290
:1022C000FE061092FF0610920007EAE2F6E08FEF9A
:1022D0009FEFDC011282138214821582168217820C
:1022E0001086118683879487A587B6878787908B0A
:1022F000A18BB28B128611821082739626E0E83E83
:10230000F20741F78DE090E00E945D14FC0113821A
:1023100012828FE292E091838083118687E2848328
:1023200084E1828784E083871486F0932706E09314
:102330002606109228061092290685E28093110540
:10234000109213051092200610921F06109222067A
:1023500010922106109224061092230661E070E08C
:1023600080E090E00E948A15009789F09093200603
:1023700080931F06109222061092210620912306B8
:1023800030912406232BC1F4FC01108215C08091EA
:102390001F0690912006009711F00E94F2141092EF
:1023A000200610921F061092240610922306109207
:1023B00022061092210608951092240610922306F8
:1023C00064E572E00C9481160E94261208F481E004
:1023D0000895E89409C097FB3EF490958095709518
:1023E00061957F4F8F4F9F4F9923A9F0F92F96E961
:1023F000BB279395F695879577956795B795F111D6
:10240000F8CFFAF4BB0F11F460FF1BC06F5F7F4F72
:102410008F4F9F4F16C0882311F096E911C0772384
:1024200021F09EE8872F762F05C0662371F096E88D
:10243000862F70E060E02AF09A95660F771F881F5C
:10244000DAF7880F9695879597F90895990F000800
:10245000550FAA0BE0E8FEEF16161706E807F90776
:10246000C0F012161306E407F50798F0621B730B11
:10247000840B950B39F40A2661F0232B242B252B92
:1024800021F408950A2609F4A140A6958FEF811D35
:10249000811D08950E945D120C94CE120E94C012FC
:1024A00038F00E94C71220F0952311F00C94B71257
:1024B0000C94BD1211240C9402130E94DF1270F3CD
:1024C000959FC1F3950F50E0551F629FF001729FD9
:1024D000BB27F00DB11D639FAA27F00DB11DAA1FE8
:1024E000649F6627B00DA11D661F829F2227B00D35
:1024F000A11D621F739FB00DA11D621F839FA00DC0
:10250000611D221F749F3327A00D611D231F849F0F
:10251000600D211D822F762F6A2F11249F57504066
:102520009AF0F1F088234AF0EE0FFF1FBB1F661FE1
:10253000771F881F91505040A9F79E3F510580F0AA
:102540000C94B7120C9402135F3FE4F3983ED4F35B
:10255000869577956795B795F795E7959F5FC1F74E
:10256000FE2B880F911D9695879597F9089597F9F9
:102570009F6780E870E060E008959FEF80EC089529
:1025800000240A9416161706180609060895002452
:102590000A9412161306140605060895092E0394CC
:1025A000000C11F4882352F0BB0F40F4BF2B11F440
:1025B00060FF04C06F5F7F4F8F4F9F4F089557FD9F
:1025C0009058440F551F59F05F3F71F04795880FA1
:1025D00097FB991F61F09F3F79F087950895121638
:1025E00013061406551FF2CF4695F1DF08C01616E4
:1025F00017061806991FF1CF869571056105089495
:102600000895E894BB2766277727CB0197F90895AB
:10261000A1E21A2EAA1BBB1BFD010DC0AA1FBB1FE6
:10262000EE1FFF1FA217B307E407F50720F0A21B58
:10263000B30BE40BF50B661F771F881F991F1A94C5
:1026400069F760957095809590959B01AC01BD01EF
:10265000CF010895991B79E004C0991F961708F0DF
:10266000961B881F7A95C9F780950895EE0FFF1F76
:10267000881F8BBF0790F691E02D19945058BB2707
:10268000AA270E9456130C94CE120E94C01238F052
:102690000E94C71220F039F49F3F19F426F40C94DD
:1026A000BD120EF4E095E7FB0C94B712E92F0E94DF
:1026B000DF1258F3BA17620773078407950720F0F3
:1026C00079F4A6F50C9401130EF4E0950B2EBA2FB5
:1026D000A02D0B01B90190010C01CA01A001112428
:1026E000FF27591B99F0593F50F4503E68F11A16D4
:1026F000F040A22F232F342F4427585FF3CF469565
:1027000037952795A795F0405395C9F77EF41F1686
:10271000BA0B620B730B840BBAF09150A1F0FF0F50
:10272000BB1F661F771F881FC2F70EC0BA0F621F3C
:10273000731F841F48F4879577956795B795F7952C
:102740009E3F08F0B0CF9395880F08F09927EE0FC1
:102750009795879508950E94BF130C94CE120E94FE
:10276000C71258F00E94C01240F029F45F3F29F0D0
:102770000C94B71251110C9402130C94BD120E94C8
:10278000DF1268F39923B1F3552391F3951B550B91
:10279000BB27AA2762177307840738F09F5F5F4F34
:1027A000220F331F441FAA1FA9F335D00E2E3AF073
:1027B000E0E832D091505040E695001CCAF72BD08B
:1027C000FE2F29D0660F771F881FBB1F26173707DC
:1027D0004807AB07B0E809F0BB0B802DBF01FF270E
:1027E00093585F4F3AF09E3F510578F00C94B71222
:1027F0000C9402135F3FE4F3983ED4F386957795EB
:102800006795B795F7959F5FC9F7880F911D9695C6
:10281000879597F90895E1E0660F771F881FBB1F22
:10282000621773078407BA0720F0621B730B840BCF
:10283000BA0BEE1F88F7E09508950E94241468945F
:10284000B1110C94021308950E94E71288F09F576B
:1028500098F0B92F9927B751B0F0E1F0660F771FC4
:10286000881F991F1AF0BA95C9F714C0B13091F0BA
:102870000E940113B1E008950C940113672F782F83
:102880008827B85F39F0B93FCCF38695779567957F
:10289000B395D9F73EF490958095709561957F4FEB
:1028A0008F4F9F4F08950E94261208F48FEF0895CE
:1028B0000E942612880B990B0895CF93DF938230E4
:1028C000910510F482E090E0E0912107F091220759
:1028D00020E030E0C0E0D0E0309711F1408151813C
:1028E00048175907C0F04817590761F4828193814E
:1028F000209719F09B838A832BC0909322078093A3
:10290000210726C02115310519F04217530718F485
:102910009A01BE01DF01EF010280F381E02DDCCFDF
:102920002115310509F1281B390B2430310590F4AC
:1029300012968D919C9113976115710521F0FB0101
:102940009383828304C09093220780932107FD0123
:10295000329644C0FD01E20FF31F81939193225000
:1029600031092D933C933AC020911F0730912007E5
:10297000232B41F42091030230910402309320076D
:1029800020931F0720910102309102022115310589
:1029900041F42DB73EB74091050250910602241B29
:1029A000350BE0911F07F0912007E217F307A0F421
:1029B0002E1B3F0B2817390778F0AC014E5F5F4F95
:1029C0002417350748F04E0F5F1F509320074093A0
:1029D0001F078193919302C0E0E0F0E0CF01DF9107
:1029E000CF9108950F931F93CF93DF93009709F42E
:1029F0008CC0FC0132971382128200912107109142
:102A000022070115110581F420813181820F931F66
:102A100020911F07309120072817390779F5F09387
:102A20002007E0931F0771C0D80140E050E0AE17C7
:102A3000BF0750F412962D913C911397AD012115CB
:102A4000310509F1D901F3CF9D01DA0133832283E6
:102A500060817181860F971F8217930769F4EC01DB
:102A600028813981260F371F2E5F3F4F3183208306
:102A70008A819B8193838283452B29F4F0932207DB
:102A8000E093210742C01396FC93EE931297ED0159
:102A9000499159919E01240F351FE217F30771F4F4
:102AA00080819181840F951F029611969C938E933D
:102AB0008281938113969C938E931297E0E0F0E0CD
:102AC000D80112968D919C911397009719F0F801F7
:102AD0008C01F6CF8D919C9198012E5F3F4F820F14
:102AE000931F20911F07309120072817390769F499
:102AF000309729F4109222071092210702C0138206
:102B000012821093200700931F07DF91CF911F912E
:102B10000F9108956F927F928F929F92AF92BF9282
:102B2000CF92DF92EF92FF920F931F93CF93DF9399
:102B3000EC01009789F4CB01DF91CF911F910F91A8
:102B4000FF90EF90DF90CF90BF90AF909F908F90CD
:102B50007F906F900C945D14FC01E60FF71F9C01B1
:102B600022503109E217F30708F4ACC0D9010D91E6
:102B70001C91119706171707B0F00530110508F4DE
:102B80009FC0C80104978617970708F499C00250A0
:102B90001109061B170B019311936D937C93CF01C1
:102BA0000E94F2148DC05B01A01AB10A4C01800E84
:102BB000911EA0912107B091220740E050E0E12C46
:102BC000F12C109709F44AC0A815B905D1F56D90FC
:102BD0007C901197630182E0C80ED11CCA14DB04FB
:102BE00080F1A3014A195B096A0182E0C80ED11C79
:102BF0001296BC9012971396AC91B5E0CB16D10407
:102C000040F0B282A38351834083D9016D937C93BA
:102C10000AC00E5F1F4FC301800F911FF9019183FE
:102C20008083EB2DFA2FE114F10431F0D7011396D4
:102C3000FC93EE93129744C0F0932207E093210790
:102C40003FC08D919C9111974817590708F4AC012A
:102C50007D0112960D90BC91A02DB3CF80911F07DE
:102C60009091200788159905E1F446175707C8F495
:102C70008091010290910202009741F48DB79EB7B6
:102C80004091050250910602841B950BE817F90745
:102C9000C8F4F0932007E0931F07F9017183608364
:102CA0000FC0CB010E945D147C01009759F0A80170
:102CB000BE010E947816CE010E94F214C70104C022
:102CC000CE0102C080E090E0DF91CF911F910F9183
:102CD000FF90EF90DF90CF90BF90AF909F908F903C
:102CE0007F906F90089581E090E0F8940C9488169E
:102CF000FB01DC0102C001900D9241505040D8F719
:102D00000895FB01DC0101900D920020E1F7089588
:102D100011E0C0E9D1E000E006C0802FFE010E9472
:102D200036132196011DC139D10780E00807A9F7A4
:042D3000F894FFCF45
:102D3400FF000023072000000000006D083D082567
:102D4400031708350826081808000000008402C488
:102D5400010802CB02390217022B02000000009680
:102D640004C40125032403627275697420616D62D1
:102D740069616E743D200020207C202035487A3D16
:102D840020000D0A006E616E00696E66006F766643
:022D940000003D
:00000001FF
