:100000000C9491010C94C2010C94C2010C94C20195
:100010000C94C2010C94C2010C94C2010C94C20154
:100020000C94C2010C94A00B0C94A00B0C94A00B8C
:100030000C94C2010C940C080C94C2010C94C201E3
:100040000C94C2010C941D150C94C2010C94C201B5
:100050000C94C2010C94C2010C94C2010C94AB0D1F
:100060000C94C2010C947D090C9453090C94C201A8
:100070000C94C2010C94C2010C94C2010C94C201F4
:100080000C94C2010C94C2010C94C2010C94C201E4
:100090000C94C2010C94C2010C94C2010C94AA0BE2
:1000A0000C94C2010C94C2010C94C2010C94C201C4
:1000B0000C94C2010C94C2010C94C2010C9446131E
:1000C0000C94C2010C94C2010C94C2010C94290935
:1000D0000C94FF080C94C2010C94D5080C94AB0846
:1000E0000C94C201790A7C0A6B0A6F0A750AB30A7A
:1000F000800A840A8A0A8E0A920A980A9C0AA00A2E
:10010000B30AA60AAA0AAE0A641469146E14781413
:100110008214FB148C1494149C14A614B014BA14F6
:10012000C914D314FB14DD14E714F1140C94A60ABB
:100130000C94DA090C94441B0C94E1060C943407DB
:100140000C94790A0C948A0A0C94800A0C948214F8
:100150000C94A1070C94E8070C94AA0A0C94DD14E3
:100160000C947C0A0C942F0A0C9469140C94F612CB
:100170000C94E8090C9448070C94E7140C9464144C
:100180000C94840A0C948E0A0C949C0A0C946E14A1
:100190000C94BA140C9421130C94B30A0C946F0AA7
:1001A0000C946B0A0C94920A0C94980A0C94781490
:1001B0000C94F1140C94D9090C94A6140C94FB140F
:1001C0000C94C9140C94A00A0C949C140C94D31491
:1001D0000C94F7090C948C140C94FF090C942507CB
:1001E0000C94750A0C9494140C94F5120C94560704
:1001F0000C9469190C94AE0A0C94B01402000021FE
:1002000000240027002A002D0030003300010100E7
:1002100000040107010A0100002200250028002B2C
:10022000002E003100340002010000050108010B1E
:1002300001000020002300260029002C002F00329E
:10024000000001000003010601090105050505077D
:100250000508080808020202020A0A080804040441
:10026000040101010101010101030303030303036D
:1002700003040707070C0C0C0C0C0C0C0C020202FC
:100280000206060606060606060B0B0B0B0B0B0BEF
:100290000B0102102020080810204010204080028E
:1002A00001020108040201010204081020408080BC
:1002B0004020100804020180040201804020100840
:1002C0000402010804020101020408102040800118
:1002D0000204081020408000000A0B02090C0D0ED9
:1002E00008070304010000000000000000000000F7
:1002F00000000000000000000000000000000000FE
:1003000000000012111000000000000000000000BA
:10031000000000000000000000000000000069195B
:10032000441B11241FBECFEFD1E2DEBFCDBF00E0E2
:100330000CBF13E0A0E0B2E0E4E5F0E400E00BBFA6
:1003400002C007900D92A232B107D9F727E0A2E2CE
:10035000B3E001C01D92AC3CB207E1F711E0C0E987
:10036000D1E000E006C021970109802FFE010E9424
:10037000C61CCF38D10780E00807A9F70E945C1699
:100380000C9418200C940000E0E0F0E019948F9297
:100390009F92AF92BF92CF92DF92EF92FF927C0139
:1003A0008DEA97E00E94CC158FEA97E00E94CC1569
:1003B000F7FE03C08FEF9FEF02C081E090E08E9DBB
:1003C00040018F9D900C9E9D900C1124092C000CD7
:1003D000AA08BB086C01990FEE08FF088DEA97E0A8
:1003E0000E94F7159B01AC0188279927DC01821B2D
:1003F000930BA40BB50B8093860390938703A09374
:100400008803B09389038FEA97E00E94F715609301
:10041000820370938303809384039093850340E069
:1004200050E0BA0189EA97E00E940414C701B601BE
:100430000E94511B2DEC3CEC4CEC5DE30E94B01B88
:10044000AB01BC0170588BEA97E00E9404146091E4
:100450008203709183038091840390918503A701A7
:1004600096010E94AA1C681579058A059B050CF463
:10047000B5CF40E050E0BA0189EA97E00E94041449
:1004800040E050E060E070E88BEA97E00E940414DE
:100490008091820390918303FF90EF90DF90CF9043
:1004A000BF90AF909F908F9008958F929F92AF9240
:1004B000BF92CF92DF92EF92FF927C018DEA97E09C
:1004C0000E94CC158FEA97E00E94CC15F7FE03C07E
:1004D0008FEF9FEF02C081E090E08E9D40018F9DE5
:1004E000900C9E9D900C1124092C000CAA08BB08AE
:1004F0006C01990FEE08FF088DEA97E00E94F7154E
:100500009B01AC0188279927DC01821B930BA40B6C
:10051000B50B8093860390938703A0938803B093D1
:1005200089038FEA97E00E94F71560938203709326
:1005300083038093840390938503C701B6010E94CF
:10054000511B2DEC3CEC4CEC5DE30E94B01BAB016D
:10055000BC0189EA97E00E94041440E050E060E0AA
:1005600070E88BEA97E00E94041460918603709112
:1005700087038091880390918903A70196010E94C7
:10058000AA1C681579058A059B050CF4B5CF40E0D7
:1005900050E0BA0189EA97E00E94041440E050E07C
:1005A00060E070E88BEA97E00E9404148091860373
:1005B00090918703FF90EF90DF90CF90BF90AF9026
:1005C0009F908F9008954F925F926F927F928F923B
:1005D0009F92AF92BF92CF92DF92EF92FF92CF9312
:1005E000DF9300D01F92CDB7DEB76B017C018DEA9F
:1005F00097E00E94CC158FEA97E00E94CC1540E06E
:1006000050E0BA0189EA97E00E94041420E030E04B
:10061000A901C701B6010E944A1B87FF1EC020E046
:1006200030ED46E755E4C701B6010E94B01B20E05B
:1006300030E044EB52E40E943B1D0E94AD1D6B0173
:1006400077FF04C0CC24DD24C61AD70A0D2C000C79
:10065000EE08FF088FEF9FEF1DC020E030E347E773
:1006600055E4C701B6010E94B01B20E030E044EB26
:1006700052E40E943B1D0E94AD1D6B0177FF04C038
:10068000CC24DD24C61AD70A0D2C000CEE08FF0876
:1006900081E090E0812C912C54012C01990F660887
:1006A0007708A70196012F51334041095109298349
:1006B0003A834B835C83C301B2010E94511BA501A5
:1006C00094010E94B01BAB01BC0170588BEA97E00B
:1006D0000E9404148DEA97E00E94F7159B01AC017B
:1006E00088279927DC01821B930BA40BB50B809301
:1006F000860390938703A0938803B09389038FEABE
:1007000097E00E94F715A30192010E94AA1C609332
:1007100082037093830380938403909385032981DC
:100720003A814B815C8162177307840795079CF0BF
:100730002DEC3CEC4CEC5DE3C501B4010E94E31DE3
:100740001816F4F42AE037ED43EA5CE3C501B4017E
:100750000E94CE1C12C02DEC3CEC4CEC5EE3C501BB
:10076000B4010E944A1B87FF12C02AE037ED43EA1A
:100770005BE3C501B4010E94CF1C4B015C0107C0C3
:100780008DEC882E8CEC982EA92C8DE3B82E6AE087
:1007900070E080E090E00E94710D80918203909162
:1007A0008303A0918403B09185038C159D05AE054C
:1007B000BF050CF480CF40E050E0BA0189EA97E031
:1007C0000E94041440E050E060E070E88BEA97E09B
:1007D0000E94041464E670E080E090E00E94710DD5
:1007E0008BE392E00E948C118FE492E00E94C6128B
:1007F00060918603709187038091880390918903AB
:100800000E948A1289E592E00E94C612C701B601D1
:100810000E948A128AE692E00E947A118DE692E0A6
:100820000E94C612609182037091830380918403B9
:10083000909185030E948A1287E792E00E948C11B2
:100840008091860390918703909381038093800326
:1008500080918203909183038C199D0990937F036B
:1008600080937E0389E892E00E94C6126091800323
:1008700070918103072E000C880B990B0E948A123D
:100880008AE992E00E94C61280917E0390917F03D4
:100890000E94B41280917E0390917F03919581957F
:1008A00091090E94C70120917E0330917F03820F3E
:1008B000931F90937F0380937E0380918003909198
:1008C00081039195819591090E94550220918003A1
:1008D00030918103820F931F909381038093800353
:1008E00081EA92E00E94C6126091800370918103B8
:1008F000072E000C880B990B0E948A1286EB92E05F
:100900000E94C61280917E0390917F030F900F90FA
:100910000F900F90DF91CF91FF90EF90DF90CF90ED
:10092000BF90AF909F908F907F906F905F904F900F
:100930000C94B4122F923F924F925F926F927F92DB
:100940008F929F92AF92BF92CF92DF92EF92FF92DF
:100950000F931F93CF93DF9300D01F92CDB7DEB7D5
:100960004B015C0120E030E0A9010E944A1B87FF97
:1009700003C00FEF1FEF02C001E010E02DED38E4DF
:1009800044E053E4C501B4010E94B01B0E94AD1DB8
:100990001B0177FF04C022243324261A370A4101A1
:1009A000032C000CAA08BB088DEA97E00E94CC1526
:1009B0008FEA97E00E94CC158DEC9CECACE4BDE393
:1009C0008093010290930202A0930302B093040269
:1009D0006801110FEE08FF08A50194012B5D354059
:1009E0004109510929833A834B835C838DEA97E05F
:1009F0000E94F71590958095709561957F4F8F4F68
:100A00009F4FA70196010E94AA1C609386037093D2
:100A1000870380938803909389038FEA97E00E946D
:100A2000F715A70196010E94AA1C0E94511B22E5FE
:100A300038EB4EE75FE30E94B01B0E94AD1D609350
:100A400082037093830380938403909385030091C2
:100A5000860310918703061B170B409001025090EC
:100A60000202609003027090040229813A814B8156
:100A70005C81621773078407950704F12EEA37E457
:100A800041EE5DE3C301B2010E94E31D18164CF470
:100A90002AE037ED43EA5CE3C301B2010E94CE1CB9
:100AA0001FC08DEC9CECACECBDE3809301029093F5
:100AB0000202A0930302B09304021AC02AE939E9A2
:100AC00049E15FE3C301B2010E944A1B87FF10C0E6
:100AD0002AE037ED43EA5BE3C301B2010E94CF1C79
:100AE00060930102709302028093030290930402C8
:100AF000C701B60117FF2BC00E94511B2B013C01FF
:100B000020910102309102024091030250910402AF
:100B10000E94B01B26E636E646E85FE30E94B01B63
:100B2000AB01BC0189EA97E00E9404142091010204
:100B3000309102024091030250910402C301B201BC
:100B40000E94B01B23E333E343E75FE34BC0012B79
:100B500059F10E94511B2B013C012091010230915F
:100B6000020240910302509104020E94B01B23E351
:100B700033E343E75FE30E94B01BAB01BC0189EAAA
:100B800097E00E94041420910102309102024091EA
:100B9000030250910402C301B2010E94B01B26E679
:100BA00036E646E85FE31EC00E94511B2B013C0164
:100BB00020910102309102024091030250910402FF
:100BC0000E94B01BAB01BC0189EA97E00E940414AB
:100BD00020910102309102024091030250910402DF
:100BE000C301B2010E94B01BAB01BC0170588BEA7B
:100BF00097E00E9404146AE070E080E090E00E94B8
:100C0000710D8091860390918703A0918803B09124
:100C1000890388169906AA06BB063CF440E050E01A
:100C2000BA0189EA97E00E940414809182039091AE
:100C30008303A0918403B091850388169906AA06C0
:100C4000BB0644F440E050E060E070E88BEA97E0D7
:100C50000E94041440918603509187036091880399
:100C600070918903481559056A057B050CF4BECEC1
:100C70008091820390918303A0918403B0918503B6
:100C800088159905AA05BB050CF4B0CE4219530985
:100C900050938103409380038219930990937F03BB
:100CA00080937E038FEB92E00E94C6126091010256
:100CB0007091020280910302909104020E94D90A6D
:100CC00089E892E00E94C6126091800370918103CE
:100CD000072E000C880B990B0E948A128AE992E079
:100CE0000E94C61280917E0390917F030E94B412ED
:100CF00080917E0390917F039195819591090E9447
:100D0000C70120917E0330917F03820F931F909340
:100D10007F0380937E03809180039091810391955E
:100D2000819591090E9455022091800330918103A1
:100D3000820F931F909381038093800381EA92E056
:100D40000E94C6126091800370918103072E000CEF
:100D5000880B990B0E948A1286EB92E00E94C612C1
:100D600080917E0390917F030E94B41240E050E096
:100D7000BA0189EA97E00E94041440E050E060E084
:100D800070E88BEA97E00E9404146AE070E080E06B
:100D900090E00F900F900F900F90DF91CF911F91E7
:100DA0000F91FF90EF90DF90CF90BF90AF909F900A
:100DB0008F907F906F905F904F903F902F900C940A
:100DC000710DCF92DF92EF92FF920F931F93CF930B
:100DD000DF936C017A018B01C0E0D0E0CE15DF0516
:100DE00089F0D8016D918D01D601ED91FC910190B2
:100DF000F081E02DC6011995892B11F47E0102C006
:100E00002196ECCFC701DF91CF911F910F91FF90F9
:100E1000EF90DF90CF900895FC01A089B1898C916B
:100E2000A689B78982FD0FC09C91818D8F5F8F73DA
:100E3000228D821749F0218DDF01A20FB11D5D9631
:100E40009C93818F08958C910895FC01538D448D5E
:100E5000252F30E0842F90E0821B930B541710F065
:100E6000CF96089501970895FC01918D828D981772
:100E700061F0828DDF01A80FB11D5D968C91928D7E
:100E80009F5F9F73928F90E008958FEF9FEF08957B
:100E9000FC01918D828D981731F0828DE80FF11D44
:100EA000858D90E008958FEF9FEF0895FC01918D5F
:100EB000228D892F90E0805C9F4F821B91098F7358
:100EC0009927089581EE93E00E94560721E0892B2F
:100ED00009F420E0822F08958EE794E00E945607DF
:100EE00021E0892B09F420E0822F08958BE195E021
:100EF0000E94560721E0892B09F420E0822F0895F3
:100F0000FC01848DDF01A80FB11DA35ABF4F2C91A6
:100F1000848D90E001968F739927848FA689B78975
:100F20002C93A089B1898C9180648C93938D848D4E
:100F3000981306C00288F389E02D80818F7D80831D
:100F40000895EF92FF920F931F93CF93DF93EC01DD
:100F500081E0888F9B8D8C8D981305C0E889F98975
:100F6000808185FD24C0F62E0B8D10E00F5F1F4F92
:100F70000F731127E02E8C8DE8120CC00FB607FC02
:100F8000FACFE889F989808185FFF5CFCE010E94EB
:100F90008007F1CF8B8DFE01E80FF11DE35AFF4F63
:100FA000F0820B8FEA89FB898081806207C0EE891D
:100FB000FF896083E889F98980818064808381E08A
:100FC00090E0DF91CF911F910F91FF90EF900895E6
:100FD000CF93DF93EC01888D8823C9F0EA89FB89E0
:100FE000808185FD05C0A889B9898C9186FD0FC0D7
:100FF0000FB607FCF5CF808185FFF2CFA889B989AC
:101000008C9185FFEDCFCE010E948007E7CFDF9165
:10101000CF9108950E9403201F920F920FB60F9256
:1010200011240BB60F922F933F934F935F936F93BF
:101030007F938F939F93AF93BF93EF93FF93809191
:10104000250390912603A0912703B0912803892BB3
:101050008A2B8B2B59F180912403E0912203F0918C
:101060002303908189278083809125039091260313
:10107000A0912703B0912803181619061A061B061B
:101080000CF056C08091250390912603A091270370
:10109000B09128030197A109B1098093250390938A
:1010A0002603A0932703B093280342C08091000237
:1010B000ECEFF1E0E4919FEF90930002E230C9F091
:1010C00050F4EE2399F0E13081F590916F009D7F0F
:1010D00090936F002AC0E43019F1E0F0E53029F573
:1010E000909173009D7F909373001FC010926E00CB
:1010F0001CC0909170009D7F9093700091E0909340
:10110000B0009091B100987F94609093B1001092DC
:10111000B3000BC0909171009D7F9093710005C04A
:10112000909172009D7F9093720060E00E94050D87
:10113000FF91EF91BF91AF919F918F917F916F91AF
:101140005F914F913F912F910F900BBE0F900FBE6B
:101150000F901F9018951F920F920FB60F921124A7
:101160000BB60F922F933F934F935F936F937F93A1
:101170008F939F93AF93BF93EF93FF9381EE93E091
:101180000E948007FF91EF91BF91AF919F918F9146
:101190007F916F915F914F913F912F910F900BBE77
:1011A0000F900FBE0F901F9018951F920F920FB6C1
:1011B0000F9211240BB60F922F933F934F935F938F
:1011C0006F937F938F939F93AF93BF93EF93FF930F
:1011D00081EE93E00E940C07FF91EF91BF91AF91D8
:1011E0009F918F917F916F915F914F913F912F913F
:1011F0000F900BBE0F900FBE0F901F9018951F926F
:101200000F920FB60F9211240BB60F922F933F93AC
:101210004F935F936F937F938F939F93AF93BF93FE
:10122000EF93FF938EE794E00E948007FF91EF9188
:10123000BF91AF919F918F917F916F915F914F91EE
:101240003F912F910F900BBE0F900FBE0F901F90EC
:1012500018951F920F920FB60F9211240BB60F9292
:101260002F933F934F935F936F937F938F939F93AE
:10127000AF93BF93EF93FF938EE794E00E940C0728
:10128000FF91EF91BF91AF919F918F917F916F915E
:101290005F914F913F912F910F900BBE0F900FBE1A
:1012A0000F901F9018951F920F920FB60F92112456
:1012B0000BB60F922F933F934F935F936F937F9350
:1012C0008F939F93AF93BF93EF93FF938BE195E041
:1012D0000E948007FF91EF91BF91AF919F918F91F5
:1012E0007F916F915F914F913F912F910F900BBE26
:1012F0000F900FBE0F901F9018951F920F920FB670
:101300000F9211240BB60F922F933F934F935F933D
:101310006F937F938F939F93AF93BF93EF93FF93BD
:101320008BE195E00E940C07FF91EF91BF91AF9187
:101330009F918F917F916F915F914F913F912F91ED
:101340000F900BBE0F900FBE0F901F90189585ED5C
:101350008093BC008091BC0084FDFCCF1092B00350
:10136000089540915703262F30E0240F311D21327C
:101370003105DCF42091B0032430C9F4FC0180E095
:1013800090E0861758F4309157032191DC01AB5C53
:10139000BC4FA30FB11D2C930196F3CF809157033F
:1013A000680F6093570380E0089581E0089582E01C
:1013B0000895089581E090E030912B0320912A0355
:1013C000321710F480E090E091958195910908958D
:1013D00080912B0390912A03891730F48F5F8093BB
:1013E0002B0380E090E008958FEF9FEF08958091A8
:1013F0002A0390E020912B03821B91090895CF923C
:10140000DF92EF92FF920F931F93CF93DF937C01B4
:10141000262F972F8A018091B103882391F0C62F40
:10142000D72F6E01C40ED51ECC15DD0571F0699164
:10143000D701ED91FC910190F081E02DC701199544
:10144000F3CF642F822F0E94B109C801DF91CF91A1
:101450001F910F91FF90EF90DF90CF900895CF9361
:10146000DF931F92CDB7DEB769832091B1032223AA
:10147000D1F02091D403203240F021E030E0FC0193
:101480003383228380E090E015C08091B203E82F7F
:10149000F0E0ED54FC4F998190838F5F8093B2030D
:1014A0008093D40305C061E0CE0101960E94B1098A
:1014B00081E090E00F90DF91CF91089590E0FC01E2
:1014C0003197E231F10508F04EC08827EE58FF4F02
:1014D0008F4F0C94C61C809180008F7703C0809141
:1014E00080008F7D80938000089580918000877FA9
:1014F000F9CF84B58F7702C084B58F7D84BD089500
:101500008091B0008F7703C08091B0008F7D809371
:10151000B0000895809190008F7707C0809190006F
:101520008F7D03C080919000877F80939000089505
:101530008091A0008F7707C08091A0008F7D03C0AD
:101540008091A000877F8093A00008958091200162
:101550008F7707C0809120018F7D03C0809120018B
:10156000877F8093200108953FB7F89480913103DD
:1015700090913203A0913303B091340326B5A89B18
:1015800005C02F3F19F00196A11DB11D3FBFBA2F15
:10159000A92F982F8827820F911DA11DB11DBC0175
:1015A000CD0142E0660F771F881F991F4A95D1F73A
:1015B00008954F925F926F927F928F929F92AF9217
:1015C000BF92CF92DF92EF92FF926B017C019B0161
:1015D000AC010E94E81D882319F081EF92E01AC047
:1015E00046015701E894B7F82FEF3FEF4FE75FE769
:1015F000C501B4010E94E81D811110C02FEF3FEF1B
:101600004FE75FE7C501B4010E944A1B181634F486
:1016100085EF92E00E947A117C017FC02FEF3FEFAF
:101620004FE75FE4C701B6010E94E31D18161CF4E2
:1016300089EF92E0EFCF2FEF3FEF4FE75FECC7016D
:10164000B6010E944A1B87FDF3CF20E030E0A901DC
:10165000C701B6010E944A1B87FF09C08DE20E94A4
:101660007F125C01F7FAF094F7F8F09402C0A12C15
:10167000B12C2AE037ED43EA5BE3C701B6010E94D3
:10168000CF1C2B013C010E94B41D6B017C010E9408
:101690004F1B9B01AC01C301B2010E94CE1C2B0168
:1016A0003C014AE0C701B6010E943E127C01EA0CEF
:1016B000FB1C8EE20E947F12E80EF91E20E030E053
:1016C00040E251E4C301B2010E94B01B2B013C0176
:1016D0000E94B41D4B01A12CB12C4AE0C501B401FC
:1016E0000E943E12E80EF91EC501B4010E944F1B74
:1016F0009B01AC01C301B2010E94CE1C20E030E08E
:1017000040E251E40E94B01B0E94B41D80E090E0D2
:101710004AE00E943E12E80EF91E8AE692E00E941C
:101720007A118E0D9F1DFF90EF90DF90CF90BF90AC
:10173000AF909F908F907F906F905F904F900895A3
:101740001F920F920FB60F9211240F900FBE0F90A1
:101750001F9018951F920F920FB60F9211240BB67F
:101760000F922F933F934F935F936F937F938F933A
:101770009F93AF93BF93EF93FF938091B900887FBE
:10178000803609F49CC068F5883209F45BC090F497
:10179000803109F454C038F4882309F4F6C0883045
:1017A00009F44DC0F6C0883109F44CC0803209F408
:1017B0005DC0EFC0803409F468C048F4803309F498
:1017C00055C0883309F0E5C08093AE03D8C080359A
:1017D00009F44FC0883509F45DC0883409F0D9C0D8
:1017E000D6C0883909F4C7C0A8F4883709F467C09F
:1017F00038F4883609F463C0803709F460C0C9C082
:10180000883809F4B8C0803909F45FC0803809F01D
:10181000C0C05BC0803B09F486C038F4803A09F44C
:1018200066C0883A09F47FC0B4C0803C09F4A7C000
:10183000883C09F4A4C0883B09F48AC0AAC08091FE
:101840008B0310C09091AD038091AC03981770F595
:10185000E091AD0381E08E0F8093AD03F0E0E4579B
:10186000FC4F80818093BB0085EC86C08093AE03E3
:101870008EC0E091AD0381E08E0F8093AD03809127
:10188000BB00F0E0E457FC4F80839091AD03809162
:10189000AC036EC0E091AD0381E08E0F8093AD0389
:1018A0008091BB00F0E0E457FC4F80838091AF0350
:1018B00081116DC081E080938A0384EA61C083E076
:1018C0008093B00310927B03CFCF80917B03803253
:1018D00008F051C0E0917B0381E08E0F80937B0381
:1018E0008091BB00F0E0E55AFC4F8083BDCF85ECD2
:1018F0008093BC001092B00380917B03803230F45F
:10190000E0917B03F0E0E55AFC4F108260917B038D
:1019100070E0E0915903F0915A038BE593E019953B
:1019200010927B0336C084E08093B003109258037A
:1019300010925703E0915503F09156031995809149
:101940005703811105C081E080935703109235033E
:10195000E091580381E08E0F80935803F0E0EB5C38
:10196000FC4F80818093BB00909158038091570376
:10197000981708F479CF85E88093BC000AC085ECFD
:101980008093BC001092B00304C01092AE030E947A
:10199000A709FF91EF91BF91AF919F918F917F9197
:1019A0006F915F914F913F912F910F900BBE0F90D0
:1019B0000FBE0F901F901895CF93DF93282F30E024
:1019C000F901E952FD4F8491F901EF56FD4FD49191
:1019D000F901E55BFD4FC491CC2391F081110E9488
:1019E0005E0AEC2FF0E0EE0FFF1FEF5CFD4FA591BC
:1019F000B491EC91ED2381E090E021F480E002C00D
:101A000080E090E0DF91CF9108951F93CF93DF9313
:101A1000282F30E0F901E952FD4F8491F901EF568A
:101A2000FD4FD491F901E55BFD4FC491CC23C9F082
:101A3000162F81110E945E0AEC2FF0E0EE0FFF1FBF
:101A4000E95EFD4FA591B4918FB7F894111105C0CF
:101A50009C91ED2FE095E92302C0EC91ED2BEC93E6
:101A60008FBFDF91CF911F910895CF93DF9390E0C7
:101A7000FC01EF56FD4F2491FC01E55BFD4F849185
:101A8000882361F190E0880F991FFC01E350FE4F1D
:101A9000C591D491FC01E95EFD4FA591B49161110E
:101AA00009C09FB7F8948881209582238883EC91A0
:101AB0002E230BC0623061F49FB7F8943881822FD7
:101AC000809583238883EC912E2B2C939FBF06C097
:101AD0008FB7F894E8812E2B28838FBFDF91CF91A9
:101AE00008958F929F92AF92BF92CF92DF92EF9222
:101AF000FF926B017C010E94B40A4B015C01C1148E
:101B0000D104E104F104F1F00E94B40ADC01CB013C
:101B100088199909AA09BB09883E9340A105B10516
:101B200070F321E0C21AD108E108F10888EE880EAE
:101B300083E0981EA11CB11CC114D104E104F1047E
:101B400019F7DDCFFF90EF90DF90CF90BF90AF906F
:101B50009F908F9008951F920F920FB60F921124AD
:101B60002F933F938F939F93AF93BF9380912D03B8
:101B700090912E03A0912F03B091300330912C034C
:101B800023E0230F2D3720F40196A11DB11D05C0C0
:101B900026E8230F0296A11DB11D20932C038093EC
:101BA0002D0390932E03A0932F03B09330038091C5
:101BB000310390913203A0913303B0913403019625
:101BC000A11DB11D8093310390933203A093330381
:101BD000B0933403BF91AF919F918F913F912F911B
:101BE0000F900FBE0F901F9018954F925F926F92BB
:101BF0007F928F929F92AF92BF92CF92DF92EF929D
:101C0000FF920F931F93CF93DF93CDB7DEB7689703
:101C10000FB6F894DEBF0FBECDBF97FF03C00FEF26
:101C20001FEF02C001E010E0BC01990F880B990B77
:101C30000E94511B2DED38E444E053E40E94B01B98
:101C40000E94AD1D9B0177FF04C022273327261B6E
:101C5000370B2901330F660877088DEA97E00E9459
:101C6000CC158FEA97E00E94CC158DEC9CECACEC87
:101C7000BDE38093010290930202A0930302B0930C
:101C800004029801110F440B550B298B3A8B4B8B97
:101C90005C8BCA01B9010E94511B69877A878B87C7
:101CA0009C872CE53FE842EC5DE30E94B01B2DECE5
:101CB0003CEC4CEC5DE30E94B01BAB01BC0189EA3B
:101CC00097E00E9404142DEC3CEC4CEC5DE369853C
:101CD0007A858B859C850E94B01BAB01BC01705836
:101CE0008BEA97E00E9404141D861E861F86188AC0
:101CF0008DEA97E00E94F715909580957095619513
:101D00007F4F8F4F9F4F29893A894B895C890E9469
:101D1000AA1C69837A838B839C8360938603709368
:101D2000870380938803909389038FEA97E00E944A
:101D3000F71529893A894B895C890E94AA1C6D8311
:101D40007E838F839887609382037093830380934D
:101D500084039093850369817A818B819C812D8195
:101D60003E814F815885621B730B840B950B0E943B
:101D7000511B4B015C019B01AC016D857E858F85FC
:101D800098890E94CF1C6D877E878F87988BC09023
:101D90000102D0900202E0900302F090040220E0E1
:101DA00030E040E85FE3C701B6010E944A1B87FFAD
:101DB00010C02DEC3CEC4CEC5DE3C701B6010E9479
:101DC000CF1C6093010270930202809303029093F0
:101DD00004022091010230910202409103025091CD
:101DE000040269857A858B859C850E94B01B6B01F6
:101DF0007C0120E030E04AEF53E4C501B4010E94C9
:101E00003B1D6D8B7E8B8F8B988F20E034E244E7F7
:101E100059E46D857E858F8598890E943B1D4B0115
:101E20005C012D893E894F89588D60E070E080E823
:101E30009FE30E94CE1CA50194010E94CE1C9B0131
:101E4000AC01C701B6010E94B01BAB01BC0189EA1D
:101E500097E00E94041420E030E040E85FE36D89E1
:101E60007E898F89988D0E94CF1CA50194010E94C4
:101E7000CF1C9B01AC01C701B6010E94B01BAB0196
:101E8000BC0170588BEA97E00E94041464E670E08D
:101E900080E090E00E94710D89819A81AB81BC81C4
:101EA000481659066A067B063CF440E050E0BA0149
:101EB00089EA97E00E9404142D813E814F81588564
:101EC000421653066406750644F440E050E060E0B4
:101ED00070E88BEA97E00E94041489819A81AB81B3
:101EE000BC8184159505A605B7050CF401CF2D819D
:101EF0003E814F81588524153505460557050CF45C
:101F0000F7CE68960FB6F894DEBF0FBECDBFDF9157
:101F1000CF911F910F91FF90EF90DF90CF90BF90E6
:101F2000AF909F908F907F906F905F904F900895AB
:101F30004F925F926F927F928F929F92AF92BF92D9
:101F4000CF92DF92EF92FF92CF93DF93CDB7DEB7C0
:101F500028970FB6F894DEBF0FBECDBF6B017C0192
:101F60008DEA97E00E94CC158FEA97E00E94CC158D
:101F700040E050E0BA0189EA97E00E94041420E0B2
:101F800030E0A901C701B6010E944A1B87FF1EC0AD
:101F900020E030E545E755E4C701B6010E94B01BDB
:101FA00020E030E044EB52E40E943B1D0E94AD1D56
:101FB0006B0177FF04C0CC24DD24C61AD70A0D2C90
:101FC000000CEE08FF088FEF9FEF1DC020E030EF00
:101FD00045E755E4C701B6010E94B01B20E030E0A0
:101FE00044EB52E40E943B1D0E94AD1D6B0177FF44
:101FF00004C0CC24DD24C61AD70A0D2C000CEE0830
:10200000FF0881E090E0812C912C54019C01990FF4
:10201000440B550B29833A834B835C83D701C6015C
:102020008F519340A109B1098D839E83AF83B887F7
:1020300069817A818B819C810E94511BA501940149
:102040000E94B01BAB01BC0189EA97E00E94041416
:102050008DEA97E00E94F7159095809570956195AF
:102060007F4F8F4F9F4F29813A814B815C810E9426
:10207000AA1C2B013C016093860370938703809315
:102080008803909389038FEA97E00E94F715609385
:1020900082037093830380938403909385032D813F
:1020A0003E814F81588542165306640675069CF0A2
:1020B0002DEC3CEC4CEC5DE3C501B4010E94E31D4A
:1020C0001816F4F42AE037ED43EA5CE3C501B401E5
:1020D0000E94CE1C12C02DEC3CEC4CEC5EE3C50122
:1020E000B4010E944A1B87FF12C02AE037ED43EA81
:1020F0005BE3C501B4010E94CF1C4B015C0107C02A
:102100008DEC882E8CEC982EA92C8DE3B82E6AE0ED
:1021100070E080E090E00E94710D4C145D046E044C
:102120007F040CF485CF40E050E0BA0189EA97E0E3
:102130000E94041440E050E060E070E88BEA97E011
:102140000E94041464E670E080E090E00E94710D4B
:102150008DEF92E00E94C612C501B4010E94D90A17
:102160008FE492E00E94C61260918603709187030B
:1021700080918803909189030E948A1289E592E0F8
:102180000E94C612C701B6010E948A128AE692E036
:102190000E947A118DE692E00E94C612609182033D
:1021A0007091830380918403909185030E948A1229
:1021B00087E792E00E948C118091860390918703BB
:1021C0008C199D09909381038093800380918203F1
:1021D0009091830390937F0380937E0389E892E03C
:1021E0000E94C6126091800370918103072E000C3B
:1021F000880B990B0E948A128AE992E00E94C6120B
:1022000080917E0390917F030E94B412E0907E0340
:10221000F0907F03882799278E199F090E94C70194
:102220008E0D9F1D90937F0380937E03E09080032B
:10223000F0908103882799278E199F090E945502E3
:102240008E0D9F1D909381038093800381EA92E01D
:102250000E94C6126091800370918103072E000CCA
:10226000880B990B0E948A1286EB92E00E94C6129C
:1022700080917E0390917F0328960FB6F894DEBF7D
:102280000FBECDBFDF91CF91FF90EF90DF90CF9049
:10229000BF90AF909F908F907F906F905F904F9086
:1022A0000C94B412EBE1F5E0A089B18982E08C9343
:1022B000A485B5851C92A685B7858FEC8C93108E6E
:1022C000A489B58986E08C93A289B3898C918061B9
:1022D0008C93A289B3898C9188608C93A289B389ED
:1022E0008C9180688C930288F389E02D80818F7DAA
:1022F00080830895009769F0FC0101900020E9F7C0
:102300003197AF01481B590BBC018BE195E00C9450
:10231000E10680E090E00895CF93DF930E947A1168
:10232000EC018AE692E00E947A118C0F9D1FDF91EA
:10233000CF9108952091D4039091D303213208F0D6
:102340004AC08091B0038111FCCF32E03093B003DA
:1023500031E03093AF033FEF3093AE031092AD0303
:102360002093AC03A3EBB3E04CE853E0FA013E2F1B
:10237000341B321718F43D913193F9CF10928B032F
:1023800020918B03990F922B90938B0390918A034A
:10239000913061F410928A0390918B039093BB006B
:1023A0009091BC0093FDF8CF95EC01C095EE909311
:1023B000BC009091B0039230E1F39091AE039F3F47
:1023C00079F08091AE03803241F08091AE0380338A
:1023D00031F084E005C081E003C082E001C083E009
:1023E0001092B2031092D4031092B1030895EF92A9
:1023F000FF921F93CF93DF931F92CDB7DEB7162FB7
:1024000090E9E92E97E0F92ED7011C969C911C9734
:1024100021E02093B1039093D3031092B203109262
:10242000D4031A960D90BC91A02DED91FC911197BB
:102430000190F081E02D682FCD0179831995F70186
:1024400082859385DC01ED91FC910190F081E02D76
:102450007981672F1995F70182859385DC01ED91CC
:10246000FC910190F081E02D612F19950F90DF9183
:10247000CF911F91FF90EF900C949A118F929F92A1
:10248000AF92BF920F931F93CF93DF93CDB7DEB779
:10249000A1970FB6F894DEBF0FBECDBF19A2423090
:1024A00008F44AE08E010F5D1F4F842E912CA12C61
:1024B000B12CA50194010E94791CE62FB901CA0133
:1024C00001501109EA3014F4E05D01C0E95CD80163
:1024D000EC93232B242B252B61F7C8010E947A1142
:1024E000A1960FB6F894DEBF0FBECDBFDF91CF919E
:1024F0001F910F91BF90AF909F908F900895E091A2
:102500001B05F0911C050190F081E02D682F8BE1F7
:1025100095E01994CF92DF92EF92FF92CF93DF93E1
:1025200097FF19C06B017C018DE20E947F12EC01C4
:1025300066277727CB016C197D098E099F094AE030
:102540000E943E128C0F9D1FDF91CF91FF90EF9064
:10255000DF90CF9008954AE0DF91CF91FF90EF9008
:10256000DF90CF900C943E12CF93DF93BC01990F74
:10257000880B990B0E948A12EC018AE692E00E9475
:102580007A118C0F9D1FDF91CF9108950C947A11D1
:1025900080E090E0892B21F00E947607811119C01C
:1025A00080E090E0892B41F080E090E0892B21F0E1
:1025B0000E940000811110C00E946C0781110FC0A1
:1025C00080E090E0892B81F00E94620781110AC0AF
:1025D00008950E940000E4CF0E940000EDCF0E9409
:1025E000C401EECF0C9400000895089580E090E0BF
:1025F0000895FC01248131E03093B1032093D3038B
:102600001092B2031092D4038485682B85ED93E079
:102610000E942F0A0C949A110F931F93CF938C0151
:10262000C62F64600E94F9126C2F6B7FC8010E9454
:10263000F91283EC90E00197F1F7CF911F910F9180
:1026400008950F931F93CF93DF938C01C62FD62F3E
:10265000D07FD1606D2F0E94F9126D2FC8010E94AA
:102660000C1380E1C89FB0011124C62FC1606C2FEC
:10267000C8010E94F9126C2FC8010E940C1381E05E
:1026800090E0DF91CF911F910F9108951F920F92CB
:102690000FB60F9211240BB60F922F933F934F93C7
:1026A0005F936F937F938F939F93AF93BF93EF93BA
:1026B000FF938091B9050E94DC0C2091BD053091FB
:1026C000BE052F5F3F4F3093BE052093BD0590910F
:1026D000BC05953618F096E09093B8059091B80532
:1026E0009430C9F128F4923069F09330D1F05EC093
:1026F000953009F451C0963009F058C091E090939C
:10270000890651C0811152C02091BD053091BE058E
:102710002436310508F442C0109289061092BC0597
:102720001CC0813009F042C0E091BC0591E09E0FD1
:102730009093BC05F0E02091BD053091BE05EE0FF1
:10274000FF1FE854FA4F308727831092BE0510927E
:10275000BD0594E029C0811117C0E091BC0591E04E
:102760009E0F9093BC05F0E02091BD053091BE0511
:10277000EE0FFF1FE854FA4F308727831092BE05F3
:102780001092BD0593E010C02091BD053091BE05AB
:102790002536310558F007C0811108C01092BE05DA
:1027A0001092BD0503C095E09093B8059091BB05CC
:1027B0009923B9F081110AC08091BA05882321F0CC
:1027C0008091BA0561E009C02F9A0BC08091BA05CB
:1027D000882331F08091BA0560E00E94050D01C0A8
:1027E0002F98FF91EF91BF91AF919F918F917F9122
:1027F0006F915F914F913F912F910F900BBE0F9072
:102800000FBE0F901F9018958F929F92AF92BF921C
:10281000CF92DF92EF92FF920F931F93CF93DF93AC
:10282000EC016A017B0120E030E04FE753E4C7018F
:10283000B6010E94B01B4B015C0120E030E0A90111
:102840000E94E31D18161CF4C501B40103C0C501A4
:10285000B40190580E94AD1D8B0120E030E0A90129
:10286000C701B6010E94E31D181614F460E001C010
:1028700061E089810E94050D0F3F110509F014F4F4
:10288000112702C00FEF10E0C88161E08C2F0E9479
:10289000350D0115110509F4B1C00F3F110509F4FB
:1028A000AFC0EC2FF0E0E952FD4FE4914E2F50E025
:1028B000FA013197E231F10508F09DC08827EC5705
:1028C000FF4F8F4F0C94C61C84B5806884BD07BD34
:1028D000A7C084B5806284BD08BDA2C0809180007D
:1028E000806880938000109389000093880098C0CE
:1028F0008091800080628093800010938B00009311
:102900008A008EC080918000886080938000109340
:102910008D0000938C0084C08091B000806880930B
:10292000B0000093B3007CC08091B00080628093BF
:10293000B0000093B40074C08091900080688093D0
:10294000900010939900009398006AC080919000C5
:1029500080628093900010939B0000939A0060C067
:102960008091900088608093900010939D00009368
:102970009C0056C08091A00080688093A000809148
:10298000A0008F7B8093A0001093A9000093A80063
:1029900047C08091A00080628093A0001093AB009C
:1029A0000093AA003DC08091A00088608093A000A1
:1029B0001093AD000093AC0033C08091200180687B
:1029C00080932001109329010093280129C0809150
:1029D000200180628093200110932B0100932A0133
:1029E0001FC08091200188608093200110932D01E9
:1029F00000932C0115C00038110514F460E001C0EB
:102A000061E08C2FDF91CF911F910F91FF90EF909C
:102A1000DF90CF90BF90AF909F908F900C94050D5A
:102A2000DF91CF911F910F91FF90EF90DF90CF90AA
:102A3000BF90AF909F908F9008951F920F920FB606
:102A40000F9211240BB60F922F933F934F935F93E6
:102A50006F937F938F939F93AF93BF93EF93FF9366
:102A60008091C70787FF05C01092850010928400EF
:102A700016C02091C707022E000C330B8091C606AA
:102A800090E0281739075CF43091C70725E032033E
:102A9000F0011124E657F94F808186FD15C0809121
:102AA000C7078F5F8093C7072091C707022E000CCE
:102AB000330B8091C60690E02817390794F4809173
:102AC000C7078C302CF10DC03091C7073203F001DD
:102AD0001124E657F94F808160E08F730E94050D45
:102AE000DECF809184009091850084349C4918F455
:102AF00080E49CE905C08091840090918500049653
:102B000090938900809388008FEF8093C7072AC035
:102B100040918400509185003091C70725E0320331
:102B2000F0011124E657F94F81819281840F951F9E
:102B300090938900809388003091C7073203F00199
:102B40001124E657F94F808186FF0CC03091C707EA
:102B50003203F0011124E657F94F808161E08F7351
:102B60000E94050DFF91EF91BF91AF919F918F91C1
:102B70007F916F915F914F913F912F910F900BBE7D
:102B80000F900FBE0F901F9018958EBD00000DB4D2
:102B900007FEFDCF8EB50895CF93DF93EC0160E083
:102BA00088810E94050D88E90E94C51580E00E9479
:102BB000C51580E00E94C51580E00E94C51580E023
:102BC0000E94C51561E088810E94050D8BE891E0A7
:102BD0000197F1F760E088810E94050D80EE0E9468
:102BE000C51561E08881DF91CF910C94050DAF92FE
:102BF000BF92CF92DF92EF92FF920F931F93CF93EA
:102C0000DF93CDB7DEB760970FB6F894DEBF0FBE87
:102C1000CDBF5C0160E0FC0180810E94050D80E673
:102C20000E94C5158E010F5F1F4F7E01F1E1EF0E6F
:102C3000F11C680180E00E94C51590E0A0E0B0E0C2
:102C4000F60181939193A193B1936F01EE15FF0566
:102C500089F761E0F50180810E94050D80E090E038
:102C6000DC01F80141915191619171918F01BA2F6D
:102C7000A92F982F8827840F951FA61FB71FEE1521
:102C8000FF0579F79C01AD0166277727CB01621B11
:102C9000730B840B950B60960FB6F894DEBF0FBED6
:102CA000CDBFDF91CF911F910F91FF90EF90DF90FB
:102CB000CF90BF90AF900895789484B5826084BD22
:102CC00084B5816084BD85B5826085BD85B5816030
:102CD00085BD80916E00816080936E0010928100AE
:102CE0008091810082608093810080918100816069
:102CF000809381008091800081608093800080912A
:102D0000B10084608093B1008091B00081608093B5
:102D1000B000809191008260809391008091910039
:102D200081608093910080919000816080939000F9
:102D30008091A10082608093A1008091A1008160B8
:102D40008093A1008091A00081608093A000809179
:102D50002101826080932101809121018160809313
:102D600021018091200181608093200180917A006F
:102D7000846080937A0080917A00826080937A00E8
:102D800080917A00816080937A0080917A008068D7
:102D900080937A001092C1000E94521161E08091EC
:102DA00091070E94350D60E0809191070E94050D0A
:102DB00060E0809190070E94350D85ED93E090933F
:102DC0009B0780939A0710922B0310922A0310926C
:102DD000B2031092D4031092B00381E08093AF034A
:102DE00010928A0361E084E10E94050D61E085E1B3
:102DF0000E94050D8091B9008E7F8093B90080916B
:102E0000B9008D7F8093B90088E48093B80085E491
:102E10008093BC0080E090E1A0E0B0E080939D074B
:102E200090939E07A0939F07B093A0078AE090E03D
:102E3000A0E0B0E08093A1079093A207A093A3071E
:102E4000B093A40780E090E0A0E0B0E48093A507F1
:102E50009093A607A093A707B093A80760E070E13E
:102E600085E00E94F7116FE979E380E00E94F71195
:102E7000CDEAD7E0C12CD12CE12CF12C50E8652E05
:102E800052E0752E66EC862E62E0962E7BECA72E25
:102E900077E0B72EC7018057984F2C01FC01948131
:102EA000828186010057184FF801818F928F61E06F
:102EB0000E94350D61E0F801828D0E94350DF2010E
:102EC000908586818883F801968F61E00E94350D98
:102ED00060E0F801868D0E94350D61E088810E94D6
:102EE000050D1FB7F89480912903811125C0F301C6
:102EF0008491F4019491E82FF0E0EE0FFF1FE3506E
:102F0000FE4FA591B4918C91982321F461E085E363
:102F10000E94050D61E085E30E94350D8CB580614E
:102F20008CBD8CB580648CBD61E084E30E94350D5E
:102F300061E083E30E94350D809129038F5F8093C8
:102F400029031FBFC5010197F1F760E088810E9446
:102F5000050D88E80E94C51583E00E94C51561E053
:102F600088810E94050DC5010197F1F7CE010E94ED
:102F7000CC15F2E0CF0ED11C2296EA94EF2821F076
:102F8000EE24E394F12C86CFC5EBD7E01C2F1C5F19
:102F900060E089910E94350D1C13FACF04EC17E014
:102FA000C1ECD7E085E0C82E9CE0E92E22E0B22EED
:102FB000DC2ED394D394FE013897F08088818C3036
:102FC00008F044C061E08F2D0E94350D8881C89EB5
:102FD000F0011124E657F94F9F2D9F732081207C2B
:102FE000F22EF92AF082138214826E2D0E94BA1CEE
:102FF000ECE08E9FA001112420E030E0B901640FC5
:10300000751FC69EF001C79EF00D1124E657F94FBB
:10301000908196FD12C02F5F3F4F2C30310571F724
:1030200081110BC010928000B09281001092850037
:1030300010928400B6BAB0926F00E881CE9EF00183
:103040001124E657F94F808180648083FE01349714
:103050008081F80131978083F801808360E00E94CD
:10306000350D61E0F80180810E94350D60E0F801C6
:1030700080810E94050D21960E5F1F4FDC129BCFB1
:103080008DEA97E00E94CC158FEA97E00E94CC155C
:103090000E9452118091B8070E94DC0C892BD1F359
:1030A0008DED92E00E948C1160E070E084E593E485
:1030B0000E949A048FED92E00E948C1160E070E013
:1030C00084EB92E40E94E30260E070E080EE91E421
:1030D0000E949A0481EE92E00E948C1160E070E000
:1030E00084EB92E40E94980F60E070E080EC91E441
:1030F0000E949A0483EE92E00E948C1160E070E0DE
:1031000084EB92E40E94980F60E070E080EE91E41E
:103110000E949A0485EE92E00E948C1160E070E0BB
:1031200084EB92E40E94E30260E070E088ED91E4B9
:103130000E949A0487EE92E00E948C1163E373E38D
:1031400083E392E40E94980F60E070E080E192E4F3
:103150000E949A0489EE92E00E948C1160E070E077
:1031600084EB92E40E94E30260E070E08CE892E479
:103170000E949A048BEE92E00E948C1163E373E349
:1031800083E392E40E94980F60E070E080E092E4B4
:103190000E949A048DEE92E00E948C1160E070E033
:1031A00080E291E40E94980F60E070E084EB92E48A
:1031B0000E949A048FEE92E00E948C1164E670E007
:1031C00080E090E00E94710D60E070E084EB92EC92
:1031D0000E949A048DEE92E00E948C1160E070E0F3
:1031E00088E191EC0E94980F60E070E080E092EC42
:1031F0000E949A048BEE92E00E948C116AE979E9B0
:1032000081E392EC0E94980F60E070E08CE892EC11
:103210000E949A0489EE92E00E948C1160E070E0B6
:1032200084EB92EC0E94E30260E070E080E192ECBB
:103230000E949A0487EE92E00E948C116AE979E973
:1032400081E392EC0E94980F89EE9FEF0E94F50DAA
:1032500085EE92E00E948C1160E070E084EB92ECCD
:103260000E94E30284EE9FEF0E94F50D83EE92E050
:103270000E948C1160E070E084EB92EC0E94980F49
:1032800088EE9FEF0E94F50D81EE92E00E948C1176
:1032900060E070E084EB92EC0E94980F8CED9FEF61
:1032A0000E94F50D8FED92E00E948C1160E070E0BD
:1032B00084EB92EC0E94E3028CE29FEF0E94F50DFA
:1032C0006AE070E080E090E00E94710D0E94C812F8
:1032D000F7CF1092D8031092D70388EE93E0A0E0C6
:1032E000B0E08093D9039093DA03A093DB03B0930B
:1032F000DC032FE032E03093D6032093D503109205
:10330000E4031092E3038093E5039093E603A09314
:10331000E703B093E80321E232E03093E203209325
:10332000E10345E351E05093EE034093ED0344E3A2
:1033300051E05093F0034093EF0340E351E050938A
:10334000F2034093F10341E351E05093F4034093BF
:10335000F30342E351E05093F6034093F50346E351
:1033600051E05093F8034093F7031092FA03109240
:10337000FB031092FC031092FD0310928104109243
:1033800080048093820490938304A0938404B09378
:10339000850430937F0420937E0445ED50E05093E4
:1033A0008B0440938A0444ED50E050938D04409385
:1033B0008C0440ED50E050938F0440938E0441ED17
:1033C00050E0509391044093900442ED50E05093AC
:1033D00093044093920446ED50E05093950440933B
:1033E00094041092970410929804109299041092E9
:1033F0009A0410921E0510921D0580931F0590934C
:103400002005A0932105B093220530931C0520933D
:103410001B0585EC90E0909328058093270584ECAC
:1034200090E090932A058093290580EC90E090939A
:103430002C0580932B0581EC90E090932E058093D2
:103440002D0582EC90E09093300580932F0586EC5B
:1034500090E09093320580933105109234051092DC
:103460003505109236051092370586E38093B10733
:1034700087E38093B20788E38093B30789E380935F
:10348000B4078BE18093B5078DE18093B6078AE19D
:103490008093B7078CE18093B80784E08093B907E5
:1034A00087E08093BA071092BB0784EB8093BC0738
:1034B00086E18093BD0788E18093BE0787E1809312
:1034C000BF0789E18093C007E091C606EC3020F089
:1034D0008FEF8093C10710C081E08E0F8093C606E6
:1034E000E093C10725E0E29FF0011124E657F94F70
:1034F00088EB9BE092838183E091C606EC3020F05C
:103500008FEF8093C20710C081E08E0F8093C606B4
:10351000E093C20785E0E89FF0011124E657F94FD8
:1035200088EB9BE0928381838CE08093900784E218
:103530008093910786E08093920785E080939307BC
:103540008FE1809394078EE18093950783E28093C7
:10355000960782E28093970785E48093980784E436
:103560008093990780E480939C071092A1071092A2
:10357000A2071092A3071092A4071092A507109219
:10358000A6071092A7071092A807E2EDF6E08FEFCA
:103590009FEFDC0112821382148215821682178239
:1035A0001086118683879487A587B6878787908B37
:1035B000A18BB28B128611821082739627E0E039BC
:1035C000F20741F78DE090E00E94ED1DFC011382AF
:1035D000128283E392E091838083118687E2848361
:1035E00084E1828784E083871486F093CF06E0939A
:1035F000CE061092D0061092D10685E28093B905CE
:103600001092BB051092C8061092C7061092CA0607
:103610001092C9061092CC061092CB0661E070E0C1
:1036200080E090E00E941A1F009789F09093C806EE
:103630008093C7061092CA061092C9062091CB0645
:103640003091CC06232BC1F4FC01108215C080916F
:10365000C7069091C806009711F00E94821E109232
:10366000C8061092C7061092CC061092CB06109294
:10367000CA061092C90608951092CC061092CB0685
:103680006CE672E00C9411208091C7069091C806F8
:103690000C94821E0E948C1B08F481E00895E8942B
:1036A00009C097FB3EF490958095709561957F4F8A
:1036B0008F4F9F4F9923A9F0F92F96E9BB27939538
:1036C000F695879577956795B795F111F8CFFAF448
:1036D000BB0F11F460FF1BC06F5F7F4F8F4F9F4F79
:1036E00016C0882311F096E911C0772321F09EE8D7
:1036F000872F762F05C0662371F096E8862F70E03D
:1037000060E02AF09A95660F771F881FDAF7880F16
:103710009695879597F90895990F0008550FAA0B6C
:10372000E0E8FEEF16161706E807F907C0F01216D4
:103730001306E407F50798F0621B730B840B950BD7
:1037400039F40A2661F0232B242B252B21F408952C
:103750000A2609F4A140A6958FEF811D811D0895C9
:103760000E94C31B0C94341C0E94261C38F00E943B
:103770002D1C20F0952311F00C941D1C0C94231C7F
:1037800011240C94681C0E94451C70F3959FC1F392
:10379000950F50E0551F629FF001729FBB27F00DFF
:1037A000B11D639FAA27F00DB11DAA1F649F662754
:1037B000B00DA11D661F829F2227B00DA11D621FA3
:1037C000739FB00DA11D621F839FA00D611D221F5D
:1037D000749F3327A00D611D231F849F600D211D41
:1037E000822F762F6A2F11249F5750409AF0F1F0C4
:1037F00088234AF0EE0FFF1FBB1F661F771F881F2D
:1038000091505040A9F79E3F510580F00C941D1C2B
:103810000C94681C5F3FE4F3983ED4F3869577954B
:103820006795B795F795E7959F5FC1F7FE2B880FD2
:10383000911D9695879597F9089597F99F6780E868
:1038400070E060E008959FEF80EC089500240A94F2
:103850001616170618060906089500240A9412166B
:103860001306140605060895092E0394000C11F49E
:10387000882352F0BB0F40F4BF2B11F460FF04C04B
:103880006F5F7F4F8F4F9F4F089557FD9058440FA4
:10389000551F59F05F3F71F04795880F97FB991FAF
:1038A00061F09F3F79F0879508951216130614066C
:1038B000551FF2CF4695F1DF08C0161617061806F9
:1038C000991FF1CF86957105610508940895E894D4
:1038D000BB2766277727CB0197F908950E949B1C89
:1038E000A59F900DB49F900DA49F800D911D112454
:1038F0000895A1E21A2EAA1BBB1BFD010DC0AA1F31
:10390000BB1FEE1FFF1FA217B307E407F50720F048
:10391000A21BB30BE40BF50B661F771F881F991FC3
:103920001A9469F760957095809590959B01AC010C
:10393000BD01CF010895A29FB001B39FC001A39F15
:10394000700D811D1124911DB29F700D811D1124D8
:10395000911D0895DB018F939F930E946E1CBF9170
:10396000AF91A29F800D911DA39F900DB29F900DCE
:1039700011240895991B79E004C0991F961708F047
:10398000961B881F7A95C9F780950895EE0FFF1F43
:10399000881F8BBF0790F691E02D19945058BB27D4
:1039A000AA270E94E61C0C94341C0E94261C38F0A6
:1039B0000E942D1C20F039F49F3F19F426F40C943A
:1039C000231C0EF4E095E7FB0C941D1CE92F0E94CC
:1039D000451C58F3BA17620773078407950720F050
:1039E00079F4A6F50C94671C0EF4E0950B2EBA2F13
:1039F000A02D0B01B90190010C01CA01A0011124F5
:103A0000FF27591B99F0593F50F4503E68F11A16A0
:103A1000F040A22F232F342F4427585FF3CF469531
:103A200037952795A795F0405395C9F77EF41F1653
:103A3000BA0B620B730B840BBAF09150A1F0FF0F1D
:103A4000BB1F661F771F881FC2F70EC0BA0F621F09
:103A5000731F841F48F4879577956795B795F795F9
:103A60009E3F08F0B0CF9395880F08F09927EE0F8E
:103A70009795879508950E944F1D0C94341C0E94C1
:103A80002D1C58F00E94261C40F029F45F3F29F0BD
:103A90000C941D1C51110C94681C0C94231C0E9446
:103AA000451C68F39923B1F3552391F3951B550BEE
:103AB000BB27AA2762177307840738F09F5F5F4F01
:103AC000220F331F441FAA1FA9F335D00E2E3AF040
:103AD000E0E832D091505040E695001CCAF72BD058
:103AE000FE2F29D0660F771F881FBB1F26173707A9
:103AF0004807AB07B0E809F0BB0B802DBF01FF27DB
:103B000093585F4F3AF09E3F510578F00C941D1C7E
:103B10000C94681C5F3FE4F3983ED4F38695779548
:103B20006795B795F7959F5FC9F7880F911D969593
:103B3000879597F90895E1E0660F771F881FBB1FEF
:103B4000621773078407BA0720F0621B730B840B9C
:103B5000BA0BEE1F88F7E09508950E94B41D689493
:103B6000B1110C94681C08950E944D1C88F09F5759
:103B700098F0B92F9927B751B0F0E1F0660F771F91
:103B8000881F991F1AF0BA95C9F714C0B13091F087
:103B90000E94671CB1E008950C94671C672F782F72
:103BA0008827B85F39F0B93FCCF38695779567954C
:103BB000B395D9F73EF490958095709561957F4FB8
:103BC0008F4F9F4F08950E948C1B08F48FEF08952C
:103BD0000E948C1B880B990B0895CF93DF93823042
:103BE000910510F482E090E0E091CA07F091CB07D4
:103BF00020E030E0C0E0D0E0309711F14081518109
:103C000048175907C0F04817590761F4828193811A
:103C1000209719F09B838A832BC09093CB078093C6
:103C2000CA0726C02115310519F04217530718F4A9
:103C30009A01BE01DF01EF010280F381E02DDCCFAC
:103C40002115310509F1281B390B2430310590F479
:103C500012968D919C9113976115710521F0FB01CE
:103C60009383828304C09093CB078093CA07FD019E
:103C7000329644C0FD01E20FF31F819391932250CD
:103C800031092D933C933AC02091C8073091C90760
:103C9000232B41F420910702309108023093C90789
:103CA0002093C807209105023091060221153105A5
:103CB00041F42DB73EB74091090250910A02241BEE
:103CC000350BE091C807F091C907E217F307A0F49C
:103CD0002E1B3F0B2817390778F0AC014E5F5F4F62
:103CE0002417350748F04E0F5F1F5093C9074093C4
:103CF000C8078193919302C0E0E0F0E0CF01DF912B
:103D0000CF9108950F931F93CF93DF93009709F4FA
:103D10008CC0FC013297138212820091CA07109165
:103D2000CB070115110581F420813181820F931F8A
:103D30002091C8073091C9072817390779F5F09302
:103D4000C907E093C80771C0D80140E050E0AE1742
:103D5000BF0750F412962D913C911397AD01211598
:103D6000310509F1D901F3CF9D01DA0133832283B3
:103D700060817181860F971F8217930769F4EC01A8
:103D800028813981260F371F2E5F3F4F31832083D3
:103D90008A819B8193838283452B29F4F093CB07FF
:103DA000E093CA0742C01396FC93EE931297ED017D
:103DB000499159919E01240F351FE217F30771F4C1
:103DC00080819181840F951F029611969C938E930A
:103DD0008281938113969C938E931297E0E0F0E09A
:103DE000D80112968D919C911397009719F0F801C4
:103DF0008C01F6CF8D919C9198012E5F3F4F820FE1
:103E0000931F2091C8073091C9072817390769F413
:103E1000309729F41092CB071092CA0702C0138280
:103E200012821093C9070093C807DF91CF911F91A9
:103E30000F9108956F927F928F929F92AF92BF924F
:103E4000CF92DF92EF92FF920F931F93CF93DF9366
:103E5000EC01009789F4CB01DF91CF911F910F9175
:103E6000FF90EF90DF90CF90BF90AF909F908F909A
:103E70007F906F900C94ED1DFC01E60FF71F9C01E5
:103E800022503109E217F30708F4ACC0D9010D91B3
:103E90001C91119706171707B0F00530110508F4AB
:103EA0009FC0C80104978617970708F499C002506D
:103EB0001109061B170B019311936D937C93CF018E
:103EC0000E94821E8DC05B01A01AB10A4C01800EB7
:103ED000911EA091CA07B091CB0740E050E0E12CC1
:103EE000F12C109709F44AC0A815B905D1F56D90C9
:103EF0007C901197630182E0C80ED11CCA14DB04C8
:103F000080F1A3014A195B096A0182E0C80ED11C45
:103F10001296BC9012971396AC91B5E0CB16D104D3
:103F200040F0B282A38351834083D9016D937C9387
:103F30000AC00E5F1F4FC301800F911FF9019183CB
:103F40008083EB2DFA2FE114F10431F0D7011396A1
:103F5000FC93EE93129744C0F093CB07E093CA070B
:103F60003FC08D919C9111974817590708F4AC01F7
:103F70007D0112960D90BC91A02DB3CF8091C80702
:103F80009091C90788159905E1F446175707C8F4B9
:103F90008091050290910602009741F48DB79EB77B
:103FA0004091090250910A02841B950BE817F9070A
:103FB000C8F4F093C907E093C807F90171836083DF
:103FC0000FC0CB010E94ED1D7C01009759F0A801A4
:103FD000BE010E940820CE010E94821EC70104C0BB
:103FE000CE0102C080E090E0DF91CF911F910F9150
:103FF000FF90EF90DF90CF90BF90AF909F908F9009
:104000007F906F90089581E090E0F8940C941820D0
:10401000FB01DC0102C001900D9241505040D8F7E5
:104020000895FB01DC0101900D920020E1F7089555
:1040300011E0C0E9D1E000E006C0802FFE010E943F
:10404000C61C2196011DC139D10780E00807A9F7D8
:04405000F894FFCF12
:10405400FFCDCCCC3E0000CC072000000000002F98
:104064000AFF09F612D909F709E809DA090000007C
:1040740000A107E1062507E80756073407480700AB
:104084000000002113E106F612F51246494E4920BC
:10409400746F75726E657220676175636865004739
:1040A4006175636865203D2000207C207468C3A985
:1040B4006F7269717565203D20000D0A0044726FAE
:1040C400697465203D2000207C207468C3A96F7248
:1040D40069717565203D203000524542414C414E86
:1040E400434147453A20673D2000207C20643D2021
:1040F4000045525245555220544F54203D2067618B
:10410400756368653A002064726F6974653A0046A5
:10411400494E49206176616E6365722C2073706527
:1041240065642066696E616C65203D200041004233
:104134000043004400450046004700480049004A47
:10414400006E616E00696E66006F76660046494EC9
:104154004920746F75726E65722064726F6974653C
:104164002C2073706565642066696E616C65203D02
:02417400200029
:00000001FF
