:100000000C9484010C94B5010C94B5010C94B501C9
:100010000C94B5010C94B5010C94B5010C94B50188
:100020000C94B5010C94CD0C0C94CD0C0C94CD0C0F
:100030000C94B5010C9428040C94B5010C94B501F2
:100040000C94B5010C94FD070C94B5010C94B5010A
:100050000C94B5010C94B5010C94B5010C94781076
:100060000C94B5010C9499050C946F050C94B50192
:100070000C94B5010C94B5010C94B5010C94B50128
:100080000C94CF070C94B5010C94B5010C94B501F8
:100090000C94B5010C94B5010C94B5010C94D70CDB
:1000A0000C94B5010C94B5010C94A1070C94B50106
:1000B0000C94B5010C94B5010C94B5010C94730724
:1000C0000C94B5010C94B5010C94B5010C94450544
:1000D0000C941B050C94B5010C94F1040C94C7040A
:1000E0000C94B501230628062D0637064106BA06EC
:1000F0004B0653065B0665066F0679068806920670
:10010000BA069C06A606B006380E3B0E2A0E2E0E28
:10011000320E720E3F0E430E490E4D0E510E570E0B
:100120005B0E5F0E720E650E690E6D0E0C94A606C8
:100130000C947C150C949C060C94380E0C94A70B14
:100140000C945F0E0C94BA060C946D0E0C94790608
:100150000C94C2100C9411030C944B060C942D06B5
:100160000C942E0E0C94490E0C9437060C94FB0143
:100170000C945B0E0C9403040C94B0060C945B0678
:100180000C9453060C940A020C94570E0C94880697
:100190000C94510E0C9410030C942C020C94320EFF
:1001A0000C94810B0C94720E0C94650E0C946F06DB
:1001B0000C94820B0C9492060C94430E0C943F0EFC
:1001C0000C941E020C94900B0C942A0E0C94690E45
:1001D0000C943B0E0C9477020C9441060C94280668
:1001E0000C94D70B0C94B7010C94BE020C9423060C
:1001F0000C944D0E0C949F0B0C946506020000228B
:1002000000250028002B002E0031003400020100E0
:1002100000050108010B010505050507050808088B
:1002200008020202020A0A08080404040401010187
:10023000010101010103030303030303030407078F
:10024000070C0C0C0C0C0C0C0C020202020606062D
:1002500006060606060B0B0B0B0B0B0B0B01021015
:1002600020200808102040102040800201020108D0
:100270000402010102040810204080804020100880
:1002800004020180040201804020100804020108D9
:100290000402010102040810204080010204081039
:1002A00020408000000A0B02090C0D0E0807030411
:1002B000010000000000000000000000000000003D
:1002C000000000000000000000000000000000121C
:1002D00011100000000000000000000000000000FD
:1002E00000000000000000000000002100240027A2
:1002F000002A002D00300033000101000004010736
:10030000010A01007C15C21011241FBECFEFD1E2FB
:10031000DEBFCDBF00E00CBF12E0A0E0B2E0E2E142
:10032000F8E300E00BBF02C007900D92A037B107C1
:10033000D9F726E0A0E7B2E001C01D92A835B207C8
:10034000E1F711E0C3E8D1E000E006C02197010920
:10035000802FFE010E94AA18C238D10780E008074A
:10036000A9F70E94C8100C94F71B0C940000CF92C0
:10037000DF92EF92FF920F931F93CF93DF936C0165
:100380007A018B01C0E0D0E0CE15DF0589F0D801FD
:100390006D918D01D601ED91FC910190F081E02DE0
:1003A000C6011995892B11F47E0102C02196ECCF6C
:1003B000C701DF91CF911F910F91FF90EF90DF90D8
:1003C000CF900895FC01A089B1898C91A689B78945
:1003D00082FD0FC09C91818D8F5F8F73228D82175C
:1003E00049F0218DDF01A20FB11D5D969C93818F95
:1003F00008958C910895FC01538D448D252F30E094
:10040000842F90E0821B930B541710F0CF96089521
:1004100001970895FC01918D828D981761F0828D6E
:10042000DF01A80FB11D5D968C91928D9F5F9F7328
:10043000928F90E008958FEF9FEF0895FC01918DCA
:10044000828D981731F0828DE80FF11D858D90E037
:1004500008958FEF9FEF0895FC01918D228D892FD4
:1004600090E0805C9F4F821B91098F7399270895BC
:100470008FE393E00E942C0221E0892B09F420E015
:10048000822F08958CED93E00E942C0221E0892BAD
:1004900009F420E0822F089589E794E00E942C025D
:1004A00021E0892B09F420E0822F0895FC01848D3E
:1004B000DF01A80FB11DA35ABF4F2C91848D90E08E
:1004C00001968F739927848FA689B7892C93A08969
:1004D000B1898C9180648C93938D848D981306C020
:1004E0000288F389E02D80818F7D80830895EF92CB
:1004F000FF920F931F93CF93DF93EC0181E0888FDE
:100500009B8D8C8D981305C0E889F989808185FDC4
:1005100024C0F62E0B8D10E00F5F1F4F0F731127B5
:10052000E02E8C8DE8120CC00FB607FCFACFE889DC
:10053000F989808185FFF5CFCE010E945602F1CF67
:100540008B8DFE01E80FF11DE35AFF4FF0820B8FF8
:10055000EA89FB898081806207C0EE89FF89608318
:10056000E889F98980818064808381E090E0DF916F
:10057000CF911F910F91FF90EF900895CF93DF934C
:10058000EC01888D8823C9F0EA89FB89808185FD8B
:1005900005C0A889B9898C9186FD0FC00FB607FCEC
:1005A000F5CF808185FFF2CFA889B9898C9185FF2D
:1005B000EDCFCE010E945602E7CFDF91CF91089593
:1005C000E0E0F0E0199480E090E0892B21F00E94B7
:1005D0004C02811119C080E090E0892B41F080E04D
:1005E00090E0892B21F00E940000811110C00E9430
:1005F000420281110FC080E090E0892B81F00E94BF
:10060000380281110AC008950E940000E4CF0E94C0
:100610000000EDCF0E94E002EECF0C9400000895A0
:10062000089580E090E00895CF92DF92EF92FF92DC
:100630000F931F93CF93DF936C018B017A01EC0131
:10064000C757DD4F888187FF04C0FB0111821082EC
:1006500024C08CE08C9D90018D9D300D11248881EB
:10066000A901480F511D87FD5A958091A60590E07C
:100670004817590794F48881A901480F511D87FD37
:100680005A95CA01FA01EE0FFF1F8E0F9F1FFC0142
:10069000EA5EFA4F808186FD19C088818F5F88836A
:1006A0008CE08C9D90018D9D300D11248881A901D5
:1006B000480F511D87FD5A958091A60590E0481777
:1006C0005907BCF488818C3044F113C08881280F0D
:1006D000311D87FD3A95F901EE0FFF1F2E0F3F1FC9
:1006E000F901EA5EFA4F808160E08F730E94090E83
:1006F000D4CFF80180819181049680349C4918F40C
:1007000080E49CE904C0F801808191810496F7019E
:10071000918380838FEF888345C0F80140815181A8
:100720008881B901680F711D87FD7A95CB01FB01A6
:10073000EE0FFF1F8E0F9F1FFC01EA5EFA4F8181B3
:100740009281840F951FF701918380838881A9018D
:10075000480F511D87FD5A95CA01FA01EE0FFF1F80
:100760008E0F9F1FFC01EA5EFA4F808186FF1AC040
:100770008881280F311D87FD3A95F901EE0FFF1F83
:100780002E0F3F1FF901EA5EFA4F808161E08F73FF
:10079000DF91CF911F910F91FF90EF90DF90CF905D
:1007A0000C94090EDF91CF911F910F91FF90EF9064
:1007B000DF90CF900895FC01248131E030930F0346
:1007C0002093310310921003109232038485682B1A
:1007D00083E393E00E94D70B0C94C00E0F931F93FA
:1007E000CF938C01C62F64600E94DB036C2F6B7F5C
:1007F000C8010E94DB0383EC90E00197F1F7CF91F1
:100800001F910F9108950F931F93CF93DF938C0146
:10081000C62FD62FD07FD1606D2F0E94DB036D2FA6
:10082000C8010E94EE0380E1C89FB0011124C62FC9
:10083000C1606C2FC8010E94DB036C2FC8010E94AD
:10084000EE0381E090E0DF91CF911F910F91089529
:100850001F920F920FB60F9211240BB60F922F9387
:100860003F934F935F936F937F938F939F93AF9338
:10087000BF93EF93FF938091900290919102A0918A
:100880009202B0919302892B8A2B8B2B59F1809184
:100890008F02E0918D02F0918E02908189278083F2
:1008A0008091900290919102A0919202B091930256
:1008B000181619061A061B060CF056C080919002F5
:1008C00090919102A0919202B09193020197A10997
:1008D000B1098093900290939102A0939202B093F9
:1008E000930242C080910002ECEFF1E0E4919FEFAF
:1008F00090930002E230C9F050F4EE2399F0E13019
:1009000081F590916F009D7F90936F002AC0E43035
:1009100019F1E0F0E53029F5909173009D7F9093F7
:1009200073001FC010926E001CC0909170009D7FDC
:100930009093700091E09093B0009091B100987FF7
:1009400094609093B1001092B3000BC0909171002D
:100950009D7F9093710005C0909172009D7F909350
:10096000720060E00E94090EFF91EF91BF91AF917C
:100970009F918F917F916F915F914F913F912F91B7
:100980000F900BBE0F900FBE0F901F9018951F92E7
:100990000F920FB60F9211240BB60F922F933F9325
:1009A0004F935F936F937F938F939F93AF93BF9377
:1009B000EF93FF938FE393E00E945602FF91EF9134
:1009C000BF91AF919F918F917F916F915F914F9167
:1009D0003F912F910F900BBE0F900FBE0F901F9065
:1009E00018951F920F920FB60F9211240BB60F920B
:1009F0002F933F934F935F936F937F938F939F9327
:100A0000AF93BF93EF93FF938FE393E00E94E201D4
:100A1000FF91EF91BF91AF919F918F917F916F91D6
:100A20005F914F913F912F910F900BBE0F900FBE92
:100A30000F901F9018951F920F920FB60F921124CE
:100A40000BB60F922F933F934F935F936F937F93C8
:100A50008F939F93AF93BF93EF93FF938CED93E0AE
:100A60000E945602FF91EF91BF91AF919F918F919C
:100A70007F916F915F914F913F912F910F900BBE9E
:100A80000F900FBE0F901F9018951F920F920FB6E8
:100A90000F9211240BB60F922F933F934F935F93B6
:100AA0006F937F938F939F93AF93BF93EF93FF9336
:100AB0008CED93E00E94E201FF91EF91BF91AF9125
:100AC0009F918F917F916F915F914F913F912F9166
:100AD0000F900BBE0F900FBE0F901F9018951F9296
:100AE0000F920FB60F9211240BB60F922F933F93D4
:100AF0004F935F936F937F938F939F93AF93BF9326
:100B0000EF93FF9389E794E00E945602FF91EF91E3
:100B1000BF91AF919F918F917F916F915F914F9115
:100B20003F912F910F900BBE0F900FBE0F901F9013
:100B300018951F920F920FB60F9211240BB60F92B9
:100B40002F933F934F935F936F937F938F939F93D5
:100B5000AF93BF93EF93FF9389E794E00E94E20184
:100B6000FF91EF91BF91AF919F918F917F916F9185
:100B70005F914F913F912F910F900BBE0F900FBE41
:100B80000F901F9018958F929F92AF92BF92CF9225
:100B9000DF92EF92FF920F931F93CF93DF93EC01BD
:100BA0006A017B0120E030E04FE753E4C701B60162
:100BB0000E94BE174B015C0120E030E0A9010E94B9
:100BC000C71918161CF4C501B40103C0C501B4014E
:100BD00090580E9491198B0120E030E0A901C701D3
:100BE000B6010E94C719181614F460E001C061E054
:100BF00089810E94090E0F3F110509F014F4112795
:100C000002C00FEF10E0C88161E08C2F0E9402103B
:100C10000115110509F4B1C00F3F110509F4AFC06A
:100C2000EC2FF0E0ED55FD4FE4914E2F50E0FA012E
:100C30003197E231F10508F09DC08827EE58FF4F4B
:100C40008F4F0C94AA1884B5806884BD07BDA7C0D7
:100C500084B5806284BD08BDA2C080918000806898
:100C600080938000109389000093880098C0809141
:100C7000800080628093800010938B0000938A0034
:100C80008EC08091800088608093800010938D00DA
:100C900000938C0084C08091B00080688093B00085
:100CA0000093B3007CC08091B00080628093B0005C
:100CB0000093B40074C0809190008068809390008D
:100CC00010939900009398006AC080919000806210
:100CD0008093900010939B0000939A0060C08091D5
:100CE000900088608093900010939D0000939C007A
:100CF00056C08091A00080688093A0008091A000E1
:100D00008F7B8093A0001093A9000093A80047C098
:100D10008091A00080628093A0001093AB000093AC
:100D2000AA003DC08091A00088608093A00010932D
:100D3000AD000093AC0033C08091200180688093A7
:100D40002001109329010093280129C080912001DE
:100D500080628093200110932B0100932A011FC011
:100D60008091200188608093200110932D010093D1
:100D70002C0115C00038110514F460E001C061E0D9
:100D80008C2FDF91CF911F910F91FF90EF90DF900B
:100D9000CF90BF90AF909F908F900C94090EDF91F1
:100DA000CF911F910F91FF90EF90DF90CF90BF9068
:100DB000AF909F908F9008958EBD00000DB407FEF8
:100DC000FDCF8EB50895CF93DF93EC0160E088816D
:100DD0000E94090E88E90E94DC0680E00E94DC0681
:100DE00080E00E94DC0680E00E94DC0680E00E9439
:100DF000DC0661E088810E94090E8BE891E0019792
:100E0000F1F760E088810E94090E80EE0E94DC0606
:100E100061E08881DF91CF910C94090EAF92BF926F
:100E2000CF92DF92EF92FF920F931F93CF93DF93B6
:100E3000CDB7DEB760970FB6F894DEBF0FBECDBF5B
:100E40005C0160E0FC0180810E94090E80E60E9446
:100E5000DC068E010F5F1F4F7E01F1E1EF0EF11CEA
:100E6000680180E00E94DC0690E0A0E0B0E0F601BE
:100E700081939193A193B1936F01EE15FF0589F7CB
:100E800061E0F50180810E94090E80E090E0DC01C4
:100E9000F80141915191619171918F01BA2FA92F60
:100EA000982F8827840F951FA61FB71FEE15FF05E3
:100EB00079F79C01AD0166277727CB01621B730B85
:100EC000840B950B60960FB6F894DEBF0FBECDBFB6
:100ED000DF91CF911F910F91FF90EF90DF90CF9016
:100EE000BF90AF9008951F920F920FB60F921124EA
:100EF0000BB60F922F933F934F935F936F937F9314
:100F00008F939F93AF93BF93EF93FF9348E251E08A
:100F100064E271E080E090E00E941403FF91EF91A1
:100F2000BF91AF919F918F917F916F915F914F9101
:100F30003F912F910F900BBE0F900FBE0F901F90FF
:100F400018951F920F920FB60F9211240BB60F92A5
:100F50002F933F934F935F936F937F938F939F93C1
:100F6000AF93BF93EF93FF9348EA50E064EA70E0D9
:100F700083E090E00E941403FF91EF91BF91AF9145
:100F80009F918F917F916F915F914F913F912F91A1
:100F90000F900BBE0F900FBE0F901F9018951F92D1
:100FA0000F920FB60F9211240BB60F922F933F930F
:100FB0004F935F936F937F938F939F93AF93BF9361
:100FC000EF93FF9348E950E064E970E082E090E03D
:100FD0000E941403FF91EF91BF91AF919F918F9168
:100FE0007F916F915F914F913F912F910F900BBE29
:100FF0000F900FBE0F901F9018951F920F920FB673
:101000000F9211240BB60F922F933F934F935F9340
:101010006F937F938F939F93AF93BF93EF93FF93C0
:1010200048E850E064E870E081E090E00E9414033A
:10103000FF91EF91BF91AF919F918F917F916F91B0
:101040005F914F913F912F910F900BBE0F900FBE6C
:101050000F901F9018954F925F926F927F928F9290
:101060009F92AF92BF92CF92DF92EF92FF920F9337
:101070001F93CF93DF932B013C018DE296E00E94FA
:10108000E3068FE296E00E94E30640E050E0BA01FA
:1010900089E296E00E94C3058DECC82E8CECD82E18
:1010A000ED2C8DE3F82EB701A60189E296E00E94AF
:1010B000C30520E030E248E755E4C301B2010E94D5
:1010C000BE1720E030E044EB52E40E941F194B01B0
:1010D0005C0120E030E048E453E40E94B2189B0138
:1010E000AC01B8018D2F9C2F0E94C71918169CF4D3
:1010F0002DEC3CEC4CEC5DE3C701B6010E94C71936
:101100001816ECF42AE037ED43E25CE3C701B601C0
:101110000E94B21812C02DEC3CEC4CEC5EE3C7010F
:10112000B6010E94581787FF0AC02AE037ED43E254
:101130005CE3C701B6010E94B3186B017C018DE22C
:1011400096E00E940E0790958095709561957F4F6F
:101150008F4F9F4F0E945F17F82FE92F8B01EF01F0
:10116000A50194010E94581787FD9DCFC501B401C8
:101170000E94060C40E050E0BA0189E296E00E942D
:10118000C30540E050E060E070E88BE296E00E942A
:10119000C30564E670E080E090E0DF91CF911F919D
:1011A0000F91FF90EF90DF90CF90BF90AF909F9006
:1011B0008F907F906F905F904F900C943E104F9265
:1011C0005F926F927F928F929F92AF92BF92CF92D7
:1011D000DF92EF92FF920F931F93CF93DF932B0138
:1011E0003C018DE296E00E94E3068FE296E00E94C9
:1011F000E30640E050E0BA0189E296E00E94C305B0
:101200008DECC82E8CECD82EED2C8DE3F82EB7018A
:10121000A60170588BE296E00E94C30520E030ECF6
:1012200048E755E4C301B2010E94BE1720E030E058
:1012300044EB52E40E941F194B015C0120E030E0B6
:1012400048E453E40E94B2189B01AC01B8018D2F11
:101250009C2F0E94C71918169CF42DEC3CEC4CEC0A
:101260005DE3C701B6010E94C7191816ECF42AE025
:1012700037ED43E25CE3C701B6010E94B21812C029
:101280002DEC3CEC4CEC5EE3C701B6010E94581714
:1012900087FF0AC02AE037ED43E25CE3C701B601ED
:1012A0000E94B3186B017C018FE296E00E940E074A
:1012B0000E945F17F82FE92F8B01EF01A501940120
:1012C0000E94581787FDA3CFC501B4010E94060CE8
:1012D00040E050E0BA0189E296E00E94C30540E098
:1012E00050E060E070E88BE296E00E94C30564E69F
:1012F00070E080E090E0DF91CF911F910F91FF901F
:10130000EF90DF90CF90BF90AF909F908F907F90A5
:101310006F905F904F900C943E104F925F926F923F
:101320007F928F929F92AF92BF92CF92DF92EF9275
:10133000FF92CF93DF93CDB7DEB72C970FB6F8941B
:10134000DEBF0FBECDBF2DED38E444E053E40E9474
:10135000BE170E9491197B018DE296E00E94E30680
:101360008FE296E00E94E3068DEC9CECACECBDE3D2
:101370008093050290930602A0930702B09308029F
:1013800043EE55EA6BE17CE389E296E00E94C305F7
:101390004091050250910602609107027091080287
:1013A00070588BE296E00E94C30519821A821B8254
:1013B0001C82C701885E93409C01990F440B550B1A
:1013C00029873A874B875C874701FF0CAA08BB082F
:1013D0008DE296E00E940E079B01AC0188279927B9
:1013E000DC01821B930BA40BB50B809398029093A6
:1013F0009902A0939A02B0939B028FE296E00E941A
:101400000E076093940270939502809396029093D6
:101410009702209198023091990240919A0250913E
:101420009B022D833E834F835887261B370B480B27
:10143000590BCA01B9010E945F172B013C019B01A6
:10144000AC0169817A818B819C810E94B318698388
:101450007A838B839C83C0900502D0900602E09033
:101460000702F09008028D819E81AF81B8852985A1
:101470003A854B855C85281739074A075B079CF43A
:101480002DEC3CEC4CE45EE3C701B6010E94C719A9
:1014900018161CF52DEC3CEC4CE45DE3C701B601DD
:1014A0000E94B21812C02AE939E949E15FE3C70195
:1014B000B6010E94581787FF10C02AE037ED43E2BB
:1014C0005DE3C701B6010E94B318609305027093F3
:1014D0000602809307029093080220E030E04AE77A
:1014E00054E4C301B2010E941F192B013C0120E00A
:1014F00030EC43E755E469817A818B819C810E94BD
:101500001F196B017C01A301920160E070E080E88B
:101510009FE30E94B218A70196010E94B218209181
:1015200005023091060240910702509108020E9484
:10153000BE17AB01BC0189E296E00E94C30520E022
:1015400030E040E85FE3C301B2010E94B318A70195
:1015500096010E94B3182091050230910602409135
:101560000702509108020E94BE17AB01BC017058DF
:101570008BE296E00E94C30568EC70E080E090E0AA
:101580000E943E108091980290919902A0919A0237
:10159000B0919B0288169906AA06BB063CF440E06F
:1015A00050E0BA0189E296E00E94C305809194025E
:1015B00090919502A0919602B09197028816990693
:1015C000AA06BB0644F440E050E060E070E88BE21D
:1015D00096E00E94C3058091980290919902A09193
:1015E0009A02B0919B0288159905AA05BB0574F46F
:1015F0008091940290919502A0919602B0919702E9
:1016000088159905AA05BB050CF4E2CE8FE392E09C
:101610000E94AE0E8CE492E00E94AE0E60919802A1
:101620007091990280919A0290919B020E94B00F52
:1016300086E592E00E94AE0E609194027091950250
:1016400080919602909197020E94B00F40E050E086
:10165000BA0189E296E00E94C30540E050E060E0F4
:1016600070E88BE296E00E94C30564E670E080E0DB
:1016700090E02C960FB6F894DEBF0FBECDBFDF9181
:10168000CF91FF90EF90DF90CF90BF90AF909F9061
:101690008F907F906F905F904F900C943E1085EDEF
:1016A0008093BC008091BC0084FDFCCF10920E039F
:1016B00008954091C102262F30E0240F311D2132C0
:1016C0003105DCF420910E032430C9F4FC0180E0E4
:1016D00090E0861758F43091C1022191DC01A156A7
:1016E000BD4FA30FB11D2C930196F3CF8091C10282
:1016F000680F6093C10280E0089581E0089582E060
:101700000895089581E090E030919E0220919D021D
:10171000321710F480E090E0919581959109089539
:1017200080919E0290919D02891730F48F5F809383
:101730009E0280E090E008958FEF9FEF08958091E2
:101740009D0290E020919E02821B91090895CF9204
:10175000DF92EF92FF920F931F93CF93DF937C0161
:10176000262F972F8A0180910F03882391F0C62F8F
:10177000D72F6E01C40ED51ECC15DD0571F0699111
:10178000D701ED91FC910190F081E02DC7011995F1
:10179000F3CF642F822F0E94590BC801DF91CF91A4
:1017A0001F910F91FF90EF90DF90CF900895CF930E
:1017B000DF931F92CDB7DEB7698320910F032223F9
:1017C000D1F020913203203240F021E030E0FC01E2
:1017D0003383228380E090E015C080911003E82FCE
:1017E000F0E0EF5EFC4F998190838F5F8093100350
:1017F0008093320305C061E0CE0101960E94590B2F
:1018000081E090E00F90DF91CF9108954F925F9229
:101810006F927F928F929F92AF92BF92CF92DF9200
:10182000EF92FF926B017C019B01AC010E94CC19ED
:10183000882319F080E692E01AC046015701E89427
:10184000B7F82FEF3FEF4FE75FE7C501B4010E9404
:10185000CC19811110C02FEF3FEF4FE75FE7C501B3
:10186000B4010E945817181634F484E692E00E94DE
:10187000AE0E7C017FC02FEF3FEF4FE75FE4C70163
:10188000B6010E94C71918161CF488E692E0EFCF43
:101890002FEF3FEF4FE75FECC701B6010E945817EB
:1018A00087FDF3CF20E030E0A901C701B6010E9417
:1018B000581787FF09C08DE20E94A50F5C01F7FA57
:1018C000F094F7F8F09402C0A12CB12C2AE037ED87
:1018D00043EA5BE3C701B6010E94B3182B013C0148
:1018E0000E9498196B017C010E945D179B01AC015D
:1018F000C301B2010E94B2182B013C014AE0C701AA
:10190000B6010E94640F7C01EA0CFB1C8EE20E946F
:10191000A50FE80EF91E20E030E040E251E4C301DB
:10192000B2010E94BE172B013C010E9498194B0185
:10193000A12CB12C4AE0C501B4010E94640FE80E4D
:10194000F91EC501B4010E945D179B01AC01C301E2
:10195000B2010E94B21820E030E040E251E40E945F
:10196000BE170E94981980E090E04AE00E94640F40
:10197000E80EF91E8CE692E00E94AE0E8E0D9F1DC1
:10198000FF90EF90DF90CF90BF90AF909F908F909F
:101990007F906F905F904F9008951F920F920FB6B7
:1019A0000F9211240F900FBE0F901F9018951F9249
:1019B0000F920FB60F9211240BB60F922F933F93F5
:1019C0004F935F936F937F938F939F93AF93BF9347
:1019D000EF93FF938091B900887F803609F49CC013
:1019E00068F5883209F45BC090F4803109F454C082
:1019F00038F4882309F4F6C0883009F44DC0F6C0E5
:101A0000883109F44CC0803209F45DC0EFC08034E5
:101A100009F468C048F4803309F455C0883309F0EC
:101A2000E5C080930C03D8C0803509F44FC08835D9
:101A300009F45DC0883409F0D9C0D6C0883909F4EA
:101A4000C7C0A8F4883709F467C038F4883609F4A9
:101A500063C0803709F460C0C9C0883809F4B8C0D1
:101A6000803909F45FC0803809F0C0C05BC0803B9A
:101A700009F486C038F4803A09F466C0883A09F45B
:101A80007FC0B4C0803C09F4A7C0883C09F4A4C05E
:101A9000883B09F48AC0AAC08091E90210C09091E5
:101AA0000B0380910A03981770F5E0910B0381E016
:101AB0008E0F80930B03F0E0E651FD4F8081809301
:101AC000BB0085EC86C080930C038EC0E0910B03B5
:101AD00081E08E0F80930B038091BB00F0E0E65114
:101AE000FD4F808390910B0380910A036EC0E091BB
:101AF0000B0381E08E0F80930B038091BB00F0E01D
:101B0000E651FD4F808380910D0381116DC081E00E
:101B10008093E80284EA61C083E080930E03109210
:101B2000E502CFCF8091E502803208F051C0E0910C
:101B3000E50281E08E0F8093E5028091BB00F0E02A
:101B4000EB53FD4F8083BDCF85EC8093BC0010929A
:101B50000E038091E502803230F4E091E502F0E07E
:101B6000EB53FD4F10826091E50270E0E091C302FB
:101B7000F091C40285EC92E019951092E50236C00E
:101B800084E080930E031092C2021092C102E09191
:101B9000BF02F091C00219958091C102811105C068
:101BA00081E08093C10210929F02E091C20281E025
:101BB0008E0F8093C202F0E0E156FD4F808180934A
:101BC000BB009091C2028091C102981708F479CFAE
:101BD00085E88093BC000AC085EC8093BC0010921D
:101BE0000E0304C010920C030E944F0BFF91EF9163
:101BF000BF91AF919F918F917F916F915F914F9125
:101C00003F912F910F900BBE0F900FBE0F901F9022
:101C10001895362F90E0FC01ED55FD4F4491FC01E5
:101C2000E35AFD4F2491FC01E95EFD4F9491992305
:101C300009F46BC0442309F455C050E0FA01319710
:101C4000E231F10508F04EC08827EC57FF4F8F4F67
:101C50000C94AA18809180008F7707C08091800033
:101C60008F7D03C080918000877F809380003AC081
:101C700084B58F7702C084B58F7D84BD33C08091D9
:101C8000B0008F7703C08091B0008F7D8093B0004B
:101C900029C0809190008F7707C0809190008F7D40
:101CA00003C080919000877F809390001BC080913B
:101CB000A0008F7707C08091A0008F7D03C0809126
:101CC000A000877F8093A0000DC0809120018F77B6
:101CD00007C0809120018F7D03C080912001877F04
:101CE00080932001E92FF0E0EE0FFF1FE350FE4F3D
:101CF000A591B4918FB7F894EC91311103C0209560
:101D00002E2301C02E2B2C938FBF0895E9E7F4E01A
:101D1000A089B18982E08C93A485B5851C92A685A3
:101D2000B7858FEC8C93108EA489B58986E08C934F
:101D3000A289B3898C9180618C93A289B3898C919B
:101D400088608C93A289B3898C9180688C93028877
:101D5000F389E02D80818F7D80830895009769F05D
:101D6000FC0101900020E9F73197AF01481B590BA6
:101D7000BC0189E794E00C94B70180E090E00895FD
:101D80002091320390913103213208F04AC08091B2
:101D90000E038111FCCF32E030930E0331E030931B
:101DA0000D033FEF30930C0310920B0320930A03B3
:101DB000A1E1B3E04AEE52E0FA013E2F341B3217A4
:101DC00018F43D913193F9CF1092E9022091E90284
:101DD000990F922B9093E9029091E802913061F46F
:101DE0001092E8029091E9029093BB009091BC00A0
:101DF00093FDF8CF95EC01C095EE9093BC009091C7
:101E00000E039230E1F390910C039F3F79F08091A3
:101E10000C03803241F080910C03803331F084E078
:101E200005C081E003C082E001C083E0109210038E
:101E30001092320310920F030895EF92FF921F93B6
:101E4000CF93DF931F92CDB7DEB7162F90E1E92E27
:101E500096E0F92ED7011C969C911C9721E02093C7
:101E60000F039093310310921003109232031A96CD
:101E70000D90BC91A02DED91FC9111970190F081F6
:101E8000E02D682FCD0179831995F701828593851F
:101E9000DC01ED91FC910190F081E02D7981672FBB
:101EA0001995F70182859385DC01ED91FC910190F4
:101EB000F081E02D612F19950F90DF91CF911F9147
:101EC000FF90EF900C94C00E8F929F92AF92BF92B2
:101ED0000F931F93CF93DF93CDB7DEB7A1970FB6C4
:101EE000F894DEBF0FBECDBF19A2423008F44AE01D
:101EF0008E010F5D1F4F842E912CA12CB12CA501BA
:101F000094010E947C18E62FB901CA010150110901
:101F1000EA3014F4E05D01C0E95CD801EC93232BB6
:101F2000242B252B61F7C8010E94AE0EA1960FB697
:101F3000F894DEBF0FBECDBFDF91CF911F910F91FF
:101F4000BF90AF909F908F900895E0917904F091A9
:101F50007A040190F081E02D682F89E794E01994CC
:101F6000CF92DF92EF92FF92CF93DF936B017C01D0
:101F700097FF12C08DE20E94A50FEC01662777271C
:101F8000CB016C197D098E099F094AE00E94640FFC
:101F90007C01EC0EFD1E04C04AE00E94640F7C012F
:101FA0008CE692E00E94AE0E8E0D9F1DDF91CF91C8
:101FB000FF90EF90DF90CF9008953FB7F894809115
:101FC000500690915106A0915206B091530626B545
:101FD000A89B05C02F3F19F00196A11DB11D3FBF61
:101FE000BA2FA92F982F8827820F911DA11DB11DEF
:101FF000BC01CD0142E0660F771F881F991F4A95EB
:10200000D1F70895CF93DF9390E0FC01E35AFD4FA1
:102010002491FC01E95EFD4F8491882361F190E0F9
:10202000880F991FFC01E751FD4FC591D491FC0128
:10203000E350FE4FA591B491611109C09FB7F89488
:102040008881209582238883EC912E230BC06230F7
:1020500061F49FB7F8943881822F80958323888319
:10206000EC912E2B2C939FBF06C08FB7F894E8817C
:102070002E2B28838FBFDF91CF9108958F929F924F
:10208000AF92BF92CF92DF92EF92FF926B017C01F1
:102090000E94DD0F4B015C01C114D104E104F10485
:1020A000F1F00E94DD0FDC01CB0188199909AA0922
:1020B000BB09883E9340A105B10570F321E0C21A27
:1020C000D108E108F10888EE880E83E0981EA11C73
:1020D000B11CC114D104E104F10419F7DDCFFF9064
:1020E000EF90DF90CF90BF90AF909F908F9008952A
:1020F0001F920F920FB60F9211242F933F938F933D
:102100009F93AF93BF9380914C0690914D06A09101
:102110004E06B0914F0630914B0623E0230F2D372A
:1021200020F40196A11DB11D05C026E8230F0296DB
:10213000A11DB11D20934B0680934C0690934D0634
:10214000A0934E06B0934F06809150069091510691
:10215000A0915206B09153060196A11DB11D809326
:10216000500690935106A0935206B0935306BF9128
:10217000AF919F918F913F912F910F900FBE0F9034
:102180001F9018958091A7059091A8050C94661A48
:10219000CF93DF93CDB7DEB72C970FB6F894DEBFA1
:1021A0000FBECDBF789484B5826084BD84B5816054
:1021B00084BD85B5826085BD85B5816085BD809112
:1021C0006E00816080936E0010928100809181008A
:1021D0008260809381008091810081608093810082
:1021E000809180008160809380008091B100846044
:1021F0008093B1008091B00081608093B0008091A5
:102200009100826080939100809191008160809321
:102210009100809190008160809390008091A10056
:1022200082608093A1008091A10081608093A100D1
:102230008091A00081608093A00080912101826044
:1022400080932101809121018160809321018091FF
:10225000200181608093200180917A0084608093C6
:102260007A0080917A00826080937A0080917A006F
:10227000816080937A0080917A00806880937A00F0
:102280001092C1000E94860E61E0809111060E94AA
:10229000021060E0809111060E94090E60E08091BA
:1022A00010060E94021083E393E090931B06809334
:1022B0001A0610929E0210929D0210921003109224
:1022C000320310920E0381E080930D031092E80216
:1022D00061E084E10E94090E61E085E10E94090E3F
:1022E0008091B9008E7F8093B9008091B9008D7F75
:1022F0008093B90088E48093B80085E48093BC00A3
:1023000080E090E1A0E0B0E080931D0690931E066F
:10231000A0931F06B09320068AE090E0A0E0B0E012
:102320008093210690932206A0932306B09324065F
:1023300082E090E0A0E0B0E080932506909326062E
:10234000A0932706B093280660E070E185E00E9424
:102350001D0F6FE979E380E00E941D0F6DE2262ECC
:1023600066E0362EC12CD12CE12CF12C7CE4472EDA
:1023700072E0572EE2E98E2EE2E09E2EFBECAF2EAD
:10238000F7E0BF2E9701205F394F3901D90114962C
:102390009C91149712968C918601005F194FF80159
:1023A000818F928F61E00E94021061E0D8015A96FD
:1023B0008C910E940210F30190858681D1018C934B
:1023C000F801968F61E00E94021060E0D8015E96ED
:1023D0008C910E94021061E0F10180810E94090E3F
:1023E0001FB7F89480919C02811125C0F20184915D
:1023F000F4019491E82FF0E0EE0FFF1FE751FD4F3D
:10240000A591B4918C91982321F461E085E30E9419
:10241000090E61E085E30E9402108CB580618CBDDD
:102420008CB580648CBD61E084E30E94021061E0A1
:1024300083E30E94021080919C028F5F80939C0234
:102440001FBFC5010197F1F760E0D1018C910E9497
:10245000090E88E80E94DC0683E00E94DC0661E049
:10246000F10180810E94090EC5010197F1F7C101B8
:102470000E94E306F2E0CF0ED11C22E0220E311CB6
:10248000EA94EF2821F0EE24E394F12C7BCF35E39E
:10249000E32E36E0F32E14E01E0D60E0D7018D919F
:1024A0007D010E9402101E11F8CF11E4C12E16E02A
:1024B000D12E0DE3E02E06E0F02E88E4682E86E0B3
:1024C000782E00E010E09CE0A92E22E0B22EF70169
:1024D00034979080F6018081803308F055C061E028
:1024E000892D0E940210D6018C91E82FF0E09F0107
:1024F000220F331FE20FF31FEA5EFA4F992D9F73ED
:102500002081207C922E992A9082F801EF5CF94F6D
:10251000118A128A6A2D0E949E18BCE08B9FB0011E
:10252000112440E050E09A01260F371FF901EE0F09
:10253000FF1F2E0F3F1FF901EA5EFA4F908196FDB3
:1025400016C04F5F5F4F4C30510569F7813009F07D
:10255000A9C210928000B092810010928500109262
:102560008400B19A80916F00826080936F00D601E1
:10257000EC91F0E0CF01880F991FE80FF91FEA5E98
:10258000FA4F808180648083F70181917F01F3019C
:1025900031978083D3018C9360E00E94021061E048
:1025A000F30180810E94021060E0D3018C910E94AF
:1025B000090EB3E0CB0ED11C0D5F1F4FE2E06E0E93
:1025C000711C0630110509F082CF8DE296E00E9461
:1025D000E3068FE296E00E94E3060E94860E60E02A
:1025E00070E088E493E40E948D0960E070E084EB81
:1025F00092E40E94DF0860E070E08CE092E40E94C8
:102600008D0960E070E084EB92E40E942B0860E0AA
:1026100070E080EA91E40E948D0960E070E084EB54
:1026200092E40E942B0860E070E088EC91E40E9444
:102630008D0960E070E084EB92E40E94DF0860E0C6
:1026400070E080E091E40E948D0960E070E084E336
:1026500092E40E942B0860E070E080E292E40E9425
:102660008D0960E070E084EB92E40E94DF0860E096
:1026700070E08CE592E40E948D0960E070E088E4EF
:1026800092E40E942B0860E070E088EC92E40E94E3
:102690008D098DE296E00E94E3068FE296E00E94AB
:1026A000E3068DEC9CECACE4BEE3809301029093D6
:1026B0000202A0930302B09304024CE55FE862E4D7
:1026C0007EEB89E296E00E94C3054DEC5CEC6CE485
:1026D0007EEB8BE296E00E94C3058FE296E00E94BB
:1026E0000E076B017C0160939402709395028093B6
:1026F0009602909397028DE296E00E940E079095C5
:102700008095709561957F4F8F4F9F4F6093980292
:102710007093990280939A0290939B020E945F1794
:102720004B015C0120E030EC43E755EC0E94581768
:1027300087FF07C040E050E0BA0189E296E00E94BE
:10274000C305C701B6010E945F176B017C0120E041
:1027500030EE46E755E40E94C719181644F440E0ED
:1027600050E060E070E88BE296E00E94C30520E054
:1027700030EE46E755E4C701B6010E94581787FDC1
:10278000ACCF20E030EC43E755ECC501B4010E942A
:10279000C71918160CF4A1CF40E050E0BA0189E245
:1027A00096E00E94C30540E050E060E070E88BE2F4
:1027B00096E00E94C30564E670E080E090E00E942D
:1027C0003E1060E070E086ED92E40E948D0960E0CA
:1027D00070E08CE592E40E94DF0860E070E088E43D
:1027E00092E40E948D0960E070E084EB92E40E9424
:1027F0002B0860E070E084E192E40E948D0960E0C3
:1028000070E084E392E40E94DF0860E070E080E41E
:1028100091E40E948D0960E070E084EB92E40E94F4
:102820002B0860E070E088EC91E40E948D0960E084
:1028300070E084EB92E40E94DF0860E070E080EAE0
:1028400091E40E948D0960E070E084EB92E40E94C4
:10285000DF0860E070E088EC91E40E948D0960E0A0
:1028600070E084EB92E40E942B088DE296E00E94D7
:10287000E3068FE296E00E94E3068DEC9CECACEC64
:10288000BDE38093050290930602A0930702B093E4
:10289000080243EE55EA6BE17CE389E296E00E9490
:1028A000C3054DEC5CEC6CEC7DEB8BE296E00E949A
:1028B000C3051D821E821F8218868DE296E00E944B
:1028C0000E0722273327A901261B370B480B590B6C
:1028D00029833A834B835C83209398023093990237
:1028E00040939A0250939B028FE296E00E940E075B
:1028F0006B017C0160939402709395028093960221
:102900009093970269817A818B819C816C197D09F2
:102910008E099F090E945F174B015C019B01AC016E
:102920006D817E818F8198850E94B3186D837E832F
:102930008F839887409005025090060260900702AE
:102940007090080220E030E040E85FE3C301B2018C
:102950000E94581787FF10C02DEC3CEC4CEC5DE357
:10296000C301B2010E94B31860930502709306027E
:1029700080930702909308028091050290910602CD
:10298000A0910702B091080289879A87AB87BC871C
:1029900020E030E04AEF53E4C501B4010E941F1962
:1029A0002B013C0120E034E244E759E46D817E8153
:1029B0008F8198850E941F194B015C01A301920130
:1029C00060E070E080E89FE30E94B218A5019401E6
:1029D0000E94B2189B01AC0169857A858B859C8524
:1029E0000E94BE17AB01BC0189E296E00E94C305BC
:1029F00020E030E040E85FE3C301B2010E94B31879
:102A0000A50194010E94B3189B01AC0169857A85E8
:102A10008B859C850E94BE17AB01BC0170588BE270
:102A200096E00E94C30564E670E080E090E00E94BA
:102A30003E1029813A814B815C8129353746410519
:102A400051053CF040E050E0BA0189E296E00E9476
:102A5000C30599E5C91697E6D906E104F10444F0E7
:102A600040E050E060E070E88BE296E00E94C30531
:102A700029813A814B815C812835374641055105D2
:102A800044F498E5C91697E6D906E104F1040CF47C
:102A900014CF6AE070E080E090E00E943E100E9457
:102AA000E302F7CF823061F410929000809391009E
:102AB000109295001092940088BB8093710057CDBE
:102AC000833061F41092A000B092A1001092A50092
:102AD0001092A400B9BAB092720049CD811147CDCD
:102AE00010922001B0922101109225011092240130
:102AF000BABAB09273003BCD1092360310923503F0
:102B000088EE93E0A0E0B0E0809337039093380321
:102B1000A0933903B0933A0323E132E030933403B6
:102B20002093330310924203109241038093430396
:102B300090934403A0934503B093460325E232E00B
:102B40003093400320933F0345E351E050934C03FF
:102B500040934B0344E351E050934E0340934D03A5
:102B600040E351E05093500340934F0341E351E061
:102B7000509352034093510342E351E05093540366
:102B80004093530346E351E050935603409355035B
:102B9000109258031092590310925A0310925B033B
:102BA0001092DF031092DE038093E0039093E10321
:102BB000A093E203B093E3033093DD032093DC039F
:102BC00045ED50E05093E9034093E80344ED50E0B5
:102BD0005093EB034093EA0340ED50E05093ED0334
:102BE0004093EC0341ED50E05093EF034093EE032C
:102BF00042ED50E05093F1034093F00346ED50E076
:102C00005093F3034093F2031092F5031092F603EE
:102C10001092F7031092F80310927C0410927B0438
:102C200080937D0490937E04A0937F04B0938004EE
:102C300030937A042093790485EC90E09093860495
:102C40008093850484EC90E09093880480938704BB
:102C500080EC90E090938A048093890481EC90E06A
:102C600090938C0480938B0482EC90E090938E047C
:102C700080938D0486EC90E09093900480938F0471
:102C8000109292041092930410929404109295045E
:102C900086E38093310687E38093320688E380934E
:102CA000330689E3809334068BE1809335068DE10A
:102CB000809336068AE1809337068CE1809338064C
:102CC00084E08093390687E080933A0610923B06B1
:102CD00084EB80933C0686E180933D0688E18093F7
:102CE0003E0687E180933F0689E18093400680910C
:102CF000A605803320F08FEF8093410613C091E04A
:102D0000980F9093A6058093410690E0FC01EE0F8A
:102D1000FF1F8E0F9F1FFC01EA5EFA4F88EB9BE0BE
:102D2000928381838091A605803320F08FEF80937A
:102D3000440613C091E0980F9093A6058093440633
:102D400090E0FC01EE0FFF1F8E0F9F1FFC01EA5E5B
:102D5000FA4F88EB9BE0928381838CE0809310068E
:102D600084E28093110686E08093120685E08093CA
:102D700013068FE1809314068EE18093150683E29B
:102D80008093160682E28093170685E480931806E6
:102D900084E48093190680E480931C061092210637
:102DA00010922206109223061092240610922506F5
:102DB000109226061092270610922806E1EBF5E005
:102DC0008FEF9FEFDC01128213821482158216822C
:102DD00017821086118683879487A587B687878791
:102DE000908BA18BB28B128611821082739626E093
:102DF000E031F20741F78DE090E00E94D119FC012B
:102E00001382128287E392E091838083118687E2A6
:102E1000848384E1828784E083871486F093AE05FF
:102E2000E093AD051092AF051092B0051092A80581
:102E30001092A7051092AA051092A9051092AC0550
:102E40001092AB0561E070E080E090E00E94FE1A15
:102E5000009789F09093A8058093A7051092AA0582
:102E60001092A9052091AB053091AC05232BC1F43C
:102E7000FC01108215C08091A7059091A8050097CC
:102E800011F00E94661A1092A8051092A7051092E0
:102E9000AC051092AB051092AA051092A9050895F1
:102EA0001092AC051092AB056EE672E00C94F01B2C
:102EB0000E949A1708F481E00895E89409C097FBEE
:102EC0003EF490958095709561957F4F8F4F9F4F01
:102ED0009923A9F0F92F96E9BB279395F695879545
:102EE00077956795B795F111F8CFFAF4BB0F11F408
:102EF00060FF1BC06F5F7F4F8F4F9F4F16C08823AF
:102F000011F096E911C0772321F09EE8872F762FE4
:102F100005C0662371F096E8862F70E060E02AF025
:102F20009A95660F771F881FDAF7880F9695879511
:102F300097F90895990F0008550FAA0BE0E8FEEFE6
:102F400016161706E807F907C0F012161306E4076D
:102F5000F50798F0621B730B840B950B39F40A2666
:102F600061F0232B242B252B21F408950A2609F444
:102F7000A140A6958FEF811D811D08950E94D11754
:102F80000C9442180E94341838F00E943B1820F02C
:102F9000952311F00C942B180C94311811240C94D7
:102FA00076180E94531870F3959FC1F3950F50E067
:102FB000551F629FF001729FBB27F00DB11D639FEB
:102FC000AA27F00DB11DAA1F649F6627B00DA11D91
:102FD000661F829F2227B00DA11D621F739FB00D37
:102FE000A11D621F839FA00D611D221F749F3327A7
:102FF000A00D611D231F849F600D211D822F762F40
:103000006A2F11249F5750409AF0F1F088234AF01C
:10301000EE0FFF1FBB1F661F771F881F9150504088
:10302000A9F79E3F510580F00C942B180C9476184C
:103030005F3FE4F3983ED4F3869577956795B7950F
:10304000F795E7959F5FC1F7FE2B880F911D969529
:10305000879597F9089597F99F6780E870E060E099
:1030600008959FEF80EC089500240A941616170621
:1030700018060906089500240A9412161306140669
:1030800005060895092E0394000C11F4882352F0CC
:10309000BB0F40F4BF2B11F460FF04C06F5F7F4F84
:1030A0008F4F9F4F089557FD9058440F551F59F06B
:1030B0005F3F71F04795880F97FB991F61F09F3F25
:1030C00079F087950895121613061406551FF2CF4E
:1030D0004695F1DF08C0161617061806991FF1CF9E
:1030E00086957105610508940895E894BB276627C5
:1030F0007727CB0197F90895A1E21A2EAA1BBB1BD3
:10310000FD010DC0AA1FBB1FEE1FFF1FA217B307B3
:10311000E407F50720F0A21BB30BE40BF50B661FC9
:10312000771F881F991F1A9469F76095709580958D
:1031300090959B01AC01BD01CF010895991B79E0E9
:1031400004C0991F961708F0961B881F7A95C9F737
:1031500080950895EE0FFF1F881F8BBF0790F69193
:10316000E02D19945058BB27AA270E94CA180C9426
:1031700042180E94341838F00E943B1820F039F4AD
:103180009F3F19F426F40C9431180EF4E095E7FBF8
:103190000C942B18E92F0E94531858F3BA176207A2
:1031A00073078407950720F079F4A6F50C94751839
:1031B0000EF4E0950B2EBA2FA02D0B01B901900152
:1031C0000C01CA01A0011124FF27591B99F0593F96
:1031D00050F4503E68F11A16F040A22F232F342FDE
:1031E0004427585FF3CF469537952795A795F0402C
:1031F0005395C9F77EF41F16BA0B620B730B840B41
:10320000BAF09150A1F0FF0FBB1F661F771F881FF8
:10321000C2F70EC0BA0F621F731F841F48F4879550
:1032200077956795B795F7959E3F08F0B0CF939542
:10323000880F08F09927EE0F9795879508950E94BB
:1032400033190C9442180E943B1858F00E9434180D
:1032500040F029F45F3F29F00C942B1851110C9485
:1032600076180C9431180E94531868F39923B1F31F
:10327000552391F3951B550BBB27AA27621773079C
:10328000840738F09F5F5F4F220F331F441FAA1F30
:10329000A9F335D00E2E3AF0E0E832D091505040EC
:1032A000E695001CCAF72BD0FE2F29D0660F771F9A
:1032B000881FBB1F261737074807AB07B0E809F080
:1032C000BB0B802DBF01FF2793585F4F3AF09E3F05
:1032D000510578F00C942B180C9476185F3FE4F3AA
:1032E000983ED4F3869577956795B795F7959F5F48
:1032F000C9F7880F911D9695879597F90895E1E094
:10330000660F771F881FBB1F621773078407BA07F2
:1033100020F0621B730B840BBA0BEE1F88F7E0954D
:1033200008950E9498196894B1110C947618089524
:103330000E945B1888F09F5798F0B92F9927B751D2
:10334000B0F0E1F0660F771F881F991F1AF0BA9549
:10335000C9F714C0B13091F00E947518B1E008951A
:103360000C947518672F782F8827B85F39F0B93F0C
:10337000CCF3869577956795B395D9F73EF49095FC
:103380008095709561957F4F8F4F9F4F08950E9454
:103390009A1708F48FEF08950E949A17880B990BDB
:1033A0000895CF93DF938230910510F482E090E08E
:1033B000E0915606F091570620E030E0C0E0D0E002
:1033C000309711F14081518148175907C0F04817D3
:1033D000590761F482819381209719F09B838A8336
:1033E0002BC0909357068093560626C021153105B1
:1033F00019F04217530718F49A01BE01DF01EF01DB
:103400000280F381E02DDCCF2115310509F1281B65
:10341000390B2430310590F412968D919C911397BD
:103420006115710521F0FB019383828304C09093A1
:10343000570680935606FD01329644C0FD01E20F07
:10344000F31F81939193225031092D933C933AC0FD
:103450002091540630915506232B41F420910B0204
:1034600030910C02309355062093540620910902A6
:1034700030910A022115310541F42DB73EB7409134
:103480000D0250910E02241B350BE0915406F09171
:103490005506E217F307A0F42E1B3F0B2817390738
:1034A00078F0AC014E5F5F4F2417350748F04E0FA0
:1034B0005F1F50935506409354068193919302C029
:1034C000E0E0F0E0CF01DF91CF9108950F931F93DB
:1034D000CF93DF93009709F48CC0FC0132971382DD
:1034E000128200915606109157060115110581F4BC
:1034F00020813181820F931F20915406309155060F
:103500002817390779F5F0935506E093540671C0F2
:10351000D80140E050E0AE17BF0750F412962D914D
:103520003C911397AD012115310509F1D901F3CF74
:103530009D01DA013383228360817181860F971F99
:103540008217930769F4EC0128813981260F371F10
:103550002E5F3F4F318320838A819B8193838283B7
:10356000452B29F4F0935706E093560642C0139674
:10357000FC93EE931297ED01499159919E01240F0E
:10358000351FE217F30771F480819181840F951F35
:10359000029611969C938E938281938113969C93AD
:1035A0008E931297E0E0F0E0D80112968D919C91F5
:1035B0001397009719F0F8018C01F6CF8D919C912B
:1035C00098012E5F3F4F820F931F20915406309138
:1035D00055062817390769F4309729F410925706D1
:1035E0001092560602C01382128210935506009361
:1035F0005406DF91CF911F910F9108956F927F92A2
:103600008F929F92AF92BF92CF92DF92EF92FF92F2
:103610000F931F93CF93DF93EC01009789F4CB01B5
:10362000DF91CF911F910F91FF90EF90DF90CF909E
:10363000BF90AF909F908F907F906F900C94D11916
:10364000FC01E60FF71F9C0122503109E217F30736
:1036500008F4ACC0D9010D911C91119706171707FA
:10366000B0F00530110508F49FC0C8010497861713
:10367000970708F499C002501109061B170B019314
:1036800011936D937C93CF010E94661A8DC05B01EC
:10369000A01AB10A4C01800E911EA0915606B0915D
:1036A000570640E050E0E12CF12C109709F44AC095
:1036B000A815B905D1F56D907C901197630182E052
:1036C000C80ED11CCA14DB0480F1A3014A195B099E
:1036D0006A0182E0C80ED11C1296BC901297139614
:1036E000AC91B5E0CB16D10440F0B282A3835183F4
:1036F0004083D9016D937C930AC00E5F1F4FC301B5
:10370000800F911FF90191838083EB2DFA2FE11433
:10371000F10431F0D7011396FC93EE93129744C055
:10372000F0935706E09356063FC08D919C911197F8
:103730004817590708F4AC017D0112960D90BC9111
:10374000A02DB3CF80915406909155068815990508
:10375000E1F446175707C8F48091090290910A02D4
:10376000009741F48DB79EB740910D0250910E0223
:10377000841B950BE817F907C8F4F0935506E093FE
:103780005406F901718360830FC0CB010E94D119E7
:103790007C01009759F0A801BE010E94E71BCE01F1
:1037A0000E94661AC70104C0CE0102C080E090E00A
:1037B000DF91CF911F910F91FF90EF90DF90CF900D
:1037C000BF90AF909F908F907F906F900895FB0176
:1037D000DC0102C001900D9241505040D8F708958D
:1037E000FB01DC0101900D920020E1F7089511E04A
:1037F000C3E8D1E000E006C0802FFE010E94AA18B5
:103800002196011DC438D10780E00807A9F7F89474
:02381000FFCFE8
:10381200FFCDCCCC3ECDCCCC3E00005806200000E3
:10382200000000D70BA70B1103810B9F0B900B829B
:103832000B000000007702B701FB01BE022C020A56
:10384200021E02000000000304B701110310034628
:10385200494E49206176616E636572004761756306
:103862006865203D200044726F697465203D200028
:103872006E616E00696E66006F7666000D0A00006A
:00000001FF
