:100000000C9484010C94B5010C94B5010C94B501C9
:100010000C94B5010C94B5010C94B5010C94B50188
:100020000C94B5010C94740A0C94740A0C94740A20
:100030000C94B5010C9424060C94B5010C94B501F4
:100040000C94B5010C9449080C94B5010C94B501BD
:100050000C94B5010C94B5010C94B5010C94DA051F
:100060000C94B5010C9495070C946B070C94B50196
:100070000C94B5010C94B5010C94B5010C94B50128
:100080000C941B080C94B5010C94B5010C94B501AB
:100090000C94B5010C94B5010C94B5010C947E0A36
:1000A0000C94B5010C94B5010C94ED070C94B501BA
:1000B0000C94B5010C94B5010C94B5010C94BF07D8
:1000C0000C94B5010C94B5010C94B5010C94410746
:1000D0000C9417070C94B5010C94ED060C94C30610
:1000E0000C94B5017B03800385038F0399031204ED
:1000F000A303AB03B303BD03C703D103E003EA03C8
:100100001204F403FE030804DF0BE20BD10BD50B42
:10011000D90B190CE60BEA0BF00BF40BF80BFE0BEA
:10012000020C060C190C0C0C100C140C0C946E0F19
:100130000C94FB010C9412040C94D10B0C94BD0391
:100140000C94020C0C9485030C94E0030C94EA0BC1
:100150000C94A9080C94680F0C942C020C94BE0209
:100160000C94F00B0C94B3030C94FE0B0C940C0C3D
:100170000C94D1030C948F030C94A3030C94DF0B09
:100180000C94CF080C94060C0C94B8080C94B7018E
:100190000C9417030C9408040C94D50B0C94FE03D8
:1001A0000C9480030C94AB030C94C7030C94190CAF
:1001B0000C94EA030C94F4030C9499030C94180324
:1001C0000C94E20B0C94AA080C941E020C94FF08E9
:1001D0000C94100C0C94B5050C940A020C94E60BCC
:1001E0000C947B030C94F40B0C9477020C94140C79
:1001F0000C94C7080C94D90B0C94F80B0200002146
:1002000000240027002A002D0030003300010100E7
:1002100000040107010A0100002200250028002B2C
:10022000002E003100340002010000050108010B1E
:100230000105050505070508080808020202020A6B
:100240000A08080404040401010101010101010379
:1002500003030303030303040707070C0C0C0C0C34
:100260000C0C0C0202020206060606060606060B27
:100270000B0B0B0B0B0B0B0102102020080810209E
:100280004010204080020102010804020101020422
:1002900008102040808040201008040201800402E1
:1002A0000180402010080402010804020101020438
:1002B0000810204080010204081020408000000A3D
:1002C0000B02090C0D0E08070304010000000000DA
:1002D000000000000000000000000000000000001E
:1002E00000000000000000000012111000000000DB
:1002F00000000000000000000000000000000000FE
:10030000000000006E0F680F11241FBECFEFD1E276
:10031000DEBFCDBF00E00CBF12E0A0E0B2E0E4EB36
:10032000F9E200E00BBF02C007900D92A635B107BD
:10033000D9F726E0A6E5B2E001C01D92AE33B207C0
:10034000E1F711E0C3E8D1E000E006C02197010920
:10035000802FFE010E945A12C238D10780E00807A0
:10036000A9F70E948E0C0C94C8140C940000CF9234
:10037000DF92EF92FF920F931F93CF93DF936C0165
:100380007A018B01C0E0D0E0CE15DF0589F0D801FD
:100390006D918D01D601ED91FC910190F081E02DE0
:1003A000C6011995892B11F47E0102C02196ECCF6C
:1003B000C701DF91CF911F910F91FF90EF90DF90D8
:1003C000CF900895FC01A089B1898C91A689B78945
:1003D00082FD0FC09C91818D8F5F8F73228D82175C
:1003E00049F0218DDF01A20FB11D5D969C93818F95
:1003F00008958C910895FC01538D448D252F30E094
:10040000842F90E0821B930B541710F0CF96089521
:1004100001970895FC01918D828D981761F0828D6E
:10042000DF01A80FB11D5D968C91928D9F5F9F7328
:10043000928F90E008958FEF9FEF0895FC01918DCA
:10044000828D981731F0828DE80FF11D858D90E037
:1004500008958FEF9FEF0895FC01918D228D892FD4
:1004600090E0805C9F4F821B91098F7399270895BC
:1004700081EA92E00E942C0221E0892B09F420E01D
:10048000822F08958EE393E00E942C0221E0892BB5
:1004900009F420E0822F08958BED93E00E942C0256
:1004A00021E0892B09F420E0822F0895FC01848D3E
:1004B000DF01A80FB11DA35ABF4F2C91848D90E08E
:1004C00001968F739927848FA689B7892C93A08969
:1004D000B1898C9180648C93938D848D981306C020
:1004E0000288F389E02D80818F7D80830895EF92CB
:1004F000FF920F931F93CF93DF93EC0181E0888FDE
:100500009B8D8C8D981305C0E889F989808185FDC4
:1005100024C0F62E0B8D10E00F5F1F4F0F731127B5
:10052000E02E8C8DE8120CC00FB607FCFACFE889DC
:10053000F989808185FFF5CFCE010E945602F1CF67
:100540008B8DFE01E80FF11DE35AFF4FF0820B8FF8
:10055000EA89FB898081806207C0EE89FF89608318
:10056000E889F98980818064808381E090E0DF916F
:10057000CF911F910F91FF90EF900895CF93DF934C
:10058000EC01888D8823C9F0EA89FB89808185FD8B
:1005900005C0A889B9898C9186FD0FC00FB607FCEC
:1005A000F5CF808185FFF2CFA889B9898C9185FF2D
:1005B000EDCFCE010E945602E7CFDF91CF91089593
:1005C000E0E0F0E0199480E090E0892B21F00E94B7
:1005D0004C02811119C080E090E0892B41F080E04D
:1005E00090E0892B21F00E940000811110C00E9430
:1005F000420281110FC080E090E0892B81F00E94BF
:10060000380281110AC008950E940000E4CF0E94C0
:100610000000EDCF0E94E002EECF0C9400000895A0
:100620008EBD00000DB407FEFDCF8EB50895089570
:1006300080E090E008958F929F92AF92BF92CF9208
:10064000DF92EF92FF920F931F93CF93DF93EC0112
:100650006A017B0120E030E04FE753E4C701B601B7
:100660000E946E114B015C0120E030E0A9010E9464
:10067000981218161CF4C501B40103C0C501B401D9
:1006800090580E9462128B0120E030E0A901C7015E
:10069000B6010E949812181614F460E001C061E0DF
:1006A00089810E94B00B0F3F110509F014F4112746
:1006B00002C00FEF10E0C88161E08C2F0E942D0C6A
:1006C0000115110509F4B1C00F3F110509F4AFC0C0
:1006D000EC2FF0E0E354FD4FE4914E2F50E0FA018F
:1006E0003197E231F10508F09DC08827EE58FF4FA1
:1006F0008F4F0C945A1284B5806884BD07BDA7C083
:1007000084B5806284BD08BDA2C0809180008068ED
:1007100080938000109389000093880098C0809196
:10072000800080628093800010938B0000938A0089
:100730008EC08091800088608093800010938D002F
:1007400000938C0084C08091B00080688093B000DA
:100750000093B3007CC08091B00080628093B000B1
:100760000093B40074C080919000806880939000E2
:1007700010939900009398006AC080919000806265
:100780008093900010939B0000939A0060C080912A
:10079000900088608093900010939D0000939C00CF
:1007A00056C08091A00080688093A0008091A00036
:1007B0008F7B8093A0001093A9000093A80047C0EE
:1007C0008091A00080628093A0001093AB00009302
:1007D000AA003DC08091A00088608093A000109383
:1007E000AD000093AC0033C08091200180688093FD
:1007F0002001109329010093280129C08091200134
:1008000080628093200110932B0100932A011FC066
:100810008091200188608093200110932D01009326
:100820002C0115C00038110514F460E001C061E02E
:100830008C2FDF91CF911F910F91FF90EF90DF9060
:10084000CF90BF90AF909F908F900C94B00BDF91A2
:10085000CF911F910F91FF90EF90DF90CF90BF90BD
:10086000AF909F908F900895CF93DF93EC0160E05D
:1008700088810E94B00B88E90E94100380E00E94EA
:10088000100380E00E94100380E00E94100380E0CB
:100890000E94100361E088810E94B00B8BE891E018
:1008A0000197F1F760E088810E94B00B80EE0E9412
:1008B000100361E08881DF91CF910C94B00BAF926F
:1008C000BF92CF92DF92EF92FF920F931F93CF933D
:1008D000DF93CDB7DEB760970FB6F894DEBF0FBEDB
:1008E000CDBF5C0160E0FC0180810E94B00B80E61E
:1008F0000E9410038E010F5F1F4F7E01F1E1EF0E8A
:10090000F11C680180E00E94100390E0A0E0B0E0DC
:10091000F60181939193A193B1936F01EE15FF05B9
:1009200089F761E0F50180810E94B00B80E090E0E2
:10093000DC01F80141915191619171918F01BA2FC0
:10094000A92F982F8827840F951FA61FB71FEE1574
:10095000FF0579F79C01AD0166277727CB01621B64
:10096000730B840B950B60960FB6F894DEBF0FBE29
:10097000CDBFDF91CF911F910F91FF90EF90DF904E
:10098000CF90BF90AF900895CF92DF92EF92FF92F9
:100990000F931F93CF93DF936C018B017A01EC01CE
:1009A000C159DD4F888187FF04C0FB01118210828D
:1009B00024C08CE08C9D90018D9D300D1124888188
:1009C000A901480F511D87FD5A958091080590E0B7
:1009D0004817590794F48881A901480F511D87FDD4
:1009E0005A95CA01FA01EE0FFF1F8E0F9F1FFC01DF
:1009F000E858FB4F808186FD19C088818F5F88830E
:100A00008CE08C9D90018D9D300D11248881A90171
:100A1000480F511D87FD5A958091080590E04817B1
:100A20005907BCF488818C3044F113C08881280FA9
:100A3000311D87FD3A95F901EE0FFF1F2E0F3F1F65
:100A4000F901E858FB4F808160E08F730E94B00B82
:100A5000D4CFF80180819181049680349C4918F4A8
:100A600080E49CE904C0F801808191810496F7013B
:100A7000918380838FEF888345C0F8014081518145
:100A80008881B901680F711D87FD7A95CB01FB0143
:100A9000EE0FFF1F8E0F9F1FFC01E858FB4F818157
:100AA0009281840F951FF701918380838881A9012A
:100AB000480F511D87FD5A95CA01FA01EE0FFF1F1D
:100AC0008E0F9F1FFC01E858FB4F808186FF1AC0E4
:100AD0008881280F311D87FD3A95F901EE0FFF1F20
:100AE0002E0F3F1FF901E858FB4F808161E08F73A3
:100AF000DF91CF911F910F91FF90EF90DF90CF90FA
:100B00000C94B00BDF91CF911F910F91FF90EF905C
:100B1000DF90CF9008950E94B314FC01248131E04E
:100B200030939102209393021092920210929402B9
:100B30008485682B85E992E00E94FF080C9468097F
:100B40000F931F93CF938C01C62F64600E948D0575
:100B50006C2F6B7FC8010E948D0583EC90E001979C
:100B6000F1F7CF911F910F9108950F931F93CF939A
:100B7000DF938C01C62FD62FD07FD1606D2F0E94BE
:100B80008D056D2FC8010E94A00580E1C89FB001AE
:100B90001124C62FC1606C2FC8010E948D056C2FD7
:100BA000C8010E94A00581E090E0DF91CF911F91E4
:100BB0000F9108951F920F920FB60F9211242F9349
:100BC0003F938F939F93AF93BF93809184029091B3
:100BD0008502A0918602B09187023091830223E0C2
:100BE000230F2D3720F40196A11DB11D05C026E865
:100BF000230F0296A11DB11D2093830280938402CE
:100C000090938502A0938602B09387028091880218
:100C100090918902A0918A02B0918B020196A11D48
:100C2000B11D8093880290938902A0938A02B093A9
:100C30008B02BF91AF919F918F913F912F910F9018
:100C40000FBE0F901F9018951F920F920FB60F9224
:100C500011240BB60F922F933F934F935F936F9393
:100C60007F938F939F93AF93BF93EF93FF93809165
:100C7000760290917702A0917802B0917902892B47
:100C80008A2B8B2B59F180917502E0917302F091C0
:100C900074029081892780838091760290917702F7
:100CA000A0917802B0917902181619061A061B064F
:100CB0000CF056C08091760290917702A091780254
:100CC000B09179020197A109B109809376029093BE
:100CD0007702A0937802B093790242C0809100021B
:100CE000ECEFF1E0E4919FEF90930002E230C9F065
:100CF00050F4EE2399F0E13081F590916F009D7FE3
:100D000090936F002AC0E43019F1E0F0E53029F546
:100D1000909173009D7F909373001FC010926E009E
:100D20001CC0909170009D7F9093700091E0909313
:100D3000B0009091B100987F94609093B1001092B0
:100D4000B3000BC0909171009D7F9093710005C01E
:100D5000909172009D7F9093720060E00E94B00BB2
:100D6000FF91EF91BF91AF919F918F917F916F9183
:100D70005F914F913F912F910F900BBE0F900FBE3F
:100D80000F901F9018951F920F920FB60F9211247B
:100D90000BB60F922F933F934F935F936F937F9375
:100DA0008F939F93AF93BF93EF93FF9381EA92E06A
:100DB0000E945602FF91EF91BF91AF919F918F9149
:100DC0007F916F915F914F913F912F910F900BBE4B
:100DD0000F900FBE0F901F9018951F920F920FB695
:100DE0000F9211240BB60F922F933F934F935F9363
:100DF0006F937F938F939F93AF93BF93EF93FF93E3
:100E000081EA92E00E94E201FF91EF91BF91AF91E0
:100E10009F918F917F916F915F914F913F912F9112
:100E20000F900BBE0F900FBE0F901F9018951F9242
:100E30000F920FB60F9211240BB60F922F933F9380
:100E40004F935F936F937F938F939F93AF93BF93D2
:100E5000EF93FF938EE393E00E945602FF91EF9190
:100E6000BF91AF919F918F917F916F915F914F91C2
:100E70003F912F910F900BBE0F900FBE0F901F90C0
:100E800018951F920F920FB60F9211240BB60F9266
:100E90002F933F934F935F936F937F938F939F9382
:100EA000AF93BF93EF93FF938EE393E00E94E20131
:100EB000FF91EF91BF91AF919F918F917F916F9132
:100EC0005F914F913F912F910F900BBE0F900FBEEE
:100ED0000F901F9018951F920F920FB60F9211242A
:100EE0000BB60F922F933F934F935F936F937F9324
:100EF0008F939F93AF93BF93EF93FF938BED93E00B
:100F00000E945602FF91EF91BF91AF919F918F91F7
:100F10007F916F915F914F913F912F910F900BBEF9
:100F20000F900FBE0F901F9018951F920F920FB643
:100F30000F9211240BB60F922F933F934F935F9311
:100F40006F937F938F939F93AF93BF93EF93FF9391
:100F50008BED93E00E94E201FF91EF91BF91AF9181
:100F60009F918F917F916F915F914F913F912F91C1
:100F70000F900BBE0F900FBE0F901F9018951F92F1
:100F80000F920FB60F9211240BB60F922F933F932F
:100F90004F935F936F937F938F939F93AF93BF9381
:100FA000EF93FF9348E251E064E271E080E090E06B
:100FB0000E94C404FF91EF91BF91AF919F918F91D7
:100FC0007F916F915F914F913F912F910F900BBE49
:100FD0000F900FBE0F901F9018951F920F920FB693
:100FE0000F9211240BB60F922F933F934F935F9361
:100FF0006F937F938F939F93AF93BF93EF93FF93E1
:1010000048EA50E064EA70E083E090E00E94C404A3
:10101000FF91EF91BF91AF919F918F917F916F91D0
:101020005F914F913F912F910F900BBE0F900FBE8C
:101030000F901F9018951F920F920FB60F921124C8
:101040000BB60F922F933F934F935F936F937F93C2
:101050008F939F93AF93BF93EF93FF9348E950E033
:1010600064E970E082E090E00E94C404FF91EF9197
:10107000BF91AF919F918F917F916F915F914F91B0
:101080003F912F910F900BBE0F900FBE0F901F90AE
:1010900018951F920F920FB60F9211240BB60F9254
:1010A0002F933F934F935F936F937F938F939F9370
:1010B000AF93BF93EF93FF9348E850E064E870E08C
:1010C00081E090E00E94C404FF91EF91BF91AF9145
:1010D0009F918F917F916F915F914F913F912F9150
:1010E0000F900BBE0F900FBE0F901F90189585EDBF
:1010F0008093BC008091BC0084FDFCCF10929002D4
:1011000008954091CF05262F30E0240F311D213264
:101110003105DCF4209190022430C9F4FC0180E018
:1011200090E0861758F43091CF052191DC01A3554A
:10113000BA4FA30FB11D2C930196F3CF8091CF0529
:10114000680F6093CF0580E0089581E0089582E004
:101150000895089581E090E030918D0220918C02F5
:10116000321710F480E090E09195819591090895EF
:1011700080918D0290918C02891730F48F5F80935B
:101180008D0280E090E008958FEF9FEF08958091A9
:101190008C0290E020918D02821B91090895CF92DC
:1011A000DF92EF92FF920F931F93CF93DF937C0117
:1011B000262F972F8A0180919102882391F0C62FC4
:1011C000D72F6E01C40ED51ECC15DD0571F06991C7
:1011D000D701ED91FC910190F081E02DC7011995A7
:1011E000F3CF642F822F0E948108C801DF91CF9135
:1011F0001F910F91FF90EF90DF90CF900895CF93C4
:10120000DF931F92CDB7DEB769832091910222232D
:10121000D1F020919402203240F021E030E0FC0136
:101220003383228380E090E015C080919202E82F02
:10123000F0E0E65EF94F998190838F5F8093920290
:101240008093940205C061E0CE0101960E9481085E
:1012500081E090E00F90DF91CF910895EBEDF3E006
:10126000A089B18982E08C93A485B5851C92A6855E
:10127000B7858FEC8C93108EA489B58986E08C930A
:10128000A289B3898C9180618C93A289B3898C9156
:1012900088608C93A289B3898C9180688C93028832
:1012A000F389E02D80818F7D80830895009769F018
:1012B000FC0101900020E9F73197AF01481B590B61
:1012C000BC018BED93E00C94B70180E090E00895B1
:1012D0002091940290919302213208F04AC08091AB
:1012E00090028111FCCF32E03093900231E03093D4
:1012F0008F023FEF309319061092180620931706BD
:10130000AAE1B6E047EF55E0FA013E2F341B321751
:1013100018F43D913193F9CF1092F6052091F6051E
:10132000990F922B9093F60590918E02913061F473
:1013300010928E029091F6059093BB009091BC00A4
:1013400093FDF8CF95EC01C095EE9093BC00909181
:1013500090029230E1F3909119069F3F79F08091CD
:101360001906803241F080911906803331F084E013
:1013700005C081E003C082E001C083E010929202C8
:1013800010929402109291020895EF92FF921F938F
:10139000CF93DF931F92CDB7DEB7162F92E7E92EDA
:1013A00095E0F92ED7011C969C911C9721E0209383
:1013B00091029093930210929202109294021A96C4
:1013C0000D90BC91A02DED91FC9111970190F081B1
:1013D000E02D682FCD0179831995F70182859385DA
:1013E000DC01ED91FC910190F081E02D7981672F76
:1013F0001995F70182859385DC01ED91FC910190AF
:10140000F081E02D612F19950F90DF91CF911F9101
:10141000FF90EF900C9468098F929F92AF92BF92C9
:101420000F931F93CF93DF93CDB7DEB7A1970FB67E
:10143000F894DEBF0FBECDBF19A2423008F44AE0D7
:101440008E010F5D1F4F842E912CA12CB12CA50174
:1014500094010E942C12E62FB901CA010150110912
:10146000EA3014F4E05D01C0E95CD801EC93232B71
:10147000242B252B61F7C8010E945609A1960FB6AF
:10148000F894DEBF0FBECDBFDF91CF911F910F91BA
:10149000BF90AF909F908F900895CF92DF92EF9280
:1014A000FF92CF93DF936B017C01E091DB03F0911E
:1014B000DC030190F081E02D6DE28BED93E0199556
:1014C000EC0166277727CB016C197D098E099F09EE
:1014D0004AE00E940C0A8C0F9D1FDF91CF91FF9074
:1014E000EF90DF90CF9008951F920F920FB60F925A
:1014F00011240F900FBE0F901F9018951F920F92FE
:101500000FB60F9211240BB60F922F933F934F9368
:101510005F936F937F938F939F93AF93BF93EF935B
:10152000FF938091B900887F803609F49CC068F5EC
:10153000883209F45BC090F4803109F454C038F467
:10154000882309F4F6C0883009F44DC0F6C088310C
:1015500009F44CC0803209F45DC0EFC0803409F456
:1015600068C048F4803309F455C0883309F0E5C0F9
:1015700080931906D8C0803509F44FC0883509F426
:101580005DC0883409F0D9C0D6C0883909F4C7C015
:10159000A8F4883709F467C038F4883609F463C0C2
:1015A000803709F460C0C9C0883809F4B8C08039F0
:1015B00009F45FC0803809F0C0C05BC0803B09F40B
:1015C00086C038F4803A09F466C0883A09F47FC0CE
:1015D000B4C0803C09F4A7C0883C09F4A4C0883B8F
:1015E00009F48AC0AAC08091F60510C0909118062F
:1015F00080911706981770F5E091180681E08E0F1C
:1016000080931806F0E0E950FA4F80818093BB0088
:1016100085EC86C0809319068EC0E091180681E0A3
:101620008E0F809318068091BB00F0E0E950FA4FCE
:10163000808390911806809117066EC0E09118067D
:1016400081E08E0F809318068091BB00F0E0E95096
:10165000FA4F808380918F0281116DC081E0809369
:101660008E0284EA61C083E0809390021092F305B9
:10167000CFCF8091F305803208F051C0E091F3059F
:1016800081E08E0F8093F3058091BB00F0E0ED5276
:10169000FA4F8083BDCF85EC8093BC0010929002FE
:1016A0008091F305803230F4E091F305F0E0ED52E3
:1016B000FA4F10826091F30570E0E091D105F0914E
:1016C000D20583ED95E019951092F30536C084E0BC
:1016D000809390021092D0051092CF05E091CD0535
:1016E000F091CE0519958091CF05811105C081E05B
:1016F0008093CF051092AD05E091D00581E08E0F6B
:101700008093D005F0E0E355FA4F80818093BB00D1
:101710009091D0058091CF05981708F479CF85E88E
:101720008093BC000AC085EC8093BC0010929002AC
:1017300004C0109219060E947708FF91EF91BF91A3
:10174000AF919F918F917F916F915F914F913F9159
:101750002F910F900BBE0F900FBE0F901F901895FA
:10176000362F90E0FC01E354FD4F4491FC01E95811
:10177000FD4F2491FC01EF5CFD4F9491992309F4F6
:101780006BC0442309F455C050E0FA013197E231AF
:10179000F10508F04EC08827EC57FF4F8F4F0C948F
:1017A0005A12809180008F7707C0809180008F7DD2
:1017B00003C080918000877F809380003AC084B509
:1017C0008F7702C084B58F7D84BD33C08091B00017
:1017D0008F7703C08091B0008F7D8093B00029C0C7
:1017E000809190008F7707C0809190008F7D03C01B
:1017F00080919000877F809390001BC08091A00013
:101800008F7707C08091A0008F7D03C08091A000DA
:10181000877F8093A0000DC0809120018F7707C043
:10182000809120018F7D03C080912001877F80936C
:101830002001E92FF0E0EE0FFF1FE95EFD4FA591BB
:10184000B4918FB7F894EC91311103C020952E23F9
:1018500001C02E2B2C938FBF0895CF93DF9390E080
:10186000FC01E958FD4F2491FC01EF5CFD4F849190
:10187000882361F190E0880F991FFC01E350FE4F2F
:10188000C591D491FC01E95EFD4FA591B491611120
:1018900009C09FB7F8948881209582238883EC91B2
:1018A0002E230BC0623061F49FB7F8943881822FE9
:1018B000809583238883EC912E2B2C939FBF06C0A9
:1018C0008FB7F894E8812E2B28838FBFDF91CF91BB
:1018D00008953FB7F8948091880290918902A09171
:1018E0008A02B0918B0226B5A89B05C02F3F19F044
:1018F0000196A11DB11D3FBFBA2FA92F982F882790
:10190000820F911DA11DB11DBC01CD0142E0660FEA
:10191000771F881F991F4A95D1F70895789484B549
:10192000826084BD84B5816084BD85B5826085BDDB
:1019300085B5816085BD80916E00816080936E0069
:10194000109281008091810082608093810080915B
:10195000810081608093810080918000816080930C
:1019600080008091B10084608093B1008091B000CC
:1019700081608093B000809191008260809391009B
:1019800080919100816080939100809190008160AE
:10199000809390008091A10082608093A10080914B
:1019A000A10081608093A1008091A000816080935C
:1019B000A00080912101826080932101809121010A
:1019C00081608093210180912001816080932001BA
:1019D00080917A00846080937A0080917A0082609E
:1019E00080937A0080917A00816080937A00809160
:1019F0007A00806880937A001092C1000E942E09BC
:101A000061E0809173050E942D0C60E08091730568
:101A10000E94B00B60E0809172050E942D0C85E958
:101A200092E090937D0580937C0510928D02109238
:101A30008C0210929202109294021092900281E015
:101A400080938F0210928E0261E084E10E94B00BBD
:101A500061E085E10E94B00B8091B9008E7F809398
:101A6000B9008091B9008D7F8093B90088E480939C
:101A7000B80085E48093BC0080E090E1A0E0B0E095
:101A800080937F0590938005A0938105B093820594
:101A90008AE090E0A0E0B0E0809383059093840515
:101AA000A0938505B093860582E090E0A0E0B0E0C9
:101AB0008093870590938805A0938905B0938A0544
:101AC00060E070E185E00E94C5096FE979E380E09C
:101AD0000E94C509CFE8D5E0C12CD12CE12CF12C16
:101AE00046E6442E42E0542E5CEA852E52E0952EC6
:101AF0006BECA62E67E0B62E97012E583A4F3901AF
:101B0000D90114969C91149712968C9186010E58C7
:101B10001A4FF801818F928F61E00E942D0C61E0D5
:101B2000D8015A968C910E942D0CF30190858681E4
:101B30008883D8015E969C9361E00E942D0C60E042
:101B4000F801868D0E942D0C61E088810E94B00B07
:101B50001FB7F89480917A02811125C0F201849117
:101B6000F4019491E82FF0E0EE0FFF1FE350FE4FD9
:101B7000A591B4918C91982321F461E085E30E94B2
:101B8000B00B61E085E30E942D0C8CB580618CBDAB
:101B90008CB580648CBD61E084E30E942D0C61E013
:101BA00083E30E942D0C80917A028F5F80937A02EA
:101BB0001FBFC5010197F1F760E088810E94B00B5B
:101BC00088E80E94100383E00E94100361E088818E
:101BD0000E94B00BC5010197F1F7CE010E943404B9
:101BE000F2E0CF0ED11C2296EA94EF2821F0EE24E9
:101BF000E394F12C81CFC7E9D5E01C2F1C5F60E096
:101C000089910E942D0C1C13FACFC3EACC2EC5E09B
:101C1000DC2EDFE9ED2ED5E0FD2ECAEAD5E000E0AE
:101C200010E08CE0A82E92E0B92EF7013497908056
:101C3000D6018C91803308F055C061E0892D0E9457
:101C40002D0CF6018081E82FF0E09F01220F331F59
:101C5000E20FF31FE858FB4F992D9F732081207CE2
:101C6000922E992A9082F801ED56FA4F118A128A23
:101C70006A2D0E944E12FCE08F9FB001112440E0BB
:101C800050E09A01260F371FF901EE0FFF1F2E0FAC
:101C90003F1FF901E858FB4F908196FD16C04F5F3A
:101CA0005F4F4C30510569F7813009F0E7C0109261
:101CB0008000B09281001092850010928400B19A49
:101CC00080916F00826080936F00D601EC91F0E00C
:101CD000CF01880F991FE80FF91FE858FB4F80814B
:101CE00080648083F70181917F01FE0131978083B9
:101CF000888360E00E942D0C61E088810E942D0C99
:101D000060E088810E94B00BF3E0CF0ED11C0D5F24
:101D10001F4F22960630110509F087CF8FE895E016
:101D20000E94340481E995E00E9434040E942E0947
:101D30004CE55FE862EC7DE38BE895E00E941B03D5
:101D40004DEC5CEC6CEC7DEB8DE895E00E941B03A8
:101D50008FE895E00E94340481E995E00E94340404
:101D600081E995E00E945F046B017C0160937F0232
:101D70007093800280938102909382028FE895E0B5
:101D80000E945F049B01AC0188279927DC01821B1C
:101D9000930BA40BB50B80937B0290937C02A093D2
:101DA0007D02B0937E0238EEC31633E0D306E10421
:101DB000F104B4F287E392E00E94560960917B023D
:101DC00070917C0280917D0290917E0297FF03C00A
:101DD0000E944D0A03C04AE00E940C0A85E492E08A
:101DE0000E94560988E492E00E94560960917F02A1
:101DF00070918002809181029091820297FF03C0CE
:101E00000E944D0A03C04AE00E940C0A40E050E0E4
:101E1000BA018BE895E00E941B0340E050E060E0CF
:101E200070E88DE895E00E941B030E94690C4B014D
:101E30005C018AE0C82ED12CE12CF12C0E94690CA7
:101E4000DC01CB0188199909AA09BB09883E934096
:101E5000A105B10558F041E0C41AD108E108F10824
:101E600058EE850E53E0951EA11CB11CC114D1047F
:101E7000E104F10419F70E94E302D7CF823061F444
:101E8000109290008093910010929500109294000F
:101E900088BB8093710019CF833061F41092A00049
:101EA000B092A1001092A5001092A400B9BAB0920D
:101EB00072000BCF811109CF10922001B092210145
:101EC0001092250110922401BABAB0927300FDCE8F
:101ED0008091090590910A050C9432131092980292
:101EE0001092970288EE93E0A0E0B0E08093990210
:101EF00090939A02A0939B02B0939C022BE032E055
:101F000030939602209395021092A4021092A3029D
:101F10008093A5029093A602A093A702B093A80273
:101F20002DE132E03093A2022093A10245E351E07B
:101F30005093AE024093AD0244E351E05093B0029F
:101F40004093AF0240E351E05093B2024093B1029C
:101F500041E351E05093B4024093B30242E351E0B5
:101F60005093B6024093B50246E351E05093B80255
:101F70004093B7021092BA021092BB021092BC02B8
:101F80001092BD02109241031092400380934203CD
:101F900090934303A0934403B093450330933F03CE
:101FA00020933E0345ED50E050934B0340934A038A
:101FB00044ED50E050934D0340934C0340ED50E00E
:101FC00050934F0340934E0341ED50E05093510323
:101FD0004093500342ED50E050935303409352031B
:101FE00046ED50E05093550340935403109257032D
:101FF000109258031092590310925A031092DE0364
:102000001092DD038093DF039093E003A093E1033C
:10201000B093E2033093DC032093DB0385EC90E084
:102020009093E8038093E70384EC90E09093EA03B5
:102030008093E90380EC90E09093EC038093EB03B2
:1020400081EC90E09093EE038093ED0382EC90E0BE
:102050009093F0038093EF0386EC90E09093F2036B
:102060008093F1031092F4031092F5031092F6039B
:102070001092F70386E38093930587E3809394059A
:1020800088E38093950589E3809396058BE180939F
:1020900097058DE1809398058AE1809399058CE1FD
:1020A00080939A0584E080939B0587E080939C054C
:1020B00010929D0584EB80939E0586E180939F0599
:1020C00088E18093A00587E18093A10589E1809351
:1020D000A20580910805803320F08FEF8093A3053F
:1020E00013C091E0980F909308058093A30590E0AA
:1020F000FC01EE0FFF1F8E0F9F1FFC01E858FB4FE6
:1021000088EB9BE09283818380910805803320F0E7
:102110008FEF8093A60513C091E0980F9093080568
:102120008093A60590E0FC01EE0FFF1F8E0F9F1F0E
:10213000FC01E858FB4F88EB9BE0928381838CE0A5
:102140008093720584E28093730586E08093740522
:1021500085E0809375058FE1809376058EE180930D
:10216000770583E28093780582E28093790585E4A0
:1021700080937A0584E480937B0580E480937E05D8
:1021800010928305109284051092850510928605A1
:1021900010928705109288051092890510928A0581
:1021A000E3E1F5E08FEF9FEFDC01128213821482EE
:1021B0001582168217821086118683879487A587D9
:1021C000B6878787908BA18BB28B12861182108283
:1021D000739625E0E237F20741F78DE090E00E9428
:1021E0009D12FC01138212828FE292E09183808320
:1021F000118687E2848384E1828784E08387148662
:10220000F0931005E0930F0510921105109212053E
:1022100010920A051092090510920C0510920B05F8
:1022200010920E0510920D0561E070E080E090E0E4
:102230000E94CA13009789F090930A0580930905BC
:1022400010920C0510920B0520910D0530910E0592
:10225000232BC1F4FC01108215C0809109059091D7
:102260000A05009711F00E94321310920A0510928D
:10227000090510920E0510920D0510920C05109292
:102280000B05089510920E0510920D0567E472E09B
:102290000C94C114990F0008550FAA0BE0E8FEEF4B
:1022A00016161706E807F907C0F012161306E4071A
:1022B000F50798F0621B730B840B950B39F40A2613
:1022C00061F0232B242B252B21F408950A2609F4F1
:1022D000A140A6958FEF811D811D08950E94811157
:1022E0000C94F2110E94E41138F00E94EB1120F0DE
:1022F000952311F00C94DB110C94E11111240C9432
:1023000026120E94031270F3959FC1F3950F50E0BF
:10231000551F629FF001729FBB27F00DB11D639F97
:10232000AA27F00DB11DAA1F649F6627B00DA11D3D
:10233000661F829F2227B00DA11D621F739FB00DE3
:10234000A11D621F839FA00D611D221F749F332753
:10235000A00D611D231F849F600D211D822F762FEC
:102360006A2F11249F5750409AF0F1F088234AF0C9
:10237000EE0FFF1FBB1F661F771F881F9150504035
:10238000A9F79E3F510580F00C94DB110C942612A6
:102390005F3FE4F3983ED4F3869577956795B795BC
:1023A000F795E7959F5FC1F7FE2B880F911D9695D6
:1023B000879597F9089597F99F6780E870E060E046
:1023C00008959FEF80EC089500240A9416161706CE
:1023D00018060906089500240A9412161306140616
:1023E00005060895092E0394000C11F4882352F079
:1023F000BB0F40F4BF2B11F460FF04C06F5F7F4F31
:102400008F4F9F4F089557FD9058440F551F59F017
:102410005F3F71F04795880F97FB991F61F09F3FD1
:1024200079F087950895121613061406551FF2CFFA
:102430004695F1DF08C0161617061806991FF1CF4A
:1024400086957105610508940895E894BB27662771
:102450007727CB0197F90895A1E21A2EAA1BBB1B7F
:10246000FD010DC0AA1FBB1FEE1FFF1FA217B30760
:10247000E407F50720F0A21BB30BE40BF50B661F76
:10248000771F881F991F1A9469F76095709580953A
:1024900090959B01AC01BD01CF010895991B79E096
:1024A00004C0991F961708F0961B881F7A95C9F7E4
:1024B00080950895EE0FFF1F881F8BBF0790F69140
:1024C000E02D19940E9469126894B1110C9426129F
:1024D00008950E940B1288F09F5798F0B92F992702
:1024E000B751B0F0E1F0660F771F881F991F1AF0FF
:1024F000BA95C9F714C0B13091F00E942512B1E02D
:1025000008950C942512672F782F8827B85F39F02B
:10251000B93FCCF3869577956795B395D9F73EF497
:1025200090958095709561957F4F8F4F9F4F08953F
:102530000E944A1108F48FEF0895CF93DF93823001
:10254000910510F482E090E0E0913C06F0913D06A8
:1025500020E030E0C0E0D0E0309711F140815181BF
:1025600048175907C0F04817590761F482819381D1
:10257000209719F09B838A832BC090933D0680930C
:102580003C0626C02115310519F04217530718F4EF
:102590009A01BE01DF01EF010280F381E02DDCCF63
:1025A0002115310509F1281B390B2430310590F430
:1025B00012968D919C9113976115710521F0FB0185
:1025C0009383828304C090933D0680933C06FD0173
:1025D000329644C0FD01E20FF31F81939193225084
:1025E00031092D933C933AC020913A0630913B0635
:1025F000232B41F4209103023091040230933B06D7
:1026000020933A06209101023091020221153105F2
:1026100041F42DB73EB74091050250910602241BAC
:10262000350BE0913A06F0913B06E217F307A0F470
:102630002E1B3F0B2817390778F0AC014E5F5F4F18
:102640002417350748F04E0F5F1F50933B06409309
:102650003A068193919302C0E0E0F0E0CF01DF9170
:10266000CF9108950F931F93CF93DF93009709F4B1
:102670008CC0FC0132971382128200913C061091AB
:102680003D060115110581F420813181820F931FD0
:1026900020913A0630913B062817390779F5F093D7
:1026A0003B06E0933A0671C0D80140E050E0AE1717
:1026B000BF0750F412962D913C911397AD0121154F
:1026C000310509F1D901F3CF9D01DA01338322836A
:1026D00060817181860F971F8217930769F4EC015F
:1026E00028813981260F371F2E5F3F4F318320838A
:1026F0008A819B8193838283452B29F4F0933D0645
:10270000E0933C0642C01396FC93EE931297ED01C2
:10271000499159919E01240F351FE217F30771F477
:1027200080819181840F951F029611969C938E93C0
:102730008281938113969C938E931297E0E0F0E050
:10274000D80112968D919C911397009719F0F8017A
:102750008C01F6CF8D919C9198012E5F3F4F820F97
:10276000931F20913A0630913B062817390769F4E8
:10277000309729F410923D0610923C0602C0138255
:10278000128210933B0600933A06DF91CF911F917E
:102790000F9108956F927F928F929F92AF92BF9206
:1027A000CF92DF92EF92FF920F931F93CF93DF931D
:1027B000EC01009789F4CB01DF91CF911F910F912C
:1027C000FF90EF90DF90CF90BF90AF909F908F9051
:1027D0007F906F900C949D12FC01E60FF71F9C01F7
:1027E00022503109E217F30708F4ACC0D9010D916A
:1027F0001C91119706171707B0F00530110508F462
:102800009FC0C80104978617970708F499C0025023
:102810001109061B170B019311936D937C93CF0144
:102820000E9432138DC05B01A01AB10A4C01800EC8
:10283000911EA0913C06B0913D0640E050E0E12C95
:10284000F12C109709F44AC0A815B905D1F56D907F
:102850007C901197630182E0C80ED11CCA14DB047E
:1028600080F1A3014A195B096A0182E0C80ED11CFC
:102870001296BC9012971396AC91B5E0CB16D1048A
:1028800040F0B282A38351834083D9016D937C933E
:102890000AC00E5F1F4FC301800F911FF901918382
:1028A0008083EB2DFA2FE114F10431F0D701139658
:1028B000FC93EE93129744C0F0933D06E0933C06E0
:1028C0003FC08D919C9111974817590708F4AC01AE
:1028D0007D0112960D90BC91A02DB3CF80913A0648
:1028E00090913B0688159905E1F446175707C8F4FF
:1028F0008091010290910202009741F48DB79EB73A
:102900004091050250910602841B950BE817F907C8
:10291000C8F4F0933B06E0933A06F90171836083B3
:102920000FC0CB010E949D127C01009759F0A801B5
:10293000BE010E94B814CE010E943213C70104C028
:10294000CE0102C080E090E0DF91CF911F910F9106
:10295000FF90EF90DF90CF90BF90AF909F908F90BF
:102960007F906F90089581E090E0F8940C94C814E3
:10297000FB01DC0102C001900D9241505040D8F79C
:102980000895FB01DC0101900D920020E1F708950C
:1029900011E0C3E8D1E000E006C0802FFE010E94F4
:1029A0005A122196011DC438D10780E00807A9F703
:0429B000F894FFCFC9
:1029B400FF00003E06200000000000FF08CF0818BA
:1029C40003A908C708B808AA08000000007702B7DE
:1029D40001FB01BE022C020A021E0200000000B527
:1029E40005B70118031703726F756547617563684E
:1029F40065203D20000D0A00726F756544726F6991
:062A04007465203D200076
:00000001FF
