:100000000C9450010C9481010C9481010C94810199
:100010000C9481010C9481010C9481010C94810158
:100020000C9481010C9411090C9411090C94110980
:100030000C9481010C94D1040C9481010C948101E5
:100040000C9481010C94F6060C9481010C948101AE
:100050000C9481010C9481010C9481010C9487040F
:100060000C9481010C9442060C9418060C948101A6
:100070000C9481010C9481010C9481010C948101F8
:100080000C94C8060C9481010C9481010C9481019C
:100090000C9481010C9481010C9481010C941B0936
:1000A0000C9481010C9481010C949A060C948101AA
:1000B0000C9481010C9481010C9481010C946C06C8
:1000C0000C9481010C9481010C9481010C94EE0537
:1000D0000C94C4050C9481010C949A050C94700541
:1000E0000C9481017C0A7F0A6E0A720A760AB60AAB
:1000F000830A870A8D0A910A950A9B0A9F0AA30A16
:10010000B60AA90AAD0AB10A0C94B10A0C94A30765
:100110000C94720A0C94A30A0C948A020C94870A19
:100120000C949B070C94F8010C947E070C94830AA2
:100130000C94D6010C9445070C947C0A0C949B0AF1
:100140000C94D3070C94A90A0C946E0A0C947D07A6
:100150000C94E4020C94E3020C949F0A0C948C0718
:100160000C94B60A0C94760A0C9443020C94950AEB
:100170000C948D0A0C9483010C94470D0C94AD0AD9
:100180000C944D0D0C94910A0C94C7010C94EA0147
:100190000C947F0A0200002100240027002A002D71
:1001A000003000330001010000040107010A0100D2
:1001B000002200250028002B002E00310034000210
:1001C000010000050108010B0105050505070508EB
:1001D000080808020202020A0A08080404040401CA
:1001E00001010101010101030303030303030304EC
:1001F0000707070C0C0C0C0C0C0C0C02020202067C
:10020000060606060606060B0B0B0B0B0B0B0B016B
:100210000210202008081020401020408002010217
:1002200001080402010102040810204080804020DF
:10023000100804020180040201804020100804021A
:100240000108040201010204081020408001020498
:10025000081020408000000A0B02090C0D0E080750
:100260000304010000000000000000000000000086
:10027000000000000000000000000000000000007E
:10028000001211100000000000000000000000003B
:100290000000000000000000000000004D0D470DB0
:1002A00011241FBECFEFD1E2DEBFCDBF00E00CBFF7
:1002B00012E0A0E0B2E0EAEBF2E200E00BBF02C025
:1002C00007900D92A833B107D9F726E0A8E3B2E072
:1002D00001C01D92A630B207E1F711E0CFE4D1E0F2
:1002E00000E006C021970109802FFE010E94180F2F
:1002F000CE34D10780E00807A9F70E945E0B0C946A
:100300004B110C940000CF92DF92EF92FF920F936B
:100310001F93CF93DF936C017A018B01C0E0D0E093
:10032000CE15DF0589F0D8016D918D01D601ED91D3
:10033000FC910190F081E02DC6011995892B11F4F3
:100340007E0102C02196ECCFC701DF91CF911F91B2
:100350000F91FF90EF90DF90CF900895FC01A0895E
:10036000B1898C91A689B78982FD0FC09C91818D3E
:100370008F5F8F73228D821749F0218DDF01A20FCD
:10038000B11D5D969C93818F08958C910895FC0119
:10039000538D448D252F30E0842F90E0821B930BEA
:1003A000541710F0CF96089501970895FC01918D90
:1003B000828D981761F0828DDF01A80FB11D5D96C7
:1003C0008C91928D9F5F9F73928F90E008958FEF35
:1003D0009FEF0895FC01918D828D981731F0828DE9
:1003E000E80FF11D858D90E008958FEF9FEF089540
:1003F000FC01918D228D892F90E0805C9F4F821BA4
:1004000091098F739927089582E892E00E94F8017C
:1004100021E0892B09F420E0822F08958FE193E0F9
:100420000E94F80121E0892B09F420E0822F089531
:100430008CEB93E00E94F80121E0892B09F420E085
:10044000822F0895FC01848DDF01A80FB11DA35AEE
:10045000BF4F2C91848D90E001968F739927848FE4
:10046000A689B7892C93A089B1898C9180648C93DB
:10047000938D848D981306C00288F389E02D8081C6
:100480008F7D80830895EF92FF920F931F93CF93F8
:10049000DF93EC0181E0888F9B8D8C8D981305C0D4
:1004A000E889F989808185FD24C0F62E0B8D10E046
:1004B0000F5F1F4F0F731127E02E8C8DE8120CC0B9
:1004C0000FB607FCFACFE889F989808185FFF5CF5F
:1004D000CE010E942202F1CF8B8DFE01E80FF11DAB
:1004E000E35AFF4FF0820B8FEA89FB89808180629B
:1004F00007C0EE89FF896083E889F989808180647B
:10050000808381E090E0DF91CF911F910F91FF9068
:10051000EF900895CF93DF93EC01888D8823C9F085
:10052000EA89FB89808185FD05C0A889B9898C91FC
:1005300086FD0FC00FB607FCF5CF808185FFF2CF97
:10054000A889B9898C9185FFEDCFCE010E94220246
:10055000E7CFDF91CF910895E0E0F0E0199480E0DB
:1005600090E0892B21F00E941802811119C080E0CF
:1005700090E0892B41F080E090E0892B21F00E94EF
:100580000000811110C00E940E0281110FC080E096
:1005900090E0892B81F00E94040281110AC0089525
:1005A0000E940000E4CF0E940000EDCF0E94AC0248
:1005B000EECF0C94000008958EBD00000DB407FE30
:1005C000FDCF8EB50895089580E090E008950F93D3
:1005D0001F93CF93DF93EC01862F6883498361E0FB
:1005E0000E94E80A60E089810E94E80A61E088814F
:1005F0000E944D0A1FB7F89480915502811127C0BF
:10060000EEEFF1E09491E4E4F2E08491E92FF0E080
:10061000EE0FFF1FEB56FE4FA591B491EC91E8232E
:1006200021F461E085E30E944D0A61E085E30E94C8
:10063000E80A8CB580618CBD8CB580648CBD61E0AE
:1006400084E30E94E80A61E083E30E94E80A809163
:1006500055028F5F809355021FBF0BEC17E0C80156
:100660000197F1F760E088810E944D0A88E80E94B6
:10067000DC0283E00E94DC0261E088810E944D0A76
:10068000C8010197F1F760E088810E944D0A88E96E
:100690000E94DC0280E00E94DC0280E00E94DC021A
:1006A00080E00E94DC0280E00E94DC0261E0888140
:1006B0000E944D0A8BE891E00197F1F760E0888194
:1006C0000E944D0A80EE0E94DC0261E08881DF9189
:1006D000CF911F910F910C944D0ACF92DF92EF9220
:1006E000FF920F931F93CF93DF936C018B017A01DD
:1006F000EC01CF5ADD4F888187FF04C0FB011182D6
:10070000108224C08CE08C9D90018D9D300D1124B1
:100710008881A901480F511D87FD5A958091E904F0
:1007200090E04817590794F48881A901480F511D9A
:1007300087FD5A95CA01FA01EE0FFF1F8E0F9F1F0A
:10074000FC01E75AFB4F808186FD19C088818F5FCD
:1007500088838CE08C9D90018D9D300D11248881C3
:10076000A901480F511D87FD5A958091E90490E039
:1007700048175907BCF488818C3044F113C0888134
:10078000280F311D87FD3A95F901EE0FFF1F2E0F3F
:100790003F1FF901E75AFB4F808160E08F730E9491
:1007A0004D0AD4CFF80180819181049680349C4910
:1007B00018F480E49CE904C0F801808191810496DA
:1007C000F701918380838FEF888345C0F8014081D2
:1007D00051818881B901680F711D87FD7A95CB0120
:1007E000FB01EE0FFF1F8E0F9F1FFC01E75AFB4F0F
:1007F00081819281840F951FF70191838083888185
:10080000A901480F511D87FD5A95CA01FA01EE0F43
:10081000FF1F8E0F9F1FFC01E75AFB4F808186FF51
:100820001AC08881280F311D87FD3A95F901EE0F16
:10083000FF1F2E0F3F1FF901E75AFB4F808161E038
:100840008F73DF91CF911F910F91FF90EF90DF9009
:10085000CF900C944D0ADF91CF911F910F91FF9093
:10086000EF90DF90CF9008950E943611FC01248113
:1008700031E030937202209374021092730210924E
:1008800075028485682B86E792E00E94D3070C945A
:1008900069080F931F93CF938C01C62F0E943604D3
:1008A0006C2F6460C8010E9436046C2F6B7FC801F6
:1008B0000E94360483EC90E00197F1F7CF911F91ED
:1008C0000F9108953FB7F89480916C0290916D025A
:1008D000A0916E02B0916F0226B5A89B05C02F3F74
:1008E00019F00196A11DB11D3FBFBA2FA92F982F56
:1008F0008827820F911DA11DB11DBC01CD0142E0D1
:10090000660F771F881F991F4A95D1F708951F9288
:100910000F920FB60F9211242F933F938F939F93B3
:10092000AF93BF938091680290916902A0916A028F
:10093000B0916B023091670223E0230F2D3720F432
:100940000196A11DB11D05C026E8230F0296A11D29
:10095000B11D209367028093680290936902A0936F
:100960006A02B0936B0280916C0290916D02A0912B
:100970006E02B0916F020196A11DB11D80936C02B1
:1009800090936D02A0936E02B0936F02BF91AF91EE
:100990009F918F913F912F910F900FBE0F901F90BD
:1009A00018951F920F920FB60F9211240BB60F924B
:1009B0002F933F934F935F936F937F938F939F9367
:1009C000AF93BF93EF93FF938091590290915A0296
:1009D000A0915B02B0915C02892B8A2B8B2B59F181
:1009E00080915802E0915602F09157029081892738
:1009F00080838091590290915A02A0915B02B0913C
:100A00005C02181619061A061B060CF056C08091D7
:100A1000590290915A02A0915B02B0915C02019739
:100A2000A109B1098093590290935A02A0935B02E5
:100A3000B0935C0242C080910002E4E9F1E0E491ED
:100A40009FEF90930002E230C9F050F4EE2399F04A
:100A5000E13081F590916F009D7F90936F002AC0E7
:100A6000E43019F1E0F0E53029F5909173009D7FB5
:100A7000909373001FC010926E001CC09091700084
:100A80009D7F9093700091E09093B0009091B100A1
:100A9000987F94609093B1001092B3000BC0909136
:100AA00071009D7F9093710005C0909172009D7FB1
:100AB0009093720060E00E944D0AFF91EF91BF9108
:100AC000AF919F918F917F916F915F914F913F91E6
:100AD0002F910F900BBE0F900FBE0F901F90189587
:100AE0001F920F920FB60F9211240BB60F922F93F5
:100AF0003F934F935F936F937F938F939F93AF93A6
:100B0000BF93EF93FF9382E892E00E942202FF914D
:100B1000EF91BF91AF919F918F917F916F915F9175
:100B20004F913F912F910F900BBE0F900FBE0F90E2
:100B30001F9018951F920F920FB60F9211240BB6AB
:100B40000F922F933F934F935F936F937F938F9366
:100B50009F93AF93BF93EF93FF9382E892E00E943D
:100B6000AE01FF91EF91BF91AF919F918F917F91D6
:100B70006F915F914F913F912F910F900BBE0F900E
:100B80000FBE0F901F9018951F920F920FB60F92E5
:100B900011240BB60F922F933F934F935F936F9354
:100BA0007F938F939F93AF93BF93EF93FF938FE1C7
:100BB00093E00E942202FF91EF91BF91AF919F912C
:100BC0008F917F916F915F914F913F912F910F90F6
:100BD0000BBE0F900FBE0F901F9018951F920F9293
:100BE0000FB60F9211240BB60F922F933F934F9392
:100BF0005F936F937F938F939F93AF93BF93EF9385
:100C0000FF938FE193E00E94AE01FF91EF91BF91BE
:100C1000AF919F918F917F916F915F914F913F9194
:100C20002F910F900BBE0F900FBE0F901F90189535
:100C30001F920F920FB60F9211240BB60F922F93A3
:100C40003F934F935F936F937F938F939F93AF9354
:100C5000BF93EF93FF938CEB93E00E942202FF91EE
:100C6000EF91BF91AF919F918F917F916F915F9124
:100C70004F913F912F910F900BBE0F900FBE0F9091
:100C80001F9018951F920F920FB60F9211240BB65A
:100C90000F922F933F934F935F936F937F938F9315
:100CA0009F93AF93BF93EF93FF938CEB93E00E94DE
:100CB000AE01FF91EF91BF91AF919F918F917F9185
:100CC0006F915F914F913F912F910F900BBE0F90BD
:100CD0000FBE0F901F9018951F920F920FB60F9294
:100CE00011240BB60F922F933F934F935F936F9303
:100CF0007F938F939F93AF93BF93EF93FF9348E2BC
:100D000051E064E271E080E090E00E946D03FF91A9
:100D1000EF91BF91AF919F918F917F916F915F9173
:100D20004F913F912F910F900BBE0F900FBE0F90E0
:100D30001F9018951F920F920FB60F9211240BB6A9
:100D40000F922F933F934F935F936F937F938F9364
:100D50009F93AF93BF93EF93FF9348EA50E064EA09
:100D600070E083E090E00E946D03FF91EF91BF91EE
:100D7000AF919F918F917F916F915F914F913F9133
:100D80002F910F900BBE0F900FBE0F901F901895D4
:100D90001F920F920FB60F9211240BB60F922F9342
:100DA0003F934F935F936F937F938F939F93AF93F3
:100DB000BF93EF93FF9348E950E064E970E082E06D
:100DC00090E00E946D03FF91EF91BF91AF919F91D1
:100DD0008F917F916F915F914F913F912F910F90E4
:100DE0000BBE0F900FBE0F901F9018951F920F9281
:100DF0000FB60F9211240BB60F922F933F934F9380
:100E00005F936F937F938F939F93AF93BF93EF9372
:100E1000FF9348E850E064E870E081E090E00E94D1
:100E20006D03FF91EF91BF91AF919F918F917F9152
:100E30006F915F914F913F912F910F900BBE0F904B
:100E40000FBE0F901F901895FF920F931F93CF9393
:100E5000DF931F92CDB7DEB78C01F62E962F907FD1
:100E6000692F642BC80149830E94490480E1F89EE0
:100E7000B00111244981642BC8010F90DF91CF91FB
:100E80001F910F91FF900C94490441E00E942407A8
:100E900081E090E0089585ED8093BC008091BC00D6
:100EA00084FDFCCF1092E105089540919405262F12
:100EB00030E0240F311D21323105DCF42091E105B1
:100EC0002430C9F4FC0180E090E0861758F430919A
:100ED00094052191DC01AE58BA4FA30FB11D2C939C
:100EE0000196F3CF80919405680F6093940580E09C
:100EF000089581E0089582E00895089581E090E0EA
:100F00003091710220917002321710F480E090E06D
:100F10009195819591090895809171029091700247
:100F2000891730F48F5F8093710280E090E008951C
:100F30008FEF9FEF08958091700290E020917102F1
:100F4000821B91090895CF92DF92EF92FF920F9347
:100F50001F93CF93DF937C01262F972F8A018091D7
:100F60007202882391F0C62FD72F6E01C40ED51EB2
:100F7000CC15DD0571F06991D701ED91FC910190DF
:100F8000F081E02DC7011995F3CF642F822F0E94C5
:100F90005507C801DF91CF911F910F91FF90EF90FE
:100FA000DF90CF900895CF93DF931F92CDB7DEB738
:100FB0006983209172022223D1F0209175022032A0
:100FC00040F021E030E0FC013383228380E090E0B8
:100FD00015C080917302E82FF0E0EE51FA4F99812D
:100FE00090838F5F809373028093750205C061E0E8
:100FF000CE0101960E94550781E090E00F90DF91AD
:10100000CF910895CF92DF92EF92FF920F931F93AB
:10101000CF93DF93EC016A017B01E889F98982E0D3
:1010200080834115514E61057105B1F060E079E0B2
:101030008DE390E0A70196010E94F60E89019A01C6
:101040000150110921093109369527951795079502
:10105000980101151041A8F0E889F989108260E82B
:1010600074E88EE190E0A70196010E94F60EDA0185
:10107000C9010197A109B109B695A79597958795DB
:101080009C01EC85FD853083EE85FF852083188EDD
:10109000EC89FD8986E08083EA89FB898081806113
:1010A0008083EA89FB89808188608083EA89FB8963
:1010B000808180688083EA89FB8980818F7D80833D
:1010C000DF91CF911F910F91FF90EF90DF90CF9024
:1010D00008952091750290917402213208F04AC05F
:1010E0008091E1058111FCCF32E03093E10531E0E0
:1010F0003093E0053FEF3093DF051092DE0520933B
:10110000DD05A2EEB5E04DEB55E0FA013E2F341BB4
:10111000321718F43D913193F9CF1092BC0520910C
:10112000BC05990F922B9093BC059091BB05913013
:1011300061F41092BB059091BC059093BB00909117
:10114000BC0093FDF8CF95EC01C095EE9093BC00E8
:101150009091E1059230E1F39091DF059F3F79F0A6
:101160008091DF05803241F08091DF05803331F0DE
:1011700084E005C081E003C082E001C083E01092FA
:10118000730210927502109272020895EF92FF920C
:101190001F93CF93DF931F92CDB7DEB7162F95E540
:1011A000E92E95E0F92ED7011C969C911C9721E021
:1011B000209372029093740210927302109275023F
:1011C0001A960D90BC91A02DED91FC911197019074
:1011D000F081E02D682FCD0179831995F701828583
:1011E0009385DC01ED91FC910190F081E02D7981F6
:1011F000672F1995F70182859385DC01ED91FC91AC
:101200000190F081E02D612F19950F90DF91CF9122
:101210001F91FF90EF900C94690840E060E80C94F7
:1012200024071F920F920FB60F9211240F900FBE3A
:101230000F901F9018951F920F920FB60F921124C6
:101240000BB60F922F933F934F935F936F937F93C0
:101250008F939F93AF93BF93EF93FF938091B900C8
:10126000887F803609F49CC068F5883209F45BC039
:1012700090F4803109F454C038F4882309F4F6C09E
:10128000883009F44DC0F6C0883109F44CC0803272
:1012900009F45DC0EFC0803409F468C048F48033BD
:1012A00009F455C0883309F0E5C08093DF05D8C044
:1012B000803509F44FC0883509F45DC0883409F0E1
:1012C000D9C0D6C0883909F4C7C0A8F4883709F452
:1012D00067C038F4883609F463C0803709F460C009
:1012E000C9C0883809F4B8C0803909F45FC08038B3
:1012F00009F0C0C05BC0803B09F486C038F4803A76
:1013000009F466C0883A09F47FC0B4C0803C09F48F
:10131000A7C0883C09F4A4C0883B09F48AC0AAC0CD
:101320008091BC0510C09091DE058091DD05981775
:1013300070F5E091DE0581E08E0F8093DE05F0E030
:10134000E354FA4F80818093BB0085EC86C0809384
:10135000DF058EC0E091DE0581E08E0F8093DE0513
:101360008091BB00F0E0E354FA4F80839091DE055A
:101370008091DD056EC0E091DE0581E08E0F8093E7
:10138000DE058091BB00F0E0E354FA4F808380914A
:10139000E00581116DC081E08093BB0584EA61C0E6
:1013A00083E08093E1051092B805CFCF8091B80516
:1013B000803208F051C0E091B80581E08E0F809333
:1013C000B8058091BB00F0E0E856FA4F8083BDCFAE
:1013D00085EC8093BC001092E1058091B8058032C5
:1013E00030F4E091B805F0E0E856FA4F10826091D1
:1013F000B80570E0E0919605F091970588E995E0D1
:1014000019951092B80536C084E08093E1051092DA
:10141000950510929405E0919205F0919305199528
:1014200080919405811105C081E08093940510920C
:101430007205E091950581E08E0F80939505F0E0AF
:10144000EE58FA4F80818093BB0090919505809172
:101450009405981708F479CF85E88093BC000AC0FA
:1014600085EC8093BC001092E10504C01092DF056A
:101470000E944B07FF91EF91BF91AF919F918F9188
:101480007F916F915F914F913F912F910F900BBE84
:101490000F900FBE0F901F901895362F90E0FC0113
:1014A000EB5AFD4F4491FC01E15FFD4F2491FC019B
:1014B000E753FE4F9491992309F46BC0442309F438
:1014C00055C050E0FA013197E231F10508F04EC005
:1014D0008827EE58FF4F8F4F0C94180F8091800093
:1014E0008F7707C0809180008F7D03C0809180003E
:1014F000877F809380003AC084B58F7702C084B51F
:101500008F7D84BD33C08091B0008F7703C0809100
:10151000B0008F7D8093B00029C0809190008F77BC
:1015200007C0809190008F7D03C080919000877FDD
:10153000809390001BC08091A0008F7707C080919E
:10154000A0008F7D03C08091A000877F8093A000C2
:101550000DC0809120018F7707C0809120018F7D81
:1015600003C080912001877F80932001E92FF0E064
:10157000EE0FFF1FE155FE4FA591B4918FB7F89480
:10158000EC91311103C020952E2301C02E2B2C93FA
:101590008FBF08951092E10581E08093E0051092DD
:1015A000BB0561E084E10E944D0A61E085E10E9493
:1015B0004D0AE9EBF0E080818E7F808380818D7F12
:1015C000808388E48093B80085E48093BC0008950C
:1015D000CF93DF9390E0FC01E15FFD4F2491FC018C
:1015E000E753FE4F8491882361F190E0880F991FA3
:1015F000FC01EB56FE4FC591D491FC01E155FE4F25
:10160000A591B491611109C09FB7F8948881209584
:1016100082238883EC912E230BC0623061F49FB744
:10162000F8943881822F809583238883EC912E2B28
:101630002C939FBF06C08FB7F894E8812E2B288388
:101640008FBFDF91CF9108958F929F92AF92BF92FB
:10165000CF92DF92EF92FF926B017C010E946204B5
:101660004B015C01C114D104E104F104F1F00E94CA
:101670006204DC01CB0188199909AA09BB09883EDB
:101680009340A105B10570F321E0C21AD108E10829
:10169000F10888EE880E83E0981EA11CB11CC114CD
:1016A000D104E104F10419F7DDCFFF90EF90DF9052
:1016B000CF90BF90AF909F908F900895CF93DF937E
:1016C000CDB7DEB728970FB6F894DEBF0FBECDBFFB
:1016D000789484B5826084BD84B5816084BD85B50D
:1016E000826085BD85B5816085BD80916E00816019
:1016F00080936E00109281008091810082608093BF
:1017000081008091810081608093810080918000C0
:101710008160809380008091B10084608093B100EB
:101720008091B00081608093B000809191008260D0
:1017300080939100809191008160809391008091CD
:1017400090008160809390008091A10082608093DE
:10175000A1008091A10081608093A1008091A000F0
:1017600081608093A000809121018260809321019B
:10177000809121018160809321018091200181600D
:101780008093200180917A00846080937A00809118
:101790007A00826080937A0080917A0081608093E1
:1017A0007A0080917A00806880937A001092C1005C
:1017B00040E855E260E070E08CEB93E00E940208A4
:1017C00016E0109363028FE18093640261E086E08B
:1017D0000E94E80A61E0809164020E94E80A85E0C4
:1017E000809365028EE18093660261E085E00E944D
:1017F000E80A61E0809166020E94E80A45E463E23B
:101800008FE592E00E94E70244E462E281E692E022
:101810000E94E70282E892E090935E0280935D026C
:1018200040E855E260E070E00E9402088EE789839C
:101830008FEF8A831B8389E08C831D821E8282E066
:101840008F838FEE88878E010F5F1F4F28E0F22E67
:10185000F00E80915D0290915E02D8016D918D0134
:10186000DC01ED91FC910190F081E02D1995F012D1
:10187000F0CF68EC70E080E090E00E94240B64E11F
:1018800070E080E090E00E94240B00916E051091C2
:101890006F051092710210927002109273021092F2
:1018A00075020E94CA0AF80115828385823010F001
:1018B00098E09583D80118968C9362E370E080E0FD
:1018C00090E00E94240BF8016485C8010E94360450
:1018D00068EE73E080E090E00E94240B60E3C801B2
:1018E0000E9449049BE4E92E96E4F92EC701019772
:1018F000F1F760E3C8010E944904C7010197F1F7BD
:1019000060E3C8010E94490483E592E00197F1F782
:1019100060E2C8010E944904D80115966C9160628A
:1019200040E0C8010E94240784E0F801868340E07B
:101930006CE0C8010E94240740E061E0C8010E94F9
:1019400024078BE39FE10197F1F7D80119968C9159
:10195000882319F0C8010E940D0982E0F8018783ED
:1019600040E066E0C8010E94240740E062E0C80150
:101970000E9424078BE39FE10197F1F780916E05A8
:1019800090916F0528E0DC011C962C9360E00E948A
:10199000360480916E0590916F050E940D0980912B
:1019A0006E0590916F05FC016681262F21602683CC
:1019B000696040E00E94240761E0809156050E9422
:1019C000E80A60E0809156050E944D0A60E080912F
:1019D00055050E94E80A86E792E09093600580939F
:1019E0005F051092710210927002109273021092B1
:1019F00075020E94CA0A80E090E1A0E0B0E0809306
:101A0000620590936305A0936405B09365058AE031
:101A100090E0A0E0B0E08093660590936705A09306
:101A20006805B093690582E090E0A0E0B0E08093A3
:101A30006A0590936B05A0936C05B0936D0560E00B
:101A400070E185E00E94C6086FE979E380E00E94BA
:101A5000C60807E515E084E0F82EF00E60E0D80136
:101A60008D918D010E94E80AF012F8CF40E052EC0F
:101A700061E070E08FE193E00E9402086AE070E0AC
:101A800080E090E00E94240B0E94AF02F7CF80918B
:101A9000EA049091EB040C94B50F10927902109225
:101AA000780288EE93E0A0E0B0E080937A02909311
:101AB0007B02A0937C02B0937D022BE032E0309356
:101AC000770220937602109285021092840280930E
:101AD000860290938702A0938802B09389022DE139
:101AE00032E0309383022093820245E351E0509329
:101AF0008F0240938E0244E351E050939102409351
:101B0000900240E351E0509393024093920241E3EC
:101B100051E0509395024093940242E351E0509378
:101B200097024093960246E351E050939902409306
:101B3000980210929B0210929C0210929D021092A9
:101B40009E0210922203109221038093230390930C
:101B50002403A0932503B0932603309320032093FE
:101B60001F0345ED50E050932C0340932B0344EDAD
:101B700050E050932E0340932D0340ED50E05093DE
:101B8000300340932F0341ED50E0509332034093D4
:101B9000310342ED50E0509334034093330346ED5C
:101BA00050E050933603409335031092380310925F
:101BB000390310923A0310923B031092BF03109224
:101BC000BE038093C0039093C103A093C203B0935C
:101BD000C3033093BD032093BC0385EC90E0909346
:101BE000C9038093C80384EC90E09093CB03809367
:101BF000CA0380EC90E09093CD038093CC0381ECFA
:101C000090E09093CF038093CE0382EC90E090938A
:101C1000D1038093D00386EC90E09093D30380931C
:101C2000D2031092D5031092D6031092D7031092CC
:101C3000D8038DE090E00E94200FFC0113821282F5
:101C40008FE292E091838083118687E2848384E12E
:101C5000828784E083871486F0936F05E0936E0596
:101C600010927005109271058CE08093550584E206
:101C7000809356058BE1809357058DE1809358053D
:101C80008AE1809359058CE180935A0586E380931D
:101C90005B0587E380935C0588E380935D0589E3BA
:101CA00080935E0580E48093610510926605109232
:101CB0006705109268051092690510926A051092E6
:101CC0006B0510926C0510926D058091E9048033CC
:101CD00020F09FEF90934F0511C080934F05282F60
:101CE00030E0F901EE0FFF1F2E0F3F1FF901E75AF9
:101CF000FB4F28EB3BE0328321838F5F803390F4EE
:101D000080935205282F30E0F901EE0FFF1F2E0FB0
:101D10003F1FF901E75AFB4F28EB3BE03283218359
:101D20008F5F03C09FEF909352058093E904E0EF2B
:101D3000F4E08FEF9FEFDC01128213821482158290
:101D4000168217821086118683879487A587B687A7
:101D50008787908BA18BB28B12861182108273962B
:101D600025E0EF34F20741F71092EB041092EA04F9
:101D70001092ED041092EC041092EF041092EE0415
:101D800061E070E080E090E00E944D10009789F0E3
:101D90009093EB048093EA041092ED041092EC040B
:101DA0002091EE043091EF04232BC1F4FC0110824A
:101DB00015C08091EA049091EB04009711F00E9405
:101DC000B50F1092EB041092EA041092EF041092F7
:101DD000EE041092ED041092EC0408951092EF04BA
:101DE0001092EE0467E372E00C944411A1E21A2E03
:101DF000AA1BBB1BFD010DC0AA1FBB1FEE1FFF1FAF
:101E0000A217B307E407F50720F0A21BB30BE40BFE
:101E1000F50B661F771F881F991F1A9469F7609545
:101E20007095809590959B01AC01BD01CF010895FF
:101E3000EE0FFF1F881F8BBF0790F691E02D1994BE
:101E4000CF93DF938230910510F482E090E0E0912F
:101E50000406F091050620E030E0C0E0D0E03097C5
:101E600011F14081518148175907C0F048175907AF
:101E700061F482819381209719F09B838A832BC020
:101E8000909305068093040626C02115310519F0AC
:101E90004217530718F49A01BE01DF01EF010280D7
:101EA000F381E02DDCCF2115310509F1281B390B19
:101EB0002430310590F412968D919C911397611501
:101EC000710521F0FB019383828304C09093050682
:101ED00080930406FD01329644C0FD01E20FF31F1A
:101EE00081939193225031092D933C933AC02091D4
:101EF000020630910306232B41F420910302309116
:101F000004023093030620930206209101023091CF
:101F100002022115310541F42DB73EB7409105026B
:101F200050910602241B350BE0910206F091030646
:101F3000E217F307A0F42E1B3F0B2817390778F0A0
:101F4000AC014E5F5F4F2417350748F04E0F5F1FFF
:101F500050930306409302068193919302C0E0E000
:101F6000F0E0CF01DF91CF9108950F931F93CF93AE
:101F7000DF93009709F48CC0FC0132971382128220
:101F800000910406109105060115110581F42081C8
:101F90003181820F931F209102063091030628178A
:101FA000390779F5F0930306E093020671C0D80172
:101FB00040E050E0AE17BF0750F412962D913C91CF
:101FC0001397AD012115310509F1D901F3CF9D0119
:101FD000DA013383228360817181860F971F821714
:101FE000930769F4EC0128813981260F371F2E5F92
:101FF0003F4F318320838A819B8193838283452B4A
:1020000029F4F0930506E093040642C01396FC936E
:10201000EE931297ED01499159919E01240F351FBE
:10202000E217F30771F480819181840F951F029666
:1020300011969C938E938281938113969C938E9399
:102040001297E0E0F0E0D80112968D919C911397E1
:10205000009719F0F8018C01F6CF8D919C919801B1
:102060002E5F3F4F820F931F20910206309103068F
:102070002817390769F4309729F410920506109251
:10208000040602C013821282109303060093020614
:10209000DF91CF911F910F9108956F927F928F9250
:1020A0009F92AF92BF92CF92DF92EF92FF920F93E7
:1020B0001F93CF93DF93EC01009789F4CB01DF915D
:1020C000CF911F910F91FF90EF90DF90CF90BF9035
:1020D000AF909F908F907F906F900C94200FFC0199
:1020E000E60FF71F9C0122503109E217F30708F4AD
:1020F000ACC0D9010D911C91119706171707B0F0CC
:102100000530110508F49FC0C8010497861797078A
:1021100008F499C002501109061B170B0193119383
:102120006D937C93CF010E94B50F8DC05B01A01A07
:10213000B10A4C01800E911EA0910406B0910506D3
:1021400040E050E0E12CF12C109709F44AC0A815AA
:10215000B905D1F56D907C901197630182E0C80EAE
:10216000D11CCA14DB0480F1A3014A195B096A017E
:1021700082E0C80ED11C1296BC9012971396AC91B7
:10218000B5E0CB16D10440F0B282A38351834083E3
:10219000D9016D937C930AC00E5F1F4FC301800F5E
:1021A000911FF90191838083EB2DFA2FE114F10443
:1021B00031F0D7011396FC93EE93129744C0F0933D
:1021C0000506E09304063FC08D919C911197481736
:1021D000590708F4AC017D0112960D90BC91A02D19
:1021E000B3CF809102069091030688159905E1F41A
:1021F00046175707C8F48091010290910202009798
:1022000041F48DB79EB74091050250910602841BA0
:10221000950BE817F907C8F4F0930306E09302065C
:10222000F901718360830FC0CB010E94200F7C01F4
:10223000009759F0A801BE010E943B11CE010E94F7
:10224000B50FC70104C0CE0102C080E090E0DF916D
:10225000CF911F910F91FF90EF90DF90CF90BF90A3
:10226000AF909F908F907F906F90089581E090E065
:10227000F8940C944B11FB01DC0102C001900D920B
:1022800041505040D8F70895FB01DC0101900D92B8
:102290000020E1F7089511E0CFE4D1E000E006C0AE
:1022A000802FFE010E94180F2196011DC035D10715
:0A22B00080E00807A9F7F894FFCFBB
:1022BA00FF00000606200000000000D307A307E481
:1022CA00027D079B078C077E0700000000430283FC
:1022DA0001C7018A02F801D601EA0100000000459F
:0822EA00078301E402E3020096
:00000001FF
