:100000000C9491010C94C2010C94C2010C94C20195
:100010000C94C2010C94C2010C94C2010C94C20154
:100020000C94C2010C940C090C940C090C940C094E
:100030000C94C2010C94BB040C94C2010C94C20138
:100040000C94C2010C9414070C94C2010C94C201CC
:100050000C94C2010C94C2010C94C2010C942E0C9D
:100060000C94C2010C942C060C9402060C94C20150
:100070000C94C2010C94C2010C94C2010C94C201F4
:100080000C94C2010C94C2010C94C2010C94C201E4
:100090000C94C2010C94C2010C94C2010C94230A6A
:1000A0000C94C2010C94C2010C94C2010C94C201C4
:1000B0000C94C2010C94C2010C94C2010C9456061B
:1000C0000C94C2010C94C2010C94C2010C94D8058A
:1000D0000C94AE050C94C2010C9484050C945A0542
:1000E0000C94C20188038D0392039C03A6031F0492
:1000F000B003B803C003CA03D403DE03ED03F70360
:100100001F0401040B041504E809EB09DA09DE09F0
:10011000E409220AEF09F309F909FD09010A070AAE
:100120000B0A0F0A220A150A190A1D0A0C94150A4D
:100130000C94010A0C94F7030C9484020C94B803F9
:100140000C946E090C940F0A0C94220A0C948803E8
:100150000C9448090C944F0F0C941D0A0C94DE0368
:100160000C94F3090C9417020C940B040C942B02BE
:100170000C9425030C94DE090C94FD090C94A60341
:100180000C94E4090C940B0A0C94E8090C94CB022F
:100190000C9492030C9496040C9424030C94EF0991
:1001A0000C9466090C94070A0C9439020C94F90912
:1001B0000C9415040C94CA030C94ED030C940802DF
:1001C0000C94190A0C94490F0C9449090C949C0343
:1001D0000C94EB090C948D030C94C0030C949E09B1
:1001E0000C94C4010C941F040C9401040C94570942
:1001F0000C94D4030C94DA090C94B003020000218F
:1002000000240027002A002D0030003300010100E7
:1002100000040107010A0100002200250028002B2C
:10022000002E003100340002010000050108010B1E
:1002300001000020002300260029002C002F00329E
:10024000000001000003010601090105050505077D
:100250000508080808020202020A0A080804040441
:10026000040101010101010101030303030303036D
:1002700003040707070C0C0C0C0C0C0C0C020202FC
:100280000206060606060606060B0B0B0B0B0B0BEF
:100290000B0102102020080810204010204080028E
:1002A00001020108040201010204081020408080BC
:1002B0004020100804020180040201804020100840
:1002C0000402010804020101020408102040800118
:1002D0000204081020408000000A0B02090C0D0ED9
:1002E00008070304010000000000000000000000F7
:1002F00000000000000000000000000000000000FE
:1003000000000012111000000000000000000000BA
:1003100000000000000000000000000000004F0F7F
:10032000490F11241FBECFEFD1E2DEBFCDBF00E0E9
:100330000CBF12E0A0E0B2E0E4E7F9E200E00BBF9E
:1003400002C007900D92A435B107D9F727E0A4E5C4
:10035000B2E001C01D92AB30B207E1F711E0C0E995
:10036000D1E000E006C021970109802FFE010E9424
:100370003A12CF38D10780E00807A9F70E94780C1D
:100380000C94A8140C940000CF92DF92EF92FF928D
:100390000F931F93CF93DF936C017A018B01C0E021
:1003A000D0E0CE15DF0589F0D8016D918D01D60121
:1003B000ED91FC910190F081E02DC6011995892BFA
:1003C00011F47E0102C02196ECCFC701DF91CF91DD
:1003D0001F910F91FF90EF90DF90CF900895FC0157
:1003E000A089B1898C91A689B78982FD0FC09C91A3
:1003F000818D8F5F8F73228D821749F0218DDF01F0
:10040000A20FB11D5D969C93818F08958C910895E4
:10041000FC01538D448D252F30E0842F90E0821B0A
:10042000930B541710F0CF96089501970895FC018F
:10043000918D828D981761F0828DDF01A80FB11D1B
:100440005D968C91928D9F5F9F73928F90E008953F
:100450008FEF9FEF0895FC01918D828D981731F0F9
:10046000828DE80FF11D858D90E008958FEF9FEF4D
:100470000895FC01918D228D892F90E0805C9F4F23
:10048000821B91098F73992708958DEC92E00E9449
:10049000390221E0892B09F420E0822F08958AE6B1
:1004A00093E00E94390221E0892B09F420E0822F99
:1004B000089587E094E00E94390221E0892B09F435
:1004C00020E0822F0895FC01848DDF01A80FB11D6B
:1004D000A35ABF4F2C91848D90E001968F7399277A
:1004E000848FA689B7892C93A089B1898C91806467
:1004F0008C93938D848D981306C00288F389E02D28
:1005000080818F7D80830895EF92FF920F931F93D8
:10051000CF93DF93EC0181E0888F9B8D8C8D9813B6
:1005200005C0E889F989808185FD24C0F62E0B8DF0
:1005300010E00F5F1F4F0F731127E02E8C8DE81214
:100540000CC00FB607FCFACFE889F989808185FFD6
:10055000F5CFCE010E946302F1CF8B8DFE01E80F33
:10056000F11DE35AFF4FF0820B8FEA89FB898081EE
:10057000806207C0EE89FF896083E889F9898081FC
:100580008064808381E090E0DF91CF911F910F9193
:10059000FF90EF900895CF93DF93EC01888D88232F
:1005A000C9F0EA89FB89808185FD05C0A889B989E0
:1005B0008C9186FD0FC00FB607FCF5CF808185FFBB
:1005C000F2CFA889B9898C9185FFEDCFCE010E9429
:1005D0006302E7CFDF91CF910895E0E0F0E0199456
:1005E00080E090E0892B21F00E945902811119C00E
:1005F00080E090E0892B41F080E090E0892B21F0B1
:100600000E940000811110C00E944F0281110FC092
:1006100080E090E0892B81F00E94450281110AC0A0
:1006200008950E940000E4CF0E940000EDCF0E94D8
:10063000ED02EECF0C94000008958EBD00000DB4C5
:1006400007FEFDCF8EB50895089580E090E00895EF
:100650008F929F92AF92BF92CF92DF92EF92FF92D2
:100660000F931F93CF93DF93EC016A017B0120E08E
:1006700030E04FE753E4C701B6010E944E114B0131
:100680005C0120E030E0A9010E94781218161CF4E9
:10069000C501B40103C0C501B40190580E944212C3
:1006A0008B0120E030E0A901C701B6010E94781259
:1006B000181614F460E001C061E089810E947E0B8D
:1006C0000F3F110509F014F4112702C00FEF10E0DD
:1006D000C88161E08C2F0E94AE0B0115110509F451
:1006E000B1C00F3F110509F4AFC0EC2FF0E0E952A3
:1006F000FD4FE4914E2F50E0FA013197E231F105C0
:1007000008F09DC08827EE58FF4F8F4F0C943A1287
:1007100084B5806884BD07BDA7C084B5806284BDF0
:1007200008BDA2C0809180008068809380001093F3
:1007300089000093880098C0809180008062809337
:10074000800010938B0000938A008EC080918000FF
:1007500088608093800010938D0000938C0084C08B
:100760008091B00080688093B0000093B3007CC09B
:100770008091B00080628093B0000093B40074C098
:10078000809190008068809390001093990000936E
:1007900098006AC0809190008062809390001093CE
:1007A0009B0000939A0060C08091900088608093C5
:1007B000900010939D0000939C0056C08091A00073
:1007C00080688093A0008091A0008F7B8093A00020
:1007D0001093A9000093A80047C08091A0008062F8
:1007E0008093A0001093AB000093AA003DC08091BD
:1007F000A00088608093A0001093AD000093AC002F
:1008000033C08091200180688093200110932901DA
:100810000093280129C080912001806280932001EB
:1008200010932B0100932A011FC080912001886042
:100830008093200110932D0100932C0115C00038E6
:10084000110514F460E001C061E08C2FDF91CF91BD
:100850001F910F91FF90EF90DF90CF90BF90AF90DE
:100860009F908F900C947E0BDF91CF911F910F91F1
:10087000FF90EF90DF90CF90BF90AF909F908F90C0
:100880000895CF93DF93EC0160E088810E947E0B96
:1008900088E90E941D0380E00E941D0380E00E9401
:1008A0001D0380E00E941D0380E00E941D0361E0A3
:1008B00088810E947E0B8BE891E00197F1F760E060
:1008C00088810E947E0B80EE0E941D0361E088817A
:1008D000DF91CF910C947E0B0E949314FC01248134
:1008E00031E030939D022093BF0210929E0210923D
:1008F000C0028485682B81EC92E00E949E090C94D2
:10090000F6070F931F93CF938C01C62F64600E944C
:100910006E046C2F6B7FC8010E946E0483EC90E024
:100920000197F1F7CF911F910F9108950F931F93A6
:10093000CF93DF938C01C62FD62FD07FD1606D2F40
:100940000E946E046D2FC8010E94810480E1C89F3F
:10095000B0011124C62FC1606C2FC8010E946E0423
:100960006C2FC8010E94810481E090E0DF91CF915B
:100970001F910F9108951F920F920FB60F9211249D
:100980000BB60F922F933F934F935F936F937F9389
:100990008F939F93AF93BF93EF93FF9380917102D7
:1009A00090917202A0917302B0917402892B8A2BEC
:1009B0008B2B59F180917002E0916E02F0916F02E1
:1009C0009081892780838091710290917202A09119
:1009D0007302B0917402181619061A061B060CF061
:1009E00056C08091710290917202A0917302B091F1
:1009F00074020197A109B109809371029093720268
:100A0000A0937302B093740242C080910002ECEF95
:100A1000F1E0E4919FEF90930002E230C9F050F4CE
:100A2000EE2399F0E13081F590916F009D7F9093D6
:100A30006F002AC0E43019F1E0F0E53029F590911B
:100A400073009D7F909373001FC010926E001CC0B6
:100A5000909170009D7F9093700091E09093B00012
:100A60009091B100987F94609093B1001092B30080
:100A70000BC0909171009D7F9093710005C0909183
:100A800072009D7F9093720060E00E947E0BFF9148
:100A9000EF91BF91AF919F918F917F916F915F91F6
:100AA0004F913F912F910F900BBE0F900FBE0F9063
:100AB0001F9018951F920F920FB60F9211240BB62C
:100AC0000F922F933F934F935F936F937F938F93E7
:100AD0009F93AF93BF93EF93FF938DEC92E00E94AF
:100AE0006302FF91EF91BF91AF919F918F917F91A1
:100AF0006F915F914F913F912F910F900BBE0F908F
:100B00000FBE0F901F9018951F920F920FB60F9265
:100B100011240BB60F922F933F934F935F936F93D4
:100B20007F938F939F93AF93BF93EF93FF938DEC3E
:100B300092E00E94EF01FF91EF91BF91AF919F91E1
:100B40008F917F916F915F914F913F912F910F9076
:100B50000BBE0F900FBE0F901F9018951F920F9213
:100B60000FB60F9211240BB60F922F933F934F9312
:100B70005F936F937F938F939F93AF93BF93EF9305
:100B8000FF938AE693E00E946302FF91EF91BF9189
:100B9000AF919F918F917F916F915F914F913F9115
:100BA0002F910F900BBE0F900FBE0F901F901895B6
:100BB0001F920F920FB60F9211240BB60F922F9324
:100BC0003F934F935F936F937F938F939F93AF93D5
:100BD000BF93EF93FF938AE693E00E94EF01FF91AA
:100BE000EF91BF91AF919F918F917F916F915F91A5
:100BF0004F913F912F910F900BBE0F900FBE0F9012
:100C00001F9018951F920F920FB60F9211240BB6DA
:100C10000F922F933F934F935F936F937F938F9395
:100C20009F93AF93BF93EF93FF9387E094E00E946D
:100C30006302FF91EF91BF91AF919F918F917F914F
:100C40006F915F914F913F912F910F900BBE0F903D
:100C50000FBE0F901F9018951F920F920FB60F9214
:100C600011240BB60F922F933F934F935F936F9383
:100C70007F938F939F93AF93BF93EF93FF9387E0FF
:100C800094E00E94EF01FF91EF91BF91AF919F918E
:100C90008F917F916F915F914F913F912F910F9025
:100CA0000BBE0F900FBE0F901F9018951F920F92C2
:100CB0000FB60F9211240BB60F922F933F934F93C1
:100CC0005F936F937F938F939F93AF93BF93EF93B4
:100CD000FF938091A5040E94550B2091A9043091A7
:100CE000AA042F5F3F4F3093AA042093A904909148
:100CF000A804953618F096E09093A4049091A4046B
:100D00009430C9F128F4923069F09330D1F05EC08C
:100D1000953009F451C0963009F058C091E0909395
:100D2000750551C0811152C02091A9043091AA04C7
:100D30002436310508F442C0109275051092A804BB
:100D40001CC0813009F042C0E091A80491E09E0FE0
:100D50009093A804F0E02091A9043091AA04EE0F2A
:100D6000FF1FEC55FB4F308727831092AA04109287
:100D7000A90494E029C0811117C0E091A80491E072
:100D80009E0F9093A804F0E02091A9043091AA044A
:100D9000EE0FFF1FEC55FB4F308727831092AA04FC
:100DA0001092A90493E010C02091A9043091AA04E4
:100DB0002536310558F007C0811108C01092AA04E9
:100DC0001092A90403C095E09093A4049091A70405
:100DD0009923B9F081110AC08091A604882321F0DB
:100DE0008091A60461E009C02F9A0BC08091A604EF
:100DF000882331F08091A60460E00E947E0B01C040
:100E00002F98FF91EF91BF91AF919F918F917F911B
:100E10006F915F914F913F912F910F900BBE0F906B
:100E20000FBE0F901F9018951F920F920FB60F9242
:100E300011240BB60F922F933F934F935F936F93B1
:100E40007F938F939F93AF93BF93EF93FF93809183
:100E50006D0287FF05C0109285001092840016C0B5
:100E600020916D02022E000C330B8091B20590E0B0
:100E7000281739075CF430916D0225E03203F00148
:100E80001124EA58FA4F808186FD15C080916D02C9
:100E90008F5F80936D0220916D02022E000C330B48
:100EA0008091B20590E02817390794F480916D0283
:100EB0008C302CF10DC030916D023203F001112401
:100EC000EA58FA4F808160E08F730E947E0BDECF7C
:100ED000809184009091850084349C4918F480E4CA
:100EE0009CE905C0809184009091850004969093C0
:100EF0008900809388008FEF80936D022AC0409113
:100F000084005091850030916D0225E03203F0019C
:100F10001124EA58FA4F81819281840F951F909392
:100F200089008093880030916D023203F001112412
:100F3000EA58FA4F808186FF0CC030916D0232036F
:100F4000F0011124EA58FA4F808161E08F730E940A
:100F50007E0BFF91EF91BF91AF919F918F917F9108
:100F60006F915F914F913F912F910F900BBE0F901A
:100F70000FBE0F901F901895E7E0F4E0A089B189AB
:100F800082E08C93A485B5851C92A685B7858FECED
:100F90008C93108EA489B58986E08C93A289B3893D
:100FA0008C9180618C93A289B3898C9188608C9399
:100FB000A289B3898C9180688C930288F389E02D93
:100FC00080818F7D80830895009769F0FC010190F6
:100FD0000020E9F73197AF01481B590BBC0187E0AE
:100FE00094E00C94C40180E090E008952091C00248
:100FF0009091BF02213208F04AC080919C02811179
:10100000FCCF32E030939C0231E030939B023FEF03
:1010100030939A021092990220939802AFE9B2E0BD
:1010200048E752E0FA013E2F341B321718F43D9185
:101030003193F9CF1092770220917702990F922B7A
:101040009093770290917602913061F4109276023B
:10105000909177029093BB009091BC0093FDF8CFE4
:1010600095EC01C095EE9093BC0090919C0292305B
:10107000E1F390919A029F3F79F080919A02803239
:1010800041F080919A02803331F084E005C081E024
:1010900003C082E001C083E010929E021092C00261
:1010A00010929D020895EF92FF921F93CF93DF93CA
:1010B0001F92CDB7DEB7162F9CE7E92E96E0F92EEA
:1010C000D7011C969C911C9721E020939D02909340
:1010D000BF0210929E021092C0021A960D90BC910F
:1010E000A02DED91FC9111970190F081E02D682FDA
:1010F000CD0179831995F70182859385DC01ED9106
:10110000FC910190F081E02D7981672F1995F7010D
:1011100082859385DC01ED91FC910190F081E02DB9
:10112000612F19950F90DF91CF911F91FF90EF9054
:101130000C94F6078F929F92AF92BF920F931F93DA
:10114000CF93DF93CDB7DEB7A1970FB6F894DEBF8C
:101150000FBECDBF19A2423008F44AE08E010F5DE8
:101160001F4F842E912CA12CB12CA50194010E941B
:101170000C12E62FB901CA0101501109EA3014F42A
:10118000E05D01C0E95CD801EC93232B242B252BD7
:1011900061F7C8010E94E407A1960FB6F894DEBF7C
:1011A0000FBECDBFDF91CF911F910F91BF90AF9038
:1011B0009F908F900895CF92DF92EF92FF92CF93FE
:1011C000DF936B017C01E0910704F091080401902A
:1011D000F081E02D6DE287E094E01995EC0166273F
:1011E0007727CB016C197D098E099F094AE00E947F
:1011F0009A088C0F9D1FDF91CF91FF90EF90DF90A9
:10120000CF900895BC01990F880B990B97FD0C9412
:10121000DB084AE00C949A081F920F920FB60F92C7
:1012200011240F900FBE0F901F90189585ED80939D
:10123000BC008091BC0084FDFCCF10929C020895FC
:101240004091E206262F30E0240F311D2132310576
:10125000DCF420919C022430C9F4FC0180E090E091
:10126000861758F43091E2062191DC01A054B94F61
:10127000A30FB11D2C930196F3CF8091E206680F66
:101280006093E20680E0089581E0089582E0089589
:10129000089581E090E03091B6062091B5063217AE
:1012A00010F480E090E091958195910908958091E6
:1012B000B6069091B506891730F48F5F8093B60615
:1012C00080E090E008958FEF9FEF08958091B5063C
:1012D00090E02091B606821B91090895CF92DF928B
:1012E000EF92FF920F931F93CF93DF937C01262FF2
:1012F000972F8A0180919D02882391F0C62FD72FC6
:101300006E01C40ED51ECC15DD0571F06991D701B3
:10131000ED91FC910190F081E02DC7011995F3CF7B
:10132000642F822F0E942009C801DF91CF911F9165
:101330000F91FF90EF90DF90CF900895CF93DF93C0
:101340001F92CDB7DEB7698320919D022223D1F091
:101350002091C002203240F021E030E0FC013383D4
:10136000228380E090E015C080919E02E82FF0E09B
:10137000E156FD4F998190838F5F80939E02809309
:10138000C00205C061E0CE0101960E94200981E003
:1013900090E00F90DF91CF91089590E0FC0131979C
:1013A000E231F10508F04EC08827EC57FF4F8F4F10
:1013B0000C943A12809180008F7703C08091800056
:1013C0008F7D80938000089580918000877FF9CF82
:1013D00084B58F7702C084B58F7D84BD08958091D8
:1013E000B0008F7703C08091B0008F7D8093B000F4
:1013F0000895809190008F7707C0809190008F7D35
:1014000003C080919000877F809390000895809121
:10141000A0008F7707C08091A0008F7D03C08091CE
:10142000A000877F8093A0000895809120018F778E
:1014300007C0809120018F7D03C080912001877FAC
:101440008093200108951F920F920FB60F921124DE
:101450000BB60F922F933F934F935F936F937F93AE
:101460008F939F93AF93BF93EF93FF938091B900B6
:10147000887F803609F49CC068F5883209F45BC027
:1014800090F4803109F454C038F4882309F4F6C08C
:10149000883009F44DC0F6C0883109F44CC0803260
:1014A00009F45DC0EFC0803409F468C048F48033AB
:1014B00009F455C0883309F0E5C080939A02D8C07A
:1014C000803509F44FC0883509F45DC0883409F0CF
:1014D000D9C0D6C0883909F4C7C0A8F4883709F440
:1014E00067C038F4883609F463C0803709F460C0F7
:1014F000C9C0883809F4B8C0803909F45FC08038A1
:1015000009F0C0C05BC0803B09F486C038F4803A63
:1015100009F466C0883A09F47FC0B4C0803C09F47D
:10152000A7C0883C09F4A4C0883B09F48AC0AAC0BB
:101530008091770210C0909199028091980298173B
:1015400070F5E091990281E08E0F80939902F0E0AE
:10155000E858FD4F80818093BB0085EC86C0809366
:101560009A028EC0E091990281E08E0F80939902D9
:101570008091BB00F0E0E858FD4F80839091990284
:10158000809198026EC0E091990281E08E0F809365
:1015900099028091BB00F0E0E858FD4F8083809174
:1015A0009B0281116DC081E08093760284EA61C064
:1015B00083E080939C0210920607CFCF80910607AC
:1015C000803208F051C0E091060781E08E0F8093D1
:1015D00006078091BB00F0E0EA51F94F8083BDCF50
:1015E00085EC8093BC0010929C02809106078032AB
:1015F00030F4E0910607F0E0EA51F94F1082609173
:10160000060770E0E091E406F091E50686EE96E0CC
:1016100019951092060736C084E080939C021092C0
:10162000E3061092E206E091E006F091E1061995DA
:101630008091E206811105C081E08093E20610925C
:10164000C006E091E30681E08E0F8093E306F0E0B0
:10165000E054F94F80818093BB009091E306809124
:10166000E206981708F479CF85E88093BC000AC099
:1016700085EC8093BC0010929C0204C010929A02E8
:101680000E941609FF91EF91BF91AF919F918F91A9
:101690007F916F915F914F913F912F910F900BBE72
:1016A0000F900FBE0F901F901895CF93DF93282FA8
:1016B00030E0F901E952FD4F8491F901EF56FD4FF9
:1016C000D491F901E55BFD4FC491CC2391F08111D8
:1016D0000E94CD09EC2FF0E0EE0FFF1FEF5CFD4FF5
:1016E000A591B491EC91ED2381E090E021F480E0AC
:1016F00002C080E090E0DF91CF9108951F93CF93D7
:10170000DF93282F30E0F901E952FD4F8491F90170
:10171000EF56FD4FD491F901E55BFD4FC491CC2309
:10172000C9F0162F81110E94CD09EC2FF0E0EE0FC9
:10173000FF1FE95EFD4FA591B4918FB7F894111189
:1017400005C09C91ED2FE095E92302C0EC91ED2BB3
:10175000EC938FBFDF91CF911F910895CF93DF93CB
:1017600090E0FC01EF56FD4F2491FC01E55BFD4F3D
:101770008491882361F190E0880F991FFC01E35068
:10178000FE4FC591D491FC01E95EFD4FA591B49146
:10179000611109C09FB7F8948881209582238883BE
:1017A000EC912E230BC0623061F49FB7F89438811E
:1017B000822F809583238883EC912E2B2C939FBFBF
:1017C00006C08FB7F894E8812E2B28838FBFDF9156
:1017D000CF910895863308F0865390917B00282F8F
:1017E0002870977F922B90937B0087708064809302
:1017F0007C0080917A00806480937A0080917A00E6
:1018000086FDFCCF809178002091790090E0922BAA
:1018100008953FB7F8948091BC069091BD06A091C1
:10182000BE06B091BF0626B5A89B05C02F3F19F094
:101830000196A11DB11D3FBFBA2FA92F982F882750
:10184000820F911DA11DB11DBC01CD0142E0660FAB
:10185000771F881F991F4A95D1F708951F920F92FD
:101860000FB60F9211242F933F938F939F93AF93B3
:10187000BF938091B8069091B906A091BA06B09135
:10188000BB063091B70623E0230F2D3720F40196D5
:10189000A11DB11D05C026E8230F0296A11DB11D93
:1018A0002093B7068093B8069093B906A093BA0622
:1018B000B093BB068091BC069091BD06A091BE0678
:1018C000B091BF060196A11DB11D8093BC069093F7
:1018D000BD06A093BE06B093BF06BF91AF919F9186
:1018E0008F913F912F910F900FBE0F901F901895E1
:1018F000CF93DF93CDB7DEB760970FB6F894DEBF16
:101900000FBECDBF789484B5826084BD84B58160FC
:1019100084BD85B5826085BD85B5816085BD8091BA
:101920006E00816080936E00109281008091810032
:10193000826080938100809181008160809381002A
:10194000809180008160809380008091B1008460EC
:101950008093B1008091B00081608093B00080914D
:1019600091008260809391008091910081608093CA
:101970009100809190008160809390008091A100FF
:1019800082608093A1008091A10081608093A1007A
:101990008091A00081608093A000809121018260ED
:1019A00080932101809121018160809321018091A8
:1019B000200181608093200180917A00846080936F
:1019C0007A0080917A00826080937A0080917A0018
:1019D000816080937A0080917A00806880937A0099
:1019E0001092C1000E94BC0761E080917D060E94B8
:1019F000AE0B60E080917D060E947E0B60E08091DE
:101A00007C060E94AE0B81EC92E090938706809357
:101A100086061092B6061092B50610929E0210929B
:101A2000C00210929C0281E080939B021092760289
:101A300061E084E10E947E0B61E085E10E947E0B03
:101A40008091B9008E7F8093B9008091B9008D7F1D
:101A50008093B90088E48093B80085E48093BC004B
:101A600080E090E1A0E0B0E08093890690938A0640
:101A7000A0938B06B0938C068AE090E0A0E0B0E0E3
:101A800080938D0690938E06A0938F06B093900658
:101A900080E090E0A0E0B0E48093910690939206FD
:101AA000A0939306B093940660E070E185E00E94F5
:101AB00053086FE979E380E00E94530809E916E0D2
:101AC000812C912CA12CB12CF0E82F2EF2E03F2E8E
:101AD000A6EC4A2EA2E05A2EBBEC6B2EB7E07B2E72
:101AE00095012458394F6901D90114969C91149796
:101AF00012968C91F401E458F94F7F01818F928FF7
:101B000061E00E94AE0B61E0D7015A968C910E9471
:101B1000AE0BF60190858681D8018C93F701968FE4
:101B200061E00E94AE0B60E0D7015E968C910E944E
:101B3000AE0B61E0F80180810E947E0BFFB6F89445
:101B400080917502811125C0F1018491F201949177
:101B5000E82FF0E0EE0FFF1FE350FE4FA591B49188
:101B60008C91982321F461E085E30E947E0B61E073
:101B700085E30E94AE0B8CB580618CBD8CB5806412
:101B80008CBD61E084E30E94AE0B61E083E30E94C0
:101B9000AE0B809175028F5F80937502FFBEC3010B
:101BA0000197F1F760E0D8018C910E947E0B88E8E4
:101BB0000E941D0383E00E941D0361E0F801808103
:101BC0000E947E0BC3010197F1F7C8010E944104F6
:101BD000F2E08F0E911C0E5F1F4FAA94AB2821F0EC
:101BE000AA24A394B12C7CCF01EA16E064E0F62E7F
:101BF000F00E60E0D8018D918D010E94AE0BF012C5
:101C0000F8CF90EBE92E96E0F92E0DEA16E025E0EC
:101C1000A22E3CE0C32E42E0942E52E0B52EB00E30
:101C2000F8013897D080F80180818C3008F046C0E8
:101C300061E08D2D0E94AE0BD8018C91A89EF00121
:101C40001124EA58FA4F9D2D9F732081207CD22EBB
:101C5000D92AD082138214826C2D0E942E12BCE0ED
:101C60008B9FA001112420E030E0B901640F751FA3
:101C7000A69EF001A79EF00D1124EA58FA4F90811C
:101C800096FD12C02F5F3F4F2C30310571F7811147
:101C90000BC01092800090928100109285001092EB
:101CA000840096BA90926F00D801EC91AE9EF0013C
:101CB0001124EA58FA4F808180648083F8013297BA
:101CC000908132978081F70131978083F70190836B
:101CD00060E00E94AE0B61E0D7018C910E94AE0BD8
:101CE00060E0F70180810E947E0B0F5F1F4FF2E0E2
:101CF000EF0EF11CB01294CFF8941092200189E0FD
:101D00008093210180E293E0909329018093280140
:101D1000109225011092240182E080937300789440
:101D20008093A4041092A8048091A50460E00E940E
:101D3000AE0B89E996E00E9441048BE996E00E948F
:101D400041040E94BC078091A4060E94550B892B78
:101D5000D1F387E392E00E94E40783E00E94EA0B5C
:101D60000E9402098BE392E00E94E40782E00E9455
:101D7000EA0B0E94020982E492E00E94E40781E0FB
:101D80000E94EA0B0E94020989E492E00E94E407A3
:101D900080E00E94EA0BBC01990F880B990B97FF1A
:101DA00003C00E94DB0803C04AE00E949A0880E555
:101DB00092E00E94E4079E012F5F3F4F790110E0FF
:101DC000812F0E94EA0BD7018D939D937D011F5FA8
:101DD0001F30B1F78D819E81843691056CF44DECF6
:101DE0005CEC6CEC7DEB85E996E00E9428034DEC01
:101DF0005CEC6CE47DE320C08B819C818436910592
:101E00002CF44DEC5CEC6CE47DEB0EC08F8198857E
:101E10008935924024F789859A85893592408CF7D7
:101E20004CE55FE862EC7DEB85E996E00E942803D3
:101E30004DEC5CEC6CEC7DE387E996E00E942803B6
:101E40000E94090C4B015C018AE0C82ED12CE12CC8
:101E5000F12C0E94090CDC01CB0188199909AA090F
:101E6000BB09883E9340A105B10558F0F1E0CF1AB7
:101E7000D108E108F10828EE820E23E0921EA11C91
:101E8000B11CC114D104E104F10419F70E94F0025D
:101E900060CF8091B3059091B4050C941213109209
:101EA000C4021092C30288EE93E0A0E0B0E08093F9
:101EB000C5029093C602A093C702B093C8022BE05C
:101EC00032E03093C2022093C1021092D0021092ED
:101ED000CF028093D1029093D202A093D302B09309
:101EE000D4022DE132E03093CE022093CD0245E3BF
:101EF00051E05093DA024093D90244E351E0509309
:101F0000DC024093DB0240E351E05093DE02409359
:101F1000DD0241E351E05093E0024093DF0242E3EF
:101F200051E05093E2024093E10246E351E05093C6
:101F3000E4024093E3021092E6021092E70210924C
:101F4000E8021092E90210926D0310926C038093E4
:101F50006E0390936F03A0937003B093710330935B
:101F60006B0320936A0345ED50E050937703409351
:101F7000760344ED50E0509379034093780340EDAD
:101F800050E050937B0340937A0341ED50E050932F
:101F90007D0340937C0342ED50E050937F034093D8
:101FA0007E0346ED50E050938103409380031092EE
:101FB000830310928403109285031092860310927B
:101FC0000A041092090480930B0490930C04A093CC
:101FD0000D04B0930E04309308042093070485EC9D
:101FE00090E0909314048093130484EC90E0909319
:101FF00016048093150480EC90E09093180480936D
:10200000170481EC90E090931A048093190482ECF9
:1020100090E090931C0480931B0486EC90E09093D6
:102020001E0480931D04109220041092210410922B
:1020300022041092230486E380939D0687E3809315
:102040009E0688E380939F0689E38093A0068BE138
:102050008093A1068DE18093A2068AE18093A30676
:102060008CE18093A40684E08093A50687E08093AA
:10207000A6061092A70684EB8093A80686E18093BB
:10208000A90688E18093AA0687E18093AB0689E1DF
:102090008093AC06E091B205EC3020F08FEF809396
:1020A000AD0610C081E08E0F8093B205E093AD06BF
:1020B00025E0E29FF0011124EA58FA4F88EB9BE0FB
:1020C00092838183E091B205EC3020F08FEF809312
:1020D000AE0610C081E08E0F8093B205E093AE068D
:1020E00085E0E89FF0011124EA58FA4F88EB9BE065
:1020F000928381838CE080937C0684E280937D06CA
:1021000086E080937E0685E080937F068FE1809352
:1021100080068EE18093810683E28093820682E2CC
:102120008093830685E48093840684E48093850607
:1021300080E48093880610928D0610928E0610928D
:102140008F061092900610929106109292061092AD
:10215000930610929406EEEBF5E08FEF9FEFDC0113
:1021600012821382148215821682178210861186BB
:1021700083879487A587B6878787908BA18BB28B3F
:10218000128611821082739626E0EC37F20741F72F
:102190008DE090E00E947D12FC01138212828FE29A
:1021A00092E091838083118687E2848384E1828731
:1021B00084E083871486F093BB05E093BA05109200
:1021C000BC051092BD0585E28093A5041092A7047A
:1021D0001092B4051092B3051092B6051092B50591
:1021E0001092B8051092B70561E070E080E090E0D1
:1021F0000E94AA13009789F09093B4058093B305C9
:102200001092B6051092B5052091B7053091B8052A
:10221000232BC1F4FC01108215C08091B30590916D
:10222000B405009711F00E9412131092B405109299
:10223000B3051092B8051092B7051092B60510922A
:10224000B50508951092B8051092B70562E572E0E1
:102250000C94A114990F0008550FAA0BE0E8FEEFAB
:1022600016161706E807F907C0F012161306E4075A
:10227000F50798F0621B730B840B950B39F40A2653
:1022800061F0232B242B252B21F408950A2609F431
:10229000A140A6958FEF811D811D08950E946111B7
:1022A0000C94D2110E94C41138F00E94CB1120F07E
:1022B000952311F00C94BB110C94C11111240C94B2
:1022C00006120E94E31170F3959FC1F3950F50E041
:1022D000551F629FF001729FBB27F00DB11D639FD8
:1022E000AA27F00DB11DAA1F649F6627B00DA11D7E
:1022F000661F829F2227B00DA11D621F739FB00D24
:10230000A11D621F839FA00D611D221F749F332793
:10231000A00D611D231F849F600D211D822F762F2C
:102320006A2F11249F5750409AF0F1F088234AF009
:10233000EE0FFF1FBB1F661F771F881F9150504075
:10234000A9F79E3F510580F00C94BB110C94061226
:102350005F3FE4F3983ED4F3869577956795B795FC
:10236000F795E7959F5FC1F7FE2B880F911D969516
:10237000879597F9089597F99F6780E870E060E086
:1023800008959FEF80EC089500240A94161617060E
:1023900018060906089500240A9412161306140656
:1023A00005060895092E0394000C11F4882352F0B9
:1023B000BB0F40F4BF2B11F460FF04C06F5F7F4F71
:1023C0008F4F9F4F089557FD9058440F551F59F058
:1023D0005F3F71F04795880F97FB991F61F09F3F12
:1023E00079F087950895121613061406551FF2CF3B
:1023F0004695F1DF08C0161617061806991FF1CF8B
:1024000086957105610508940895E894BB276627B1
:102410007727CB0197F90895A1E21A2EAA1BBB1BBF
:10242000FD010DC0AA1FBB1FEE1FFF1FA217B307A0
:10243000E407F50720F0A21BB30BE40BF50B661FB6
:10244000771F881F991F1A9469F76095709580957A
:1024500090959B01AC01BD01CF010895991B79E0D6
:1024600004C0991F961708F0961B881F7A95C9F724
:1024700080950895EE0FFF1F881F8BBF0790F69180
:10248000E02D19940E9449126894B1110C9406121F
:1024900008950E94EB1188F09F5798F0B92F992763
:1024A000B751B0F0E1F0660F771F881F991F1AF03F
:1024B000BA95C9F714C0B13091F00E940512B1E08D
:1024C00008950C940512672F782F8827B85F39F08C
:1024D000B93FCCF3869577956795B395D9F73EF4D8
:1024E00090958095709561957F4F8F4F9F4F089580
:1024F0000E942A1108F48FEF0895CF93DF93823062
:10250000910510F482E090E0E0910907F0910A074C
:1025100020E030E0C0E0D0E0309711F140815181FF
:1025200048175907C0F04817590761F48281938111
:10253000209719F09B838A832BC090930A0780937E
:10254000090726C02115310519F04217530718F461
:102550009A01BE01DF01EF010280F381E02DDCCFA3
:102560002115310509F1281B390B2430310590F470
:1025700012968D919C9113976115710521F0FB01C5
:102580009383828304C090930A0780930907FD0117
:10259000329644C0FD01E20FF31F819391932250C4
:1025A00031092D933C933AC02091070730910807D9
:1025B000232B41F420910302309104023093080749
:1025C0002093070720910102309102022115310565
:1025D00041F42DB73EB74091050250910602241BED
:1025E000350BE0910707F0910807E217F307A0F415
:1025F0002E1B3F0B2817390778F0AC014E5F5F4F59
:102600002417350748F04E0F5F1F5093080740937B
:1026100007078193919302C0E0E0F0E0CF01DF91E2
:10262000CF9108950F931F93CF93DF93009709F4F1
:102630008CC0FC013297138212820091090710911D
:102640000A070115110581F420813181820F931F42
:1026500020910707309108072817390779F5F0937B
:102660000807E093070771C0D80140E050E0AE17BB
:10267000BF0750F412962D913C911397AD0121158F
:10268000310509F1D901F3CF9D01DA0133832283AA
:1026900060817181860F971F8217930769F4EC019F
:1026A00028813981260F371F2E5F3F4F31832083CA
:1026B0008A819B8193838283452B29F4F0930A07B7
:1026C000E093090742C01396FC93EE931297ED0135
:1026D000499159919E01240F351FE217F30771F4B8
:1026E00080819181840F951F029611969C938E9301
:1026F0008281938113969C938E931297E0E0F0E091
:10270000D80112968D919C911397009719F0F801BA
:102710008C01F6CF8D919C9198012E5F3F4F820FD7
:10272000931F20910707309108072817390769F48C
:10273000309729F410920A071092090702C01382F9
:1027400012821093080700930707DF91CF911F9122
:102750000F9108956F927F928F929F92AF92BF9246
:10276000CF92DF92EF92FF920F931F93CF93DF935D
:10277000EC01009789F4CB01DF91CF911F910F916C
:10278000FF90EF90DF90CF90BF90AF909F908F9091
:102790007F906F900C947D12FC01E60FF71F9C0157
:1027A00022503109E217F30708F4ACC0D9010D91AA
:1027B0001C91119706171707B0F00530110508F4A2
:1027C0009FC0C80104978617970708F499C0025064
:1027D0001109061B170B019311936D937C93CF0185
:1027E0000E9412138DC05B01A01AB10A4C01800E29
:1027F000911EA0910907B0910A0740E050E0E12C3A
:10280000F12C109709F44AC0A815B905D1F56D90BF
:102810007C901197630182E0C80ED11CCA14DB04BE
:1028200080F1A3014A195B096A0182E0C80ED11C3C
:102830001296BC9012971396AC91B5E0CB16D104CA
:1028400040F0B282A38351834083D9016D937C937E
:102850000AC00E5F1F4FC301800F911FF9019183C2
:102860008083EB2DFA2FE114F10431F0D701139698
:10287000FC93EE93129744C0F0930A07E093090784
:102880003FC08D919C9111974817590708F4AC01EE
:102890007D0112960D90BC91A02DB3CF80910707BA
:1028A0009091080788159905E1F446175707C8F471
:1028B0008091010290910202009741F48DB79EB77A
:1028C0004091050250910602841B950BE817F90709
:1028D000C8F4F0930807E0930707F9017183608358
:1028E0000FC0CB010E947D127C01009759F0A80116
:1028F000BE010E949814CE010E941213C70104C0A9
:10290000CE0102C080E090E0DF91CF911F910F9146
:10291000FF90EF90DF90CF90BF90AF909F908F90FF
:102920007F906F90089581E090E0F8940C94A81443
:10293000FB01DC0102C001900D9241505040D8F7DC
:102940000895FB01DC0101900D920020E1F708954C
:1029500011E0C0E9D1E000E006C0802FFE010E9436
:102960003A122196011DC139D10780E00807A9F765
:04297000F894FFCF09
:10297400FF00000B072000000000009E096E0925DF
:10298400034809660957094909000000008402C484
:10299400010802CB02390217022B02000000009644
:1029A40004C40125032403333D2000207C20323D50
:1029B4002000207C20313D2000207C20303D200060
:0429C4000D0A0000F8
:00000001FF
