:100000000C9491010C94C2010C94C2010C94C20195
:100010000C94C2010C94C2010C94C2010C94C20154
:100020000C94C2010C94330E0C94330E0C94330ECA
:100030000C94C2010C946D030C94C2010C94C20187
:100040000C94C2010C94DF060C94C2010C94C20102
:100050000C94C2010C94C2010C94C2010C94C711FF
:100060000C94C2010C94DE040C94B4040C94C201F0
:100070000C94C2010C94C2010C94C2010C94C201F4
:100080000C94C2010C94C2010C94C2010C94C201E4
:100090000C94C2010C94C2010C94C2010C943D0E4C
:1000A0000C94C2010C94C2010C94C2010C94C201C4
:1000B0000C94C2010C94C2010C94C2010C9408056A
:1000C0000C94C2010C94C2010C94C2010C948A04D9
:1000D0000C9460040C94C2010C9436040C940C042F
:1000E0000C94C20126062B0630063A064406BD06CD
:1000F0004E0656065E06680672067C068B06950658
:10010000BD069F06A906B306310D340D230D270D3C
:100110002D0D6B0D380D3C0D420D460D4A0D500D49
:10012000540D580D6B0D5E0D620D660D0C94340D63
:100130000C949F060C94660D0C947C060C94580D40
:100140000C9444060C942B060C948B060C943006ED
:100150000C94500D0C9454170C9448030C942606E0
:100160000C94B3060C94B70C0C94C4010C944E067A
:100170000C941B030C942B020C94460D0C945E06FD
:100180000C94420D0C94310D0C9456060C943902CB
:100190000C94CB020C9472060C945A170C94230DF9
:1001A0000C94270D0C94620D0C94A00C0C94920CE2
:1001B0000C9495060C9408020C945E0D0C944A0D58
:1001C0000C94AF0C0C941A030C9417020C94A9060F
:1001D0000C943A060C943C0D0C9484020C946B0D18
:1001E0000C94380D0C94BD060C94910C0C9468067C
:1001F0000C94540D0C94E70C0C942D0D020000216E
:1002000000240027002A002D0030003300010100E7
:1002100000040107010A0100002200250028002B2C
:10022000002E003100340002010000050108010B1E
:1002300001000020002300260029002C002F00329E
:10024000000001000003010601090105050505077D
:100250000508080808020202020A0A080804040441
:10026000040101010101010101030303030303036D
:1002700003040707070C0C0C0C0C0C0C0C020202FC
:100280000206060606060606060B0B0B0B0B0B0BEF
:100290000B0102102020080810204010204080028E
:1002A00001020108040201010204081020408080BC
:1002B0004020100804020180040201804020100840
:1002C0000402010804020101020408102040800118
:1002D0000204081020408000000A0B02090C0D0ED9
:1002E00008070304010000000000000000000000F7
:1002F00000000000000000000000000000000000FE
:1003000000000012111000000000000000000000BA
:1003100000000000000000000000000000005A176C
:10032000541711241FBECFEFD1E2DEBFCDBF00E0D6
:100330000CBF13E0A0E0B2E0E6EDFBE300E00BBF92
:1003400002C007900D92A231B107D9F727E0A2E1D0
:10035000B3E001C01D92A53DB207E1F711E0C0E98D
:10036000D1E000E006C021970109802FFE010E9424
:10037000871ACF38D10780E00807A9F70E94111229
:100380000C94D91D0C940000CF92DF92EF92FF9253
:100390000F931F93CF93DF936C017A018B01C0E021
:1003A000D0E0CE15DF0589F0D8016D918D01D60121
:1003B000ED91FC910190F081E02DC6011995892BFA
:1003C00011F47E0102C02196ECCFC701DF91CF91DD
:1003D0001F910F91FF90EF90DF90CF900895FC0157
:1003E000A089B1898C91A689B78982FD0FC09C91A3
:1003F000818D8F5F8F73228D821749F0218DDF01F0
:10040000A20FB11D5D969C93818F08958C910895E4
:10041000FC01538D448D252F30E0842F90E0821B0A
:10042000930B541710F0CF96089501970895FC018F
:10043000918D828D981761F0828DDF01A80FB11D1B
:100440005D968C91928D9F5F9F73928F90E008953F
:100450008FEF9FEF0895FC01918D828D981731F0F9
:10046000828DE80FF11D858D90E008958FEF9FEF4D
:100470000895FC01918D228D892F90E0805C9F4F23
:10048000821B91098F739927089582EE93E00E9451
:10049000390221E0892B09F420E0822F08958FE7AB
:1004A00094E00E94390221E0892B09F420E0822F98
:1004B00008958CE195E00E94390221E0892B09F42E
:1004C00020E0822F0895FC01848DDF01A80FB11D6B
:1004D000A35ABF4F2C91848D90E001968F7399277A
:1004E000848FA689B7892C93A089B1898C91806467
:1004F0008C93938D848D981306C00288F389E02D28
:1005000080818F7D80830895EF92FF920F931F93D8
:10051000CF93DF93EC0181E0888F9B8D8C8D9813B6
:1005200005C0E889F989808185FD24C0F62E0B8DF0
:1005300010E00F5F1F4F0F731127E02E8C8DE81214
:100540000CC00FB607FCFACFE889F989808185FFD6
:10055000F5CFCE010E946302F1CF8B8DFE01E80F33
:10056000F11DE35AFF4FF0820B8FEA89FB898081EE
:10057000806207C0EE89FF896083E889F9898081FC
:100580008064808381E090E0DF91CF911F910F9193
:10059000FF90EF900895CF93DF93EC01888D88232F
:1005A000C9F0EA89FB89808185FD05C0A889B989E0
:1005B0008C9186FD0FC00FB607FCF5CF808185FFBB
:1005C000F2CFA889B9898C9185FFEDCFCE010E9429
:1005D0006302E7CFDF91CF91089580E090E0892B0F
:1005E00021F00E945902811119C080E090E0892B0E
:1005F00041F080E090E0892B21F00E940000811101
:1006000010C00E944F0281110FC080E090E0892B42
:1006100081F00E94450281110AC008950E940000E5
:10062000E4CF0E940000EDCF0E943209EECF0C947F
:1006300000000895089580E090E008950E94C41D90
:10064000FC01248131E03093B2032093D403109253
:10065000B3031092D5038485682B86ED93E00E9446
:10066000E70C0C944C100F931F93CF938C01C62F63
:1006700064600E9420036C2F6B7FC8010E942003DE
:1006800083EC90E00197F1F7CF911F910F910895BE
:100690000F931F93CF93DF938C01C62FD62FD07F5C
:1006A000D1606D2F0E9420036D2FC8010E9433037B
:1006B00080E1C89FB0011124C62FC1606C2FC80112
:1006C0000E9420036C2FC8010E94330381E090E058
:1006D000DF91CF911F910F9108951F920F920FB646
:1006E0000F9211240BB60F922F933F934F935F936A
:1006F0006F937F938F939F93AF93BF93EF93FF93EA
:1007000080911F0390912003A0912103B0912203B7
:10071000892B8A2B8B2B59F180911E03E0911C03AE
:10072000F0911D0390818927808380911F03909110
:100730002003A0912103B0912203181619061A066E
:100740001B060CF056C080911F0390912003A091CE
:100750002103B09122030197A109B10980931F03DE
:1007600090932003A0932103B093220342C0809171
:100770000802ECEFF1E0E4919FEF90930802E23081
:10078000C9F050F4EE2399F0E13081F590916F00BB
:100790009D7F90936F002AC0E43019F1E0F0E530BE
:1007A00029F5909173009D7F909373001FC0109264
:1007B0006E001CC0909170009D7F9093700091E03E
:1007C0009093B0009091B100987F94609093B100A5
:1007D0001092B3000BC0909171009D7F90937100B7
:1007E00005C0909172009D7F9093720060E00E941E
:1007F000980FFF91EF91BF91AF919F918F917F9152
:100800006F915F914F913F912F910F900BBE0F9081
:100810000FBE0F901F9018951F920F920FB60F9258
:1008200011240BB60F922F933F934F935F936F93C7
:100830007F938F939F93AF93BF93EF93FF9382EE3A
:1008400093E00E946302FF91EF91BF91AF919F915E
:100850008F917F916F915F914F913F912F910F9069
:100860000BBE0F900FBE0F901F9018951F920F9206
:100870000FB60F9211240BB60F922F933F934F9305
:100880005F936F937F938F939F93AF93BF93EF93F8
:10089000FF9382EE93E00E94EF01FF91EF91BF91F1
:1008A000AF919F918F917F916F915F914F913F9108
:1008B0002F910F900BBE0F900FBE0F901F901895A9
:1008C0001F920F920FB60F9211240BB60F922F9317
:1008D0003F934F935F936F937F938F939F93AF93C8
:1008E000BF93EF93FF938FE794E00E946302FF9121
:1008F000EF91BF91AF919F918F917F916F915F9198
:100900004F913F912F910F900BBE0F900FBE0F9004
:100910001F9018951F920F920FB60F9211240BB6CD
:100920000F922F933F934F935F936F937F938F9388
:100930009F93AF93BF93EF93FF938FE794E00E9451
:10094000EF01FF91EF91BF91AF919F918F917F91B7
:100950006F915F914F913F912F910F900BBE0F9030
:100960000FBE0F901F9018951F920F920FB60F9207
:1009700011240BB60F922F933F934F935F936F9376
:100980007F938F939F93AF93BF93EF93FF938CE1EC
:1009900095E00E946302FF91EF91BF91AF919F910B
:1009A0008F917F916F915F914F913F912F910F9018
:1009B0000BBE0F900FBE0F901F9018951F920F92B5
:1009C0000FB60F9211240BB60F922F933F934F93B4
:1009D0005F936F937F938F939F93AF93BF93EF93A7
:1009E000FF938CE195E00E94EF01FF91EF91BF91A1
:1009F000AF919F918F917F916F915F914F913F91B7
:100A00002F910F900BBE0F900FBE0F901F90189557
:100A10001F920F920FB60F9211240BB60F922F93C5
:100A20003F934F935F936F937F938F939F93AF9376
:100A3000BF93EF93FF938091BA050E946F0F2091AF
:100A4000BE053091BF052F5F3F4F3093BF05209308
:100A5000BE059091BD05953618F096E09093B905C6
:100A60009091B9059430C9F128F4923069F093302F
:100A7000D1F05EC0953009F451C0963009F058C0ED
:100A800091E090938A0651C0811152C02091BE0519
:100A90003091BF052436310508F442C010928A0611
:100AA0001092BD051CC0813009F042C0E091BD0527
:100AB00091E09E0F9093BD05F0E02091BE0530912E
:100AC000BF05EE0FFF1FE754FA4F308727831092C0
:100AD000BF051092BE0594E029C0811117C0E091B6
:100AE000BD0591E09E0F9093BD05F0E02091BE05FD
:100AF0003091BF05EE0FFF1FE754FA4F3087278371
:100B00001092BF051092BE0593E010C02091BE0563
:100B10003091BF052536310558F007C0811108C056
:100B20001092BF051092BE0503C095E09093B905E1
:100B30009091BC059923B9F081110AC08091BB0541
:100B4000882321F08091BB0561E009C02F9A0BC07A
:100B50008091BB05882331F08091BB0560E00E9445
:100B6000980F01C02F98FF91EF91BF91AF919F9186
:100B70008F917F916F915F914F913F912F910F9046
:100B80000BBE0F900FBE0F901F9018958F929F92E3
:100B9000AF92BF92CF92DF92EF92FF920F931F938B
:100BA000CF93DF93EC016A017B0120E030E04FE757
:100BB00053E4C701B6010E949B194B015C0120E080
:100BC00030E0A9010E94A41B18161CF4C501B40151
:100BD00003C0C501B40190580E946E1B8B0120E038
:100BE00030E0A901C701B6010E94A41B181614F435
:100BF00060E001C061E089810E94980F0F3F1105FC
:100C000009F014F4112702C00FEF10E0C88161E071
:100C10008C2F0E94C80F0115110509F4B1C00F3FB8
:100C2000110509F4AFC0EC2FF0E0E952FD4FE4915B
:100C30004E2F50E0FA013197E231F10508F09DC0E6
:100C40008827EE58FF4F8F4F0C94871A84B5806821
:100C500084BD07BDA7C084B5806284BD08BDA2C0A5
:100C600080918000806880938000109389000093B9
:100C7000880098C0809180008062809380001093EB
:100C80008B0000938A008EC08091800088608093E2
:100C9000800010938D0000938C0084C08091B00080
:100CA00080688093B0000093B3007CC08091B00056
:100CB00080628093B0000093B40074C08091900073
:100CC00080688093900010939900009398006AC008
:100CD0008091900080628093900010939B0000931D
:100CE0009A0060C08091900088608093900010937B
:100CF0009D0000939C0056C08091A0008068809366
:100D0000A0008091A0008F7B8093A0001093A90089
:100D10000093A80047C08091A00080628093A0004B
:100D20001093AB000093AA003DC08091A0008860A2
:100D30008093A0001093AD000093AC0033C080916D
:100D400020018068809320011093290100932801DD
:100D500029C08091200180628093200110932B0193
:100D600000932A011FC08091200188608093200198
:100D700010932D0100932C0115C00038110514F4B7
:100D800060E001C061E08C2FDF91CF911F910F9146
:100D9000FF90EF90DF90CF90BF90AF909F908F909B
:100DA0000C94980FDF91CF911F910F91FF90EF90CE
:100DB000DF90CF90BF90AF909F908F9008951F923B
:100DC0000F920FB60F9211240BB60F922F933F93F1
:100DD0004F935F936F937F938F939F93AF93BF9343
:100DE000EF93FF9380911B0387FF05C0109285004E
:100DF0001092840016C020911B03022E000C330BAE
:100E00008091C70690E0281739075CF430911B03E6
:100E100025E03203F0011124E557F94F808186FD6A
:100E200015C080911B038F5F80931B0320911B03D0
:100E3000022E000C330B8091C70690E0281739076B
:100E400094F480911B038C302CF10DC030911B0366
:100E50003203F0011124E557F94F808160E08F7370
:100E60000E94980FDECF8091840090918500843499
:100E70009C4918F480E49CE905C08091840090911D
:100E80008500049690938900809388008FEF80936B
:100E90001B032AC0409184005091850030911B03B0
:100EA00025E03203F0011124E557F94F8181928149
:100EB000840F951F909389008093880030911B03C5
:100EC0003203F0011124E557F94F808186FF0CC0F1
:100ED00030911B033203F0011124E557F94F808153
:100EE00061E08F730E94980FFF91EF91BF91AF91D6
:100EF0009F918F917F916F915F914F913F912F9132
:100F00000F900BBE0F900FBE0F901F9018958EBDC7
:100F100000000DB407FEFDCF8EB50895CF93DF938B
:100F2000EC0160E088810E94980F88E90E948707A1
:100F300080E00E94870780E00E94870780E00E948F
:100F4000870780E00E94870761E088810E94980FF0
:100F50008BE891E00197F1F760E088810E94980F9B
:100F600080EE0E94870761E08881DF91CF910C9429
:100F7000980FAF92BF92CF92DF92EF92FF920F93B2
:100F80001F93CF93DF93CDB7DEB760970FB6F8947A
:100F9000DEBF0FBECDBF5C0160E0FC0180810E941E
:100FA000980F80E60E9487078E010F5F1F4F7E011A
:100FB000F1E1EF0EF11C680180E00E94870790E0EC
:100FC000A0E0B0E0F60181939193A193B1936F01FA
:100FD000EE15FF0589F761E0F50180810E94980F09
:100FE00080E090E0DC01F8014191519161917191B3
:100FF0008F01BA2FA92F982F8827840F951FA61F1E
:10100000B71FEE15FF0579F79C01AD01662777271D
:10101000CB01621B730B840B950B60960FB6F89493
:10102000DEBF0FBECDBFDF91CF911F910F91FF901B
:10103000EF90DF90CF90BF90AF9008952F923F92A6
:101040004F925F926F927F928F929F92AF92BF92D8
:10105000CF92DF92EF92FF920F931F93CF93DF9384
:1010600000D01F92CDB7DEB72B013C018EEA97E08E
:101070000E948E0780EB97E00E948E0740E050E0D0
:10108000BA018AEA97E00E94C6058DECC82E8CEC66
:10109000D82EED2C8DE3F82EB701A6018AEA97E051
:1010A0000E94C60520E030E446E755E4C301B201E2
:1010B0000E949B1920E030E044EB52E40E94FC1AAD
:1010C0004B015C0120E030E048E454E40E948F1AB8
:1010D0009B01AC01B10189819A810E94A41B181661
:1010E0009CF42DEC3CEC4CEC5DE3C701B6010E9496
:1010F000A41B1816ECF42DEC3CEC4CE45DE3C701AA
:10110000B6010E948F1A12C02DEC3CEC4CEC5EE351
:10111000C701B6010E94351987FF0AC02AE037EDE2
:1011200043EA5BE3C701B6010E94901A6B017C01A0
:101130008EEA97E00E94B907909580957095619529
:101140007F4F8F4F9F4F0E943C198B018C839B8355
:101150001B0189839A836AE070E080E090E00E943E
:101160008D11A5019401B8018C819B810E943519D4
:1011700087FD92CF8EEA97E00E94B9079B01AC01F0
:1011800088279927DC01821B930BA40BB50B809356
:10119000160390931703A0931803B093190380EBE1
:1011A00097E00E94B9076093120370931303809332
:1011B00014039093150340E050E0BA018AEA97E0E7
:1011C0000E94C60540E050E060E070E88CEA97E0DD
:1011D0000E94C60564E670E080E090E00E948D11F8
:1011E0008DE892E00E943E1088E692E00E9466112F
:1011F0006091160370911703809118039091190361
:101200000E943C1182E792E00E946611C501B40180
:101210000E946C0D83E892E00E94661160911203B7
:101220007091130380911403909115030E943C1157
:1012300081EA92E00F900F900F900F90DF91CF9185
:101240001F910F91FF90EF90DF90CF90BF90AF90E4
:101250009F908F907F906F905F904F903F902F90D6
:101260000C943E10E0E0F0E019942F923F924F92E0
:101270005F926F927F928F929F92AF92BF92CF9226
:10128000DF92EF92FF920F931F93CF93DF9300D0E3
:101290001F92CDB7DEB72B013C018EEA97E00E948A
:1012A0008E0780EB97E00E948E0740E050E0BA0185
:1012B0008AEA97E00E94C6058DECC82E8CECD82EE9
:1012C000ED2C8DE3F82EB701A60170588CEA97E05B
:1012D0000E94C60520E030E847E755E4C301B201AB
:1012E0000E949B1920E030E044EB52E40E94FC1A7B
:1012F0004B015C0120E030E048E454E40E948F1A86
:101300009B01AC01B10189819A810E94A41B18162E
:101310009CF42DEC3CEC4CEC5DE3C701B6010E9463
:10132000A41B1816ECF42DEC3CEC4CE45DE3C70177
:10133000B6010E948F1A12C02DEC3CEC4CEC5EE31F
:10134000C701B6010E94351987FF0AC02AE037EDB0
:1013500043EA5BE3C701B6010E94901A6B017C016E
:1013600080EB97E00E94B9070E943C198B018C83A7
:101370009B831B0189839A836AE070E080E090E0A0
:101380000E948D11A5019401B8018C819B810E945E
:10139000351987FD98CF40E050E0BA018AEA97E01E
:1013A0000E94C60540E050E060E070E88CEA97E0FB
:1013B0000E94C6058EEA97E00E94B9079B01AC0126
:1013C00088279927DC01821B930BA40BB50B809314
:1013D000160390931703A0931803B093190380EB9F
:1013E00097E00E94B90760931203709313038093F0
:1013F00014039093150364E670E080E090E00E948F
:101400008D1183EB92E00E943E1088E692E00E94EC
:1014100066116091160370911703809118039091E3
:1014200019030E943C1181EA92E00E943E1083E879
:1014300092E00E94661160911203709113038091F3
:101440001403909115030E943C1182E792E00E94E0
:101450006611C501B4010F900F900F900F90DF91AE
:10146000CF911F910F91FF90EF90DF90CF90BF90A1
:10147000AF909F908F907F906F905F904F903F9034
:101480002F900C946C0D4F925F926F927F928F927F
:101490009F92AF92BF92CF92DF92EF92FF92CF9343
:1014A000DF93CDB7DEB760970FB6F894DEBF0FBEFF
:1014B000CDBF2DED38E444E053E40E949B190E9417
:1014C0006E1B6D837E838F839887ED80FE808EEA0E
:1014D00097E00E948E0780EB97E00E948E078DECCC
:1014E0009CECACE4BDE38093040290930502A093CE
:1014F0000602B0930702AC01BD018AEA97E00E94A0
:10150000C605409104025091050260910602709157
:10151000070270588CEA97E00E94C60519821A8269
:101520001B821C82C701885E93409C01990F440B6B
:10153000550B2D873E874F87588B2701FF0C660878
:1015400077088EEA97E00E94B9079B01AC018827D3
:101550009927DC01821B930BA40BB50B8093160318
:1015600090931703A0931803B093190380EB97E0AF
:101570000E94B9070E943C1927E73EEB4FE75FE363
:101580000E949B190E946E1B6093120370931303B9
:101590008093140390931503209116033091170341
:1015A000409118035091190329873A874B875C872C
:1015B000261B370B480B590BCA01B9010E943C1975
:1015C0004B015C019B01AC0169817A818B819C811B
:1015D0000E94901A69837A838B839C83C090040253
:1015E000D0900502E0900602F090070289859A8566
:1015F000AB85BC852D853E854F85588928173907D1
:101600004A075B079CF42EEA37E441EE5DE3C7012D
:10161000B6010E94A41B18161CF52DEC3CEC4CE402
:101620005DE3C701B6010E948F1A12C02AE939E9A9
:1016300049E15FE3C701B6010E94351987FF10C079
:101640002AE037ED43EA5BE3C701B6010E94901A36
:101650006093040270930502809306029093070240
:1016600020E030E44CE156E4C501B4010E94FC1ACC
:101670004B015C0120E030E543EC57E469817A815D
:101680008B819C810E94FC1A6B017C01A501940155
:1016900060E070E080E89FE30E948F1AA701960146
:1016A0000E948F1A20910402309105024091060297
:1016B000509107020E949B19AB01BC018AEA97E096
:1016C0000E94C60520E030E040E85FE3C501B401B8
:1016D0000E94901AA70196010E94901A209104027C
:1016E0003091050240910602509107020E949B1919
:1016F000AB01BC0170588CEA97E00E94C6056AE015
:1017000070E080E090E00E948D118091160390912E
:101710001703A0911803B0911903481659066A06D9
:101720007B063CF440E050E0BA018AEA97E00E9470
:10173000C6058091120390911303A0911403B091F8
:101740001503481659066A067B0644F440E050E04B
:1017500060E070E88CEA97E00E94C60540911603AD
:1017600050911703609118037091190344155505A2
:10177000660577050CF4E5CE809112039091130372
:10178000A0911403B091150384159505A605B7051E
:101790000CF4D7CEED81FE814E1B5F0B50933F03BF
:1017A00040933E038E1B9F0B90933D0380933C031D
:1017B00087EC92E00E943E10609104027091050255
:1017C00080910602909107020E946C0D85E792E0DD
:1017D0000E946611C301B2010E943C1185EE92E0A5
:1017E0000E942C1088E692E00E9466116091160318
:1017F0007091170380911803909119030E943C1176
:1018000085EE92E00E942C1083E892E00E9466111F
:10181000609112037091130380911403909115034A
:101820000E943C1185EE92E00E942C1088EE92E01E
:101830000E94661160913E0370913F03072E000CD9
:10184000880B990B0E943C118DEF92E00E9466116B
:1018500060913C0370913D03072E000C880B990B9F
:101860000E943C1185EE92E00E942C1040E050E076
:10187000BA018AEA97E00E94C60540E050E060E0C5
:1018800070E88CEA97E00E94C60564E670E080E0AC
:1018900090E060960FB6F894DEBF0FBECDBFDF912B
:1018A000CF91FF90EF90DF90CF90BF90AF909F903F
:1018B0008F907F906F905F904F900C948D1185ED7D
:1018C0008093BC008091BC0084FDFCCF1092B103DA
:1018D000089540916403262F30E0240F311D2132FA
:1018E0003105DCF42091B1032430C9F4FC0180E01F
:1018F00090E0861758F4309164032191DC01AE5BCF
:10190000BC4FA30FB11D2C930196F3CF80916403BC
:10191000680F6093640380E0089581E0089582E099
:101920000895089581E090E03091410320914003B3
:10193000321710F480E090E0919581959109089517
:101940008091410390914003891730F48F5F809319
:10195000410380E090E008958FEF9FEF089580911C
:10196000400390E020914103821B91090895CF929A
:10197000DF92EF92FF920F931F93CF93DF937C013F
:10198000262F972F8A018091B203882391F0C62FCA
:10199000D72F6E01C40ED51ECC15DD0571F06991EF
:1019A000D701ED91FC910190F081E02DC7011995CF
:1019B000F3CF642F822F0E94690CC801DF91CF9171
:1019C0001F910F91FF90EF90DF90CF900895CF93EC
:1019D000DF931F92CDB7DEB769832091B203222334
:1019E000D1F02091D503203240F021E030E0FC011D
:1019F0003383228380E090E015C08091B303E82F09
:101A0000F0E0EC54FC4F998190838F5F8093B30397
:101A10008093D50305C061E0CE0101960E94690C58
:101A200081E090E00F90DF91CF91089590E0FC016C
:101A30003197E231F10508F04EC08827EC57FF4F8F
:101A40008F4F0C94871A809180008F7703C080910C
:101A500080008F7D80938000089580918000877F33
:101A6000F9CF84B58F7702C084B58F7D84BD08958A
:101A70008091B0008F7703C08091B0008F7D8093FC
:101A8000B0000895809190008F7707C080919000FA
:101A90008F7D03C080919000877F80939000089590
:101AA0008091A0008F7707C08091A0008F7D03C038
:101AB0008091A000877F8093A000089580912001ED
:101AC0008F7707C0809120018F7D03C08091200116
:101AD000877F8093200108954F925F926F927F924B
:101AE0008F929F92AF92BF92CF92DF92EF92FF922E
:101AF0006B017C019B01AC010E94A91B882319F09A
:101B000086E093E01AC046015701E894B7F82FEF3A
:101B10003FEF4FE75FE7C501B4010E94A91B8111A8
:101B200010C02FEF3FEF4FE75FE7C501B4010E9400
:101B30003519181634F48AE093E00E942C107C01C9
:101B40007FC02FEF3FEF4FE75FE4C701B6010E9470
:101B5000A41B18161CF48EE093E0EFCF2FEF3FEF9D
:101B60004FE75FECC701B6010E94351987FDF3CF3F
:101B700020E030E0A901C701B6010E94351987FFB6
:101B800009C08DE20E9431115C01F7FAF094F7F878
:101B9000F09402C0A12CB12C2AE037ED43EA5BE3BC
:101BA000C701B6010E94901A2B013C010E94751BCF
:101BB0006B017C010E943A199B01AC01C301B20187
:101BC0000E948F1A2B013C014AE0C701B6010E9416
:101BD000F0107C01EA0CFB1C8EE20E943111E80E31
:101BE000F91E20E030E040E251E4C301B2010E945E
:101BF0009B192B013C010E94751B4B01A12CB12CA0
:101C00004AE0C501B4010E94F010E80EF91EC501BA
:101C1000B4010E943A199B01AC01C301B2010E94B8
:101C20008F1A20E030E040E251E40E949B190E94AC
:101C3000751B80E090E04AE00E94F010E80EF91E6B
:101C400085EE92E00E942C108E0D9F1DFF90EF906C
:101C5000DF90CF90BF90AF909F908F907F906F90CC
:101C60005F904F9008951F920F920FB60F9211241C
:101C70000F900FBE0F901F9018951F920F920FB6E6
:101C80000F9211240BB60F922F933F934F935F93B4
:101C90006F937F938F939F93AF93BF93EF93FF9334
:101CA0008091B900887F803609F49CC068F588323D
:101CB00009F45BC090F4803109F454C038F48823EF
:101CC00009F4F6C0883009F44DC0F6C0883109F433
:101CD0004CC0803209F45DC0EFC0803409F468C0A4
:101CE00048F4803309F455C0883309F0E5C0809387
:101CF000AF03D8C0803509F44FC0883509F45DC002
:101D0000883409F0D9C0D6C0883909F4C7C0A8F40E
:101D1000883709F467C038F4883609F463C080371F
:101D200009F460C0C9C0883809F4B8C0803909F422
:101D30005FC0803809F0C0C05BC0803B09F486C03A
:101D400038F4803A09F466C0883A09F47FC0B4C018
:101D5000803C09F4A7C0883C09F4A4C0883B09F47E
:101D60008AC0AAC080918C0310C09091AE0380916C
:101D7000AD03981770F5E091AE0381E08E0F80936C
:101D8000AE03F0E0E357FC4F80818093BB0085EC0D
:101D900086C08093AF038EC0E091AE0381E08E0FCA
:101DA0008093AE038091BB00F0E0E357FC4F80834B
:101DB0009091AE038091AD036EC0E091AE0381E0DF
:101DC0008E0F8093AE038091BB00F0E0E357FC4F91
:101DD00080838091B00381116DC081E080938B037B
:101DE00084EA61C083E08093B10310928803CFCF6F
:101DF00080918803803208F051C0E091880381E02F
:101E00008E0F809388038091BB00F0E0E859FC4F6F
:101E10008083BDCF85EC8093BC001092B10380918C
:101E20008803803230F4E0918803F0E0E859FC4FF9
:101E300010826091880370E0E0916603F09167037F
:101E400088E693E019951092880336C084E0809369
:101E5000B1031092650310926403E0916203F09164
:101E60006303199580916403811105C081E080931B
:101E7000640310924203E091650381E08E0F80932A
:101E80006503F0E0EE5BFC4F80818093BB00909196
:101E9000650380916403981708F479CF85E88093EF
:101EA000BC000AC085EC8093BC001092B10304C052
:101EB0001092AF030E945F0CFF91EF91BF91AF9121
:101EC0009F918F917F916F915F914F913F912F9152
:101ED0000F900BBE0F900FBE0F901F901895CF93D1
:101EE000DF93282F30E0F901E952FD4F8491F90189
:101EF000EF56FD4FD491F901E55BFD4FC491CC2322
:101F000091F081110E94160DEC2FF0E0EE0FFF1FF3
:101F1000EF5CFD4FA591B491EC91ED2381E090E051
:101F200021F480E002C080E090E0DF91CF9108953D
:101F30001F93CF93DF93282F30E0F901E952FD4F33
:101F40008491F901EF56FD4FD491F901E55BFD4F06
:101F5000C491CC23C9F0162F81110E94160DEC2FCD
:101F6000F0E0EE0FFF1FE95EFD4FA591B4918FB732
:101F7000F894111105C09C91ED2FE095E92302C062
:101F8000EC91ED2BEC938FBFDF91CF911F910895D2
:101F9000CF93DF9390E0FC01EF56FD4F2491FC01BD
:101FA000E55BFD4F8491882361F190E0880F991FD4
:101FB000FC01E350FE4FC591D491FC01E95EFD4F59
:101FC000A591B491611109C09FB7F89488812095BB
:101FD00082238883EC912E230BC0623061F49FB77B
:101FE000F8943881822F809583238883EC912E2B5F
:101FF0002C939FBF06C08FB7F894E8812E2B2883BF
:102000008FBFDF91CF910895ECE1F5E0A089B18910
:1020100082E08C93A485B5851C92A685B7858FEC4C
:102020008C93108EA489B58986E08C93A289B3899C
:102030008C9180618C93A289B3898C9188608C93F8
:10204000A289B3898C9180688C930288F389E02DF2
:1020500080818F7D80830895009769F0FC01019055
:102060000020E9F73197AF01481B590BBC018CE107
:1020700095E00C94C40180E090E00895CF93DF9345
:102080000E942C10EC0185EE92E00E942C108C0F27
:102090009D1FDF91CF9108952091D5039091D40396
:1020A000213208F04AC08091B1038111FCCF32E0A7
:1020B0003093B10331E03093B0033FEF3093AF037F
:1020C0001092AE032093AD03A4EBB3E04DE853E0D0
:1020D000FA013E2F341B321718F43D913193F9CF9A
:1020E00010928C0320918C03990F922B90938C0368
:1020F00090918B03913061F410928B0390918C033B
:102100009093BB009091BC0093FDF8CF95EC01C07B
:1021100095EE9093BC009091B1039230E1F39091D1
:10212000AF039F3F79F08091AF03803241F08091FF
:10213000AF03803331F084E005C081E003C082E06A
:1021400001C083E01092B3031092D5031092B20342
:102150000895EF92FF921F93CF93DF931F92CDB715
:10216000DEB7162F91E9E92E97E0F92ED7011C96DC
:102170009C911C9721E02093B2039093D40310927A
:10218000B3031092D5031A960D90BC91A02DED913A
:10219000FC9111970190F081E02D682FCD0179839A
:1021A0001995F70182859385DC01ED91FC910190F1
:1021B000F081E02D7981672F1995F701828593854C
:1021C000DC01ED91FC910190F081E02D612F1995DA
:1021D0000F90DF91CF911F91FF90EF900C944C10D6
:1021E0008F929F92AF92BF920F931F93CF93DF93E3
:1021F000CDB7DEB7A1970FB6F894DEBF0FBECDBF47
:1022000019A2423008F44AE08E010F5D1F4F842E60
:10221000912CA12CB12CA50194010E94591AE62FF2
:10222000B901CA0101501109EA3014F4E05D01C09E
:10223000E95CD801EC93232B242B252B61F7C801F3
:102240000E942C10A1960FB6F894DEBF0FBECDBF32
:10225000DF91CF911F910F91BF90AF909F908F9082
:102260000895E0911C05F0911D050190F081E02D8D
:10227000682F8CE195E01994CF92DF92EF92FF9254
:10228000CF93DF9397FF19C06B017C018DE20E9411
:102290003111EC0166277727CB016C197D098E0976
:1022A0009F094AE00E94F0108C0F9D1FDF91CF9193
:1022B000FF90EF90DF90CF9008954AE0DF91CF91AB
:1022C000FF90EF90DF90CF900C94F0100C942C10B6
:1022D0003FB7F8948091CD079091CE07A091CF079A
:1022E000B091D00726B5A89B05C02F3F19F00196E5
:1022F000A11DB11D3FBFBA2FA92F982F8827820F8C
:10230000911DA11DB11DBC01CD0142E0660F771FDB
:10231000881F991F4A95D1F708958F929F92AF9287
:10232000BF92CF92DF92EF92FF926B017C010E94ED
:1023300068114B015C01C114D104E104F104F1F016
:102340000E946811DC01CB0188199909AA09BB090F
:10235000883E9340A105B10570F321E0C21AD1086F
:10236000E108F10888EE880E83E0981EA11CB11CDC
:10237000C114D104E104F10419F7DDCFFF90EF900F
:10238000DF90CF90BF90AF909F908F9008951F9255
:102390000F920FB60F9211242F933F938F939F9319
:1023A000AF93BF938091C9079091CA07A091CB07C3
:1023B000B091CC073091C80723E0230F2D3720F4CC
:1023C0000196A11DB11D05C026E8230F0296A11D8F
:1023D000B11D2093C8078093C9079093CA07A093A3
:1023E000CB07B093CC078091CD079091CE07A091F9
:1023F000CF07B091D0070196A11DB11D8093CD07E5
:102400009093CE07A093CF07B093D007BF91AF9121
:102410009F918F913F912F910F900FBE0F901F9022
:102420001895CF93DF93CDB7DEB72C970FB6F894FE
:10243000DEBF0FBECDBF789484B5826084BD84B505
:10244000816084BD85B5826085BD85B5816085BDAF
:1024500080916E00816080936E0010928100809167
:1024600081008260809381008091810081608093EF
:102470008100809180008160809380008091B10014
:1024800084608093B1008091B00081608093B0003F
:102490008091910082608093910080919100816091
:1024A0008093910080919000816080939000809152
:1024B000A10082608093A1008091A100816080933F
:1024C000A1008091A00081608093A00080912101F3
:1024D000826080932101809121018160809321019C
:1024E0008091200181608093200180917A00846036
:1024F00080937A0080917A00826080937A00809144
:102500007A00816080937A0080917A00806880935D
:102510007A001092C1000E94041061E0809192073D
:102520000E94C80F60E0809192070E94980F60E0BF
:10253000809191070E94C80F86ED93E090939C07CD
:1025400080939B0710924103109240031092B303B3
:102550001092D5031092B10381E08093B0031092E2
:102560008B0361E084E10E94980F61E085E10E94A5
:10257000980F8091B9008E7F8093B9008091B90047
:102580008D7F8093B90088E48093B80085E48093C0
:10259000BC0080E090E1A0E0B0E080939E079093C3
:1025A0009F07A093A007B093A1078AE090E0A0E066
:1025B000B0E08093A2079093A307A093A407B093E1
:1025C000A50782E090E0A0E0B0E08093A60790939A
:1025D000A707A093A807B093A90760E070E185E082
:1025E0000E94A9106FE979E380E00E94A910EEEA49
:1025F0002E2EE7E03E2EC12CD12CE12CF12CF0E860
:102600004F2EF2E05F2EA6EC8A2EA2E09A2EBBECB3
:10261000AB2EB7E0BB2E97012F56384F3901D901A9
:1026200014969C91149712968C9186010F56184F10
:10263000F801818F928F61E00E94C80F61E0D8019C
:102640005A968C910E94C80FF30190858681D10122
:102650008C93F801968F61E00E94C80F60E0D8016A
:102660005E968C910E94C80F61E0F10180810E940A
:10267000980F1FB7F89480911A03811125C0F201B9
:102680008491F4019491E82FF0E0EE0FFF1FE350E6
:10269000FE4FA591B4918C91982321F461E085E3DC
:1026A0000E94980F61E085E30E94C80F8CB580619D
:1026B0008CBD8CB580648CBD61E084E30E94C80F42
:1026C00061E083E30E94C80F80911A038F5F8093BB
:1026D0001A031FBFC5010197F1F760E0D1018C918A
:1026E0000E94980F88E80E94870783E00E9487076E
:1026F00061E0F10180810E94980FC5010197F1F717
:10270000C1010E948E07F2E0CF0ED11C22E0220E02
:10271000311CEA94EF2821F0EE24E394F12C7BCFD6
:1027200056EBE52E57E0F52E14E01E0D60E0D701C4
:102730008D917D010E94C80F1E11F8CF05EC17E0A6
:1027400082EC882E87E0982E95E0C92E2CE0E22EB0
:1027500032E0B32E42E0D42ED80CF4013897F0804A
:10276000F40180818C3008F046C061E08F2D0E941A
:10277000C80FD4018C91C89EF0011124E557F94F80
:102780009F2D9F732081207CF22EF92AF0821382E4
:1027900014826E2D0E947B1ABCE08B9FA001112435
:1027A00020E030E0B901640F751FC69EF001C79E9E
:1027B000F00D1124E557F94F908196FD12C02F5F5F
:1027C0003F4F2C30310571F781110BC01092800002
:1027D000B09281001092850010928400B6BAB09237
:1027E0006F00D401EC91CE9EF0011124E557F94F12
:1027F000808180648083F40134978081F80131976F
:102800008083F801808360E00E94C80F61E0D801F6
:102810008C910E94C80F60E0F80180810E94980F9F
:10282000FFEF8F1A9F0A0E5F1F4FD81096CF8EEAC8
:1028300097E00E948E0780EB97E00E948E070E942F
:1028400004108091B9070E946F0F892BD1F38FE399
:1028500092E00E943E1060E070E082E593E40E9406
:10286000430A81E492E00E943E1060E070E084EB55
:1028700092E40E94350960E070E08CE092E40E94EE
:10288000430A83E492E00E943E1060E070E084EB33
:1028900092E40E941E0860E070E080EA91E40E94E9
:1028A000430A85E492E00E943E1060E070E084EB11
:1028B00092E40E941E0860E070E088EC91E40E94BF
:1028C000430A87E492E00E943E1060E070E084EBEF
:1028D00092E40E94350960E070E080E791E40E9494
:1028E000430A89E492E00E943E1060E070E084E3D5
:1028F00092E40E941E0860E070E080E292E40E9490
:10290000430A8BE492E00E943E1060E070E084EBAA
:1029100092E40E94350960E070E080E792E40E9452
:10292000430A8DE492E00E943E1060E070E084E390
:1029300092E40E941E0860E070E08CED92E40E9438
:10294000430A8FE492E00E943E1081E592E00E94EB
:102950003E108EEA97E00E948E0780EB97E00E947F
:102960008E078DEC9CECACE4BEE380930002909368
:102970000102A0930202B09303024CE55FE862E417
:102980007EEB8AEA97E00E94C6054DEC5CEC6CE4B5
:102990007EEB8CEA97E00E94C60580EB97E00E94F0
:1029A000B9076B017C01609312037093130380934A
:1029B0001403909315038EEA97E00E94B90790954F
:1029C0008095709561957F4F8F4F9F4F6093160351
:1029D0007093170380931803909319030E943C1976
:1029E0004B015C0120E030E842E755EC0E943519CC
:1029F00087FF07C040E050E0BA018AEA97E00E94F2
:102A0000C605C701B6010E943C196B017C0120E09C
:102A100030EA45E755E40E94A41B181644F440E050
:102A200050E060E070E88CEA97E00E94C6056AE03A
:102A300070E080E090E00E948D1120E030EA45E7F0
:102A400055E4C701B6010E94351987FDA6CF20E0E5
:102A500030E842E755ECC501B4010E94A41B1816EA
:102A60000CF49BCF40E050E0BA018AEA97E00E9464
:102A7000C60540E050E060E070E88CEA97E00E9414
:102A8000C60564E670E080E090E00E948D1183E569
:102A900092E00E943E1088E692E00E9466116091EA
:102AA00016037091170380911803909119030E94E7
:102AB0003C1182E792E00E94661160E070E882E7D4
:102AC00095EC0E946C0D83E892E00E946611609183
:102AD00012037091130380911403909115030E94C7
:102AE0003C1182E792E00E94661160E070EA85E79F
:102AF00095E40E946C0D68EC70E080E090E00E942C
:102B00008D1160E070E08CED92E40E94430A8FE446
:102B100092E00E943E108DE492E00E943E1060E040
:102B200070E084E392E40E94350960E070E088E49C
:102B300092E40E94430A8BE492E00E943E1060E01F
:102B400070E084EB92E40E941E0860E070E084E193
:102B500092E40E94430A89E492E00E943E1060E001
:102B600070E084E392E40E94350960E070E080E464
:102B700091E40E94430A87E492E00E943E1060E0E4
:102B800070E084EB92E40E941E0860E070E088EC44
:102B900091E40E94430A85E492E00E943E1060E0C6
:102BA00070E084EB92E40E94350960E070E080EA16
:102BB00091E40E94430A83E492E00E943E1060E0A8
:102BC00070E084EB92E40E94350960E070E088ECEC
:102BD00091E40E94430A81E492E00E943E1060E08A
:102BE00070E084EB92E40E941E088EEA97E00E9457
:102BF0008E0780EB97E00E948E078DEC9CECACEC8E
:102C0000BDE38093040290930502A0930602B09363
:102C1000070243EE55EA6BE17CE38AEA97E00E9403
:102C2000C6054DEC5CEC6CEC7DEB8CEA97E00E9409
:102C3000C6051D821E821F8218868EEA97E00E94BA
:102C4000B90722273327A901261B370B480B590B3D
:102C500029833A834B835C832093160330931703B5
:102C6000409318035093190380EB97E00E94B90733
:102C70006B017C0160931203709313038093140320
:102C80009093150369817A818B819C816C197D09F0
:102C90008E099F090E943C194B015C019B01AC010C
:102CA0006D817E818F8198850E94901A6D837E83CD
:102CB0008F8398874090040250900502609006022E
:102CC0007090070220E030E040E85FE3C301B2010A
:102CD0000E94351987FF10C02DEC3CEC4CEC5DE3F5
:102CE000C301B2010E94901A60930402709305021E
:102CF000809306029093070280910402909105024E
:102D0000A0910602B091070289879A87AB87BC879A
:102D100020E030E04AEF53E4C501B4010E94FC1A00
:102D20002B013C0120E034E244E759E46D817E81CF
:102D30008F8198850E94FC1A4B015C01A3019201CE
:102D400060E070E080E89FE30E948F1AA501940183
:102D50000E948F1A9B01AC0169857A858B859C85C1
:102D60000E949B19AB01BC018AEA97E00E94C6054C
:102D700020E030E040E85FE3C301B2010E94901A16
:102D8000A50194010E94901A9B01AC0169857A8586
:102D90008B859C850E949B19AB01BC0170588CEA05
:102DA00097E00E94C60564E670E080E090E00E9433
:102DB0008D1129813A814B815C8129353746410546
:102DC00051053CF040E050E0BA018AEA97E00E94E9
:102DD000C60599E5C91697E6D906E104F10444F061
:102DE00040E050E060E070E88CEA97E00E94C605A1
:102DF00029813A814B815C8128353746410551054F
:102E00000CF41BCF98E5C91697E6D906E104F10446
:102E10000CF413CF64E170E080E090E00E948D112B
:102E20004DEC5CEC6CEC7EEB8AEA97E00E94C60508
:102E30004DEC5CEC6CEC7EE38CEA97E00E94C605FE
:102E400064EF71E080E090E00E948D114AE959E959
:102E500069E17FE38AEA97E00E94C6054AE959E9F9
:102E600069E17FEB8CEA97E00E94C60564EF71E0B0
:102E700080E090E00E948D1140E050E0BA018AEAC3
:102E800097E00E94C60540E050E060E070E88CEA00
:102E900097E00E94C6056AE070E080E090E00E9442
:102EA0008D110E94ED02F7CF8091C8069091C9065E
:102EB0000C94431C1092D9031092D80388EE93E02F
:102EC000A0E0B0E08093DA039093DB03A093DC03EF
:102ED000B093DD0323E132E03093D7032093D60390
:102EE0001092E5031092E4038093E6039093E703C6
:102EF000A093E803B093E90325E232E03093E303C3
:102F00002093E20345E351E05093EF034093EE0337
:102F100044E351E05093F1034093F00340E351E068
:102F20005093F3034093F20341E351E05093F503D0
:102F30004093F40342E351E05093F7034093F603C8
:102F400046E351E05093F9034093F8031092FB03DA
:102F50001092FC031092FD031092FE031092820463
:102F6000109281048093830490938404A093850439
:102F7000B09386043093800420937F0445ED50E0A5
:102F800050938C0440938B0444ED50E050938E0496
:102F900040938D0440ED50E05093900440938F0493
:102FA00041ED50E0509392044093910442ED50E083
:102FB000509394044093930446ED50E0509396044C
:102FC00040939504109298041092990410929A04D8
:102FD00010929B0410921F0510921E0580932005ED
:102FE00090932105A0932205B093230530931D05EE
:102FF00020931C0585EC90E090932905809328058B
:1030000084EC90E090932B0580932A0580EC90E06F
:1030100090932D0580932C0581EC90E090932F05E3
:1030200080932E0582EC90E09093310580933005DB
:1030300086EC90E09093330580933205109235052D
:1030400010923605109237051092380586E380936A
:10305000B20787E38093B30788E38093B40789E3DB
:103060008093B5078BE18093B6078DE18093B70716
:103070008AE18093B8078CE18093B90784E080935C
:10308000BA0787E08093BB071092BC0784EB80935C
:10309000BD0786E18093BE0788E18093BF0787E183
:1030A0008093C00789E18093C107E091C706EC30A7
:1030B00020F08FEF8093C20710C081E08E0F8093C5
:1030C000C706E093C20725E0E29FF0011124E5570F
:1030D000F94F88EB9BE092838183E091C706EC3047
:1030E00020F08FEF8093C30710C081E08E0F809394
:1030F000C706E093C30785E0E89FF0011124E55778
:10310000F94F88EB9BE0928381838CE08093910759
:1031100084E28093920786E08093930785E0809312
:1031200094078FE1809395078EE18093960783E261
:103130008093970782E28093980785E480939907AC
:1031400084E480939A0780E480939D071092A207FD
:103150001092A3071092A4071092A5071092A60739
:103160001092A7071092A8071092A907E3EDF6E0C6
:103170008FEF9FEFDC011282138214821582168278
:1031800017821086118683879487A587B6878787DD
:10319000908BA18BB28B128611821082739627E0DE
:1031A000E139F20741F78DE090E00E94AE1BFC018F
:1031B0001382128287E392E091838083118687E2F3
:1031C000848384E1828784E083871486F093D00629
:1031D000E093CF061092D1061092D20685E280933A
:1031E000BA051092BC051092C9061092C80610923A
:1031F000CB061092CA061092CD061092CC0661E062
:1032000070E080E090E00E94DB1C009789F09093D2
:10321000C9068093C8061092CB061092CA06209168
:10322000CC063091CD06232BC1F4FC01108215C0D1
:103230008091C8069091C906009711F00E94431C26
:103240001092C9061092C8061092CD061092CC06B4
:103250001092CB061092CA0608951092CD061092D5
:10326000CC0667EE72E00C94D21D0E94771908F428
:1032700081E00895E89409C097FB3EF4909580950D
:10328000709561957F4F8F4F9F4F9923A9F0F92F2C
:1032900096E9BB279395F695879577956795B795AA
:1032A000F111F8CFFAF4BB0F11F460FF1BC06F5F90
:1032B0007F4F8F4F9F4F16C0882311F096E911C0A2
:1032C000772321F09EE8872F762F05C0662371F0C3
:1032D00096E8862F70E060E02AF09A95660F771FD7
:1032E000881FDAF7880F9695879597F90895990FB3
:1032F0000008550FAA0BE0E8FEEF16161706E807C0
:10330000F907C0F012161306E407F50798F0621BE0
:10331000730B840B950B39F40A2661F0232B242BB5
:10332000252B21F408950A2609F4A140A6958FEFD4
:10333000811D811D08950E94AE190C941F1A0E94D0
:10334000111A38F00E94181A20F0952311F00C94ED
:10335000081A0C940E1A11240C94531A0E94301A55
:1033600070F3959FC1F3950F50E0551F629FF001D8
:10337000729FBB27F00DB11D639FAA27F00DB11DF1
:10338000AA1F649F6627B00DA11D661F829F22277A
:10339000B00DA11D621F739FB00DA11D621F839F01
:1033A000A00D611D221F749F3327A00D611D231FD7
:1033B000849F600D211D822F762F6A2F11249F5725
:1033C00050409AF0F1F088234AF0EE0FFF1FBB1F28
:1033D000661F771F881F91505040A9F79E3F5105E7
:1033E00080F00C94081A0C94531A5F3FE4F3983E53
:1033F000D4F3869577956795B795F795E7959F5F91
:10340000C1F7FE2B880F911D9695879597F9089522
:1034100097F99F6780E870E060E008959FEF80EC87
:10342000089500240A94161617061806090608952A
:1034300000240A9412161306140605060895092E90
:103440000394000C11F4882352F0BB0F40F4BF2BFF
:1034500011F460FF04C06F5F7F4F8F4F9F4F08953F
:1034600057FD9058440F551F59F05F3F71F0479535
:10347000880F97FB991F61F09F3F79F0879508951A
:10348000121613061406551FF2CF4695F1DF08C039
:10349000161617061806991FF1CF86957105610556
:1034A00008940895E894BB2766277727CB0197F9FE
:1034B0000895A1E21A2EAA1BBB1BFD010DC0AA1F75
:1034C000BB1FEE1FFF1FA217B307E407F50720F08D
:1034D000A21BB30BE40BF50B661F771F881F991F08
:1034E0001A9469F760957095809590959B01AC0151
:1034F000BD01CF010895991B79E004C0991F96176B
:1035000008F0961B881F7A95C9F780950895EE0FED
:10351000FF1F881F8BBF0790F691E02D199450581C
:10352000BB27AA270E94A71A0C941F1A0E94111ADF
:1035300038F00E94181A20F039F49F3F19F426F44D
:103540000C940E1A0EF4E095E7FB0C94081AE92F80
:103550000E94301A58F3BA17620773078407950759
:1035600020F079F4A6F50C94521A0EF4E0950B2E87
:10357000BA2FA02D0B01B90190010C01CA01A001C5
:103580001124FF27591B99F0593F50F4503E68F120
:103590001A16F040A22F232F342F4427585FF3CF61
:1035A000469537952795A795F0405395C9F77EF432
:1035B0001F16BA0B620B730B840BBAF09150A1F07B
:1035C000FF0FBB1F661F771F881FC2F70EC0BA0F01
:1035D000621F731F841F48F4879577956795B79589
:1035E000F7959E3F08F0B0CF9395880F08F0992784
:1035F000EE0F9795879508950E94101B0C941F1A43
:103600000E94181A58F00E94111A40F029F45F3FE6
:1036100029F00C94081A51110C94531A0C940E1A98
:103620000E94301A68F39923B1F3552391F3951B47
:10363000550BBB27AA2762177307840738F09F5FD3
:103640005F4F220F331F441FAA1FA9F335D00E2E40
:103650003AF0E0E832D091505040E695001CCAF7AD
:103660002BD0FE2F29D0660F771F881FBB1F261770
:1036700037074807AB07B0E809F0BB0B802DBF0147
:10368000FF2793585F4F3AF09E3F510578F00C9416
:10369000081A0C94531A5F3FE4F3983ED4F38695CE
:1036A00077956795B795F7959F5FC9F7880F911D37
:1036B0009695879597F90895E1E0660F771F881F23
:1036C000BB1F621773078407BA0720F0621B730BD6
:1036D000840BBA0BEE1F88F7E09508950E94751BC6
:1036E0006894B1110C94531A08950E94381A88F006
:1036F0009F5798F0B92F9927B751B0F0E1F0660FB6
:10370000771F881F991F1AF0BA95C9F714C0B130F6
:1037100091F00E94521AB1E008950C94521A672F4A
:10372000782F8827B85F39F0B93FCCF38695779525
:103730006795B395D9F73EF490958095709561950E
:103740007F4F8F4F9F4F08950E94771908F48FEF96
:1037500008950E947719880B990B0895CF93DF93F2
:103760008230910510F482E090E0E091D307F0916F
:10377000D40720E030E0C0E0D0E0309711F1408184
:10378000518148175907C0F04817590761F48281E1
:103790009381209719F09B838A832BC09093D40741
:1037A0008093D30726C02115310519F0421753071E
:1037B00018F49A01BE01DF01EF010280F381E02DD0
:1037C000DCCF2115310509F1281B390B24303105D7
:1037D00090F412968D919C9113976115710521F0CB
:1037E000FB019383828304C09093D4078093D30713
:1037F000FD01329644C0FD01E20FF31F81939193C6
:10380000225031092D933C933AC02091D107309139
:10381000D207232B41F420910B0230910C023093FC
:10382000D2072093D1072091090230910A02211575
:10383000310541F42DB73EB740910D0250910E0273
:10384000241B350BE091D107F091D207E217F30763
:10385000A0F42E1B3F0B2817390778F0AC014E5F00
:103860005F4F2417350748F04E0F5F1F5093D20764
:103870004093D1078193919302C0E0E0F0E0CF0143
:10388000DF91CF9108950F931F93CF93DF9300970C
:1038900009F48CC0FC013297138212820091D30785
:1038A0001091D4070115110581F420813181820F17
:1038B000931F2091D1073091D2072817390779F546
:1038C000F093D207E093D10771C0D80140E050E0F7
:1038D000AE17BF0750F412962D913C911397AD018E
:1038E0002115310509F1D901F3CF9D01DA013383A7
:1038F000228360817181860F971F8217930769F475
:10390000EC0128813981260F371F2E5F3F4F31830D
:1039100020838A819B8193838283452B29F4F093B2
:10392000D407E093D30742C01396FC93EE9312970B
:10393000ED01499159919E01240F351FE217F307BC
:1039400071F480819181840F951F029611969C934A
:103950008E938281938113969C938E931297E0E0CD
:10396000F0E0D80112968D919C911397009719F071
:10397000F8018C01F6CF8D919C9198012E5F3F4FFD
:10398000820F931F2091D1073091D2072817390752
:1039900069F4309729F41092D4071092D30702C02B
:1039A000138212821093D2070093D107DF91CF9137
:1039B0001F910F9108956F927F928F929F92AF9275
:1039C000BF92CF92DF92EF92FF920F931F93CF930C
:1039D000DF93EC01009789F4CB01DF91CF911F9128
:1039E0000F91FF90EF90DF90CF90BF90AF909F909E
:1039F0008F907F906F900C94AE1BFC01E60FF71F29
:103A00009C0122503109E217F30708F4ACC0D90138
:103A10000D911C91119706171707B0F0053011058D
:103A200008F49FC0C80104978617970708F499C047
:103A300002501109061B170B019311936D937C9390
:103A4000CF010E94431C8DC05B01A01AB10A4C013A
:103A5000800E911EA091D307B091D40740E050E0B2
:103A6000E12CF12C109709F44AC0A815B905D1F53D
:103A70006D907C901197630182E0C80ED11CCA142E
:103A8000DB0480F1A3014A195B096A0182E0C80ED8
:103A9000D11C1296BC9012971396AC91B5E0CB1640
:103AA000D10440F0B282A38351834083D9016D9346
:103AB0007C930AC00E5F1F4FC301800F911FF90155
:103AC00091838083EB2DFA2FE114F10431F0D701BB
:103AD0001396FC93EE93129744C0F093D407E093AF
:103AE000D3073FC08D919C9111974817590708F44F
:103AF000AC017D0112960D90BC91A02DB3CF8091A9
:103B0000D1079091D20788159905E1F44617570718
:103B1000C8F48091090290910A02009741F48DB790
:103B20009EB740910D0250910E02841B950BE81731
:103B3000F907C8F4F093D207E093D107F901718334
:103B400060830FC0CB010E94AE1B7C01009759F02F
:103B5000A801BE010E94C91DCE010E94431CC701DD
:103B600004C0CE0102C080E090E0DF91CF911F91B0
:103B70000F91FF90EF90DF90CF90BF90AF909F900C
:103B80008F907F906F90089581E090E0F8940C946E
:103B9000D91DFB01DC0102C001900D924150504043
:103BA000D8F70895FB01DC0101900D920020E1F7A8
:103BB000089511E0C0E9D1E000E006C0802FFE01C9
:103BC0000E94871A2196011DC139D10780E008079C
:063BD000A9F7F894FFCFF5
:103BD600CDCCCC3ECDCCCC3EFF0000D5072000009E
:103BE600000000E70CB70C1B03910CAF0CA00C9265
:103BF6000C000000008402C4010802CB023902173F
:103C0600022B02000000004803C4011B031A0341F3
:103C16000042004300440045004600470048004972
:103C2600004A0046494E4920746F75726E657220CF
:103C3600737572206C756900476175636865203D10
:103C46002000207C207468C3A96F72697175652095
:103C56003D200044726F697465203D200046494E40
:103C66004920746F75726E65722064726F6974652F
:103C760000207C207468C3A96F7269717565203D48
:103C860020300046494E4920746F75726E65722069
:103C96006761756368650046494E49206176616EC5
:103CA6006365722C2073707065642066696E616C42
:103CB60065203D20000D0A004552524555522054BC
:103CC6004F54203D206761756368653A0020647231
:103CD6006F6974653A006E616E00696E66006F7694
:023CE600660076
:00000001FF
